:020000040800F2
:10000000F807002045650008796400087B64000853
:1000100000000000000000000000000000000000E0
:10002000000000000000000000000000671C000845
:100030000000000000000000C32500087D640008E7
:100040006B380008A7380008434900081B4A00081D
:10005000634C00089F510008975C00088964000801
:1000600023610008EF6200084F6400089F640008E5
:10007000F764000807650008000000003365000809
:10008000000000006965000800000000000000009A
:100090006B650008000000006D6500086F650008D2
:1000A00071650008736500087565000877650008CC
:1000B000796500087B6500087D6500087F6500089C
:1000C00030B581B00400A068006805686878002831
:1000D00033D169460870200000F06FFD01282AD056
:1000E000684600782178884225D1864868600121D9
:1000F000200000F06FFD01281DD00021200000F03D
:1001000089FD012817D00021200000F0B7FD01284B
:1001100011D00021200000F0D2FD01280BD00221D7
:10012000200000F0ECFD012805D00021200000F0A7
:1001300047FE012801D1012003E001202870E07072
:10014000002001B030BD30B581B00400A068006867
:100150000568687800280ED1207900280BD0E8784F
:10016000002805D10021200000F054FD012805D011
:100170000020A870207100202870E07001B030BD10
:1001800030B581B00400A0680068056820790128B6
:1001900040D06868884900F0E9FF01D2102112E0E0
:1001A000864900F0E3FF01D220210CE0844900F0F1
:1001B000DDFF01D2302106E0824900F0D7FF01D2F5
:1001C000402100E05021200000F024FD012825D02E
:1001D0006946200000F03EFD01281FD068460078E7
:1001E000002813D010280FD020280BD0302807D09B
:1001F000402803D050280FD1734807E0734805E02A
:10020000404803E0724801E0FE208005686001205C
:10021000A8702071002002E0A0486860012001B0B1
:1002200030BD30B581B00400A06800680568207951
:1002300000280BD0E878002805D10021200000F02C
:10024000E9FC012802D00020A870207101B030BD67
:1002500000B581B000F0B1FC012800D0002001B051
:1002600000BD30B581B004000025684605706946C0
:10027000200000F0A2FC012804D068460078217814
:10028000884200D00125280001B030BD30B581B0D2
:100290000D0000240094694600F06AFE012807D092
:1002A000009800F07BFF7E4900F091FF286000205D
:1002B00001B030BD10B582B00C00694600F0CAFC38
:1002C00001281DD068460078002813D010280FD0D0
:1002D00020280BD0302807D0402803D050280CD13C
:1002E000394807E0394805E0064803E0384801E0AE
:1002F000FE2080052060002002E09E482060012052
:1003000002B010BD0000C84130B581B00400A06843
:1003100000680568207901283CD100290ED0022907
:1003200008D009D3042901D002D331E0502106E0DE
:10033000402104E0302102E0202100E010212000D3
:1003400000F068FC012823D06946200000F082FC00
:1003500001281DD06846007800280AD0102812D045
:1003600020280ED030280AD0402806D050280DD1A1
:1003700015486860002001B030BD1448F9E7154801
:10038000F7E71348F5E7FE208005F2E74348686089
:100390000120F0E700290BD0022905D006D304295B
:1003A000E6D0F5D20948E4E70A48E2E70848E0E782
:1003B000FE208005DDE700000100803F01002041B4
:1003C0000100C84101004842000096420000484236
:1003D000000020410000C84130B581B00400080091
:1003E000A16809680D689B492279012A42D100F071
:1003F000BDFE01D2102112E0974900F0B7FE01D2F4
:1004000020210CE0954900F0B1FE01D2302106E038
:10041000934900F0ABFE01D2402100E050212000C2
:1004200000F0F8FB012823D06946200000F012FC00
:1004300001281DD06846007800280AD0102812D064
:1004400020280ED030280AD0402806D050280DD1C0
:10045000A9486860002001B030BDA848F9E7A84865
:10046000F7E7A848F5E7FE208005F2E70B4868604B
:100470000120F0E700F07AFE0BD3774900F076FE1A
:1004800007D3764900F072FE03D3754900F06EFE83
:1004900001D2481EDDE79848DBE70000000080BF7E
:1004A0000000C84200B581B01300012200F053FBE8
:1004B000012800D0002001B000BD00B581B06B461E
:1004C0001A70012200F060FB012800D0002001B06A
:1004D00000BD10B582B00C00694600F0F5FC0128A3
:1004E00003D0684640782070002002B010BD30B5BF
:1004F00081B00400A068006805682878002833D11E
:1005000069460870200000F058FB01282AD0684690
:1005100000782178884225D179486860012120003F
:1005200000F058FB01281DD00021200000F072FBD4
:10053000012817D00021200000F0A0FB012811D0D5
:100540000021200000F0BBFB01280BD0022120007D
:1005500000F0D5FB012805D00021200000F030FC80
:10056000012801D1012003E001206870E070002023
:1005700001B030BD000080BF30B581B00400A0687C
:1005800000680568287800280ED1207900280BD053
:10059000A878002805D10021200000F03BFB0128AD
:1005A00005D00020E870207100206870E07001B074
:1005B00030BD30B581B00400A068006805682079BE
:1005C000012840D06868234900F0D0FD01D21021F5
:1005D00012E0214900F0CAFD01D220210CE01F49A0
:1005E00000F0C4FD01D2302106E01D4900F0BEFD3F
:1005F00001D2402100E05021200000F00BFB012837
:1006000025D06946200000F025FB01281FD0684650
:100610000078002813D010280FD020280BD03028C5
:1006200007D0402803D050280FD1334807E0334883
:1006300005E0334803E0334801E0FE2080056860B0
:100640000120E8702071002002E0A14868600120CC
:1006500001B030BD0100803F010020410100C841D0
:100660000100484230B581B00400A0680068056808
:10067000207900280BD0A878002805D1002120007F
:1006800000F0C8FA012802D00020E870207101B003
:1006900030BD00B581B000F090FA012800D00020F4
:1006A00001B000BD30B581B004000025684605707A
:1006B0006946200000F081FA012804D068460078DD
:1006C0002178884200D00125280001B030BD30B526
:1006D00081B00D00002469460C8000F05EFC01280A
:1006E00008D0009800B200F059FD7A4900F06FFD83
:1006F0002860002001B030BD000096420000484252
:100700000000C8410000204110B582B00C006946CD
:1007100000F0A0FA01281DD068460078002813D008
:1007200010280FD020280BD0302807D0402803D025
:1007300050280CD1344807E0674805E0674803E0DB
:10074000644801E0FE2080052060002002E060484F
:100750002060012002B010BD30B581B00400A06857
:1007600000680568207901283CD100290ED00229B3
:1007700008D009D3042901D002D331E0502106E08A
:10078000402104E0302102E0202100E0102120007F
:1007900000F040FA012823D06946200000F05AFA00
:1007A00001281DD06846007800280AD0102812D0F1
:1007B00020280ED030280AD0402806D050280DD14D
:1007C00011486860002001B030BD4348F9E7434854
:1007D000F7E74048F5E7FE208005F2E73C4868600F
:1007E0000120F0E700290BD0022905D006D3042907
:1007F000E6D0F5D23848E4E73848E2E73548E0E7A4
:10080000FE208005DDE700000000964230B581B093
:1008100004000800A16809680D6888492279012A46
:1008200042D100F0A3FC01D2102112E0844900F073
:100830009DFC01D220210CE0824900F097FC01D2FE
:10084000302106E0804900F091FC01D2402100E017
:100850005021200000F0DEF9012823D06946200055
:1008600000F0F8F901281DD06846007800280AD069
:10087000102812D020280ED030280AD0402806D0C8
:1008800050280DD171486860002001B030BD124879
:10089000F9E71248F7E70F48F5E7FE208005F2E791
:1008A0000B4868600120F0E700F060FC0BD364495E
:1008B00000F05CFC07D3634900F058FC03D36249A5
:1008C00000F054FC01D2481EDDE76048DBE7000081
:1008D000000080BF00002041000048420000C841E5
:1008E00000B581B01300012200F035F9012800D0D5
:1008F000002001B000BD00B581B06B461A70012226
:1009000000F042F9012800D0002001B000BD10B570
:1009100082B00C00694600F0D7FA012803D068467F
:1009200000782070002002B010BD10B582B00C001D
:10093000694600F0B3FB012803D068464078207078
:10094000002002B010BD10B582B00C00694600F066
:10095000A5FB012803D0684680782070002002B0F3
:1009600010BD10B582B00C00694600F097FB01285D
:1009700003D06846C0782070002002B010BD10B5CA
:1009800082B00C00694600F089FB012803D068465C
:1009900000792070002002B010BD00B581B001299F
:1009A00004D800F0ECF9012802D102E0012000E0B7
:1009B000002001B000BD00B581B0012904D800F0CD
:1009C000BDF9012802D102E0012000E0002001B0C1
:1009D00000BD10B582B00C00694600F05FFB012835
:1009E00003D0684600782070002002B010BDF0B53A
:1009F00083B005000F0016000024019401A900F047
:100A0000B7FA012817D0019800F0C8FB104900F090
:100A1000DEFB3860684604806946280000F0BDFAB5
:100A2000012808D0009800B200F0B8FB094900F096
:100A3000CEFB3060002003B0F0BD00000100803F1D
:100A4000010020410100C8410100484200009642D7
:100A50000000C8420000204110B582B00C00694679
:100A600000F0D7FA012803D06846007820700020F3
:100A700002B010BD00B581B00A0009D0202907D00E
:100A8000402905D0602903D0802901D0E02904D174
:100A900000F09FFA012802D102E0012000E00020CE
:100AA00001B000BD00B581B000F0E7FA012800D028
:100AB000002001B000BD00B581B000F0BEFA0128F1
:100AC00000D0002001B000BD00B581B0012904D8DC
:100AD00000F055F9012802D102E0012000E00020D9
:100AE00001B000BD00B581B0002903D002290FD0AC
:100AF00008D312E0012100F0A5F901280DD0002053
:100B000001B000BD012100F0BEF90128F7D104E0D9
:100B1000012100F076F90128F1D10120F0E700B5BC
:100B200081B0002903D002290ED007D311E000F0D4
:100B300089F901280DD0002001B000BD002100F08E
:100B4000A2F90128F7D104E0002100F05AF90128A8
:100B5000F1D10120F0E7F1B50F00160000253000BB
:100B60000FD01C00012322007919C9B2009800F0AF
:100B700006FC002801D0012004E06D1C641CB54275
:100B8000F0DB002001B0F0BDF1B50F00160000252C
:100B900030000FD01C00012322007919C9B200983F
:100BA00000F0D5FB002801D0012004E06D1C641C7E
:100BB000B542F0DB002001B0F0BD00B581B00123EB
:100BC0000A000F2100F0DBFB401E8041C043C00F34
:100BD00001B000BD30B581B005000C0001236A46AC
:100BE0001A2100F0CCFB002801D0012010E068465B
:100BF0000078FE2101400C436846047001236A46D8
:100C00001A21280000F0A3FB401E8041C043C00F02
:100C100001B030BD30B581B005000C0001236A463B
:100C2000102100F0ACFB002801D0012010E0684644
:100C300000788F2101400C436846047001236A4606
:100C40001021280000F083FB401E8041C043C00FEC
:100C500001B030BD10B582B00C0001236A461021EE
:100C600000F08DFB002806D1684600787021014015
:100C70002170002000E0012002B010BD30B581B02D
:100C800005000C0001236A46102100F078FB0028C3
:100C900001D0012011E068460078F7210140E00012
:100CA00008436946087001236A461021280000F0B5
:100CB0004EFB401E8041C043C00F01B030BD30B577
:100CC00081B005000C0001236A46102100F057FB9B
:100CD000002801D0012010E068460078FB21014087
:100CE0000C436846047001236A461021280000F076
:100CF0002EFB401E8041C043C00F01B030BD30B557
:100D000081B005000C0001236A46102100F037FB7A
:100D1000002801D001200FE068460078FD21014045
:100D20000C436846047001236A461021280000F035
:100D30000EFB002800D0002001B030BD30B581B0DE
:100D400005000C0001236A46112100F018FB002861
:100D500001D0012011E068460078BF210140A001C8
:100D600008436946087001236A461121280000F0F3
:100D7000EEFA401E8041C043C00F01B030BD30B517
:100D800081B005000C0001236A46112100F0F7FA3A
:100D9000002801D0012011E068460078DF210140E1
:100DA000600108436946087001236A461121280042
:100DB00000F0CDFA401E8041C043C00F01B030BDED
:100DC00030B581B005000C0001236A46112100F006
:100DD000D6FA002801D0012011E068460078EF2102
:100DE0000140200108436946087001236A46112129
:100DF000280000F0ACFA401E8041C043C00F01B093
:100E000030BD30B581B005000C0001236A461221C7
:100E100000F0B5FA002801D0012011E06846007802
:100E2000F7210140E00008436946087001236A4643
:100E30001221280000F08BFA401E8041C043C00FF1
:100E400001B030BD30B581B005000C0001236A4609
:100E5000122100F094FA002801D0012011E0684628
:100E60000078EF2101402001084369460870012302
:100E70006A461221280000F06AFA401E8041C043F1
:100E8000C00F01B030BD30B581B005000C000123AA
:100E90006A46122100F073FA002801D0012011E007
:100EA00068460078DF210140600108436946087008
:100EB00001236A461221280000F049FA401E8041B1
:100EC000C043C00F01B030BD10B582B00C0001238B
:100ED0006A46272100F053FA002817D101206946FD
:100EE000097801220A40627069460978022211409D
:100EF000217069460978490901220A40A2706946B1
:100F0000097809090840E070002000E0012002B0E3
:100F100010BD70B582B005000E006C4601236A4614
:100F2000282100F02CFA00280FD10123621C29216E
:100F3000280000F024FA002807D10123A21C2A214E
:100F4000280000F01CFA002801D001200EE02078D3
:100F5000617809020143A07800040843010203D527
:100F60000100FF20000608433060002002B070BD81
:100F700010B582B00C006946FFF7CBFF002801D006
:100F8000012008E0009864214843C112090D0818A7
:100F900000132060002002B010BD10B582B00C001C
:100FA0006B4602222B21FFF7D6FD002801D001203D
:100FB0000DE06846417809020078081800B2810007
:100FC00008184000642100F061FA2080002002B07F
:100FD00010BD30B581B005000C0001236A46142114
:100FE00000F0CDF9002801D0012010E0684600781B
:100FF000C006C00E04436846047001236A461421EB
:10100000280000F0A4F9401E8041C043C00F01B089
:1010100030BD10B582B00C0001236A46142100F0E7
:10102000AEF9002806D168460078E0210140217021
:10103000002000E0012002B010BD30B581B00500F5
:101040000C0001236A46142100F099F9002801D010
:10105000012010E068460078E02101400C4368461A
:10106000047001236A461421280000F070F9401E24
:101070008041C043C00F01B030BD10B50C0001234A
:101080002200142100F07BF9002805D12078C00649
:10109000C00E2070002010BD012010BD10B582B020
:1010A0000C0001236A46262100F069F9002817D1B7
:1010B00068460078C00920710120694609788909CD
:1010C00001220A40E270694609788906890E21707A
:1010D0004A1E9241D20F62702178202902D102E08B
:1010E000012002E00020A070002002B010BDF8B482
:1010F0000168421843685908511800918168DB075C
:1011000001D54B46C918009B9A4202D10C30F2BC63
:1011100070471378521C032403261E4002D1167810
:10112000F61C521C1D090F2D07D115780F35521CC6
:1011300003E01778521C0F70491C761EF9D1002D60
:10114000E1D01678521C9B081C40032C01D1147866
:10115000521C2302F3185C420B19AD1CD3D01C782F
:101160005B1C0C70491C6D1ECDD0F8E70CB401223D
:1011700012060318DA4207D84B18DA4204D80200E4
:101180000A43921802D288420CBC7047FCD08142BC
:10119000FAE70268531C0360117070479D2102003A
:1011A00008D5F446524200F005F80122D207104358
:1011B000604700000AD002D4491E9218FCD5C90528
:1011C000100A1206524100D3012A4841704730B438
:1011D00005004D400122D20715404B180418240E7B
:1011E00028D01B0E2FD0FF2C34D0FF2B37D0E41A81
:1011F000000209021043114343084808D10D1B1A8D
:1012000002D2641EDB181B18DB18834200D31B1AA2
:101210004941F9D37F3426DDFE2C08DAE40548087D
:10122000C907194391416041284330BC7047FF20F2
:10123000C005F9E728001B0E03D0FF2BF5D14902AA
:10124000F3D0D043F1E7FF2C01D14002F9D1FF20C8
:10125000C005E9E74002F4D1FF2BF8D1F1E72800FF
:101260004902E2D0EDE70B0200202442DCD15B1200
:101270009B1CD9D9D805D7E730B587B0704C200072
:1012800000F09EFC002835D16E4860603320A060DD
:101290000120E0606C4820606C4D022069680143C9
:1012A00069606968014000910099C021890001913D
:1012B000122102910490002003900420059001A9BE
:1012C000634800F0D1FC8020800329690143296133
:1012D00029680843286028685E4901402960002287
:1012E0000021172000F0C0FD172000F0D8FD2000DD
:1012F00000F026F9200000F063FC012801D1002055
:1013000000E0012007B030BD00B587B00120524990
:101310000A6802430A60096808400090009810209B
:1013200001904E480290022004900020039001A9F1
:10133000A020C00500F098FC00220021072000F04A
:1013400093FD072000F0ABFD002007B000BD30B5D5
:1013500083B03B4C80256D010295019300920123DF
:101360000A004178200000F057F9002805D020003D
:1013700000F036F900F01BF8012003B030BD30B5A5
:1013800083B02F4C80256D010295019300920123BB
:101390000A004178200000F0A7FA002805D02000BC
:1013A00000F01EF900F003F8012003B030BD30B5A5
:1013B00087B0234C200000F003FC002835D12148E1
:1013C00060603320A0600120E0601F4820601F4D56
:1013D00002206968014369606968014000910099D1
:1013E000C0218900019112210291049000200390F4
:1013F0000420059001A9164800F036FC80208003E7
:10140000296901432961296808432860286811492E
:101410000140296000220021172000F025FD17203F
:1014200000F03DFD200000F08BF8200000F0C8FB2C
:10143000012801D1002000E0012007B030BD0000EC
:10144000681300202E11B100005400402810024003
:1014500000040050FFFFDFFF2C10024000001110BD
:10146000F446002804D4494200F013F84042604793
:101470004042002905D45FD000F00BF840424942B9
:101480006047494200F005F84942604703460B4374
:10149000E6D40022030A8B420BD203098B4219D2F5
:1014A00043088B422ED2411A00D2014652411046C7
:1014B0007047FF2209023FD012068B4205D3121259
:1014C00009028B4201D31212090203098B4219D37C
:1014D00000E0090AC3098B4201D3CB01C01A524173
:1014E00083098B4201D38B01C01A524143098B42BD
:1014F00001D34B01C01A524103098B4201D30B01A6
:10150000C01A5241C3088B4201D3CB00C01A5241CA
:1015100083088B4201D38B00C01A524143088B428F
:1015200001D34B00C01A5241884200D3401A5241A5
:10153000CFD201461046704708B500F0D7FC08BD71
:1015400030B581B0040001D1012047E025003435D9
:101550006878002803D12870200000F083FB022067
:101560006870206801680122914301606068274922
:1015700001402068016120688168254A0A40826034
:10158000A068002809D0E168012901D1802100E08C
:1015900084210902014320688160E068022803D1A8
:1015A000802000012168486020684168194A0A4388
:1015B0004260206961690143A06900020843216813
:1015C000C860E069216A0143206801602068012148
:1015D00002680A43026000206860697001B030BD93
:1015E00010B5002801D1012010BD040034340221BF
:1015F000617001680A6801239A430A6000F077FC71
:10160000002060606070207010BD0000FFFFFFF0E0
:10161000FF7FFFFF00800002FDB584B034300090F2
:101620004078012800D056E10C98002803D0684685
:10163000808E002801D101204EE104980068826963
:10164000120400D547E1009A1278012A00D142E144
:101650000127009B1F705222009B5A700022009BA2
:101660005A608905890D019141689C4A0A40019997
:1016700011436A46128B1206120A0A439849114313
:10168000416000F035FC05000024E4430E9E049800
:1016900000688169890723D43100049800F093FA27
:1016A000002813D1A642F2D0002E04D000F020FC76
:1016B000401B8642EBD200984068202101430098ED
:1016C00041600098477000200099087000984068B9
:1016D00000984068042859D1002000990870E9E07A
:1016E0006946098B012926D06946898A090A8162DF
:1016F00000F0FEFB050004980068806980071AD49A
:101700003100049800F05FFA0028DFD1A642F2D041
:10171000002E04D000F0ECFB401B8642EBD2009878
:1017200040682021014300984160009847700020E4
:1017300000990870CAE76846808AC0B204990968AF
:10174000886200F0D5FB05000498006881690906ED
:101750000ED4A642F8D0002E04D000F0C9FB401BE6
:101760008642F1D200984770002000990870AFE7D8
:101770006946898EFF2941680CDD584A0A40019963
:101780001143584A0A434260FF2511E000200099A6
:1017900008709EE0514A0A40019911436A46928EB0
:1017A0001206120A0A437906114341606846858E83
:1017B00000F09EFB029004980068816989071FD49D
:1017C0003100049800F0FFF9002814D1A642F2D0AD
:1017D000002E05D000F08CFB0299401A8642EAD216
:1017E00000984068202101430098416000984770AC
:1017F00000200099087000984068042869D159E0D9
:101800000C99097881620C98401C0C906D1E6846FA
:10181000808E401E69468886002D6846808E25D1C0
:10182000002825D000F064FB050004980068816959
:1018300009060ED4A642F8D0002E04D000F058FBC2
:10184000401B8642F1D20098477000200099087032
:101850003FE06946898EFF2941689BDD019A1F4B55
:101860000B4013431F49194341608DE700289FD166
:1018700000F03EFB050020240498006881692140A7
:101880001AD11921049800F09EF900280ED100F019
:101890002FFB401B1A28EFD30098406804430098A0
:1018A00044600098477000200099087000984068D4
:1018B00004280ED101200FE0C4610498006841683B
:1018C000BA4A0A40426000984770002000990870A8
:1018D00002E0032000E0022007B0F0BD009800FC09
:1018E000002000010000FF01FDB584B034300090FD
:1018F0004078012800D055E10C98002803D06846B4
:10190000808E002801D101204DE104980068826991
:10191000120400D546E1009A1278012A00D141E173
:101920000127009B1F706222009B5A700022009BBF
:101930005A608905890D029141689D4A0A400299C1
:1019400011436A46128B1206120A0A4379031143A5
:10195000416000F0CDFA06000025ED430E9C04988E
:1019600000688169890723D42100049800F02BF9CD
:10197000002813D1AC42F2D0002C04D000F0B8FA09
:10198000801B8442EBD200984068202101430098DC
:1019900041600098477000200099087000984068E6
:1019A0000098406804285BD1002000990870E8E0A6
:1019B0006946098B012926D06946898A090A81620C
:1019C00000F096FA060004980068806980071AD42F
:1019D0002100049800F0F7F80028DFD1AC42F2D0E3
:1019E000002C04D000F084FA801B8442EBD20098D3
:1019F0004068202101430098416000984770002012
:101A000000990870CAE76846808AC0B204990968DC
:101A1000886200F06DFA01904026049800688169A0
:101A200031400FD1AC42F8D0002C05D000F060FA64
:101A30000199401A8442F0D2009847700020009922
:101A40000870ADE76946898EFF2941680CDD584A68
:101A50000A4002991143574A0A434260FF261CE09C
:101A60000020009908709BE0514A0A4002991143F6
:101A70006A46928E1206120A0A434F4909E04C4AFE
:101A80000A40029911436A46928E1206120A0A43CC
:101A9000B104114341606846868E00F029FA019036
:101AA00004980068816949070FD4AC42F8D0002C33
:101AB00005D000F01DFA0199401A8442F0D2009836
:101AC00047700020009908706AE0406A0C9908701D
:101AD0000C98401C0C90761E6846808E401E69460D
:101AE0008886002E6846808E27D1002827D000F0F7
:101AF000FFF90190802604980068816931400FD178
:101B0000AC42F8D0002C05D000F0F2F90199401A4F
:101B10008442F0D2009847700020009908703FE09E
:101B20006946898EFF294168A9DD029A204B0B4046
:101B3000134322491943416090E70028ADD100F0DA
:101B4000D7F90500202404980068816921401AD142
:101B50001921049800F037F800280ED100F0C8F9D8
:101B6000401B1A28EFD30098406804430098446053
:101B70000098477000200099087000984068042879
:101B80000ED101200FE0C461049800684168074A43
:101B90000A4042600098477000200099087002E0F7
:101BA000032000E0022007B0F0BD000000E800FEC6
:101BB000009800FC0024FF01002400020000FF0147
:101BC0003521405C7047F0B581B004000F0000F093
:101BD0008FF9009020681025816929403DD02600AA
:101BE00034367178122905D07178522902D0717873
:101BF000622906D14168890103D44168AA020A43D7
:101C000042602068202182690A4011D10020C0432F
:101C10008742F6D0002F05D000F06AF90099401AEB
:101C20008742EED20120707000203070032015E052
:101C3000C5612068C161216801208A69024000D124
:101C4000C86121684A68064B13404B6004217160EB
:101C5000707000203070012000E0002001B0F0BD65
:101C600000E800FE7047FEE7F0B484B000220323D2
:101C700001240D68002D00D1C9E00D6801269640B1
:101C80002E400296029D002D00D1BBE04D68022D32
:101C900001D0122D16D1D508AD00451900952D6A39
:101CA00003959600AC460F251C273740BD4067467C
:101CB000AF430D69AC461C2535406646AE403E43F9
:101CC000009D2E624D68012D05D0022D03D0112DEF
:101CD00001D0122D18D1866855006F463D716D46B2
:101CE0002F790325BD40AE43CD686F463F79BD4097
:101CF00035438560466801259540AE434D682D0902
:101D00002540954035434560066855006F463D7156
:101D10006D462F790325BD40ED432E40B4464F68F4
:101D20001F406E463679B740664637430760C6683F
:101D300035408E686F463F79BE402E43C6604D6881
:101D4000ED005FD5404D2D6825433F4E35603F4D3A
:101D50009608B600AD1900952F6896000C25354001
:101D60000F26AE40B7433E00A027FF05B84201D181
:101D7000002714E0364FB84201D101270FE0354F5C
:101D8000B84201D102270AE0334FB84201D10327FC
:101D900005E0324FB84201D1052700E00627AF40E9
:101DA0003743009D2F602E4D2D68029FFE43009605
:101DB0002E404D68ED0302D53500029E2E43284D7E
:101DC0002E606E68009D35404E68B60302D52E0029
:101DD000029D3543224E7560B668009D35404E68C1
:101DE000F60202D52E00029D35431D4EB560F66801
:101DF000009D35404E68B60202D52E00029D354347
:101E0000174EF560521C0D68D54000D035E704B080
:101E1000F0BC704700690840401E8041C043C00FBD
:101E20007047002A01D081617047816270470D4A76
:101E30001368034000D1704700B581B0106000F016
:101E400035FB01B000BD0000341002400800014025
:101E50000004005000080050000C0050001C00500E
:101E6000000401401404014010B4C20018231340C0
:101E7000FF249C40E2438907090E9940002804D5BD
:101E8000154B0007000F083800E0144B8008800055
:101E9000181803681A401143016010BC70470121F3
:101EA000C006C00E81400E4801607047401E802170
:101EB0004904884201D3012070470A4948600A4812
:101EC00002681202120AC0231B061343036000209B
:101ED000886007220A6070471CED00E000E400E023
:101EE00000E100E010E000E020ED00E07047704706
:101EF00001480068704700BFC0130020F0B585B0EE
:101F000000F048FB00F05EFB002000F091FB012197
:101F1000002000F0CFFB00F03DFCA74C2100083171
:101F2000022000F087FC012829D021000C31032079
:101F300000F060FE012822D0A06800F0A5FD012875
:101F40003BD19E4A9E492000103000F0FFFF200048
:101F5000103001F017F89B4B82B2210010319A48E3
:101F600001F04BF8002000F087FB642001F0D3FA69
:101F7000002000F08FFB642001F0CDFAF2E78F4AD9
:101F80008F492000103000F0E1FF2000103000F0F9
:101F9000F9FF8C4B82B2210010318B4801F02DF8F3
:101FA000002000F069FB642001F0B5FA002000F089
:101FB00071FB642001F0AFFAF2E7E06800F0B6FFD1
:101FC0000128BED00021A06800F06EFD01281DD0C0
:101FD0000021A06800F0D8FD012817D00121A068D9
:101FE00000F0D2FD012811D00221A06800F0CCFD44
:101FF00001280BD00021A06800F0B4FD012805D015
:102000000521A06800F0D2FD01281DD16B4A6C4962
:102010002000103000F09AFF2000103000F0B2FFD6
:10202000684B82B221001031674800F0E6FF0020C3
:1020300000F022FB642001F06EFA002000F02AFB81
:10204000642001F068FAF2E760492000103000F0E7
:102050007DFF2000103000F095FF5A4B82B2210026
:102060001031594800F0C9FF01E0022020712079A9
:10207000012807D0FBD303287AD051D3042800D1FC
:1020800085E1F4E752492000103000F05FFF2000A6
:10209000103000F077FF4B4B82B2210010314A48DC
:1020A00000F0ABFFD8492000103000F04FFF2000B7
:1020B000103000F067FF434B82B2210010314248DC
:1020C00000F09BFFFA20800001F025FA2021A06893
:1020D00000F036FD012805D00121A06800F078FD50
:1020E0000128C2D1354A36492000103000F02EFFB9
:1020F0002000103000F046FF324B82B22100103138
:10210000314800F07AFF002000F0B6FA642001F0B8
:1021100002FA002000F0BEFA642001F0FCF9F2E7B8
:10212000A11CA06800F0F8FC012801D105B0F0BDA9
:10213000A078E278904210D0E070B4A12000103076
:1021400000F004FF2000103000F01CFF1D4B82B295
:10215000210010311C4800F050FF2078002801D0E9
:1021600003202071A078202800D080E720787EE727
:10217000611CA06800F0A8FC01282BD10F4A10496F
:102180002000103000F0E2FE2000103000F0FAFED7
:102190000C4B82B2210010310B4800F02EFF0020C2
:1021A00000F06AFA642001F0B6F9002000F072FA3B
:1021B000642001F0B0F9F2E77C0100202C25000832
:1021C0007825000888130000F80F0020BC61000883
:1021D000E86100086078002800D148E7002000F09E
:1021E0004BFA0020694608710390029001A9A0688B
:1021F00000F092FC012800D1A9E0A27884A120007F
:10220000103000F0A3FE2000103000F0BBFEC34BE6
:1022100082B221001031C24800F0EFFEFA208000A7
:1022200001F079F98AA12000103000F08FFE200023
:10223000103000F0A7FEB94B82B221001031B8482F
:1022400000F0DBFE002520E01000310001F0A8F9CD
:1022500001F0FEF90022B34B01F013FA01F0D3FABA
:1022600001F0DAFA03002A0080A12000103000F00B
:102270006DFE2000103000F085FEA84B82B22100D8
:102280001031A74800F0B9FE3D006846007985424C
:1022900047DA02AA03A9A06800F02AFC012856D058
:1022A000039F380001F0E2FA0600FEF777FF020014
:1022B0003800002101F0F8FA01D8110001E0100007
:1022C000390001F06DF901F0C3F90022954B01F0DE
:1022D000D8F901F098FA6F1C01F09EFA00903300D3
:1022E0003A0000BF64A12000103000F02FFE200053
:1022F000103000F047FE894B82B22100103188482F
:1023000000F07BFE029E300001F0B0FA0500FEF7FF
:1023100045FF02003000002101F0C6FA94D81100F8
:1023200094E700BF59A12000103000F00FFE2000FC
:10233000103000F027FE794B82B22100103178482E
:1023400000F05BFE002000F0A5F904208EE600BF3F
:1023500076A200BF88A12000103000F0F7FD200019
:10236000103000F00FFE6D4B82B2210010316C482E
:1023700000F043FE002000F07FF9642001F0CBF86C
:10238000002000F087F9642001F0C5F8F2E7002191
:10239000A06800F0D5FB012815D000BF65A1200082
:1023A000103000F0D3FD2000103000F0EBFD5B4B4F
:1023B00082B2210010315A4800F01FFE0020207028
:1023C000A070E07052E600BF58A200BF6AA12000D2
:1023D000103000F0BBFD2000103000F0D3FD4F4B5B
:1023E00082B2210010314E4800F007FE002000F0BC
:1023F00043F9642001F08FF8002000F04BF96420CD
:1024000001F089F8F2E700000C6200082E000000DD
:102410000D0A25642073616D706C657320696E20F0
:102420004649464F2E0D0A0A537461727420746F28
:1024300020646F776E6C6F616420646174612066E4
:10244000726F6D204649464F2E2E2E0D0A0A00004F
:102450005B444154412023235D2020505245535377
:1024600020202054454D500D0A00000020202564F6
:102470002E253032640D0A005B4441544120253240
:10248000645D202025642E25303264000D0A464903
:10249000464F20646F776E6C6F616420636F6D7060
:1024A0006C657465642E0D0A0D0A000010B580215C
:1024B000890188420BD1002000F052F9012805D192
:1024C000194C2079002801D10120207110BD164C33
:1024D000102802D10120207010BD00BF20A200BF33
:1024E00025A12000103000F031FD2000103000F058
:1024F00049FD0A4B82B221001031094800F07DFDF0
:10250000002000F0B9F8642001F005F8002000F088
:10251000C1F8642000F0FFFFF2E70000881300001C
:10252000F80F0020000059407C0100206D61696EA9
:1025300000000000507265737320555345522062AD
:102540007574746F6E20746F20737461727420746C
:1025500068652044454D4F2E2E2E0D0A00000000C8
:1025600048414C5F4750494F5F455854495F43616C
:102570006C6C6261636B00000D0A4572726F7220B1
:10258000696E20272573272066756E6374696F6EE8
:102590002E0D0A0000B581B00848016840220A43A8
:1025A00002600168022291430160032001F090F96A
:1025B00000F006F8002001B000BD0000002002403D
:1025C0007047FEE770B594B0164C606880214905ED
:1025D0000143616014480168144A0A40C10C114368
:1025E00001600220059001250895102109910F90A6
:1025F00000261096400411900001129005A801F0E9
:1026000079F90F200090032001900296039604961A
:102610000121684601F07AFB20680543256014B06B
:1026200070BD00BF3410024000700040FFE7FFFFA4
:1026300030B587B00121514A13680B43136012680B
:102640000A400092009A00BF19A24300D55A019592
:1026500002910021039103210491494980000C1843
:1026600001A92068FFF700FB002229002068FFF77E
:10267000D8FB07B030BD000000B581B0012200BF1B
:102680000BA14300C95A3E4B80001858FFF7C9FB05
:1026900001B000BD00B581B0002200BF04A143001D
:1026A000C95A374B80001858FFF7BBFB01B000BD7B
:1026B0002000000030B587B005000C0004212F4831
:1026C00002680A4302600268114000910099816823
:1026D00001220A438260200010D100BF26A06900B9
:1026E000405A0190002002900220039003200490A1
:1026F00001A92448AA008058FFF7B6FA012C2AD174
:102700001DA06900405A0190002003901E480290CD
:1027100001A91C48AA008058FFF7A6FA0FA0405D47
:1027200043B2D90018240C40FF22A240D143C0225A
:10273000A240002B04D5154C1B071B0F083B00E0E3
:10274000134C9B089B00E3181C6821400A431A6045
:1027500040B2FFF7A4FB07B030BD00000700000047
:1027600000B581B004A14200895A064A8000105881
:10277000FFF750FB01B000BD002000002C1002400C
:102780008C02002090020020000011101CED00E0DF
:1027900000E400E070B586B00121234802680A43D6
:1027A000026002680A400092009A02680A430260CE
:1027B0000268114000910099C168802292020A4388
:1027C000C260042401940220029000250395049025
:1027D0000594A026F60501A93000FFF745FA082068
:1027E0000190059401A93000FFF73EFA0F4C104804
:1027F0002060E12040026060A560E5602561A56180
:102800000C206061200000F0C5FB002800D0FEE72E
:102810002000703060652000583080214900018020
:10282000456106B070BD00002C100240F80F00207A
:102830000044004070B50E000025356000286BD0C4
:10284000022800D1C8E000D28FE0300000F0CDF8BF
:10285000012800D0C7E0854CE07D012832D0FEF78A
:102860000BFD01282ED0BD202075B82060750120F9
:10287000A075E5752576607620004430E0617C48DF
:10288000206265627B48A065200058306064A564C2
:10289000200014303060206A0168080007D1200051
:1028A00014300021002200230EC006C009E02000E1
:1028B00014308847012800D095E01421306801F0D9
:1028C000ADFB3560E078012800D18AE0FEF7D4FC4A
:1028D000012800D185E0BD202070BA20607065809D
:1028E00025710120607120003C30A0606048E060EC
:1028F00025616148606520005430E06325643460E0
:10290000E0680168080005D100200021002207C40A
:1029100003C45FE0200056E0544CE078012860D00A
:10292000FEF7AAFC01285CD0BD202070BA206070A0
:10293000658025710120607120003C30A0604C480A
:10294000E06025614C48606520005430E0632564F8
:102950003460E0680168080005D1002000210022F1
:1029600007C403C436E020002DE0404CE07D012880
:1029700037D0FEF781FC012833D0BD202075B82068
:1029800060750120A075E5752576607620004430DD
:10299000E0613748206265623648A0652000583003
:1029A0006064A564200014303060206A016808006B
:1029B00007D1200014300021002200230EC006C0E1
:1029C00008E020001430884701280CD11421306819
:1029D00001F024FB356004E0300000F006F8012827
:1029E00001D1012070BD002070BDF0B581B007009D
:1029F00000241E4D2E002836F078012833D0FEF733
:102A00003BFC01282FD0B1203070B820707002201C
:102A1000B070F47034710120707128004C30B060D7
:102A20001648F060164830611648706328005C3024
:102A30007062B4623E60686B0168080005D10020D6
:102A40000021002207C603C607E03000884701289E
:102A500006D11421386801F0E1FA3C60012002E05F
:102A6000FEF752FC002001B0F0BD0000681200200B
:102A700014010020B0130020AC130020340000200B
:102A80009C000020A413002000B581B0002803D0D2
:102A9000C16889680A0001D1012003E08847012844
:102AA00000D0002001B000BD00B581B0002803D0E7
:102AB000C268126A130001D1012003E09047012887
:102AC00000D0002001B000BD00B581B000280CD0BE
:102AD0000269002A09D0002907D00378B12B04D15C
:102AE000D268130001D0904700E0012001B000BD82
:102AF00010B500280ED00369002B0BD0002909D097
:102B0000002A07D00478B12C04D1DB691C0001D065
:102B1000984710BD012010BD00B581B000280CD031
:102B20000269002A09D0002907D00378B12B04D10B
:102B30009269130001D0904700E0012001B000BD70
:102B400000B581B000280AD00269002A07D00378B6
:102B5000B12B04D1526A130001D0904700E001204C
:102B600001B000BD00B581B000280AD00269002A7A
:102B700007D00378B12B04D1526B130001D09047DA
:102B800000E0012001B000BD00B581B000280AD0EE
:102B90000269002A07D00378B12B04D1926B13008D
:102BA00001D0904700E0012001B000BD00B581B028
:102BB00000280AD00269002A07D00378B12B04D17B
:102BC000D26A130001D0904700E0012001B000BD9F
:102BD00000B581B000280AD00269002A07D0037826
:102BE000B12B04D15269130001D0904700E00120BD
:102BF00001B000BDF0B581B00F0000253D60002898
:102C000000D1A4E0022800D1FFE000D2CCE00328EC
:102C100000D12FE1380000F037F9012800D030E171
:102C2000B94C26002836F07801282FD0FEF724FB77
:102C300001282BD0BD203070B82070700220B070F9
:102C4000F57035710120707120006030B060AF48C0
:102C5000F0603561AE48306520007830B063F563D0
:102C60003E60606B0168080006D100200021002250
:102C700007C603C6143E08E030008847012800D08C
:102C8000FFE01421386801F0C9F93D60E0780128BF
:102C90002DD0FEF7F1FA012829D0BC202070BE20EB
:102CA0006070658025710120607120005030A06047
:102CB0009848E06025619848B06420007030B062A8
:102CC000F5623C60E0680168080006D10020002140
:102CD000002207C403C4143C08E0200088470128F0
:102CE00000D0CEE01421386801F098F93D60E07D15
:102CF000012800D1C3E0FEF7BFFA012800D1BEE0F1
:102D0000BD202075BA2060750120A075E575257677
:102D1000607620005830E0617C48206265627F4820
:102D2000F064200074303063756320001430386024
:102D3000206A0168080007D1200014300021002219
:102D400000230EC006C093E02000143089E06E4CD2
:102D5000E078012800D192E0FEF78EFA012800D138
:102D60008DE0BC202070BE20607065802571012040
:102D7000607120005030A0606648E0602561260048
:102D800028366548B06420007030B062F5623C605F
:102D9000E0680168080005D100200021002207C476
:102DA00003C465E020005CE0574CE07D012866D05C
:102DB000FEF762FA012862D0BD202075BA20607546
:102DC0000120A075E5752576607620005830E06119
:102DD0004E4820626562260028365048F064200084
:102DE000743030637563200014303860206A0168E5
:102DF000080007D1200014300021002200230EC05B
:102E000006C035E0200014302BE03F4C2600283669
:102E1000F078012833D0FEF72FFA01282FD0BD20FB
:102E20003070B82070700220B070F57035710120DC
:102E3000707120006030B0603448F0603561344813
:102E4000306520007830B063F5633E60606B0168E8
:102E5000080005D100200021002207C603C607E0B4
:102E60003000884701280CD11421386801F0D6F8C9
:102E70003D6004E0380000F007F8012801D101208E
:102E800000E0002001B0F0BDF0B581B007000024E3
:102E90001D4D2E003C36F078012833D0FEF7ECF9BA
:102EA00001282FD0B1203070B82070700320B0708E
:102EB000F47034710120707128006830B0601848D7
:102EC000F060184830611848306428007C30F062A7
:102ED00034633E60A86C0168080005D10020002121
:102EE000002207C603C607E030008847012806D144
:102EF0001421386801F092F83C60012002E0FEF7EE
:102F000003FA002001B0F0BD681100204801002044
:102F1000B013002000000020BC130020AC130020E0
:102F200068000020D8000020A413002000B581B064
:102F3000002803D0C16889680A0001D1012003E09C
:102F40008847012800D0002001B000BD0CB41CB59A
:102F5000040004A80190009401AB0A0069460848E7
:102F600078441C3001F05CF80021009A11700028B0
:102F700001D40098001B02B0019910BC03B00847AF
:102F800013E2FFFF010000E0491C0A78002AFBD190
:102F9000081A704730B581B0040001D101202AE041
:102FA000250068356878002803D12870200000F0DB
:102FB000B1FA022068702068016801229143016023
:102FC000200000F0ABF8606A002802D0200000F07A
:102FD00015FA206841684F4A0A40426020688168BB
:102FE0002A22914381602068016801220A4302601D
:102FF000200000F0A5F901B030BDF1B50C001D00B6
:1030000006465036707E012802D0707E22287DD17F
:10301000002C01D0100001D1012078E0307E012881
:1030200074D0012030760020F061707E222801D11A
:10303000322000E0122070763280728004E0218815
:10304000C905C90D8162A41C708801003FD0401ED3
:103050007080FEF74DFF070000980068C1690906FF
:1030600027D40020C0438542F6D0002D04D0FEF7BF
:103070003FFFC01B8542EFD20098006801688022A4
:10308000914301600098006801682022914301602B
:10309000009800680168204A0A40026000980068B1
:1030A000816801229143816072760020307603208E
:1030B0002DE00099896880225201914203D1009944
:1030C00009690029BBD021788162641CBCE7FEF746
:1030D0000FFF0700402400980068C06920400BD112
:1030E0000020C0438542F6D0002DC5D0FEF700FF7A
:1030F000C01B8542EFD2BFE7707E322801D122206B
:1031000000E0012070760020307600E0022001B05F
:10311000F0BD0000FFB7FFFFFFFEFFFFF0B581B07D
:1031200004000021002025682A68844B1340A2680F
:103130001A432369134362691A43E36913432B60FB
:103140006A68A84B1340E2681A436A60A369A64AFA
:10315000954202D01E00236A3343AE68A34F374026
:103160003B43AB60A24B9D4221D1A24BDB6C9B0742
:103170009B0F04D0022B3BD026D3032B36E001213A
:10318000E26980231B029A4200D0ADE0082900D9F1
:10319000A0E002A2525C5200974400BF05878B9CBE
:1031A000949C9C9C980000F0D7FE40008FE0924BCE
:1031B0009D420BD18F4BDB6C0C261E40042E03D09E
:1031C000082E15D00C2E11E0042114E0954212D1E6
:1031D000884BDB6CC02636011E40130D9E42F3D097
:1031E000D30C9E4204D0C0231B019E4202D002E0B9
:1031F000022100E008219542C2D1002906D002290F
:103200001AD004292DD0082941D094E000F0A4FE62
:1032100001F026FB0022AB4B00F033FA06000F0052
:10322000606801F01DFB02000B003000390001F066
:1032300027FB00F003FB76E0606801F011FB020061
:103240000B00A14C6B480068C00602D500209F49C6
:1032500001E000209E4901F013FB00F0EFFA20602E
:1032600069E000F0FFFD01F0FBFA0022954B00F051
:1032700008FA06000F00606801F0F2FA02000B0085
:103280003000390001F0FCFA00F0D8FA4BE0606839
:1032900001F0E6FA02000B0000208E4901F0F0FA7E
:1032A00000F0CCFA8849086045E000F069FE400073
:1032B0000DE061684F480068C00601D5864807E008
:1032C000864805E000F0CEFD400000E0580061684F
:1032D000FEF7DFF8824A02400006400E4007400F2A
:1032E00002432068C26026E0082924D801A0405C7F
:1032F000874400BF0A10164228424242380000F0BC
:103300002BFE0DE000F03CFE0AE0616839480068E1
:10331000C00601D573480BE0734809E000F0A2FD38
:103320006168FEF7B6F82168C86004E01846616875
:10333000FEF7AFF8E86001B0F0BD0000F369FFEF01
:10334000F0B581B004002068006800070FD5FEF7D3
:10335000CFFD0700654E8025AD032068C069284079
:1033600005D1FEF7C5FDC01BB042F6D312E02068C0
:103370000068400729D5FEF7BBFD07008025ED0357
:103380005A4E2068C06928401FD1FEF7B1FDC01B0E
:10339000B042F6D320680168802291430160206822
:1033A0000168202291430160206801680C4A0A40AC
:1033B00002602068816801229143816020006830AA
:1033C000427000210170032007E0200068300021D6
:1033D0000170416001214170002001B0F0BD00008A
:1033E000FFFEFFFFFFCFFFFF00480040FFF4FFFF9D
:1033F0000038014000100240004400402421415C9C
:10340000C90706D501684A68394B1340826A1A43D6
:103410004A602421415C890706D501684A68354B1A
:103420001340C26A1A434A602421415C490706D509
:1034300001684A68304B1340026B1A434A602421EA
:10344000415C090706D501684A682C4B1340426B62
:103450001A434A602421415CC90606D501688A687E
:10346000274B1340826B1A438A602421415C8906F2
:1034700006D501688A68234B1340C26B1A438A60E1
:103480002421415C490611D501684A681E4B13404E
:10349000026C1A434A60026C80235B039A4205D196
:1034A0004A681A4B1340426C1A434A602421415C1B
:1034B000090606D501684A68154B1340806C18430D
:1034C00048607047000070400C4800408084CE4146
:1034D0008084EE410000604100127A000048E8015B
:1034E000F0FF000000093D000024F400F155000049
:1034F000FFFFFDFFFFFFFEFFFFFFFBFFFF7FFFFF63
:10350000FFEFFFFFFFDFFFFFFFFFEFFFFFFF9FFF6B
:10351000FFFFF7FF704711B581B0FEF7E9FC04002B
:10352000FEF7E6FC001B01998842F9D302B010BDFA
:103530000122D20703004B402ED4431A01D2C01AF5
:10354000C91830B44B180418240E1B0E22D0FF2CBF
:1035500020D0E31A182B1DDC09021143C40D641E90
:103560000002104394461925ED1A0A00AA40D940DA
:10357000451801D36D08A41CE405D209280A2D06BC
:103580002A436546AA41604103181B0EFF2B01D355
:10359000C00DC00530BC7047514006E05140CCE73B
:1035A0000122D20703004B40F8D4431A03D2C01AB9
:1035B000C9185040514030B44B1809021143041847
:1035C000240E1B0E40D0FF2C3AD025009D410BD37A
:1035D0001ED8C50D4002401A0BD3ED050100400A6C
:1035E000C90591416841D5E7C50D40024918401A07
:1035F000D0D001214008491C0018FCD58C4204D3CE
:103600006D1A000AED054019C4E7E8051040C1E74E
:10361000182DBFDCAC1C0D00E140E5414D40012DF3
:103620004941C40D00021043451A01D46D19954358
:10363000641EE405280A2D069541604130BC7047A0
:10364000FF2BA7D1D843A5E72442A3D10020A1E7AF
:10365000012212060118CA420AD28A420DD8382223
:10366000120609098918C20FD20711434007704793
:1036700000D049080909014301E0C10FC907002032
:103680007047F0B50E005E400125ED072E40B446B0
:10369000AE0ADF184C18F44208D2F7420ED2640D7D
:1036A00001D07F0D12D100206146F0BD05D1F74257
:1036B00001D87F0D05D10020C143F0BDFBD1640DC1
:1036C000F9D00020C143490549088FE0E419C90237
:1036D000DB0229432B43DB0A460DC00231438E46F1
:1036E00030B487B295B27D432E0CADB2140C7C433E
:1036F000A419260C240425439CB27C43A419190C5C
:103700007943270CC919A4B20F043C43090C000CDF
:1037100097B247432E0CBE193543ADB2170C474341
:10372000360CBF19A6B2BF193E043543240C3E0C1B
:1037300036199FB24743BF19BCB23E0C89191F0C02
:1037400047437F183E043443390C704680B297B229
:1037500047432E0CBE193543ADB2170C4743360C08
:10376000BF19A6B2BF193E043543240C3E0C3619CE
:103770009FB24743BF19BCB23E0C89191F0C474387
:103780007F183E043443390C77463F0C90B278439F
:103790002E0C80190604ADB22E43050CA0B22D18D4
:1037A000120C7A435019020C80B2240CA4189AB25D
:1037B0007A43121914042043120C89181B0C7B4302
:1037C000C91830BCEF0A394203D1B619404149410A
:1037D000641E6F12BF0DE41B0BDBFF19BC4211DA34
:1037E000240500274208AE417841614166463143D5
:1037F000F0BD641C05D1401C6141CF0201D34908D2
:10380000F4E750E75DE783B50021684601F09AF8D8
:10381000684603C803B000BDF4464A1805D200F05C
:103820000FF801D580174008604700F009F8012122
:10383000C907884200D90800404260474A1812D29E
:10384000400DC90208430121C9070843520D402118
:103850000901521A521C06D452421F3201D4D040E0
:103860007047C017704700207047FEE70122D2075B
:103870000118090E7F3910D449421F310FD40018A6
:1038800005D2C0011043C84000D5D0437047C001E5
:103890001043C84005D440427047002070470042A2
:1038A000F3D510007047FEE70CB40122120603188E
:1038B000DA4207D84B18DA4204D802000A439218B9
:1038C00002D281420CBC7047FCD088420CBC7047CD
:1038D00010B5040000F000FBFA218900FDF7D9FDC6
:1038E000FEF7E4FA002221000020C043FEF7BCFAF4
:1038F000002010BDF0B583B00400B54D2078C0079E
:103900004FD50C21E8680840082808D080204002E4
:10391000EA6811400C290AD1E968014007D02868FB
:1039200080033ED5606800283BD10120E4E1616856
:1039300081420BD0A74AA023DB029942296809D112
:103940000A402A60296882000A432A6029680843DD
:10395000286009E00A402A60296808400090009821
:1039600028689D49014029608027BF0260680028BF
:103970000BD0FEF7BDFA06002868384011D1FEF7DB
:10398000B7FA801B6528F7D3B3E1FEF7B1FA06005A
:103990002868384005D0FEF7ABFA801B6528F7D3BE
:1039A000A7E12078800718D50C21E8680840042892
:1039B00006D0E86801400C2943D1E868C00340D430
:1039C0002868400702D5E0680128AED16868B3498D
:1039D000014020690002084368602078C0061AD5BB
:1039E0006F0DE8680C21014050D12868074002D0D3
:1039F000E069002899D06868A9490140606A0843D5
:103A0000686068680002000A216A0906014369606B
:103A10000320FFF75DFF2078000776D56069002856
:103A2000286D63D0012101432965FEF761FA060084
:103A3000286D800769D4FEF75BFA801B0328F7D353
:103A400057E1E0680921C943042700280FD02A68FC
:103A5000114008432860FEF74BFA060028683840FA
:103A6000B4D1FEF745FA801B0328F7D341E128685B
:103A700001402960FEF73CFA060028683840ACD0C7
:103A8000FEF736FA801B0328F7D332E1E0690028FD
:103A900028681CD0A90D01432960FEF729FA060009
:103AA0002868384005D1FEF723FA801B0328F7D396
:103AB0001FE168687A490140606A08436860686885
:103AC0000002000A216A090601436960A3E78B49E5
:103AD00001402960FEF70CFA0600286838409AD0A9
:103AE000FEF706FA801B0328F7D302E10121884381
:103AF0002865FEF7FDF90600286D800705D5FEF75D
:103B0000F7F9801B0328F7D3F3E0207880062ED541
:103B10007B48A1690029A96816D001220A43AA603E
:103B2000696B01220A436A6301686A0C0A430260F6
:103B3000FEF7DEF90600A868800718D4FEF7D8F96A
:103B4000801B0328F7D3D4E001229143A9600168C8
:103B50006C4A0A400260FEF7CBF90600A8688007AD
:103B600005D5FEF7C5F9801B0328F7D3C1E02078FF
:103B7000400776D500200190009080204005A96B79
:103B8000014004D1A96B0843A86301200190AF0D47
:103B90005D480068384013D15B48006838435A4993
:103BA000086001200090FEF7A3F90600564800685F
:103BB000384005D1FEF79CF9801B6528F6D398E0C4
:103BC000A168B94215D04D48002907D1296D14E0EC
:103BD00000100240FFFFFEFFFFFFFBFFA022D2000C
:103BE0009142296D09D108402865286D290D0143AE
:103BF0002965286D07432F6505E008402865286D75
:103C00009449014029656F0DA06800280CD0FEF78B
:103C10006FF90600286D384013D1FEF769F9801B53
:103C20008D498842F6D364E0FEF762F90600286DFC
:103C3000384006D0FEF75CF9801B87498842F6D3EE
:103C400057E00098002805D02F4800682B49014014
:103C50002D4801600198002803D0A86B7F490140DE
:103C6000A963A06A002846D0E9680C220A400C2A01
:103C700000D15AE68027BF047949022828682BD151
:103C800001402960FEF734F906002868384009D061
:103C9000FEF72EF9801B0328F7D32AE0FFE0FFFF91
:103CA000FF1FFFFFE8688A490140206B0843616BF2
:103CB0000143E06A0843E860286879080143296005
:103CC000FEF716F906002868384014D1FEF710F9FF
:103CD000801B0328F7D30CE001402960FEF708F9A8
:103CE00006002868384006D0FEF702F9801B03283A
:103CF000F7D3032000E0002003B0F0BDFFFEFFFF7C
:103D000020000140FEDFFFFF00700040F2B504001C
:103D100070480068C107C90F009881420DD26D48F4
:103D2000006801218843009901436A4801600068E6
:103D3000C107C90F0098814270D1864D2078800755
:103D400005D5E868F0218843A1680143E96020783F
:103D5000C0074ED56068022802D12968890308E0AF
:103D6000002802D12968890503E00328296802D1C7
:103D7000890102D452E0490750D5E96803229143F2
:103D80000843E860FEF7B4F8070060680C260228D4
:103D90000AD1E868304008282BD0FEF7A9F8C01BEC
:103DA0002D498842F5D322E003280AD1E868304043
:103DB0000C281ED0FEF79CF8C01B27498842F5D37B
:103DC00015E0002809D1E868304012D0FEF790F8DD
:103DD000C01B21498842F6D309E0E8683040042836
:103DE00007D0FEF785F8C01B1B498842F5D3032096
:103DF0002DE038480068C107C90F009881420FD3F1
:103E0000344800680121884300990143314801602A
:103E10000068C107C90F0098814201D0012016E057
:103E20002078400705D5E8685F490140E06808430D
:103E3000E8602078000706D5E8685C490140206901
:103E4000C0000843E8600320FFF742FD002001B0F6
:103E5000F0BD0000FFFBFFFF89130000FFFFFFEF35
:103E6000FFFFFFFE00B53B4A5068D1680C230B40B2
:103E7000042B04D0082B09D00C2B09D020E01068AB
:103E8000C00601D54B4800BD4B4800BD4B4800BDA6
:103E9000D068D1684A4B8002000F185C0902890F74
:103EA000491CD368DB0306D41268D20601D5414A07
:103EB00002E0414A00E0414A5043FDF7EAFA00BD02
:103EC00001210004400F401C8140C80300BD0000D8
:103ED000FFFF02FF0020024010B51E4C6068E16841
:103EE0000C220A40042A1DD0082A19D00C2A20D1FD
:103EF000E068E168324A8002000F105C0902890F15
:103F0000491CE268D20306D42268D20601D5294AA8
:103F100002E0294A00E0294A5043FDF7BAFA0EE0D0
:103F200026480CE02068C00601D5224807E0224858
:103F300005E001210004400F401C8140C80300BF80
:103F400021A1E2681206120F895CC8401D49086071
:103F500010BD00000010024000B581B0FFF782FFE5
:103F600019A1134A13681B061B0FCB5CD840154BD5
:103F7000186012685205520F895CC84001B000BD3C
:103F800000B581B0FFF76EFF0FA1094A13681B0649
:103F90001B0FCB5CD8400B4B186012689204520F79
:103FA000895CC84001B000BDFFF8FFFFFFC7FFFFFD
:103FB0000C10024000093D000024F40000127A00B9
:103FC000B063000894020020000000000102030416
:103FD0000102030406070809094205D0830705D03A
:103FE0000270401C491EF9D170470000130030B424
:103FF00014001500103902D310393CC0FCD2490717
:1040000000D30CC000D504C0890002D30280801CFC
:10401000002900D5027030BC704700000022DBE7A9
:10402000F9B595B014004A487844FF3025300CC8E3
:1040300013A80CC0099108AD0020E86101E00098C8
:10404000241800206946C88013AB0022D243210007
:1040500001A8801C00F0B8FC0090012805DA207847
:10406000411E8941C943C90F00916846C08825286F
:10407000009F00D17F1E012F0EDB260031780998AA
:10408000159A90470990002800D1ECE0E869401C9F
:10409000E861761C7F1EF1D16846C088252804D1CE
:1040A000002028616861A86108E06846C08800288F
:1040B000C5D1E869D9E0010001200843641C2178DA
:1040C0002029F8D023290ED02B2904D02D2907D060
:1040D00030290BD00DE001000220084380B2EDE74B
:1040E00001000420F9E701000820F6E70100102094
:1040F000F3E72A2912D116990968169A11600A68FD
:10410000091D169B19606A62002A05D55142696231
:1041100001000420084380B2641C12E0002169629F
:104120000AE06A6A0B4B9A4205D093009A18520033
:10413000511830396962641C21780A00303A0A2A21
:10414000EFD321782E2907D00021C943296225E029
:1041500010240000FFFFFF7F641C21782A290AD168
:1041600016990968169A11600A68091D169B19604C
:104170002A62641C12E0002129620AE02A6AC34B09
:104180009A4205D093009A1852005118303929628A
:10419000641C21780A00303A0A2AEFD32885267851
:1041A000310000BFBAA000F01DFC002801D0641C43
:1041B00000E000262A202E54285C682806D12078AA
:1041C000682803D162202A216854641C02A8E86090
:1041D0002678641C252E15D0582E55D0632E00D17C
:1041E000B3E0642E00D18EE0692E00D18BE06F2EFB
:1041F0004AD0702E3BD0732E0AD0752E44D0782E24
:1042000042D0CAE001202861252069460872CFE02B
:104210002A20285C6C28169800681699086017D028
:104220000668001D16990860AE602F6A002F03D53E
:104230003000FEF7A7FE09E03A000021300000F050
:10424000DBFB002801D0801B00E038006861AFE094
:104250000268001D1699086008A9159800F042F937
:10426000002800D4A4E00020C04317B0F0BD169889
:104270000068169908600168001D169A1060089180
:1042800002A8A86078215CE02A20285C6C2801D173
:10429000169810E0712801D1169802E06A28169845
:1042A00009D10268D21D072082431698026003CA12
:1042B000169B1A6005E0016801600868091D169ADE
:1042C000116008902A20285C682802D1089880B2E2
:1042D00003E0622802D10898C0B208902820285C28
:1042E000000729D50898002826D0202030437828B8
:1042F00022D12869302102AA1154401C411C296195
:1043000002A90E5418E016992A20285C00F0C4F87F
:104310000890002802D528692D2109E0288D810701
:1043200002D528692B2103E0C00705D52869202183
:1043300002AA1154401C286102A829694018A860EB
:10434000310008A800F0F8F932E02A20285C6C2837
:104350000CD0012028611698006816990860016841
:10436000001D169A10606846017221E016980068D8
:10437000169908600168001D169A10606846018051
:10438000002069464880C04328626A4608A91598FB
:1043900000F0A8F800280BD565E70120286125204A
:1043A00069460872300003D00220286102A84670D6
:1043B000686A2969401AA969401A6969401A009017
:1043C0002820285C400711D42020694608710098F5
:1043D00001280BDB009E012301AA08A9159800F013
:1043E00027FA002800D03EE7761EF4D12F6902AEEE
:1043F000002F0DD031780998159A90470990002820
:1044000000D130E7E869401CE861761C7F1EF1D1DD
:10441000302069460871AE69012E0ADB012301AA2A
:1044200008A9159800F004FA002800D01BE7761EB2
:10443000F4D1AE686F69002F0DD031780998159AC4
:1044400090470990002800D10DE7E869401CE86119
:10445000761C7F1EF1D12820285C400700D4F0E5AF
:104460002020694608710098012800DAE9E5009EDD
:10447000012301AA08A9159800F0DAF9002800D054
:10448000F1E6761E00D1DCE5F2E700BFFFFFFF7F1B
:10449000686C747A4C000000622815D068280CD033
:1044A0006C2818D0742816D07A2814D10A680A60AB
:1044B0001068121D0A60002170470A680A601068BF
:1044C000121D0A6000B20BE00A680A601068121D33
:1044D0000A6040B204E00A680A601068121D0A60AF
:1044E000C1177047F4B59AB007000C00206A002885
:1044F00000D58E48039000F08BFA616A0818069088
:104500008BA003C807AA03C22820205C400702D45E
:104510000698412806D209A8029040200690002063
:1045200005900EE000F07AFA02900028F7D1002002
:10453000C043F8E01A98801C1A9003980199401A19
:1045400003900398012800DA93E007AA1A980188DB
:1045500000A8401C00F0BEFA0190002800D59FE0A2
:104560001A980088002804D10198401E019000D5B7
:1045700096E00398019988427BDB20690699019AAD
:104580008218914264D2002161624142A069081AF6
:104590006169401A04902820205C400710D4202034
:1045A00069460870049801280ADB049D01236A46C5
:1045B0002100380000F03CF9002871D16D1EF5D1C2
:1045C0002669029D002E0BD029786068B84760608C
:1045D000002865D0E069401CE0616D1C761EF3D1B7
:1045E000302069460870A569012D09DB01236A4660
:1045F0002100380000F01CF9002851D16D1EF5D1C2
:10460000A5686669002E0BD029786068B84760609D
:10461000002845D0E069401CE0616D1C761EF3D196
:104620002820205C400710D5202069460870049897
:1046300001280ADB049D01236A462100380000F0AE
:10464000F7F800282CD16D1EF5D1002005902061CF
:10465000019A00A9491C02982369C01800F046FA83
:1046600020690199401820611A980088002800D01C
:1046700060E7059800284FD1606A2169401AA16956
:10468000401A6169461A2820205C400711D4012E87
:104690000FDB350020216068B8476060002803D137
:1046A0000020C043059037E0E069401CE0616D1ECA
:1046B000F0D12369029A2100380000F0B9F80028EF
:1046C000EED1A569012D0ADB30216068B847606032
:1046D0000028E5D0E069401CE0616D1EF4D16369FB
:1046E000A2682100380000F0A3F80028D8D12820C3
:1046F000205C40070DD5012E0BDB350020216068C2
:10470000B84760600028CBD0E069401CE0616D1EB6
:10471000F4D1002020616062029809A9884201D08A
:1047200000F012FA05981BB0F0BD0000FFFFFF7FFC
:104730000000000000000000F2B582B00400E06854
:1047400000906846007A6F2801D1082506E02022F3
:104750000243782A01D00A2500E010251827216895
:104760000E00642801D0692803D1002901D57042C8
:104770000600002E0DD1206A00280AD1082D31D163
:104780002820205C00072DD5172730200099C875F8
:1047900028E07F1E019730002900FCF77AFE3031B7
:1047A000C9B23A2903DB6846007A513809180098E3
:1047B000C15530002900FCF76CFE060004D0A0684B
:1047C0000099C9198842E4D3082D0BD12820205C18
:1047D000000707D50098C05D302803D07F1E302029
:1047E0000099C8551820C01B60610099C919A160C3
:1047F000216A884206DA081AA061208D0B4901401F
:10480000218510E000290ED52821615C14220A4080
:10481000102A08D1616A2269891AA269891A0F1AB5
:10482000012F00DBA76103B0F0BD0000EFFF000027
:10483000F1B50E0014000027002B0FD01D002178C9
:104840007068009A90477060002806D0F069401C9C
:10485000F061641C6D1E01D0F1E7FF433800F2BD2A
:10486000010000BF42221201D21E004207D002D432
:10487000521E0018FCD5C10A400512058918704760
:10488000F0B40E005E400125ED072E40B446AE0A9E
:10489000DF184C18F4423BD2F74241D2640D43D0AA
:1048A0007F0D38D0E41BC902DB0229432B43CF0A1A
:1048B000DB0A0600B61A9F4104D2641EB6197F4176
:1048C000B6185F416812800D24180018844222DA5D
:1048D000E80C0021B6197F41B61A9F4102D2B618E2
:1048E0005F413F1C40414941F4D3241C21DD240594
:1048F000B6197F41B61A9F4105D33743C6073743E0
:104900000026012F7041614166463143F0BC70477B
:10491000FCD1F74205D20020C14349054908F3E71D
:1049200004D00020C143F1E77F0DFAD0002061469A
:10493000ECE72442FAD1401C61410F03F6D300207A
:10494000E2E7FEE742685200520D1D4B9A4209D140
:104950004168090304D10068002801D10120704793
:104960000220704743685B0028D0164B9A1A521AEF
:10497000012A23DB352A07DB416880221206114019
:1049800041600021016016E00121D306DB0E994051
:10499000491E920608D542680A404168514041606C
:1049A00003681343002103E003680B40016859408A
:1049B0000160002B02D00020C043704700207047E8
:1049C000FF07000033040000F8B504000F001500D5
:1049D0001E0000F0FDF833002A003900200000F02E
:1049E0000BF9F2BDC9B200E0401C02788A4202D045
:1049F000002AF9D100207047C9B201E0401C521EC4
:104A0000002A03D003788B42F8D17047002070470A
:104A100080B500F0DDF8012002BDFEE770B50500AD
:104A20002C000F3407208443C046C046A54233D231
:104A3000082C04D2082402E0083000F085F824484D
:104A4000026811000CD1011D0A68002A20D01368E9
:104A5000A34212D2111DF7E71D68A5420DD2191D00
:104A60000B68002BF8D11268011D00E0191D0B68BE
:104A700093420DD01D68A542F8D300290CD00D68D3
:104A80002A681300083BA3420AD26A680A600FE052
:104A900000F0D0F80028CFD1C046C046002070BD3D
:104AA0002B190B606E685E60121B0B681A602C601D
:104AB0000968002904D04A68002A01D0091D00E0D5
:104AC00000210160C046C0462800083070BD0000CB
:104AD000B413002070B504000D00160000F078F843
:104AE00032002900200000F07DF870BD124207D08E
:104AF0008B0706D00B78491C0370401C521EF7D858
:104B00007047830706D00B78491C0370401C521E67
:104B1000F9D1704770B4103A03D378C9103A78C00D
:104B2000FBD2530701D318C918C001D508C908C062
:104B3000D20704D30B880380891C801C002A01D56E
:104B40000B78037070BC7047002800D1704738B5EF
:104B5000083804002068082836D3400734D1C046FE
:104B6000C0461A484168002901D08C4203D26160D6
:104B7000446019E019004B68002B01D0A342F9D31F
:104B80000B68CD18AC421DD3A54204D122689A18F7
:104B90000A600C0008E04A68002A03D02368E31882
:104BA0009A420FD362604C60616800290AD0226883
:104BB000A3188B4206D100230360086810182060F8
:104BC00048686060C046C04631BD0000B413002094
:104BD00080B5034800F044F8806902BD0000000081
:104BE00088030020002804D10EA003C803C20020BF
:104BF0007047017001207047002904D10BA003C841
:104C000003C300207047002A02D10120C04370472F
:104C1000002801D00A7802800978481E8041C043EC
:104C2000C00F7047000000000000000000000000FE
:104C30000000000007490868002801D000207047E4
:104C4000054807229043086004499143091A01600E
:104C5000704700BFC4130020FF070020F80F00209A
:104C60007047FEE710B582B00400A06800680068D5
:104C70004078002831D169460870200000F0B0FA71
:104C8000012828D0684600782178884223D1200066
:104C900000F00CFB01281ED01021200000F021FBA9
:104CA000012818D00121200000F08EFB012812D02D
:104CB0000421200000F05EFB01280CD0012120001F
:104CC00000F0AFFB012806D004220121200000F0F3
:104CD00094FA012801D1012006E00120A26812689F
:104CE00012681070E070002002B010BD10B5040012
:104CF000A068006800684178002910D12179002956
:104D00000DD0C078002804D1200000F0CFFA01288F
:104D10000BD00020A1680968096888702071002004
:104D2000A168096809680870E07010BD10B504003A
:104D30002079012810D0A06800680068C078002899
:104D400004D1200000F097FA012806D00120A268C3
:104D50001268126890702071002010BD10B5040018
:104D60002079002810D0A06800680068C07800286A
:104D700004D1200000F09AFA012805D00020A16893
:104D8000096809688870207110BD00B581B000F015
:104D900027FA012800D0002001B000BD30B581B055
:104DA00004000025684605706946200000F018FAE6
:104DB000012804D0684600782178884200D0012577
:104DC000280001B030BD30B581B00D000024009442
:104DD000694600F07BFB012807D00098FCF7DEF95C
:104DE000A549FCF7F4F92860002001B030BD10B5EA
:104DF00082B00C00694600F0A4FA012819D0684678
:104E0000007800280FD010280BD0202807D0302899
:104E100003D040280AD1AB4805E0AB4803E0AB48DB
:104E200001E0FE2080052060002002E0A84820600C
:104E3000012002B010BD00B581B0002908D0491E84
:104E400004D0491E02290AD8402102E0302100E0A6
:104E5000102100F046FA012802D0002000E00120D5
:104E600001B000BD00B581B0020008009949FCF70F
:104E70007DF901D210210CE0B249FCF777F901D29B
:104E8000202106E0B049FCF771F901D2302100E0A1
:104E90004021100000F025FA012800D0002001B0C8
:104EA00000BD00B581B01300012200F079F901289E
:104EB00000D0002001B000BD00B581B06B461A7073
:104EC000012200F07DF9012800D0002001B000BDD2
:104ED00010B582B00C00694600F0D2FA012803D068
:104EE000684640782070002002B010BD10B582B036
:104EF0000400A068006800680078002831D1694685
:104F00000870200000F06CF9012828D0684600786D
:104F10002178884223D1200000F0C8F901281ED052
:104F20001021200000F0DDF9012818D00121200017
:104F300000F04AFA012812D00421200000F01AFAE9
:104F400001280CD00121200000F06BFA012806D0C6
:104F500004220121200000F050F9012801D1012094
:104F600006E00120A268126812685070E07000200C
:104F700002B010BD10B50400A06800680068017898
:104F8000002910D1217900290DD08078002804D182
:104F9000200000F08BF901280BD00020A1680968DF
:104FA0000968C87020710020A16809680968487004
:104FB000E07010BD10B504002079012810D0A06861
:104FC000006800688078002804D1200000F053F9C0
:104FD000012806D00120A26812681268D0702071E2
:104FE000002010BD10B504002079002810D0A06862
:104FF000006800688078002804D1200000F056F98D
:10500000012805D00020A16809680968C8702071CE
:1050100010BD00B581B000F0E3F8012800D00020F9
:1050200001B000BD30B581B00400002568460570B0
:105030006946200000F0D4F8012804D068460078C2
:105040002178884200D00125280001B030BD30B55C
:1050500081B00D00002469460C8000F05BFA012845
:1050600008D0009800B2FCF799F83849FCF7AFF87F
:105070002860002001B030BD0000C84210B582B0E9
:105080000C00694600F05DF9012819D068460078E7
:1050900000280FD010280BD0202807D0302803D0AC
:1050A00040280AD1074805E0074803E0074801E027
:1050B000FE2080052060002002E0054820600120DD
:1050C00002B010BD0000C841000048410000E040AF
:1050D000000080BF0100803F00B581B0002908D0EA
:1050E000491E04D0491E02290AD8402102E030217D
:1050F00000E0102100F0F5F8012802D0002000E0C7
:10510000012001B000BD00B581B0020008001049C7
:10511000FCF72CF801D210210CE00A49FCF726F824
:1051200001D2202106E00849FCF720F801D2302105
:1051300000E04021100000F0D4F8012800D0002049
:1051400001B000BD0100E0400100484100002041E5
:105150000100803F00B581B01300012200F020F86B
:10516000012800D0002001B000BD00B581B06B4621
:105170001A70012200F024F8012800D0002001B0AC
:1051800000BD10B582B00C00694600F079F9012825
:1051900003D0684600782070002002B010BDFEE702
:1051A00010B51C00022A02DB0B00802119431300FA
:1051B0002200FCF7E4F8401E8041C043C00F10BD40
:1051C00010B51C00022A02DB0B00802119431300DA
:1051D0002200FCF7BCF8401E8041C043C00F10BD48
:1051E00000B581B001230A000F21FCF7C8F8401E6A
:1051F0008041C043C00F01B000BD70B582B0060051
:105200000D0014000BD0042C09D0082C07D00C2C56
:1052100005D0A5225549564800F0E6F9FEE72800DA
:105220000BD0012D09D0022D07D0032D05D0A622C9
:105230004E494F4800F0D8F9FEE701236A46102195
:105240003000FCF79CF8002801D0012011E06846EE
:105250000078F021014025430D4368460570012385
:105260006A4610213000FCF772F8401E8041C043AE
:10527000C00F02B070BD10B582B0040001236A46B1
:105280002021FCF77CF800280DD1684600788021A9
:1052900001436846017001236A4620212000FCF783
:1052A00056F8002800D0012002B010BD10B582B021
:1052B000040001236A462021FCF761F800280DD183
:1052C000684600784006400E6946087001236A4629
:1052D00020212000FCF73BF8002800D0012002B07C
:1052E00010BD30B581B005000C000ED0102C0CD0D4
:1052F000202C0AD0302C08D0402C06D09822520006
:105300001A491B4800F070F9FEE701236A46202184
:10531000FCF735F8002801D0012010E0684600783D
:105320008F2101400C436846047001236A46202106
:105330002800FCF70CF8401E8041C043C00F01B0AC
:1053400030BD10B582B00C0001236A462021FCF765
:1053500016F8002801D0012005E068460078702189
:1053600001402170002002B010BD00004C55000823
:10537000BC55000830B581B005000C0008D0042CE5
:1053800006D0BB2252003C493C4800F02DF9FEE714
:1053900001236A462021FBF7F2FF002801D00120FB
:1053A00010E068460078FB2101400C436846047019
:1053B00001236A4620212800FBF7C9FF401E8041D7
:1053C000C043C00F01B030BD30B581B005000C0046
:1053D000012C08D0200006D0D022520026492748B0
:1053E00000F002F9FEE701236A4620212800FBF7BE
:1053F000C6FF002801D0012011E068460078F7219F
:105400000140E00008436946087001236A462021F4
:105410002800FBF79CFF401E8041C043C00F01B035
:1054200030BD30B581B005000C0008D0012C06D08D
:10543000F12252001049114800F0D6F8FEE701238E
:105440006A462021FBF79BFF002801D0012010E0D5
:1054500068460078FE2101400C4368460470012331
:105460006A4620212800FBF772FF401E8041C0439E
:10547000C00F01B030BD00004C550008BC550008FD
:1054800010B582B00C0001236A462721FBF777FF95
:10549000002801D0012017E0012069460978012287
:1054A0000A40227069460978490801220A40627060
:1054B00069460978090901220A40A27069460978FB
:1054C00049090840E070002002B010BD10B582B05C
:1054D0000C0003236A46A821FBF751FF002801D0E6
:1054E000012015E068460178427812020A4380786C
:1054F00000041043010203D50100FF200006084309
:1055000064214843C112090D0818001320600020CF
:1055100002B010BD10B582B00C0002236A46AB2168
:10552000FBF72DFF002801D001200DE068464178EF
:10553000090200780818302100B2FBF7A7FFFF210D
:10554000AA3140182080002002B010BD433A5C53BD
:10555000544D33325F457870616E73696F6E5F537F
:105560006F6674776172655F446576656C6F706DA8
:10557000656E745F53564E5C582D435542452D4D14
:10558000454D53315C7472756E6B5C44726976651F
:1055900072735C4253505C436F6D706F6E656E74D6
:1055A000735C6C7073323568625C4C5053323548B2
:1055B000425F4472697665722E63000057726F6EA7
:1055C0006720706172616D657465727320746D70AF
:1055D0003A2066696C65202573206F6E206C696EB9
:1055E000652025640D0A00000EB400B582B003A941
:1055F00000916B4602000121034878440A30FEF70F
:105600000FFD029906B00847150F000010B51C00E9
:10561000022A02DB0B008021194313002200FBF752
:10562000AEFE401E8041C043C00F10BD10B51C002F
:10563000022A02DB0B008021194313002200FBF732
:1056400086FE401E8041C043C00F10BD00B581B032
:1056500001230A000F21FBF792FE401E8041C04348
:10566000C00F01B000BDF3B583B002236A46B2217A
:10567000FBF785FE00282FD1012302AA35210398CC
:10568000FBF77DFE002827D16846007A6D4681072A
:10569000890D2A781143C90801910C210140880124
:1056A00069780843C70804236A46BC210398FBF7BE
:1056B00066FE002810D1687806022878064336B2C4
:1056C000E8780402A878044302236A46AA210398D2
:1056D000FBF755FE002801D0012028E06878000281
:1056E0002978084300B2801BFBF758FD050001989C
:1056F000381AFBF753FD290000F03CF9050024B2ED
:10570000A01BFBF74BFD01002800FBF760FD040028
:10571000019800B2FBF742FD2100FDF709FF304977
:1057200000F028F9FEF7A2F804990880002005B0DF
:10573000F0BD30B581B00D00140001236A46272169
:10574000FBF71DFE002801D001200BE00120694677
:105750000978490801220A402A70694609780840F8
:105760002070002001B030BD10B582B004000123CC
:105770006A462021FBF703FE002801D001200FE03C
:1057800068460078802101436846017001236A461B
:1057900020212000FBF7DBFD401E8041C043C00FED
:1057A00002B010BD10B582B0040001236A4620216A
:1057B000FBF7E5FD002801D001200FE068460078E6
:1057C0004006400E6946087001236A4620212000E9
:1057D000FBF7BDFD401E8041C043C00F02B010BDAD
:1057E0000000204130B581B005000C00012C07D02D
:1057F000200005D0344A11492848FFF7F5FEFEE79E
:1058000001236A4620212800FBF7B9FD002801D0BA
:10581000012011E068460078FB210140A000084308
:105820006946087001236A4620212800FBF78FFD96
:10583000401E8041C043C00F01B030BDD4580008A5
:1058400030B581B005000C000BD0012C09D0022C22
:1058500007D0032C05D01D4A1D491048FFF7C4FE90
:10586000FEE701236A462021FBF789FD002801D0CD
:10587000012010E068460078FC2101400C43684696
:10588000047001236A4620212800FBF760FD401EBA
:105890008041C043C00F01B030BD00004459000832
:1058A00010B582B00C0001236A462021FBF767FD8A
:1058B000002801D0012005E0684600788007800FAD
:1058C0002070002002B010BD63020000BA02000088
:1058D000D4580008433A5C53544D33325F457870D6
:1058E000616E73696F6E5F536F6674776172655F27
:1058F000446576656C6F706D656E745F53564E5C73
:10590000582D435542452D4D454D53315C747275AC
:105910006E6B5C447269766572735C4253505C4393
:105920006F6D706F6E656E74735C68747332323154
:105930005C4854533232315F4472697665722E632B
:105940000000000057726F6E6720706172616D65B4
:10595000746572732076616C75653A2066696C6552
:10596000202573206F6E206C696E652025640D0AFA
:105970000000000030B405004D400122D207154060
:105980004B180418240E2ED01B0E32D0FF2C34D00E
:10599000FF2B3AD0E4180002090210431143000A19
:1059A000090A9446C2B24A43000AC3B24B43000AF2
:1059B0004843110A5B181A43D2B2190A091801D4D4
:1059C0004918641E080A7F3C23DBFE2C08DAE40534
:1059D00009061143634699416041284330BC704732
:1059E000FF20C005F9E728001B0EFF2BF6D1D0439E
:1059F000F4E72800FF2CF1D1F9E74002F7D1FF2BA3
:105A000001D14902F3D1E005E7E7D8054902E4D026
:105A1000EDE743020020641CDFD15B129B1CDCD944
:105A2000D805DAE710B582B00400A0680068006805
:105A3000007800281ED1694608702000FFF706FE96
:105A4000012815D0684600782178884210D12000BE
:105A5000FFF7A8FE01280BD001212000FFF7C2FEAE
:105A6000012805D001212000FFF7EAFE012801D11D
:105A7000012006E00120A268126812685070E070F0
:105A8000002002B010BD10B50400A06800680068D6
:105A90000178002910D1217900290DD080780028C3
:105AA00004D12000FFF77EFE01280BD00020A16862
:105AB00009680968C87020710020A1680968096830
:105AC0004870E07010BD10B504002079012810D096
:105AD000A068006800688078002804D12000FFF7E3
