:020000040800F2
:10000000B00700207D7A0008597A00085B7A000862
:10001000997A00089D7A0008A17A00080000000083
:10002000000000000000000000000000A57A0008A9
:100030005D7A000800000000A97A00085F7A0008D5
:10004000AD7A0008B17A0008B57A0008B97A0008DC
:10005000BD7A0008C17A0008C57A0008C97A00088C
:10006000CD7A0008D17A0008D57A0008D97A00083C
:10007000DD7A0008E17A0008E57A0008E97A0008EC
:10008000ED7A0008F17A0008F57A00080000000017
:10009000000000000000000000000000F97A0008E5
:1000A000FD7A0008017B0008057B0008097B000839
:1000B0000D7B0008117B0008157B0008197B0008E8
:1000C0001D7B0008217B0008257B0008297B000898
:1000D0002D7B0008317B0008357B00080000000004
:1000E000637A0008397B00083D7B000800000000AF
:1000F000000000000000000000000000417B00083C
:1001000000000000457B0008497B00084D7B00088B
:1001100000000000000000000000000000000000DF
:10012000517B0008557B0008597B00085D7B000867
:10013000617B0008000000000000000000000000DB
:10014000000000000000000000000000657B0008C7
:10015000697B00086D7B0008717B0008757B0008D7
:10016000797B00087D7B0008000000000000000093
:10017000000000000000000000000000000000007F
:1001800000000000817B000800000000000000006B
:10019000857B000870B5044682B0A06806683568A3
:1001A00000208DF800006946204601F07DFF00B375
:1001B0009DF80000217888421BD10421204602F0DE
:1001C000DBF9B0B14021204601F07AFF88B100216F
:1001D000204602F055F960B1DFF8AC0970600021EB
:1001E000204601F0DFFF20B10021204601F087FF0B
:1001F00010B9012002B070BD01202870E07002B07B
:10020000002070BD70B5044682B0A06805682E68F5
:1002100000208DF800006946204601F045FF0028C7
:1002200000F0B0809DF800002178884240F0AA805C
:100230000021204602F05AFE002800F0A380002191
:10024000204602F050FC002800F09C80002120464F
:1002500002F0B8FD002800F095800021204602F051
:1002600092FD002800F08E800021204602F000FE62
:10027000002800F087800021204602F034FC00288E
:1002800000F080800021204602F06AFC002879D02E
:100290000021204602F051F9002873D000212046A9
:1002A00002F005FA00286DD00021204602F01EFA67
:1002B000002867D00021204602F0A3FE002861D06C
:1002C0000021204602F050FE00285BD0002120468D
:1002D00002F009FC002855D00021204602F022FC43
:1002E00000284FD00021204602F059FC002849D0B8
:1002F0000021204602F071FC002843D00021204656
:1003000002F094FB00283DD00021204602F0ADFB16
:10031000002837D00021204602F0C6FB002831D04B
:100320000021204602F0C3FD60B30021204602F008
:10033000DAFB38B30021204602F0F4FB10B30021B1
:10034000204602F02CFCE8B10021204602F045FCDA
:10035000C0B10021204602F05EFC98B10021204689
:1003600002F097FC70B10021204602F05FFB48B11B
:100370000021204602F079FB20B10021204602F046
:1003800093FB10B9012002B070BD0021204602F09D
:1003900050FD0028F6D00021204602F069F900281F
:1003A000F0D00021204602F0A1F90028EAD0002177
:1003B000204602F0BAFD0028E4D00021204602F0D9
:1003C00092FB0028DED00021204602F0BEFC00286F
:1003D000D8D00021204602F03EFC0028D2D020795F
:1003E00078B1A0680068011D204600F0AFF901282F
:1003F000C8D00021204601F0D5FE0028C2D0002040
:100400002071002068603070E07002B070BD0000A4
:1004100010B50446207901285CD0A068006890EDF2
:10042000010ADFED9B0AB4EE600AF1EE10FA48BF54
:10043000102147D4DFED970AB4EE600AF1EE10FA0E
:1004400048BF20213ED4DFED940AB4EE600AF1EEFD
:1004500010FA48BF302135D4DFED900AB4EE600ABF
:10046000F1EE10FA48BF40212CD4DFED8D0AB4EE36
:10047000600AF1EE10FA48BF502123D4DFEDAF0A35
:10048000B4EE600AF1EE10FA48BF60211AD4DFED35
:10049000AC0AB4EE600AF1EE10FA48BF702111D434
:1004A000DFEDA80AB4EE600AF1EE10FA48BF802131
:1004B00008D4DFEDA50AB4EE600AF1EE10FA4CBFE5
:1004C0009021A021204601F06DFE08B9012010BD49
:1004D00001202071002010BD30B5044681B0207984
:1004E00000284ED0A0680068051D6946204601F02E
:1004F00078FE002840D09DF80000002830D0102859
:100500002CD0202827D0302822D040281DD0502899
:1005100018D0602813D070280ED0802809D09028D9
:1005200004D0A02825D1DFF89C0719E0DFF86C067D
:1005300016E0DFF8640613E0DFF8580610E0DFF895
:1005400050060DE0DFF844060AE0DFF83C0607E05D
:10055000DFF8300604E0DFF8240B01E0DFF8200BC1
:1005600028600021204601F01DFE40B9012001B0A5
:1005700030BDDFF8100B2860012001B030BD002035
:10058000207101B030BD00B581B001F08DFD401E7D
:100590008041C00F01B000BD10B582B004460020FC
:1005A0008DF800006946204601F07EFD20B19DF8DF
:1005B00000002178884202D0012002B010BD002046
:1005C00002B010BD2DE9F04184B00C460021CDE908
:1005D00000118046694601F0C1FD002854D09DF805
:1005E00001109DF800209DF8040002EB01269DF803
:1005F00003109DF8022002EB01279DF8051000EB87
:10060000012502A9404601F099FD00283CD09DF843
:1006100008000C2838D8DFE800F0103737370737E4
:1006200037370D3737370A009FED850A07E09FED12
:10063000850A04E09FED840A01E09FED840A36B24A
:1006400000EE906AF8EEE00A60EE800AFDEEE00A45
:10065000C4ED000A3FB200EE907AF8EEE00A60EED8
:10066000800AFDEEE00AC4ED010A2DB200EE905AB8
:10067000F8EEE00A20EE800ABDEEC00A84ED020A20
:10068000002004B0BDE8F081012004B0BDE8F08195
:10069000010050410100D041010050420100D04210
:1006A0000100504310B582B00C4669460022C1E9F2
:1006B000002201F053FD10B9012002B010BD9DF8D9
:1006C00001109DF8002002EB012121809DF80220FD
:1006D0009DF8031002EB012161809DF804009DF854
:1006E000051000EB0120A08002B0002010BD00002A
:1006F00010B582B00C46694601F020FDD0B19DF8DE
:1007000000000C2813D8DFE800F0071212121012B4
:1007100012120C1212120E004C48206002B000207F
:1007200010BD4948F9E74748F7E74548F5E7DFF8DE
:10073000D80A2060012002B010BD00000100D043A3
:10074000014050440180CF440120504510B582B093
:100750000C46694601F045FD10B9012002B010BDFC
:100760009DF80000C8B110281BD020281CD03028CC
:100770001DD040281ED050281FD0602820D07028BF
:1007800021D0802822D0902823D0A02824D0DFF8A0
:10079000F408206002B0012010BD206002B00020EB
:1007A00010BDDFF8DC08F8E7DFF8D008F5E7DFF880
:1007B000D403F2E7DFF8D003EFE7DFF8D003ECE78C
:1007C000DFF8CC03E9E7DFF8CC03E6E7DFF8C8039E
:1007D000E3E7DFF8C803E0E7DFF8E804DDE700005F
:1007E00000B581B00279012A13D104290ED8DFE8BF
:1007F00001F0090907050300402104E0302102E06F
:10080000202100E0102101F0CDFCB0B9012001B0A1
:1008100000BD806800680429F8D8DFE801F00B0B00
:1008200008060400F2E7D84906E0D64904E0DFF8FC
:100830004C1801E0DFF848184160002001B000BD0D
:1008400023DBF93E23DB793E23DBF93D23DB793DD6
:1008500000B581B001790129DFED8F0A55D1B4EEE1
:10086000600AF1EE10FA48BF102147D4DFED8B0A81
:10087000B4EE600AF1EE10FA48BF20213ED4DFED5D
:10088000880AB4EE600AF1EE10FA48BF302135D480
:10089000DFED840AB4EE600AF1EE10FA48BF4021A1
:1008A0002CD4DFEDB30AB4EE600AF1EE10FA48BFC3
:1008B000502123D4DFEDAF0AB4EE600AF1EE10FA56
:1008C00048BF60211AD4DFEDAC0AB4EE600AF1EE45
:1008D00010FA48BF702111D4DFEDA80AB4EE600A07
:1008E000F1EE10FA48BF802108D4DFEDA50AB4EE7E
:1008F000600AF1EE10FA4CBF9021A02101F052FCE9
:1009000000285FD1012001B000BD80680068B4EE0E
:10091000600AF1EE10FA48BFB2EE0A0A50D4DFEDD9
:100920005F0AB4EE600AF1EE10FA48BFB3EE0A0AAD
:1009300046D4DFED5B0AB4EE600AF1EE10FA48BF70
:100940009FED900A3CD4DFED570AB4EE600AF1EE59
:1009500010FA48BF9FED8C0A32D4DFED850AB4EE61
:10096000600AF1EE10FA48BF9FED880A28D4DFED47
:10097000810AB4EE600AF1EE10FA48BF9FED840AD6
:100980001ED4DFED7D0AB4EE600AF1EE10FA48BF26
:100990009FED800A14D4DFED790AB4EE600AF1EE1F
:1009A00010FA48BF9FED7C0A0AD4DFED750AB4EE59
:1009B000600AF1EE10FA4CBF9FED780A9FEDC10A74
:1009C00080ED010A002001B000BD000010B582B02A
:1009D0000C46694601F0B2FBF0B19DF800000C280E
:1009E00017D8DFE800F007161616131616160D16A0
:1009F000161610004FF08040206002B0002010BD9D
:100A00004FF08140F8E74FF08240F5E74FF0834028
:100A1000F2E7DFF8F4072060012002B010BD00000B
:100A200000B5042981B010D8DFE801F0030F0B0FE7
:100A30000D00002101F063FB401E8041C00F01B09A
:100A400000BD0821F6E70C21F4E7012001B000BD4C
:100A5000DFED9D0A00B5B4EE600AF1EE10FA81B048
:100A600048BF002111D4DFED990AB4EE600AF1EE1F
:100A700010FA48BF082108D4DFEDBD0AB4EE600AC1
:100A8000F1EE10FA4CBF0C21042101F038FB401E9E
:100A90008041C00F01B000BD010050410100D041B4
:100AA000010050420100D04200B581B0012301F0A5
:100AB000E9FA401E8041C00F01B000BD00B581B011
:100AC00001238DF800206A4601F0E5FA401E8041BE
:100AD000C00F01B000BD10B582B00C46694601F0F0
:100AE000D4FE48B19DF80000002818BF012803D1AA
:100AF000207002B0002010BD012002B010BD70B502
:100B0000044682B0A0680668356800208DF80000B1
:100B10006946204601F0C8FA00B39DF8000021782C
:100B200088421BD10421204601F026FDB0B14021AE
:100B3000204601F0C5FA88B10021204601F0A0FC52
:100B400060B1DFF8080870600021204601F0ADFBBD
:100B500020B10C21204601F054FB10B9012002B055
:100B600070BD01206870E07002B0002070BD000010
:100B7000010050430100D043014050440180CF4464
:100B800001205045000050420000D0420000504378
:100B90000000D043004050440080CF440020504526
:100BA00070B5044682B0A06805682E6800208DF8F4
:100BB00000006946204601F077FA98B19DF80000E0
:100BC000217888420ED1207988B1A0680068011D83
:100BD000204600F0CFF9012804D00021204601F082
:100BE00064FB10B9012002B070BD0020207100200C
:100BF00068607070E07002B070BD000010B504460F
:100C0000207901285CD0A068006890ED010ADFED32
:100C1000A30AB4EE600AF1EE10FA48BF102147D4DF
:100C2000DFED9F0AB4EE600AF1EE10FA48BF202112
:100C30003ED4DFED9C0AB4EE600AF1EE10FA48BF34
:100C4000302135D4DFED980AB4EE600AF1EE10FAE7
:100C500048BF40212CD4DFED950AB4EE600AF1EED6
:100C600010FA48BF502123D4DFED910AB4EE600A98
:100C7000F1EE10FA48BF60211AD4DFED8E0AB4EE0F
:100C8000600AF1EE10FA48BF702111D4DFED8A0A34
:100C9000B4EE600AF1EE10FA48BF802108D4DFED0F
:100CA000B40AB4EE600AF1EE10FA4CBF9021A02114
:100CB000204601F0FAFA08B9012010BD0120207188
:100CC000002010BD0020D045010000400100804000
:100CD00030B5044681B02079002847D0A06800686C
:100CE000051D6946204601F0FFFA002839D09DF81D
:100CF0000000002829D0102825D0202820D0302816
:100D00001BD0402817D0502813D060280FD070284F
:100D10000BD0802807D0902803D0A0281ED1B4483B
:100D200013E0B44811E0B4480FE0B4480DE0B44813
:100D30000BE0B44809E0B44807E0DFF84C0304E0F6
:100D4000DFF8380301E0DFF838032860002120468F
:100D500001F0ABFA40B9012001B030BDDFF8A804C2
:100D60002860012001B030BD0020207101B030BDED
:100D70000100004100B581B001F096F9401E8041AC
:100D8000C00F01B000BD10B582B0044600208DF840
:100D900000006946204601F087F920B19DF8000067
:100DA0002178884202D0012002B010BD002002B09C
:100DB00010BD00002DE9F04184B080460C4601A82A
:100DC0000021C0E90011404601A901F049FA0028BC
:100DD00060D001A89DF80420417802EB01269DF81F
:100DE00007108278007902EB01279DF8091000EBCB
:100DF00001250DF10101404601F0A5FA002849D076
:100E00009DF80100022808BF9FED970A1DD0694692
:100E1000404601F015FA00283CD09DF800000C284F
:100E200038D8DFE800F0103737370D3737370A3753
:100E3000373707009FED8D0A07E09FED8D0A04E02C
:100E40009FED8C0A01E09FED8C0A36B200EE906AAD
:100E5000F8EEE00A60EE800AFDEEE00AC4ED000A5A
:100E60003FB200EE907AF8EEE00A60EE800AFDEE06
:100E7000E00AC4ED010A2DB200EE905AF8EEE00A45
:100E800020EE800ABDEEC00A84ED020A002004B004
:100E9000BDE8F081012004B0BDE8F08101005041BF
:100EA0000100D041010050420100D04201005043F6
:100EB0000100D043014050440180CF4410B582B0BE
:100EC0000C4669460022C1E9002201F0C9F910B9B7
:100ED000012002B010BD9DF801109DF8002002EB2A
:100EE000012121809DF802209DF8031002EB0121D1
:100EF00061809DF804009DF8051000EB0120A080A2
:100F000002B0002010BD000030B581B00C4605468F
:100F10000DF1010101F017FA68B19DF801000228F6
:100F200004D15148206001B0002030BD69462846F8
:100F300001F086F910B9012001B030BD9DF8000024
:100F40000C2810D8DFE800F0070F0F0F090F0F0F64
:100F50000B0F0F0F0D004848E4E74648E2E744480E
:100F6000E0E74248DEE7A848206001B0012030BD3C
:100F70000120504510B582B00C46694601F0B4F925
:100F800010B9012002B010BD9DF80000C0B11028BA
:100F90001AD020281AD030281AD040281AD0502829
:100FA0001AD060281AD070281AD080281AD0902819
:100FB0001AD0A0281AD03348206002B0012010BDFA
:100FC000206002B0002010BD2D48F9E72B48F7E75C
:100FD0002D48F5E70C48F3E70A48F1E70848EFE742
:100FE0000648EDE70448EBE70248E9E70048E7E791
:100FF0000020D045002050450080CF4400405044A0
:101000000000D043000050430000D04200B581B042
:101010000279012A13D104290ED8DFE801F0090969
:1010200007050300402104E0302102E0202100E018
:10103000102101F03AF9A0B9012001B000BD80688B
:1010400000680429F8D8DFE801F00A0A080604005D
:10105000F2E7BE4904E00C4902E0084900E0084913
:101060004160002001B000BD00008C4000008C42B7
:1010700000000C4200008C4100000C410000D041F7
:1010800000005041000080BF0000504200B581B018
:1010900001790129DFED7A0A55D1B4EE600AF1EE4B
:1010A00010FA48BF102147D4DFED9F0AB4EE600A62
:1010B000F1EE10FA48BF20213ED4DFED9C0AB4EED9
:1010C000600AF1EE10FA48BF302135D4DFED980AFE
:1010D000B4EE600AF1EE10FA48BF40212CD4DFEDE7
:1010E000950AB4EE600AF1EE10FA48BF502123D4FD
:1010F000DFED910AB4EE600AF1EE10FA48BF60210C
:101100001AD4DFED8E0AB4EE600AF1EE10FA48BF91
:10111000702111D4DFED8A0AB4EE600AF1EE10FA04
:1011200048BF802108D4DFED870AB4EE600AF1EEF3
:1011300010FA4CBF9021A02101F0B7F800285FD130
:10114000012001B000BD80680068B4EE600AF1EED5
:1011500010FA48BFB2EE0A0A50D4DFED730AB4EEBB
:10116000600AF1EE10FA48BFB3EE0A0A46D4DFED8A
:101170006F0AB4EE600AF1EE10FA48BF9FED720AF2
:101180003CD4DFED6B0AB4EE600AF1EE10FA48BF12
:101190009FED6E0A32D4DFED670AB4EE600AF1EE1D
:1011A00010FA48BF9FED6A0A28D4DFED630AB4EE57
:1011B000600AF1EE10FA48BF9FED660A1ED4DFED1B
:1011C0005F0AB4EE600AF1EE10FA48BF9FEDA50A7F
:1011D00014D4DFED5B0AB4EE600AF1EE10FA48BFFA
:1011E0009FEDA10A0AD4DFED570AB4EE600AF1EED2
:1011F00010FA4CBF9FED9D0A9FEDBC0A80ED010ADD
:10120000002001B000BD0000000080BF30B581B0FB
:101210000C460546694601F096F828B10DF101012A
:10122000284601F00DF810B9012001B030BD9DF83D
:101230000000022805D1DFF8B40A206001B00020C8
:1012400030BD9DF801000C2814D8DFE800F007132A
:1012500013130A1313130D1313131000DFF8280CC4
:10126000EBE7DFF8280CE8E7DFF8240CE5E7DFF828
:10127000240CE2E7DFF8200C206001B0012030BD33
:101280000100504100B5042981B010D8DFE801F019
:10129000030F0B0F0D00002100F0B3FF401E804133
:1012A000C00F01B000BD0421F6E70C21F4E70120D6
:1012B00001B000BD30B5DFED8E0AB4EE600AF1EE8C
:1012C00010FA81B0044606D5022101F01DF838B3AA
:1012D000002001B030BDDFED870AB4EE600AF1EE08
:1012E00010FA48BF002511D4DFED830AB4EE600A7E
:1012F000F1EE10FA48BF042508D4DFED800AB4EE01
:10130000600AF1EE10FA4CBF08250C25002100F010
:10131000FBFF28B12946204600F073FF0028D7D1F3
:10132000012001B030BD00000100D0410100504259
:101330000100D042010050430100D043014050441D
:101340000180CF4401205045000050420000D042AF
:10135000000050430000D04300B581B0012300F0ED
:1013600091FE401E8041C00F01B000BD00B581B0AC
:1013700001238DF800206A4600F08DFE401E80415A
:10138000C00F01B000BD10B582B00C46694601F037
:101390008CFA48B19DF8000010B1022804D1012058
:1013A000207002B0002010BD012002B010BD00006E
:1013B000DFED530A00B5B4EE600AF1EE10FA81B029
:1013C00048BF102147D4DFED4F0AB4EE600AF1EEBA
:1013D00010FA48BF20213ED4DFED4B0AB4EE600A7C
:1013E000F1EE10FA48BF302135D4DFED480AB4EEF3
:1013F000600AF1EE10FA48BF40212CD4DFED440A18
:10140000B4EE600AF1EE10FA48BF502123D4DFEDAC
:10141000410AB4EE600AF1EE10FA48BF60211AD416
:10142000DFED3D0AB4EE600AF1EE10FA48BF70211C
:1014300011D4DFED3A0AB4EE600AF1EE10FA48BFBB
:10144000802108D4DFED360AB4EE600AF1EE10FA1E
:101450004CBF9021A02100F0A5FE401E8041C00F8E
:1014600001B000BD004050440080CF4400205045F2
:1014700010B504469FEDCA0A2079012805D12046FF
:10148000FFF796FF012804D110BDA068006880ED29
:10149000010A0021204600F032FEE8B10621204674
:1014A00001F090FCC0B10021204601F04EFC98B143
:1014B0000021204601F02AFC70B10021204601F0F5
:1014C00007FC48B10321204601F05DFC20B18021DA
:1014D000204601F008FB08B9012010BD102120466C
:1014E00001F004FD401E8041C00F10BD0020D0451A
:1014F0000100FA42010075430100FA4301007A44F9
:10150000010050410100D041010050420100D04291
:10151000010050430100D043014050440180CF44BA
:101520000120504510B50446002101F0DFFC48B110
:101530000021204601F0D7FA20B10021204601F019
:1015400041FC08B9012010BD0021204601F01BFC20
:10155000401E8041C00F10BD10B582B00C466946D8
:1015600001F0F3F848B19DF8000010B1202804D133
:101570000120207002B0002010BD012002B010BD7B
:1015800000B581B001F0FFFB401E8041C00F01B0EB
:1015900000BD10B50446B3EE0A0A2079012805D132
:1015A0002046FFF705FF012804D110BDA0680068A0
:1015B00080ED010A0021204600F0A1FD70B1172145
:1015C000204601F01EFD48B10421204601F08EF8AE
:1015D00020B11021204601F06AF808B9012010BDA1
:1015E0008021204600F0A9FF401E8041C00F10BDA1
:1015F00010B50446002100F0A0FF48B100212046AC
:1016000001F055F820B10021204601F06FF808B92B
:10161000012010BD0021204601F0F3FC401E804156
:10162000C00F10BD10B582B00C46694601F0BFF97D
:1016300048B19DF8000010B1102804D1012020709D
:1016400002B0002010BD012002B010BD00B581B075
:1016500001F0C0FC401E8041C00F01B000BD00B5CC
:1016600081B0022100F0E5FF401E8041C00F01B0B3
:1016700000BD00B581B0002100F0DBFF401E8041BD
:10168000C00F01B000BD00B581B001F0BAFC401E32
:101690008041C00F01B000BD10B50446B3EE0A0A88
:1016A0002079012805D12046FFF782FE012804D1C8
:1016B00010BDA068006880ED010A0021204600F0FE
:1016C0001EFD48B10421204601F010F820B1082188
:1016D000204600F0CDFF08B9012010BD02212046B0
:1016E00001F0A7FB401E8041C00F10BD10B504469D
:1016F000002101F09EFB20B10021204600F0B8FF40
:1017000008B9012010BD0021204600F0EFFF401E67
:101710008041C00F10BD10B582B00C46694601F083
:1017200056F948B19DF8000010B1202804D10120DD
:10173000207002B0002010BD012002B010BD0000DA
:1017400010B504469FED160A2079012805D12046E0
:10175000FFF72EFE012804D110BDA068006880EDBF
:10176000010A0021204600F0CAFC70B10021204689
:1017700001F0EBFA48B10221204601F06CFA20B1E9
:101780008021204601F0AFF908B9012010BD2021C9
:10179000204601F0CAFB401E8041C00F10BD000072
:1017A0000000D04310B50446002101F0BEFB48B153
:1017B0000021204601F097F920B10021204601F0D8
:1017C000C4FA08B9012010BD0021204601F043FAF7
:1017D000401E8041C00F10BD10B582B00C46694656
:1017E00000F0A3FF48B19DF8000010B1082804D113
:1017F0000120207002B0002010BD012002B010BDF9
:1018000000B581B001F027FA401E8041C00F01B041
:1018100000BD000010B504469FEDB50A20790128EF
:1018200005D12046FFF7C4FD012804D110BDA068F2
:10183000006880ED010A0021204600F060FC10B332
:101840000821204601F030F9E8B10421204601F0DA
:101850000CF9C0B10221204601F0E8F898B1082146
:10186000204601F05FF970B10221204601F097F99E
:1018700048B10121204601F0B0F920B18021204675
:1018800001F031F908B9012010BD4021204601F0D6
:101890006BFB401E8041C00F10BD10B504460021F7
:1018A00001F062FBE8B10021204601F01CF9C0B153
:1018B0000021204601F036F998B10021204601F0C0
:1018C0006EF970B10021204601F087F948B100217E
:1018D000204601F0ABF820B10021204601F0C5F808
:1018E00008B9012010BD0021204601F0DDF8401E9E
:1018F0008041C00F10BD10B582B00C46694600F0A3
:1019000044FF48B19DF8000010B1202804D1012007
:10191000207002B0002010BD012002B010BD0000F8
:1019200010B504469FED720A2079012805D12046A2
:10193000FFF73EFD012804D110BDA068006880EDCE
:10194000010A0021204600F0DAFB00282CD00821F3
:10195000204601F0A9F838B30421204601F085F8AB
:1019600010B30221204601F061F8E8B108212046B9
:1019700001F0D8F8C0B10321204601F010F998B168
:101980000321204601F029F970B10821204601F019
:1019900042F948B18021204601F07BF920B1802135
:1019A000204601F0A0F808B9012010BD082120460A
:1019B00001F07DFA401E8041C00F10BD10B50446F5
:1019C000002101F074FA38B30021204601F08BF8B1
:1019D00010B30021204601F0A5F8E8B1002120460F
:1019E00001F0DDF8C0B10021204601F0F6F898B111
:1019F0000021204601F00FF970B10021204601F0CE
:101A000048F948B10021204601F010F820B100212A
:101A1000204601F02AF808B9012010BD0021204617
:101A200001F042F8401E8041C00F10BD10B582B0D9
:101A30000C46694600F099FE48B19DF8000010B1CF
:101A4000102804D10120207002B0002010BD012018
:101A500002B010BD00B581B001F064F8401E8041B5
:101A6000C00F01B000BD00B581B001F098F8401E74
:101A70008041C00F01B000BD00B581B001F0ADF8EC
:101A8000401E8041C00F01B000BD00B581B001F023
:101A9000C2F8401E8041C00F01B000BD10B5044621
:101AA0009FED130A2079012805D12046FFF780FC1D
:101AB000012804D110BDA068006880ED010A002152
:101AC000204600F01CFB48B14021204601F048F8B8
:101AD00020B18021204601F006F808B9012010BD90
:101AE0000421204601F0C4F9401E8041C00F10BD02
:101AF0000000D04310B50446002101F0B9F920B12F
:101B00000021204600F0EFFF08B9012010BD0021A0
:101B1000204601F025F8401E8041C00F10BD10B5D1
:101B200082B00C46694600F0A0FE48B19DF8000066
:101B300010B1402804D10120207002B0002010BD57
:101B4000012002B010BD10B582B00C46694600F00D
:101B50002CFE48B19DF80000002818BF012803D1D1
:101B6000207002B0002010BD012002B010BD10B5E1
:101B700082B00C46694600F028FE48B19DF800008E
:101B800010B1022804D10120207002B0002010BD45
:101B9000012002B010BD10B582B00C46694600F0BD
:101BA00024FE48B19DF8000010B1042804D10120A2
:101BB000207002B0002010BD012002B010BD10B591
:101BC00082B00C46694600F020FE48B19DF8000046
:101BD00010B1082804D10120207002B0002010BDEF
:101BE000012002B010BD10B582B00C46694600F06D
:101BF0001CFE48B19DF8000010B1102804D101204E
:101C0000207002B0002010BD012002B010BD10B540
:101C100082B00C46694600F018FE48B19DF80000FD
:101C200010B1202804D10120207002B0002010BD86
:101C3000012002B010BD0000DFED980A00B5B4EE3F
:101C4000600AF1EE10FA81B048BF082147D4DFEDF9
:101C5000940AB4EE600AF1EE10FA48BF10213ED4A7
:101C6000DFEDB60AB4EE600AF1EE10FA48BF1821B3
:101C700035D4DFEDB30AB4EE600AF1EE10FA48BFD6
:101C800020212CD4DFEDAF0AB4EE600AF1EE10FA99
:101C900048BF282123D4DFEDAC0AB4EE600AF1EE90
:101CA00010FA48BF30211AD4DFEDA80AB4EE600A5A
:101CB000F1EE10FA48BF382111D4DFEDA50AB4EED9
:101CC000600AF1EE10FA48BF402108D4DFEDA10A06
:101CD000B4EE600AF1EE10FA4CBF4821502100F03A
:101CE000EEFB401E8041C00F01B000BD0000FA4273
:101CF00010B582B00C46694600F018FE68B19DF838
:101D0000000020B1202806D0012002B010BD2070B4
:101D100002B0002010BD0120F9E7012002B010BD83
:101D200010B582B00C46694600F0F0FD68B19DF830
:101D3000000020B1102806D0012002B010BD207094
:101D400002B0002010BD0120F9E7012002B010BD53
:101D500010B582B00C46694600F0F8FD68B19DF8F8
:101D6000000020B1402806D0012002B010BD207034
:101D700002B0002010BD0120F9E7012002B010BD23
:101D800000B581B000F0F2FD401E8041C00F01B0EF
:101D900000BD00B581B001F006F9401E8041C00FC2
:101DA00001B000BD00B581B000F08FFD401E804144
:101DB000C00F01B000BD00B5072981B006D800F002
:101DC00001FB401E8041C00F01B000BD012001B0E9
:101DD00000BD00B50A0018BF082981B00BD010293A
:101DE00018BF182907D0202918BF282903D0302967
:101DF00018BF382906D100F005FB401E8041C00FF6
:101E000001B000BD012001B000BD000070B582B07E
:101E10000D460446694601F0C6F8002831D09DF809
:101E200001009DF8001041EA00260DF10201204654
:101E300000F084F928B39DF802000C2821D8DFE8CF
:101E400000F010202020072020200D2020200A0054
:101E50009FED410A07E09FED410A04E09FED400A33
:101E600001E09FED400A36B200EE906AF8EEE00A1B
:101E700020EE800ABDEEC00A85ED000A002002B007
:101E800070BD012002B070BD000075430000FA4330
:101E900000007A440000FA44000080BF01002041A5
:101EA0000100C84170B582B00D4604460DF1020133
:101EB00001F079F800283ED09DF803009DF802104B
:101EC00041EA00260DF10101204600F03CFA00280D
:101ED00031D09DF80100022808BF9FED230A1CD0D5
:101EE0006946204600F0ACF928B39DF800000C28A4
:101EF00021D8DFE800F0102020200D2020200A202B
:101F0000202007009FED190A07E09FED190A04E061
:101F10009FED180A01E09FED180A36B200EE906AB4
:101F2000F8EEE00A20EE800ABDEEC00A85ED000A58
:101F3000002002B070BD012002B070BD0100484217
:101F40000100C842010048430100C8430100484461
:101F50000100C84401404E4523DBF93E23DB793EB6
:101F600023DBF93D23DB793D00008C4000008C42EF
:101F700000000C4200008C4100000C4100B5062915
:101F800081B00CD8DFE801F004040B04040B04005A
:101F900000F076FA401E8041C00F01B000BD012064
:101FA00001B000BD00B50A0018BF202981B006D1DC
:101FB00000F0A4FA401E8041C00F01B000BD012016
:101FC00001B000BD00B581B000F0CDF9401E8041E8
:101FD000C00F01B000BD00B50A0018BF802981B054
:101FE00006D100F02EFA401E8041C00F01B000BDA6
:101FF000012001B000BD00B5012981B006D800F074
:10200000F6FC401E8041C00F01B000BD012001B0B0
:1020100000BD00B5032981B006D800F0CCFA401EFF
:102020008041C00F01B000BD012001B000BD00B56E
:10203000012981B006D800F0DAFC401E8041C00FB3
:1020400001B000BD012001B000BD000000B50C29A9
:1020500081B00FD8DFE801F0070E0E0E070E0E0E4E
:10206000070E0E0E070000F0C5FA401E8041C00F9B
:1020700001B000BD012001B000BD0268531C036027
:102080001170704700B581B001F0B4F8401E804176
:10209000C00F01B000BD00B581B001F094F8401E42
:1020A0008041C00F01B000BD00B50A4681B00123D8
:1020B0000F2101F09FF8401E8041C00F01B000BD0C
:1020C00030B581B00D46044601236A46122101F065
:1020D00091F810B1002001B030BD9DF8000000F073
:1020E000BF0028438DF8000001236A4612212046D4
:1020F00001F069F8401E8041C00F01B030BD30B51D
:1021000081B00D46044601236A46102101F072F8A1
:1021100010B1002001B030BD9DF8000000F0F300C8
:1021200028438DF8000001236A461021204601F063
:102130004AF8401E8041C00F01B030BD10B50C46BA
:1021400001232246102101F055F808B1002010BDEE
:10215000207800F00C002070012010BDF0B581B097
:1021600004460D4600260327F6B206F12801012396
:10217000AA19C9B2204601F03DF850B9761CF6B252
:1021800006F128010123AA19C9B2204601F032F84C
:1021900010B1002001B0F0BD761C7F1EE4D10120FB
:1021A00001B0F0BD30B581B00D46044601236A464A
:1021B000102101F01FF810B1002001B030BD9DF8D2
:1021C000000000F00F0028438DF8000001236A464C
:1021D0001021204600F0F7FF401E8041C00F01B0E3
:1021E00030BD10B50C4601232246102101F002F843
:1021F00008B1002010BD207800F0F0002070012010
:1022000010BD30B581B00D46044601236A46112148
:1022100000F0F0FF10B1002001B030BD9DF80000CB
:1022200000F0F30028438DF8000001236A461121D5
:10223000204600F0C8FF401E8041C00F01B030BDF5
:1022400010B50C4601232246112100F0D3FF08B13E
:10225000002010BD207800F00C002070012010BD7F
:10226000F0B581B004460D4600260327F6B206F10C
:1022700022010123AA19C9B2204600F0BBFF50B9C0
:10228000761CF6B206F122010123AA19C9B2204632
:1022900000F0B0FF10B1002001B0F0BD761C7F1E31
:1022A000E4D1012001B0F0BD000030B581B00D4691
:1022B000044601236A46112100F09CFF10B1002062
:1022C00001B030BD9DF8000000F00F0028438DF8EC
:1022D000000001236A461121204600F074FF401ED1
:1022E0008041C00F01B030BD10B50C46012322461D
:1022F000112100F07FFF08B1002010BD207800F010
:10230000F0002070012010BD30B581B00D460446AC
:1023100001236A46112100F06DFF10B1002001B0C9
:1023200030BD9DF8000000F0FD0028438DF800004E
:1023300001236A461121204600F045FF401E8041DE
:10234000C00F01B030BD10B50C460123224611214B
:1023500000F050FF08B1002010BD207800F002000E
:102360002070012010BD70B582B0044601236A467A
:102370000D46062100F03EFF2E0A78B98DF8005078
:1023800001236A460621204600F01DFF30B90123D3
:102390006A460721204600F02DFF10B1002002B050
:1023A00070BD9DF8000066F302008DF80000012367
:1023B0006A460721204600F006FF401E8041C00FFC
:1023C00002B070BD30B581B00D46044601236A46A7
:1023D000082100F00FFF10B1002001B030BD9DF8C2
:1023E000000000F0F80028438DF8000001236A4641
:1023F0000821204600F0E7FE401E8041C00F01B0DA
:1024000030BD000030B581B00D46044601236A4658
:10241000082100F0EFFE10B1002001B030BD9DF8A2
:10242000000000F0C70028438DF8000001236A4631
:102430000821204600F0C7FE401E8041C00F01B0B9
:1024400030BD30B581B00D46044601236A460921EE
:1024500000F0D0FE10B1002001B030BD9DF80000AA
:1024600000F07F0028438DF8000001236A4609210F
:10247000204600F0A8FE401E8041C00F01B030BDD4
:1024800030B581B00D46044601236A460A2100F0AA
:10249000B1FE10B1002001B030BD9DF8000000F089
:1024A000F80028438DF8000001236A460A212046DF
:1024B00000F089FE401E8041C00F01B030BD30B534
:1024C00081B00D46044601236A460A2100F092FEBF
:1024D00010B1002001B030BD9DF8000000F0870071
:1024E00028438DF8000001236A460A21204600F0A7
:1024F0006AFE401E8041C00F01B030BD30B581B0D2
:102500000D46044601236A460D2100F073FE10B10A
:10251000002001B030BD9DF8000000F0DF0028432E
:102520008DF8000001236A460D21204600F04BFE85
:10253000401E8041C00F01B030BD30B581B00D46A6
:10254000044601236A460D2100F054FE10B100201C
:1025500001B030BD9DF8000000F07F0028438DF8E9
:10256000000001236A460D21204600F02CFE401E8B
:102570008041C00F01B030BD30B581B00D4604467A
:1025800001236A46122100F035FE10B1002001B08F
:1025900030BD9DF8000000F0FB0028438DF80000DE
:1025A00001236A461221204600F00DFE401E8041A4
:1025B000C00F01B030BD30B581B00D4604460123D7
:1025C0006A46142100F016FE10B1002001B030BDA3
:1025D0009DF8000000F0FC0028438DF80000012366
:1025E0006A461421204600F0EEFD401E8041C00FD7
:1025F00001B030BD30B581B00D46044601236A46B6
:10260000142100F0F7FD10B1002001B030BD9DF89D
:10261000000000F0F30028438DF8000001236A4613
:102620001421204600F0CFFD401E8041C00F01B0B4
:1026300030BD30B581B00D46044601236A461921EC
:1026400000F0D8FD10B1002001B030BD9DF80000B1
:1026500000F0FD0028438DF8000001236A4619218F
:10266000204600F0B0FD401E8041C00F01B030BDDB
:1026700030B581B00D46044601236A46192100F0A9
:10268000B9FD10B1002001B030BD9DF8000000F090
:10269000F70028438DF8000001236A4619212046DF
:1026A00000F091FD401E8041C00F01B030BD30B53B
:1026B00081B00D46044601236A46192100F09AFDB7
:1026C00010B1002001B030BD9DF8000000F0EF0017
:1026D00028438DF8000001236A461921204600F0A6
:1026E00072FD401E8041C00F01B030BD30B581B0D9
:1026F0000D46044601236A46192100F07BFD10B106
:10270000002001B030BD9DF8000000F0FB00284320
:102710008DF8000001236A461921204600F053FD80
:10272000401E8041C00F01B030BD10B50C460123E2
:1027300022461B2100F05EFD08B1002010BD20786C
:1027400000F008002070012010BD10B50C460123D8
:1027500022461B2100F04EFD08B1002010BD20785C
:1027600000F020002070012010BD10B50C460123A0
:1027700022461C2100F03EFD08B1002010BD20784B
:1027800000F010002070012010BD10B50C46012390
:1027900022461C2100F02EFD08B1002010BD20783B
:1027A00000F020002070012010BD10B50C46012360
:1027B00022461D2100F01EFD08B1002010BD20782A
:1027C00000F001002070012010BD10B50C4601235F
:1027D00022461D2100F00EFD08B1002010BD20781A
:1027E00000F002002070012010BD10B50C4601233E
:1027F00022461D2100F0FEFC08B1002010BD20780B
:1028000000F004002070012010BD10B50C4601231B
:1028100022461D2100F0EEFC08B1002010BD2078FA
:1028200000F008002070012010BD10B50C460123F7
:1028300022461D2100F0DEFC08B1002010BD2078EA
:1028400000F010002070012010BD10B50C460123CF
:1028500022461D2100F0CEFC08B1002010BD2078DA
:1028600000F020002070012010BD10B50C4601239F
:1028700022461D2100F0BEFC08B1002010BD2078CA
:1028800000F040002070012010BD10B50C4601235F
:1028900022461E2100F0AEFC08B1002010BD2078B9
:1028A00000F001002070012010BD10B50C4601237E
:1028B00022461E2100F09EFC08B1002010BD2078A9
:1028C00000F002002070012010BD30B581B00D462F
:1028D000044601236A463A2100F08CFC38B90123F2
:1028E0000DF101023B21204600F084FC10B10020D4
:1028F00001B030BD9DF801009DF8001000F00F0000
:1029000041EA0020288001B0012030BD10B50C46FE
:10291000012322463B2100F06DFC08B1002010BDD0
:10292000207800F010002070012010BD10B50C467A
:10293000012322463B2100F05DFC08B1002010BDC0
:10294000207800F020002070012010BD10B50C464A
:10295000012322463B2100F04DFC08B1002010BDB0
:10296000207800F040002070012010BD30B581B00B
:102970000D46044601236A463C2100F03BFC38B971
:1029800001230DF101023D21204600F033FC10B17E
:10299000002001B030BD9DF801009DF8001000F04E
:1029A000030041EA0020288001B0012030BD10B5AD
:1029B0000C4601232246532100F01CFC08B10020E4
:1029C00010BD207800F010002070012010BD10B55F
:1029D0000C4601232246532100F00CFC08B10020D4
:1029E00010BD207800F020002070012010BD30B50F
:1029F00081B00D46044601236A46582100F0FAFBD7
:102A000010B1002001B030BD9DF8000000F0FE00C4
:102A100028438DF8000001236A465821204600F023
:102A2000D2FB401E8041C00F01B030BD30B581B037
:102A30000D46044601236A46582100F0DBFB10B125
:102A4000002001B030BD9DF8000000F0FD002843DB
:102A50008DF8000001236A465821204600F0B3FBA0
:102A6000401E8041C00F01B030BD30B581B00D4671
:102A7000044601236A46582100F0BCFB10B1002037
:102A800001B030BD9DF8000000F0FB0028438DF838
:102A9000000001236A465821204600F094FB401EA6
:102AA0008041C00F01B030BD30B581B00D46044645
:102AB00001236A46582100F09DFB10B1002001B0AF
:102AC00030BD9DF8000000F0F70028438DF80000AD
:102AD00001236A465821204600F075FB401E8041C4
:102AE000C00F01B030BD30B581B00D4604460123A2
:102AF0006A46582100F07EFB10B1002001B030BDC5
:102B00009DF8000000F07F0028438DF800000123AD
:102B10006A465821204600F056FB401E8041C00FF7
:102B200001B030BD30B581B00D46044601236A4680
:102B3000592100F05FFB10B1002001B030BD9DF8BD
:102B4000000065F304008DF8000001236A46592156
:102B5000204600F038FB401E8041C00F01B030BD60
:102B600030B581B00D46044601236A46592100F074
:102B700041FB10B1002001B030BD9DF8000000F015
:102B80009F0028438DF8000001236A465921204602
:102B900000F019FB401E8041C00F01B030BD30B5C0
:102BA00081B00D46044601236A465A2100F022FBFB
:102BB00010B1002001B030BD9DF8000065F30100A8
:102BC0008DF8000001236A465A21204600F0FBFAE6
:102BD000401E8041C00F01B030BD30B581B00D4600
:102BE000044601236A465A2100F004FB10B100207C
:102BF00001B030BD9DF8000065F383008DF8000042
:102C000001236A465A21204600F0DDFA401E804129
:102C1000C00F01B030BD30B581B00D460446012370
:102C20006A465A2100F0E6FA10B1002001B030BD2A
:102C30009DF8000000F00F0040EA05108DF800003C
:102C400001236A465A21204600F0BDFA401E804109
:102C5000C00F01B030BD30B581B00D460446012330
:102C60006A465B2100F0C6FA10B1002001B030BD09
:102C70009DF8000065F305008DF8000001236A4609
:102C80005B21204600F09FFA401E8041C00F01B03A
:102C900030BD30B581B00D46044601236A465B2144
:102CA00000F0A8FA10B1002001B030BD9DF800007E
:102CB00000F07F0028438DF8000001236A465B2165
:102CC000204600F080FA401E8041C00F01B030BDA8
:102CD00030B581B00D46044601236A465C2100F000
:102CE00089FA10B1002001B030BD9DF8000065F3F5
:102CF00003008DF8000001236A465C21204600F0A5
:102D000062FA401E8041C00F01B030BD30B581B0C5
:102D10000D46044601236A465C2100F06BFA10B1AF
:102D2000002001B030BD9DF8000000F0EF00284306
:102D30008DF8000001236A465C21204600F043FA2A
:102D4000401E8041C00F01B030BD30B581B00D468E
:102D5000044601236A465C2100F04CFA10B10020C1
:102D600001B030BD9DF8000065F346108DF80000FD
:102D700001236A465C21204600F025FA401E80416E
:102D8000C00F01B030BD30B581B00D4604460123FF
:102D90006A465D2100F02EFA10B1002001B030BD6E
:102DA0009DF8000000F0F80028438DF80000012392
:102DB0006A465D21204600F006FA401E8041C00FA1
:102DC00001B030BD70B582B0044601236A460E469C
:102DD0005D2100F00FFA7509A8B99DF8000000F018
:102DE000070040EAC6008DF8000001236A465D2115
:102DF000204600F0E8F930B901236A465C212046FC
:102E000000F0F8F910B1002002B070BD9DF800008C
:102E100000F07F0040EAC5108DF8000001236A46EB
:102E20005C21204600F0CFF9401E8041C00F02B067
:102E300070BD30B581B00D46044601236A465E215F
:102E400000F0D8F910B1002001B030BD9DF80000AD
:102E500000F0FD0028438DF8000001236A465E2142
:102E6000204600F0B0F9401E8041C00F01B030BDD7
:102E700030B581B00D46044601236A465E2100F05C
:102E8000B9F910B1002001B030BD9DF8000000F08C
:102E9000FB0028438DF8000001236A465E2120468E
:102EA00000F091F9401E8041C00F01B030BD30B537
:102EB00081B00D46044601236A465E2100F09AF96E
:102EC00010B1002001B030BD9DF8000000F0F70007
:102ED00028438DF8000001236A465E21204600F059
:102EE00072F9401E8041C00F01B030BD30B581B0D5
:102EF0000D46044601236A465E2100F07BF910B1BD
:102F0000002001B030BD9DF8000000F0EF00284324
:102F10008DF8000001236A465E21204600F053F937
:102F2000401E8041C00F01B030BD30B581B00D46AC
:102F3000044601236A465E2100F05CF910B10020CE
:102F400001B030BD9DF8000000F0DF0028438DF88F
:102F5000000001236A465E21204600F034F9401E3D
:102F60008041C00F01B030BD30B581B00D46044680
:102F700001236A465E2100F03DF910B1002001B046
:102F800030BD9DF8000000F0BF0028438DF8000020
:102F900001236A465E21204600F015F9401E80415B
:102FA000C00F01B030BD30B50D4681B004460123DD
:102FB0002A463E2100F01EF930B901236A1C3F2148
:102FC000204600F017F910B1002001B030BD0120FB
:102FD00001B030BD30B50D4681B0044601232A460C
:102FE0004B2100F007F930B901236A1C4C2120461F
:102FF00000F000F910B1002001B030BD012001B097
:1030000030BD30B581B00D46044601236A4601212A
:1030100000F0F0F858B99DF8000040F080008DF8FD
:10302000000001236A460121204600F0CCF801236C
:103030000DF101020F21204600F0DCF89DF801009F
:1030400065F304008DF8010001230DF101020F2149
:10305000204600F0B8F801236A460121204600F01E
:10306000C9F858B99DF8000000F07F008DF8000005
:1030700001236A460121204600F0A5F8012001B095
:1030800030BD000030B5954C87B0204600F0C4FD3F
:1030900000284BD19248934D606001A90020A060A8
:1030A0003320E0604FF4804020618F482060002092
:1030B0000090286940F002002861286900F00200B1
:1030C000009000984FF4407001901220029002206E
:1030D00004900020039004200590844800F0A0FD97
:1030E000002000900022286A40F40010286200218D
:1030F000286A00F4001000900098286840F400103E
:103100002860286820F4001028601F2000F081FE4D
:103110001F2000F0A7FE00220021202000F079FEF1
:10312000202000F09FFE204600F0E6F8204600F048
:1031300073FD20280CBF0020012007B030BD70B502
:103140008CB00020009006A9694E6A4C3068674D2B
:1031500040F002003060306800F0020000900098FB
:10316000079420200690022009900020089028460D
:1031700000F056FD00220021172000F04AFE172023
:1031800000F070FE0020009001A9306840F00200BD
:103190003060306800F00200009000980294102027
:1031A00001900220049000200390284600F038FD92
:1031B000002200210A2000F02CFE0A2000F052FE1E
:1031C00000200CB070BD30B583B04FF48055009234
:1031D00002950A46019301234178404C204600F0B5
:1031E0001BF928B1204600F0F6F800F01AF801208B
:1031F00003B030BD30B583B04FF4805500920295D6
:103200000A46019301234178344C204600F084FAA9
:1032100028B1204600F0DFF800F003F8012003B0E9
:1032200030BD30B52D4C87B0204600F0F5FC0028AD
:103230004BD12B482B4D606001A90020A0603320AA
:10324000E0604FF48040206127482060002000901B
:10325000286940F002002861286900F0020000900F
:1032600000984FF4407001901220029002200490C8
:1032700000200390042005901C4800F0D1FC0020A1
:1032800000900022286A40F4001028620021286A79
:1032900000F4001000900098286840F400102860A6
:1032A000286820F4001028601F2000F0B2FD1F20C5
:1032B00000F0D8FD00220021202000F0AAFD2020EF
:1032C00000F0D0FD204600F017F8204600F0A4FCE6
:1032D00020280CBF0020012007B030BDF00A0020DC
:1032E000801A0600203802400054004000040240CA
:1032F000303802400000111030B5040081B008BF22
:10330000012066D094F83D0020B984F83C002046A6
:1033100000F085FC242084F83D00206801684908FD
:103320004900016000F077FEDFF8E020A0FB0221F9
:103330002268C90C51606368DFF8D420934208D337
:103340004FF4967313FB01F1DFF8C850A1FB05534E
:10335000590A2368491C19626168914208D24900E0
:10336000B0FBF1F0C0F30B01042913D2042011E0EB
:10337000A26822B901EB4101B0FBF1F005E019228E
:103380005143B0FBF1F040F4804001050CBF012037
:1033900040F400402168C861E069216A084321685F
:1033A00008602069E1680843216888606069A16954
:1033B00008432168C8602068016841F0010101608C
:1033C00000202064202084F83D000020206384F841
:1033D0003E0001B030BD10B5040001D1012010BD88
:1033E000242084F83D0020680168490849000160F4
:1033F000204600F06FFE0020206484F83D0020632A
:1034000084F83E0084F83C0010BD000006BD3786FD
:10341000A1860100986E12832DE9F043054681B024
:1034200095F83D002028884614461F4615D100F027
:1034300053FE064642F2117928688169890710D542
:1034400000F04AFE801B4845F6D300202863202068
:1034500085F83D00002085F83C00022001B0BDE861
:10346000F08395F83C100129F7D0012185F83C1034
:10347000016821F400610160212085F83D004020B1
:1034800085F83E0000202864A248E86228680168A8
:1034900041F48071016000F01FFE0A9E8146286899
:1034A0004169C9071CD416F1010FF8D02EB100F004
:1034B00013FEA0EB09008642F1D2002028632020F1
:1034C00085F83D00002085F83C00286C042840F079
:1034D0009780002085F83C0001B00120BDE8F08312
:1034E00008F0FE01016100F0F7FD8046286841699F
:1034F000890721D4416949050AD5016841F4007161
:1035000001606FF48060296848610420286409E044
:1035100016F1010FEAD02EB100F0DEFDA0EB08009D
:103520008642E3D200202863202085F83D00002059
:1035300085F83C00286CC8E70021009141690091A2
:1035400080690090009800F0C7FD804629684869AE
:10355000000626D44869400515D56FF4806048619F
:103560000420286400202863202085F83D000020E6
:1035700085F83C00286C0428A7D12868016841F42C
:1035800000710160A1E716F1010FDFD02EB100F04C
:10359000A3FDA0EB08008642D8D2286C40F02000A2
:1035A000DFE7012F26D0200A086100F095FD0746CD
:1035B0002868416909061DD44169490504D56FF49D
:1035C0008061416104200BE016F1010FF0D026B1BB
:1035D00000F082FDC01B8642EAD2286C40F0200039
:1035E000286400202863202085F83D00002085F80D
:1035F0003C00BFE72868E4B20461089F099C0BE027
:10360000002085F83C00032001B0BDE8F08300BF36
:1036100017F8011B0161641EA0B200283BD000F026
:103620005BFD804628684169090629D4416949053E
:1036300018D56FF48061416104202864002028635C
:10364000202085F83D00002085F83C00286C0428E7
:10365000D9D12868016841F400710160012001B0EE
:10366000BDE8F08316F1010FDCD02EB100F034FD7F
:10367000A0EB08008642D5D2286C40F02000DCE7A1
:1036800017F8011B0161641E286841694907C3D509
:10369000A1B20029BCD100F01FFD04462868416991
:1036A000090628D44169490518D56FF48061416144
:1036B0000420286400202863202085F83D00002095
:1036C00085F83C00286C04289DD12868016841F4E5
:1036D00000710160012001B0BDE8F08316F1010F17
:1036E000DCD026B100F0F8FC001B8642D6D2286C54
:1036F00040F02000DDE7016841F400710160202006
:1037000085F83D00002085F83E0085F83C0001B0BA
:10371000BDE8F0830000FFFF2DE9F043054681B0CE
:1037200095F83D0020280C461746984615D100F024
:10373000D3FC064642F2117928688169890710D5C1
:1037400000F0CAFC801B4845F6D3002028632020E7
:1037500085F83D00002085F83C00022001B0BDE85E
:10376000F08395F83C100129F7D0012185F83C1031
:10377000016821F400610160222085F83D004020AD
:1037800085F83E0000202864DFF88804E862286895
:10379000016841F4806101602868016841F480712A
:1037A000016000F099FC0A9E814628684169C907BA
:1037B0000CD416F1010FF8D0002E00F0CE8000F0EE
:1037C0008BFCA0EB09008642EFD2C6E004F0FE01BC
:1037D000016100F081FC814628684169890720D495
:1037E000416949050AD5016841F4007101606FF42F
:1037F0008060296848610420286409E016F1010FFF
:10380000EAD02EB100F068FCA0EB09008642E3D2BA
:1038100000202863202085F83D00002085F83C002A
:10382000C4E00021009141690091806900900098F6
:1038300000F052FC81462968486900061ED4486998
:1038400040050DD56FF48060486104202864002095
:103850002863202085F83D00002085F83C005FE0CB
:1038600016F1010FE7D02EB100F036FCA0EB0900F5
:103870008642E0D2286C40F02000E7E7B8F1010F63
:1038800027D0380A086100F027FC80462868416983
:1038900009061ED44169490504D56FF48061416170
:1038A00004200CE016F1010FF0D02EB100F014FC52
:1038B000A0EB08008642E9D2286C40F02000286482
:1038C00000202863202085F83D00002085F83C007A
:1038D00026E02868FFB2076100F0FEFB0746286873
:1038E0004169090625D44169490504D56FF4806111
:1038F000416104200BE016F1010FF0D026B100F079
:10390000EBFBC01B8642EAD2286C40F02000286402
:1039100000202863202085F83D00002085F83C0029
:10392000286C042843D12868016841F400710160C3
:103930003DE0016841F48071016000F0CDFB074675
:1039400028684169C90711D416F1010FF8D026B1D2
:1039500000F0C2FBC01B8642F2D200202863202068
:1039600085F83D00002085F83C0020E044F001018E
:10397000C9B2016100F0B0FB0446286841698907BB
:103980002AD4416949051CD5016841F400710160E0
:103990006FF480602968486104202864002028634F
:1039A000202085F83D00002085F83C00286C286C1C
:1039B00004282AD1002085F83C00012001B0BDE890
:1039C000F08316F1010FD8D0002EE7D000F084FB71
:1039D000001B8642D1D2E1E7099C21001CD10021C5
:1039E000009141690091816900910099016841F459
:1039F00000710160202085F83D00002085F83E0020
:103A000085F83C0001B0BDE8F083002085F83C005B
:103A1000032001B0BDE8F083012C11D1016821F42D
:103A200080610160002000902868416900918169EF
:103A300000910099016841F400710160089F29E03C
:103A4000022C12D1016821F48061016028680168AC
:103A500041F40061016000200090286841690091F4
:103A6000806900900098089F14E000210091F5E71C
:103A700026B100F031FB001B864214D2286C40F0C6
:103A8000200028641CE0006907F8010B0024A0B2A4
:103A90000028AFD0A4B2042C80F08380012C1CD16C
:103AA00000F01AFB0446286841694906EBD44169D5
:103AB000C906DDD56FF0100141610020286428633C
:103AC000202085F83D00002085F83C00286C202847
:103AD0009ED0012001B0BDE8F083022C1FD100F080
:103AE000FBFA04462868416949070ED416F1010F14
:103AF000F8D026B100F0F0FA001B8642F2D2002086
:103B00002863202085F83D007FE7016841F40071BB
:103B100001602868006907F8010B2868B3E700F026
:103B2000DBFA80462868416949070FD416F1010F76
:103B3000F8D02EB100F0D0FAA0EB08008642F1D206
:103B400000202863202085F83D005EE7016821F40D
:103B50008061016028680069387000F0BDFA804615
:103B60002868416949070FD416F1010FF8D02EB12A
:103B700000F0B2FAA0EB08008642F1D200202863E0
:103B8000202085F83D0040E7016841F400710160A4
:103B9000E41E28680069787028680069B870FF1C06
:103BA00075E700F099FA804628684169490622D4F1
:103BB0004169C90613D56FF01001416100202864E6
:103BC0002863202085F83D00002085F83C00286C03
:103BD00020287FF4F2AE032001B0BDE8F0832EB1BF
:103BE00000F07AFAA0EB08008642DDD2286C40F0A3
:103BF00020002864E5E7006907F8010B641E2868C7
:103C0000416949077FF543AF006907F8010B641E5E
:103C10003DE700000000FFFF90F83D00704770474F
:103C20002DE9F04F002381B0024600249946DFF8C9
:103C3000A4A1694F4FF00F0E01200D68984000EAD3
:103C40000508804540F0A7804D68022D18BF122D51
:103C500011D1DD0802EB850C09F01C05DCF82060B1
:103C60000EFA05FB26EA0B06D1F810B00BFA05F5A3
:103C70003543CCF8205003261568A6406FEA060CA1
:103C80000E7906F003060CEA0505A64035431560DB
:103C90004D68012D18BF022D03D0112D18BF122D14
:103CA0000FD19568CE680CEA0505A64035439560AE
:103CB000556825EA00004D68C5F300159D4028436E
:103CC0005060D0688D680CEA0000A5402843D060A1
:103CD0004868C0005FD50020009009F00C0C3868DF
:103CE0003E4E40F480403860386800F480400090D8
:103CF0000098980856F820500EFA0CF6B543384E46
:103D0000B24208BF002613D0364EB24208BF012689
:103D10000ED0354EB24208BF022609D0334EB24211
:103D200008BF032604D0324EB2420CBF042605263B
:103D300006FA0CF62E43294D45F820606FEA08007C
:103D4000DAF8005000EA050C4D68ED0348BF48EA78
:103D50000C0CCAF800C0DAF8045000EA050C4D68F3
:103D6000AD0348BF48EA0C0CCAF804C0DAF80850A2
:103D700000EA050C4D68ED0248BF48EA0C0CCAF891
:103D800008C0DAF80C5028404D68AD0248BF48EA38
:103D90000000CAF80C005B1CA41C102B09F10409DC
:103DA000FFF44AAF01B0BDE8F08F00690840401E43
:103DB0008041C043C00F704702B909048161704758
:103DC0000C4A136803421CBF106000F07EBF7047AE
:103DD00000000000003C0140443802400838014027
:103DE000000002400004024000080240000C0240B3
:103DF00000100240143C014027490A684FF6FF03B7
:103E000000021A4000F4E0601043244A10430860A6
:103E1000704730B4204B1B68C3F30223C3F107047F
:103E2000052C28BF04241D1D072D34BF0023DB1ED5
:103E3000012505FA04F4641E2140994005FA03F3B4
:103E40005B1E1A4011430901002807D5144A00F0EF
:103E50000F00104400F8041C30BC7047114A115484
:103E600030BC7047012100F01F0291400E4A40090A
:103E700042F820107047401EB0F1807F01D301202E
:103E800070470A494860F02081F8130D00208860CF
:103E900007200860002070470CED00E00000FA05E4
:103EA00018ED00E000E400E000E100E010E000E0D8
:103EB000F0B56D4E81B00446D6F800040D4600F012
:103EC0000F00A84207D286F80054D6F8000400F08C
:103ED0000F00A84272D12078800705D5B068A1688C
:103EE00020F0F0000843B0602078C00758D5606823
:103EF000012802D13168890305E0022818BF032890
:103F000005D13168890105D4012001B0F0BD3168C7
:103F1000890753D5B168890840EA8100B06000F094
:103F2000DBF80746606801280ED1B06800F00C008D
:103F3000042835D000F0D0F8C01B41F28931884206
:103F4000F3D3032001B0F0BD02280ED1B06800F019
:103F50000C00082824D000F0BFF8C01B41F28931C2
:103F60008842F3D3032001B0F0BD03280AD1B06822
:103F700000F0B2F8C01B41F289318842F7D3032028
:103F800001B0F0BDB06810F00C0F09D000F0A4F83B
:103F9000C01B41F289318842F4D3032001B0F0BD47
:103FA000D6F8000400F00F0085420AD286F80054CB
:103FB000D6F8000400F00F00A84202D0012001B0A2
:103FC000F0BD2078400705D5B068E16820F4E050E6
:103FD0000843B0602078000706D5B068216920F456
:103FE000604040EAC100B0600F2001F0ADF8002051
:103FF00001B0F0BD00B581B000F044F81B4B0FF2EA
:1040000074021B681A49C3F30313D25CD0400860E2
:1040100001B0086800BD10B500F034F8134B0FF282
:1040200054021C681249C4F30314145DE040086094
:1040300008681968C1F38221515CC84010BD10B5F1
:1040400000F020F8094B0FF22C021C680849C4F359
:104050000314145DE040086008681968C1F3423138
:10406000515CC84010BD00000038024008380240D2
:1040700034030020000000000102030401020304D5
:10408000060708091048416801F00C01042903D013
:10409000082903D00D4870470D4870470168026831
:1040A000520201F03F014CBF094A084AB2FBF1F14C
:1040B00002680068C0F30140C2F38812401C5143FB
:1040C0004000B1FBF0F07047043802400024F400D7
:1040D00000127A007047000001480068704700BF76
:1040E000A40B00202DE9F04101F042F801F05EF848
:1040F000002001F0A3F80121002001F0DFF801F019
:1041000039F9DFF82C4C211D002001F093F901282A
:1041100034D004F10801002001F09CFA01282DD0D0
:10412000606801F037FA012804D0A06801F0F2FAC3
:10413000012847D10FF61442DFF8F81B04F13000D4
:1041400001F046FB04F1300001F05CFB82B241F269
:10415000883304F13001DFF8E00B01F09FFB002011
:1041600001F096F84FF47A7001F05CFD002001F048
:104170009AF84FF47A7001F055FDF0E70FF6CC3263
:10418000DFF8B01B04F1300001F022FB04F1300035
:1041900001F038FB82B241F2883304F13001DFF8DC
:1041A000980B01F07BFB002001F072F84FF47A705D
:1041B00001F038FD002001F076F84FF47A7001F03C
:1041C00031FDF0E70FF68C31DFF86C5BDFF86C7BCC
:1041D0000FF6AC3804F1300001F0FAFA04F13000C7
:1041E00001F010FB41F2883682B2334604F130010F
:1041F000284601F053FB01E001202070207810B127
:1042000001284CD068E000F089F8012821D10FF690
:104210003C32DFF8201B04F1300001F0D9FA04F140
:10422000300001F0EFFA82B2334604F13001284643
:1042300001F034FB002001F02BF84FF47A7001F00C
:10424000F1FC002001F02FF84FF47A7001F0EAFC45
:10425000F0E700F0D7FA0128CED10FF6F022DFF810
:10426000D41A04F1300001F0B3FA04F1300001F087
:10427000C9FA82B2334604F13001284601F00EFB40
:10428000002001F005F84FF47A7001F0CBFC00201B
:1042900001F009F84FF47A7001F0C4FCF0E74146F0
:1042A00004F1300001F094FA04F1300001F0AAFAB0
:1042B00082B2334604F13001284601F0EFFA386843
:1042C00020F0020038600121002001F0B9FC3868BC
:1042D00040F00200386091E70FF67022DFF8541AC0
:1042E00004F1300001F074FA04F1300001F08AFAB0
:1042F00082B2334604F13001284601F0CFFA0020A3
:1043000000F0C6FF4FF47A7001F08CFC002000F042
:10431000CAFF4FF47A7001F085FCF0E72DE9F04F09
:1043200081B000202DED048B8AB0DFF8044A0FF62F
:104330007C218DF800000DF1180B04F1300001F024
:1043400047FA04F1300001F05DFA82B241F288339D
:1043500004F13001DFF8E00901F0A0FA4FF47A70BF
:1043600001F060FC002000F093FF04F10C060A2726
:1043700016F8011B60685A4601F02FF9012800F079
:10438000C2807F1E0BF1010BF2D104F1180B04F176
:104390000C060A271BF8012B16F8011B606801F0B8
:1043A0002CF9012800F0AF807F1EF3D1642001F0CA
:1043B00039FC60680DF1010101F02CF9012800F0D1
:1043C000A2809DF801000028F3D0606801A901F0E7
:1043D000F1F8012800F097804FF0000B00264FF015
:1043E000050860680DF1010101F014F9012800F0E1
:1043F0008A809DF801000028F3D0606801A901F0CF
:10440000D9F8012800F07F8001988344029886192A
:104410000398C719B8F10108E3D1DFF824098BFB31
:104420000010401000EBD07BDFF8140986FB001071
:104430004610DFF80C0987FB001001214710606867
:1044400001F0F8F8012806EBD67607EBD7775AD0BB
:10445000642001F0E7FB60680DF1010101F0DAF87A
:10446000012850D09DF801000028F4D0606801A90F
:1044700001F0A0F8012846D04FF00009CA460525F2
:1044800060680DF1010101F0C5F801283BD09DF8ED
:1044900001000028F4D0606801A901F08BF8012820
:1044A00031D0019880440298814403986D1E824463
:1044B000E6D1DFF88C0888FB0010401000EBD078C4
:1044C000DFF87C0889FB0010401000EBD079DFF8A2
:1044D00070088AFB0010401000EBD07A06A8059007
:1044E0000A2504F10C0004900598401C059010F872
:1044F000012D0498401C049010F8011D606801F023
:104500007CF8012806D10AB00120BDEC048B01B073
:10451000BDE8F08F6D1EE7D1A8EB0B0000EE100A8E
:10452000B8EEC08A9FEDB50AF0EEC80AF4EE400A74
:10453000F1EE10FA08D4F0EEC80A9FEDB11AF4EECD
:10454000410AF1EE10FA02DB01208DF80000A9EB20
:10455000060000EE900AF8EEE08AF0EEE80AF4EECB
:10456000400AF1EE10FA08D4F0EEE80A9FEDA41A22
:10457000F4EE410AF1EE10FA02DB01208DF80000A2
:10458000AAEB070000EE900AB8EEE09AF0EEC90A36
:10459000F4EE400AF1EE10FA0BD4B0EEC90ADFEDEA
:1045A000980AB4EE600AF1EE10FAB8BF9DF8005018
:1045B00000DB01250FF6400104F1300001F008F99D
:1045C00004F1300001F01EF982B241F2883304F1A7
:1045D0003001DFF8640701F061F90FF63C0104F1E6
:1045E000300001F0F5F804F1300001F00BF982B26F
:1045F00041F2883304F13001DFF83C0701F04EF955
:104600000FF6440104F1300001F0E2F804F130004B
:1046100001F0F8F882B241F2883304F13001DFF89A
:10462000180701F03BF943465A460FF64C0104F1D6
:10463000300001F0CDF804F1300001F0E3F882B26F
:1046400041F2883304F13001DFF8EC0601F026F97D
:104650004B4632460FF6440104F1300001F0B8F841
:1046600004F1300001F0CEF882B241F2883304F157
:104670003001DFF8C40601F011F953463A460FF64F
:1046800040010FF6B00704F1300001F0A1F804F189
:10469000300001F0B7F882B241F2883304F1300102
:1046A000DFF8940601F0FAF80FF6380104F1300053
:1046B00001F08EF804F1300001F0A4F882B241F26A
:1046C000883304F13001DFF8700601F0E7F80FF6E7
:1046D000340104F1300001F07BF804F1300001F006
:1046E00091F882B241F2883304F13001DFF84806D4
:1046F00001F0D4F80FF2507104F1300001F068F8C5
:1047000004F1300001F07EF882B241F2883304F106
:104710003001DFF8240601F0C1F8B0EEC80A40F21B
:10472000A466BDEEC00A009610EE103A5A22394631
:1047300004F1300001F04CF804F1300001F062F8AF
:1047400082B241F2883304F13001DFF8EC0501F068
:10475000A5F8B0EEE80ABDEEC00A009610EE103AD9
:104760005A22394604F1300001F032F804F13000E9
:1047700001F048F882B241F2883304F13001DFF8E9
:10478000B80501F08BF8B0EEC90ABDEEC00A00967C
:1047900010EE103A5A22394604F1300001F018F8B0
:1047A00004F1300001F02EF882B241F2883304F1B6
:1047B0003001DFF8840501F071F8002D0CBF0FF215
:1047C00090710FF2B87104F1300001F001F804F1BA
:1047D000300001F017F882B241F2883304F1300161
:1047E000DFF8540501F05AF8002000F05CFD0AB033
:1047F0000020BDEC048B01B0BDE8F08F0000B44296
:104800000180D4442DE9F04F81B000202DED048BC0
:104810008AB0DFF81C450FF290718DF8000006ADEC
:1048200004F1300000F0D4FF04F1300000F0EAFFA2
:1048300082B241F2883304F13001DFF8FC0401F068
:104840002DF84FF47A7001F0EDF9002000F020FD12
:1048500004F10C0B5FF00A071BF8011BA0682A4645
:1048600000F07BFF012800F0C1806D1C7F1EF3D19A
:1048700004F1240504F10C0B5FF00A0715F8012B75
:104880001BF8011BA06800F078FF012800F0AE8043
:104890007F1EF3D1962001F0C5F9A0680DF101014A
:1048A00000F078FF012800F0A1809DF801000028A9
:1048B000F3D0A06801A900F03DFF012800F0968028
:1048C0000025AB464FF00508A0680DF1010100F08E
:1048D00061FF012800F08A809DF801000028F3D0D4
:1048E000A06801A900F026FF012800F07F80019850
:1048F0004519029883440398C719B8F10108E3D118
:10490000DFF83C0485FB00104510DFF834048BFB16
:104910000010401000EBD07BDFF8240487FB001070
:1049200004214710A06800F045FF012805EBD5756C
:1049300007EBD7775AD0322001F074F9A0680DF157
:10494000010100F027FF012850D09DF80100002848
:10495000F4D0A06801A900F0EDFE012846D04FF088
:104960000009CA460526A0680DF1010100F012FFFA
:1049700001283BD09DF801000028F4D0A06801A9CF
:1049800000F0D8FE012831D001988044029881447B
:104990000398761E8244E6D1DFF8A40388FB00105A
:1049A000401000EBD078DFF8980389FB001040102E
:1049B00000EBD079DFF888038AFB0010401000EB91
:1049C000D07A06A805900A2604F10C0004900598F8
:1049D000401C059010F8012D0498401C049010F81C
:1049E000011DA06800F0C9FE012806D10AB001200F
:1049F000BDEC048B01B0BDE8F08F761EE7D1A8EBCB
:104A0000050000EE100AB8EEC08A9FEDC70AF0EE6E
:104A1000C80AF4EE400AF1EE10FA08D4F0EEC80A23
:104A20009FEDC21AF4EE410AF1EE10FA02DB01200A
:104A30008DF80000A9EB0B0000EE900AF8EEE08A7A
:104A4000F0EEE80AF4EE400AF1EE10FA08D4F0EEC7
:104A5000E80A9FEDB61AF4EE410AF1EE10FA02DB15
:104A600001208DF80000AAEB070000EE900AB8EED6
:104A7000E09AF0EEC90AF4EE400AF1EE10FA0BD417
:104A8000B0EEC90ADFEDA90AB4EE600AF1EE10FA41
:104A9000B8BF9DF8006000DB01260FF2545104F10D
:104AA000300000F095FE04F1300000F0ABFE82B261
:104AB00041F2883304F130019F4800F0EFFE0FF21D
:104AC000583104F1300000F083FE04F1300000F0B2
:104AD00099FE82B241F2883304F13001964800F029
:104AE000DDFE0FF2643104F1300000F071FE04F1DC
:104AF000300000F087FE82B241F2883304F13001C9
:104B00008D4800F0CBFE43462A460FF20C510FF2BF
:104B1000985504F1300000F05BFE04F1300000F025
:104B200071FE82B241F2883304F13001824800F014
:104B3000B5FE4B465A460FF20451DFF808B204F1B5
:104B4000300000F045FE04F1300000F05BFE82B260
:104B500041F2883304F13001774800F09FFE53465C
:104B60003A460FF2FC41784F04F1300000F030FE7D
:104B700004F1300000F046FE82B241F2883304F1C5
:104B800030016D4800F08AFE0FF2F84104F1300068
:104B900000F01EFE04F1300000F034FE82B241F25B
:104BA000883304F13001644800F078FE0FF254318C
:104BB00004F1300000F00CFE04F1300000F022FEA1
:104BC00082B241F2883304F130015B4800F066FEA6
:104BD0000FF2742104F1300000F0FAFD04F130000E
:104BE00000F010FE82B241F2883304F130015248E5
:104BF00000F054FEB0EEC80ABDEEC00A009710EEF9
:104C0000103A5A46294604F1300000F0E1FD04F163
:104C1000300000F0F7FD82B241F2883304F1300138
:104C2000454800F03BFEB0EEE80ABDEEC00A009732
:104C300010EE103A5A46294604F1300000F0C8FD43
:104C400004F1300000F0DEFD82B241F2883304F15D
:104C50003001394800F022FEB0EEC90ABDEEC00AAC
:104C6000009710EE103A5A46294604F1300000F041
:104C7000AFFD04F1300000F0C5FD82B241F288338F
:104C800004F130012C4800F009FE002E0CBF0FF299
:104C900034410FF2584104F1300000F099FD04F165
:104CA000300000F0AFFD82B241F2883304F13001F0
:104CB000214800F0F3FD002000F0F5FA0AB00020D2
:104CC000BDEC048B01B0BDE8F08F10B5B0F5005F0E
:104CD00006D1002000F036FB08B91549087010BD58
:104CE000134C0FF230420FF2444104F1300000F057
:104CF0006FFD04F1300000F085FD82B241F288338F
:104D000004F130010C4800F0C9FD002000F0C0FAA9
:104D10004FF47A7000F086FF002000F0C4FA4FF4E0
:104D20007A7000F07FFFF0E7007C124801E62A4924
:104D3000FC0100202C510008B009002010E000E028
:104D400067666666F049020060AE0A006D61696ED2
:104D5000000000000D0A2D2D2D2D2D2D204C534D22
:104D60003644534C2073656C662D7465737420440F
:104D7000454D4F202D2D2D2D2D2D0D0A000000000D
:104D80000D0A507265737320555345522062757435
:104D9000746F6E20746F2073746172742074686510
:104DA0002044454D4F202E2E2E0D0A000D0A53741F
:104DB000617274696E67204C534D3644534C2061C8
:104DC0006363656C65726F6D657465722073656C85
:104DD000662D74657374202E2E2E0D0A4B6565703A
:104DE0002074686520646576696365207374696CF6
:104DF0006C2121210D0A00000D0A4D656173757249
:104E0000656420616363656C65726174696F6E20AF
:104E10005B6D675D3A0D0A000D0A202020202041BD
:104E200058495320202020207C205052452D5345A6
:104E30004C4654455354207C20202053454C465426
:104E40004553540D0A0000002D2D2D2D2D2D2D2DF7
:104E50002D2D2D2D2D2D7C2D2D2D2D2D2D2D2D2D33
:104E60002D2D2D2D2D7C2D2D2D2D2D2D2D2D2D2D23
:104E70002D2D2D2D0D0A000020202020202020582F
:104E80002020202020207C2025386C642020202019
:104E9000207C2025386C640D0A0000002020202092
:104EA000202020592020202020207C2025386C64C0
:104EB00020202020207C2025386C640D0A00000072
:104EC000202020202020205A2020202020207C204C
:104ED00025386C6420202020207C2025386C640D2F
:104EE0000A0000000D0A54657374206C696D6974C2
:104EF0007320616E642064617461205B6D675D3A4C
:104F00000D0A00000D0A20204C4F57204C494D49F6
:104F1000542020207C2020444946464552454E439B
:104F20004520207C202048494748204C494D495481
:104F30000D0A00002538642020202020207C202518
:104F4000386420202020207C202538640D0A0000B1
:104F50000D0A4C534D3644534C20616363656C65B8
:104F6000726F6D657465722073656C662D74657300
:104F70007420504153534544210D0A000D0A4C53EF
:104F80004D3644534C20616363656C65726F6D658B
:104F90007465722073656C662D7465737420464168
:104FA000494C4544210D0A000D0A5374617274691D
:104FB0006E67204C534D3644534C206779726F73A3
:104FC000636F70652073656C662D74657374202E35
:104FD0002E2E0D0A4B656570207468652064657619
:104FE000696365207374696C6C2121210D0A0000CE
:104FF0000D0A4D6561737572656420616E67756C2D
:1050000061722076656C6F63697479205B6D647082
:10501000735D3A0D0A000000202020202020205837
:105020002020202020207C202025386C6420202077
:10503000207C202025386C640D0A000020202020D0
:10504000202020592020202020207C202025386C62
:1050500064202020207C202025386C640D0A00006C
:10506000202020202020205A2020202020207C20AA
:105070002025386C64202020207C202025386C647A
:105080000D0A00000D0A54657374206C696D697413
:105090007320616E642064617461205B6D64707361
:1050A0005D3A0D0A000000002020253864202020F1
:1050B000207C2020253864202020207C20202538BA
:1050C000640D0A000D0A4C534D3644534C20677949
:1050D000726F73636F70652073656C662D74657392
:1050E0007420504153534544210D0A000D0A4C537E
:1050F0004D3644534C206779726F73636F7065202F
:1051000073656C662D74657374204641494C454443
:10511000210D0A0048414C5F4750494F5F455854A4
:10512000495F43616C6C6261636B00000D0A4572FC
:10513000726F7220696E20272573272066756E6353
:1051400074696F6E2E0D0A0010B50446FEF752FF0B
:10515000064AA0FB0221480AFEF78DFE00222146E6
:105160004FF0FF30FEF755FE002010BD986E128301
:1051700000B50C4881B0016841F40071016001681C
:1051800041F480610160016841F480710160032095
:10519000FEF732FE0F20FFF7D7FF00F005F80020E2
:1051A00001B000BD003C02407047000000B593B064
:1051B000002000901F48016841F0805101600068A4
:1051C00000F0805000900098002000901A4801687C
:1051D00021F4404141F400410160006800F4404086
:1051E00000900098022006900120099010200A905B
:1051F00002200C9000200D9010200E904FF4A8700B
:105200000F90042010900720119006A800F026FDB2
:105210000F200190022102200290002003904FF401
:10522000805004900020059001A8FEF741FE13B0C5
:1052300000BD00BF403802400070004070B586B02D
:10524000044600200090DFF81061DFF810010168CB
:1052500041F00101016001A9006800F00100009027
:1052600000980FF2041030F81450019501200290BC
:10527000002003900220049056F82400FEF7D0FC92
:1052800056F8240000222946FEF796FD06B070BDB0
:105290000FF2D401DFF8C03031F8101053F82000BD
:1052A0000122FEF789BD0FF2C001DFF8AC3031F802
:1052B000101053F820000022FEF77EBD30B587B0F5
:1052C0000446002000900D46DFF89000016841F090
:1052D00004010160006800F00400009028000098BC
:1052E00010D10FF2880030F81400019001A90020BD
:1052F0000290022003900490DFF8640050F824002C
:10530000FEF78EFC012D1BD10FF2600030F8140067
:10531000019001A900200390DFF848000290DFF817
:10532000400050F82400FEF77BFC0FF24400045DBF
:1053300000220F2160B2FEF76CFD60B2FEF792FD15
:1053400007B030BD0FF22401DFF8142031F810103F
:1053500052F82000FEF729BD2C030020303802400F
:105360003003002000002110200000000020000079
:105370002800000010B586B000200090294C2A4873
:10538000016841F001010160016801F00101009133
:10539000009900210091016841F00101016001685C
:1053A00001F001010091009900210091016941F48F
:1053B0000031016101A9006900F4003000900098FB
:1053C000042001900220029000200390022004900B
:1053D000072005902046FEF723FC0820019001A934
:1053E000072005902046FEF71BFC104C104820605B
:1053F0004FF4E13060600020A060E0602061A061B7
:105400000C206061204600F019FA00B1FEE704F1BB
:105410004000A0624FF48070A0850020E06306B0D9
:1054200010BD00000000024030380240B0090020EA
:105430000044004010B50C460021216068B10128ED
:10544000204611D000F016F8012804D1204600F0C3
:1054500053F801280CD0002010BD204600F00AF8B7
:105460000128F8D1012010BD00F046F80128F2D142
:10547000012010BD30B5424D0446E878012881B0C6
:1054800038D0FDF7FFFD012834D06A202870D620DF
:1054900068700020688028710120687105F128007B
:1054A000A8603848E860384828613848A86305F1A2
:1054B0003800A8620020E8622560E86801680800FA
:1054C00008D100200021002207C503C5206001B0DB
:1054D000012030BD28468847012808D120681421C2
:1054E00000F0F8FC0020206001B0012030BDFDF785
:1054F00026FE002001B030BD30B5214D0446E87DC8
:10550000012881B039D0FDF7BDFD012835D0332009
:105510002875322068750120A8750020E875287666
:105520000120687605F13000E86119482862002002
:10553000686205F1400028630020686305F11400EB
:105540002060286A0168080005F1140008D10021D4
:10555000002200230EC006C02160012001B030BD32
:105560008847012808D12068142100F0B3FC0020EE
:10557000206001B0012030BD002001B030BD00002E
:10558000340B00205C01002050000020AC0B0020F8
:105590000000002000B581B018B1C16889680A0018
:1055A00002D1012001B000BD8847012818BF0020AA
:1055B00001B000BD00B581B000281CBFC268002941
:1055C00002D09269130002D1012001B000BD9047C2
:1055D000012818BF002001B000BD10B500281CBF75
:1055E000C368002A02D05B6C1C0001D1012010BDF1
:1055F0009847012818BF002010BD10B518B1C36826
:105600009B6C1C0001D1012010BD9847012818BFD8
:10561000002010BD00B581B018B1C268D26C130073
:1056200002D1012001B000BD9047012818BF002021
:1056300001B000BD00281CBF0269002A07D0037812
:105640006A2B04D1D2F8CC20130018BF10470120D8
:105650007047000000B581B0002200280A600846AB
:1056600006D000F00CF8012806D0002001B000BDE3
:1056700000F005F80128F8D1012001B000BD30B5D7
:10568000204D0446E878012881B038D0FDF7FAFCB7
:10569000012834D06A202870D620687000206880E5
:1056A00028710120687105F11400A8601648E860AF
:1056B000164828611648E86105F11C006861002061
:1056C000A8612560E8680168080008D10020002171
:1056D000002207C503C5206001B0012030BD284667
:1056E0008847012808D12068142100F0F3FB00202E
:1056F000206001B0012030BDFDF721FD002001B088
:1057000030BD0000780B0020AC01002020010020FB
:10571000AC0B002000B581B018B1C16889680A00DF
:1057200002D1012001B000BD8847012818BF002028
:1057300001B000BD00B581B000281CBFC2680029BF
:1057400002D09269130002D1012001B000BD904740
:10575000012818BF002001B000BD10B500281CBFF3
:10576000C368002A02D05B6C1C0001D1012010BD6F
:105770009847012818BF002010BD10B518B1C368A4
:105780009B6C1C0001D1012010BD9847012818BF57
:10579000002010BD00B581B018B1C268D26C1300F2
:1057A00002D1012001B000BD9047012818BF0020A0
:1057B00001B000BD00281CBF0269002A06D0037892
:1057C0006A2B03D1926B130018BF1047012070475A
:1057D0000CB41CB5044604A801900A46009401AB21
:1057E000694607487844183000F078FB009A002199
:1057F000117000285CBF0098001B16BC5DF80CFB04
:105800007BC8FFFF00F10103810704D010F8011BE2
:1058100089B18107FAD10268B2F10131914311F0E7
:10582000803F04BF50F8042FF6E710F8011B11B1B8
:1058300010F8011BFBE7C01A7047000010B5040008
:1058400001D1012010BD94F8390020B984F8380046
:10585000204600F0E5F9242084F839002068C1686A
:1058600021F40051C160204600F0AAF820680169C7
:1058700021F4904101612068416921F02A014161D0
:105880002068C16841F40051C1600020E06320201D
:1058900084F8390084F83A00002010BDF0B50446C1
:1058A00081B094F8390020280E461D4640F08580CE
:1058B0000EB1100002D1012001B0F0BD94F8380003
:1058C00001287AD0012084F838000020E0632120EC
:1058D00084F83900A284E28403E000BF16F8011BBB
:1058E0004160E08C010031D0401EE084A068B0F53A
:1058F000805F1AD1FEF7F0FB0746206801680906B1
:1059000009D415F1010FF8D085B3FEF7E5FBC01BF4
:105910008542F2D22AE03188C1F308014160206952
:10592000002814BF761CB61CDBE7FEF7D5FB074644
:10593000206801680906D1D415F1010FF8D0ADB186
:10594000FEF7CAFBC01B8542F2D20FE0FEF7C4FB94
:10595000064620680068400627D415F1010FF8D0EC
:1059600025B1FEF7B9FB801B8542F2D22068C168E1
:1059700021F08001C1602068C16821F02001C16070
:105980002068C16821F48071C160206841694908BC
:1059900049004161202084F8390084F83A00002051
:1059A00084F8380001B00320F0BD202084F83900CD
:1059B000002084F8380001B0F0BD022001B0F0BD35
:1059C0002DE9F041044620680169E26821F4405164
:1059D000114301618E4AC1681140A26811432269D6
:1059E000114362691143E2691143C1604169A269CF
:1059F00021F4407111434161E2698649B2F5004FDB
:105A000040F0A38088421CBF834988424ED1FEF7F4
:105A100016FB0546FEF713FB0646FEF710FB07468E
:105A2000FEF70DFB8046FEF70AFB19225543DFF80F
:105A3000ECE1616857434B00B5FBF3F5A5FB0EECB9
:105A40004FEA9C15B7FBF3F7DFF8D0E15643A7FB0D
:105A50000EEC6421B6FBF3F64FEA9C1701FB1766C8
:105A6000F6003236DFF8B4C1A6FB0CC7BE097600DB
:105A700006F4F87606EB051502FB08F65043B6FB74
:105A8000F3F6B0FBF3F0654BA0FB0332900901FB8A
:105A90001060C0003230614AA0FB022188092168F1
:105AA00000F0070040198860BDE8F081FEF7B3FA06
:105AB0000546FEF7B0FA0646FEF7ADFA0746FEF7D2
:105AC000AAFA8046FEF7A7FA19225543DFF84CE1FF
:105AD000616857434B00B5FBF3F5A5FB0EEC4FEAAD
