:020000040800F2
:10000000F0050020C56100089D6100089F6100089F
:10001000E1610008E5610008E961000800000000F6
:10002000000000000000000000000000ED6100087A
:10003000A161000800000000F1610008A361000850
:10004000F5610008F9610008FD610008016200081F
:1000500005620008096200080D62000811620008CC
:100060001562000819620008A76100081D620008F7
:100070002162000825620008296200082D6200083C
:100080003162000835620008396200080000000093
:100090000000000000000000000000003D620008B9
:1000A0004162000845620008496200084D6200088C
:1000B0005162000855620008596200085D6200083C
:1000C0006162000865620008696200086D620008EC
:1000D0007162000875620008796200080000000083
:1000E000AD6100087D620008816200080000000028
:1000F0000000000000000000000000008562000811
:1001000000000000896200088D620008916200080A
:1001100000000000000000000000000000000000DF
:1001200095620008996200089D620008A1620008BB
:10013000A5620008000000000000000000000000B0
:10014000000000000000000000000000A96200089C
:10015000AD620008B1620008B5620008B96200082B
:10016000BD620008C162000800000000000000003D
:10017000000000000000000000000000000000007F
:1001800000000000C5620008000000000000000040
:10019000C962000810B582B0044600208DF8000046
:1001A0006946204601F0A0FA002831D09DF80000F1
:1001B000217888422CD10421204601F00CFC38B370
:1001C0004021204601F09CFA10B30021204601F0A6
:1001D00086FBE8B1A068DFF8B41800680160002170
:1001E000204601F0FFFA98B10021204601F0A7FA5D
:1001F00070B10821204601F04BFC48B11021204687
:1002000001F075FC20B12021204601F09FFC10B9BF
:10021000012002B010BD0120E07002B0002010BD2E
:1002200030B5044681B0A068056800208DF8000054
:100230006946204601F058FA002800F094809DF8A5
:1002400000002178884240F08E800021204602F094
:10025000DAF8002800F087800021204602F03FF8FD
:10026000002800F080800021204602F019F80028C4
:1002700079D00021204602F088F8002873D00021B0
:10028000204601F0FAFE00286DD00021204601F042
:1002900083FB002867D00021204601F0B1FE002832
:1002A00061D00021204601F09FFC00285BD0002196
:1002B000204602F033F9002855D00021204602F0F4
:1002C000E0F800284FD00021204601F0B8FE0028B9
:1002D00049D00021204601F0EFFE002843D0002144
:1002E000204601F007FF00283DD00021204601F004
:1002F0000BFE002837D00021204601F024FE002804
:1003000031D00021204601F03DFE60B3002120469F
:1003100002F05AF838B30021204601F090FE10B3E5
:100320000021204601F0C8FEE8B10021204601F07E
:10033000E1FEC0B10021204601F0FAFE98B1002193
:10034000204601F033FF70B10021204601F0DCFDB2
:1003500048B10021204601F0F6FD20B100212046E1
:1003600001F010FE10B9012001B030BD002120467F
:1003700001F0ECFF0028F6D00021204601F021FE1C
:100380000028F0D00021204601F02EFC0028EAD001
:100390000021204602F056F80028E4D00021204633
:1003A00001F060FF0028DED00021204601F0E0FED1
:1003B0000028D8D0207970B1A0680168204600F0EC
:1003C000ADF90128CFD00021204601F00BFA00281A
:1003D000C9D00020207100202860E07001B030BD3D
:1003E00010B50446207901285CD0A068006890ED23
:1003F000000ADFED9B0AB4EE600AF1EE10FA48BF86
:10040000102147D4DFED970AB4EE600AF1EE10FA3E
:1004100048BF20213ED4DFED940AB4EE600AF1EE2D
:1004200010FA48BF302135D4DFED900AB4EE600AEF
:10043000F1EE10FA48BF40212CD4DFED8D0AB4EE66
:10044000600AF1EE10FA48BF502123D4DFEDAF0A65
:10045000B4EE600AF1EE10FA48BF60211AD4DFED65
:10046000AC0AB4EE600AF1EE10FA48BF702111D464
:10047000DFEDA80AB4EE600AF1EE10FA48BF802161
:1004800008D4DFEDA50AB4EE600AF1EE10FA4CBF15
:100490009021A021204601F0A5F908B9012010BD46
:1004A00001202071002010BD30B5044681B02079B4
:1004B00000284DD0A06805686946204601F0B1F9D2
:1004C000002840D09DF80000002830D010282CD003
:1004D000202827D0302822D040281DD0502818D0DE
:1004E000602813D070280ED0802809D0902804D01E
:1004F000A02825D1DFF8AC0619E0DFF8A40616E045
:10050000DFF8980613E0DFF8900610E0DFF88406C5
:100510000DE0DFF87C060AE0DFF8700507E0DFF8A1
:10052000680504E0DFF88C0601E0DFF88C0628603F
:100530000021204601F056F940B9012001B030BD3C
:10054000DFF878062860012001B030BD002020715E
:1005500001B030BD00B581B001F0C6F8401E804149
:10056000C00F01B000BD10B582B0044600208DF868
:1005700000006946204601F0B7F820B19DF8000060
:100580002178884202D0012002B010BD002002B0C4
:1005900010BD00002DE9F04184B00C460021CDE9EA
:1005A00000118046694601F0F9F8002854D09DF802
:1005B00001109DF800209DF8040002EB01269DF833
:1005C00003109DF8022002EB01279DF8051000EBB7
:1005D000012502A9404601F0D1F800283CD09DF841
:1005E00008000C2838D8DFE800F010373737073715
:1005F00037370D3737370A009FED840A07E09FED44
:10060000840A04E09FED830A01E09FED830A36B27D
:1006100000EE906AF8EEE00A60EE800AFDEEE00A75
:10062000C4ED000A3FB200EE907AF8EEE00A60EE08
:10063000800AFDEEE00AC4ED010A2DB200EE905AE8
:10064000F8EEE00A20EE800ABDEEC00A84ED020A50
:10065000002004B0BDE8F081012004B0BDE8F081C5
:10066000010050410100D041010050420100D04240
:100670000100504310B582B00C4669460022C1E922
:10068000002201F08BF810B9012002B010BD9DF8D6
:1006900001109DF8002002EB012121809DF802202D
:1006A0009DF8031002EB012161809DF804009DF884
:1006B000051000EB0120A08002B0002010BD00005A
:1006C00010B582B00C46694601F058F8D0B19DF8DB
:1006D00000000C2813D8DFE800F0071212121012E5
:1006E00012120C1212120E004B48206002B00020B1
:1006F00010BD4848F9E74648F7E74448F5E7DFF812
:10070000C0042060012002B010BD00000100D043F1
:10071000014050440180CF440120504510B582B0C3
:100720000C46694601F07DF810B9012002B010BDF9
:100730009DF80000C8B110281BD020281CD03028FC
:100740001DD040281DD050281DD060281ED07028F4
:100750001FD0802820D0902821D0A02822D0DFF8D8
:100760005C04206002B0012010BD206002B00020B7
:1007700010BDDFF84404F8E7DFF83804F5E7C248B5
:10078000F3E7C248F1E7DFF80804EEE7DFF8040416
:10079000EBE7DFF80404E8E7DFF80004E5E7DFF85B
:1007A0000004E2E7DFF8FC03DFE7000000B581B0FA
:1007B0000279012A13D104290ED8DFE801F00909D2
:1007C00007050300402104E0302102E0202100E081
:1007D000102101F007F8B0B9012001B000BD806818
:1007E00000680429F8D8DFE801F00B0B08060400C4
:1007F000F2E7A64906E0A44904E0DFF8B81301E0F7
:10080000DFF8B4130160002001B000BD23DBF93E26
:1008100023DB793E23DBF93D23DB793D00B581B055
:1008200001790129DFED8F0A55D1B4EE600AF1EEAE
:1008300010FA48BF102147D4DFED8B0AB4EE600AEE
:10084000F1EE10FA48BF20213ED4DFED880AB4EE65
:10085000600AF1EE10FA48BF302135D4DFED840A8A
:10086000B4EE600AF1EE10FA48BF40212CD4DFED5F
:10087000810AB4EE600AF1EE10FA48BF502123D489
:10088000DFED7D0AB4EE600AF1EE10FA48BF602198
:100890001AD4DFED7A0AB4EE600AF1EE10FA48BF1E
:1008A000702111D4DFED760AB4EE600AF1EE10FA91
:1008B00048BF802108D4DFED730AB4EE600AF1EE80
:1008C00010FA4CBF9021A02100F08CFF00285FD1CE
:1008D000012001B000BD80680068B4EE600AF1EE4E
:1008E00010FA48BFB2EE0A0A50D4DFED5F0AB4EE48
:1008F000600AF1EE10FA48BFB3EE0A0A46D4DFED03
:100900005B0AB4EE600AF1EE10FA48BF9FED5E0A92
:100910003CD4DFED570AB4EE600AF1EE10FA48BF9E
:100920009FED5A0A32D4DFED530AB4EE600AF1EEBD
:1009300010FA48BF9FED960A28D4DFED4F0AB4EEB7
:10094000600AF1EE10FA48BF9FED920A1ED4DFED67
:100950004B0AB4EE600AF1EE10FA48BF9FED8E0A22
:1009600014D4DFED470AB4EE600AF1EE10FA48BF86
:100970009FED8A0A0AD4DFED430AB4EE600AF1EE75
:1009800010FA4CBF9FED860A9FED860A80ED000AA3
:10099000002001B000BD000010B582B00C466946D1
:1009A00000F0ECFEF0B19DF800000C2817D8DFE84D
:1009B00000F007161616131616160D16161610004A
:1009C0004FF08040206002B0002010BD4FF0814009
:1009D000F8E74FF08240F5E74FF08340F2E7DFF8A9
:1009E000E0012060012002B010BD000000B5042924
:1009F00081B010D8DFE801F0030F0B0F0D000021CC
:100A000000F09DFE401E8041C00F01B000BD0821D6
:100A1000F6E70C21F4E7012001B000BDDFED620A2A
:100A200000B5B4EE600AF1EE10FA81B048BF0021C3
:100A300011D4DFED5E0AB4EE600AF1EE10FA48BFA1
:100A4000082108D4DFED5A0AB4EE600AF1EE10FA7C
:100A50004CBF0C21042100F072FE401E8041C00FEB
:100A600001B000BD010050410100D04101005042E1
:100A70000100D042010050430100D04301405044E6
:100A80000180CF4401205045000050420000D04278
:100A900030B581B00D4604460DF1020101F017F8A2
:100AA00050B10DF10101204601F040F820B1694636
:100AB000204601F06AF810B9012001B030BD9DF860
:100AC000020008280CBF0120002028709DF80100BA
:100AD00010280CBF0120002068709DF8000020281D
:100AE0000CBF01200020A87001B0002030BD30B53F
:100AF0000D4681B00446287801280CBF082100214A
:100B0000204600F0C5FF40B1687801280CBF1021D5
:100B10000021204600F0EBFF10B9012001B030BDEC
:100B2000A87801280CBF20210021204601F00EF8F2
:100B3000401E8041C00F01B030BD00B581B001231F
:100B400000F0C9FD401E8041C00F01B000BD00B5DE
:100B500081B001238DF800206A4600F0B3FD401EED
:100B60008041C00F01B000BD10B582B00C4669468F
:100B700001F009F948B19DF80000002818BF0128CC
:100B800003D1207002B0002010BD012002B010BDC2
:100B9000000050430000D043004050440080CF4448
:100BA000002050450020D045010000400100804059
:100BB000010000410000D04100005041000080BF12
:100BC000000080BFDFED490A00B5B4EE600AF1EE27
:100BD00010FA81B048BF102147D4DFED450AB4EECA
:100BE000600AF1EE10FA48BF20213ED4DFED410A41
:100BF000B4EE600AF1EE10FA48BF302135D4DFEDD3
:100C00003E0AB4EE600AF1EE10FA48BF40212CD43F
:100C1000DFED3A0AB4EE600AF1EE10FA48BF502157
:100C200023D4DFED370AB4EE600AF1EE10FA48BFC4
:100C300060211AD4DFED330AB4EE600AF1EE10FA47
:100C400048BF702111D4DFED300AB4EE600AF1EE36
:100C500010FA48BF802108D4DFEDC50AB4EE600A5F
:100C6000F1EE10FA4CBF9021A02100F0BBFD401E18
:100C70008041C00F01B000BD10B504469FEDBD0A14
:100C80002079012805D12046FFF79CFF012804D1D7
:100C900010BDA068006880ED000A0021204600F029
:100CA0004EFDC0B10621204601F019FB98B100218C
:100CB000204601F0D7FA70B10021204601F0B3FAC6
:100CC00048B10021204601F090FA20B103212046CE
:100CD00001F0E6FA08B9012010BD1021204601F00C
:100CE00092FB401E8041C00F10BD0000010050412A
:100CF0000100D041010050420100D04201005043A8
:100D00000100D043014050440180CF4410B5044657
:100D1000002101F078FB20B10021204601F0DFFA2C
:100D200008B9012010BD0021204601F0B9FA401E8B
:100D30008041C00F10BD10B582B00C46694600F06E
:100D400082FF48B19DF8000010B1202804D1012095
:100D5000207002B0002010BD012002B010BD00B50F
:100D600081B001F09DFA401E8041C00F01B000BD6E
:100D700010B50446B3EE0A0A2079012805D12046B1
:100D8000FFF720FF012804D110BDA068006880EDA6
:100D9000000A0021204600F0D2FC70B11721204645
:100DA00001F0BCFB48B10421204600F01DFF20B13A
:100DB0004021204601F024F908B9012010BD80210E
:100DC000204600F0E9FD401E8041C00F10BD10B567
:100DD0000446002100F0E0FD48B10021204601F06A
:100DE0000FF920B10021204600F0FEFE08B90120D5
:100DF00010BD0021204601F091FB401E8041C00F34
:100E000010BD10B582B00C46694601F03EF848B1FD
:100E10009DF8000010B1102804D10120207002B00C
:100E2000002010BD012002B010BD00B581B001F05E
:100E30005EFB401E8041C00F01B000BD00B581B017
:100E4000022100F0B2FE401E8041C00F01B000BD83
:100E500000B581B0002100F0A8FE401E8041C00F07
:100E600001B000BD00B581B001F058FB401E8041CB
:100E7000C00F01B000BD10B50446B3EE0A0A2079D8
:100E8000012805D12046FFF79DFE012804D110BDA1
:100E9000A068006880ED000A0021204600F04FFCA9
:100EA00048B10421204600F09FFE20B120212046B9
:100EB00001F087F808B9012010BD0221204601F099
:100EC00045FA401E8041C00F10BD10B504460021F8
:100ED00001F03CFA20B10021204601F072F808B977
:100EE000012010BD0021204600F07EFE401E804102
:100EF000C00F10BD10B582B00C46694600F0D5FF9A
:100F000048B19DF8000010B1202804D101202070C4
:100F100002B0002010BD012002B010BD10B5044683
:100F20009FED140A2079012805D12046FFF74AFEDB
:100F3000012804D110BDA068006880ED000A0021DE
:100F4000204600F0FCFB48B10021204601F08AF960
:100F500020B10221204601F00BF908B9012010BD93
:100F60002021204601F06EFA401E8041C00F10BDC6
:100F7000012050450000D04310B50446002101F087
:100F800061FA20B10021204601F06CF908B9012076
:100F900010BD0021204601F0EBF8401E8041C00F3B
:100FA00010BD10B582B00C46694600F03CFE48B159
:100FB0009DF8000010B1082804D10120207002B073
:100FC000002010BD012002B010BD00B581B001F0BD
:100FD000CFF8401E8041C00F01B000BD10B50446DF
:100FE0009FEDA90A2079012805D12046FFF7EAFDE7
:100FF000012804D110BDA068006880ED000A00211E
:10100000204600F09CFBE8B10821204600F0BAFF22
:10101000C0B10421204600F096FF98B1022120467D
:1010200000F072FF70B10821204601F008F848B1C5
:101030000221204601F040F820B10121204601F0B4
:1010400059F808B9012010BD4021204601F019FAD5
:10105000401E8041C00F10BD10B50446002101F0B4
:1010600010FAC0B10021204600F0E9FF98B100213C
:10107000204601F021F870B10021204601F03AF835
:1010800048B10021204600F03FFF20B1002120465A
:1010900000F059FF08B9012010BD0021204600F0E2
:1010A00071FF401E8041C00F10BD10B582B00C46CC
:1010B000694600F0E8FD48B19DF8000010B1202815
:1010C00004D10120207002B0002010BD012002B028
:1010D00010BD000010B504469FED6B0A2079012871
:1010E00005D12046FFF76EFD012804D110BDA06890
:1010F000006880ED000A0021204600F020FB38B394
:101100000821204600F03EFF10B30421204600F0E5
:101110001AFFE8B10221204600F0F6FEC0B1082116
:10112000204600F08CFF98B10321204600F0C4FF58
:1011300070B10321204600F0DDFF48B108212046B0
:1011400000F0F6FF20B18021204601F02FF808B909
:10115000012010BD0821204601F036F9401E8041D3
:10116000C00F10BD10B50446002101F02DF910B3D9
:101170000021204600F063FFE8B10021204600F086
:101180009BFFC0B10021204600F0B4FF98B10021C0
:10119000204600F0CDFF70B10021204601F006F896
:1011A00048B10021204600F0AFFE20B100212046CA
:1011B00000F0C9FE08B9012010BD0021204600F052
:1011C000E1FE401E8041C00F10BD10B582B00C463C
:1011D000694600F048FD48B19DF8000010B11028A4
:1011E00004D10120207002B0002010BD012002B007
:1011F00010BD00B581B000F022FF401E8041C00F3D
:1012000001B000BD00B581B000F056FF401E804126
:10121000C00F01B000BD00B581B000F06BFF401EF3
:101220008041C00F01B000BD00B581B000F080FF6B
:10123000401E8041C00F01B000BD000010B5044643
:101240009FED110A2079012805D12046FFF7BAFC4D
:10125000012804D110BDA068006880ED000A0021BB
:10126000204600F06CFA20B14021204600F005FF36
:1012700008B9012010BD0421204601F086F8401E67
:101280008041C00F10BD00000000D04310B50446DF
:10129000002101F07AF808B9012010BD0021204694
:1012A00000F0EBFE401E8041C00F10BD10B582B0B3
:1012B0000C46694600F057FD48B19DF8000010B19A
:1012C000402804D10120207002B0002010BD012070
:1012D00002B010BD10B582B00C46694600F0E3FCC8
:1012E00048B19DF80000002818BF012803D12070E4
:1012F00002B0002010BD012002B010BD10B582B0B8
:101300000C46694600F0DFFC48B19DF8000010B1C2
:10131000022804D10120207002B0002010BD01205D
:1013200002B010BD10B582B00C46694600F0DBFC7F
:1013300048B19DF8000010B1042804D101202070AC
:1013400002B0002010BD012002B010BD10B582B067
:101350000C46694600F0D7FC48B19DF8000010B17A
:10136000082804D10120207002B0002010BD012007
:1013700002B010BD10B582B00C46694600F0D3FC37
:1013800048B19DF8000010B1102804D10120207050
:1013900002B0002010BD012002B010BD10B582B017
:1013A0000C46694600F0CFFC48B19DF8000010B132
:1013B000202804D10120207002B0002010BD01209F
:1013C00002B010BDDFED840A00B5B4EE600AF1EEA4
:1013D00010FA81B048BF082147D4DFED800AB4EE8F
:1013E000600AF1EE10FA48BF10213ED4DFED7C0A0E
:1013F000B4EE600AF1EE10FA48BF182135D4DFEDE3
:10140000790AB4EE600AF1EE10FA48BF20212CD41C
:10141000DFED750AB4EE600AF1EE10FA48BF28213C
:1014200023D4DFED720AB4EE600AF1EE10FA48BF81
:1014300030211AD4DFED6E0AB4EE600AF1EE10FA34
:1014400048BF382111D4DFED6B0AB4EE600AF1EE2B
:1014500010FA48BF402108D4DFED670AB4EE600AF5
:10146000F1EE10FA4CBF4821502100F057FA401E0F
:101470008041C00F01B000BD10B582B00C46694676
:1014800000F0C2FC68B19DF8000020B1202806D011
:10149000012002B010BD207002B0002010BD01205C
:1014A000F9E7012002B010BD10B582B00C466946C4
:1014B00000F09AFC68B19DF8000020B1102806D019
:1014C000012002B010BD207002B0002010BD01202C
:1014D000F9E7012002B010BD10B582B00C46694694
:1014E00000F0A2FC68B19DF8000020B1402806D0B1
:1014F000012002B010BD207002B0002010BD0120FC
:10150000F9E7012002B010BD00B581B000F09CFCED
:10151000401E8041C00F01B000BD00B581B000F099
:10152000CFFF401E8041C00F01B000BD00B581B0AB
:1015300000F039FC401E8041C00F01B000BD00B575
:10154000072981B006D800F0ABF9401E8041C00FDA
:1015500001B000BD012001B000BD000070B582B037
:101560000D460446694600F0ABFF002831D09DF8D7
:1015700001009DF8001041EA00260DF1020120460D
:1015800000F0FCF828B39DF802000C2821D8DFE811
:1015900000F010202020072020200D2020200A000D
:1015A0009FED160A07E09FED160A04E09FED150A6D
:1015B00001E09FED150A36B200EE906AF8EEE00AFF
:1015C00020EE800ABDEEC00A85ED000A002002B0C0
:1015D00070BD012002B070BD010020410100C84172
:1015E000010048420100C842010048430100C843CD
:1015F000010048440100C84401404E4523DBF93E48
:1016000023DB793E23DBF93D23DB793D00B5062959
:1016100081B00CD8DFE801F004040B04040B0400D3
:1016200000F05DF9401E8041C00F01B000BD0120F7
:1016300001B000BD00B50A0018BF202981B006D155
:1016400000F08BF9401E8041C00F01B000BD0120A9
:1016500001B000BD00B581B000F0F3F8401E80413C
:10166000C00F01B000BD00B5012981B006D800F05F
:10167000D1F9401E8041C00F01B000BD012001B072
:1016800000BD00B5012981B006D800F01EFC401E47
:101690008041C00F01B000BD012001B000BD00B508
:1016A000032981B006D800F0D4F9401E8041C00F54
:1016B00001B000BD012001B000BD0268531C0360F1
:1016C0001170704700B581B001F00AF8401E8041EA
:1016D000C00F01B000BD00B581B001F018F8401E88
:1016E0008041C00F01B000BD00B50A4681B00123A2
:1016F0000F2101F00CF8401E8041C00F01B000BD69
:1017000030B581B00D46044601236A46122100F02F
:10171000FEFF10B1002001B030BD9DF8000000F0C8
:10172000BF0028438DF8000001236A46122120469D
:1017300000F0D6FF401E8041C00F01B030BD30B573
:1017400081B00D46044601236A46102100F0DFFFF8
:1017500010B1002001B030BD9DF8000000F0F30092
:1017600028438DF8000001236A461021204600F02E
:10177000B7FF401E8041C00F01B030BD10B50C4610
:1017800001232246102100F0C2FF08B1002010BD45
:10179000207800F00C002070012010BDF0B581B061
:1017A00004460D4600260327F6B206F12801012360
:1017B000AA19C9B2204600F0AAFF50B9761CF6B2A9
:1017C00006F128010123AA19C9B2204600F09FFFA3
:1017D00010B1002001B0F0BD761C7F1EE4D10120C5
:1017E00001B0F0BD30B581B00D46044601236A4614
:1017F000102100F08CFF10B1002001B030BD9DF829
:10180000000000F00F0028438DF8000001236A4615
:101810001021204600F064FF401E8041C00F01B03F
:1018200030BD10B50C4601232246102100F06FFF99
:1018300008B1002010BD207800F0F00020700120D9
:1018400010BD70B582B0044601236A460D460621DC
:1018500000F05DFF2E0A78B98DF8005001236A462A
:101860000621204600F03CFF30B901236A460721DB
:10187000204600F04CFF10B1002002B070BD9DF872
:10188000000066F303008DF8000001236A4607217B
:10189000204600F025FF401E8041C00F02B070BD01
:1018A00030B581B00D46044601236A46082100F098
:1018B0002EFF10B1002001B030BD9DF8000000F0F7
:1018C000F80028438DF8000001236A4608212046CD
:1018D00000F006FF401E8041C00F01B030BD30B5A2
:1018E00081B00D46044601236A460A2100F00FFF2D
:1018F00010B1002001B030BD9DF8000000F0F800EC
:1019000028438DF8000001236A460A21204600F092
:10191000E7FE401E8041C00F01B030BD30B581B040
:101920000D46044601236A460A2100F0F0FE10B17C
:10193000002001B030BD9DF8000000F08700284372
:101940008DF8000001236A460A21204600F0C8FEF7
:10195000401E8041C00F01B030BD30B581B00D4692
:10196000044601236A460D2100F0D1FE10B100208B
:1019700001B030BD9DF8000000F0DF0028438DF875
:10198000000001236A460D21204600F0A9FE401EFA
:101990008041C00F01B030BD30B581B00D46044666
:1019A00001236A460D2100F0B2FE10B1002001B003
:1019B00030BD9DF8000000F07F0028438DF8000046
:1019C00001236A460D21204600F08AFE401E804118
:1019D000C00F01B030BD30B581B00D4604460123C3
:1019E0006A46122100F093FE10B1002001B030BD14
:1019F0009DF8000000F0FB0028438DF80000012353
:101A00006A461221204600F06BFE401E8041C00F46
:101A100001B030BD30B581B00D46044601236A46A1
:101A2000132100F074FE10B1002001B030BD9DF80C
:101A3000000000F0FE0028438DF8000001236A46F4
:101A40001321204600F04CFE401E8041C00F01B023
:101A500030BD30B581B00D46044601236A461421DD
:101A600000F055FE10B1002001B030BD9DF800001F
:101A700000F0FC0028438DF8000001236A46142181
:101A8000204600F02DFE401E8041C00F01B030BD49
:101A900030B581B00D46044601236A46182100F096
:101AA00036FE10B1002001B030BD9DF8000000F0FE
:101AB000F70028438DF8000001236A4618212046CC
:101AC00000F00EFE401E8041C00F01B030BD10B5C9
:101AD0000C4601232246182100F019FE08B100200F
:101AE00010BD207800F008002070012010BD30B536
:101AF00081B00D46044601236A46182100F007FE16
:101B000010B1002001B030BD9DF8000000F0EF00E2
:101B100028438DF8000001236A461821204600F072
:101B2000DFFD401E8041C00F01B030BD10B50C4636
:101B300001232246182100F0EAFD08B1002010BD63
:101B4000207800F010002070012010BD30B581B069
:101B50000D46044601236A46182100F0D8FD10B155
:101B6000002001B030BD9DF8000000F0DF002843E8
:101B70008DF8000001236A461821204600F0B0FDD0
:101B8000401E8041C00F01B030BD10B50C4601238E
:101B90002246182100F0BBFD08B1002010BD2078BE
:101BA00000F020002070012010BD30B581B00D463E
:101BB000044601236A46192100F0A9FD10B1002056
:101BC00001B030BD9DF8000000F0FD0028438DF805
:101BD000000001236A461921204600F081FD401EC5
:101BE0008041C00F01B030BD30B581B00D46044614
:101BF00001236A46192100F08AFD10B1002001B0CE
:101C000030BD9DF8000000F0FB0028438DF8000077
:101C100001236A461921204600F062FD401E8041E2
:101C2000C00F01B030BD10B50C46012322461B2168
:101C300000F06DFD08B1002010BD207800F0080014
:101C40002070012010BD10B50C46012322461B2137
:101C500000F05DFD08B1002010BD207800F02000EC
:101C60002070012010BD10B50C46012322461C2116
:101C700000F04DFD08B1002010BD207800F01000EC
:101C80002070012010BD10B50C46012322461C21F6
:101C900000F03DFD08B1002010BD207800F02000CC
:101CA0002070012010BD10B50C46012322461D21D5
:101CB00000F02DFD08B1002010BD207800F00100DB
:101CC0002070012010BD10B50C46012322461D21B5
:101CD00000F01DFD08B1002010BD207800F00200CA
:101CE0002070012010BD10B50C46012322461D2195
:101CF00000F00DFD08B1002010BD207800F00400B8
:101D00002070012010BD10B50C46012322461D2174
:101D100000F0FDFC08B1002010BD207800F00800A4
:101D20002070012010BD10B50C46012322461D2154
:101D300000F0EDFC08B1002010BD207800F010008C
:101D40002070012010BD10B50C46012322461D2134
:101D500000F0DDFC08B1002010BD207800F020006C
:101D60002070012010BD10B50C46012322461D2114
:101D700000F0CDFC08B1002010BD207800F040003C
:101D80002070012010BD10B50C46012322461E21F3
:101D900000F0BDFC08B1002010BD207800F001006B
:101DA0002070012010BD30B581B00D4604460123DE
:101DB0006A463A2100F0ABFC38B901230DF101026B
:101DC0003B21204600F0A3FC10B1002001B030BD43
:101DD0009DF801009DF8001000F00F0041EA00207E
:101DE000288001B0012030BD10B50C4601232246E9
:101DF0003B2100F08CFC08B1002010BD207800F0E1
:101E000010002070012010BD10B50C4601232246A1
:101E10003B2100F07CFC08B1002010BD207800F0D0
:101E200020002070012010BD10B50C460123224671
:101E30003B2100F06CFC08B1002010BD207800F0C0
:101E400040002070012010BD30B581B00D46044621
:101E500001236A463C2100F05AFC38B901230DF1F8
:101E600001023D21204600F052FC10B1002001B0DB
:101E700030BD9DF801009DF8001000F0030041EA1C
:101E80000020288001B0012030BD10B50C46012390
:101E90002246532100F03BFC08B1002010BD207801
:101EA00000F010002070012010BD10B50C46012379
:101EB0002246532100F02BFC08B1002010BD2078F1
:101EC00000F020002070012010BD30B581B00D461B
:101ED000044601236A46582100F019FC10B1002085
:101EE00001B030BD9DF8000000F0FE0028438DF8E1
:101EF000000001236A465821204600F0F1FB401EF5
:101F00008041C00F01B030BD30B581B00D460446F0
:101F100001236A46582100F0FAFB10B1002001B0FD
:101F200030BD9DF8000000F0FD0028438DF8000052
:101F300001236A465821204600F0D2FB401E804112
:101F4000C00F01B030BD30B581B00D46044601234D
:101F50006A46582100F0DBFB10B1002001B030BD13
:101F60009DF8000000F0FB0028438DF800000123DD
:101F70006A465821204600F0B3FB401E8041C00F46
:101F800001B030BD30B581B00D46044601236A462C
:101F9000582100F0BCFB10B1002001B030BD9DF80D
:101FA000000000F0F70028438DF8000001236A4686
:101FB0005821204600F094FB401E8041C00F01B024
:101FC00030BD30B581B00D46044601236A46582124
:101FD00000F09DFB10B1002001B030BD9DF8000065
:101FE00000F0DF0028438DF8000001236A465821E5
:101FF000204600F075FB401E8041C00F01B030BD8F
:1020000030B581B00D46044601236A46582100F0E0
:102010007EFB10B1002001B030BD9DF8000000F043
:10202000BF0028438DF8000001236A46582120464E
:1020300000F056FB401E8041C00F01B030BD30B5EE
:1020400081B00D46044601236A46592100F05FFB2A
:1020500010B1002001B030BD9DF8000065F3040010
:102060008DF8000001236A465921204600F038FB14
:10207000401E8041C00F01B030BD30B581B00D466B
:10208000044601236A46592100F041FB10B10020AB
:1020900001B030BD9DF8000000F09F0028438DF88E
:1020A000000001236A465921204600F019FB401E1A
:1020B0008041C00F01B030BD30B581B00D4604463F
:1020C00001236A465A2100F022FB10B1002001B022
:1020D00030BD9DF8000065F301008DF8000001237C
:1020E0006A465A21204600F0FBFA401E8041C00F8C
:1020F00001B030BD30B581B00D46044601236A46BB
:102100005A2100F004FB10B1002001B030BD9DF851
:10211000000065F383008DF8000001236A465A2110
:10212000204600F0DDFA401E8041C00F01B030BDF6
:1021300030B581B00D46044601236A465A2100F0AD
:10214000E6FA10B1002001B030BD9DF8000000F0AB
:102150000F0040EA05108DF8000001236A465A215D
:10216000204600F0BDFA401E8041C00F01B030BDD6
:1021700030B581B00D46044601236A465B2100F06C
:10218000C6FA10B1002001B030BD9DF8000065F323
:1021900005008DF8000001236A465B21204600F00F
:1021A0009FFA401E8041C00F01B030BD30B581B0F4
:1021B0000D46044601236A465B2100F0A8FA10B1DF
:1021C000002001B030BD9DF8000000F07F002843E2
:1021D0008DF8000001236A465B21204600F080FA5A
:1021E000401E8041C00F01B030BD30B581B00D46FA
:1021F000044601236A465C2100F089FA10B10020F0
:1022000001B030BD9DF8000065F303008DF80000BB
:1022100001236A465C21204600F062FA401E80419C
:10222000C00F01B030BD30B581B00D46044601236A
:102230006A465C2100F06BFA10B1002001B030BD9D
:102240009DF8000000F0EF0028438DF80000012306
:102250006A465C21204600F043FA401E8041C00FD0
:1022600001B030BD30B581B00D46044601236A4649
:102270005C2100F04CFA10B1002001B030BD9DF897
:10228000000065F346108DF8000001236A465C21CA
:10229000204600F025FA401E8041C00F01B030BD3D
:1022A00030B581B00D46044601236A465D2100F039
:1022B0002EFA10B1002001B030BD9DF8000000F0F2
:1022C000F80028438DF8000001236A465D2120466E
:1022D00000F006FA401E8041C00F01B030BD70B55D
:1022E00082B0044601236A460E465D2100F00FFAD3
:1022F0007509A8B99DF8000000F0070040EAC60083
:102300008DF8000001236A465D21204600F0E8F9BF
:1023100030B901236A465C21204600F0F8F910B17B
:10232000002002B070BD9DF8000000F07F0040EA80
:10233000C5108DF8000001236A465C21204600F09C
:10234000CFF9401E8041C00F02B070BD30B581B0E2
:102350000D46044601236A465E2100F0D8F910B10B
:10236000002001B030BD9DF8000000F0FD002843C2
:102370008DF8000001236A465E21204600F0B0F986
:10238000401E8041C00F01B030BD30B581B00D4658
:10239000044601236A465E2100F0B9F910B100201D
:1023A00001B030BD9DF8000000F0FB0028438DF81F
:1023B000000001236A465E21204600F091F9401E8C
:1023C0008041C00F01B030BD30B581B00D4604462C
:1023D00001236A465E2100F09AF910B1002001B095
:1023E00030BD9DF8000000F0F70028438DF8000094
:1023F00001236A465E21204600F072F9401E8041AA
:10240000C00F01B030BD30B581B00D460446012388
:102410006A465E2100F07BF910B1002001B030BDAA
:102420009DF8000000F0EF0028438DF80000012324
:102430006A465E21204600F053F9401E8041C00FDD
:1024400001B030BD30B581B00D46044601236A4667
:102450005E2100F05CF910B1002001B030BD9DF8A4
:10246000000000F0DF0028438DF8000001236A46D9
:102470005E21204600F034F9401E8041C00F01B0BB
:1024800030BD30B581B00D46044601236A465E2159
:1024900000F03DF910B1002001B030BD9DF8000002
:1024A00000F0BF0028438DF8000001236A465E213A
:1024B000204600F015F9401E8041C00F01B030BD2C
:1024C00030B50D4681B0044601232A463E2100F076
:1024D0001EF930B901236A1C3F21204600F017F98C
:1024E00010B1002001B030BD012001B030BD30B5C9
:1024F0000D4681B0044601232A464B2100F007F91E
:1025000030B901236A1C4C21204600F000F910B1BB
:10251000002001B030BD012001B030BD30B581B028
:102520000D46044601236A46012100F0F0F858B92F
:102530009DF8000040F080008DF8000001236A46FD
:102540000121204600F0CCF801230DF101020F21FA
:10255000204600F0DCF89DF8010065F304008DF8DA
:10256000010001230DF101020F21204600F0B8F80F
:1025700001236A460121204600F0C9F858B99DF8A8
:10258000000000F07F008DF8000001236A46012161
:10259000204600F0A5F8012001B030BD30B5964CC2
:1025A00087B0204600F0C8FD00284BD19348944DD9
:1025B000606001A90020A0603320E0604FF48040FB
:1025C00020619048206000200090286940F00200BF
:1025D0002861286900F00200009000984FF44070D4
:1025E0000190122002900220049000200390042009
:1025F0000590854800F0A4FD002000900022286A84
:1026000040F4001028620021286A00F400100090B5
:102610000098286840F400102860286820F4001012
:1026200028601F2000F085FE1F2000F0ABFE002276
:102630000021202000F07DFE202000F0A3FE204697
:1026400000F0EAF8204600F077FD20280CBF0020BB
:10265000012007B030BD0020704730B58BB000209E
:10266000009006A9694D6A4C286840F00100286076
:10267000286800F001000090009807941020069050
:102680000220099000200890624800F059FD0022C5
:1026900000210A2000F04DFE0A2000F073FE002009
:1026A000009001A9286840F002002860286800F026
:1026B00002000090009802940120019002200490F2
:1026C00000200390504800F03BFD0022002106202E
:1026D00000F02FFE062000F055FE00200BB030BDAC
:1026E00030B583B04FF48055009202950A460193AD
:1026F00001234178404C204600F01EF928B12046C5
:1027000000F0F9F800F01AF8012003B030BD30B540
:1027100083B04FF48055009202950A46019301233D
:102720004178354C204600F087FA28B1204600F069
:10273000E2F800F003F8012003B030BD30B52E4CB4
:1027400087B0204600F0F8FC00284BD12B482C4DD8
:10275000606001A90020A0603320E0604FF4804059
:1027600020612848206000200090286940F0020085
:102770002861286900F00200009000984FF4407032
:102780000190122002900220049000200390042067
:1027900005901D4800F0D4FC002000900022286A1B
:1027A00040F4001028620021286A00F40010009014
:1027B0000098286840F400102860286820F4001071
:1027C00028601F2000F0B5FD1F2000F0DBFD002277
:1027D0000021202000F0ADFD202000F0D3FD204698
:1027E00000F01AF8204600F0A7FC20280CBF0020BB
:1027F000012007B030BD0000380A0020801A060012
:1028000020380240005400400004024030380240AA
:10281000000011100000024030B5040081B008BF74
:10282000012066D094F83D0020B984F83C00204691
:1028300000F085FC242084F83D00206801684908E8
:102840004900016000F077FEDFF8E020A0FB0221E4
:102850002268C90C51606368DFF8D420934208D322
:102860004FF4967313FB01F1DFF8C850A1FB055339
:10287000590A2368491C19626168914208D24900CB
:10288000B0FBF1F0C0F30B01042913D2042011E0D6
:10289000A26822B901EB4101B0FBF1F005E0192279
:1028A0005143B0FBF1F040F4804001050CBF012022
:1028B00040F400402168C861E069216A084321684A
:1028C00008602069E1680843216888606069A1693F
:1028D00008432168C8602068016841F00101016077
:1028E00000202064202084F83D000020206384F82C
:1028F0003E0001B030BD10B5040001D1012010BD73
:10290000242084F83D0020680168490849000160DE
:10291000204600F06FFE0020206484F83D00206314
:1029200084F83E0084F83C0010BD000006BD3786E8
:10293000A1860100986E12832DE9F043054681B00F
:1029400095F83D002028884614461F4615D100F012
:1029500053FE064642F2117928688169890710D52D
:1029600000F04AFE801B4845F6D300202863202053
:1029700085F83D00002085F83C00022001B0BDE84C
:10298000F08395F83C100129F7D0012185F83C101F
:10299000016821F400610160212085F83D0040209C
:1029A00085F83E0000202864A248E8622868016893
:1029B00041F48071016000F01FFE0A9E8146286884
:1029C0004169C9071CD416F1010FF8D02EB100F0EF
:1029D00013FEA0EB09008642F1D2002028632020DC
:1029E00085F83D00002085F83C00286C042840F064
:1029F0009780002085F83C0001B00120BDE8F083FD
:102A000008F0FE01016100F0F7FD80462868416989
:102A1000890721D4416949050AD5016841F400714B
:102A200001606FF48060296848610420286409E02F
:102A300016F1010FEAD02EB100F0DEFDA0EB080088
:102A40008642E3D200202863202085F83D00002044
:102A500085F83C00286CC8E700210091416900918D
:102A600080690090009800F0C7FD80462968486999
:102A7000000626D44869400515D56FF4806048618A
:102A80000420286400202863202085F83D000020D1
:102A900085F83C00286C0428A7D12868016841F417
:102AA00000710160A1E716F1010FDFD02EB100F037
:102AB000A3FDA0EB08008642D8D2286C40F020008D
:102AC000DFE7012F26D0200A086100F095FD0746B8
:102AD0002868416909061DD44169490504D56FF488
:102AE0008061416104200BE016F1010FF0D026B1A6
:102AF00000F082FDC01B8642EAD2286C40F0200024
:102B0000286400202863202085F83D00002085F8F7
:102B10003C00BFE72868E4B20461089F099C0BE011
:102B2000002085F83C00032001B0BDE8F08300BF21
:102B300017F8011B0161641EA0B200283BD000F011
:102B40005BFD804628684169090629D44169490529
:102B500018D56FF480614161042028640020286347
:102B6000202085F83D00002085F83C00286C0428D2
:102B7000D9D12868016841F400710160012001B0D9
:102B8000BDE8F08316F1010FDCD02EB100F034FD6A
:102B9000A0EB08008642D5D2286C40F02000DCE78C
:102BA00017F8011B0161641E286841694907C3D5F4
:102BB000A1B20029BCD100F01FFD0446286841697C
:102BC000090628D44169490518D56FF4806141612F
:102BD0000420286400202863202085F83D00002080
:102BE00085F83C00286C04289DD12868016841F4D0
:102BF00000710160012001B0BDE8F08316F1010F02
:102C0000DCD026B100F0F8FC001B8642D6D2286C3E
:102C100040F02000DDE7016841F4007101602020F0
:102C200085F83D00002085F83E0085F83C0001B0A5
:102C3000BDE8F0830000FFFF2DE9F043054681B0B9
:102C400095F83D0020280C461746984615D100F00F
:102C5000D3FC064642F2117928688169890710D5AC
:102C600000F0CAFC801B4845F6D3002028632020D2
:102C700085F83D00002085F83C00022001B0BDE849
:102C8000F08395F83C100129F7D0012185F83C101C
:102C9000016821F400610160222085F83D00402098
:102CA00085F83E0000202864DFF88804E862286880
:102CB000016841F4806101602868016841F4807115
:102CC000016000F099FC0A9E814628684169C907A5
:102CD0000CD416F1010FF8D0002E00F0CE8000F0D9
:102CE0008BFCA0EB09008642EFD2C6E004F0FE01A7
:102CF000016100F081FC814628684169890720D480
:102D0000416949050AD5016841F4007101606FF419
:102D10008060296848610420286409E016F1010FE9
:102D2000EAD02EB100F068FCA0EB09008642E3D2A5
:102D300000202863202085F83D00002085F83C0015
:102D4000C4E00021009141690091806900900098E1
:102D500000F052FC81462968486900061ED4486983
:102D600040050DD56FF48060486104202864002080
:102D70002863202085F83D00002085F83C005FE0B6
:102D800016F1010FE7D02EB100F036FCA0EB0900E0
:102D90008642E0D2286C40F02000E7E7B8F1010F4E
:102DA00027D0380A086100F027FC8046286841696E
:102DB00009061ED44169490504D56FF4806141615B
:102DC00004200CE016F1010FF0D02EB100F014FC3D
:102DD000A0EB08008642E9D2286C40F0200028646D
:102DE00000202863202085F83D00002085F83C0065
:102DF00026E02868FFB2076100F0FEFB074628685E
:102E00004169090625D44169490504D56FF48061FB
:102E1000416104200BE016F1010FF0D026B100F063
:102E2000EBFBC01B8642EAD2286C40F020002864ED
:102E300000202863202085F83D00002085F83C0014
:102E4000286C042843D12868016841F400710160AE
:102E50003DE0016841F48071016000F0CDFB074660
:102E600028684169C90711D416F1010FF8D026B1BD
:102E700000F0C2FBC01B8642F2D200202863202053
:102E800085F83D00002085F83C0020E044F0010179
:102E9000C9B2016100F0B0FB0446286841698907A6
:102EA0002AD4416949051CD5016841F400710160CB
:102EB0006FF480602968486104202864002028633A
:102EC000202085F83D00002085F83C00286C286C07
:102ED00004282AD1002085F83C00012001B0BDE87B
:102EE000F08316F1010FD8D0002EE7D000F084FB5C
:102EF000001B8642D1D2E1E7099C21001CD10021B0
:102F0000009141690091816900910099016841F443
:102F100000710160202085F83D00002085F83E000A
:102F200085F83C0001B0BDE8F083002085F83C0046
:102F3000032001B0BDE8F083012C11D1016821F418
:102F400080610160002000902868416900918169DA
:102F500000910099016841F400710160089F29E027
:102F6000022C12D1016821F4806101602868016897
:102F700041F40061016000200090286841690091DF
:102F8000806900900098089F14E000210091F5E707
:102F900026B100F031FB001B864214D2286C40F0B1
:102FA000200028641CE0006907F8010B0024A0B28F
:102FB0000028AFD0A4B2042C80F08380012C1CD157
:102FC00000F01AFB0446286841694906EBD44169C0
:102FD000C906DDD56FF01001416100202864286327
:102FE000202085F83D00002085F83C00286C202832
:102FF0009ED0012001B0BDE8F083022C1FD100F06B
:10300000FBFA04462868416949070ED416F1010FFE
:10301000F8D026B100F0F0FA001B8642F2D2002070
:103020002863202085F83D007FE7016841F40071A6
:1030300001602868006907F8010B2868B3E700F011
:10304000DBFA80462868416949070FD416F1010F61
:10305000F8D02EB100F0D0FAA0EB08008642F1D2F1
:1030600000202863202085F83D005EE7016821F4F8
:103070008061016028680069387000F0BDFA804600
:103080002868416949070FD416F1010FF8D02EB115
:1030900000F0B2FAA0EB08008642F1D200202863CB
:1030A000202085F83D0040E7016841F4007101608F
:1030B000E41E28680069787028680069B870FF1CF1
:1030C00075E700F099FA804628684169490622D4DC
:1030D0004169C90613D56FF01001416100202864D1
:1030E0002863202085F83D00002085F83C00286CEE
:1030F00020287FF4F2AE032001B0BDE8F0832EB1AA
:1031000000F07AFAA0EB08008642DDD2286C40F08D
:1031100020002864E5E7006907F8010B641E2868B1
:10312000416949077FF543AF006907F8010B641E49
:103130003DE700000000FFFF90F83D00704770473A
:103140002DE9F04F002381B0024600249946DFF8B4
:10315000A4A1694F4FF00F0E01200D68984000EABE
:103160000508804540F0A7804D68022D18BF122D3C
:1031700011D1DD0802EB850C09F01C05DCF820609C
:103180000EFA05FB26EA0B06D1F810B00BFA05F58E
:103190003543CCF8205003261568A6406FEA060C8C
:1031A0000E7906F003060CEA0505A64035431560C6
:1031B0004D68012D18BF022D03D0112D18BF122DFF
:1031C0000FD19568CE680CEA0505A6403543956099
:1031D000556825EA00004D68C5F300159D40284359
:1031E0005060D0688D680CEA0000A5402843D0608C
:1031F0004868C0005FD50020009009F00C0C3868CA
:103200003E4E40F480403860386800F480400090C2
:103210000098980856F820500EFA0CF6B543384E30
:10322000B24208BF002613D0364EB24208BF012674
:103230000ED0354EB24208BF022609D0334EB242FC
:1032400008BF032604D0324EB2420CBF0426052626
:1032500006FA0CF62E43294D45F820606FEA080067
:10326000DAF8005000EA050C4D68ED0348BF48EA63
:103270000C0CCAF800C0DAF8045000EA050C4D68DE
:10328000AD0348BF48EA0C0CCAF804C0DAF808508D
:1032900000EA050C4D68ED0248BF48EA0C0CCAF87C
:1032A00008C0DAF80C5028404D68AD0248BF48EA23
:1032B0000000CAF80C005B1CA41C102B09F10409C7
:1032C000FFF44AAF01B0BDE8F08F00690840401E2E
:1032D0008041C043C00F704702B909048161704743
:1032E0000C4A136803421CBF106000F0C1BA70475B
:1032F00000000000003C0140443802400838014012
:10330000000002400004024000080240000C02409D
:1033100000100240143C014027490A684FF6FF03A1
:1033200000021A4000F4E0601043244A1043086091
:10333000704730B4204B1B68C3F30223C3F107046A
:10334000052C28BF04241D1D072D34BF0023DB1EC0
:10335000012505FA04F4641E2140994005FA03F39F
:103360005B1E1A4011430901002807D5144A00F0DA
:103370000F00104400F8041C30BC7047114A11546F
:1033800030BC7047012100F01F0291400E4A4009F5
:1033900042F820107047401EB0F1807F01D3012019
:1033A00070470A494860F02081F8130D00208860BA
:1033B00007200860002070470CED00E00000FA05CF
:1033C00018ED00E000E400E000E100E010E000E0C3
:1033D000F0B56D4E81B00446D6F800040D4600F0FD
:1033E0000F00A84207D286F80054D6F8000400F077
:1033F0000F00A84272D12078800705D5B068A16877
:1034000020F0F0000843B0602078C00758D560680D
:10341000012802D13168890305E0022818BF03287A
:1034200005D13168890105D4012001B0F0BD3168B2
:10343000890753D5B168890840EA8100B06000F07F
:10344000DBF80746606801280ED1B06800F00C0078
:10345000042835D000F0D0F8C01B41F289318842F1
:10346000F3D3032001B0F0BD02280ED1B06800F004
:103470000C00082824D000F0BFF8C01B41F28931AD
:103480008842F3D3032001B0F0BD03280AD1B0680D
:1034900000F0B2F8C01B41F289318842F7D3032013
:1034A00001B0F0BDB06810F00C0F09D000F0A4F826
:1034B000C01B41F289318842F4D3032001B0F0BD32
:1034C000D6F8000400F00F0085420AD286F80054B6
:1034D000D6F8000400F00F00A84202D0012001B08D
:1034E000F0BD2078400705D5B068E16820F4E050D1
:1034F0000843B0602078000706D5B068216920F441
:10350000604040EAC100B0600F2000F079FC00206C
:1035100001B0F0BD00B581B000F044F81B4B0FF2D4
:1035200074021B681A49C3F30313D25CD0400860CD
:1035300001B0086800BD10B500F034F8134B0FF26D
:1035400054021C681249C4F30314145DE04008607F
:1035500008681968C1F38221515CC84010BD10B5DC
:1035600000F020F8094B0FF22C021C680849C4F344
:103570000314145DE040086008681968C1F3423123
:10358000515CC84010BD00000038024008380240BD
:10359000780100200000000001020304010203047E
:1035A000060708091048416801F00C01042903D0FE
:1035B000082903D00D4870470D487047016802681C
:1035C000520201F03F014CBF094A084AB2FBF1F137
:1035D00002680068C0F30140C2F38812401C5143E6
:1035E0004000B1FBF0F07047043802400024F400C2
:1035F00000127A007047000001480068704700BF61
:10360000D00A002010B582B000208DF8000000F034
:103610000BFC00F027FC002000F06CFC01210020D6
:1036200000F0A8FC00F002FD9C4C211D012000F0E0
:103630005DFD012803D1002000F086FCFEE76068F4
:1036400000F006FE606800F01CFE2078A0B1606803
:10365000694600F024FE68B99DF8000050B100F002
:1036600013F8002000F070FC642000F087FE0020BA
:1036700000F075FC0020207060780028E5D000F094
:1036800003F800206070E0E730B583B000208DF8CB
:103690000600ADF80200ADF804008DF8010069469F
:1036A0007E4C606800F0E4FD60680DF1060100F0FA
:1036B00005FE012807D19DF800200FF2E81104F162
:1036C000080000F069FE60680DF1030100F005FEDE
:1036D000012807D19DF800200FF2142104F1080001
:1036E00000F05AFE60680DF1050100F006FE0128A9
:1036F00007D19DF800200FF2442104F1080000F0EA
:103700004BFE60680DF1020100F007FE012807D1B1
:103710009DF800200FF2702104F1080000F03CFE3B
:10372000606801A900F009FE012807D19DF800207A
:103730000FF2A02104F1080000F02EFE60680DF1E8
:10374000010100F00AFE012807D19DF800200FF2C8
:10375000D02104F1080000F01FFE9DF806009DF83E
:1037600005109DF8032008439DF8041001430A4307
:1037700004BF9DF80230012B05D19DF8013013B92B
:103780000FF2E82159E09DF80630012B11D19DF888
:1037900005309DF804502B439DF803502B439DF8B2
:1037A00002502B4302BF9DF80130002B0FF2703105
:1037B00043D0002904BF9DF80310012908D19DF8CA
:1037C00002109DF80130194308BF0FF2084134D0B0
:1037D0009DF80610002904BF9DF8051001290ED19F
:1037E0009DF804109DF8033019439DF802301943E9
:1037F0009DF80130194308BF0FF28C411DD0002AFB
:1038000004BF9DF80210002906D19DF8011001297E
:1038100008BF0FF2285110D0002804BF9DF8040003
:1038200001280FD19DF803009DF8021008439DF870
:103830000110084306D10FF2345104F1080000F0E2
:10384000ABFD07E09DF800200FF2685104F108007D
:1038500000F0A2FD04F1080000F0B8FD82B241F2D0
:10386000883304F108010E4800F0FCFD03B030BDC0
:1038700000B5B0F5005F81B008D1002000F0BEFBBC
:1038800048B906490120487001B000BD102802D196
:1038900002490120087001B000BD0000300900207D
:1038A000F00700204572726F722067657474696E4C
:1038B00067203644206F7269656E746174696F6E3B
:1038C00020584C20617869732066726F6D204C53CC
:1038D0004D36445333202D20616363656C65726FF0
:1038E0006D657465725B25645D2E0D0A0000000035
:1038F0004572726F722067657474696E6720364412
:10390000206F7269656E746174696F6E205848200B
:10391000617869732066726F6D204C534D36445345
:1039200033202D20616363656C65726F6D6574650E
:10393000725B25645D2E0D0A000000004572726FF7
:10394000722067657474696E67203644206F7269EF
:10395000656E746174696F6E20594C20617869736B
:103960002066726F6D204C534D36445333202D200A
:10397000616363656C65726F6D657465725B256408
:103980005D2E0D0A000000004572726F722067659F
:103990007474696E67203644206F7269656E746155
:1039A00074696F6E20594820617869732066726F60
:1039B0006D204C534D36445333202D206163636595
:1039C0006C65726F6D657465725B25645D2E0D0AA2
:1039D000000000004572726F722067657474696E32
:1039E00067203644206F7269656E746174696F6E0A
:1039F000205A4C20617869732066726F6D204C5399
:103A00004D36445333202D20616363656C65726FBE
:103A10006D657465725B25645D2E0D0A0000000003
:103A20004572726F722067657474696E67203644E0
:103A3000206F7269656E746174696F6E205A4820D8
:103A4000617869732066726F6D204C534D36445314
:103A500033202D20616363656C65726F6D657465DD
:103A6000725B25645D2E0D0A000000000D0A202007
:103A70005F5F5F5F5F5F5F5F5F5F5F5F5F5F5F5F56
:103A800020200D0A207C2020202020202020202003
:103A90002020202020207C200D0A207C20202A208D
:103AA0002020202020202020202020207C200D0AE3
:103AB000207C2020202020202020202020202020AA
:103AC00020207C200D0A207C202020202020202067
:103AD00020202020202020207C200D0A207C202057
:103AE00020202020202020202020202020207C207A
:103AF0000D0A207C20202020202020202020202093
:103B0000202020207C200D0A207C5F5F5F5F5F5FAC
:103B10005F5F5F5F5F5F5F5F5F5F7C200D0A00003C
:103B20000D0A20205F5F5F5F5F5F5F5F5F5F5F5FCA
:103B30005F5F5F5F20200D0A207C20202020202056
:103B4000202020202020202020207C200D0A207CE6
:103B5000202020202020202020202020202A20205B
:103B60007C200D0A207C20202020202020202020C6
:103B70002020202020207C200D0A207C20202020B6
:103B80002020202020202020202020207C200D0A02
:103B9000207C2020202020202020202020202020C9
:103BA00020207C200D0A207C202020202020202086
:103BB00020202020202020207C200D0A207C5F5FF8
:103BC0005F5F5F5F5F5F5F5F5F5F5F5F5F5F7C2027
:103BD0000D0A00000D0A20205F5F5F5F5F5F5F5F7F
:103BE0005F5F5F5F5F5F5F5F20200D0A207C2020AA
:103BF00020202020202020202020202020207C2069
:103C00000D0A207C20202020202020202020202081
:103C1000202020207C200D0A207C20202020202015
:103C2000202020202020202020207C200D0A207C05
:103C30002020202020202020202020202020202084
:103C40007C200D0A207C20202020202020202020E5
:103C50002020202020207C200D0A207C20202A20CB
:103C60002020202020202020202020207C200D0A21
:103C7000207C5F5F5F5F5F5F5F5F5F5F5F5F5F5F76
:103C80005F5F7C200D0A00000D0A20205F5F5F5FF0
:103C90005F5F5F5F5F5F5F5F5F5F5F5F20200D0A59
:103CA000207C2020202020202020202020202020B8
:103CB00020207C200D0A207C202020202020202075
:103CC00020202020202020207C200D0A207C202065
:103CD00020202020202020202020202020207C2088
:103CE0000D0A207C202020202020202020202020A1
:103CF000202020207C200D0A207C20202020202035
:103D0000202020202020202020207C200D0A207C24
:103D1000202020202020202020202020202A202099
:103D20007C200D0A207C5F5F5F5F5F5F5F5F5F5F8E
:103D30005F5F5F5F5F5F7C200D0A00000D0A20203F
:103D40005F5F2A5F5F5F5F5F5F5F5F5F5F5F5F5FB8
:103D500020200D0A207C5F5F5F5F5F5F5F5F5F5FBA
:103D60005F5F5F5F5F5F7C200D0A00000D0A20200F
:103D70005F5F5F5F5F5F5F5F5F5F5F5F5F5F5F5F53
:103D800020200D0A207C5F5F5F5F5F5F5F5F5F5F8A
:103D90005F5F5F5F5F5F7C200D0A202020202A206C
:103DA00020202020202020202020202020200D0A3C
:103DB000000000004E6F6E65206F662074686520FD
:103DC0003644206F7269656E746174696F6E20612C
:103DD0007865732069732073657420696E204C5375
:103DE0004D36445333202D20616363656C65726FDB
:103DF0006D657465725B25645D2E0D0A0000000020
:103E000010B50446FFF786FB064AA0FB0221480ACC
:103E1000FFF7C1FA002221464FF0FF30FFF789FA81
:103E2000002010BD986E128300B50C4881B0016867
:103E300041F400710160016841F480610160016832
:103E400041F4807101600320FFF766FA0F20FFF74D
:103E5000D7FF00F005F8002001B000BD003C024093
:103E60007047000000B593B0002000901F48016823
:103E700041F080510160006800F08050009000988F
:103E8000002000901A48016821F4404141F40041AB
:103E90000160006800F44040009000980220069005
:103EA0000120099010200A9002200C9000200D9013
:103EB00010200E904FF4A8700F900420109007204F
:103EC000119006A800F092FC0F2001900221022020
:103ED0000290002003904FF4805004900020059041
:103EE00001A8FFF775FA13B000BD00BF40380240CB
:103EF0000070004070B586B0044600200090DFF8E6
:103F00001061DFF81001016841F00101016001A9B1
:103F1000006800F00100009000980FF2041030F8E3
:103F2000145001950120029000200390022004907B
:103F300056F82400FFF704F956F824000022294619
:103F4000FFF7CAF906B070BD0FF2D401DFF8C03038
:103F500031F8101053F820000122FFF7BDB90FF21D
:103F6000C001DFF8AC3031F8101053F82000002207
:103F7000FFF7B2B930B587B00446002000900D4677
:103F8000DFF89000016841F004010160006800F072
:103F9000040000902800009810D10FF2880030F83B
:103FA0001400019001A900200290022003900490C7
:103FB000DFF8640050F82400FFF7C2F8012D1BD190
:103FC0000FF2600030F81400019001A90020039066
:103FD000DFF848000290DFF8400050F82400FFF7B7
:103FE000AFF80FF24400045D00220F2160B2FFF72A
:103FF000A0F960B2FFF7C6F907B030BD0FF2240197
:10400000DFF8142031F8101052F82000FFF75DB9E6
:10401000700100203038024074010020000021109F
:1040200020000000002000002800000010B586B02D
:1040300000200090294C2A48016841F001010160EC
:10404000016801F0010100910099002100910168CF
:1040500041F001010160016801F001010091009946
:1040600000210091016941F40031016101A9006959
:1040700000F400300090009804200190022002908B
:104080000020039002200490072005902046FFF7AF
:1040900057F80820019001A9072005902046FFF756
:1040A0004FF8104C104820604FF4E1306060002061
:1040B000A060E0602061A0610C206061204600F0FB
:1040C000A1F900B1FEE704F14000A0624FF4807056
:1040D000A0850020E06306B010BD00000000024093
:1040E00030380240F00700200044004010B50C4674
:1040F0000021216068B10128204611D000F058F855
:10410000012804D1204600F011F801280CD000202D
:1041100010BD204600F00AF80128F8D1012010BD9A
:1041200000F046F80128F2D1012010BD30B5434D12
:104130000446E878012881B038D0FEF72FFA01282C
:1041400034D068202870D6206870002068802871DC
:104150000120687105F12800A8603948E860002056
:1041600028613848E86305F13800A8620020E86259
:104170002560E8680168080008D1002000210022BD
:1041800007C503C5206001B0012030BD284688471F
:10419000012808D12068142100F064FC0020206070
:1041A00001B0012030BDFEF756FA002001B030BD4D
:1041B00030B5224D0446E87D012881B03BD0FEF7A2
:1041C000EDF9012837D069202875D42068750120C1
:1041D000A8750020E87528760120687605F1300082
:1041E000E861194828621948686205F140002863AF
:1041F0000020686305F114002060286A0168080047
:1042000005F1140008D10021002200230EC006C0D1
:104210002160012001B030BD8847012808D1206805
:10422000142100F01FFC0020206001B0012030BDEF
:10423000FEF713FA002001B030BD00007C0A002018
:1042400000000020C00A00202001002050000020B3
:1042500000B581B018B1C16889680A0002D1012097
:1042600001B000BD8847012818BF002001B000BD83
:10427000002818BF00290FBF012080780870002097
:10428000704700281CBF0169002906D00278692AFE
:1042900003D1096F0A0018BF0847012070470028A2
:1042A0001CBF0269002A07D031B10378692B03D102
:1042B000926F130018BF10470120704700281CBFE1
:1042C0000269002A07D031B10378692B03D1D26F7C
:1042D000130018BF10470120704700281CBF026957
:1042E000002A08D039B10378692B04D1D2F8802094
:1042F000130018BF10470120704700281CBF026937
:10430000002A08D039B10378692B04D1D2F884206F
:10431000130018BF10470120704700281CBF026916
:10432000002A08D039B10378692B04D1D2F888204B
:10433000130018BF10470120704700281CBF0269F6
:10434000002A08D039B10378692B04D1D2F88C2027
:10435000130018BF10470120704700281CBF0269D6
:10436000002A08D039B10378692B04D1D2F8902003
:10437000130018BF104701207047000011B581B02D
:10438000FFF73AF94FEA0004FFF736F90199001BED
:104390008842F9D302B010BD0CB41CB5044604A881
:1043A00001900A46009401AB6946074878441830EA
:1043B00000F05CFB009A0021117000285CBF00989F
:1043C000001B16BC5DF80CFBF3D2FFFF00F10103EC
:1043D000810704D010F8011B89B18107FAD1026866
:1043E000B2F10131914311F0803F04BF50F8042F26
:1043F000F6E710F8011B11B110F8011BFBE7C01A1A
:104400007047000010B5040001D1012010BD94F8E0
:10441000390020B984F83800204600F0E5F924205E
:1044200084F839002068C16821F40051C160204639
:1044300000F0AAF82068016921F490410161206828
:10444000416921F02A0141612068C16841F40051AD
:10445000C1600020E063202084F8390084F83A002D
:10446000002010BDF0B5044681B094F83900202832
:104470000E461D4640F085800EB1100002D101208D
:1044800001B0F0BD94F8380001287AD0012084F8FA
:1044900038000020E063212084F83900A284E284FF
:1044A00003E000BF16F8011B4160E08C010031D031
:1044B000401EE084A068B0F5805F1AD1FFF79CF839
:1044C000074620680168090609D415F1010FF8D0E4
:1044D00085B3FFF791F8C01B8542F2D22AE03188FC
:1044E000C1F3080141602069002814BF761CB61C86
:1044F000DBE7FFF781F80746206801680906D1D499
:1045000015F1010FF8D0ADB1FFF776F8C01B854269
:10451000F2D20FE0FFF770F8064620680068400608
:1045200027D415F1010FF8D025B1FFF765F8801BEE
:104530008542F2D22068C16821F08001C160206804
:10454000C16821F02001C1602068C16821F4807138
:10455000C16020684169490849004161202084F810
:10456000390084F83A00002084F8380001B00320B4
:10457000F0BD202084F83900002084F8380001B014
:10458000F0BD022001B0F0BD2DE9F04104462068E5
:104590000169E26821F44051114301618E4AC1680A
:1045A0001140A26811432269114362691143E26913
:1045B0001143C1604169A26921F440711143416115
:1045C000E2698649B2F5004F40F0A38088421CBFE3
:1045D000834988424ED1FEF7C2FF0546FEF7BFFF72
:1045E0000646FEF7BCFF0746FEF7B9FF8046FEF71A
:1045F000B6FF19225543DFF8ECE1616857434B00E1
:10460000B5FBF3F5A5FB0EEC4FEA9C15B7FBF3F7F2
:10461000DFF8D0E15643A7FB0EEC6421B6FBF3F6BE
:104620004FEA9C1701FB1766F6003236DFF8B4C17B
:10463000A6FB0CC7BE09760006F4F87606EB051556
:1046400002FB08F65043B6FBF3F6B0FBF3F0654B04
:10465000A0FB0332900901FB1060C0003230614AB8
:10466000A0FB02218809216800F00700401988603A
:10467000BDE8F081FEF75FFF0546FEF75CFF0646EA
:10468000FEF759FF0746FEF756FF8046FEF753FF39
:1046900019225543DFF84CE1616857434B00B5FBE5
:1046A000F3F5A5FB0EEC4FEA9C15B7FBF3F7DFF82B
:1046B00034E15643A7FB0EEC6421B6FBF3F64FEA58
:1046C0009C1701FB1766F6003236DFF818C1A6FB0F
:1046D0000CC7BE09760006F4F87606EB051502FB5A
:1046E00008F65043B6FBF3F6B0FBF3F03D4BA0FBEE
:1046F0000332900901FB1060C0003230394AA0FB40
:1047000002218809216800F0070040198860BDE88F
:10471000F08188421CBF324988420ED1FEF71FFF4C
:104720000546FEF71CFF0646FEF719FF0746FEF793
:1047300016FF8046FEF713FF0DE0FEF7FCFE054670
:10474000FEF7F9FE0646FEF7F6FE0746FEF7F3FE15
:104750008046FEF7F0FE19225543DFF888E06168D5
:1047600057438B00B5FBF3F5A5FB0EEC4FEA9C1508
:10477000B7FBF3F7DFF86CE05643A7FB0EEC6421C0
:10478000B6FBF3F64FEA9C1701FB1766360132368B
:10479000DFF850C0A6FB0CC7BE0906F0F00606EB1A
:1047A000051502FB08F65043B6FBF3F6B0FBF3F039
:1047B0000C4BA0FB0332900901FB1060000132306A
:1047C000084AA0FB02218809216800F00F00401967
:1047D0008860BDE8F0810000F369FFFF0010014030
:1047E000001401403E0AD7A370470000F0B504460C
:1047F00081B02078984DC00734D5A86800F00C002F
:10480000042807D0A86800F00C0008280AD16868BE
:10481000400207D52868800324D5606810BB0120BA
:1048200001B0F0BD6068A870606868B1FEF7E4FE92
:1048300006462868800315D4FEF7DEFE801B652837
:10484000F7D3032001B0F0BDFEF7D6FE0646286878
:10485000800307D5FEF7D0FE801B6528F7D3032021
:1048600001B0F0BD2078800718D5A86810F00C0FB3
:1048700007D0A86800F00C00082826D1686840021C
:1048800023D42868800702D5E0680128C7D12868AA
:10489000216920F0F80040EAC10028602078000774
:1048A00045D560696D4F90B30120C7F8800EFEF7C3
:1048B000A3FE0646686F800739D4FEF79DFE801B75
:1048C0000328F7D3032001B0F0BDE068634F78B14F
:1048D00001203860FEF790FE064628688007D6D48F
:1048E000FEF78AFE801B0328F7D3032001B0F0BD3A
:1048F0003860FEF781FE064628688007CED5FEF7B1
:104900007BFE801B0328F7D3032001B0F0BDC7F85E
:10491000800EFEF771FE0646686F800707D5FEF72A
:104920006BFE801B0328F7D3032001B0F0BD207875
:10493000400742D500200090494F286C40F080503D
:104940002864286C00F0805000900098386840F48B
:1049500080703860FEF750FE06463868C00507D400
:10496000FEF74AFE801B0328F7D3032001B0F0BDF9
:10497000A06885F87000A06878B1FEF73DFE064695
:1049800041F28937286F800717D4FEF735FE801B68
:10499000B842F7D3032001B0F0BDFEF72DFE064666
:1049A00041F28937286F800707D5FEF725FE801B67
:1049B000B842F7D3032001B0F0BDA069002848D069
:1049C000A96801F00C0108293FF429AF0228234F00
:1049D0002FD100203866FEF70FFE064628688001BA
:1049E00007D5FEF709FE801B0328F7D3032001B08B
:1049F000F0BDE069216A0843616A40EA8110A16A5A
:104A0000891EC903090C40EA0140E16A40EA0160DD
:104A1000686001203866FEF7EFFD064628688001D1
:104A200017D4FEF7E9FD801B0328F7D3032001B05C
:104A3000F0BD00203866FEF7DFFD064628688001DD
:104A400007D5FEF7D9FD801B0328F7D3032001B05B
:104A5000F0BD002001B0F0BD003802400000474228
:104A600000700040002200F0E3BB00002DE9F04F91
:104A700080460FF2A47095B015461E46D0E900237B
:104A8000CDE9132303AF00200391B8610DF1340980
:104A900000E02D190020ADF8020013AB4FF0FF32FB
:104AA00029460DF1020000F0F2FB0446012C04DA65
:104AB0002878441EA441E443E40FBDF802002528F1
:104AC0000CBFA4F1010BA346BBF1010F0EDBAA46FC
:104AD0001AF8011B0398C0470028039000F0DA8001
:104AE000B869401CBBF1010BB861F1D1BDF80200FF
:104AF000252804D10020F8603861786105E000289D
:104B0000C7D1B86906E340F0010015F8011F20295C
:104B1000F9D023290DD02B2904D02D2906D03029F6
:104B20000AD00CE040F0020080B2EEE740F0040052
:104B3000FAE740F00800F7E740F01000F4E72A2910
:104B40000ED13168316051F8042B3160002A3A628D
:104B500004D5514240F00400396280B26D1C13E06C
:104B6000002139620BE0396A6FF00043994205D0A9
:104B700001EB810302EB4301303939626D1C2A7865
:104B8000A2F130010A29EED329782E2903D04FF063
:104B9000FF31F9611FE015F8011F2A2907D131689B
:104BA00031606D1C51F8042B3160FA6113E0002173
:104BB000F9610BE0F9696FF00043994205D001EB10
:104BC000810302EB43013039F9616D1C2A78A2F1AF
:104BD00030010A29EED3B8840FF24460297800F03E
:104BE00067FB08B115F8010B8DF832009DF8320013
:104BF000682804BF2878682803D162208DF8320025
:104C00006D1C0DA8B86015F8014B252C13D0582C3D
:104C10004BD0632C00F0A380642C18BF692C7CD08F
:104C20006F2C42D0702C36D0732C0AD0752C18BF44
:104C3000782C3AD0B6E00120F86025208DF83400B9
:104C4000BAE09DF832006C283068306018D050F817
:104C5000044B30607C60D7F81CA0BAF1000F04D57B
:104C60002046FFF7B3FB824607E05246002120466C
:104C700000F02AFB08B1A0EB040AC7F810A09BE0E3
:104C800050F8042B306002A9404600F02DF90028AE
:104C900040F192803CE23068306050F8041B306094
:104CA00002910DA87860782155E09DF832006C28BB
:104CB0000DD0712818BF6A2809D13068C01D20F0B6
:104CC00007023260D2E900010832326004E0316844
:104CD000316051F8040B316002909DF83200682871
:104CE00002D102A8008803E0622802D102A800785D
:104CF000029097F82400000728D5029830B344F0BA
:104D00002000782822D1F868302109F80010401CD2
:104D1000411CF96009F8004018E09DF83200314666
:104D200000F0BCF80028029002D5F8682D2109E0B7
:104D3000B88C810702D5F8682B2103E0C00705D5A0
:104D4000F868202109F80010401CF8600DA8F968E7
:104D500008447860214602A800F0DFF92CE09DF8B5
:104D600032006C2809D00120F8603068306050F8BB
:104D7000041B30608DF834101EE03068306001AAEA
:104D800050F8041B3060ADF804100020ADF80600A8
:104D900002A94FF0FF30F861404600F0A5F8002866
:104DA0000AD577E70120F86025208DF834001CB182
:104DB0000220F86089F80140386AF968401A796978
:104DC000401A3969441A97F82400400711D420206A
:104DD000012C8DF800000CDBA24601236A4602A9D3
:104DE000404600F001FA00287FF454AFBAF1010AFE
:104DF000F3D1D7F80CB0BBF1000F0DF1340A0DD090
:104E00001AF8011B0398C047002803903FF442AFF3
:104E1000B869401CBBF1010BB861F1D1D7F814A0FF
:104E20003020BAF1010F8DF800000BDB01236A4638
:104E300002A9404600F0D8F900287FF42BAFBAF160
:104E4000010AF3D1D7F810B0D7F804A0BBF1000FD6
:104E50000DD01AF8011B0398C047002803903FF4B7
:104E600019AFB869401CBBF1010BB861F1D197F8DB
:104E7000240040077FF50EAE2020012C8DF80000A5
:104E8000FFF608AE01236A4602A9404600F0ACF9DD
:104E900000287FF4FFAE641EF4D1FBE5622815D034
:104EA00068280CD06C2818BF742816D07A2814D122
:104EB0000A680A6052F8040B0A60002170470A6809
:104EC0000A6052F8040B0A6000B20BE00A680A603C
:104ED00052F8040B0A6040B204E00A680A6052F813
:104EE000040B0A60C11770472DE9F44F0D4694B0CA
:104EF0002F6A002F804648BF6FF0004700F010FA7D
:104F0000696A401801900FF22030D0E90023CDE902
:104F1000022395F82800400702D40198412805D2C1
:104F200040200DF110090190002606E000F0FEF986
:104F30005FEA0009F8D1EBE03F1B012FC0F294803B
:104F40001498018802AA0DF1010000F047FA002828
:104F5000044600F19C801498008810B9641E00F18A
:104F60009680A742C0F28080286901992218914258
:104F700068D26E624042A969401A6969461A95F87A
:104F80002800400710D42020012E8DF800000BDBF4
:104F9000B24601236A462946404600F025F900281A
:104FA00075D1BAF1010AF4D1D5F810B0BBF1000FF8
:104FB000CA460CD01AF8011B6868C0470028686010
:104FC00065D0E869401CBBF1010BE861F2D13020EB
:104FD0008DF80000D5F818A0BAF1010F0ADB012303
:104FE0006A462946404600F0FFF800284FD1BAF142
:104FF000010AF4D1D5F814B0D5F808A0BBF1000F20
:105000000CD01AF8011B6868C047002868603ED0C1
:10501000E869401CBBF1010BE861F2D195F828006A
:1050200040070DD52020012E8DF8000008DB01235C
:105030006A462946404600F0D7F840BB761EF6D1B6
:1050400000262E61224628690DF10101484400F036
:10505000D3F92869201828611498801C1490801EA8
:10506000008800287FF468AF686A2969401AA96936
:10507000401A6969471A95F8280040070FD4012F94
:105080000DDB3C4668682021C047686010B94FF0CE
:10509000FF3635E0E869401C641EE861F2D12B69F7
:1050A0004A462946404600F09FF80028EFD1AC69F7
:1050B000012C0ADB68683021C04700286860E6D010
:1050C000E869401C641EE861F4D16B69AA6829464E
:1050D000404600F089F80028D9D195F8280040070B
:1050E0000CD5012F0ADB68682021C04700286860C2
:1050F000CDD0E869401C7F1EE861F4D12E616E625C
:1051000004A881451CBF484600F0B2F9304601E0D2
:105110004FF0FF3015B0BDE8F08FF0B4C2686F29D2
:1051200008BF082405D041F02003782B14BF0A24BF
:10513000102418230668642918BF6929374602D14C
:10514000002E48BF7F425FB9056A4DB9082C27D1B0
:1051500090F82810090723D530211723D1751FE0B7
:10516000B7FBF4F604FB16773037FFB25D1E3A2F1B
:10517000A4BFA1F1510C674457552B46370003D00B
:105180008568D618B542EBD3082C09D190F82810C1
:10519000090705D5D15C302902D05B1E3021D154DE
:1051A0001A448260C3F11801026A4161914208DA2F
:1051B000511A81614FF6EF72018D11400185F0BCEB
:1051C0007047002A0ED590F8282002F01402102A09
:1051D00008D1426A0369D21A8369D21A531A012B81
:1051E000A8BF8361F0BC7047F8B504460D4616466B
:1051F0001F46002077B116F8011B6868A047686059
:1052000030B1E869401CE86100207F1EF3D1F2BD97
:105210004FF0FF30F2BD0000000000000000000071
:10522000686C747A4C000000000000000000000070
:10523000401810F0030308D0C91A1FD3DB0748BF7A
:1052400000F8012D28BF20F8022D130030B41446B9
:105250001546103928BF20E93C00FAD8490728BF75
:1052600020E90C0048BF40F8042D890028BF20F831
:10527000022D48BF00F8012D30BC7047C91818BF77
:1052800000F8012DCB0728BF00F8012D7047F8B5B5
:1052900004460D4616461F4600F02AF93B463246A4
:1052A0002946204601B0BDE8F04000F038B90000C2
:1052B0000278C9B28A421AB11CBF10F8012FF9E76F
:1052C00018BF002070470000C9B2830706D0521EE5
:1052D00022D310F8013B9942F7D11FE0083A13D3CB
:1052E00002F1040241EA012141EA014150F8043B84
:1052F000121F21BF4B40A3F1013C2CEA030C1CF010
:10530000803FF3D0C9B2001F083210F8013B521E93
:1053100028BF91EA030FF8D818BF0120401E70473C
:1053200080B500F0E5F8012002BD000070B505462B
:1053300005F10F00C408C046C046E400A54232D2C1
:10534000082C04D2082402E0083000F091F822482A
:10535000026811000CD1011D0A6802B31368A34250
:1053600038BF111DF8D310E01D68A5420DD2191DDC
:105370000B68002BF8D11268011D00E0191D0B68A5
:1053800093420CD01D68A542F8D361B10D682A681C
:10539000A2F10803A3420AD26A680A600FE000F093
:1053A000E1F80028D0D1C046C046002070BD2B19BE
:1053B0000B60121B6E685E600B681A602C600968D7
:1053C00000291DBF4A68002A091D00210160C0464E
:1053D000C04605F1080070BDC80A002070B504463B
:1053E0000D46164600F084F8324629462046BDE8B0
:1053F000704000F087B8000062B38B0708D0521EDF
:1054000011F8013B00F8013B00F024808B07F6D136
:10541000830740F0208000BF103A07D330B4B1E8D2
:105420003810103AA0E83810F9D230BC530724BF26
:10543000B1E80810A0E8081044BF51F8043B40F858
:10544000043BD20724BF31F8022B20F8022B44BFC3
:105450000B7803707047083A07D3B1E80810083A90
:1054600040F8043B40F804CBF7D25307E4E70000D0
:1054700000B9704738B5A0F108042068082833D374
:1054800010F0070F30D1C046C0461848416809B136
:105490008C4203D26160446017E019464B680BB13F
:1054A000A342FAD30B68CD18AC421BD3A54204D15A
:1054B0002268D2180A600C4607E04A681AB12368CD
:1054C00023449A420ED362604C60616851B12268F5
:1054D000A3188B4206D1002303600868801820605F
:1054E00048686060C046C04631BD0000C80A002060
:1054F00080B5DFF80C0000F04BF8806902BD0000B9
:105500008401002030B430B90FF24800D0E90045E2
:10551000C2E900451BE00170012030BC704730B487
:1055200031B90FF23800D0E90045C3E900450EE07B
:105530001AB930BC6FF00100704708B10A780280D8
:105540000978481E804130BCC043C00F704700201E
:1055500030BC7047000000000000000000000000A8
:10556000000000000749086808B10020704706489D
:10557000C008C00008600549C908C900091A0160CF
:10558000704700BFD40A0020F7050020F007002074
:105590007047000010B582B0044600208DF800006E
:1055A0006946204600F0B6FB60B39DF80000217804
:1055B000884227D10421204600F0F6FC10B3A068F1
:1055C000DFF80417006801604021204600F00CFC61
:1055D000C0B10021204600F0D8FB98B10021204640
:1055E00000F0A4FB70B10821204600F050FC48B147
:1055F0001021204600F07AFC20B12021204600F046
:10560000A4FC10B9012002B010BD0120E07002B06E
:10561000002010BD30B5044681B0A06805680020A8
:105620008DF800006946204600F074FB90B19DF8AB
:105630000000217888420DD1207980B1A0680168EE
:10564000204600F06BF9012804D00021204600F02C
:105650009CFB10B9012001B030BD0020207100205A
:105660002860E07001B030BD10B5044620790128F3
:1056700038D0A068006890ED000ADFEDA40AB4EE0F
:10568000600AF1EE10FA48BF202123D4DFEDA00A12
:10569000B4EE600AF1EE10FA48BF40211AD4DFEDF3
:1056A0009D0AB4EE600AF1EE10FA48BF602111D4F1
:1056B000DFED990AB4EE600AF1EE10FA48BF8021DE
:1056C00008D4DFEDB50AB4EE600AF1EE10FA4CBF73
:1056D000A021C021204600F058FB08B9012010BDD0
:1056E00001202071002010BD30B5044681B0207922
:1056F00000283ED0A068056868680178012909D1B2
:10570000406828600021204600F03FFB78BB012064
:1057100001B030BD6946204600F056FB20B39DF82D
:1057200000000028EDD0202818D0402813D0602891
:105730000ED0802809D0A02804D0C02811D1DFF8CD
:105740009405DEE7DFF88805DBE7DFF88005D8E7BA
:10575000DFF87405D5E7DFF86C05D2E7DFF88405DC
:10576000CFE7DFF884052860012001B030BD0020BC
:10577000207101B030BD00B581B000F0CBFA401E01
:105780008041C00F01B000BD10B582B004460020BA
:105790008DF800006946204600F0BCFA20B19DF863
:1057A00000002178884202D0012002B010BD002004
:1057B00002B010BD2DE9F04184B088460021CDE94A
:1057C00000110446694600F02EFB002850D09DF8D9
:1057D00001109DF800209DF8040002EB01269DF8C1
:1057E00003109DF8022002EB01279DF8051000EB45
:1057F000012502A9204600F0B8FAC8B39DF80800B8
:1058000078B1082804D0102808D0182803D02FE039
:105810009FED790A07E09FED790A04E09FED780A91
:1058200001E09FEDB00A36B200EE906AF8EEE00AB1
:1058300060EE800AFDEEE00AC8ED000A3FB200EE1D
:10584000907AF8EEE00A60EE800AFDEEE00AC8ED1C
:10585000010A2DB200EE905AF8EEE00A20EE800A1E
:10586000BDEEC00A88ED020A002004B0BDE8F08158
:10587000012004B0BDE8F08110B582B00C46694645
:105880000022C1E9002200F0CEFA10B9012002B0D6
:1058900010BD9DF801109DF8002002EB0121218030
:1058A0009DF802209DF8031002EB012161809DF814
:1058B00004009DF8051000EB0120A08002B000203C
:1058C00010BD10B582B00C46694600F04EFA10B912
:1058D000012002B010BD9DF8000058B1082812D078
:1058E00010280CD018280CD0DFF8FC03206002B080
:1058F000012010BD7B48206002B0002010BD404850
:10590000F9E73E48F7E73C48F5E700000100204191
:10591000010048420100EE4201006E4310B582B022
:105920000C468168096849680A78012A02D14868EA
:1059300020601CE0694600F047FA10B9012002B06F
:1059400010BD9DF8000088B1202813D0402814D045
:10595000602815D0802816D0A02817D0C02818D0CD
:10596000DFF88403206002B0012010BD2060002019
:1059700002B010BDDFF86C03F8E7DFF84803F5E785
:10598000DFF84403F2E7DFF84403EFE7DFF8400312
:10599000ECE7DFF84003E9E70100EE4300B581B032
:1059A0000279012A11D104290CD8DFE801F0070798
:1059B00005050300602102E0402100E0202100F005
:1059C000E4F9A8B9012001B000BD8068006804298D
:1059D000F8D8DFE801F00A0A07070400F2E7DFF869
:1059E000E81204E0DFF8DC1201E0DFF8F8120160F1
:1059F000002001B000BD00005A643B3F23DB793E2C
:105A000023DBF93D00B581B001790129DFED680A9A
:105A100030D1B4EE600AF1EE10FA48BF202123D451
:105A2000DFED640AB4EE600AF1EE10FA48BF4021DF
:105A30001AD4DFED610AB4EE600AF1EE10FA48BF45
:105A4000602111D4DFED9D0AB4EE600AF1EE10FA88
:105A500048BF802108D4DFED9A0AB4EE600AF1EE67
:105A600010FA4CBFA021C02100F08FF9B8BB012073
:105A700001B000BD80680068B4EE600AF1EE10FA73
:105A800048BFB2EE040A28D4DFED4A0AB4EE600A39
:105A9000F1EE10FA48BF9FED8B0A1ED4DFED460AE7
:105AA000B4EE600AF1EE10FA48BF9FED870A14D4F5
:105AB000DFED820AB4EE600AF1EE10FA48BF9FED06
:105AC000830A0AD4DFED7E0AB4EE600AF1EE10FA22
:105AD0004CBF9FED7F0A9FED7F0A80ED000A0020FA
