:020000040800F2
:1000000050100020C9D20008A5D20008A7D20008CD
:10001000EDD20008F1D20008F5D20008000000007F
:10002000000000000000000000000000F9D20008FD
:10003000A9D2000800000000FDD20008ABD20008E1
:1000400001D3000805D3000809D300080DD3000828
:1000500011D3000815D3000819D300081DD30008D8
:1000600021D3000825D3000829D300082DD3000888
:1000700031D3000835D3000839D300083DD3000838
:1000800041D3000845D3000849D300084DD30008E8
:1000900051D3000855D3000859D300085DD3000898
:1000A00061D3000865D3000869D300086DD3000848
:1000B00071D3000875D3000879D300087DD30008F8
:1000C00081D3000885D3000889D300088DD30008A8
:1000D00091D3000895D3000899D300089DD3000858
:1000E000AFD20008A1D30008A5D30008A9D3000807
:1000F000ADD3000800000000B1D30008B5D300085C
:10010000B9D30008BDD30008C1D30008C5D3000887
:10011000C9D30008CDD30008D1D3000800000000E7
:10012000D5D3000810B582B0044600208DF8000039
:100130006946204601F0D6FE002831D09DF8000027
:10014000217888422CD10421204602F012F938B3DC
:100150004021204601F0D2FE10B30021204602F0DB
:100160008CF8E8B1A168DFF8240B09680860002169
:10017000204601F035FF98B10021204601F0DDFE58
:1001800070B10821204602F070F948B110212046D4
:1001900002F09AF920B12021204602F0C4F910B9EA
:1001A000012002B010BD0120E07002B0002010BD9F
:1001B00030B5044681B0A068056800208DF80000C5
:1001C0006946204601F08EFE002800F094809DF8DC
:1001D00000002178884240F08E800021204602F005
:1001E0009CFE002800F087800021204602F001FEDE
:1001F000002800F080800021204602F0DBFD00286E
:1002000079D00021204602F04AFE002873D0002158
:10021000204602F0BCFC00286DD00021204602F0F0
:1002200089F8002867D00021204602F073FC0028DE
:1002300061D00021204602F051FA00285BD0002155
:10024000204602F0F5FE002855D00021204602F09D
:10025000A2FE00284FD00021204602F07AFC0028A0
:1002600049D00021204602F0B1FC002843D00021F3
:10027000204602F0C9FC00283DD00021204602F0B3
:10028000CDFB002837D00021204602F0E6FB0028F5
:1002900031D00021204602F0FFFB60B30021204650
:1002A00002F01CFE38B30021204602F052FC10B3CD
:1002B0000021204602F08AFCE8B10021204602F02D
:1002C000A3FCC0B10021204602F0BCFC98B1002183
:1002D000204602F0F5FC70B10021204602F09EFBA2
:1002E00048B10021204602F0B8FB20B10021204691
:1002F00002F0D2FB10B9012001B030BD0021204630
:1003000002F0AEFD0028F6D00021204602F0E3FB0B
:100310000028F0D00021204602F0E0F90028EAD0C1
:100320000021204602F018FE0028E4D000212046DB
:1003300002F022FD0028DED00021204602F0A2FCBF
:100340000028D8D0207970B1A0680168204600F05C
:1003500084F90128CFD00021204601F041FE002879
:10036000C9D00020207100202860E07001B030BDAD
:1003700010B504462079012849D0A068DFF82C1A6E
:100380000068006802F094FE38BF102137D3DFF810
:10039000201A02F08DFE38BF202130D3DFF8141A66
:1003A00002F086FE38BF302129D3DFF80C1A02F0A4
:1003B0007FFE38BF402122D3DFF8001A02F078FE1A
:1003C00038BF50211BD3DFF8F81902F071FE38BF97
:1003D000602114D3DFF8EC1902F06AFE38BF7021F7
:1003E0000DD3DFF8E41902F063FE38BF802106D395
:1003F000DFF8981B02F05CFE34BF9021A02120465C
:1004000001F0EEFD08B9012010BD0120207100208F
:1004100010BD30B5044681B0207900284DD0A068C9
:1004200005686946204601F0FAFD002840D09DF895
:100430000000002830D010282CD0202827D03028C9
:1004400022D040281DD0502818D0602813D0702802
:100450000ED0802809D0902804D0A02825D1DFF81C
:100460002C0A19E0DFF8280A16E0DFF8280A13E062
:10047000DFF8240A10E0DFF8240A0DE0DFF8200A94
:100480000AE0DFF8080807E0DFF88C0A04E0DFF88C
:100490008C0A01E0DFF8880A28600021204601F07C
:1004A0009FFD40B9012001B030BDDFF8F00B28609E
:1004B000012001B030BD0020207101B030BD00B579
:1004C00081B001F00FFD401E8041C00F01B000BDA2
:1004D00010B582B0044600208DF800006946204621
:1004E00001F000FD20B19DF800002178884202D083
:1004F000012002B010BD002002B010BD2DE9F04176
:1005000084B00C460021CDE900118046694601F017
:1005100043FD00284ED09DF801109DF800209DF865
:10052000040002EB01269DF803109DF8022002EB67
:1005300001279DF8051000EB012502A9404601F0B6
:100540001BFD002836D09DF808000C2832D8DFE8C3
:1005500000F010313131073131310D3131310A00C4
:10056000DFF82C8A07E0DFF82C8A04E0DFF8288A1D
:1005700001E0DFF8288A30B202F0ACFD414602F01B
:10058000C3FD02F02DFE206038B202F0A3FD41460B
:1005900002F0BAFD02F024FE606028B202F09AFD7B
:1005A000414602F0B1FD02F01BFEA06004B0002045
:1005B000BDE8F081012004B0BDE8F08110B582B043
:1005C0000C4669460022C1E9002201F0E5FC10B9A1
:1005D000012002B010BD9DF801109DF8002002EB33
:1005E000012121809DF802209DF8031002EB0121DA
:1005F00061809DF804009DF8051000EB0120A080AB
:1006000002B0002010BD000010B582B00C46694653
:1006100001F0B2FCF0B19DF800000C2817D8DFE81B
:1006200000F007161616131616160D1616161000DD
:10063000DFF86809206002B0002010BDDFF858091B
:10064000F8E7DFF85009F5E7DFF84409F2E7DFF8EB
:100650004C0A2060012002B010BD10B582B00C46DB
:10066000694601F0DCFC10B9012002B010BD9DF814
:100670000000C8B110281BD020281CD030281DD065
:1006800040281ED050281FD0602820D0702821D0AC
:10069000802822D0902823D0A02824D0DFF8FC097D
:1006A000206002B0012010BD206002B0002010BD0B
:1006B000DFF86C08F8E7DFF86408F5E7DFF85808BA
:1006C000F2E7DFF8C805EFE7DFF8D407ECE7DFF87B
:1006D000CC07E9E7DFF8C007E6E7DFF8B807E3E7AC
:1006E000DFF8AC07E0E7DFF8A407DDE700B581B08D
:1006F0000279012A13D104290ED8DFE801F0090993
:1007000007050300402104E0302102E0202100E041
:10071000102101F065FCC0B9012001B000BD806866
:1007200000680429F8D8DFE801F00D0D0A0704007D
:10073000F2E7DFF8581507E0DFF8DC1704E0DFF830
:10074000DC1701E0DFF8D8170160002001B000BD20
:1007500000B581B0024608461379DFF85016012B28
:1007600044D102F0A5FC38BF102137D3DFF8401682
:1007700002F09EFC38BF202130D3DFF8381602F09B
:1007800097FC38BF302129D3DFF82C1602F090FCFB
:1007900038BF402122D3DFF8241602F089FC38BF8D
:1007A00050211BD3DFF8181602F082FC38BF6021FD
:1007B00014D3DFF8101602F07BFC38BF70210DD384
:1007C000DFF8041602F074FC38BF802106D3DFF88E
:1007D000BC1702F06DFC34BF9021A021104601F03F
:1007E000FFFB00284CD1012001B000BD92681268C7
:1007F00002F05EFC38BFDFF8280740D3DFF8B01501
:1008000002F056FC38BFDFF8140738D3DFF8A41520
:1008100002F04EFC38BFDFF8000730D3DFF8981540
:1008200002F046FC38BFDFF8640428D3DFF88C15EB
:1008300002F03EFC38BFDFF8680620D3DFF88015F1
:1008400002F036FC38BFDFF8540618D3DFF8741511
:1008500002F02EFC38BFDFF8400610D3DFF8681531
:1008600002F026FC38BFDFF82C0608D3DFF81C178F
:1008700002F01EFC34BFDFF81806DFF81006106027
:10088000002001B000BD000010B582B00C466946E2
:1008900001F072FBF0B19DF800000C2817D8DFE8DA
:1008A00000F007161616131616160D16161610005B
:1008B0004FF08040206002B0002010BD4FF081401A
:1008C000F8E74FF08240F5E74FF08340F2E7DFF8BA
:1008D000CC072060012002B010BD000000B5042943
:1008E00081B010D8DFE801F0030F0B0F0D000021DD
:1008F00001F023FB401E8041C00F01B000BD082164
:10090000F6E70C21F4E7012001B000BD02460846DD
:10091000DFF8A01A00B502F0CBFB81B038BF002190
:100920000DD3DFF8941A02F0C3FB38BF082106D3B9
:10093000DFF8441C02F0BCFB34BF0C21042110463C
:1009400001F0FBFA401E8041C00F01B000BD30B580
:1009500081B00D4604460DF1020101F0A5FD50B134
:100960000DF10101204601F0CEFD20B1694620467F
:1009700001F0F8FD10B9012001B030BD9DF8020072
:1009800008280CBF0120002028709DF801001028C5
:100990000CBF0120002068709DF8000020280CBFCB
:1009A00001200020A87001B0002030BD30B50D46F8
:1009B00081B00446287801280CBF08210021204678
:1009C00001F053FD40B1687801280CBF10210021CF
:1009D000204601F079FD10B9012001B030BDA878A2
:1009E00001280CBF20210021204601F09CFD401E63
:1009F0008041C00F01B030BD00B581B0012301F0CE
:100A000068FA401E8041C00F01B000BD00B581B042
:100A100001238DF800206A4601F052FA401E804101
:100A2000C00F01B000BD10B582B00C46694601F0A0
:100A300024FF48B19DF80000002818BF012803D109
:100A4000207002B0002010BD012002B010BD10B512
:100A500082B0044600208DF800006946204601F06F
:100A600041FA002831D09DF80000217888422CD12D
:100A70000421204601F07DFC38B34021204601F0DE
:100A80003DFA10B30021204601F0F7FBE8B1A16860
:100A9000DFF89004096808600021204601F0FEFAA2
:100AA00098B10C21204601F0CAFA70B10821204605
:100AB00001F087FD48B11021204601F0B1FD20B1C1
:100AC0002021204601F0DBFD10B9012002B010BD4D
:100AD0000120E07002B0002010BD70B5044682B065
:100AE000A068056800208DF800006946204601F0E6
:100AF000F9F9002848D09DF800002178884243D1B8
:100B00002079002838D0A06806686946204601F0A0
:100B1000E4FA002838D09DF8000028B3102821D02E
:100B200020281CD0302817D0402813D050280ED0B1
:100B3000602809D0702804D0802822D1DFF854031F
:100B400012E0DFF854030FE0DFF850030CE0DFF8A9
:100B5000500309E04D4807E0DFF8BC0304E0DFF88C
:100B6000BC0301E0DFF8B80330600021204601F04B
:100B700095FA48B10020207100202860E07002B092
:100B800070BDDFF818053060012002B070BD10B5EF
:100B900004462079012834D0A068844900680068A0
:100BA00002F086FA38BF102123D3814902F080FA7F
:100BB00038BF20211DD37F4902F07AFA38BF302197
:100BC00017D37D4902F074FA38BF402111D37B4915
:100BD00002F06EFA38BF50210BD3794902F068FA5F
:100BE00038BF602105D3774902F062FA34BF702123
:100BF0008021204601F052FA08B9012010BD0120E1
:100C00002071002010BD30B5044681B02079002845
:100C10003AD0A06805686946204601F05EFA0028CF
:100C20002DD09DF80000F0B110281BD0202817D03F
:100C3000302813D040280FD050280BD0602807D080
:100C4000702803D0802817D192480CE092480AE01F
:100C5000924808E0924806E00C4804E0AE4802E002
:100C6000AE4800E0AE4828600021204601F016FAA8
:100C700040B9012001B030BDDFF820042860012018
:100C800001B030BD0020207101B030BD0000D04265
:100C900000B581B001F026F9401E8041C00F01B0BF
:100CA00000BD10B582B0044600208DF800006946F2
:100CB000204601F017F920B19DF800002178884204
:100CC00002D0012002B010BD002002B010BD000013
:100CD0002DE9F04184B080460C4601A80021C0E90E
:100CE0000011404601A901F008FA00285AD001A8D5
:100CF0009DF80420417802EB01269DF807108278C8
:100D0000007902EB01279DF8091000EB01250DF198
:100D10000101404601F034FA002843D09DF801005B
:100D2000022808BFDFF8DC8A1DD06946404601F082
:100D3000A5F9002836D09DF800000C2832D8DFE84D
:100D400000F0103131310D3131310A3131310700CC
:100D5000DFF8B48A07E0DFF8B48A04E0DFF8B08A8D
:100D600001E0DFF8CC8B30B202F0B4F9414602F07A
:100D7000CBF902F035FA206038B202F0ABF9414607
:100D800002F0C2F902F02CFA606028B202F0A2F977
:100D9000414602F0B9F902F023FAA06004B0002045
:100DA000BDE8F081012004B0BDE8F08101005041B0
:100DB0000100D041010050420100D04201005043E7
:100DC0000100D043014050440180CF4410B582B0AF
:100DD0000C4669460022C1E9002201F08EF910B9E3
:100DE000012002B010BD9DF801109DF8002002EB1B
:100DF000012121809DF802209DF8031002EB0121C2
:100E000061809DF804009DF8051000EB0120A08092
:100E100002B0002010BD000030B581B00C46054680
:100E20000DF1010101F0ACF970B19DF8010002284B
:100E300005D1DFF8D009206001B0002030BD69463F
:100E4000284601F01BF910B9012001B030BD9DF812
:100E500000000C2814D8DFE800F0071313130A135E
:100E600013130D1313131000DFF8C40AE3E7DFF8C0
:100E7000A009E0E7DFF89409DDE7DFF88C09DAE79D
:100E80008648206001B0012030BD00000020D04520
:100E9000002050450080CF44004050440000D04323
:100EA0000000504310B582B00C46694601F015F9B8
:100EB00010B9012002B010BD9DF80000A0B11028AB
:100EC00016D0202816D0302816D0402816D050280A
:100ED00016D0602817D0702818D0802819D06F48F5
:100EE000206002B0012010BD206002B0002010BDC3
:100EF0000B48F9E70948F7E70748F5E70948F3E73A
:100F0000DFF8300AF0E7DFF8300AEDE7DFF82C0A07
:100F1000EAE7DFF8F40BE7E7000050420000D041B9
:100F2000000050410000D04200B581B00279012A92
:100F300013D104290ED8DFE801F0090907050300E1
:100F4000402104E0302102E0202100E0102101F0E6
:100F5000A5F8C0B9012001B000BD8068006804296F
:100F6000F8D8DFE801F00D0D0A070400F2E7DFF81A
:100F7000D01907E0DFF8CC1904E0DFF8CC1901E064
:100F8000DFF8881B0160002001B000BD0120504542
:100F900023DBF93E23DB793E23DBF93D23DB793D7F
:100FA00000B581B0024608461379DFF8641B012BB7
:100FB00036D102F07DF838BF102129D3DFF8541B59
:100FC00002F076F838BF202122D3DFF84C1B02F064
:100FD0006FF838BF30211BD3DFF8401B02F068F8F0
:100FE00038BF402114D3DFF8381B02F061F838BF56
:100FF00050210DD3DFF82C1B02F05AF838BF6021C6
:1010000006D3DFF8241B02F053F834BF702180218F
:10101000104601F043F800283CD1012001B000BD8A
:101020009268126802F044F838BFDFF8E00A30D363
:10103000DFF8E01A02F03CF838BFDFF80C0928D3DB
:10104000DFF8D41A02F034F838BFDFF8F80820D3FC
:10105000DFF8C81A02F02CF838BFDFF8E40818D31C
:10106000DFF8BC1A02F024F838BFDFF8C80810D344
:10107000DFF8B01A02F01CF838BFDFF8BC0808D35C
:10108000DFF8A41A02F014F834BFDFF8B008DFF874
:10109000780A1060002001B000BD0000000080BF91
:1010A00030B581B00C460546694601F069F828B1B3
:1010B0000DF10101284600F0E1FF10B9012001B057
:1010C00030BD9DF80000022805D1DFF8600A2060DD
:1010D00001B0002030BD9DF801000C2814D8DFE8D5
:1010E00000F0071313130A1313130D131313100037
:1010F000DFF8C80BEBE7DFF8C80BE8E7DFF8C40B55
:10110000E5E7DFF8C40BE2E7DFF8C00B206001B0D1
:10111000012030BD00B5042981B010D8DFE801F00E
:10112000030F0B0F0D00002100F089FF401E8041CE
:10113000C00F01B000BD0421F6E70C21F4E7012047
:1011400001B000BD30B504460846DFF8841B01F04D
:10115000AFFF81B007D20221204600F0F2FF10B3AA
:10116000002001B030BDDFF86C1B01F0A1FF38BFDB
:1011700000250DD3DFF8601B01F09AFF38BF04256E
:1011800006D3DFF8E41B01F093FF34BF08250C25DC
:101190000021204600F0D5FF28B12946204600F066
:1011A0004EFF0028DCD1012001B030BD30B581B048
:1011B0000D4604460DF1020101F022FA50B10DF185
:1011C0000101204601F04BFA20B16946204601F0AA
:1011D00075FA10B9012001B030BD9DF80200082851
:1011E0000CBF0120002028709DF8010010280CBFC2
:1011F0000120002068709DF8000020280CBF01200D
:101200000020A87001B0002030BD30B50D4681B07F
:101210000446287801280CBF08210021204601F04F
:10122000D0F940B1687801280CBF10210021204678
:1012300001F0F6F910B9012001B030BDA8780128FD
:101240000CBF20210021204601F019FA401E8041E8
:10125000C00F01B030BD00B581B0012300F039FEF0
:10126000401E8041C00F01B000BD00B581B0012318
:101270008DF800206A4600F023FE401E8041C00F1A
:1012800001B000BD10B582B00C46694601F005FB07
:1012900048B19DF8000010B1022804D1012020704F
:1012A00002B0002010BD012002B010BD0246084669
:1012B000DFF85C1800B501F0FBFE81B038BF1021EB
:1012C00037D3DFF8501801F0F3FE38BF202130D3B8
:1012D000DFF8441801F0ECFE38BF302129D3DFF8E5
:1012E0003C1801F0E5FE38BF402122D3DFF830186A
:1012F00001F0DEFE38BF50211BD3DFF8281801F0C3
:10130000D7FE38BF602114D3DFF81C1801F0D0FEDF
:1013100038BF70210DD3DFF8541A01F0C9FE38BF71
:10132000802106D3DFF8481A01F0C2FE34BF9021B5
:10133000A021104600F054FE401E8041C00F01B0B5
:1013400000BD10B50446DFF8F0152079012805D15D
:101350002046FFF7ABFF012803D110BDA06800684D
:1013600001600021204600F0E8FDC0B106212046C2
:1013700001F03FFD98B10021204601F0FDFC70B165
:101380000021204601F0D9FC48B10021204601F09F
:10139000B6FC20B10321204601F00CFD08B9012064
:1013A00010BD1021204601F0B8FD401E8041C00F45
:1013B00010BD0000010000400100804010B504464F
:1013C000002101F0AAFD20B10021204601F011FD0D
:1013D00008B9012010BD0021204601F0EBFC401EA1
:1013E0008041C00F10BD10B582B00C46694601F0B7
:1013F000A4F948B19DF8000010B1202804D10120C3
:10140000207002B0002010BD012002B010BD00B558
:1014100081B001F0CFFC401E8041C00F01B000BD83
:1014200010B50446DFF820152079012805D12046A3
:10143000FFF73CFF012803D110BDA06800680160E0
:101440000021204600F079FD70B11721204601F0FF
:10145000EFFD48B10421204601F040F920B14021C0
:10146000204601F057FB08B9012010BD802120461D
:1014700000F060FF401E8041C00F10BD10B5044653
:10148000002100F057FF48B10021204601F042FB47
:1014900020B10021204601F021F908B9012010BD3A
:1014A0000021204601F0C4FD401E8041C00F10BD48
:1014B00010B582B00C46694601F071FA48B19DF84A
:1014C000000010B1102804D10120207002B00020CB
:1014D00010BD012002B010BD00B581B001F091FD3A
:1014E000401E8041C00F01B000BD00B581B0022197
:1014F00001F048F8401E8041C00F01B000BD00B5AA
:1015000081B0002101F03EF8401E8041C00F01B0C3
:1015100000BD00B581B001F08BFD401E8041C00FC1
:1015200001B000BD10B50446DFF81C142079012875
:1015300005D12046FFF7BAFE012803D110BDA068EF
:10154000006801600021204600F0F7FC48B104214A
:10155000204601F0C3F820B12021204601F0BBFA5B
:1015600008B9012010BD0221204601F079FC401E7F
:101570008041C00F10BD00000100004110B50446BD
:10158000002101F06DFC20B10021204601F0A3FAFA
:1015900008B9012010BD0021204601F09FF8401E2F
:1015A0008041C00F10BD10B582B00C46694601F0F5
:1015B00006FA48B19DF8000010B1202804D101209E
:1015C000207002B0002010BD012002B010BD10B587
:1015D0000446DFF864132079012805D12046FFF77F
:1015E00065FE012803D110BDA068006801600021DC
:1015F000204600F0A2FC48B10021204601F0BCFBCF
:1016000020B10221204601F03DFB08B9012010BDA8
:101610002021204601F0A0FC401E8041C00F10BDDB
:1016200010B50446002101F097FC20B100212046AE
:1016300001F0A2FB08B9012010BD0021204601F0F5
:1016400021FB401E8041C00F10BD10B582B00C467A
:10165000694601F062F848B19DF8000010B1082811
:1016600004D10120207002B0002010BD012002B082
:1016700010BD00B581B001F005FB401E8041C00FD8
:1016800001B000BD10B50446AB492079012805D151
:101690002046FFF70BFE012803D110BDA0680068AB
:1016A00001600021204600F048FCE8B108212046F6
:1016B00001F0F2F9C0B10421204601F0CEF998B151
:1016C0000221204601F0AAF970B10821204601F05C
:1016D00040FA48B10221204601F078FA20B10121F8
:1016E000204601F091FA08B9012010BD40212046A2
:1016F00001F051FC401E8041C00F10BD10B50446E2
:10170000002101F048FCC0B10021204601F021FA7F
:1017100098B10021204601F059FA70B1002120460D
:1017200001F072FA48B10021204601F077F920B1AA
:101730000021204601F091F908B9012010BD0021D7
:10174000204601F0A9F9401E8041C00F10BD10B520
:1017500082B00C46694601F010F848B19DF80000CF
:1017600010B1202804D10120207002B0002010BD4B
:10177000012002B010BD10B504466F492079012840
:1017800005D12046FFF792FD012803D110BDA068C6
:10179000006801600021204600F0CFFB38B308212B
:1017A000204601F079F910B30421204601F055F9E3
:1017B000E8B10221204601F031F9C0B108212046EC
:1017C00001F0C7F998B10321204601F0FFF970B18B
:1017D0000321204601F018FA48B10821204601F003
:1017E00031FA20B18021204601F06AFA08B90120BF
:1017F00010BD0821204601F071FB401E8041C00F42
:1018000010BD000000008C4000008C4200000C4223
:1018100000008C4110B50446002101F05FFB10B3BD
:101820000021204601F095F9E8B10021204601F0A1
:10183000CDF9C0B10021204601F0E6F998B10021B0
:10184000204601F0FFF970B10021204601F038FA7E
:1018500048B10021204601F0E1F820B100212046E6
:1018600001F0FBF808B9012010BD0021204601F06D
:1018700013F9401E8041C00F10BD10B582B00C4658
:10188000694600F06AFF48B19DF8000010B11028C9
:1018900004D10120207002B0002010BD012002B050
:1018A00010BD00B581B001F054F9401E8041C00F59
:1018B00001B000BD00B581B001F088F9401E804143
:1018C000C00F01B000BD00B581B001F09DF9401E10
:1018D0008041C00F01B000BD00B581B001F0B2F988
:1018E000401E8041C00F01B000BD10B50446124932
:1018F0002079012805D12046FFF7D8FC012803D123
:1019000010BDA068006801600021204600F015FBB2
:1019100020B14021204601F03AF908B9012010BD5C
:101920000421204601F0BBFA401E8041C00F10BDCB
:1019300000000C41000050430000D04300405044E0
:101940000000D042000050420000D04110B50446D3
:10195000002101F0A4FA08B9012010BD00212046A1
:1019600001F015F9401E8041C00F10BD10B582B0C6
:101970000C46694600F071FF48B19DF8000010B1B7
:10198000402804D10120207002B0002010BD0120A9
:1019900002B010BD10B582B00C46694600F0FDFEE5
:1019A00048B19DF80000002818BF012803D120701D
:1019B00002B0002010BD012002B010BD10B582B0F1
:1019C0000C46694600F0F9FE48B19DF8000010B1E0
:1019D000022804D10120207002B0002010BD012097
:1019E00002B010BD10B582B00C46694600F0F5FE9D
:1019F00048B19DF8000010B1042804D101202070E6
:101A000002B0002010BD012002B010BD10B582B0A0
:101A10000C46694600F0F1FE48B19DF8000010B197
:101A2000082804D10120207002B0002010BD012040
:101A300002B010BD10B582B00C46694600F0EDFE54
:101A400048B19DF8000010B1102804D10120207089
:101A500002B0002010BD012002B010BD10B582B050
:101A60000C46694600F0E9FE48B19DF8000010B14F
:101A7000202804D10120207002B0002010BD0120D8
:101A800002B010BD02460846BA4900B501F010FB8D
:101A900081B038BF08212FD3B74901F009FB38BF07
:101AA000102129D3B54901F003FB38BF182123D3F6
:101AB000B34901F0FDFA38BF20211DD3B14901F02F
:101AC000F7FA38BF282117D3AF4901F0F1FA38BF30
:101AD000302111D3AD4901F0EBFA38BF38210BD3D7
:101AE000AB4901F0E5FA38BF402105D3A94901F01F
:101AF000DFFA34BF48215021104600F0DDFB401EC4
:101B00008041C00F01B000BD0080CF4400005041B3
:101B1000010050410100D041010050420100D0427B
:101B2000010050430100D043014050440000FA42FC
:101B300010B582B00C46694600F0F0FE68B19DF821
:101B4000000020B1202806D0012002B010BD207076
:101B500002B0002010BD0120F9E7012002B010BD45
:101B600010B582B00C46694600F0C8FE68B19DF819
:101B7000000020B1102806D0012002B010BD207056
:101B800002B0002010BD0120F9E7012002B010BD15
:101B900010B582B00C46694600F0D0FE68B19DF8E1
:101BA000000020B1402806D0012002B010BD2070F6
:101BB00002B0002010BD0120F9E7012002B010BDE5
:101BC00000B581B000F0CAFE401E8041C00F01B0D8
:101BD00000BD00B581B001F0FDF9401E8041C00F8D
:101BE00001B000BD00B581B000F067FE401E80412D
:101BF000C00F01B000BD00B5072981B006D800F0C4
:101C0000FEFA401E8041C00F01B000BD012001B0AE
:101C100000BD00B50A0018BF082981B00BD01029FB
:101C200018BF182907D0202918BF282903D0302928
:101C300018BF382906D100F001FB401E8041C00FBB
:101C400001B000BD012001B000BD000070B582B040
:101C50000D460446694601F0BDF900282BD09DF8D9
:101C600001009DF8001041EA00260DF10201204616
:101C700000F082F9F8B19DF802000C281BD8DFE8CB
:101C800000F00D1A1A1A071A1A1A0B1A1A1A090052
:101C9000414C04E0414C02E0414C00E0414C30B288
:101CA00001F018FA214601F02FFA01F099FA2860A4
:101CB00002B0002070BD012002B070BD000075436D
:101CC0000000FA4300007A440000FA44000080BF9C
:101CD0000100FA42010075430100FA4370B582B079
:101CE0000C4605460DF1020101F074F9002837D0C9
:101CF0009DF803009DF8021041EA00260DF1010154
:101D0000284600F03DFA00282AD09DF8010002285C
:101D100008BF254D18D06946284600F0AFF9F8B144
:101D20009DF800000C281BD8DFE800F00D1A1A1AE5
:101D30000B1A1A1A091A1A1A07001C4D04E01C4D36
:101D400002E01C4D00E01C4D30B201F0C3F9294601
:101D500001F0DAF901F044FA206002B0002070BD11
:101D6000012002B070BD000001007A440180CF4420
:101D700001205045010020410100C84101004842B6
:101D80000100C842010048430100C8430100484423
:101D90000100C84401404E4523DBF93E23DB793E78
:101DA00023DBF93D23DB793D00008C4000008C42B1
:101DB00000000C4200008C4100000C4100B50629D7
:101DC00081B00CD8DFE801F004040B04040B04001C
:101DD00000F053FA401E8041C00F01B000BD012049
:101DE00001B000BD00B50A0018BF202981B006D19E
:101DF00000F081FA401E8041C00F01B000BD0120FB
:101E000001B000BD00B581B000F0CAF9401E8041AC
:101E1000C00F01B000BD00B5012981B006D800F0A7
:101E2000C7FA401E8041C00F01B000BD012001B0C3
:101E300000BD00B5012981B006D800F0D0FD401EDC
:101E40008041C00F01B000BD012001B000BD00B550
:101E5000032981B006D800F0CAFA401E8041C00FA5
:101E600001B000BD012001B000BD00B5012981B065
:101E700006D800F0B4FD401E8041C00F01B000BD87
:101E8000012001B000BD000000B50C2981B00FD8C1
:101E9000DFE801F0070E0E0E070E0E0E070E0E0EF7
:101EA000070000F0C3FA401E8041C00F01B000BD22
:101EB000012001B000BD0268531C0360117070471F
:101EC00000B581B001F06BFA401E8041C00F01B037
:101ED00000BD00B581B001F079FA401E8041C00F0D
:101EE00001B000BD00B50A4681B001230F2101F009
:101EF0006DFA401E8041C00F01B000BD30B581B009
:101F00000D46044601236A46122101F05FFA10B122
:101F1000002001B030BD9DF8000000F0BF00284354
:101F20008DF8000001236A461221204601F037FA9D
:101F3000401E8041C00F01B030BD30B581B00D46AC
:101F4000044601236A46102101F040FA10B1002036
:101F500001B030BD9DF8000000F0F30028438DF87B
:101F6000000001236A461021204601F018FA401EA5
:101F70008041C00F01B030BD10B50C460123224690
:101F8000102101F023FA08B1002010BD207800F0E4
:101F90000C002070012010BDF0B581B004460D4644
:101FA00000260327F6B206F128010123AA19C9B2B7
:101FB000204601F00BFA50B9761CF6B206F1280162
:101FC0000123AA19C9B2204601F000FA10B100207D
:101FD00001B0F0BD761C7F1EE4D1012001B0F0BD40
:101FE00030B581B00D46044601236A46102101F048
:101FF000EDF910B1002001B030BD9DF8000000F0F7
:102000000F0028438DF8000001236A461021204666
:1020100001F0C5F9401E8041C00F01B030BD10B5C0
:102020000C4601232246102101F0D0F908B100200E
:1020300010BD207800F0F0002070012010BD30B5F8
:1020400081B00D46044601236A46112101F0BEF914
:1020500010B1002001B030BD9DF8000000F0F30089
:1020600028438DF8000001236A461121204601F023
:1020700096F9401E8041C00F01B030BD10B50C462E
:1020800001232246112101F0A1F908B1002010BD61
:10209000207800F00C002070012010BD30B581B018
:1020A0000D46044601236A46112101F08FF910B153
:1020B000002001B030BD9DF8000000F00F00284363
:1020C0008DF8000001236A461121204601F067F9CE
:1020D000401E8041C00F01B030BD10B50C46012339
:1020E0002246112101F072F908B1002010BD2078BC
:1020F00000F0F0002070012010BDF0B581B0044662
:102100000D4600260327F6B206F122010123AA1983
:10211000C9B2204601F05AF950B9761CF6B206F160
:1021200022010123AA19C9B2204601F04FF910B1CA
:10213000002001B0F0BD761C7F1EE4D1012001B06B
:10214000F0BD30B581B00D46044601236A46112129
:1021500001F03CF910B1002001B030BD9DF8000045
:1021600000F0FD0028438DF8000001236A4611218C
:10217000204601F014F9401E8041C00F01B030BD6F
:1021800010B50C4601232246112101F01FF908B1B8
:10219000002010BD207800F002002070012010BD4A
:1021A00070B582B0044601236A460D46062101F04F
:1021B0000DF92E0A78B98DF8005001236A460621E0
:1021C000204601F0ECF830B901236A460721204689
:1021D00001F0FCF810B1002002B070BD9DF80000C5
:1021E00066F303008DF8000001236A4607212046AC
:1021F00001F0D5F8401E8041C00F02B070BD30B56F
:1022000081B00D46044601236A46082101F0DEF83C
:1022100010B1002001B030BD9DF8000000F0F800C2
:1022200028438DF8000001236A460821204601F06A
:10223000B6F8401E8041C00F01B030BD30B581B04E
:102240000D46044601236A46082101F0BFF810B18B
:10225000002001B030BD9DF8000000F0C700284309
:102260008DF8000001236A460821204601F097F806
:10227000401E8041C00F01B030BD30B581B00D4669
:10228000044601236A460A2101F0A0F810B100209B
:1022900001B030BD9DF8000000F0F80028438DF833
:1022A000000001236A460A21204601F078F8401E0A
:1022B0008041C00F01B030BD30B581B00D4604463D
:1022C00001236A460A2101F081F810B1002001B013
:1022D00030BD9DF8000000F0870028438DF8000015
:1022E00001236A460A21204601F059F8401E804128
:1022F000C00F01B030BD30B581B00D46044601239A
:102300006A460D2101F062F810B1002001B030BD25
:102310009DF8000000F0DF0028438DF80000012345
:102320006A460D21204601F03AF8401E8041C00F58
:1023300001B030BD30B581B00D46044601236A4678
:102340000D2101F043F810B1002001B030BD9DF81F
:10235000000000F07F0028438DF8000001236A464A
:102360000D21204601F01BF8401E8041C00F01B036
:1023700030BD30B581B00D46044601236A461221B6
:1023800001F024F810B1002001B030BD9DF800002C
:1023900000F0FB0028438DF8000001236A4612215B
:1023A000204600F0FCFF401E8041C00F01B030BD50
:1023B00030B581B00D46044601236A46132101F071
:1023C00005F810B1002001B030BD9DF8000000F00C
:1023D000FE0028438DF8000001236A4613212046A1
:1023E00000F0DDFF401E8041C00F01B030BD30B5B0
:1023F00081B00D46044601236A46142100F0E6FF31
:1024000010B1002001B030BD9DF8000000F0FC00CC
:1024100028438DF8000001236A461421204600F06D
:10242000BEFF401E8041C00F01B030BD30B581B04D
:102430000D46044601236A46142100F0C7FF10B17F
:10244000002001B030BD9DF8000000F0F3002843EB
:102450008DF8000001236A461421204600F09FFFFA
:10246000401E8041C00F01B030BD30B581B00D4677
:10247000044601236A46182100F0A8FF10B100208D
:1024800001B030BD9DF8000000F0F70028438DF842
:10249000000001236A461821204600F080FF401EFC
:1024A0008041C00F01B030BD10B50C46012322465B
:1024B000182100F08BFF08B1002010BD207800F03B
:1024C00008002070012010BD30B581B00D460446D3
:1024D00001236A46182100F079FF10B1002001B0F5
:1024E00030BD9DF8000000F0EF0028438DF800009B
:1024F00001236A461821204600F051FF401E80410A
:10250000C00F01B030BD10B50C4601232246182182
:1025100000F05CFF08B1002010BD207800F0100032
:102520002070012010BD30B581B00D460446012356
:102530006A46182100F04AFF10B1002001B030BDFA
:102540009DF8000000F0DF0028438DF80000012313
:102550006A461821204600F022FF401E8041C00F2D
:1025600001B030BD10B50C4601232246182100F001
:102570002DFF08B1002010BD207800F02000207051
:10258000012010BD30B581B00D46044601236A46D6
:10259000192100F01BFF10B1002001B030BD9DF8E3
:1025A000000000F0FD0028438DF8000001236A467A
:1025B0001921204600F0F3FE401E8041C00F01B0FB
:1025C00030BD30B581B00D46044601236A4619215D
:1025D00000F0FCFE10B1002001B030BD9DF80000FD
:1025E00000F0F70028438DF8000001236A46192106
:1025F000204600F0D4FE401E8041C00F01B030BD27
:1026000010B50C4601232246192100F0DFFE08B167
:10261000002010BD207800F008002070012010BDBF
:1026200030B581B00D46044601236A46192100F0F9
:10263000CDFE10B1002001B030BD9DF8000000F0CB
:10264000EF0028438DF8000001236A461921204637
:1026500000F0A5FE401E8041C00F01B030BD10B596
:102660000C4601232246192100F0B0FE08B10020DB
:1026700010BD207800F010002070012010BD30B592
:1026800081B00D46044601236A46192100F09EFEE2
:1026900010B1002001B030BD9DF8000000F0DF0057
:1026A00028438DF8000001236A461921204600F0D6
:1026B00076FE401E8041C00F01B030BD10B50C4603
:1026C00001232246192100F081FE08B1002010BD2F
:1026D000207800F020002070012010BD30B581B0BE
:1026E0000D46044601236A46192100F06FFE10B121
:1026F000002001B030BD9DF8000000F0FB00284331
:102700008DF8000001236A461921204600F047FE9B
:10271000401E8041C00F01B030BD10B50C460123F2
:1027200022461B2100F052FE08B1002010BD207887
:1027300000F008002070012010BD10B50C460123E8
:1027400022461B2100F042FE08B1002010BD207877
:1027500000F020002070012010BD10B50C460123B0
:1027600022461C2100F032FE08B1002010BD207866
:1027700000F010002070012010BD10B50C460123A0
:1027800022461C2100F022FE08B1002010BD207856
:1027900000F020002070012010BD10B50C46012370
:1027A00022461D2100F012FE08B1002010BD207845
:1027B00000F001002070012010BD10B50C4601236F
:1027C00022461D2100F002FE08B1002010BD207835
:1027D00000F002002070012010BD10B50C4601234E
:1027E00022461D2100F0F2FD08B1002010BD207826
:1027F00000F004002070012010BD10B50C4601232C
:1028000022461D2100F0E2FD08B1002010BD207815
:1028100000F008002070012010BD10B50C46012307
:1028200022461D2100F0D2FD08B1002010BD207805
:1028300000F010002070012010BD10B50C460123DF
:1028400022461D2100F0C2FD08B1002010BD2078F5
:1028500000F020002070012010BD10B50C460123AF
:1028600022461D2100F0B2FD08B1002010BD2078E5
:1028700000F040002070012010BD10B50C4601236F
:1028800022461E2100F0A2FD08B1002010BD2078D4
:1028900000F001002070012010BD10B50C4601238E
:1028A00022461E2100F092FD08B1002010BD2078C4
:1028B00000F002002070012010BD30B581B00D463F
:1028C000044601236A463A2100F080FD38B901230D
:1028D0000DF101023B21204600F078FD10B10020EF
:1028E00001B030BD9DF801009DF8001000F00F0010
:1028F00041EA0020288001B0012030BD10B50C460F
:10290000012322463B2100F061FD08B1002010BDEB
:10291000207800F010002070012010BD10B50C468A
:10292000012322463B2100F051FD08B1002010BDDB
:10293000207800F020002070012010BD10B50C465A
:10294000012322463B2100F041FD08B1002010BDCB
:10295000207800F040002070012010BD30B581B01B
:102960000D46044601236A463C2100F02FFD38B98C
:1029700001230DF101023D21204600F027FD10B199
:10298000002001B030BD9DF801009DF8001000F05E
:10299000030041EA0020288001B0012030BD10B5BD
:1029A0000C4601232246532100F010FD08B10020FF
:1029B00010BD207800F010002070012010BD10B56F
:1029C0000C4601232246532100F000FD08B10020EF
:1029D00010BD207800F020002070012010BD30B51F
:1029E00081B00D46044601236A46582100F0EEFCF2
:1029F00010B1002001B030BD9DF8000000F0FE00D5
:102A000028438DF8000001236A465821204600F033
:102A1000C6FC401E8041C00F01B030BD30B581B052
:102A20000D46044601236A46582100F0CFFC10B140
:102A3000002001B030BD9DF8000000F0FD002843EB
:102A40008DF8000001236A465821204600F0A7FCBB
:102A5000401E8041C00F01B030BD30B581B00D4681
:102A6000044601236A46582100F0B0FC10B1002052
:102A700001B030BD9DF8000000F0FB0028438DF848
:102A8000000001236A465821204600F088FC401EC1
:102A90008041C00F01B030BD30B581B00D46044655
:102AA00001236A46582100F091FC10B1002001B0CA
:102AB00030BD9DF8000000F0F70028438DF80000BD
:102AC00001236A465821204600F069FC401E8041DF
:102AD000C00F01B030BD30B581B00D4604460123B2
:102AE0006A46582100F072FC10B1002001B030BDE0
:102AF0009DF8000000F0DF0028438DF8000001235E
:102B00006A465821204600F04AFC401E8041C00F12
:102B100001B030BD30B581B00D46044601236A4690
:102B2000582100F053FC10B1002001B030BD9DF8D9
:102B3000000000F0BF0028438DF8000001236A4622
:102B40005821204600F02BFC401E8041C00F01B0F0
:102B500030BD30B581B00D46044601236A46592187
:102B600000F034FC10B1002001B030BD9DF8000031
:102B700065F304008DF8000001236A4659212046C0
:102B800000F00DFC401E8041C00F01B030BD30B5DB
:102B900081B00D46044601236A46592100F016FC17
:102BA00010B1002001B030BD9DF8000000F09F0082
:102BB00028438DF8000001236A465921204600F081
:102BC000EEFB401E8041C00F01B030BD30B581B07A
:102BD0000D46044601236A465A2100F0F7FB10B166
:102BE000002001B030BD9DF8000065F301008DF8B4
:102BF000000001236A465A21204600F0D0FB401E07
:102C00008041C00F01B030BD30B581B00D460446E3
:102C100001236A465A2100F0D9FB10B1002001B00F
:102C200030BD9DF8000065F383008DF8000001239E
:102C30006A465A21204600F0B2FB401E8041C00F78
:102C400001B030BD30B581B00D46044601236A465F
:102C50005A2100F0BBFB10B1002001B030BD9DF83F
:102C6000000000F00F0040EA05108DF8000001237D
:102C70006A465A21204600F092FB401E8041C00F58
:102C800001B030BD30B581B00D46044601236A461F
:102C90005B2100F09BFB10B1002001B030BD9DF81E
:102CA000000065F305008DF8000001236A465B21F2
:102CB000204600F074FB401E8041C00F01B030BDC3
:102CC00030B581B00D46044601236A465B2100F011
:102CD0007DFB10B1002001B030BD9DF8000000F078
:102CE0007F0028438DF8000001236A465B212046BF
:102CF00000F055FB401E8041C00F01B030BD30B523
:102D000081B00D46044601236A465C2100F05EFB5B
:102D100010B1002001B030BD9DF8000065F3030044
:102D20008DF8000001236A465C21204600F037FB45
:102D3000401E8041C00F01B030BD30B581B00D469E
:102D4000044601236A465C2100F040FB10B10020DC
:102D500001B030BD9DF8000000F0EF0028438DF871
:102D6000000001236A465C21204600F018FB401E4B
:102D70008041C00F01B030BD30B581B00D46044672
:102D800001236A465C2100F021FB10B1002001B054
:102D900030BD9DF8000065F346108DF8000001235A
:102DA0006A465C21204600F0FAFA401E8041C00FBE
:102DB00001B030BD30B581B00D46044601236A46EE
:102DC0005D2100F003FB10B1002001B030BD9DF883
:102DD000000000F0F80028438DF8000001236A4647
:102DE0005D21204600F0DBFA401E8041C00F01B09B
:102DF00030BD70B582B0044601236A460E465D219F
:102E000000F0E4FA7509A8B99DF8000000F0070089
:102E100040EAC6008DF8000001236A465D21204685
:102E200000F0BDFA30B901236A465C21204600F06B
:102E3000CDFA10B1002002B070BD9DF8000000F086
:102E40007F0040EAC5108DF8000001236A465C212E
:102E5000204600F0A4FA401E8041C00F02B070BDB1
:102E600030B581B00D46044601236A465E2100F06C
:102E7000ADFA10B1002001B030BD9DF8000000F0A7
:102E8000FD0028438DF8000001236A465E2120469C
:102E900000F085FA401E8041C00F01B030BD30B552
:102EA00081B00D46044601236A465E2100F08EFA89
:102EB00010B1002001B030BD9DF8000000F0FB0013
:102EC00028438DF8000001236A465E21204600F069
:102ED00066FA401E8041C00F01B030BD30B581B0F0
:102EE0000D46044601236A465E2100F06FFA10B1D8
:102EF000002001B030BD9DF8000000F0F70028432D
:102F00008DF8000001236A465E21204600F047FA52
:102F1000401E8041C00F01B030BD30B581B00D46BC
:102F2000044601236A465E2100F050FA10B10020E9
:102F300001B030BD9DF8000000F0EF0028438DF88F
:102F4000000001236A465E21204600F028FA401E58
:102F50008041C00F01B030BD30B581B00D46044690
:102F600001236A465E2100F031FA10B1002001B061
:102F700030BD9DF8000000F0DF0028438DF8000010
:102F800001236A465E21204600F009FA401E804176
:102F9000C00F01B030BD30B581B00D4604460123ED
:102FA0006A465E2100F012FA10B1002001B030BD77
:102FB0009DF8000000F0BF0028438DF800000123B9
:102FC0006A465E21204600F0EAF9401E8041C00FAB
:102FD00001B030BD30B50D4681B0044601232A460C
:102FE0003E2100F0F3F930B901236A1C3F2120464D
:102FF00000F0ECF910B1002001B030BD012001B0AB
:1030000030BD30B50D4681B0044601232A464B2120
:1030100000F0DCF930B901236A1C4C21204600F095
:10302000D5F910B1002001B030BD012001B030BD94
:1030300030B581B00D46044601236A46012100F0F7
:10304000C5F958B99DF8000040F080008DF80000E7
:1030500001236A460121204600F0A1F901230DF168
:1030600001020F21204600F0B1F99DF8010065F33F
:1030700004008DF8010001230DF101020F2120460B
:1030800000F08DF901236A460121204600F09EF9E7
:1030900058B99DF8000000F07F008DF80000012372
:1030A0006A460121204600F07AF9012001B030BDC6
:1030B0004FF0807C1CEB400F94BF1CEB410F05E0F0
:1030C00040EA010C5FEA4C0C01D28842704718BFFD
:1030D00081427047002840F10980F446404200F0E8
:1030E00005F850F000406047002800BF0AD0B0FA51
:1030F00080F18840D1F19D01C905020672F10042BC
:1031000041EB102070470000FF2212EAD05C1DBF87
:1031100012EAD153944593422BE09C44D30780EAB2
:1031200001021A4043EA002043EA0121A1FB0030DA
:10313000410038BF40007CF17F010BDBFE294ADAF9
:103140005B0842EAC15153EA006373F1004C51EB52
:1031500010207047D1F1080CDCF120012FDB5B0857
:1031600010FA01F10B4373F1004120FA0CF05041C9
:10317000704794451CBF02EAD153934280EA010292
:1031800002F000421DD0400019D0490017D05BB9B1
:10319000634514D00902B1FA81F39940BCEB030CEA
:1031A000C00140F00040C1E70002B0FA80FC10FA14
:1031B0000CF0B3EB0C0CC90141F00041B6E7100074
:1031C000704740000AD0490008D010F1807F94BFBA
:1031D00011F1807F02E042F0FF407047D04370471A
:1031E0004100090E7F3915D4D1F11F0114D44000DC
:1031F00007D2C00140F00040C84048BF6FF0004017
:103200007047C00140F00040C8404CBF4FF0004044
:10321000404270470020704700424FF0004058BFC6
:10322000C043704730B5A14C87B0204600F0C2FDC6
:10323000002847D19E489F4D606001A90020A060F2
:103240003320E0604FF4804020619B482060686834
:1032500040F002006860686800F00200009000988A
:103260004FF4407001901220029002200490002040
:10327000039004200590914800F0A0FDE86840F418
:103280000010E8600022E86800F4001000900021BF
:103290000098286840F400102860286820F4001086
:1032A00028601F2000F085FE1F2000F0ABFE0022EA
:1032B0000021202000F07DFE202000F0A3FE20460B
:1032C00000F004F9204600F075FD20280CBF002016
:1032D000012007B030BD0020704730B5784C794DE3
:1032E0008BB0206840F00100206006A9206800F043
:1032F0000100009000980795102006900220099088
:1033000000200890704800F059FD002200210A209A
:1033100000F04FFE0A2000F075FE206840F0020029
:10332000206001A9206800F002000090009802953A
:103330000120019002200490002003905F4800F0DB
:103340003DFD00220021062000F033FE062000F0A3
:1033500059FE00200BB030BD00B5594887B0016858
:1033600041F00101016001A9006800F00100009036
:1033700000981020019053480290022004900020F1
:103380000390514800F01AFD002200210A2000F0AD
:1033900010FE0A2000F036FE002007B000BD30B558
:1033A00083B04FF48055009202950A4601930123A1
:1033B00041783E4C204600F02FF928B1204600F01D
:1033C00011F900F01AF8012003B030BD30B583B018
:1033D0004FF48055009202950A46019301234178EB
:1033E000324C204600F08DFA28B1204600F0FAF861
:1033F00000F003F8012003B030BD30B52B4C87B08E
:10340000204600F0D7FC002847D12948294D6060AC
:1034100001A90020A0603320E0604FF480402061CB
:1034200025482060686840F002006860686800F025
:103430000200009000984FF440700190122002901A
:103440000220049000200390042005901B4800F007
:10345000B5FCE86840F40010E8600022E86800F479
:103460000010009000210098286840F400102860A7
:10347000286820F4001028601F2000F09AFD1F200B
:1034800000F0C0FD00220021202000F092FD20204D
:1034900000F0B8FD204600F019F8204600F08AFC44
:1034A00020280CBF0020012007B030BD5816002096
:1034B000801A060018380240005400400004024000
:1034C0001C380240000011100000024070B50400DA
:1034D0000CD094F8350020B984F83400204600F070
:1034E0006CFC01F0FFF83A49884201D2012070BD1E
:1034F000242184F8351021680A68520852000A60B5
:103500003449B0FBF1F221684B689B0942EA83130E
:103510004B60314923681D6A66688E4206D34FF4BA
:10352000967672434FF47A76B2FBF6F2521CAD09EE
:1035300042EA85121A622268D36965688D4208D210
:103540006900B0FBF1F0C0F30B01042913D2042091
:1035500011E0A16821B905EB4501B0FBF1F005E0F0
:1035600019216943B0FBF1F040F4804001050CBF24
:10357000012040F40040194919400843D0612068F7
:103580000168E26921F0C0011143226A1143016020
:103590002068134A8168114022691143E26811438F
:1035A00081602068C168A2696369090A1A4342EA16
:1035B0000121C1602068016841F001010160002023
:1035C000A063202084F83500002084F8360070BD08
:1035D00080841E0040420F00A18601000030FFFFE2
:1035E000007CFFFF10B5040001D1012010BD242094
:1035F00084F83500206801684908490001602046C8
:1036000001F0A0F80020A06384F8350084F83600AB
:1036100084F8340010BD00002DE9F04F054681B05C
:1036200095F8350020288A46164699461FD1DDF8C0
:103630002880B8F1000F02D00B9C200003D101209C
:1036400001B0BDE8F08F01F07FF8074642F2117B30
:103650002868816989070ED501F076F8C01B5845A6
:10366000F6D3202085F83500002085F834000220AC
:1036700001B0BDE8F08F95F834100129F7D0012191
:1036800085F83410016821F400610160212085F87B
:103690003500402085F836000020A86328680168BE
:1036A00041F48071016001F04FF80C9F8346286857
:1036B0004169C9071AD417F1010FF8D02FB101F0F1
:1036C00043F8A0EB0B008742F1D2202085F83500AB
:1036D000002085F83400A86B042840F0AE8000205C
:1036E00085F8340001B00120BDE8F08F0AF0FE013A
:1036F000016101F029F8824628684169890741691A
:103700001ED449050AD5016841F4007101606FF4C7
:103710008060296848610420A86309E017F1010F5F
:10372000EAD02FB101F010F8A0EB0A008742E3D2F3
:10373000202085F83500002085F83400A86BCAE702
:10374000009180690090009800F0FEFF8246296891
:103750004869000624D44869400513D56FF4806099
:1037600048610420A863202085F83500002085F8F2
:103770003400A86B0428AED12868016841F40071B8
:103780000160A8E717F1010FE1D02FB100F0DCFFD5
:10379000A0EB0A008742DAD2A86B40F02000E1E7F4
:1037A000B9F1010F25D0300A086100F0CDFF814644
:1037B0002868416909061CD44169490504D56FF49C
:1037C0008061416104200CE017F1010FF0D02FB1AE
:1037D00000F0BAFFA0EB09008742E9D2A86B40F0E5
:1037E0002000A863202085F83500002085F83400EB
:1037F000BFE72868F6B2066100F0A6FF0646286813
:10380000416909062DD4416949051DD56FF48061D0
:1038100041610420A863202085F83500002085F848
:103820003400A86B04280BD12868016841F40071AA
:103830000160012001B0BDE8F08F002085F8340060
:10384000032001B0BDE8F08F17F1010FD7D027B1E9
:1038500000F07AFF801B8742D1D2A86B40F0200095
:10386000D8E718F8011B0161641E286841694907FF
:1038700023D4A0B20028BFD100F066FF0446286818
:10388000416909062ED4416949051ED56FF480614E
:1038900041610420A863202085F83500002085F8C8
:1038A0003400A86B0428CBD12868016841F400716A
:1038B0000160012001B0BDE8F08FA1B20029DBD08A
:1038C00018F8011B0161641ED3E717F1010FD6D070
:1038D00027B100F039FF001B8742D0D2A86B40F01F
:1038E0002000D7E7016841F400710160202085F8CD
:1038F0003500002085F8360085F8340001B0BDE8B9
:10390000F08F2DE9F04F054681B095F8350020285D
:103910000E46924698461FD1DDF82890B9F1000F67
:1039200002D00B9C200003D1012001B0BDE8F08F34
:1039300000F00AFF074642F2117B28688169890777
:103940000ED500F001FFC01B5845F6D3202085F8A6
:103950003500002085F83400022001B0BDE8F08F6A
:1039600095F834100129F7D0012185F83410016849
:1039700021F400610160222085F83500402085F89F
:1039800036000020A8632868016841F48061016066
:103990002868016841F48071016000F0D5FE0C9F39
:1039A000834628684169C9070CD417F1010FF8D084
:1039B000002F00F0C78000F0C7FEA0EB0B0087428D
:1039C000EFD2BFE006F0FE01016100F0BDFE8346CC
:1039D00028684169890741691DD449050AD50168EC
:1039E00041F4007101606FF480602968486104202F
:1039F000A86309E017F1010FEAD02FB100F0A4FE8F
:103A0000A0EB0B008742E3D2202085F83500002090
:103A100085F83400BBE0009180690090009800F0C8
:103A200093FE83462968486900061CD4486940050E
:103A30000BD56FF4806048610420A863202085F8CE
:103A40003500002085F834005EE017F1010FE9D061
:103A50002FB100F079FEA0EB0B008742E2D2A86BF9
:103A600040F02000E9E7B8F1010F26D04FEA1A2014
:103A7000086100F069FE80462868416909061CD487
:103A80004169490504D56FF48061416104200CE06F
:103A900017F1010FF0D02FB100F056FEA0EB080097
:103AA0008742E9D2A86B40F02000A863202085F867
:103AB0003500002085F8340026E028685FFA8AF196
:103AC000016100F041FE824628684169090624D45C
:103AD0004169490504D56FF48061416104200CE01F
:103AE00017F1010FF0D02FB100F02EFEA0EB0A006D
:103AF0008742E9D2A86B40F02000A863202085F817
:103B00003500002085F83400A86B042840D12868CF
:103B1000016841F4007101603AE0016841F480718C
:103B2000016000F011FE824628684169C90710D47F
:103B300017F1010FF8D02FB100F006FEA0EB0A003C
:103B40008742F1D2202085F83500002085F8340026
:103B50001EE046F00101C9B2016100F0F5FD064624
:103B600028684169890728D4416949051AD501683F
:103B700041F4007101606FF480602968486104209D
:103B8000A863202085F83500002085F83400A86B54
:103B9000A86B042822D1002085F8340001B0012050
:103BA000BDE8F08F17F1010FDAD0002FE9D000F057
:103BB000CBFD801B8742D3D2E3E7012C15D10168EE
:103BC00021F4806101602868416900918169009158
:103BD0000099016841F40071016017E0002085F848
:103BE000340001B00320BDE8F08F022C09D1016838
:103BF00021F4806101602868016841F4006101607E
:103C0000286841690091806900900098A4B2042C52
:103C100080F29B80012C38D100F096FD0646286882
:103C2000416949061FD44169C90612D56FF01001D8
:103C300041610020A863202085F83500002085F828
:103C40003400A86B20287FF46FAE032001B0BDE8DC
:103C5000F08F27B100F078FD801B8742DFD2A86B80
:103C600040F02000E6E7006909F8010B0024A0B24B
:103C70000028CBD1202085F83500002085F83600BB
:103C800085F8340001B0BDE8F08F022C1DD100F0A2
:103C90005BFD06462868416949070CD417F1010FFE
:103CA000F8D027B100F050FD801B8742F2D22020CF
:103CB00085F8350092E7016841F4007101602868D9
:103CC000006909F8010B2868CDE700F03DFD0646C4
:103CD0002868416949070CD417F1010FF8D027B1C2
:103CE00000F032FD801B8742F2D2202085F835009B
:103CF00074E7016821F4806101602868006989F82F
:103D0000000000F021FD06462868416949070CD4EF
:103D100017F1010FF8D027B100F016FD801B874284
:103D2000F2D2202085F8350058E7016841F400718F
:103D30000160E41E2868006989F8010028680069AC
:103D400089F8020009F1030991E700F0FDFC06463D
:103D50002868416949061FD44169C90612D56FF028
:103D6000100141610020A863202085F83500002063
:103D700085F83400A86B20287FF4D6AD032001B06D
:103D8000BDE8F08F27B100F0DFFC801B8742DFD257
:103D9000A86B40F02000E6E7006909F8010B641EFB
:103DA0002868416949077FF562AF006909F8010B8E
:103DB000641E5CE790F83500704770472DE9F04FBE
:103DC00081B00C68694BDFF8A881DFF8A891002268
:103DD000002C4FF00F0A4FF0010B00F0B1800C687F
:103DE0000BFA02FC1CEA040E00F0A5804C68022CC1
:103DF00018BF122C0ED1D40800EB84049500266A5B
:103E000005F01C050AFA05F7BE430F6907FA05F528
:103E1000354325625400032506680F79A540ED431C
:103E200007F003072E40A7403E4306604E68012E70
:103E300018BF022E03D0112E18BF122E0ED1866885
:103E4000CF682E40A7403E438660466826EA0C07AE
:103E50004E68C6F3001696403E434660C6682E4044
:103E60008D6805FA04F43443C4604C68E40062D5FC
:103E7000D9F8004044F00104C9F800404FEA920C20
:103E8000D9F8005005F0010400949500009C58F802
:103E90002C6005F00C040AFA04F526EA0505364EF6
:103EA000B04208BF00261DD0344EB04208BF0126E4
:103EB00018D0334EB04208BF022613D0314EB04264
:103EC00008BF03260ED0304EB04208BF042609D0EA
:103ED0002E4EB04208BF052604D02D4EB0420CBF76
:103EE0000626072606FA04F42C4348F82C406FEA0D
:103EF0000E061C684D683440ED0348BF4EEA0404CA
:103F00001C605C684D683440AD0348BF4EEA040451
:103F10005C609C684D683440ED0248BF4EEA040482
:103F20009C60DC6806EA040C4C68A40248BF4EEAB8
:103F30000C0CC3F80CC0521C0C68D4407FF44FAF7B
:103F400001B0BDE8F08F000002B90904816170473B
:103F500042695140416170470E4A136803421CBFD9
:103F6000106000F088BF70470000000000040140AE
:103F700008000140203802400000024000040240D6
:103F800000080240000C02400010024000140240F1
:103F9000001802401404014027490A684FF6FF0345
:103FA00000021A4000F4E0601043244A1043086005
:103FB000704730B4204B1B68C3F30223C3F10704DE
:103FC000052C28BF04241D1D072D34BF0023DB1E34
:103FD000012505FA04F4641E2140994005FA03F313
:103FE0005B1E1A4011430901002807D5144A00F04E
:103FF0000F00104400F8041C30BC7047114A1154E3
:1040000030BC7047012100F01F0291400E4A400968
:1040100042F820107047401EB0F1807F01D301208C
:1040200070470A494860F02081F8130D002088602D
:1040300007200860002070470CED00E00000FA0542
:1040400018ED00E000E400E000E100E010E000E036
:10405000F0B5044681B02078DFF8B056C00752D5DD
:10406000A86800F00C00082807D0A86800F00C0031
:104070000C280DD1A868C0030AD52868C0F34040B9
:10408000002840D0606800283DD1012001B0F0BD7B
:104090006068012803D1286840F4803012E008B934
:1040A000286809E00528286806D140F480202860A7
:1040B000286840F4803005E020F4803028602868CB
:1040C00020F480202860606870B100F03DFB064657
:1040D0002868C0F34040B0B900F036FB801B65286B
:1040E000F6D3032001B0F0BD00F02EFB0646286891
:1040F000C0F3404038B100F027FB801B6528F6D3A1
:10410000032001B0F0BD207880071BD5A86800F01F
:104110000C00042807D0A86800F00C000C2832D14D
:10412000A868C0032FD42868C0F3400000281CBF33
:10413000E0680128A9D16868216920F4F85040EAB4
:10414000012068602078C00640F1C180A86810F0A6
:104150000C0F40F0D7802868C0F3402010B1A06950
:10416000002892D0266A686800F46040B04269D2A4
:10417000A868002710F0F00F48D1686AC00029D560
:1041800000F024FF35E0E068DFF8887588B1012091
:10419000386000F0D9FA06462868C0F340000028CD
:1041A000C9D100F0D1FA801B0328F5D3032001B058
:1041B000F0BD386000F0C8FA06462868C0F3400039
:1041C0000028BFD000F0C0FA801B0328F5D30320DD
:1041D00001B0F0BD686A40F080506862686A00F023
:1041E00080500090009800F0F1FE696A21F0805143
:1041F0006962B0F5C05F08BFB6F5404F06D1D5F88B
:10420000000440F004000127C5F80004D5F80004BC
:10421000400847EA4000C5F80004D5F8000400F063
:104220000100B8427FF431AF6868216A20F4604031
:10423000084368606868E16920F07F4040EA0160F7
:10424000686041E0686820F460403043686000279F
:104250006868E16920F07F4040EA01606860266A92
:10426000A86810F0F00F21D1686AC00002D500F0F4
:10427000ADFE0EE0686A40F080506862686A00F047
:1042800080500090009800F0A1FE696A21F08051F2
:104290006962B0F5C05F08BFB6F5404F06D1D5F8EA
:1042A000000440F004000127C5F80004D5F800041C
:1042B000400847EA4000C5F80004D5F8000400F0C3
:1042C0000100B8427FF4E1AE0F2000F087FE2078B5
:1042D00000075CD56069DFF83C74002846D00120F7
:1042E000C7F8800600F030FA0646686BC0F340005D
:1042F00000284CD100F028FA801B0328F5D30320B6
:1043000001B0F0BDA069DFF80C74F0B10120386293
:1043100000F01AFA06462868C0F3402038B900F0C9
:1043200013FA801B0328F6D3032001B0F0BD6868A0
:10433000216A20F46040084368606868E16920F001
:104340007F4040EA01606860C1E7386200F0FCF934
:1043500006462868C0F340200028B8D000F0F4F9E1
:10436000801B0328F5D3032001B0F0BDC7F88006F9
:1043700000F0EAF90646686BC0F3400038B100F07F
:10438000E3F9801B0328F6D3032001B0F0BD2078A9
:1043900040075BD5686ADFF8807340F08050686240
:1043A000686A00F0805000900098386840F480708F
:1043B000386000F0C9F906463868C00507D400F037
:1043C000C3F9801B6528F7D3032001B0F0BDA068B6
:1043D000012803D1686B40F4807012E008B9686B63
:1043E00009E00528686B06D140F480606863686B5B
:1043F00040F4807005E020F480706863686B20F4FE
:1044000080606863A06880B100F09EF9064641F2C2
:104410008937686BC0F34020C0B900F095F9801B64
:10442000B842F6D3032001B0F0BD00F08DF9064686
:1044300041F28937686BC0F3402038B100F084F94D
:10444000801BB842F6D3032001B0F0BD606A00289B
:1044500046D0A96801F00C010C293FF416AE0228E1
:10446000DFF8B0722BD10020386600F06DF90646F7
:104470002868C0F3406038B100F066F9801B03285B
:10448000F6D3032001B0F0BDA868A16A20F47D0036
:104490000843E16A0843216B0843A860012038669D
:1044A00000F052F906462868C0F34060C0B900F039
:1044B0004BF9801B0328F6D3032001B0F0BD002088
:1044C000386600F041F906462868C0F3406038B10C
:1044D00000F03AF9801B0328F6D3032001B0F0BDA9
:1044E000002001B0F0BDF0B5DFF8206281B00446D5
:1044F000D6F800040D4600F00100A84215D2012DA7
:1045000005D1D6F8000440F00400C6F80004D6F83F
:104510000004400845EA4000C6F80004D6F800044C
:1045200000F00100A84240F08B802078800705D57C
:10453000B068A16820F0F0000843B0602078C007A0
:1045400063D56068022803D13168C1F340410AE0B5
:10455000032803D13168C1F3406104E001283168C8
:1045600005D1C1F3400131B9012001B0F0BDC1F363
:104570004021002964D0B168890840EA8100B06018
:1045800000F0E2F80746606802280ED1B06800F03B
:104590000C00082839D000F0D7F8C01B41F289314F
:1045A0008842F3D3032001B0F0BD03280ED1B068D8
:1045B00000F00C000C2828D000F0C6F8C01B41F217
:1045C00089318842F3D3032001B0F0BD01280ED118
:1045D000B06800F00C00042817D000F0B5F8C01B3C
:1045E00041F289318842F3D3032001B0F0BDB068B5
:1045F00010F00C0F09D000F0A7F8C01B41F2893170
:104600008842F4D3032001B0F0BDD6F8000400F0D6
:104610000100854217D2012D05D1D6F8000440F0E3
:104620000400C6F80004D6F80004400845EA40003B
:10463000C6F80004D6F8000400F00100A84202D039
:10464000012001B0F0BD2078400705D5B068E168D1
:1046500020F4E0600843B0602078000706D5B06819
:10466000216920F4605040EAC100B06000F00EF80B
:10467000B2682A49C2F30312895CC8402449086021
:104680000F2000F0ABFC002001B0F0BD25484168D0
:1046900001F00C02042A04D0082A04D00C2A04D009
:1046A00016E021487047214870470FF28C02C1F391
:1046B0008343C1F38151D25C0FF27803595C4068A7
:1046C000C0034CBF194818485043B0FBF1F0704785
:1046D0000068400B00F007000121401C01FA00F0C7
:1046E000C00370470A480E4A006812681049C2F3B6
:1046F0000222895CC84070470548094A0068126870
:104700000B49C2F3C222895CC8407047003802409E
:10471000EC0A00200000474200700040F0D0000882
:1047200008380240043802400024F40000127A00E5
:10473000E4D2000801020304030406080C10182048
:10474000300000007047000001480068704700BF5B
:10475000F81600202DE9F04FCFB000F053FC00F028
:104760006BFC002000F02CFD002000F052FD012128
:10477000002000F063FD00F045FE0C2000900020BA
:10478000099001200290002005906846FFF760FC28
:10479000DFF8604700281ABF01204FF49871FF210D
:1047A000E1600A467F21A160DFF84C170860A2642F
:1047B000DFF84807206040206060002020616061D1
:1047C000A061204600F094FE00B1FEE714208DF8B1
:1047D0000300012202208DF80100694618208DF89F
:1047E000020002208DF80000204600F075FF00B1A5
:1047F000FEE708208DF80400012210208DF8050046
:1048000001A90020ADF8060004900590204600F0B4
:10481000CAFE00B1FEE704F168014FF0FF3001F07D
:1048200021F804F16C014FF0FF3001F05FF904F161
:104830007001002001F09CFA04F17401002001F0E5
:104840006BFB04F17801002001F030FC04F17C01E5
:104850004FF0FF3001F06EFE0FF23C7ADFF8A086D9
:104860000FF2AC69DFF89C6641F2883521E000BFA9
:1048700000F0CFFC307800281CBF94F845000028D9
:1048800010D00DA802F032F894F846008DF86B00B5
:1048900034200D900DA800F09DFD002084F8450007
:1048A00084F8460094F8440018B14FF4FA7002F00E
:1048B000DDF80DA800F00EFD58B19DF83800322843
:1048C00007D10DA802F01CF8307810B1002084F850
:1048D0004400206DE16C884237D0E06C2065E06FC9
:1048E000E16CC90702D501F077FF01E001F084FF18
:1048F000606FE16C490702D501F056FB01E001F061
:1049000063FBA06FE16C890702D501F091FD01E026
:1049100001F09EFDA06EE16CC90602D501F054F8CD
:1049200001E001F061F8E06EE16C890602D501F06A
:104930008DF901E001F09AF9206FE16C490602D58A
:1049400001F058FA01E001F065FA31780020002901
:1049500004BF94F84410002911D0002203A9204676
:1049600002F092F8002202A9204600F03DFFA06C60
:104970000499411A64225143401C91FBF0F03178B4
:1049800071B19DF80C108DF83B108DF83E009DF82C
:104990000D108DF83C109DF80E108DF83D101BE0A9
:1049A00094F84410C1B1C0B2019049469DF80E0080
:1049B0009DF80D309DF80C20009004F1800002F06D
:1049C000A9F804F1800002F0BFF882B22B4604F18E
:1049D0008001404602F002F9E06CC00767D5002074
:1049E000ADF800000DF10101E06F01F015FF0028A6
:1049F00004BF9DF80100012859D1E06F694601F01C
:104A00005DFF9DF80000002851D094F84500401C3F
:104A100084F8450004F1540194F8460040F0080081
:104A200084F84600E06F01F009FF676D3846FEF735
:104A3000D7FB8346FEF74EFB02463846002102F0C4
:104A4000D5FA92BF11461046394602F0E1FA02F05B
:104A500053FB0022DFF8B03402F076FB02F045FC95
:104A600002F04CFC0746307860B1022259460DF145
:104A70003F0002F0F4FC022239460DF1410002F041
:104A8000EEFC14E094F8440088B13B465A46514687
:104A900004F1800002F03EF804F1800002F054F8C6
:104AA00082B22B4604F18001404602F097F8E06C98
:104AB000400768D50020ADF800000DF10101606FDE
:104AC00001F092FA002804BF9DF8010001285AD194
:104AD000606F694601F0DAFA9DF80000002852D0B4
:104AE00094F84500401C84F8450004F1580194F8FE
:104AF000460040F0100084F84600606F01F086FA2E
:104B0000A76D3846FEF76CFB8346FEF7E3FA0246D4
:104B10003846002102F06AFA92BF11461046394623
:104B200002F076FA02F0E8FA0022DFF8DC3302F055
:104B30000BFB02F0DAFB02F0E1FB0746307860B1D4
:104B4000012259460DF1450002F089FC0122394647
:104B50000DF1460002F083FC15E094F8440090B19A
:104B60003B465A460FF2444104F1800001F0D2FF67
:104B700004F1800001F0E8FF82B22B4604F18001CD
:104B8000404602F02BF8E06C800766D50020ADF8B7
:104B900000000DF10101A06F01F06AFC002804BFC4
:104BA0009DF80100012858D1A06F694601F0B2FCC0
:104BB0009DF80000002850D094F84500401C84F86F
:104BC000450004F15C0194F8460040F0200084F8B0
:104BD0004600A06F01F05EFCE76D3846FEF700FB73
:104BE0008346FEF777FA02463846002102F0FEF9C6
:104BF00092BF11461046394602F00AFA02F07CFADA
:104C00000022C14B02F0A0FA02F06FFB02F076FB2B
:104C10000746307858B1012259460DF1430002F0A1
:104C20001EFC0122394611A802F019FC15E094F887
:104C3000440090B13B465A460FF2803104F18000A7
:104C400001F068FF04F1800001F07EFF82B22B4684
:104C500004F18001404601F0C1FFE06CC00652D56E
:104C60000020ADF804000DF10501A06E00F0CCFEAF
:104C7000002804BF9DF80500012844D1A06E01A9B9
:104C800000F024FF9DF8040000283CD094F8450073
:104C9000401C84F8450004F1200194F8460040F0DF
:104CA000010084F84600A06E00F0C0FE307890B19C
:104CB000216A04220DF1470002F00DFC616A042212
:104CC0000DF14B0002F007FCA16A04220DF14F0028
:104CD00002F001FC17E094F84400A0B1A06A636AF6
:104CE000226A0FF24821009004F1800001F012FFC7
:104CF00004F1800001F028FF82B22B4604F180010C
:104D0000404601F06BFFE06C800652D50020ADF804
:104D100004000DF10501E06E00F0B8FF002804BFAB
:104D20009DF80500012844D1E06E01A901F010F8BA
:104D30009DF8040000283CD094F84500401C84F8FD
:104D4000450004F12C0194F8460040F0020084F87C
:104D50004600E06E00F0ACFF307890B1E16A0422CA
:104D60000DF1530002F0B7FB216B04220DF1570047
:104D700002F0B1FB616B04220DF15B0002F0ABFBB2
:104D800017E094F84400A0B1606B236BE26A0FF265
:104D9000C011009004F1800001F0BCFE04F180001D
:104DA00001F0D2FE82B22B4604F18001404601F0B0
:104DB00015FFE06C400652D50020ADF804000DF15F
:104DC0000501206F01F036F8002804BF9DF80500AA
:104DD000012844D1206F01A901F08EF89DF804004C
:104DE00000283CD094F84500401C84F8450004F1AC
:104DF000380194F8460040F0040084F84600206F23
:104E000001F02AF8307890B1A16B04220DF15F0017
:104E100002F061FBE16B04220DF1630002F05BFB29
:104E2000216C04220DF1670002F055FB17E094F8A5
:104E30004400A0B1206CE36BA26B0FF2381100901C
:104E400004F1800001F066FE04F1800001F07CFEB8
:104E500082B22B4604F18001404601F0BFFE30785B
:104E6000002804BF94F8440000283FF401AD00205E
:104E700000F0DAF9FEE4B0F5005F00D0704710B53D
:104E80001C4C206E002804BF606E002802D1FFF782
:104E90005BFC09E0FFF758FC6066606E216E401A0B
:104EA000B0F5967F0DD9606E20661648007808B17F
:104EB000002004E094F84410481E8041C00F84F89C
:104EC000440010BD00B585B000238DF800008DF8BA
:104ED00001108DF802208DF80330019303930493A1
:104EE00000226946034800F05EFB00B1FEE705B012
:104EF00000BD000050120020FC16002000280040D9
:104F0000000000208404002000005940FEE700005B
:104F100054696D655374616D703A2025643A256457
:104F20003A25642E25640D0A000000004143435FCA
:104F3000583A2025642C204143435F593A20256488
:104F40002C204143435F5A3A2025640D0A0000009B
:104F50004759525F583A2025642C204759525F59CF
:104F60003A2025642C204759525F5A3A2025640D77
:104F70000A0000004D41475F583A2025642C204D1F
:104F800041475F593A2025642C204D41475F5A3AEA
:104F90002025640D0A00000050524553533A202545
:104FA000642E253032640D0A0000000048554D3A49
:104FB0002025642E253032640D0A000054454D50E2
:104FC0003A2025642E253032640D0A00024800681C
:104FD00000F4C050704700000070004010B5044657
:104FE000074800684FF47A71B0FBF1F0FFF713F84F
:104FF000002221464FF0FF30FEF7DBFF002010BDFE
:10500000EC0A002000B50A4881B0016841F00401B3
:105010000160016841F0020101600320FEF7BCFF5E
:105020000F20FFF7DBFF00F005F8002001B000BD06
:10503000003C02407047000010B594B001A8002168
:10504000002200230EC006C000241EC01EC01EC0C9
:1050500001600220069010910120099010200A9012
:1050600002200F904FF4002011904FF40000129096
:1050700006A8FEF7EDFF08B1FFF748FF41480168B9
:1050800041F080510160006800F08050009000986D
:105090003D48016821F4C05141F40061016041685C
:1050A000C906FCD40F2001900394032002900494BD
:1050B0000594012101A8FFF716FA08B1FFF726FFB2
:1050C00014B010BD0068314A314990421AD3314AB8
:1050D000D1F80014904208BF08203ED02E4A9042DA
:1050E00008BF802039D02D4A904208BF4FF400609D
:1050F00033D02B4A904214BF4FF400204FF40040AD
:1051000008407047274A096890421ED0264A9042BC
:105110001ED0264A90421ED0254A904208BF4FF426
:1051200000401AD0234A90420BD0234A904208BF35
:105130004FF4000011D0214A904208BF4FF00060A8
:105140000BD04FF4002008407047082008407047FB
:105150008020084070474FF40060084070470068A6
:1051600040687047144901600021416081608021DE
:10517000C160002101614161202181614FF48051B2
:10518000C1617047243802400070004081600240D5
:1051900000600240086402401C6402403064024027
:1051A00044640240086002401C60024030600240DB
:1051B00044600240586002406C60024080600240DF
:1051C00070B5040086B00AD1DFF8EC00016841F048
:1051D00001010160006800F00100009000980FF2EA
:1051E000E800DFF8D86030F81450019501200290F3
:1051F00001A9002003900220049056F82400FEF735
:10520000DDFD56F8240000222946FEF79DFE06B07B
:1052100070BD0FF2B401DFF8A43031F8101053F86C
:1052200020000022FEF790BE0FF29C01DFF88C20D8
:1052300031F8101052F82000FEF78ABE30B504464F
:10524000200087B00D460AD1DFF86C00016841F0FC
:1052500004010160006800F00400009000980FF263
:105260006C0030F81400019000200390012004909D
:10527000280008D10020029001A9DFF8440050F86E
:105280002400FEF79BFD012D14D1DFF838000290B9
:1052900001A9DFF82C0050F82400FEF78FFD0FF273
:1052A0003000045D00220F2160B2FEF782FE60B282
:1052B000FEF7A8FE07B030BD1C380240E40A00200B
:1052C000E80A00200000211020000000002000005B
:1052D000280000002DE9F04F0446814D81B005F112
:1052E0004000FFF7EFFE002700286FD105F14000D6
:1052F000FFF735FFC0F50078B5F87C601FFA88F835
:10530000B045AEBFA8EB060008F50070801B80B268
:105310000090B9460098012852DBA819761CB6B255
:1053200090F88000B6F5007FA8BF0026F02842D193
:10533000B5F87C604FF0000A0BE081190A1201EB0E
:10534000D2525212A1EB42265044B6B27F1C1FFA31
:1053500080FA701CCA451BDA011200EBD1514912C8
:10536000A0EB4121A8191FFA81FB90F8800005EB02
:105370000B01BFB291F88010E219121D02F007F87C
:10538000C0B20028D9D1A5F87CB001B0BDE8F08F3B
:10539000011200EBD1514912BFB2A0EB41262760A8
:1053A000B6B2A5F87C60204602F02CF818B10120B6
:1053B00001B0BDE8F08F009809F101098145ACDB2F
:1053C0000098B0F5807FC8BFA5F87C80002001B0B0
:1053D000BDE8F08F30B581B0044601F0E7FF404DE5
:1053E0004FF421702146284401F0AEFF82B24FF401
:1053F00021702918284601B0BDE8304041F28833B9
:1054000001F0ECBB10B53748374C86B0016841F06D
:1054100001010160016801F001010091009901683A
:1054200041F001010160016801F001010091009962
:10543000816841F400318160816801F4003100919C
:105440000099016841F08071016001A9006800F0D5
:1054500080700090009804200190022002900020AB
:10546000039002200490072005902046FEF7A6FC3A
:105470000820019001A9072005902046FEF79EFC18
:10548000174C1A482060D4F8800260600020A060A9
:10549000E0602061A0610C206061204601F070FB9B
:1054A00000B1FEE704F14000FFF75CFE04F14000AC
:1054B00002F028F804F140006063646604F18000A3
:1054C000A0624FF400724FF40070A08504F18001D7
:1054D0000020E063204601F020FC06B010BD000073
:1054E000000000201C380240000002400044004040
:1054F00070B5040027D0607F18B92077204602F0ED
:1055000053F802206077CA2021684862532021683E
:1055100048622068C168490617D44FF0FF31C16066
:1055200040F2E936FFF710F905462068C0684006EA
:105530000BD4FFF709F9401BB042F6D32168FF20D6
:10554000486204206077012070BD2068DFF8F422F3
:1055500081681140816020688168626823691A430C
:1055600063691A43114381602168E068086120681B
:105570000169A26841EA024101612068C16821F025
:105580008001C1602068016C21F4802101642068E1
:10559000016CA26911430164FF2021684862012067
:1055A0006077002070BD2DE9F04104460D46207F54
:1055B000012808BF022000F08D8001202077022002
:1055C0006077002A2068806830D140065CBF0020E8
:1055D000E87028780A28014605DB0A2290FBF2F2DF
:1055E000F62000FB021141EA0210697800230A2923
:1055F0000A4605DB0A2391FBF3F3F62101FB0322A4
:1056000042EA0311AA7800260A2A134605DB0A2675
:1056100092FBF6F6F62202FB06330906C0B2090C2D
:1056200041EA004043EA0611C9B209E040065CBF06
:105630000020E87069782878090241EA0040A978DA
:105640000843E97840EA01462168CA2048625320AD
:10565000216848622068C168490611D44FF0FF31C3
:10566000C16040F2E938FFF76FF807462068C0686C
:10567000400605D4FFF768F8C01B4045F6D318E094
:1056800021687148304008602068816821F48021D9
:10569000816020688168EA682B691A431143816040
:1056A0002068C16821F08001C160204601F013FA32
:1056B00048B12168FF2048620420607700202077ED
:1056C0000120BDE8F0812168FF2048620120607759
:1056D00000202077BDE8F081F0B5044681B0207F3E
:1056E000012808BF02207DD00120207702206077AA
:1056F000002A487852D1C20603D500F0EF000A30E4
:1057000048700023C8780A28024605DB0A2390FB6C
:10571000F3F3F62000FB032242EA03104A78002547
:105720000A2A134605DB0A2592FBF5F5F62202FB51
:10573000053343EA05128B7800260A2B1D4605DB4C
:105740000A2693FBF6F6F62303FB06551206C0B2B3
:10575000120C42EA004045EA0612D2B20978104320
:1057600040EA41352168CA204862532021684862D6
:105770002068C168490617D44FF0FF31C16040F27C
:10578000E937FEF7E1FF06462068C06840060BD403
:10579000FEF7DAFF801BB842F6D312E0CA780002A7
:1057A00040EA02408A78D9E72168284828404860C2
:1057B0002068C16821F08001C160204601F08BF9AA
:1057C00048B12168FF2048620420607700202077DC
:1057D00001B00120F0BD2168FF2048620120607700
:1057E0000020207701B0F0BD0068184B40681840D9
:1057F000030CCB708870030A03F01F03400B4B703F
:1058000000F007000870D2B9CA78100900EB8003D5
:1058100002F00F0000EB4300C8704A78100900EB5B
:10582000800302F00F0000EB430048708A781009F3
:1058300000EB800302F00F0000EB430088700020B3
:1058400070470000BFFF8FFF7F7F7F003FFFFF009B
:10585000010901EB810200F00F0000EB4200C0B231
:105860007047000010B50C460021216068B1012886
:10587000204611D000F058F8012804D1204600F04D
:1058800011F801280CD0002010BD204600F00AF8C5
:105890000128F8D1012010BD00F046F80128F2D10E
:1058A000012010BD30B5434D0446E878012881B091
:1058B00038D0FDF7B7FC012834D068202870D620F6
:1058C00068700020688028710120687105F1280047
:1058D000A8603948E860002028613848E86305F18D
:1058E0003800A8620020E8622560E86801680800C6
:1058F00008D100200021002207C503C5206001B0A7
:10590000012030BD28468847012808D1206814218D
:1059100001F08CFE0020206001B0012030BDFDF7B9
:10592000DAFC002001B030BD30B5224D0446E87DE0
:10593000012881B03BD0FDF775FC012837D06920E4
:105940002875D42068750120A8750020E875287690
:105950000120687605F13000E8611948286219488D
:10596000686205F1400028630020686305F11400B7
:105970002060286A0168080005F1140008D10021A0
:10598000002200230EC006C02160012001B030BDFE
:105990008847012808D12068142101F047FE002023
:1059A000206001B0012030BDFDF797FC002001B060
:1059B00030BD0000D0150020AC060020E416002009
:1059C000580800204C07002000B581B018B1C1680C
:1059D00089680A0002D1012001B000BD8847012872
:1059E00018BF002001B000BD00B581B018B1C1687A
:1059F000C9680A0002D1012001B000BD8847012812
:105A000018BF002001B000BD002818BF00290FBF3B
:105A10000120C078087000207047002818BF0029B6
:105A20000FBF0120807808700020704700B581B05A
:105A300000281CBFC268002902D09269130002D15D
:105A4000012001B000BD9047012818BF002001B01F
:105A500000BD00B581B018B1C268D26A130002D18E
:105A6000012001B000BD9047012818BF002001B0FF
:105A700000BD00B581B018B1C268926B130002D1AD
:105A8000012001B000BD9047012818BF002001B0DF
:105A900000BD10B500281CBFC368002A02D05B6C93
:105AA0001C0001D1012010BD9847012818BF00201B
:105AB00010BD10B518B1C3689B6C1C0001D101204A
:105AC00010BD9847012818BF002010BD00B581B057
:105AD00018B1C268D26C130002D1012001B000BD20
