:020000040800F2
:1000000068060020F9520008D1520008D3520008B7
:100010001D5300082153000825530008000000006C
:10002000000000000000000000000000295300084C
:10003000D5520008000000002D530008D7520008D8
:100040003153000835530008395300083D53000868
:100050004153000845530008495300084D53000818
:100060005153000855530008DB520008595300084B
:100070005D53000861530008655300086953000888
:100080006D53000871530008755300087953000838
:100090007D530008815300088553000889530008E8
:1000A0008D53000891530008955300089953000898
:1000B0009D530008A1530008A5530008A953000848
:1000C000AD530008B1530008B5530008B9530008F8
:1000D000BD530008C1530008C5530008C9530008A8
:1000E000E1520008CD530008D1530008D553000851
:1000F000D953000800000000DD530008E153000858
:10010000E5530008E9530008ED530008F1530008D7
:10011000F5530008F9530008FD53000800000000E3
:100120000154000810B582B0044600208DF800008C
:100130006946204600F0EEFD002831D09DF8000011
:10014000217888422CD10421204600F06AFF38B380
:100150004021204600F0EAFD10B30021204600F0C7
:1001600003FFE8B1A168DFF888040968086000218E
:10017000204600F029FE98B10C21204600F0F5FD44
:1001800070B10821204600F0A9FF48B11021204697
:1001900000F0D3FF20B12021204600F0FDFF10B970
:1001A000012002B010BD0120E07002B0002010BD9F
:1001B00070B5044682B0A068056800208DF8000084
:1001C0006946204600F0A6FD002848D09DF80000B2
:1001D0002178884243D12079002838D0A068066869
:1001E0006946204600F00FFE002838D09DF8000038
:1001F00028B3102821D020281CD0302817D0402820
:1002000013D050280ED0602809D0702804D0802840
:1002100022D1DFF84C0312E0DFF848030FE0DFF8EB
:1002200048030CE0DFF8440309E04E4807E0DFF83C
:10023000B40304E0DFF8B00301E0DFF8B00330609E
:100240000021204600F0C0FD48B1002020710020B0
:100250002860E07002B070BDDFF8F8043060012063
:1002600002B070BD10B504462079012834D0A068D2
:1002700084490068006801F077F838BF102123D363
:10028000814901F071F838BF20211DD37F4901F069
:100290006BF838BF302117D37D4901F065F838BFBE
:1002A000402111D37B4901F05FF838BF50210BD3B7
:1002B000794901F059F838BF602105D3774901F039
:1002C00053F834BF70218021204600F07DFD08B92D
:1002D000012010BD01202071002010BD30B5044662
:1002E00081B0207900283AD0A06805686946204688
:1002F00000F089FD00282DD09DF80000F0B11028F5
:100300001BD0202817D0302813D040280FD05028D9
:100310000BD0602807D0702803D0802817D19048D0
:100320000CE090480AE0904808E0904806E00D484C
:1003300004E0AC4802E0AC4800E0AC482860002192
:10034000204600F041FD40B9012001B030BDDFF88A
:1003500004042860012001B030BD0020207101B0EC
:1003600030BD00000000D04200B581B000F0D2FCEA
:10037000401E8041C00F01B000BD10B582B00446E0
:1003800000208DF800006946204600F0C3FC20B133
:100390009DF800002178884202D0012002B010BDF3
:1003A000002002B010BD00002DE9F04184B080466D
:1003B0000C4601A80021C0E90011404601A900F047
:1003C00032FD00285AD001A89DF80420417802EBA4
:1003D00001269DF807108278007902EB01279DF82D
:1003E000091000EB01250DF10101404600F05EFD12
:1003F000002843D09DF80100022808BFDFF864857B
:100400001DD06946404600F0CFFC002836D09DF84C
:1004100000000C2832D8DFE800F0103131310D3106
:1004200031310A3131310700DFF83C8507E0DFF870
:100430003C8504E0DFF8388501E0DFF8388530B22C
:1004400000F0A4FF414600F0B9FF01F023F820605E
:1004500038B200F09BFF414600F0B0FF01F01AF8FF
:10046000606028B200F092FF414600F0A7FF01F063
:1004700011F8A06004B00020BDE8F081012004B0B4
:10048000BDE8F081010050410100D041010050421F
:100490000100D042010050430100D04301405044CC
:1004A00010B582B00C4669460022C1E9002200F076
:1004B000BAFC10B9012002B010BD9DF801109DF8E2
:1004C000002002EB012121809DF802209DF80310FD
:1004D00002EB012161809DF804009DF8051000EBFE
:1004E0000120A08002B0002010BD000030B581B016
:1004F0000C4605460DF1010100F0D8FC70B19DF8E5
:100500000100022805D1DFF85C04206001B0002062
:1005100030BD6946284600F047FC10B9012001B003
:1005200030BD9DF800000C2814D8DFE800F0071358
:1005300013130A1313130D1313131000DFF83404ED
:10054000E3E7DFF82C04E0E7DFF82004DDE7DFF87D
:100550001804DAE77F48206001B0012030BD0000B8
:100560000080CF44004050440000D043000050437E
:1005700010B582B00C46694600F045FC10B9012068
:1005800002B010BD9DF80000A0B1102816D02028A0
:1005900016D0302816D0402816D0502816D0602803
:1005A00017D0702818D0802819D06A48206002B06F
:1005B000012010BD206002B0002010BD0B48F9E7FB
:1005C0000948F7E70748F5E70948F3E7DFF8A80324
:1005D000F0E7DFF8A803EDE7DFF8A403EAE7DFF8C8
:1005E0003404E7E7000050420000D04100005041D1
:1005F0000000D04200B581B00279012A13D104294C
:100600000ED8DFE801F0090907050300402104E0E6
:10061000302102E0202100E0102100F0D5FBC0B91C
:10062000012001B000BD806800680429F8D8DFE827
:1006300001F00D0D0A070400F2E7DFF8481307E0A8
:10064000DFF8441304E0DFF8441301E0DFF8C813D7
:100650000160002001B000BD00B581B0024608462F
:100660001379DFF8B813012B36D100F07DFE38BFC7
:10067000102129D3DFF8A81300F076FE38BF20211F
:1006800022D3DFF8A01300F06FFE38BF30211BD358
:10069000DFF8941300F068FE38BF402114D3DFF870
:1006A0008C1300F061FE38BF50210DD3DFF88013AA
:1006B00000F05AFE38BF602106D3DFF8781300F04F
:1006C00053FE34BF70218021104600F07DFB0028CE
:1006D0003CD1012001B000BD9268126800F044FED8
:1006E00038BFDFF8340330D3DFF8341300F03CFEBA
:1006F00038BFDFF8980228D3DFF8281300F034FE63
:1007000038BFDFF8840220D3DFF81C1300F02CFE82
:1007100038BFDFF8700218D3DFF8101300F024FEA2
:1007200038BFDFF8540210D3DFF8041300F01CFECA
:1007300038BFDFF8480208D3DFF8F81200F014FEE3
:1007400034BFDFF83C02DFF8CC021060002001B0BB
:1007500000BD0000000080BF30B581B00C460546EA
:10076000694600F0A3FB28B10DF10101284600F015
:100770001BFB10B9012001B030BD9DF8000002281C
:1007800005D1DFF8B402206001B0002030BD9DF833
:1007900001000C2814D8DFE800F0071313130A1324
:1007A00013130D1313131000DFF89003EBE7DFF8BA
:1007B0009003E8E7DFF88C03E5E7DFF88C03E2E776
:1007C000DFF88803206001B0012030BD00B50429A6
:1007D00081B010D8DFE801F0030F0B0F0D000021EE
:1007E00000F0C3FA401E8041C00F01B000BD0421DB
:1007F000F6E70C21F4E7012001B000BD30B5044656
:100800000846DFF84C1300F0AFFD81B007D202219B
:10081000204600F02CFB10B3002001B030BDDFF803
:10082000341300F0A1FD38BF00250DD3DFF82813E5
:1008300000F09AFD38BF042506D3DFF8AC1300F0B2
:1008400093FD34BF08250C250021204600F00FFB46
:1008500028B12946204600F088FA0028DCD1012082
:1008600001B030BD30B581B00D4604460DF1020136
:1008700000F053FC50B10DF10101204600F07CFC6A
:1008800020B16946204600F0A6FC10B9012001B055
:1008900030BD9DF8020008280CBF01200020287000
:1008A0009DF8010010280CBF0120002068709DF801
:1008B000000020280CBF01200020A87001B00020FB
:1008C00030BD30B50D4681B00446287801280CBFF4
:1008D00008210021204600F001FC40B16878012881
:1008E0000CBF10210021204600F027FC10B9012088
:1008F00001B030BDA87801280CBF2021002120467E
:1009000000F04AFC401E8041C00F01B030BD00B570
:1009100081B0012300F0F5F9401E8041C00F01B005
:1009200000BD00B581B001238DF800206A4600F0BB
:10093000DFF9401E8041C00F01B000BD10B582B08C
:100940000C46694600F057FC48B19DF8000010B114
:10095000022804D10120207002B0002010BD012027
:1009600002B010BD00008C4000008C4200000C4220
:1009700000008C4100000C41000050430000D043B7
:10098000004050440000D042000050420000D041DE
:1009900002460846954900B500F0E6FC81B038BF34
:1009A00008212FD3924900F0DFFC38BF102129D352
:1009B000904900F0D9FC38BF182123D38E4900F0AC
:1009C000D3FC38BF20211DD38C4900F0CDFC38BFAB
:1009D000282117D38A4900F0C7FC38BF302111D332
:1009E000884900F0C1FC38BF38210BD3864900F09C
:1009F000BBFC38BF402105D3844900F0B5FC34BFAF
:100A000048215021104600F0CEFA401E8041C00F10
:100A100001B000BD0080CF440000504101005041B2
:100A20000100D041010050420100D042010050437A
:100A30000100D043014050440000FA4210B582B09A
:100A40000C46694600F018FC68B19DF8000020B122
:100A5000202806D0012002B010BD207002B0002076
:100A600010BD0120F9E7012002B010BD10B582B021
:100A70000C46694600F0F0FB68B19DF8000020B11B
:100A8000102806D0012002B010BD207002B0002056
:100A900010BD0120F9E7012002B010BD10B582B0F1
:100AA0000C46694600F0F8FB68B19DF8000020B1E3
:100AB000402806D0012002B010BD207002B00020F6
:100AC00010BD0120F9E7012002B010BD00B581B0D2
:100AD00000F0F2FB401E8041C00F01B000BD00B528
:100AE00081B000F029FC401E8041C00F01B000BD64
:100AF00000B581B000F08FFB401E8041C00F01B0F7
:100B000000BD00B50A0018BF082981B00BD010291C
:100B100018BF182907D0202918BF282903D0302949
:100B200018BF382906D100F000FA401E8041C00FDE
:100B300001B000BD012001B000BD00000000754300
:100B40000000FA4300007A440000FA44000080BF2D
:100B50000100FA42010075430100FA4370B582B00A
:100B60000C4605460DF1020100F0E6FB002837D0E7
:100B70009DF803009DF8021041EA00260DF10101E5
:100B8000284600F093F900282AD09DF80100022899
:100B900008BF1F4D18D06946284600F005F9F8B186
:100BA0009DF800000C281BD8DFE800F00D1A1A1A77
:100BB0000B1A1A1A091A1A1A0700164D04E0164DD4
:100BC00002E0164D00E0164D30B200F0DFFB294682
:100BD00000F0F4FB00F05EFC206002B0002070BD6D
:100BE000012002B070BD000001007A4401002041E4
:100BF0000100C841010048420100C84201004843C9
:100C00000100C843010048440100C84401404E456A
:100C100000008C4000008C4200000C4200008C411F
:100C200000000C4100B5062981B00CD8DFE801F0C6
:100C300004040B04040B040000F096F9401E8041EC
:100C4000C00F01B000BD012001B000BD00B50A0019
:100C500018BF202981B006D100F0C4F9401E8041A0
:100C6000C00F01B000BD012001B000BD00B581B0D2
:100C700000F02CF9401E8041C00F01B000BD00B54E
:100C8000012981B006D800F0EBF9401E8041C00F69
:100C900001B000BD012001B000BD00B5012981B047
:100CA00006D800F02AFB401E8041C00F01B000BDF5
:100CB000012001B000BD000000B50C2981B00FD8A3
:100CC000DFE801F0070E0E0E070E0E0E070E0E0ED9
:100CD000070000F0E4F9401E8041C00F01B000BDE4
:100CE000012001B000BD0268531C03601170704701
:100CF00000B581B000F088FC401E8041C00F01B0FB
:100D000000BD00B581B000F096FC401E8041C00FD0
:100D100001B000BD00B50A4681B001230F2100F0EB
:100D20008AFC401E8041C00F01B000BD30B581B0CB
:100D30000D46044601236A46122100F07CFC10B1E6
:100D4000002001B030BD9DF8000000F0BF00284336
:100D50008DF8000001236A461221204600F054FC61
:100D6000401E8041C00F01B030BD30B581B00D468E
:100D7000044601236A46112100F05DFC10B10020F9
:100D800001B030BD9DF8000000F0F30028438DF85D
:100D9000000001236A461121204600F035FC401E68
:100DA0008041C00F01B030BD10B50C460123224672
:100DB000112100F040FC08B1002010BD207800F0A7
:100DC0000C002070012010BD30B581B00D460446E6
:100DD00001236A46112100F02EFC10B1002001B061
:100DE00030BD9DF8000000F00F0028438DF8000092
:100DF00001236A461121204600F006FC401E804176
:100E0000C00F01B030BD10B50C46012322461121A0
:100E100000F011FC08B1002010BD207800F0F000B7
:100E20002070012010BDF0B581B004460D460026AB
:100E30000327F6B206F122010123AA19C9B22046FE
:100E400000F0F9FB50B9761CF6B206F1220101233D
:100E5000AA19C9B2204600F0EEFB10B1002001B083
:100E6000F0BD761C7F1EE4D1012001B0F0BD30B58D
:100E700081B00D46044601236A46112100F0DBFBD8
:100E800010B1002001B030BD9DF8000000F0FD0061
:100E900028438DF8000001236A461121204600F006
:100EA000B3FB401E8041C00F01B030BD10B50C46F1
:100EB00001232246112100F0BEFB08B1002010BD25
:100EC000207800F002002070012010BD70B582B0C3
:100ED000044601236A460D46062100F0ACFB2E0AAB
:100EE00078B98DF8005001236A460621204600F0AB
:100EF0008BFB30B901236A460721204600F09BFB9B
:100F000010B1002002B070BD9DF8000066F3030030
:100F10008DF8000001236A460721204600F074FB8B
:100F2000401E8041C00F02B070BD30B581B00D468B
:100F3000044601236A46082100F07DFB10B1002021
:100F400001B030BD9DF8000000F0C70028438DF8C7
:100F5000000001236A460821204600F055FB401E90
:100F60008041C00F01B030BD30B581B00D460446A0
:100F700001236A460A2100F05EFB10B1002001B097
:100F800030BD9DF8000000F0F80028438DF8000007
:100F900001236A460A21204600F036FB401E8041AC
:100FA000C00F01B030BD30B581B00D4604460123FD
:100FB0006A460A2100F03FFB10B1002001B030BDAD
:100FC0009DF8000000F0870028438DF80000012301
:100FD0006A460A21204600F017FB401E8041C00FE0
:100FE00001B030BD30B581B00D46044601236A46DC
:100FF0000D2100F020FB10B1002001B030BD9DF8A4
:10100000000000F0DF0028438DF8000001236A464D
:101010000D21204600F0F8FA401E8041C00F01B0BB
:1010200030BD30B581B00D46044601236A46122119
:1010300000F001FB10B1002001B030BD9DF80000B0
:1010400000F0FB0028438DF8000001236A461221BE
:10105000204600F0D9FA401E8041C00F01B030BDDB
:1010600030B581B00D46044601236A46132100F0D5
:10107000E2FA10B1002001B030BD9DF8000000F090
:10108000FE0028438DF8000001236A461321204604
:1010900000F0BAFA401E8041C00F01B030BD30B53B
:1010A00081B00D46044601236A46142100F0C3FABC
:1010B00010B1002001B030BD9DF8000000F0F30039
:1010C00028438DF8000001236A461421204600F0D1
:1010D0009BFA401E8041C00F01B030BD30B581B0D9
:1010E0000D46044601236A46192100F0A4FA10B106
:1010F000002001B030BD9DF8000000F0F70028434B
:101100008DF8000001236A461921204600F07CFA80
:10111000401E8041C00F01B030BD10B50C46012308
:101120002246192100F087FA08B1002010BD20786E
:1011300000F008002070012010BD30B581B00D46D0
:10114000044601236A46192100F075FA10B1002007
:1011500001B030BD9DF8000000F0EF0028438DF88D
:10116000000001236A461921204600F04DFA401E76
:101170008041C00F01B030BD10B50C46012322469E
:10118000192100F058FA08B1002010BD207800F0B5
:1011900010002070012010BD30B581B00D4604460E
:1011A00001236A46192100F046FA10B1002001B06F
:1011B00030BD9DF8000000F0DF0028438DF80000EE
:1011C00001236A461921204600F01EFA401E804184
:1011D000C00F01B030BD10B50C46012322461921C5
:1011E00000F029FA08B1002010BD207800F020009E
:1011F0002070012010BD10B50C46012322461E218F
:1012000000F019FA08B1002010BD207800F00200AB
:101210002070012010BD30B581B00D460446012379
:101220006A463A2100F007FA38B901230DF10102AC
:101230003B21204600F0FFF910B1002001B030BD85
:101240009DF801009DF8001000F00F0041EA002019
:10125000288001B0012030BD10B50C460123224684
:101260003B2100F0E8F908B1002010BD207800F023
:1012700010002070012010BD10B50C46012322463D
:101280003B2100F0D8F908B1002010BD207800F013
:1012900020002070012010BD10B50C46012322460D
:1012A0003B2100F0C8F908B1002010BD207800F003
:1012B00040002070012010BD30B581B00D460446BD
:1012C00001236A463C2100F0B6F938B901230DF13B
:1012D00001023D21204600F0AEF910B1002001B01E
:1012E00030BD9DF801009DF8001000F0030041EAB8
:1012F0000020288001B0012030BD30B581B00D46FE
:10130000044601236A46582100F095F910B10020E7
:1013100001B030BD9DF8000000F0FE0028438DF8BC
:10132000000001236A465821204600F06DF9401E56
:101330008041C00F01B030BD30B50D4681B00446CC
:1013400001232A463E2100F076F930B901236A1CB8
:101350003F21204600F06FF910B1002001B030BDF0
:10136000012001B030BD00004FF0807C1CEB400F2D
:1013700094BF1CEB410F05E040EA010C5FEA4C0C06
:1013800001D28842704718BF81427047002840F15F
:101390000780F446404200F003F850F000406047F8
:1013A0000AD0B0FA80F18840D1F19D01C90502064A
:1013B00072F1004241EB102070470000FF2212EA58
:1013C000D05C1DBF12EAD153944593422BE09C445C
:1013D000D30780EA01021A4043EA002043EA0121D0
:1013E000A1FB0030410038BF40007CF17F010BDBE6
:1013F000FE294ADA5B0842EAC15153EA006373F1FD
:10140000004C51EB10207047D1F1080CDCF12001A9
:101410002FDB5B0810FA01F10B4373F1004120FA56
:101420000CF05041704794451CBF02EAD1539342DF
:1014300080EA010202F000421DD0400019D04900AC
:1014400017D05BB9634514D00902B1FA81F3994012
:10145000BCEB030CC00140F00040C1E70002B0FA51
:1014600080FC10FA0CF0B3EB0C0CC90141F0004108
:10147000B6E71000704740000AD0490008D010F1CC
:10148000807F94BF11F1807F02E042F0FF407047FF
:10149000D04370474100090E7F3915D4D1F11F01A7
:1014A00014D4400007D2C00140F00040C84048BFFB
:1014B0006FF000407047C00140F00040C8404CBF92
:1014C0004FF00040404270470020704700424FF00C
:1014D000004058BFC043704730B58F4C87B020469E
:1014E00000F09EFD002847D18C488D4D606001A919
:1014F0000020A0603320E0604FF4804020618948E4
:101500002060686840F002006860686800F00200CF
:10151000009000984FF44070019012200290022039
:10152000049000200390042005907F4800F07CFD8B
:10153000E86840F40010E8600022E86800F4001059
:10154000009000210098286840F400102860286866
:1015500020F4001028601F2000F063FE1F2000F020
:1015600089FE00220021202000F05BFE202000F0F8
:1015700081FE204600F0E0F8204600F051FD2028D2
:101580000CBF0020012007B030BD30B5674C684D5E
:101590008BB0206840F00100206006A9206800F0B0
:1015A00001000090009807951020069002200990F5
:1015B000002008905F4800F037FD002200210A203B
:1015C00000F02FFE0A2000F055FE206840F00200D7
:1015D000206001A9206800F00200009000980295A8
:1015E0000120019002200490002003904E4800F05A
:1015F0001BFD00220021062000F013FE062000F053
:1016000039FE00200BB030BD30B583B04FF48055AB
:10161000009202950A460193012341783E4C2046F0
:1016200000F030F928B1204600F012F900F01AF865
:10163000012003B030BD30B583B04FF48055009227
:1016400002950A46019301234178334C204600F06D
:101650008EFA28B1204600F0FBF800F003F80120D4
:1016600003B030BD30B52C4C87B0204600F0D8FC1C
:10167000002847D129482A4D606001A90020A060B8
:101680003320E0604FF48040206126482060686885
:1016900040F002006860686800F002000090009866
:1016A0004FF440700190122002900220049000201C
:1016B0000390042005901C4800F0B6FCE86840F454
:1016C0000010E8600022E86800F40010009000219B
:1016D0000098286840F400102860286820F4001062
:1016E00028601F2000F09DFD1F2000F0C3FD002298
:1016F0000021202000F095FD202000F0BBFD2046B9
:1017000000F01AF8204600F08BFC20280CBF0020C7
:10171000012007B030BD0000EC090020801A06004F
:101720001838024000540040000402401C380240B7
:10173000000011100000024070B504000CD094F8B5
:10174000350020B984F83400204600F06CFC01F02C
:1017500001F93A49884201D2012070BD242184F860
:10176000351021680A68520852000A603449B0FBFB
:10177000F1F221684B689B0942EA83134B603149BF
:1017800023681D6A66688E4206D34FF496767243CC
:101790004FF47A76B2FBF6F2521CAD0942EA85129A
:1017A0001A622268D36965688D4208D26900B0FB6D
:1017B000F1F0C0F30B01042913D2042011E0A16859
:1017C00021B905EB4501B0FBF1F005E019216943B2
:1017D000B0FBF1F040F4804001050CBF012040F463
:1017E0000040194919400843D06120680168E26946
:1017F00021F0C0011143226A114301602068134A9D
:101800008168114022691143E268114381602068B8
:10181000C168A2696369090A1A4342EA0121C160E9
:101820002068016841F0010101600020A0632020D0
:1018300084F83500002084F8360070BD80841E00D6
:1018400040420F00A18601000030FFFF007CFFFF37
:1018500010B5040001D1012010BD242084F835000A
:1018600020680168490849000160204601F0A2F89B
:101870000020A06384F8350084F8360084F8340032
:1018800010BD00002DE9F04F054681B095F83500F8
:1018900020288A46164699461FD1DDF82880B8F1DF
:1018A000000F02D00B9C200003D1012001B0BDE845
:1018B000F08F01F081F8074642F2117B28688169B8
:1018C00089070ED501F078F8C01B5845F6D32020C3
:1018D00085F83500002085F83400022001B0BDE80D
:1018E000F08F95F834100129F7D0012185F83410D4
:1018F000016821F400610160212085F83500402055
:1019000085F836000020A8632868016841F48071DA
:10191000016001F051F80C9F834628684169C907AE
:101920001AD417F1010FF8D02FB101F045F8A0EB50
:101930000B008742F1D2202085F83500002085F881
:101940003400A86B042840F0AE80002085F83400F5
:1019500001B00120BDE8F08F0AF0FE01016101F045
:101960002BF8824628684169890741691ED44905D8
:101970000AD5016841F4007101606FF48060296844
:1019800048610420A86309E017F1010FEAD02FB1E4
:1019900001F012F8A0EB0A008742E3D2202085F87C
:1019A0003500002085F83400A86BCAE700918069F3
:1019B0000090009801F000F8824629684869000606
:1019C00024D44869400513D56FF480604861042031
:1019D000A863202085F83500002085F83400A86B26
:1019E0000428AED12868016841F400710160A8E7BD
:1019F00017F1010FE1D02FB100F0DEFFA0EB0A00DC
:101A00008742DAD2A86B40F02000E1E7B9F1010F7C
:101A100025D0300A086100F0CFFF8146286841696F
:101A200009061CD44169490504D56FF48061416100
:101A300004200CE017F1010FF0D02FB100F0BCFF33
:101A4000A0EB09008742E9D2A86B40F02000A86310
:101A5000202085F83500002085F83400BFE728688D
:101A6000F6B2066100F0A8FF06462868416909063B
:101A70002DD4416949051DD56FF480614161042071
:101A8000A863202085F83500002085F83400A86B75
:101A900004280BD12868016841F40071016001201D
:101AA00001B0BDE8F08F002085F83400032001B0BC
:101AB000BDE8F08F17F1010FD7D027B100F07CFF00
:101AC000801B8742D1D2A86B40F02000D8E718F8DD
:101AD000011B0161641E28684169490723D4A0B233
:101AE0000028BFD100F068FF044628684169090654
:101AF0002ED4416949051ED56FF4806141610420EF
:101B0000A863202085F83500002085F83400A86BF4
:101B10000428CBD12868016841F4007101600120DC
:101B200001B0BDE8F08FA1B20029DBD018F8011B8D
:101B30000161641ED3E717F1010FD6D027B100F081
:101B40003BFF001B8742D0D2A86B40F02000D7E7B4
:101B5000016841F400710160202085F83500002003
:101B600085F8360085F8340001B0BDE8F08F2DE926
:101B7000F04F054681B095F8350020280E46924674
:101B800098461FD1DDF82890B9F1000F02D00B9CC8
:101B9000200003D1012001B0BDE8F08F00F00CFF60
:101BA000074642F2117B2868816989070ED500F04B
:101BB00003FFC01B5845F6D3202085F835000020D0
:101BC00085F83400022001B0BDE8F08F95F834109C
:101BD0000129F7D0012185F83410016821F4006152
:101BE0000160222085F83500402085F8360000206D
:101BF000A8632868016841F4806101602868016871
:101C000041F48071016000F0D7FE0C9F8346286884
:101C10004169C9070CD417F1010FF8D0002F00F06B
:101C2000C78000F0C9FEA0EB0B008742EFD2BFE0F7
:101C300006F0FE01016100F0BFFE8346286841699D
:101C4000890741691DD449050AD5016841F400712D
:101C500001606FF48060296848610420A86309E08E
:101C600017F1010FEAD02FB100F0A6FEA0EB0B0098
:101C70008742E3D2202085F83500002085F8340023
:101C8000BBE0009180690090009800F095FE8346CB
:101C90002968486900061CD4486940050BD56FF4D3
:101CA000806048610420A863202085F8350000206A
:101CB00085F834005EE017F1010FE9D02FB100F094
:101CC0007BFEA0EB0B008742E2D2A86B40F0200025
:101CD000E9E7B8F1010F26D04FEA1A20086100F0B9
:101CE0006BFE80462868416909061CD44169490594
:101CF00004D56FF48061416104200CE017F1010FFD
:101D0000F0D02FB100F058FEA0EB08008742E9D2D6
:101D1000A86B40F02000A863202085F83500002043
:101D200085F8340026E028685FFA8AF1016100F046
:101D300043FE824628684169090624D44169490561
:101D400004D56FF48061416104200CE017F1010FAC
:101D5000F0D02FB100F030FEA0EB0A008742E9D2AC
:101D6000A86B40F02000A863202085F835000020F3
:101D700085F83400A86B042840D12868016841F434
:101D8000007101603AE0016841F48071016000F087
:101D900013FE824628684169C90710D417F1010F64
:101DA000F8D02FB100F008FEA0EB0A008742F1D274
:101DB000202085F83500002085F834001EE046F02C
:101DC0000101C9B2016100F0F7FD064628684169CA
:101DD000890728D4416949051AD5016841F4007181
:101DE00001606FF48060296848610420A8632020A6
:101DF00085F83500002085F83400A86BA86B04280E
:101E000022D1002085F8340001B00120BDE8F08F18
:101E100017F1010FDAD0002FE9D000F0CDFD801BC3
:101E20008742D3D2E3E7012C15D1016821F4806108
:101E300001602868416900918169009100990168F9
:101E400041F40071016017E0002085F8340001B012
:101E50000320BDE8F08F022C09D1016821F48061D4
:101E600001602868016841F40061016028684169E7
:101E70000091806900900098A4B2042C80F29B80AD
:101E8000012C38D100F098FD0646286841694906C2
:101E90001FD44169C90612D56FF0100141610020BD
:101EA000A863202085F83500002085F83400A86B51
:101EB00020287FF46FAE032001B0BDE8F08F27B17A
:101EC00000F07AFD801B8742DFD2A86B40F0200033
:101ED000E6E7006909F8010B0024A0B20028CBD185
:101EE000202085F83500002085F8360085F834007C
:101EF00001B0BDE8F08F022C1DD100F05DFD06465B
:101F00002868416949070CD417F1010FF8D027B1AF
:101F100000F052FD801B8742F2D2202085F8350068
:101F200092E7016841F4007101602868006909F8CE
:101F3000010B2868CDE700F03FFD0646286841699F
:101F400049070CD417F1010FF8D027B100F034FD88
:101F5000801B8742F2D2202085F8350074E70168A3
:101F600021F4806101602868006989F8000000F0B0
:101F700023FD06462868416949070CD417F1010F73
:101F8000F8D027B100F018FD801B8742F2D2202044
:101F900085F8350058E7016841F400710160E41EDE
:101FA0002868006989F801002868006989F802003A
:101FB00009F1030991E700F0FFFC06462868416932
:101FC00049061FD44169C90612D56FF0100141615D
:101FD0000020A863202085F83500002085F8340013
:101FE000A86B20287FF4D6AD032001B0BDE8F08FA8
:101FF00027B100F0E1FC801B8742DFD2A86B40F0E4
:102000002000E6E7006909F8010B641E28684169B1
:1020100049077FF562AF006909F8010B641E5CE7B0
:1020200090F83500704770472DE9F04F81B00C688B
:102030006A4BDFF8AC81DFF8AC910022002C4FF046
:102040000F0A4FF0010B00F0B1800C680BFA02FC94
:102050001CEA040E00F0A5804C68022C18BF122C5C
:102060000ED1D40800EB84049500266A05F01C0507
:102070000AFA05F7BE430F6907FA05F535432562ED
:102080005400032506680F79A540ED4307F00307C8
:102090002E40A7403E4306604E68012E18BF022E18
:1020A00003D0112E18BF122E0ED18668CF682E4095
:1020B000A7403E438660466826EA0C074E68C6F392
:1020C000001696403E434660C6682E408D6805FA6D
:1020D00004F43443C4604C68E40062D5D9F800408D
:1020E00044F00104C9F800404FEA920CD9F80050BE
:1020F00005F0010400949500009C58F82C6005F050
:102100000C040AFA04F526EA0505374EB04208BF6A
:1021100000261DD0354EB04208BF012618D0344EDF
:10212000B04208BF022613D0324EB04208BF032689
:102130000ED0314EB04208BF042609D02F4EB04217
:1021400008BF052604D02E4EB0420CBF0626072637
:1021500006FA04F42C4348F82C406FEA0E061C687B
:102160004D683440ED0348BF4EEA04041C605C68CF
:102170004D683440AD0348BF4EEA04045C609C687F
:102180004D683440ED0248BF4EEA04049C60DC68B0
:1021900006EA040C4C68A40248BF4EEA0C0CC3F8D3
:1021A0000CC0521C0C68D4407FF44FAF01B0BDE8A6
:1021B000F08F000000690840401E8041C043C00FFE
:1021C000704702B90904816170470E4A13680342DF
:1021D0001CBF106000F067BE7047000000040140A3
:1021E0000800014020380240000002400004024084
:1021F00000080240000C024000100240001402409F
:10220000001802401404014027490A684FF6FF03F2
:1022100000021A4000F4E0601043244A10430860B2
:10222000704730B4204B1B68C3F30223C3F107048B
:10223000052C28BF04241D1D072D34BF0023DB1EE1
:10224000012505FA04F4641E2140994005FA03F3C0
:102250005B1E1A4011430901002807D5144A00F0FB
:102260000F00104400F8041C30BC7047114A115490
:1022700030BC7047012100F01F0291400E4A400916
:1022800042F820107047401EB0F1807F01D301203A
:1022900070470A494860F02081F8130D00208860DB
:1022A00007200860002070470CED00E00000FA05F0
:1022B00018ED00E000E400E000E100E010E000E0E4
:1022C000F0B5044681B02078DFF8B056C00752D58B
:1022D000A86800F00C00082807D0A86800F00C00DF
:1022E0000C280DD1A868C0030AD52868C0F3404067
:1022F000002840D0606800283DD1012001B0F0BD29
:102300006068012803D1286840F4803012E008B9E1
:10231000286809E00528286806D140F48020286054
:10232000286840F4803005E020F480302860286878
:1023300020F480202860606870B100F03DFB064604
:102340002868C0F34040B0B900F036FB801B652818
:10235000F6D3032001B0F0BD00F02EFB064628683E
:10236000C0F3404038B100F027FB801B6528F6D34E
:10237000032001B0F0BD207880071BD5A86800F0CD
:102380000C00042807D0A86800F00C000C2832D1FB
:10239000A868C0032FD42868C0F3400000281CBFE1
:1023A000E0680128A9D16868216920F4F85040EA62
:1023B000012068602078C00640F1C180A86810F054
:1023C0000C0F40F0D7802868C0F3402010B1A069FE
:1023D000002892D0266A686800F46040B04269D252
:1023E000A868002710F0F00F48D1686AC00029D50E
:1023F00000F078FE35E0E068DFF8887588B10120EC
:10240000386000F0D9FA06462868C0F3400000287A
:10241000C9D100F0D1FA801B0328F5D3032001B005
:10242000F0BD386000F0C8FA06462868C0F34000E6
:102430000028BFD000F0C0FA801B0328F5D303208A
:1024400001B0F0BD686A40F080506862686A00F0D0
:1024500080500090009800F045FE696A21F080519C
:102460006962B0F5C05F08BFB6F5404F06D1D5F838
:10247000000440F004000127C5F80004D5F800046A
:10248000400847EA4000C5F80004D5F8000400F011
:102490000100B8427FF431AF6868216A20F46040DF
:1024A000084368606868E16920F07F4040EA0160A5
:1024B000686041E0686820F460403043686000274D
:1024C0006868E16920F07F4040EA01606860266A40
:1024D000A86810F0F00F21D1686AC00002D500F0A2
:1024E00001FE0EE0686A40F080506862686A00F0A1
:1024F00080500090009800F0F5FD696A21F080514D
:102500006962B0F5C05F08BFB6F5404F06D1D5F897
:10251000000440F004000127C5F80004D5F80004C9
:10252000400847EA4000C5F80004D5F8000400F070
:102530000100B8427FF4E1AE0F2000F0DBFD20780F
:1025400000075CD56069DFF83C74002846D00120A4
:10255000C7F8800600F030FA0646686BC0F340000A
:1025600000284CD100F028FA801B0328F5D3032063
:1025700001B0F0BDA069DFF80C74F0B10120386241
:1025800000F01AFA06462868C0F3402038B900F077
:1025900013FA801B0328F6D3032001B0F0BD68684E
:1025A000216A20F46040084368606868E16920F0AF
:1025B0007F4040EA01606860C1E7386200F0FCF9E2
:1025C00006462868C0F340200028B8D000F0F4F98F
:1025D000801B0328F5D3032001B0F0BDC7F88006A7
:1025E00000F0EAF90646686BC0F3400038B100F02D
:1025F000E3F9801B0328F6D3032001B0F0BD207857
:1026000040075BD5686ADFF8807340F080506862ED
:10261000686A00F0805000900098386840F480703C
:10262000386000F0C9F906463868C00507D400F0E4
:10263000C3F9801B6528F7D3032001B0F0BDA06863
:10264000012803D1686B40F4807012E008B9686B10
:1026500009E00528686B06D140F480606863686B08
:1026600040F4807005E020F480706863686B20F4AB
:1026700080606863A06880B100F09EF9064641F270
:102680008937686BC0F34020C0B900F095F9801B12
:10269000B842F6D3032001B0F0BD00F08DF9064634
:1026A00041F28937686BC0F3402038B100F084F9FB
:1026B000801BB842F6D3032001B0F0BD606A002849
:1026C00046D0A96801F00C010C293FF416AE02288F
:1026D000DFF8B0722BD10020386600F06DF90646A5
:1026E0002868C0F3406038B100F066F9801B032809
:1026F000F6D3032001B0F0BDA868A16A20F47D00E4
:102700000843E16A0843216B0843A860012038664A
:1027100000F052F906462868C0F34060C0B900F0E6
:102720004BF9801B0328F6D3032001B0F0BD002035
:10273000386600F041F906462868C0F3406038B1B9
:1027400000F03AF9801B0328F6D3032001B0F0BD56
:10275000002001B0F0BDF0B5DFF8206281B0044682
:10276000D6F800040D4600F00100A84215D2012D54
:1027700005D1D6F8000440F00400C6F80004D6F8ED
:102780000004400845EA4000C6F80004D6F80004FA
:1027900000F00100A84240F08B802078800705D52A
:1027A000B068A16820F0F0000843B0602078C0074E
:1027B00063D56068022803D13168C1F340410AE063
:1027C000032803D13168C1F3406104E00128316876
:1027D00005D1C1F3400131B9012001B0F0BDC1F311
:1027E0004021002964D0B168890840EA8100B060C6
:1027F00000F0E2F80746606802280ED1B06800F0E9
:102800000C00082839D000F0D7F8C01B41F28931FC
:102810008842F3D3032001B0F0BD03280ED1B06885
:1028200000F00C000C2828D000F0C6F8C01B41F2C4
:1028300089318842F3D3032001B0F0BD01280ED1C5
:10284000B06800F00C00042817D000F0B5F8C01BE9
:1028500041F289318842F3D3032001B0F0BDB06862
:1028600010F00C0F09D000F0A7F8C01B41F289311D
:102870008842F4D3032001B0F0BDD6F8000400F084
:102880000100854217D2012D05D1D6F8000440F091
:102890000400C6F80004D6F80004400845EA4000E9
:1028A000C6F80004D6F8000400F00100A84202D0E7
:1028B000012001B0F0BD2078400705D5B068E1687F
:1028C00020F4E0600843B0602078000706D5B068C7
:1028D000216920F4605040EAC100B06000F00EF8B9
:1028E000B2682A49C2F30312895CC84024490860CF
:1028F0000F2000F0FFFB002001B0F0BD254841682B
:1029000001F00C02042A04D0082A04D00C2A04D0B6
:1029100016E021487047214870470FF28C02C1F33E
:102920008343C1F38151D25C0FF27803595C406854
:10293000C0034CBF194818485043B0FBF1F0704732
:102940000068400B00F007000121401C01FA00F074
:10295000C00370470A480E4A006812681049C2F363
:102960000222895CC84070470548094A006812681D
:102970000B49C2F3C222895CC8407047003802404C
:10298000EC0100200000474200700040F4510008B4
:1029900008380240043802400024F40000127A0093
:1029A0001453000801020304030406080C10182045
:1029B000300000007047000001480068704700BF09
:1029C000380A00202DE9F04786B000208DF80A0073
:1029D000039000F0A3FB00F0BBFB002000F010FC14
:1029E0000121002000F04BFC00F0A0FCDFF86C455A
:1029F000211D012000F0F4FC012821D10FF26852C2
:102A00000FF2C46104F1080000F04AFE04F108006E
:102A100000F060FE82B241F2883304F10801DFF871
:102A2000400500F0A1FE002000F013FC642001F03E
:102A30003BF8002000F018FC642001F035F8F2E7C4
:102A4000606800F07DFD012821D10FF21C520FF2C9
:102A5000786104F1080000F023FE04F1080000F0A2
:102A600039FE82B241F2883304F10801DFF8F00444
:102A700000F07AFE002000F0ECFB642001F014F876
:102A8000002000F0F1FB642001F00EF8F2E760682E
:102A9000002100F065FD01281ED06068082100F0CB
:102AA000AAFD012818D06068DFF8B81400F068FDAE
:102AB000012811D06068202100F0C8FD01280BD04A
:102AC00060681F2100F0D0FD012805D06068012159
:102AD00000F0D8FD012821D10FF28C420FF2E8510D
:102AE00004F1080000F0DCFD04F1080000F0F2FD44
:102AF00082B241F2883304F10801DFF8640400F087
:102B000033FE002000F0A5FB642000F0CDFF002084
:102B100000F0AAFB642000F0C7FFF2E70FF250417B
:102B200004F1080000F0BCFD04F1080000F0D2FD43
:102B300041F2883982B24B4604F10801DFF82004E3
:102B400000F012FE01E0022060706078042800F2BC
:102B50008A81DFE810F005000600430069004D019E
:102B6000F3E70FF2644104F1080000F099FD04F16D
:102B7000080000F0AFFD82B24B4604F10801DFF817
:102B8000E00300F0F1FD4FF47A7000F08DFF606813
:102B9000012100F04DFD0128D5D10FF2CC320FF20A
:102BA000285104F1080000F07BFD04F1080000F05A
:102BB00091FD82B24B4604F10801DFF8A40300F056
:102BC000D3FD002000F045FB642000F06DFF0020E5
:102BD00000F04AFB642000F067FFF2E7606803A999
:102BE00000F0FAFC012802D106B0BDE8F087BDF87C
:102BF0000C00BDF80E10884211D0ADF80E00C5A132
:102C000004F1080000F04CFD04F1080000F062FD42
:102C100082B24B4604F10801D14800F0A5FD2078AE
:102C2000002892D003208FE760680DF10A0100F0C0
:102C3000B5FC01281FD10FF230320FF28C4104F1A4
:102C4000080000F02DFD04F1080000F043FD82B201
:102C50004B4604F10801C24800F086FD002000F058
:102C6000F8FA642000F020FF002000F0FDFA642054
:102C700000F01AFFF2E79DF80A0001287FF465AF23
:102C8000002000F0E6FA0020ADF8080082466068F7
:102C900002A900F0A1FC012800F08A80BDF808001C
:102CA0000321B0FBF1F0ADF8080004F10800BDF815
:102CB00008200FF2483100F0F3FC04F1080000F0A6
:102CC00009FD82B24B4604F10801A54800F04CFD15
:102CD0004FF47A7000F0E8FE0FF2683104F108005A
:102CE00000F0DEFC04F1080000F0F4FC82B24B4678
:102CF00004F108019A4800F037FD1CE0DDF814806B
:102D00007F1E24D11FFA8AF00196421C009543468B
:102D10000FF27C3104F1080000F0C2FC04F108005D
:102D200000F0D8FC82B24B4604F108018C4800F058
:102D30001BFD0AF1010ABDF8080082451FDA0020D8
:102D4000ADF8100005908046002500260327606836
:102D500004A900F032FC01282AD0606805A900F01F
:102D600058FC012824D0BDF810000028C6D0022845
:102D700001D002D31CE0059EC2E7059DC0E70FF21B
:102D8000F02104F1080000F08BFC04F1080000F0D1
:102D9000A1FC82B24B4604F10801714800F0E4FC4A
:102DA000642000F081FE002000F05EFA0420CBE6F3
:102DB0000FF2B4120FF2103104F1080000F070FCB1
:102DC00004F1080000F086FC82B24B4604F10801D1
:102DD000634800F0C9FC002000F03BFA642000F0DA
:102DE00063FE002000F040FA642000F05DFEF2E790
:102DF0006068002100F01CFC012814D00FF29C1127
:102E000004F1080000F04CFC04F1080000F062FC42
:102E100082B24B4604F10801514800F0A5FC0020A5
:102E20002070039090E60FF240120FF29C2104F103
:102E3000080000F035FC04F1080000F04BFC82B201
:102E40004B4604F10801464800F08EFC002000F0DB
:102E500000FA642000F028FE002000F005FA64204B
:102E600000F022FEF2E70FF200120FF25C2104F1F3
:102E7000080000F015FC04F1080000F02BFC82B201
:102E80004B4604F10801364800F06EFC002000F0CB
:102E9000E0F9642000F008FE002000F0E5F964206D
:102EA00000F002FEF2E710B5B0F5005F0BD1002094
:102EB00000F023FA002802BF284C6078002804BFE5
:102EC0000120607010BD1028244C02D10120207018
:102ED00010BD0FF2DC120FF2F01104F1080000F047
:102EE000DFFB04F1080000F0F5FB82B241F2883309
:102EF00004F108011A4800F037FC002000F0A9F99D
:102F0000642000F0D1FD002000F0AEF9642000F054
:102F1000CBFDF2E72E00000010B5104C0FF2A81107
:102F2000024604F1080000F0BBFB04F1080000F0C9
:102F3000D1FB82B241F2883304F10801084800F065
:102F400013FC002000F085F9642000F0ADFD0020A6
:102F500000F08AF9642000F0A7FDF2E7DC00002011
:102F6000680800200040CE456D61696E00000000D9
:102F70000D0A2D2D2D2D2D2D204C534D3644533320
:102F8000204649464F204D6F64652044454D4F20F3
:102F90002D2D2D2D2D2D0D0A0D0A0000507265735B
:102FA00073205553455220627574746F6E20746F90
:102FB000207374617274207468652044454D4F2EEF
:102FC0002E2E0D0A000000000D0A4C534D364453BE
:102FD000332073746172747320746F2073746F7212
:102FE0006520746865206461746120696E746F2067
:102FF0004649464F2E2E2E0D0A0D0A000D0A0D0AC7
:1030000025642073616D706C657320696E2046497C
:10301000464F2E0D0A0D0A53746172746564206464
:103020006F776E6C6F6164696E6720646174612094
:1030300066726F6D204649464F2E2E2E0D0A0D0AE0
:10304000000000005B444154412023235D202020E8
:1030500020204759525F5820202020204759525F96
:103060005920202020204759525F5A0D0A000000A5
:103070000D0A4649464F20646F776E6C6F6164207D
:10308000636F6D706C657465642E0D0A0D0A000027
:103090005B4441544120253032645D202025386C4A
:1030A00064202025386C64202025386C640D0A00CB
:1030B00048414C5F4750494F5F455854495F436111
:1030C0006C6C6261636B00000D0A4572726F722056
:1030D000696E20272573272066756E6374696F6E8D
:1030E0002E0D0A000248006800F4C050704700002E
:1030F0000070004010B50446074800684FF47A712C
:10310000B0FBF1F0FFF7BFF8002221464FF0FF308F
:10311000FFF787F8002010BDEC01002000B50A4839
:1031200081B0016841F004010160016841F00201D1
:1031300001600320FFF768F80F20FFF7DBFF00F0C6
:1031400005F8002001B000BD003C024070470000BF
:1031500010B594B001A80021002200230EC006C0C3
:1031600000241EC01EC01EC00160022006901091E7
:103170000120099010200A9002200F904FF40020A7
:1031800011904FF40000129006A8FFF799F818B1BB
:103190000FF25800FFF7C0FE1248016841F080515D
:1031A0000160006800F08050009000980E480168AF
:1031B00021F4C05141F4006101604168C906FCD4AA
:1031C0000F200190039403200290049405940121A0
:1031D00001A8FFF7C0FA18B10FF21000FFF79CFE2C
:1031E00014B010BD2438024000700040537973744D
:1031F000656D436C6F636B5F436F6E66696700005C
:1032000070B5040086B00AD1DFF80401016841F00E
:1032100001010160006800F00100009000980FF2C9
:103220000010DFF8F06030F8145001950120029092
:1032300001A9002003900220049056F82400FEF714
:10324000F3FE56F8240000222946FEF7BAFF06B026
:1032500070BD0FF2CC01DFF8BC3031F8101053F81C
:1032600020000122FEF7ADBF0FF2B401DFF8A43059
:1032700031F8101053F820000022FEF7A2BF30B53D
:103280000446200087B00D460AD1DFF884000168AB
:1032900041F004010160006800F004000090009813
:1032A0000FF2800030F814000190002003900120FC
:1032B0000490280008D10020029001A9DFF85800EE
:1032C00050F82400FEF7B0FE012D14D1DFF84C00B9
:1032D000029001A9DFF8400050F82400FEF7A4FE98
:1032E0000FF24400045D00220F2160B2FEF799FF47
:1032F00060B2FEF7BFFF07B030BD0FF22801DFF864
:10330000182031F8101052F82000FEF753BF0000CB
:103310001C380240E4010020E801002000002110D8
:1033200020000000002000002800000010B5284800
:10333000284C86B0016841F001010160016801F08C
:10334000010100910099016841F0010101600168EB
:1033500001F0010100910099816841F40031816020
:1033600001A9806800F400300090009804200190CA
:103370000220029000200390022004900720059074
:103380002046FEF751FE0820019001A90720059074
:103390002046FEF749FE104C104820604FF4E13003
:1033A00060600020A060E0602061A0610C2060618E
:1033B000204600F0ABF900B1FEE704F14000A06246
:1033C0004FF48070A0850020E06306B010BD0000BF
:1033D0001C38024000000240680800200044004001
:1033E00010B50C460021216068B10128204611D09B
:1033F00000F056F8012804D1204600F011F8012809
:103400000CD0002010BD204600F00AF80128F8D1A9
:10341000012010BD00F044F80128F2D1012010BDB8
:1034200030B5424D0446E878012881B036D0FEF729
:1034300053F8012832D068202870D6206870002008
:10344000688028710120687105F12800A86038485B
:10345000E860002028613748E86305F13800A86279
:103460000020E8622560E8680168080008D10020B3
:103470000021002207C503C5206001B0012030BD36
:1034800028468847012808D12068142100F01AFB3B
:103490000020206001B0012030BD002001B030BD0F
:1034A00030B5224D0446E87D012881B03BD0FEF7BF
:1034B00013F8012837D069202875D42068750120B9
:1034C000A8750020E87528760120687605F130009F
:1034D000E861194828621948686205F140002863CC
:1034E0000020686305F114002060286A0168080064
:1034F00005F1140008D10021002200230EC006C0EF
:103500002160012001B030BD8847012808D1206822
:10351000142100F0D7FA0020206001B0012030BD56
:10352000FEF733F8002001B030BD0000A8090020EC
:1035300000000020280A00208C00002050000020FD
:1035400000B581B018B1C16889680A0002D10120B4
:1035500001B000BD8847012818BF002001B000BDA0
:1035600000B581B018B1C268926A130002D101207F
:1035700001B000BD9047012818BF002001B000BD78
:1035800000281CBF0269002A06D00378692B03D1EA
:103590001268130018BF10470120704700281CBF95
:1035A0000269002A07D031B10378692B03D1526830
:1035B000130018BF10470120704700281CBF026984
:1035C000002A07D031B10378692B03D112691300A7
:1035D00018BF10470120704700281CBF0269002A4D
:1035E00007D031B10378692B03D19269130018BF5A
:1035F00010470120704700281CBF0269002A06D02E
:103600000378692B03D1D269130018BF104701203A
:10361000704700281CBF0269002A07D031B1037827
:10362000692B03D1126A130018BF1047012070479D
:1036300000281CBF0269002A06D00378692B03D139
:10364000526A130018BF10470120704700281CBFA2
:103650000269002A06D00378692B03D1926A13000D
:1036600018BF10470120704700281CBF0269002ABC
:1036700006D00378692B03D1D26A130018BF104714
:103680000120704700281CBF0269002A06D0037879
:10369000692B03D1126B130018BF1047012070472C
:1036A0000CB41CB5044604A801900A46009401AB72
:1036B000694607487844183000F008FA009A00215B
:1036C000117000285CBF0098001B16BC5DF80CFB55
:1036D00017D6FFFF00F10103810704D010F8011B8A
:1036E00089B18107FAD10268B2F10131914311F039
:1036F000803F04BF50F8042FF6E710F8011B11B10A
:1037000010F8011BFBE7C01A7047000010B5040059
:1037100001D1012010BD94F8390020B984F8380097
:10372000204600F0BFF9022084F839002068C16803
:1037300021F40051C160204600F0B5F8206801690D
:1037400021F4904101612068416921F02A01416121
:103750002068C16841F40051C1600020E06301208D
:1037600084F83900002010BDF0B5044681B094F80B
:103770003900012818BF22280E461D4640F09080CF
:103780000EB1100002D1012001B0F0BD94F8380054
:10379000012800F08580012084F838000020E063D3
:1037A00094F8390022280CBF3220122084F8390006
:1037B000A284E28403E000BF16F8011B4160E08CA4
:1037C00001004ED0401EE084A068B0F5805F36D185
:1037D000FFF7F2F8074620680168090625D415F1BD
:1037E000010FF8D025B1FFF7E7F8C01B8542F2D2F0
:1037F0002068C16821F08001C1602068C16821F0A3
:103800002001C1602068C16821F48071C160206816
:103810004169490849004161012084F839000020CC
:1038200084F8380001B00320F0BD3188C1F30801ED
:1038300041602069002814BF761CB61CBFE7FFF763
:10384000BBF80746206801680906B5D415F1010FD9
:10385000F8D0002DCCD0FFF7AFF8C01B8542F1D2D5
:10386000C6E7FFF7A9F806462068006840060AD4B4
:1038700015F1010FF8D0002DBAD0FFF79DF8801B8D
:103880008542F1D2B4E794F8390032280CBF2220E7
:10389000012084F83900002084F8380001B0F0BD20
:1038A000022001B0F0BD2DE9F047044664252068F0
:1038B0000169E26821F44051114301611926C16890
:1038C000764A1140A268114322691143626911438B
:1038D000E2691143C1604169A26921F44071114359
:1038E0004161E2696E49B2F5004F40F08480884240
:1038F00040D1FFF739F80746FFF736F88046FFF763
:1039000033F88146FFF730F88246FFF72DF806FBC3
:1039100008F361684900B3FBF1F306FB07F206FB0D
:1039200009F7B7FBF1F7B7FBF5F705FB1733DB003A
:103930003233B3FBF5F3B2FBF1F25B00B2FBF5F20D
:1039400003F4F87303EB0212704306FB0AF3B0FBB7
:10395000F1F0B3FBF1F3B0FBF5F005FB1030C00064
:103960003230B0FBF5F0216800F007008018886065
:10397000BDE8F087FEF7EEFF0746FEF7EBFF804657
:10398000FEF7E8FF8146FEF7E5FF8246FEF7E2FF1D
:1039900006FB08F361684900B3FBF1F306FB07F28D
:1039A00006FB09F7B7FBF1F7B7FBF5F705FB173394
:1039B000DB003233B3FBF5F3B2FBF1F25B00B2FB99
:1039C000F5F203F4F87303EB0212704306FB0AF3FB
:1039D000B0FBF1F0B3FBF1F3B0FBF5F005FB1030F9
:1039E000C0003230B0FBF5F0216800F0070080180D
:1039F0008860BDE8F08788420ED1FEF7B5FF074624
:103A0000FEF7B2FF8046FEF7AFFF8146FEF7ACFF40
:103A10008246FEF7A9FF0DE0FEF79CFF0746FEF782
:103A200099FF8046FEF796FF8146FEF793FF824698
:103A3000FEF790FF06FB08F361688900B3FBF1F322
:103A400006FB07F206FB09F7B7FBF1F7B7FBF5F743
:103A500005FB17331B013233B2FBF1F2B3FBF5F375
:103A6000B2FBF5F203F0F00303EB0212704306FB26
:103A70000AF3B0FBF1F0B3FBF1F3B0FBF5F005FB9B
:103A8000103000013230B0FBF5F0216800F00F007B
:103A900080188860BDE8F08700000000F369FFFF30
:103AA000003801407047000011B581B0FEF784FF77
:103AB0004FEA0004FEF780FF0199001B8842F9D30A
:103AC00002B010BD002200F0E3BB00002DE9F04F72
:103AD00080460FF2A47095B015461E46D0E900232B
:103AE000CDE9132303AF00200391B8610DF1340930
:103AF00000E02D190020ADF8020013AB4FF0FF32AB
:103B000029460DF1020000F0F2FB0446012C04DA14
:103B10002878441EA441E443E40FBDF802002528A0
:103B20000CBFA4F1010BA346BBF1010F0EDBAA46AB
:103B30001AF8011B0398C0470028039000F0DA80B0
:103B4000B869401CBBF1010BB861F1D1BDF80200AE
:103B5000252804D10020F8603861786105E000284C
:103B6000C7D1B86906E340F0010015F8011F20290C
:103B7000F9D023290DD02B2904D02D2906D03029A6
:103B80000AD00CE040F0020080B2EEE740F0040002
:103B9000FAE740F00800F7E740F01000F4E72A29C0
:103BA0000ED13168316051F8042B3160002A3A623D
:103BB00004D5514240F00400396280B26D1C13E01C
:103BC000002139620BE0396A6FF00043994205D059
:103BD00001EB810302EB4301303939626D1C2A7815
:103BE000A2F130010A29EED329782E2903D04FF013
:103BF000FF31F9611FE015F8011F2A2907D131684B
:103C000031606D1C51F8042B3160FA6113E0002122
:103C1000F9610BE0F9696FF00043994205D001EBBF
:103C2000810302EB43013039F9616D1C2A78A2F15E
:103C300030010A29EED3B8840FF24460297800F0ED
:103C400067FB08B115F8010B8DF832009DF83200C2
:103C5000682804BF2878682803D162208DF83200D4
:103C60006D1C0DA8B86015F8014B252C13D0582CED
:103C70004BD0632C00F0A380642C18BF692C7CD03F
:103C80006F2C42D0702C36D0732C0AD0752C18BFF4
:103C9000782C3AD0B6E00120F86025208DF8340069
:103CA000BAE09DF832006C283068306018D050F8C7
:103CB000044B30607C60D7F81CA0BAF1000F04D52B
:103CC0002046FFF707FD824607E0524600212046C6
:103CD00000F02AFB08B1A0EB040AC7F810A09BE093
:103CE00050F8042B306002A9404600F02DF900285E
:103CF00040F192803CE23068306050F8041B306044
:103D000002910DA87860782155E09DF832006C286A
:103D10000DD0712818BF6A2809D13068C01D20F065
:103D200007023260D2E900010832326004E03168F3
:103D3000316051F8040B316002909DF83200682820
:103D400002D102A8008803E0622802D102A800780C
:103D5000029097F82400000728D5029830B344F069
:103D60002000782822D1F868302109F80010401C82
:103D7000411CF96009F8004018E09DF83200314616
:103D800000F0BCF80028029002D5F8682D2109E067
:103D9000B88C810702D5F8682B2103E0C00705D550
:103DA000F868202109F80010401CF8600DA8F96897
:103DB00008447860214602A800F0DFF92CE09DF865
:103DC00032006C2809D00120F8603068306050F86B
:103DD000041B30608DF834101EE03068306001AA9A
:103DE00050F8041B3060ADF804100020ADF8060058
:103DF00002A94FF0FF30F861404600F0A5F8002816
:103E00000AD577E70120F86025208DF834001CB131
:103E10000220F86089F80140386AF968401A796927
:103E2000401A3969441A97F82400400711D4202019
:103E3000012C8DF800000CDBA24601236A4602A982
:103E4000404600F001FA00287FF454AFBAF1010AAD
:103E5000F3D1D7F80CB0BBF1000F0DF1340A0DD03F
:103E60001AF8011B0398C047002803903FF442AFA3
:103E7000B869401CBBF1010BB861F1D1D7F814A0AF
:103E80003020BAF1010F8DF800000BDB01236A46E8
:103E900002A9404600F0D8F900287FF42BAFBAF110
:103EA000010AF3D1D7F810B0D7F804A0BBF1000F86
:103EB0000DD01AF8011B0398C047002803903FF467
:103EC00019AFB869401CBBF1010BB861F1D197F88B
:103ED000240040077FF50EAE2020012C8DF8000055
:103EE000FFF608AE01236A4602A9404600F0ACF98D
:103EF00000287FF4FFAE641EF4D1FBE5622815D0E4
:103F000068280CD06C2818BF742816D07A2814D1D1
:103F10000A680A6052F8040B0A60002170470A68B8
:103F20000A6052F8040B0A6000B20BE00A680A60EB
:103F300052F8040B0A6040B204E00A680A6052F8C2
:103F4000040B0A60C11770472DE9F44F0D4694B079
:103F50002F6A002F804648BF6FF0004700F010FA2C
:103F6000696A401801900FF22030D0E90023CDE9B2
:103F7000022395F82800400702D40198412805D271
:103F800040200DF110090190002606E000F0FEF936
:103F90005FEA0009F8D1EBE03F1B012FC0F29480EB
:103FA0001498018802AA0DF1010000F047FA0028D8
:103FB000044600F19C801498008810B9641E00F13A
:103FC0009680A742C0F28080286901992218914208
:103FD00068D26E624042A969401A6969461A95F82A
:103FE0002800400710D42020012E8DF800000BDBA4
:103FF000B24601236A462946404600F025F90028CA
:1040000075D1BAF1010AF4D1D5F810B0BBF1000FA7
:10401000CA460CD01AF8011B6868C04700286860BF
:1040200065D0E869401CBBF1010BE861F2D130209A
:104030008DF80000D5F818A0BAF1010F0ADB0123B2
:104040006A462946404600F0FFF800284FD1BAF1F1
:10405000010AF4D1D5F814B0D5F808A0BBF1000FCF
:104060000CD01AF8011B6868C047002868603ED071
:10407000E869401CBBF1010BE861F2D195F828001A
:1040800040070DD52020012E8DF8000008DB01230C
:104090006A462946404600F0D7F840BB761EF6D166
:1040A00000262E61224628690DF10101484400F0E6
:1040B000D3F92869201828611498801C1490801E58
:1040C000008800287FF468AF686A2969401AA969E6
:1040D000401A6969471A95F8280040070FD4012F44
:1040E0000DDB3C4668682021C047686010B94FF07E
:1040F000FF3635E0E869401C641EE861F2D12B69A7
:104100004A462946404600F09FF80028EFD1AC69A6
:10411000012C0ADB68683021C04700286860E6D0BF
:10412000E869401C641EE861F4D16B69AA682946FD
:10413000404600F089F80028D9D195F828004007BA
:104140000CD5012F0ADB68682021C0470028686071
:10415000CDD0E869401C7F1EE861F4D12E616E620B
:1041600004A881451CBF484600F0B2F9304601E082
:104170004FF0FF3015B0BDE8F08FF0B4C2686F2982
:1041800008BF082405D041F02003782B14BF0A246F
:10419000102418230668642918BF6929374602D1FC
:1041A000002E48BF7F425FB9056A4DB9082C27D160
:1041B00090F82810090723D530211723D1751FE067
:1041C000B7FBF4F604FB16773037FFB25D1E3A2FCB
:1041D000A4BFA1F1510C674457552B46370003D0BB
:1041E0008568D618B542EBD3082C09D190F8281071
:1041F000090705D5D15C302902D05B1E3021D1548E
:104200001A448260C3F11801026A4161914208DADE
:10421000511A81614FF6EF72018D11400185F0BC9A
:104220007047002A0ED590F8282002F01402102AB8
:1042300008D1426A0369D21A8369D21A531A012B30
:10424000A8BF8361F0BC7047F8B504460D4616461A
:104250001F46002077B116F8011B6868A047686008
:1042600030B1E869401CE86100207F1EF3D1F2BD47
:104270004FF0FF30F2BD0000000000000000000021
:10428000686C747A4C000000000000000000000020
:10429000401810F0030308D0C91A1FD3DB0748BF2A
:1042A00000F8012D28BF20F8022D130030B4144669
:1042B0001546103928BF20E93C00FAD8490728BF25
:1042C00020E90C0048BF40F8042D890028BF20F8E1
:1042D000022D48BF00F8012D30BC7047C91818BF27
:1042E00000F8012DCB0728BF00F8012D7047F8B565
:1042F00004460D4616461F4600F02AF93B46324654
:104300002946204601B0BDE8F04000F038B9000071
:104310000278C9B28A421AB11CBF10F8012FF9E71E
:1043200018BF002070470000C9B2830706D0521E94
:1043300022D310F8013B9942F7D11FE0083A13D37A
:1043400002F1040241EA012141EA014150F8043B33
:10435000121F21BF4B40A3F1013C2CEA030C1CF0BF
:10436000803FF3D0C9B2001F083210F8013B521E43
:1043700028BF91EA030FF8D818BF0120401E7047EC
:1043800080B500F0E5F8012002BD000070B50546DB
:1043900005F10F00C408C046C046E400A54232D271
:1043A000082C04D2082402E0083000F091F82248DA
:1043B000026811000CD1011D0A6802B31368A34200
:1043C00038BF111DF8D310E01D68A5420DD2191D8C
:1043D0000B68002BF8D11268011D00E0191D0B6855
:1043E00093420CD01D68A542F8D361B10D682A68CC
:1043F000A2F10803A3420AD26A680A600FE000F043
:10440000E1F80028D0D1C046C046002070BD2B196D
:104410000B60121B6E685E600B681A602C60096886
:1044200000291DBF4A68002A091D00210160C046FD
:10443000C04605F1080070BD300A002070B5044682
:104440000D46164600F084F8324629462046BDE85F
:10445000704000F087B8000062B38B0708D0521E8E
:1044600011F8013B00F8013B00F024808B07F6D1E6
:10447000830740F0208000BF103A07D330B4B1E882
:104480003810103AA0E83810F9D230BC530724BFD6
:10449000B1E80810A0E8081044BF51F8043B40F808
:1044A000043BD20724BF31F8022B20F8022B44BF73
:1044B0000B7803707047083A07D3B1E80810083A40
:1044C00040F8043B40F804CBF7D25307E4E7000080
:1044D00000B9704738B5A0F108042068082833D324
:1044E00010F0070F30D1C046C0461848416809B1E6
:1044F0008C4203D26160446017E019464B680BB1EF
:10450000A342FAD30B68CD18AC421BD3A54204D109
:104510002268D2180A600C4607E04A681AB123687C
:1045200023449A420ED362604C60616851B12268A4
:10453000A3188B4206D1002303600868801820600E
:1045400048686060C046C04631BD0000300A0020A7
:1045500080B5DFF80C0000F04BF8806902BD000068
:10456000F801002030B430B90FF24800D0E900451E
:10457000C2E900451BE00170012030BC704730B437
:1045800031B90FF23800D0E90045C3E900450EE02B
:104590001AB930BC6FF00100704708B10A78028088
:1045A0000978481E804130BCC043C00F70470020CE
:1045B00030BC704700000000000000000000000058
:1045C000000000000749086808B10020704706484D
:1045D000C008C00008600549C908C900091A01607F
:1045E000704700BF3C0A00206F06002068080020CA
:1045F0007047000010B582B0044600208DF800001E
:104600006946204600F02CFC70B39DF8000021782C
:10461000884229D10421204600F06CFD20B3A06817
:10462000DFF8CC16006801604068416040212046F8
:1046300000F080FCC0B10021204600F04CFC98B195
:104640001821204600F018FC70B10821204600F027
:10465000C4FC48B11021204600F0EEFC20B120211E
:10466000204600F018FD10B9012002B010BD012055
:10467000E07002B0002010BD70B5044682B0A068A2
:10468000056800208DF800006946204600F0E8FB30
:10469000002843D09DF80000217888423ED1A068D0
:1046A00006682079002831D06946204600F032FCA7
:1046B000002833D09DF80000E0B1202818D0402811
:1046C00013D060280ED0802809D0A02804D0C0289C
:1046D00021D1DFF834040DE0DFF830040AE0DFF820
:1046E000300407E0DFF8180404E0DFF8080601E012
:1046F000DFF8040630600021204600F0ECFB68B1D2
:10470000716800200870716848602071002028607E
:10471000E07002B070BDDFF8D4053060012002B057
:1047200070BD70B5044682B0A06806682079012883
:10473000354651D02868DFF8C415FCF715FE38BFA0
:10474000202119D3DFF8B815FCF70EFE38BF402141
:1047500012D3BC49FCF708FE38BF60210CD3BA491C
:10476000FCF702FE38BF802106D3DFF89813FCF770
:10477000FBFD34BFA021C021204600F0ACFB88B374
:104780007068061D6946204600F0C4FB50B39DF8D2
:104790000000E0B1202818D0402813D060280ED0A7
:1047A000802809D0A02804D0C02818D1DFF85803E9
:1047B0000DE0DFF858030AE0DFF8540307E0DFF804
:1047C000400304E0DFF82C0501E0DFF82C05306041
:1047D0000120696808702071002002B070BDDFF808
:1047E0000C053060012002B070BD30B5044681B0C8
:1047F000A06805682079002835D06946204600F079
:1048000089FB38B39DF80000C0B1202814D040289F
:104810000FD060280BD0802807D0A02803D0C02854
:1048200015D1B9480AE0B94808E0B94806E0B448EB
:1048300004E0DFF8C00401E0DFF8BC0428600021D8
:10484000204600F048FB40B9012001B030BDDFF840
:104850009C042860012001B030BD69680020087008
:1048600069684860207101B030BD00B581B000F0CA
:10487000F7FA401E8041C00F01B000BD10B582B0F4
:10488000044600208DF800006946204600F0E8FA52
:1048900020B19DF800002178884202D0012002B0AA
:1048A00010BD002002B010BD2DE9F04184B00C46CF
:1048B0000021CDE900118046694600F05AFB00282E
:1048C00044D09DF801109DF800209DF8040002EBF3
:1048D00001269DF803109DF8022002EB01279DF8A8
:1048E000051000EB012502A9404600F0E4FA68B388
:1048F0009DF8080048B1082804D0182826D1DFF810
:10490000048404E0DFF8008401E0DFF8008430B2C2
:10491000FCF73CFD4146FCF751FDFCF7BBFD206078
:1049200038B2FCF733FD4146FCF748FDFCF7B2FD19
:10493000606028B2FCF72AFD4146FCF73FFDFCF71A
:10494000A9FDA06004B00020BDE8F081012004B002
:10495000BDE8F08110B582B00C4669460022C1E97D
:10496000002200F006FB10B9012002B010BD9DF836
:1049700001109DF8002002EB012121809DF802200A
:104980009DF8031002EB012161809DF804009DF861
:10499000051000EB0120A08002B0002010BD10B572
:1049A00082B00C46694600F086FA10B9012002B0C8
:1049B00010BD9DF8000040B108280CD018280DD07B
:1049C000A148206002B0012010BDDFF84003206044
:1049D00002B0002010BDDFF83003F8E7DFF8240351
:1049E000F5E710B582B00C46694600F093FA10B9AD
:1049F000012002B010BD9DF8000080B1202812D027
:104A0000402813D0602814D0802814D0A02814D0B7
:104A1000C02814D08C48206002B0012010BD206056
:104A200002B0002010BDDFF8D002F8E7DFF8C402C2
:104A3000F5E73348F3E73648F1E73448EFE7324823
:104A4000EDE700000100EE4201006E4330B505467F
:104A500081B0A86804682879012839D1042934D89C
:104A6000DFE801F0070705050300602102E04021AF
:104A700000E02021284600F02EFA30B36068041DC3
:104A80006946284600F046FAF8B19DF8000060B18A
:104A9000202816D0402812D060280ED080280AD0B6
:104AA000A02806D0C0280ED117482060002001B0F1
:104AB00030BD1648F9E71648F7E71148F5E78D4885
:104AC000F3E78D48F1E760482060012001B030BD78
:104AD0000429FAD8DFE801F00E0E09090400F4E712
:104AE0000748206061684860E0E7824820606168AC
:104AF0004860DBE78048206061684860D6E70000D6
:104B00000000EE420100EE4300006E440000EE4360
:104B100000006E4330B5054681B00846A968774A63
:104B20000C682979012911464DD1FCF71DFC38BFCD
:104B3000202117D37249FCF717FC38BF402111D34D
:104B40007349FCF711FC38BF60210BD37149FCF7A6
:104B50000BFC38BF802105D36F49FCF705FC34BF3F
:104B6000A021C021284600F0B6F948B36068041DB2
:104B70006946284600F0CEF910B39DF80000D8B180
:104B8000202818D0402813D060280ED0802809D0C3
:104B9000A02804D0C02811D16048206051E06048AE
:104BA00020604EE05F4820604BE05148206048E0C4
:104BB0005048206045E05048206042E02248206094
:104BC000012001B030BDFCF7CFFB38BF4A4917D3F5
:104BD0004B49FCF7C9FB38BF464911D34C49FCF798
:104BE000C3FB38BF42490BD34A49FCF7BDFB38BF72
:104BF0004C4905D34849FCF7B7FB34BF48494749FE
:104C000021601146FCF7B0FB38BF3B4817D33C4945
:104C1000FCF7AAFB38BF374811D33D49FCF7A4FB8A
:104C200038BF33480BD33B49FCF79EFB38BF3D48A8
:104C300005D33949FCF798FB34BF394837486168D8
:104C40004860002001B030BD000080BF10B582B0C8
:104C50000C46694600F02FF910B9012002B010BDD2
:104C60009DF8000040B108280BD018280BD01F4831
:104C7000206002B0012010BD2B48206002B000204F
:104C800010BD2A48F9E72A48F7E7000000B50429D3
:104C900081B010D8DFE801F0030F0B0F0D000021E9
:104CA00000F0EAF8401E8041C00F01B000BD0821AD
:104CB000F6E71821F4E7012001B000BD02460846DE
:104CC0001C4900B5FCF750FB81B038BF002105D36B
:104CD0001949FCF749FB34BF08211821104600F0A0
:104CE000CBF8401E8041C00F01B000BD000080BF66
:104CF0000000EE420000704200007041010070416F
:104D00000100704200008C4200008C4100000C4108
:104D10000100EE4201006E430100EE4300006E44CC
:104D20000000EE4300006E43000075430000FA43AC
:104D30000000FA44010075430100FA4330B581B028
:104D40000D4604460DF1020100F066F950B10DF177
:104D50000101204600F08FF920B16946204600F09D
:104D6000B9F910B9012001B030BD9DF80200082842
:104D70000CBF0120002028709DF8010010280CBFF6
:104D80000120002068709DF8000020280CBF012041
:104D90000020A87001B0002030BD30B50D4681B0B4
:104DA0000446287801280CBF08210021204600F085
:104DB00014F940B1687801280CBF10210021204669
:104DC00000F03AF910B9012001B030BDA8780128EF
:104DD0000CBF20210021204600F05DF9401E8041DB
:104DE000C00F01B030BD00B581B0012300F02FF835
:104DF000401E8041C00F01B000BD00B581B001234D
:104E00008DF800206A4600F019F8401E8041C00F5E
:104E100001B000BD10B582B00C46694600F0CDF877
:104E200048B19DF8000010B1022804D10120207083
:104E300002B0002010BD012002B010BD00B581B04D
:104E4000FCF7E2FB401E8041C00F01B000BD00B581
:104E500081B0FCF7F0FB401E8041C00F01B000BDE7
:104E600000B50A4681B001230F21FCF7E4FB401E88
:104E70008041C00F01B000BD30B581B00D46044681
:104E800001236A461021FCF7D6FB10B1002001B0C7
:104E900030BD9DF8000000F0E70028438DF80000C9
:104EA00001236A4610212046FCF7AEFB401E8041DC
:104EB000C00F01B030BD10B50C46012322461021B1
:104EC000FCF7B9FB08B1002010BD207800F01800F5
:104ED0002070012010BD30B581B00D46044601237D
:104EE0006A461021FCF7A7FB10B1002001B030BDCD
:104EF0009DF8000000F01F0028438DF800000123FA
:104F00006A4610212046FCF77FFB401E8041C00FFF
:104F100001B030BD10B50C46012322461021FCF72C
:104F20008AFB08B1002010BD207800F0E00020705E
:104F3000012010BD30B581B00D46044601236A46FC
:104F40002221FCF778FB10B1002001B030BD9DF8A4
:104F5000000000F0BF0028438DF8000001236A46DE
:104F600022212046FCF750FB401E8041C00F01B0BB
:104F700030BDF0B581B004460D4600260327F6B2D9
:104F800006F118010123AA19C9B22046FCF753FB08
:104F900050B9761CF6B206F118010123AA19C9B25C
:104FA0002046FCF748FB10B1002001B0F0BD761C94
:104FB0007F1EE4D1012001B0F0BD10B50C460123E5
:104FC00022462721FCF737FB08B1002010BD2078CE
:104FD00000F002002070012010BD30B581B00D46F8
:104FE000044601236A461E21FCF725FB10B1002070
:104FF00001B030BD9DF8000000F0F70028438DF8A7
:10500000000001236A461E212046FCF7FDFA401EDF
:105010008041C00F01B030BD10B50C4601232246BF
:105020001E21FCF708FB08B1002010BD207800F01D
:1050300008002070012010BD30B581B00D46044637
:1050400001236A461E21FCF7F6FA10B1002001B0D8
:1050500030BD9DF8000000F0EF0028438DF80000FF
:1050600001236A461E212046FCF7CEFA401E8041ED
:10507000C00F01B030BD10B50C46012322461E21E1
:10508000FCF7D9FA08B1002010BD207800F010001C
:105090002070012010BD30B581B00D4604460123BB
:1050A0006A461E21FCF7C7FA10B1002001B030BDDE
:1050B0009DF8000000F0DF0028438DF80000012378
:1050C0006A461E212046FCF79FFA401E8041C00F11
:1050D00001B030BD10B50C46012322461E21FCF75D
:1050E000AAFA08B1002010BD207800F0200020703E
:1050F000012010BD30B581B00D46044601236A463B
:105100002221FCF798FA10B1002001B030BD9DF8C3
:10511000000000F0FB0028438DF8000001236A46E0
:1051200022212046FCF770FA401E8041C00F01B0DA
:1051300030BDF0B4016844688368014401EB540257
:10514000E40748BF4B44914202D1F0BC0C30704799
:1051500011F8015B15F0030604BF11F8014BE61CC2
:105160002C090F2C07D111F8014B0F3403E011F873
:10517000017B03F8017B761EF9D1002CE3D0AD084A
:1051800011F8016B05F00305032D08BF11F8015B51
:1051900006EB05256D42A41C1D44D4D015F8016B07
:1051A00003F8016B641EF9D1CDE700000D480E4AEB
:1051B000016841F4807101608168114081600B4A8F
:1051C000016811400160016821F48021016081685B
:1051D00021F47D0181600021C1604FF0006004492D
:1051E00008607047003802400CC0FF88FEFFFEEEEA
:1051F00008ED00E0000000000000000001020304D0
:105200000607080919E050F8041BCB0744BFA9F1B1
:1052100001035918121F0023042A41F8043BF9D254
:105220005FEA827C0B4604D54FF0000CA1F800C069
:105230009B1CD10744BF0021197050F8042B002A91
:10524000E1D1704710B5074979441831064C7C44C8
:10525000163404E00A68081D114488470146A1423B
:10526000F8D110BD080000002400000099FFFFFFE6
:10527000D80100006808002000000000B7FEFFFF12
:1052800084010000B20100000000002000F00BF8D3
:10529000002801D0FFF7D6FF0020C046C046FDF72A
:1052A00091FB00F002F80120704700F001B8000007
:1052B0000746384600F002F8FBE7000080B5C0461C
:1052C000C046024A11001820ABBEFBE726000200D0
:1052D0007047FEE7704700F007B81020FCF775BF75
:1052E0004FF40050FCF771BF02480168491C01608F
:1052F000704700BF380A0020014880470148004736
:10530000AD51000809530008C046C046C046C0461B
:10531000FFF7BCFF0000000001020304FFF7FEBF1F
:10532000FFF7FEBFFFF7FEBFFFF7FEBFFFF7FEBFB1
:10533000FFF7FEBFFFF7FEBFFFF7FEBFFFF7FEBFA1
:10534000FFF7FEBFFFF7FEBFFFF7FEBFFFF7FEBF91
:10535000FFF7FEBFFFF7FEBFFFF7FEBFFFF7FEBF81
:10536000FFF7FEBFFFF7FEBFFFF7FEBFFFF7FEBF71
:10537000FFF7FEBFFFF7FEBFFFF7FEBFFFF7FEBF61
:10538000FFF7FEBFFFF7FEBFFFF7FEBFFFF7FEBF51
:10539000FFF7FEBFFFF7FEBFFFF7FEBFFFF7FEBF41
:1053A000FFF7FEBFFFF7FEBFFFF7FEBFFFF7FEBF31
:1053B000FFF7FEBFFFF7FEBFFFF7FEBFFFF7FEBF21
:1053C000FFF7FEBFFFF7FEBFFFF7FEBFFFF7FEBF11
:1053D000FFF7FEBFFFF7FEBFFFF7FEBFFFF7FEBF01
:1053E000FFF7FEBFFFF7FEBFFFF7FEBFFFF7FEBFF1
:1053F000FFF7FEBFFFF7FEBFFFF7FEBFFFF7FEBFE1
:10540000FFF7FEBF100BF54500087946000823475B
:105410000008EB0410036B4800087D0412A9041077
:1054200003554900089F0412E30410044D4A000884
:10543000154B0810024C00088D0412BD0410033DEA
:105440004D00089B0412E70412FB041004154E00E3
:105450000891091810020A00086D04129D0412CD6B
:105460000412DF0412F1041003030B00085D04139F
:10547000250C481104126D04127F04129B0412B90A
:1054800004100325010008B104100365020008DDC3
:10549000041003690300087B0412A9041003A1048B
:1054A0000008ED04100371050008F5041359060403
:1054B000120760110412FD04100365080008C304FC
:1054C000120F802223841104F001F6000400011061
:0D54D000020240000804F4016348E80112E4
:0400000508000000EF
:00000001FF
