:020000040800F2
:10000000C00A0020CDB8000829B800082BB80008A5
:1000100000000000000000000000000000000000E0
:100020000000000000000000000000007B2E00081F
:100030000000000000000000632F00082DB8000839
:100040009F2F00081B3900089B3B0008DB4300087A
:100050007B6100082F680008EB75000839B80008BC
:10006000EF750008377E00081B7F0008E781000855
:10007000D3830008CFA2000800000000D3A200082C
:10008000000000009BA70008000000000000000026
:100090005BB5000800000000A3B6000863B70008C5
:1000A0007FB800088FB80008BBB80008F1B8000896
:1000B000F3B80008F5B80008F7B80008F9B8000868
:1000C00070B582B00400A06805682E6800206946FB
:1000D0000870200001F092FE002824D068460078C5
:1000E000217888421FD10421200002F0FAF800286C
:1000F00019D04021200001F08DFE002813D00021EE
:10010000200002F072F800280DD0B7486860002186
:10011000200001F0F3FE002805D00021200001F0AE
:1001200098FE002801D1012003E001203070E0702A
:10013000002002B070BDF0B581B00400A068066870
:1001400037680025684605706946200001F056FEB4
:10015000002800D1BAE0684600782178884200D0B3
:10016000B4E00021200002F09EFD002800D1ADE0A7
:100170000021200002F07EFB002800D1A6E0002133
:10018000200002F0FAFC002800D19FE000212000AE
:1001900002F0D4FC002800D198E00021200002F0F9
:1001A00044FD002800D191E00021200002F062FB14
:1001B000002800D18AE00021200002F09BFB0028EB
:1001C00000D183E00021200002F06CF800287DD0EF
:1001D0000021200002F020F9002877D00021200023
:1001E00002F039F9002871D00021200002F0E8FD6A
:1001F00000286BD00021200002F093FD002865D07C
:100200000021200002F036FB00285FD000212000F2
:1002100002F04FFB002859D00021200002F089FB9A
:10022000002853D00021200002F0A4FB00284DD06C
:100230000021200002F0C1FA002847D00021200050
:1002400002F0DAFA002841D00021200002F0F3FA8F
:1002500000283BD00021200002F006FD002835D008
:100260000021200002F006FB00282FD000212000F2
:1002700002F01FFB002829D00021200002F059FBCA
:10028000002823D00021200002F074FB00281DD09C
:100290000021200002F090FB002817D00021200050
:1002A00002F0CBFB002811D00021200002F085FADB
:1002B00000280BD00021200002F09EFA002805D073
:1002C0000021200002F0B7FA002801D101203FE010
:1002D0000021200002F08AFC0028F7D00021200035
:1002E00002F07BF80028F1D00021200002F0B3F8E2
:1002F0000028EBD00021200002F0F4FC0028E5D01B
:100300000021200002F0B6FA0028DFD000212000F2
:1003100002F0F2FB0028D9D00021200002F06CFB93
:100320000028D3D0207900280ED0A0680068011DD5
:10033000200000F06FF90128C8D00021200001F052
:10034000DDFD0028C2D02571002070603D70E57091
:1003500001B0F0BD10B504002079012842D0A0689A
:1003600000684068804902F075FD01D2102130E03C
:100370007E4902F06FFD01D220212AE07C4902F083
:1003800069FD01D2302124E09C4902F063FD01D2D5
:1003900040211EE09A4902F05DFD01D2502118E093
:1003A000984902F057FD01D2602112E0964902F00F
:1003B00051FD01D270210CE0944902F04BFD01D2B5
:1003C000802106E0924902F045FD01D2902100E033
:1003D000A021200001F092FD002801D1012010BDD4
:1003E00001202071002010BD0000D04230B581B046
:1003F00004002079002841D0A0680068051D6946E6
:10040000200001F09AFD002834D0684600780028CA
:1004100026D0102823D020281FD030281BD04028D9
:1004200017D0502813D060280FD070280BD0802808
:1004300007D0902803D0A0281AD1954810E09548FD
:100440000EE095480CE095480AE0954808E095488C
:1004500006E0954804E0954802E0954800E095489C
:1004600028600021200001F049FD002804D101E0AE
:1004700091482860012001E00020207101B030BDCA
:1004800000B581B001F0BAFC401E8041C00F01B040
:1004900000BD30B581B0040000256846057069468E
:1004A000200001F0ABFC002804D0684600782178D9
:1004B000884200D00125280001B030BDF0B583B0DE
:1004C00005000C0001A80021002206C001A9280097
:1004D00001F0EFFC002844D001A84178090202781D
:1004E0008E18C1780902827889186A46518041794C
:1004F000090200790F186946280001F0C9FC00289C
:100500002FD06846007800280CD0042804D0082892
:1005100006D00C2802D024E0814D04E0814D02E099
:10052000814D00E0814D30B202F0A8FC290002F0BC
:10053000C0FC02F017FD20600098001402F09EFC41
:10054000290002F0B6FC02F00DFD606038B202F046
:1005500095FC290002F0ADFC02F004FDA060002033
:1005600000E0012003B0F0BD010050410100D04186
:100570000100504210B582B00C00694600220023F1
:100580000CC1694601F095FC002801D1012010E062
:10059000684641780902027889182180C1780902E9
:1005A0008278891861804179090200790818A08051
:1005B000002002B010BD10B582B00C00694601F0F9
:1005C00067FC002801D101200DE068460078002872
:1005D00006D004280DD0082807D00C2807D00AE040
:1005E00052482060002002B010BD4F48F9E74D4846
:1005F000F7E74B48F5E730482060E4E70100D042D8
:10060000010050430100D043014050440180CF44D9
:100610000120504510B582B00C00694601F08DFCF8
:10062000002801D101201AE068460078002814D083
:10063000102816D0202816D0302816D0402816D0E2
:10064000502816D0602816D0702816D0802816D0D2
:10065000902816D0A02816D017E02060002002B005
:1006600010BD1448F9E71248F7E71048F5E70E48BF
:10067000F3E70C48F1E70A48EFE70848EDE70648DA
:10068000EBE70448E9E70248E7E70B482060C9E7E1
:100690000020D045002050450080CF440040504409
:1006A0000000D043000050430000D0420000504200
:1006B0000000D04100005041000080BF00B581B073
:1006C0000279012A15D100290CD0022908D009D3BA
:1006D000042901D002D30AE0402104E0302102E0E5
:1006E000202100E0102101F009FC002814D1012094
:1006F00013E08068006800290CD0022908D009D3D3
:10070000042901D002D3F2E76E4904E06E4902E009
:100710006E4900E0A2494160002001B000BD000028
:1007200023DBF93E23DB793E23DBF93D23DB793DF7
:1007300000B581B00200080065491379012B3CD156
:1007400002F088FB01D2102130E0964902F082FBD2
:1007500001D220212AE0944902F07CFB01D2302111
:1007600024E0924902F076FB01D240211EE090493C
:1007700002F070FB01D2502118E08E4902F06AFBB2
:1007800001D2602112E08C4902F064FB01D2702199
:100790000CE08A4902F05EFB01D2802106E0884924
:1007A00002F058FB01D2902100E0A021100001F0DE
:1007B000A5FB00282AD1012029E09268126802F0E6
:1007C00049FB1FD3774902F045FB1BD3764902F062
:1007D00041FB17D3754902F03DFB13D3744902F076
:1007E00039FB0FD3734902F035FB0BD3724902F08A
:1007F00031FB07D3714902F02DFB03D3704902F09E
:1008000029FB01D2481E00E0AA485060002001B038
:1008100000BD10B582B00C00694601F039FB00281C
:1008200001D101200EE068460078002806D0042897
:100830000ED0082808D00C2808D00BE08020C00576
:100840002060002002B010BD8120F8E78220F6E78A
:100850008320F4E798482060E3E700B581B00029E1
:1008600004D0022909D0042909D00AE001F0F1FAE4
:10087000401E8041C00F01B000BD0821F6E70C21E9
:10088000F4E70120F7E700B581B0020008008B49CA
:1008900002F0E0FA01D200210CE0894902F0DAFA14
:1008A00001D2082106E0AC4902F0D4FA01D20C21B1
:1008B00000E00421100001F0CCFA401E8041C00F7E
:1008C00001B000BD0000D042000050420000D04105
:1008D0000100504100B581B0012301F07DFA401EB6
:1008E0008041C00F01B000BD00B581B06B461A70E9
:1008F00001236A4601F079FA401E8041C00F01B021
:1009000000BD10B582B00C00694601F07EFE0028E3
:1009100009D068460078002801D0012803D1207052
:10092000002002B010BD0120FBE770B582B00400CA
:10093000A06806683568002069460870200001F04C
:100940005DFA002824D068460078217888421FD1BB
:100950000421200001F0C5FC002819D0402120000E
:1009600001F058FA002813D00021200001F03DFCCE
:1009700000280DD0794870600021200001F043FB71
:10098000002805D00C21200001F0E8FA002801D150
:10099000012003E001206870E070002002B070BD0B
:1009A000000050410100D041010050420100D042FE
:1009B000010050430100D043014050440180CF4426
:1009C00001205045F0B581B00400A06807683E687A
:1009D0000025684605706946200001F00FFA0028DE
:1009E00015D0684600782178884210D120790028F7
:1009F00010D0A0680068011D200000F0A1F90128B6
:100A000005D00021200001F0FEFA002801D10120CC
:100A100004E02571002078607570E57001B0F0BDCC
:100A200010B504002079012842D0A0680068406811
:100A30008B4902F00FFA01D2102130E0894902F00F
:100A400009FA01D220212AE0874902F003FA01D2F3
:100A5000302124E0854902F0FDF901D240211EE059
:100A6000834902F0F7F901D2502118E0814902F0E0
:100A7000F1F901D2602112E07F4902F0EBF901D2D5
:100A800070210CE0A64902F0E5F901D2802106E0D0
:100A9000A44902F0DFF901D2902100E0A02120005A
:100AA00001F0B1FA002801D1012010BD0120207110
:100AB000002010BD0020D045000080BF0100004094
:100AC0000100804030B581B004002079002841D079
:100AD000A0680068051D6946200001F0B3FA0028EF
:100AE00034D068460078002826D0102823D020284B
:100AF0001FD030281BD0402817D0502813D0602892
:100B00000FD070280BD0802807D0902803D0A028C1
:100B10001AD1854810E085480EE085480CE08548EC
:100B20000AE0854808E0854806E00C4804E0A34850
:100B300002E0A34800E0A34828600021200001F063
:100B400062FA002804D101E09F482860012001E0FA
:100B50000020207101B030BD010000410000D042F2
:100B600000B581B001F04AF9401E8041C00F01B0CC
:100B700000BD30B581B004000025684605706946A7
:100B8000200001F03BF9002804D068460078217865
:100B9000884200D00125280001B030BDF0B583B0F7
:100BA00005000C0001A80021002206C001A92800B0
:100BB00001F004FA002850D001A841780902027817
:100BC0008E18C1780902827889186A465180417965
:100BD000090200790F1800A9491C280001F062FAE7
:100BE00000283AD068464078022801D1904D16E09E
:100BF0006946280001F0D1F900282ED06846007817
:100C000000280BD0042807D0082803D00C2824D1B2
:100C1000884D04E0884D02E0884D00E0884D30B2F8
:100C200002F02CF9290002F044F902F09BF920604F
:100C30000098001402F022F9290002F03AF902F0BB
:100C400091F9606038B202F019F9290002F031F927
:100C500002F088F9A060002000E0012003B0F0BDA0
:100C6000010050410100D041010050420100D0423A
:100C7000010050430100D0430140504410B582B000
:100C80000C006946002200230CC1694601F096F968
:100C9000002801D1012010E068464178090202785D
:100CA00089182180C1780902827889186180417988
:100CB000090200790818A080002002B010BD30B5EC
:100CC00081B004000D0000A9491C01F0EBF90028D7
:100CD0000ED068464078022804D15548286000208C
:100CE00001B030BD6946200001F057F9002801D15C
:100CF0000120F5E768460078002806D0042806D0D1
:100D0000082806D00C2806D007E04D48E6E74B48F7
:100D1000E4E74948E2E74748E0E72B482860E7E78F
:100D20000180CF44012050450020D045002050458F
:100D30000080CF44004050440000D04300005043A6
:100D400010B582B00C00694601F07CF9002801D191
:100D500001201AE068460078002814D0102816D028
:100D6000202816D0302816D0402816D0502816D06B
:100D7000602816D0702816D0802816D0902816D05B
:100D8000A02816D017E02060002002B010BD0D484A
:100D9000F9E70B48F7E70948F5E77B48F3E77B48B5
:100DA000F1E77B48EFE77B48EDE77B48EBE77B48E3
:100DB000E9E77B48E7E704482060C9E700005042C4
:100DC0000000D04100005041000080BF00B581B05C
:100DD0000279012A15D100290CD0022908D009D3A3
:100DE000042901D002D30AE0402104E0302102E0CE
:100DF000202100E0102101F006F9002814D1012083
:100E000013E08068006800290CD0022908D009D3BB
:100E1000042901D002D3F2E75B4904E0854902E0EE
:100E2000854900E085494160002001B000BD000017
:100E300000008C4000008C4200000C4200008C41FD
:100E400000000C4100B581B0020008007C49137914
:100E5000012B3CD101F0FEFF01D2102130E0794995
:100E600001F0F8FF01D220212AE0774901F0F2FFDA
:100E700001D2302124E0754901F0ECFF01D240217C
:100E80001EE0734901F0E6FF01D2502118E07149DC
:100E900001F0E0FF01D2602112E06F4901F0DAFFBA
:100EA00001D270210CE06D4901F0D4FF01D2802104
:100EB00006E06B4901F0CEFF01D2902100E0A021B5
:100EC000100001F0A0F800282AD1012029E0926842
:100ED000126801F0BFFF1FD35A4901F0BBFF1BD3BB
:100EE000594901F0B7FF17D3584901F0B3FF13D3A5
:100EF000574901F0AFFF0FD3564901F0ABFF0BD3B9
:100F0000554901F0A7FF07D3544901F0A3FF03D3CC
:100F1000534901F09FFF01D2481E00E02048506075
:100F2000002001B000BD30B581B005000C0069465D
:100F300001F0B8F8002806D000A9491C280001F0EB
:100F40002CF8002801D1012006E06846007802282C
:100F500004D19D482060002001B030BD6846407833
:100F6000002806D0042806D0082806D00C2806D071
:100F700007E09648EEE79648ECE79648EAE7964899
:100F8000E8E796482060DEE70000D04200005043CA
:100F90000000D043004050440080CF440020504522
:100FA0000020D04500B581B0002904D0022909D025
:100FB000042909D00AE000F0D1FF401E8041C00F93
:100FC00001B000BD0421F6E70C21F4E70120F7E7AA
:100FD00030B581B004000800814901F03BFF08D220
:100FE0000221200001F03FF8002821D0002001B0AC
:100FF00030BDB24901F02EFF01D200250CE0B0490E
:1010000001F028FF01D2042506E0AE4901F022FFDD
:1010100001D2082500E00C250021200001F023F872
:10102000002805D02900200000F098FF0028DDD11D
:101030000120DCE7000050420000D0410000504198
:10104000010050410100D041010050420100D04256
:10105000010050430100D043014050440180CF447F
:101060000120504500B581B0012300F0B5FE401EBF
:101070008041C00F01B000BD00B581B06B461A7051
:1010800001236A4600F0B1FE401E8041C00F01B04E
:1010900000BD10B582B00C00694601F0C7FA002807
:1010A0000AD068460078002802D0022804D1012026
:1010B0002070002002B010BD0120FBE700B581B018
:1010C00002000800804901F0C5FE01D2102130E085
:1010D0007E4901F0BFFE01D220212AE07C4901F0C7
:1010E000B9FE01D2302124E0BC4901F0B3FE01D2A7
:1010F00040211EE0BA4901F0ADFE01D2502118E0B6
:10110000B84901F0A7FE01D2602112E0B64901F012
:10111000A1FE01D270210CE0B44901F09BFE01D286
:10112000802106E0B24901F095FE01D2902100E055
:10113000A021100000F0E2FE401E8041C00F01B06F
:1011400000BD10B50400AB492079012805D120006D
:10115000FFF7B4FF012803D110BDA068006841600B
:101160000021200000F075FE002823D00621200079
:1011700001F003FD00281DD00021200001F0BCFC7F
:10118000002817D00021200001F097FC002811D082
:101190000021200001F070FC00280BD0032120006A
:1011A00001F0CCFC002805D08021200001F062FB7A
:1011B000002801D1012010BD1021200001F073FD95
:1011C000401E8041C00F10BD0000FA420000754370
:1011D0000000FA4300007A440000FA44000080BF97
:1011E0000100FA4210B50400002101F05CFD002866
:1011F0000BD00021200001F03DFB002805D000218C
:10120000200001F0BAFC002801D1012010BD00210E
:10121000200001F093FC401E8041C00F10BD10B5AE
:1012200082B00C00694601F046F900280AD06846F1
:101230000078002802D0202804D10120207000204E
:1012400002B010BD0120FBE700B581B001F076FCD3
:10125000401E8041C00F01B000BD10B5040095498B
:101260002079012805D12000FFF728FF012803D1AC
:1012700010BDA068006841600021200000F0E9FD79
:10128000002811D01721200001F09AFD00280BD072
:101290000421200001F0DFF8002805D010212000F3
:1012A00001F0BAF8002801D1012010BD80212000F2
:1012B00000F0F8FF401E8041C00F10BD01007543D3
:1012C0000100FA4301007A44010050410100D0417D
:1012D0000100504210B50400002100F0E3FF002897
:1012E0000BD00021200001F097F8002805D0002144
:1012F000200001F0B0F8002801D1012010BD00212C
:10130000200001F05DFD401E8041C00F10BD10B5F2
:1013100082B00C00694601F00FFA00280AD0684636
:101320000078002802D0102804D10120207000206D
:1013300002B010BD0120FBE700B581B001F028FD2F
:10134000401E8041C00F01B000BD00B581B0022138
:1013500001F024F8401E8041C00F01B000BD00B56F
:1013600081B0002101F01AF8401E8041C00F01B089
:1013700000BD00B581B001F023FD401E8041C00FCB
:1013800001B000BD10B504004A492079012805D1FB
:101390002000FFF793FE012803D110BDA06800686C
:1013A00041600021200000F054FD00280BD00421F2
:1013B000200001F050F8002805D00821200001F09D
:1013C0000CF8002801D1012010BD0221200001F0FD
:1013D0000DFC401E8041C00F10BD00000100D04236
:1013E000010050430100D043014050440180CF44EC
:1013F000012050450000D04310B50400002101F049
:10140000F5FB002805D00021200000F0E6FF0028B1
:1014100001D1012010BD0021200001F01CF8401E68
:101420008041C00F10BD10B582B00C00694601F0BC
:1014300094F900280AD068460078002802D02028B5
:1014400004D101202070002002B010BD0120FBE774
:1014500010B50400AA492079012805D12000FFF722
:101460002DFE012803D110BDA06800684160002155
:10147000200000F0EEFC002811D00021200001F037
:101480003BFB00280BD00221200001F0B5FA002818
:1014900005D08021200001F0EDF9002801D10120C4
:1014A00010BD2021200001F01DFC401E8041C00F16
:1014B00010BD00000000D04110B50400002101F073
:1014C00011FC00280BD00021200001F0D3F90028E6
:1014D00005D00021200001F00FFB002801D10120E0
:1014E00010BD0021200001F087FA401E8041C00F8E
:1014F00010BD10B582B00C00694600F0CBFF00288B
:101500000AD068460078002802D0082804D10120BB
:101510002070002002B010BD0120FBE700B581B0B3
:1015200001F06AFA401E8041C00F01B000BD10B545
:10153000040073492079012805D12000FFF7BEFD82
:10154000012803D110BDA06800684160002120007F
:1015500000F07FFC002829D00821200001F06BF961
:10156000002823D00421200001F046F900281DD0D6
:101570000221200001F021F9002817D008212000C5
:1015800001F097F9002811D00221200001F0D1F9D3
:1015900000280BD00121200001F0ECF9002805D033
:1015A0008021200001F066F9002801D1012010BD42
:1015B0004021200001F0B5FB401E8041C00F10BD4E
:1015C00010B50400002101F0ACFB002823D000215D
:1015D000200001F04FF900281DD00021200001F06B
:1015E00068F9002817D00021200001F0A2F9002896
:1015F00011D00021200001F0BDF900280BD00021FE
:10160000200001F0DAF8002805D00021200001F0C8
:10161000F3F8002801D1012010BD0021200001F0C5
:101620000AF9401E8041C00F10BD10B582B00C00F9
:10163000694600F062FF00280AD06846007800285A
:1016400002D0202804D101202070002002B010BD5B
:101650000120FBE710B5040029492079012805D1B4
:101660002000FFF72BFD012803D110BDA068006802
:1016700041600021200000F0ECFB002835D008215B
:10168000200001F0D8F800282FD00421200001F01C
:10169000B3F8002829D00221200001F08EF800289C
:1016A00023D00821200001F004F900281DD00321D7
:1016B000200001F03EF9002817D00321200001F09E
:1016C00059F9002811D00821200001F075F90028EF
:1016D0000BD08021200001F0B0F9002805D0802136
:1016E000200001F0C7F8002801D1012010BD082119
:1016F000200001F0B9FA401E8041C00F10BD00006B
:101700000000D04310B50400002101F0ADFA00281C
:101710002FD00021200001F0ADF8002829D00021B1
:10172000200001F0C6F8002823D00021200001F09D
:1017300000F900281DD00021200001F01BF900282D
:1017400017D00021200001F037F9002811D0002126
:10175000200001F072F900280BD00021200001F0D8
:101760002CF8002805D00021200001F045F80028C1
:1017700001D1012010BD0021200001F05CF8401EC5
:101780008041C00F10BD10B582B00C00694600F05A
:10179000A3FE00280AD068460078002802D010284E
:1017A00004D101202070002002B010BD0120FBE711
:1017B00000B581B001F07DF8401E8041C00F01B03E
:1017C00000BD00B581B001F0B4F8401E8041C00FEB
:1017D00001B000BD00B581B001F0CCF8401E8041E1
:1017E000C00F01B000BD00B581B001F0E5F8401EAA
:1017F0008041C00F01B000BD10B504008A492079B6
:10180000012805D12000FFF759FC012803D110BDA4
:10181000A068006841600021200000F01AFB002849
:101820000BD04021200001F065F8002805D0802170
:10183000200001F01FF8002801D1012010BD042173
:10184000200001F0F2F9401E8041C00F10BD10B51C
:101850000400002101F0E9F9002805D00021200052
:1018600001F008F8002801D1012010BD002120005E
:1018700001F040F8401E8041C00F10BD10B582B08D
:101880000C00694600F0B0FE00280AD068460078D7
:10189000002802D0402804D101202070002002B08E
:1018A00010BD0120FBE710B582B00C00694600F0C6
:1018B00035FE002809D068460078002801D00128AC
:1018C00003D12070002002B010BD0120FBE710B54D
:1018D00082B00C00694600F032FE00280AD068464B
:1018E0000078002802D0022804D1012020700020B6
:1018F00002B010BD0120FBE710B582B00C006946B4
:1019000000F02EFE00280AD068460078002802D099
:10191000042804D101202070002002B010BD012055
:10192000FBE710B582B00C00694600F02AFE0028E3
:101930000AD068460078002802D0082804D1012087
:101940002070002002B010BD0120FBE710B582B06E
:101950000C00694600F026FE00280AD06846007890
:10196000002802D0102804D101202070002002B0ED
:1019700010BD0120FBE710B582B00C00694600F0F5
:1019800022FE00280AD068460078002802D02028CD
:1019900004D101202070002002B010BD0120FBE71F
:1019A00000B581B002000800A04901F053FA01D24D
:1019B000082130E09E4901F04DFA01D210212AE0C1
:1019C0009C4901F047FA01D2182124E09A4901F01C
:1019D00041FA01D220211EE0984901F03BFA01D2E0
:1019E000282118E0964901F035FA01D2302112E0A1
:1019F000944901F02FFA01D238210CE0924901F00C
:101A000029FA01D2402106E0904901F023FA01D2DF
:101A1000482100E05021100000F006FC401E8041EB
:101A2000C00F01B000BD00000000D04310B582B06F
:101A30000C00694600F03DFE00280CD06846007896
:101A4000002802D0202804D005E02070002002B039
:101A500010BD0120F9E70120F9E710B582B00C00B4
:101A6000694600F015FE00280CD068460078002872
:101A700002D0102804D005E02070002002B010BD74
:101A80000120F9E70120F9E710B582B00C006946A2
:101A900000F020FE00280CD068460078002802D014
:101AA000402804D005E02070002002B010BD0120C5
:101AB000F9E70120F9E700B581B000F01CFE401EF7
:101AC0008041C00F01B000BD00B581B001F048F900
:101AD000401E8041C00F01B000BD00B581B000F0D4
:101AE000B6FD401E8041C00F01B000BD00B581B001
:101AF000072905D800F01AFB401E8041C00F00E006
:101B0000012001B000BD00B581B00A000DD0082948
:101B10000BD0102909D0182907D0202905D0282951
:101B200003D0302901D0382905D100F01FFB401E19
:101B30008041C00F00E0012001B000BD70B582B04F
:101B400004000E0000A9891C01F00AF9002828D021
:101B500000A8801C41780D020078054369462000EA
:101B600000F096F900281CD06846007800280CD0B8
:101B7000042804D0082806D00C2802D011E0344CE8
:101B800004E0344C02E0344C00E0344C28B201F064
:101B900075F9210001F08DF901F0E4F930600020C1
:101BA00000E0012002B070BD70B582B004000E00EC
:101BB00000A9891C01F0D4F8002834D000A8801CAA
:101BC00041780D020078054300A9491C200000F06F
:101BD00069FA002827D068464078022801D1204CB5
:101BE00016E06946200000F0D8F900281BD06846AE
:101BF000007800280BD0042807D0082803D00C2830
:101C000011D1184C04E0184C02E0184C00E0184CBC
:101C100028B201F033F9210001F04BF901F0A2F9EB
:101C20003060002000E0012002B070BD01002041C2
:101C30000100C841010048420100C8420100484378
:101C40000100C843010048440100C84401404E451A
:101C500023DBF93E23DB793E23DBF93D23DB793DB2
:101C600000008C4000008C4200000C4200008C41BF
:101C700000000C4100B581B0012904D9CA1E012A17
:101C800001D9D21E05D100F0B0FA401E8041C00F2C
:101C900000E0012001B000BD00B581B00A0001D014
:101CA000202905D100F0DFFA401E8041C00F00E07E
:101CB000012001B000BD00B581B000F004FA401E63
:101CC0008041C00F01B000BD00B581B00A0001D055
:101CD000802905D100F06AFA401E8041C00F00E063
:101CE000012001B000BD00B581B0012905D800F088
:101CF00045FD401E8041C00F00E0012001B000BD45
:101D000000B581B0032905D800F00AFB401E8041D0
:101D1000C00F00E0012001B000BD00B581B0012975
:101D200005D800F02BFD401E8041C00F00E00120CF
:101D300001B000BD00B581B00A0005D0042903D070
:101D4000082901D00C2905D100F009FB401E804173
:101D5000C00F00E0012001B000BDF8B401684218D6
:101D600043685908511800918168DB0701D54B463B
:101D7000C918009B9A4202D10C30F2BC704713780C
:101D8000521C032403261E4002D11678F61C521C56
:101D90001D090F2D07D115780F35521C03E0177858
:101DA000521C0F70491C761EF9D1002DE1D0167817
:101DB000521C9B081C40032C01D11478521C230296
:101DC000F3185C420B19AD1CD3D01C785B1C0C7053
:101DD000491C6D1ECDD0F8E700B581B001F09AF92D
:101DE000401E8041C00F01B000BD00B581B001F0C0
:101DF00079F9401E8041C00F01B000BD00B581B02F
:101E000001230A000F2101F085F9401E8041C00F17
:101E100001B000BD30B581B005000C0001236A4659
:101E2000122101F077F9002801D000200FE0684668
:101E30000078BF2101400C436846047001236A46C4
:101E40001221280001F04EF9401E8041C00F01B060
:101E500030BD30B581B005000C0001236A46102169
:101E600001F058F9002801D000200FE06846007802
:101E7000F32101400C436846047001236A46102197
:101E8000280001F02FF9401E8041C00F01B030BD85
:101E900010B50C0001232200102101F03BF90028AD
:101EA00001D0002010BD20780C21014021700120BC
:101EB00010BDF0B581B007000E00002403250123FA
:101EC000E4B2321921002831C9B2380001F022F9F8
:101ED00000280BD1641C0123E4B2321921002831FF
:101EE000C9B2380001F016F9002801D0002003E043
:101EF000641C6D1EE3D1012001B0F0BD30B581B08E
:101F000005000C0001236A46102101F003F90028A6
:101F100001D000200FE0684600780007000F04435E
:101F20006846047001236A461021280001F0DAF89F
:101F3000401E8041C00F01B030BD10B50C00012320
:101F40002200102101F0E6F8002801D0002010BD89
:101F50002078F02101402170012010BD30B581B002
:101F600005000C0001236A46112101F0D3F8002876
:101F700001D000200FE068460078F32101400C43B7
:101F80006846047001236A461121280001F0AAF86E
:101F9000401E8041C00F01B030BD10B50C000123C0
:101FA0002200112101F0B6F8002801D0002010BD58
:101FB00020780C2101402170012010BDF0B581B0C6
:101FC00007000E00002403250123E4B2321921008A
:101FD0002231C9B2380001F09DF800280BD1641CF1
:101FE0000123E4B2321921002231C9B2380001F0D4
:101FF00091F8002801D0002003E0641C6D1EE3D19D
:10200000012001B0F0BD30B581B005000C00012306
:102010006A46112101F07EF8002801D000200FE06F
:10202000684600780007000F0443684604700123E7
:102030006A461121280001F055F8401E8041C00F6A
:1020400001B030BD10B50C0001232200112101F0B8
:1020500061F8002801D0002010BD2078F021014057
:102060002170012010BD30B581B005000C000123A6
:102070006A46112101F04EF8002801D000200FE03F
:1020800068460078FD2101400C4368460470012336
:102090006A461121280001F025F8401E8041C00F3A
:1020A00001B030BD10B50C0001232200112101F058
:1020B00031F8002801D0002010BD2078022108400E
:1020C0002070012010BD70B582B005000C006605BF
:1020D00001236A46062101F01DF8002811D1684647
:1020E000047001236A460621280000F0FBFF002847
:1020F00007D101236A460721280001F00BF80028C8
:1021000001D0002010E068460078F8210140700FEF
:1021100008436946087001236A460721280000F039
:10212000E1FF401E8041C00F02B070BD30B581B0EC
:1021300005000C0001236A46082100F0EBFF00288F
:1021400001D000200FE068460078F82101400C43E0
:102150006846047001236A460821280000F0C2FF87
:10216000401E8041C00F01B030BD000030B581B0CD
:1021700005000C0001236A46082100F0CBFF00286F
:1021800001D000200FE068460078C72101400C43D1
:102190006846047001236A460821280000F0A2FF67
:1021A000401E8041C00F01B030BD000030B581B08D
:1021B00005000C0001236A46092100F0ABFF00284E
:1021C00001D000200FE0684600784006400E04432E
:1021D0006846047001236A460921280000F082FF46
:1021E000401E8041C00F01B030BD30B581B0050048
:1021F0000C0001236A460A2100F08CFF002801D060
:1022000000200FE068460078F82101400C43684642
:10221000047001236A460A21280000F063FF401E73
:102220008041C00F01B030BD30B581B005000C0059
:1022300001236A460A2100F06DFF002801D000202A
:102240000FE068460078872101400C43684604701F
:1022500001236A460A21280000F044FF401E804105
:10226000C00F01B030BD30B581B005000C000123B6
:102270006A460D2100F04EFF002801D000200FE03B
:1022800068460078DF2101400C4368460470012352
:102290006A460D21280000F025FF401E8041C00F36
:1022A00001B030BD30B581B005000C0001236A4695
:1022B0000D2100F02FFF002801D000200FE068461C
:1022C00000784006400E04436846047001236A46C5
:1022D0000D21280000F006FF401E8041C00F01B014
:1022E00030BD30B581B005000C0001236A461221D3
:1022F00000F010FF002801D000200FE068460078B1
:10230000FB2101400C436846047001236A461221F8
:10231000280000F0E7FE401E8041C00F01B030BD34
:1023200030B581B005000C0001236A46142100F08D
:10233000F1FE002801D000200FE068460078FC2163
:1023400001400C436846047001236A4614212800AA
:1023500000F0C8FE401E8041C00F01B030BD30B556
:1023600081B005000C0001236A46142100F0D2FE62
:10237000002801D000200FE068460078F3210140DA
:102380000C436846047001236A461421280000F0BB
:10239000A9FE401E8041C00F01B030BD30B581B0F4
:1023A00005000C0001236A46192100F0B3FE002845
:1023B00001D000200FE068460078FD2101400C4369
:1023C0006846047001236A461921280000F08AFE3D
:1023D000401E8041C00F01B030BD30B581B0050056
:1023E0000C0001236A46192100F094FE002801D058
:1023F00000200FE068460078F72101400C43684652
:10240000047001236A461921280000F06BFE401E6B
:102410008041C00F01B030BD30B581B005000C0067
:1024200001236A46192100F075FE002801D0002022
:102430000FE068460078EF2101400C4368460470C5
:1024400001236A461921280000F04CFE401E8041FD
:10245000C00F01B030BD30B581B005000C000123C4
:102460006A46192100F056FE002801D000200FE036
:1024700068460078FB2101400C4368460470012344
:102480006A461921280000F02DFE401E8041C00F31
:1024900001B030BD10B50C00012322001B2100F05B
:1024A00039FE002801D0002010BD20780821084006
:1024B0002070012010BD10B50C00012322001B214B
:1024C00000F028FE002801D0002010BD2078202137
:1024D00008402070012010BD10B50C00012322001F
:1024E0001C2100F017FE002801D0002010BD20782C
:1024F000102108402070012010BD10B50C000123F0
:1025000022001C2100F006FE002801D0002010BD92
:102510002078202108402070012010BD10B50C004B
:10252000012322001D2100F0F5FD002801D000202C
:1025300010BD2078C107C90F2170012010BD10B552
:102540000C00012322001D2100F0E4FD002801D031
:10255000002010BD2078022108402070012010BD0D
:1025600010B50C00012322001D2100F0D3FD00282E
:1025700001D0002010BD20780421084020700120E7
:1025800010BD10B50C00012322001D2100F0C2FD7A
:10259000002801D0002010BD2078082108402070BC
:1025A000012010BD10B50C00012322001D2100F0F8
:1025B000B1FD002801D0002010BD20781021084076
:1025C0002070012010BD10B50C00012322001D2138
:1025D00000F0A0FD002801D0002010BD20782021AF
:1025E00008402070012010BD10B50C00012322000E
:1025F0001D2100F08FFD002801D0002010BD2078A3
:10260000402108402070012010BD10B50C000123AE
:1026100022001E2100F07EFD002801D0002010BD08
:102620002078C107C90F2170012010BD10B50C0022
:10263000012322001E2100F06DFD002801D00020A2
:1026400010BD2078022108402070012010BD30B557
:1026500081B004000D0001236A463A2100F05AFDC2
:10266000002808D1012300AA521C3B21200000F0C1
:1026700051FD002801D0002008E06846407800079E
:10268000000D6946097808432880012001B030BD5B
:1026900010B50C00012322003B2100F03BFD002877
:1026A00001D0002010BD20781021084020700120AA
:1026B00010BD10B50C00012322003B2100F02AFDC3
:1026C000002801D0002010BD207820210840207073
:1026D000012010BD10B50C00012322003B2100F0A9
:1026E00019FD002801D0002010BD207840210840AD
:1026F0002070012010BD30B581B004000D00012311
:102700006A463C2100F006FD002808D1012300AAFA
:10271000521C3D21200000F0FDFC002801D00020CB
:1027200008E0684640788007800D694609780843CC
:102730002880012001B030BD10B50C00012322001B
:10274000532100F0E7FC002801D0002010BD2078C4
:10275000102108402070012010BD10B50C0001238D
:102760002200532100F0D6FC002801D0002010BD2B
:102770002078202108402070012010BD30B581B0A4
:1027800005000C0001236A46582100F0C3FC002814
:1027900001D000200FE068460078FE2101400C4384
:1027A0006846047001236A465821280000F09AFC0C
:1027B000401E8041C00F01B030BD30B581B0050072
:1027C0000C0001236A46582100F0A4FC002801D027
:1027D00000200FE068460078FD2101400C43684668
:1027E000047001236A465821280000F07BFC401E3B
:1027F0008041C00F01B030BD30B581B005000C0084
:1028000001236A46582100F085FC002801D00020F1
:102810000FE068460078FB2101400C4368460470D5
:1028200001236A465821280000F05CFC401E8041CC
:10283000C00F01B030BD30B581B005000C000123E0
:102840006A46582100F066FC002801D000200FE005
:1028500068460078F72101400C4368460470012364
:102860006A465821280000F03DFC401E8041C00F00
:1028700001B030BD30B581B005000C0001236A46BF
:10288000582100F047FC002801D000200FE06846E6
:1028900000784006400E04436846047001236A46EF
:1028A0005821280000F01EFC401E8041C00F01B0DE
:1028B00030BD30B581B005000C0001236A465921B6
:1028C00000F028FC002801D0002011E068460078C4
:1028D000E0210140E006C00E08436946087001236C
:1028E0006A465921280000F0FDFB401E8041C00FC0
:1028F00001B030BD30B581B005000C0001236A463F
:10290000592100F007FC002801D000200FE06846A4
:1029100000789F2101400C436846047001236A46F9
:102920005921280000F0DEFB401E8041C00F01B09D
:1029300030BD30B581B005000C0001236A465A2134
:1029400000F0E8FB002801D0002011E06846007884
:10295000FC210140A007800F08436946087001234D
:102960006A465A21280000F0BDFB401E8041C00F7E
:1029700001B030BD30B581B005000C0001236A46BE
:102980005A2100F0C7FB002801D0002012E0684661
:102990000078F3210140A0000C2202400A4368465F
:1029A000027001236A465A21280000F09BFB401E5A
:1029B0008041C00F01B030BD30B581B005000C00C2
:1029C00001236A465A2100F0A5FB002801D000200F
:1029D00010E0684600780007000F210101436846B7
:1029E000017001236A465A21280000F07BFB401E3B
:1029F0008041C00F01B030BD30B581B005000C0082
:102A000001236A465B2100F085FB002801D00020ED
:102A100011E068460078C0210140A006800E0843FE
:102A20006946087001236A465B21280000F05AFBC2
:102A3000401E8041C00F01B030BD30B581B00500EF
:102A40000C0001236A465B2100F064FB002801D0E2
:102A500000200FE0684600784006400E04436846B8
:102A6000047001236A465B21280000F03BFB401EF6
:102A70008041C00F01B030BD30B581B005000C0001
:102A800001236A465C2100F045FB002801D00020AC
:102A900011E068460078F02101402007000F08434C
:102AA0006946087001236A465C21280000F01AFB81
:102AB000401E8041C00F01B030BD30B581B005006F
:102AC0000C0001236A465C2100F024FB002801D0A1
:102AD00000200FE068460078EF2101400C43684673
:102AE000047001236A465C21280000F0FBFA401EB6
:102AF0008041C00F01B030BD30B581B005000C0081
:102B000001236A465C2100F005FB002801D000206B
:102B100012E0684600789F21014060016022024077
:102B20000A436846027001236A465C21280000F0CF
:102B3000D9FA401E8041C00F01B030BD30B581B020
:102B400005000C0001236A465D2100F0E3FA00282D
:102B500001D000200FE068460078F82101400C43C6
:102B60006846047001236A465D21280000F0BAFA25
:102B7000401E8041C00F01B030BD70B582B005006D
:102B80000C00660901236A465D2100F0C3FA0028A3
:102B900017D1684600784007400FE10001436846BE
:102BA000017001236A465D21280000F09BFA00288D
:102BB00007D101236A465C21280000F0ABFA002807
:102BC00001D0002010E0684600784006400EF10178
:102BD00001436846017001236A465C21280000F029
:102BE00081FA401E8041C00F02B070BD30B581B087
:102BF00005000C0001236A465E2100F08BFA0028D4
:102C000001D000200FE068460078FD2101400C4310
:102C10006846047001236A465E21280000F062FACB
:102C2000401E8041C00F01B030BD30B581B00500FD
:102C30000C0001236A465E2100F06CFA002801D0E6
:102C400000200FE068460078FB2101400C436846F5
:102C5000047001236A465E21280000F043FA401EFA
:102C60008041C00F01B030BD30B581B005000C000F
:102C700001236A465E2100F04DFA002801D00020B1
:102C80000FE068460078F72101400C436846047065
:102C900001236A465E21280000F024FA401E80418C
:102CA000C00F01B030BD30B581B005000C0001236C
:102CB0006A465E2100F02EFA002801D000200FE0C5
:102CC00068460078EF2101400C43684604700123F8
:102CD0006A465E21280000F005FA401E8041C00FC0
:102CE00001B030BD30B581B005000C0001236A464B
:102CF0005E2100F00FFA002801D000200FE06846A6
:102D00000078DF2101400C436846047001236A46C5
:102D10005E21280000F0E6F9401E8041C00F01B09E
:102D200030BD30B581B005000C0001236A465E213C
:102D300000F0F0F9002801D000200FE0684600788C
:102D4000BF2101400C436846047001236A465E219E
:102D5000280000F0C7F9401E8041C00F01B030BD0F
:102D600030B581B005000C00012322003E2100F0A7
:102D7000D1F9002807D10123621C3F21280000F06F
:102D8000C9F9002801D0002000E0012001B030BDC9
:102D900030B581B005000C00012322004B2100F06A
:102DA000B9F9002807D10123621C4C21280000F04A
:102DB000B1F9002801D0002000E0012001B030BDB1
:102DC00030B581B005000C0001236A46012100F0F6
:102DD000A1F900280BD1684600788021014368469C
:102DE000017001236A460121280000F07BF90123CC
:102DF00000AA521C0F21280000F08CF96846407888
:102E0000E0210140E006C00E0843694648700123F6
:102E100000AA521C0F21280000F064F901236A4621
:102E20000121280000F076F900280BD168460078CF
:102E30004006400E6946087001236A4601212800B9
:102E400000F050F9012001B030BD0268531C03604E
:102E5000117070470CB4012212060318DA4207D829
:102E60004B18DA4204D802000A43921802D2884270
:102E70000CBC7047FCD08142FAE7FEE79D210200BE
:102E80000AD5F446524200F007F80122D207104357
:102E9000604700009D2102000AD002D4491E92180A
:102EA000FCD5C905100A1206524100D3012A484137
:102EB000704730B405004D400122D20715404B1831
:102EC0000418240E2ED01B0E32D0FF2C34D0FF2B32
:102ED0003AD0E4180002090210431143000A090A1B
:102EE0009446C2B24A43000AC3B24B43000A484365
:102EF000110A5B181A43D2B2190A091801D44918E9
:102F0000641E080A7F3C23DBFE2C08DAE405090670
:102F10001143634699416041284330BC7047FF200C
:102F2000C005F9E728001B0EFF2BF6D1D043F4E7CC
:102F30002800FF2CF1D1F9E74002F7D1FF2B01D196
:102F40004902F3D1E005E7E7D8054902E4D0EDE70F
:102F500043020020641CDFD15B129B1CDCD9D80526
:102F6000DAE7FEE70122D2070118090E7F3910D4F3
:102F700049421F310FD4001805D2C0011043C84088
:102F800000D5D0437047C0011043C84005D440422B
:102F90007047002070470042F3D510007047FEE7ED
:102FA00030B587B08B4C200000F064FC002835D190
:102FB000894860603320A0600120E060874820607D
:102FC000874D02206968014369606968014000918A
:102FD0000099C021890001911221029104900020E2
:102FE00003900420059001A97E4800F097FC802002
:102FF00080032969014329612968084328602868FA
:1030000079490140296000220021172000F082FD4B
:10301000172000F09AFD200000F0ECF8200000F0EE
:1030200029FC012801D1002000E0012007B030BDBB
:10303000F0B58BB002246D4F386820433860386893
:1030400020400090009820200690694E0796099431
:103050000025089506A9634800F060FC00220021C5
:10306000072000F057FD072000F06FFD386820436F
:103070003860386820400090009810200190029637
:103080000494039501A9574800F048FC0022002150
:10309000072000F03FFD072000F057FD00200BB097
:1030A000F0BD00B587B0022050490A6802430A60AB
:1030B0000968014000910099410201914C49029137
:1030C00004900020039001A9464800F027FC00224C
:1030D0000021072000F01EFD072000F036FD002033
:1030E00007B000BD30B583B03A4C80256D01029524
:1030F0000193009201230A004178200000F0E6F8D5
:10310000002805D0200000F0C5F800F01BF80120D1
:1031100003B030BD30B583B02E4C80256D010295D3
:103120000193009201230A004178200000F036FA52
:10313000002805D0200000F0ADF800F003F80120D1
:1031400003B030BD30B587B0224C200000F092FBB8
:10315000002835D1204860603320A0600120E06065
:103160001E4820601E4D022069680143696069683D
:10317000014000910099C021890001911221029122
:103180000490002003900420059001A9154800F048
:10319000C5FB802080032969014329612968084310
:1031A000286028681049014029600022002117206A
:1031B00000F0B0FC172000F0C8FC200000F01AF866
:1031C000200000F057FB012801D1002000E0012081
:1031D00007B030BD581A00202E11B1000054004035
:1031E0002810024000040050FFFFDFFF2C100240B7
:1031F0000000111030B581B0040001D1012047E07A
:10320000250034356878002803D12870200000F0AC
:1032100083FB0220687020680168012291430160ED
:103220006068274901402068016120688168254A5B
:103230000A408260A068002809D0E168012901D114
:10324000802100E084210902014320688160E06858
:10325000022803D18020000121684860206841686D
:10326000194A0A434260206961690143A06900026A
:1032700008432168C860E069216A01432068016051
:103280002068012102680A430260002068606970BA
:1032900001B030BD10B5002801D1012010BD0400DF
:1032A00034340221617001680A6801239A430A607C
:1032B00000F072FC002060606070207010BD0000A3
:1032C000FFFFFFF0FF7FFFFF00800002FDB584B02D
:1032D000343000904078012800D056E10C98002846
:1032E00003D06846808E002801D101204EE1049869
:1032F00000688269120400D547E1009A1278012A19
:1033000000D142E10127009B1F705222009B5A709E
:103310000022009B5A608905890D019141689C4AF1
:103320000A40019911436A46128B1206120A0A4397
:1033300098491143416000F031FC05000024E4434A
:103340000E9E049800688169890723D4310004988F
:1033500000F093FA002813D1A642F2D0002E04D038
:1033600000F01CFC401B8642EBD2009840682021F4
:103370000143009841600098477000200099087050
:103380000098406800984068042859D100200099AE
:103390000870E9E06946098B012926D06946898AC7
:1033A000090A816200F0FAFB050004980068806950
:1033B00080071AD43100049800F05FFA0028DFD1AA
:1033C000A642F2D0002E04D000F0E8FB401B86425B
:1033D000EBD200984068202101430098416000989A
:1033E0004770002000990870CAE76846808AC0B21A
:1033F00004990968886200F0D1FB05000498006810
:10340000816909060ED4A642F8D0002E04D000F03F
:10341000C5FB401B8642F1D20098477000200099FE
:103420000870AFE76946898EFF2941680CDD584A6C
:103430000A4001991143584A0A434260FF2511E0AE
:103440000020009908709EE0514A0A4001991143FA
:103450006A46928E1206120A0A43790611434160A7
:103460006846858E00F09AFB029004980068816996
:1034700089071FD43100049800F0FFF9002814D107
:10348000A642F2D0002E05D000F088FB0299401A27
:103490008642EAD2009840682021014300984160AA
:1034A0000098477000200099087000984068042830
:1034B00069D159E00C99097881620C98401C0C90F4
:1034C0006D1E6846808E401E69468886002D6846BF
:1034D000808E25D1002825D000F060FB05000498DF
:1034E0000068816909060ED4A642F8D0002E04D0E7
:1034F00000F054FB401B8642F1D200984770002038
:10350000009908703FE06946898EFF2941689BDD7C
:10351000019A1F4B0B4013431F49194341608DE72C
:1035200000289FD100F03AFB050020240498006891
:10353000816921401AD11921049800F09EF90028D0
:103540000ED100F02BFB401B1A28EFD300984068E7
:103550000443009844600098477000200099087068
:103560000098406804280ED101200FE0C46104983F
:1035700000684168BA4A0A404260009847700020DB
:103580000099087002E0032000E0022007B0F0BDBF
:10359000009800FC002000010000FF01FDB584B090
:1035A000343000904078012800D055E10C98002874
:1035B00003D06846808E002801D101204DE1049897
:1035C00000688269120400D546E1009A1278012A47
:1035D00000D141E10127009B1F706222009B5A70BD
:1035E0000022009B5A608905890D029141689D4A1D
:1035F0000A40029911436A46128B1206120A0A43C4
:1036000079031143416000F0C9FA06000025ED433B
:103610000E9C049800688169890723D421000498CE
:1036200000F02BF9002813D1AC42F2D0002C04D0CA
:1036300000F0B4FA801B8442EBD20098406820214D
:10364000014300984160009847700020009908707D
:10365000009840680098406804285BD100200099D9
:103660000870E8E06946098B012926D06946898AF5
:10367000090A816200F092FA0600049800688069E5
:1036800080071AD42100049800F0F7F80028DFD151
:10369000AC42F2D0002C04D000F080FA801B8442AF
:1036A000EBD20098406820210143009841600098C7
:1036B0004770002000990870CAE76846808AC0B247
:1036C00004990968886200F069FA0190402604981C
:1036D0000068816931400FD1AC42F8D0002C05D090
:1036E00000F05CFA0199401A8442F0D200984770C9
:1036F000002000990870ADE76946898EFF2941686E
:103700000CDD584A0A4002991143574A0A43426065
:10371000FF261CE00020009908709BE0514A0A40F7
:10372000029911436A46928E1206120A0A434F49C1
:1037300009E04C4A0A40029911436A46928E1206E9
:10374000120A0A43B104114341606846868E00F0B4
:1037500025FA019004980068816949070FD4AC42AA
:10376000F8D0002C05D000F019FA0199401A8442D3
:10377000F0D2009847700020009908706AE0406A13
:103780000C9908700C98401C0C90761E6846808E30
:10379000401E69468886002E6846808E27D1002804
:1037A00027D000F0FBF90190802604980068816919
:1037B00031400FD1AC42F8D0002C05D000F0EEF92A
:1037C0000199401A8442F0D2009847700020009975
:1037D00008703FE06946898EFF294168A9DD029A99
:1037E000204B0B40134322491943416090E70028C6
:1037F000ADD100F0D3F90500202404980068816958
:1038000021401AD11921049800F037F800280ED170
:1038100000F0C4F9401B1A28EFD300984068044315
:103820000098446000984770002000990870009844
:10383000406804280ED101200FE0C461049800689C
:103840004168074A0A40426000984770002000998A
:10385000087002E0032000E0022007B0F0BD000085
:1038600000E800FE009800FC0024FF010024000294
:103870000000FF013521405C7047F0B581B00400C5
:103880000F0000F08BF90090206810258169294015
:103890003DD0260034367178122905D0717852292E
:1038A00002D07178622906D14168890103D4416848
:1038B000AA020A4342602068202182690A4011D18D
:1038C0000020C0438742F6D0002F05D000F066F9F3
:1038D0000099401A8742EED20120707000203070AB
:1038E000032015E0C5612068C161216801208A6953
:1038F000024000D1C86121684A68064B13404B6002
:1039000004217160707000203070012000E0002000
:1039100001B0F0BD00E800FE7047FEE7F0B484B0EF
:103920000022032301240D68002D00D1C9E00D6899
:10393000012696402E400296029D002D00D1BBE04C
:103940004D68022D01D0122D16D1D508AD004519B4
:1039500000952D6A03959600AC460F251C2737402D
:10396000BD406746AF430D69AC461C2535406646F1
:10397000AE403E43009D2E624D68012D05D0022DC4
:1039800003D0112D01D0122D18D1866855006F4635
:103990003D716D462F790325BD40AE43CD686F461E
:1039A0003F79BD4035438560466801259540AE436B
:1039B0004D682D0925409540354345600668550002
:1039C0006F463D716D462F790325BD40ED432E4076
:1039D000B4464F681F406E463679B7406646374357
:1039E0000760C66835408E686F463F79BE402E43FB
:1039F000C6604D68ED005FD53E4D2D6825433D4EB8
:103A000035603D4D9608B600AD1900952F689600BB
:103A10000C2535400F26AE40B7433E00A027FF05DA
:103A2000B84201D1002714E0344FB84201D1012738
:103A30000FE0334FB84201D102270AE0314FB842BC
:103A400001D1032705E0304FB84201D1052700E03E
:103A50000627AF403743009D2F602C4D2D68029FF5
:103A6000FE4300962E404D68ED0302D53500029EC0
:103A70002E43264D2E606E68009D35404E68B6037D
:103A800002D52E00029D3543204E7560B668009D1C
:103A900035404E68F60202D52E00029D35431B4E7E
:103AA000B560F668009D35404E68B60202D52E001E
:103AB000029D3543154EF560521C0D68D54000D06F
:103AC00035E704B0F0BC7047002A01D0816170472F
:103AD0008162704742694A40426170470C4A1368EC
:103AE000034000D1704700B581B0106000F0DEFBEC
:103AF00001B000BD34100240080001400004005035
:103B000000080050000C0050001C00500004014050
:103B10001404014010B4C20018231340FF249C4039
:103B2000E2438907090E9940002804D5154B000788
:103B3000000F083800E0144B800880001818036854
:103B40001A401143016010BC70470121C006C00E2D
:103B500081400E4801607047401E80214904884220
:103B600001D3012070470A4948600A4802681202DE
:103B7000120AC0231B06134303600020886007223B
:103B80000A6070471CED00E000E400E000E100E0A6
:103B900010E000E020ED00E07047FEE7014800681B
:103BA000704700BF2C1B0020F0B5CFB000F0FEFB2B
:103BB00000F014FC002000F089FC002000F0AAFCBA
:103BC0000121002000F0C2FC00F0B2FD0C200090AA
:103BD00000200A9080204000029000200590684656
:103BE00000F012FE002804D00120982149000A00AC
:103BF00001E0FF21FF220A4C21617F21E160094998
:103C00000860E264084860604020A06000206061B5
:103C1000E0612062201D01F069F9002806D0FEE76E
:103C200030170020301B0020002800406846142177
:103C3000C17002214170182181700221017001229E
:103C40006946201D01F0B6FA002800D0FEE701A861
:103C500008210170102141700021418004910591DB
:103C6000012201A9201D01F0A5F9002800D0FEE7DE
:103C70000025ED4321006C31280001F081FB21007B
:103C80007031280001F0B0FC21007431280001F0EF
:103C900097FD21007831280001F052FE21007C318F
:103CA000280001F011FF200080300290014628001A
:103CB00002F052F8270084370EAD1DE000F02AFC18
:103CC000B3480078002810D0607800280DD00EA8E6
:103CD00002F026F9A0783721685434200E900EA8FF
:103CE00000F012FD00206070A0702078002803D042
:103CF000FA20400002F0C4F90EA800F08BFC002866
:103D00000BD02879322808D10EA802F013F9A04868
:103D10000078002801D000202070606D216D88425D
:103D200038D0206D606502980068216DC90702D502
:103D300002F06AF801E002F077F8A06F216D490700
:103D400002D501F03DFE01E001F04AFEE06F216D79
:103D5000890702D501F07CFF01E001F089FFE06EE8
:103D6000216DC90602D501F0ABFB01E001F0B8FB03
:103D7000206F216D890602D501F08EFC01E001F073
:103D80009BFC606F216D490602D501F055FD01E0F5
:103D900001F062FD00207E490978002902D12178D6
:103DA000002911D0002204A9201D01F0CFF9002222
:103DB00003A9201D01F0AFFAE16C0598081A6422EE
:103DC0005043491C02F07FF97149097800290AD053
:103DD0006946097CE97104A94978297204A989789E
:103DE0006972A87218E02178002915D0C0B201903C
:103DF00004A88078009004A843786846027C88492B
:103E0000380002F0BBF9380002F0D4F99F4B82B2BF
:103E10003900844802F009FA206DC00764D50020FB
:103E200069460880491C0298006802F00DF80028D5
:103E30005AD168464078012856D1694602980068F0
:103E400002F056F86846007800284DD06078401C93
:103E50006070A07808210143A170210058310298B8
:103E6000006802F005F8A66D3000FFF77BF80190BE
:103E7000FFF704F802003000002102F0D9FC01D85D
:103E8000110001E01000310002F01EFD02F074FD8F
:103E900000227F4B02F089FD02F049FE02F050FE45
:103EA00006003B48007800280CD002220199280027
:103EB0000B3002F0F6FE0222310028000D3002F035
:103EC000F0FE11E0207800280ED03300019A564908
:103ED000380002F053F9380002F06CF96B4B82B2F3
:103EE0003900504802F0A1F9206D400764D5002048
:103EF00069460880491CA06F01F082FD00285BD153
:103F000068464078012857D16946A06F01F0CCFD82
:103F10006846007800284FD06078401C6070A07818
:103F200010210143A17021005C31A06F01F07CFDE4
:103F3000E66D3000FFF716F80190FEF79FFF0200D4
:103F40003000002102F074FC01D8110001E01000E3
:103F5000310002F0B9FC02F00FFD00224C4B02F0E0
:103F600024FD02F0E4FD02F0EBFD060008480078B5
:103F700000280FD0012201992800113002F091FE93
:103F8000012231002800123002F08BFE14E000BF45
:103F900048000020207800280ED03300019ABE4946
:103FA000380002F0EBF8380002F004F9374B82B227
:103FB00039001C4802F039F9206D80076FD50020C8
:103FC00069460880491CE06F01F062FE002866D156
:103FD00068464078012862D16946E06F01F0ACFE86
:103FE0006846007800285AD06078401C6070A0783D
:103FF00020210143A17021006031E06F01F05CFEDF
:10400000266E3000FEF7AEFF0190FEF737FF02008C
:104010003000002102F00CFC08D8110008E000BFBD
:1040200064B70008C012002080B7000810003100FB
:1040300002F04AFC02F0A0FC0022154B02F0B5FC95
:1040400002F075FD02F07CFD0600B74800780028FC
:104050000CD00122019928000F3002F022FE01222B
:1040600031002800103002F01CFE18E020780028F3
:1040700015D03300019A00BF88A1380002F07EF805
:10408000380002F097F8014B04E000BF88130000ED
:104090000000594082B23900A44802F0C6F8206DF1
:1040A000C0064CD500206946888001A9491CE06EF5
:1040B00001F026FA002842D16846407901283ED115
:1040C00001A9E06E01F080FA68460079002836D038
:1040D0006078401C6070A07801210143A17021002C
:1040E0002831E06E01F020FA8F480078002812D0C5
:1040F0000422A16A2800133002F016FE0422E16AAD
:104100002800173002F010FE0422216B28001B301B
:1041100002F00AFE13E02078002810D0206B0090F7
:10412000E36AA26A86A1380002F028F8380002F09B
:1041300041F87F4B82B239007C4802F076F8206D5E
:1041400080064CD500206946888001A9491C206F53
:1041500001F0C2FA002842D16846407901283ED1D8
:1041600001A9206F01F01CFB68460079002836D0B9
:104170006078401C6070A07802210143A17021008A
:104180003431206F01F0BCFA67480078002812D063
:104190000422616B28001F3002F0C6FD0422A16BCF
:1041A0002800233002F0C0FD0422E16B28002730F4
:1041B00002F0BAFD13E02078002810D0E06B0090E8
:1041C000A36B626B67A1380001F0D8FF380001F0E3
:1041D000F1FF574B82B23900544802F026F8206DA7
:1041E00040064CD500206946888001A9491C606FB3
:1041F00001F042FB002842D16846407901283ED1B7
:1042000001A9606F01F08CFB68460079002836D068
:104210006078401C6070A07804210143A1702100E7
:104220004031606F01F03CFB3F480078002812D01D
:104230000422216C28002B3002F076FD0422616CF0
:1042400028002F3002F070FD0422A16C28003330CA
:1042500002F06AFD13E02078002810D0A06C0090D6
:10426000636C226C48A1380001F088FF380001F02F
:10427000A1FF2F4B82B239002C4801F0D6FF2A480B
:104280000078002803D12078002800D116E500200E
:1042900000F04EF914E5000094B7000854454D5065
:1042A0003A2025642E253032640D0A0080218901D0
:1042B000884200D0704710B51E4C606E002805D1B2
:1042C000A06E002802D1FFF769FC0AE0FFF766FC48
:1042D000A066A06E616E401AFF212E3188420CD379
:1042E000A06E606610480078002801D0002003E02E
:1042F0002178481E8041C00F207010BD10B586B0D7
:1043000000236C46E37020706170A27001930393E8
:10431000049300226946084800F04CFE002800D0B3
:10432000FEE706B010BD000048000020C0120020CB
:10433000881300003017002034170020FEE700002B
:104340004143435F583A2025642C204143435F5941
:104350003A2025642C204143435F5A3A2025640DBE
:104360000A0000004759525F583A2025642C204724
:1043700059525F593A2025642C204759525F5A3AC6
:104380002025640D0A0000004D41475F583A202562
:10439000642C204D41475F593A2025642C204D4123
:1043A000475F5A3A2025640D0A00000000B581B02D
:1043B0000848016840220A430260016802229143D2
:1043C0000160032002F0C8FC00F006F8002001B0F4
:1043D00000BD0000002002407047FEE770B594B0B9
:1043E000344C6068802149050143616032480168AE
:1043F000324A0A40C10C1143016002200590012598
:104400000895102109910F900026109640041190F4
:104410000001129005A800F0F7F90F20009003208A
:1044200001900296039604960121684600F0F8FB7D
:1044300020680543256014B070BD214909680068F3
:10444000204A904201D108201DE01432904201D14F
:10445000802018E01432904201D1D00C13E01432C5
:10446000904202D1802000020DE01432904202D12D
:104470008020000307E01432904202D18020000423
:1044800001E08020000508407047006840687047E0
:104490000D49016000218160C1608022026141619B
:1044A00081612021C161C021890101620421416033
:1044B000704700003410024000700040FFE7FFFF2B
:1044C00000000240080002405800024030B587B0AA
:1044D00001214A4A13680B43136012680A40009294
:1044E000009A00BF18A24300D55A019502910021FD
:1044F000039103210491424980000C1801A920680E
:10450000FFF70CFA002229002068FFF7DDFA07B058
:1045100030BD000000B581B0002200BF0AA14300F9
:10452000C95A374B80001858FFF7CEFA01B000BDCA
:1045300000B581B004A14200895A314A8000105868
:10454000FFF7C8FA01B000BD2000000030B587B009
:1045500005000C000421294802680A430260026831
:10456000114000910099816801220A438260200075
:1045700010D100BF20A06900405A01900020029095
:10458000022003900320049001A91E48AA0080582D
:10459000FFF7C4F9012C2AD117A06900405A0190F5
:1045A000002003901848029001A91648AA008058DC
:1045B000FFF7B4F90FA0405D43B2D90018240C40B6
:1045C000FF22A240D143C022A240002B04D50F4CB1
:1045D0001B071B0F083B00E00D4C9B089B00E318DA
:1045E0001C6821400A431A6040B2FFF7AEFA07B0D8
:1045F00030BD000007000000002000002C10024029
:104600005405002058050020000011101CED00E0AA
:1046100000E400E0F1B584B000267448FFF70DFF18
:1046200000286ED18024A4007048FFF72EFF201AC6
:1046300080B202906E4884880298A04202DA8021FB
:1046400089004018001B80B2019000960198012853
:104650004FDB6848005D641CA4B2802189008C4255
:1046600000DB0024F0283ED16148848800250BE05F
:10467000221811001312DB0D9A18521252028C1AD2
:10468000A4B2761C2D18ADB2601C009A954216DAC1
:104690000112C90D091849124902471A5548005D0F
:1046A0005449BFB2C95D049AB6B29219121D02F004
:1046B00099FAC0B20028DBD14D48878021E0B6B21C
:1046C00004990E6001000212D20D1018401240022F
:1046D0000C1AA4B246498C80049802F0B8FA00285B
:1046E00001D001200EE00098401C00900199884202
:1046F000AFDB0198FF21891C884202DB02983C490C
:104700008880002005B0F0BD30B581B0050002F012
:1047100078FA394C29002000703002F03AFA374B11
:1047200082B221007031200001F07FFD01B030BD68
:1047300070B586B0012032490A6802430A600A68EF
:1047400002400092009A0A6802430A600A68024026
:104750000092009ACA6843041343CB604A6802433C
:104760004A6049680840009000980424019402209F
:1047700002900025039504900594A026F60501A952
:104780003000FFF7CBF808200190059401A9300014
:10479000FFF7C4F8184C1B482060154E706C606021
:1047A000A560E5602561A5610C206061200001F035
:1047B00009FD002800D0FEE730000830FFF768FE52
:1047C0003000083002F0DAFA2000583031000831A9
:1047D000C1603463074961658022920002804561AF
:1047E000200001F0B3FD06B070BD000008000020FD
:1047F0000000002030150020C012002088130000A7
:104800002C10024000440040F0B583B00400B54DC8
:104810002078C0074FD50C21E8680840082808D048
:1048200080204002EA6811400C290AD1E968014061
:1048300007D0286880033ED5606800283BD101205E
:10484000E4E1616881420BD0A74AA023DB029942D0
:10485000296809D10A402A60296882000A432A602F
:1048600029680843286009E00A402A60296808404E
:104870000090009828689D49014029608027BF0268
:10488000606800280BD0FFF789F9060028683840D7
:1048900011D1FFF783F9801B6528F7D3B3E1FFF748
:1048A0007DF906002868384005D0FFF777F9801BAE
:1048B0006528F7D3A7E12078800718D50C21E86890
:1048C0000840042806D0E86801400C2943D1E86874
:1048D000C00340D42868400702D5E0680128AED163
:1048E0006868B34901402069000208436860207885
:1048F000C0061AD56F0DE8680C21014050D1286818
:10490000074002D0E069002899D06868A9490140B1
:10491000606A0843686068680002000A216A090644
:1049200001436960032002F017FA2078000776D56A
:1049300060690028286D63D0012101432965FFF7D4
:104940002DF90600286D800769D4FFF727F9801B31
:104950000328F7D357E1E0680921C9430427002859
:104960000FD02A68114008432860FFF717F90600A6
:1049700028683840B4D1FFF711F9801B0328F7D31A
:1049800041E1286801402960FFF708F9060028681E
:104990003840ACD0FFF702F9801B0328F7D332E18F
:1049A000E069002828681CD0A90D01432960FFF7A1
:1049B000F5F806002868384005D1FFF7EFF8801BAE
:1049C0000328F7D31FE168687A490140606A084309
:1049D000686068680002000A216A0906014369608C
:1049E000A3E78B4901402960FFF7D8F80600286843
:1049F00038409AD0FFF7D2F8801B0328F7D302E1A2
:104A0000012188432865FFF7C9F80600286D800753
:104A100005D5FFF7C3F8801B0328F7D3F3E0207810
:104A200080062ED57B48A1690029A96816D00122ED
:104A30000A43AA60696B01220A436A6301686A0C2F
:104A40000A430260FFF7AAF80600A868800718D496
:104A5000FFF7A4F8801B0328F7D3D4E00122914389
:104A6000A96001686C4A0A400260FFF797F80600E7
:104A7000A868800705D5FFF791F8801B0328F7D3B6
:104A8000C1E02078400776D500200190009080207A
:104A90004005A96B014004D1A96B0843A86301201C
:104AA0000190AF0D5D480068384013D15B48006845
:104AB00038435A49086001200090FFF76FF806005C
:104AC00056480068384005D1FFF768F8801B652814
:104AD000F6D398E0A168B94215D04D48002907D116
:104AE000296D14E000100240FFFFFEFFFFFFFBFFF7
:104AF000A022D2009142296D09D108402865286D75
:104B0000290D01432965286D07432F6505E00840FD
:104B10002865286D9449014029656F0DA06800281B
:104B20000CD0FFF73BF80600286D384013D1FFF793
:104B300035F8801B8D498842F6D364E0FFF72EF8E4
:104B40000600286D384006D0FFF728F8801B8749FB
:104B50008842F6D357E00098002805D02F48006817
:104B60002B4901402D4801600198002803D0A86B13
:104B70007F490140A963A06A002846D0E9680C2259
:104B80000A400C2A00D15AE68027BF04794902283E
:104B900028682BD101402960FFF700F8060028683B
:104BA000384009D0FEF7FAFF801B0328F7D32AE02C
:104BB000FFE0FFFFFF1FFFFFE8688A490140206B0D
:104BC0000843616B0143E06A0843E860286879089C
:104BD00001432960FEF7E2FF06002868384014D13F
:104BE000FEF7DCFF801B0328F7D30CE001402960AF
:104BF000FEF7D4FF06002868384006D0FEF7CEFF47
:104C0000801B0328F7D3032000E0002003B0F0BD91
:104C1000FFFEFFFF20000140FEDFFFFF00700040AD
:104C2000F2B5040070480068C107C90F00988142BE
:104C30000DD26D48006801218843009901436A48FC
:104C400001600068C107C90F0098814270D1864D8C
:104C50002078800705D5E868F0218843A1680143E2
:104C6000E9602078C0074ED56068022802D1296823
:104C7000890308E0002802D12968890503E0032898
:104C8000296802D1890102D452E0490750D5E96868
:104C9000032291430843E860FEF780FF0700606845
:104CA0000C2602280AD1E868304008282BD0FEF7ED
:104CB00075FFC01B2D498842F5D322E003280AD195
:104CC000E86830400C281ED0FEF768FFC01B27495B
:104CD0008842F5D315E0002809D1E868304012D0A9
:104CE000FEF75CFFC01B21498842F6D309E0E86863
:104CF0003040042807D0FEF751FFC01B1B498842F3
:104D0000F5D303202DE038480068C107C90F00988B
:104D100081420FD334480068012188430099014340
:104D2000314801600068C107C90F0098814201D075
:104D3000012016E02078400705D5E8685F4901406A
:104D4000E0680843E8602078000706D5E8685C4919
:104D500001402069C0000843E860032001F0FCFF27
:104D6000002001B0F0BD0000FFFBFFFF8913000031
:104D7000FFFFFFEFFFFFFFFE00B53B4A5068D16821
:104D80000C230B40042B04D0082B09D00C2B09D08A
:104D900020E01068C00601D54B4800BD4B4800BD5F
:104DA0004B4800BDD068D1684A4B8002000F185CA8
:104DB0000902890F491CD368DB0306D41268D206A6
:104DC00001D5414A02E0414A00E0414A504301F026
:104DD0007DF900BD01210004400F401C8140C80343
:104DE00000BD0000FFFF02FF0020024010B51E4C76
:104DF0006068E1680C220A40042A1DD0082A19D0F4
:104E00000C2A20D1E068E168324A8002000F105C71
:104E10000902890F491CE268D20306D42268D2062F
:104E200001D5294A02E0294A00E0294A504301F00D
:104E30004DF90EE026480CE02068C00601D5224856
:104E400007E0224805E001210004400F401C81409A
:104E5000C80300BF21A1E2681206120F895CC84096
:104E60001D49086010BD00000010024000B581B06F
:104E7000FFF782FF19A1134A13681B061B0FCB5CB7
:104E8000D840154B186012685205520F895CC84013
:104E900001B000BD00B581B0FFF76EFF0FA1094A58
:104EA00013681B061B0FCB5CD8400B4B18601268B5
:104EB0009204520F895CC84001B000BDFFF8FFFFAB
:104EC000FFC7FFFF0C10024000093D000024F40062
:104ED00000127A00D49C00085C050020000000004D
:104EE000010203040102030406070809F0B581B0BA
:104EF00004002CD02120205C002804D12021605403
:104F0000200001F0F9FF022021216054CA2021680D
:104F1000486253202168486220684025C1682940C2
:104F200017D10021C943C160FEF738FE0700854E46
:104F30002068C06828400CD1FEF730FEC01BB0428C
:104F4000F6D3FF202168486204202121605401200B
:104F50002EE0206881687C4A0A408260206881686F
:104F6000626823691343A2691A430A438260E068B6
:104F70002168086120680169A26812040A4302617D
:104F80002068C16880229143C1602068C16C0322FF
:104F90009143C1642068C16CE269636913430B43A8
:104FA000C364FF2021684862012021216054002051
:104FB00001B0F0BDF2B582B004002020205C0128D1
:104FC00001D10220BBE001202021605402202121D8
:104FD000605420680027002A806842D1400601D42E
:104FE0000299CF70029801780D0000200A2907DB92
:104FF00008000A2101F067F80100F62251436D18FC
:105000000001054368460571029841780D000020B3
:105010000A2907DB08000A2101F055F80100F622F1
:1050200051436D1800010543029881780E0000205D
:105030000A2907DB08000A2101F045F80100F622E1
:10504000514376186946097909042D062A0C0A434A
:1050500000010643F6B216430298C07805043543B2
:1050600011E0400601D40299CF7002980078000444
:10507000029949780902014302988078084302990D
:10508000C9780D040543CA2021684862532021686D
:1050900048622068C168490611D40021C943C16033
:1050A000FEF77CFD0090274E2068C068400606D4BD
:1050B000FEF774FD0099401AB042F5D32DE0AC48DC
:1050C00028402168086020688168AA4A0A408260F6
:1050D00020688168029AD268029B1B6913430B43C4
:1050E00083602068C16880229143C16020682025C8
:1050F000816829401BD1C168A0229143C160FEF79D
:105100004DFD00900F4E2068C06828400FD1FEF77B
:1051100045FD0099401AB042F5D3FF20216848624E
:1051200004202121605420202754012007E0FF2083
:10513000216848620120212160546755002003B096
:10514000F0BD0000E9030000BFFF8FFF10B400684E
:10515000836A4B6003695B045B0C8B600368844863
:105160001840030C9C06A40E0C70040A4C70887046
:1051700040200340CB70002A18D10A780F20130971
:105180009C00E3185B0002409A180A704A781309E1
:105190009C00E3185B0002409A184A708A78130951
:1051A0009C00E3185B00104018188870002010BCA9
:1051B00070470000F0B583B004000D002020205C93
:1051C000012801D10220A4E0012020216054022006
:1051D0002121605468780027002A5ED1C10603D5DA
:1051E000EF2101400A316970E9780E0000200A2998
:1051F00007DB08000A2100F066FF0100F622514398
:105200007618000106436846467169780E00002052
:105210000A2907DB08000A2100F055FF0100F622E9
:10522000514376180001064368460671A9780E00BE
:1052300000200A2907DB08000A2100F044FF0100D2
:10524000F622514376186946497909046A4612796B
:1052500012020A4300010643F6B2164328784503BA
:105260003543CA202168486253202168486220687B
:10527000C16849061BD40021C943C160FEF78EFCFA
:1052800000903D4E2068C068400610D4FEF786FCB2
:105290000099401AB042F5D329E0E97809040002E8
:1052A0000843A9780143287845030D43D9E73348DB
:1052B0002840216848602068C16880229143C1600D
:1052C00020682025816829401BD1C168A022914314
:1052D000C160FEF763FC0090274E2068C06828403C
:1052E0000FD1FEF75BFC0099401AB042F5D3FF20C6
:1052F0002168486204202121605420202754012085
:1053000007E0FF2021684862012021216054675591
:10531000002003B0F0BD10B400684368174818407F
:10532000030CCB70C304DB0E4B7088700004400F7D
:105330000870002A18D1CA780F2013099C00E318BE
:105340005B0002409A18CA704A7813099C00E3185F
:105350005B0002409A184A708A7813099C00E3188F
:105360005B00104018188870002010BC70470000C7
:105370007F7F7F00FFFFFBFFE90300003FFFFF008F
:1053800010B50C000021216000280DD0012811D09B
:10539000200000F016F8012804D1200000F04BF89E
:1053A00001280CD0002010BD200000F00AF80128D0
:1053B000F8D104E0200000F03EF80128F2D10120ED
:1053C00010BD70B505000024384EF078012831D0AA
:1053D000FDF7E6FD01282DD06A203070D6207070D0
:1053E000748034710120707130002830B060304812
:1053F000F060304830613048B06330003830B0621F
:10540000F4622E60F0680168080005D100200021D8
:10541000002207C603C607E030008847012806D1EE
:105420001421286801F0CCFD2C60012070BDFDF72F
:10543000FFFD002070BD70B5050000241B4EF07DFF
:10544000012832D0FDF7ACFD01282ED03320307575
:10545000322070750120B075F475347670763000A6
:105460003030F06115483062746230004030306393
:105470007463300014302860306A0168080007D176
:10548000300014300021002200230EC006C008E0C6
:10549000300014308847012806D11421286801F013
:1054A0008FFD2C60012070BD002070BDD41900203C
:1054B0006403002058020020381B0020C001002097
:1054C00000B581B0002803D0C16889680A0001D105
:1054D000012003E08847012800D0002001B000BD72
:1054E00000B581B0002803D0C168C9680A0001D1A5
:1054F000012003E08847012800D0002001B000BD52
:10550000002801D0002901D101207047C07808701F
:1055100000207047002801D0002901D101207047E8
:10552000807808700020704700B581B0002805D051
:10553000C268002902D09269130001D1012003E062
:105540009047012800D0002001B000BD00B581B017
:10555000002803D0C268D26A130001D1012003E001
:105560009047012800D0002001B000BD00B581B0F7
:10557000002803D0C268926B130001D1012003E020
:105580009047012800D0002001B000BD10B50028D0
:1055900005D0C368002A02D05B6C1C0001D1012039
:1055A00010BD9847012800D0002010BD10B500287C
:1055B00003D0C3689B6C1C0001D1012010BD98472B
:1055C000012800D0002010BD00B581B0002803D014
:1055D000C268D26C130001D1012003E0904701287A
:1055E00000D0002001B000BD00B581B000220A60EB
:1055F000002807D0080000F00CF8012807D0002090
:1056000001B000BD080000F004F80128F7D1012026
:10561000F6E770B5050000241B4EF078012831D064
:10562000FDF7BEFC01282DD06A203070D6207070A6
:10563000748034710120707130001430B0601348F0
:10564000F060134830611348F06130001C30706125
:10565000B4612E60F0680168080005D100200021C7
:10566000002207C603C607E030008847012806D19C
:105670001421286801F0A4FC2C60012070BDFDF706
:10568000D7FC002070BD0000941A0020B403002055
:1056900028030020381B002000B581B0002803D06B
:1056A000C16889680A0001D1012003E08847012808
:1056B00000D0002001B000BD00B581B0002803D0AB
:1056C000C168C9680A0001D1012003E088470128A8
:1056D00000D0002001B000BD002801D0002901D178
:1056E00001207047C078087000207047002801D062
:1056F000002901D101207047807808700020704790
:1057000000B581B0002805D0C268002902D0926996
:10571000130001D1012003E09047012800D00020B0
:1057200001B000BD00B581B0002803D0C268D26AC4
:10573000130001D1012003E09047012800D0002090
:1057400001B000BD00B581B0002803D0C268926BE3
:10575000130001D1012003E09047012800D0002070
:1057600001B000BD10B5002805D0C368002A02D0E2
:105770005B6C1C0001D1012010BD9847012800D0AE
:10578000002010BD10B5002803D0C3689B6C1C001E
:1057900001D1012010BD9847012800D0002010BD84
:1057A00000B581B0002803D0C268D26C130001D1CB
:1057B000012003E09047012800D0002001B000BD87
:1057C00070B50D0000242C60194EF17801292AD003
:1057D000FDF7E6FB012826D0402030703C20707099
:1057E000748034710120707130001430B060114841
:1057F000F060346130001C307061B4612E60F0687C
:105800000168080006D100200021002207C603C657
:105810002C6008E030008847012806D11421286850
:1058200001F0CEFB2C60012070BD002070BD000097
:10583000D81A00201002002000B581B0002803D043
:10584000C16889680A0001D1012003E08847012866
:1058500000D0002001B000BD00B581B0002803D009
:10586000C168C9680A0001D1012003E08847012806
:1058700000D0002001B000BD002801D0002901D1D6
:1058800001207047C078087000207047002801D0C0
:10589000002901D1012070478078087000207047EE
:1058A00000B581B0002805D0C268002902D09269F5
:1058B000130001D1012003E09047012800D000200F
:1058C00001B000BD00B581B0002803D0C268D26A23
:1058D000130001D1012003E09047012800D00020EF
:1058E00001B000BD10B5002805D0C368002A02D061
:1058F000DB6B1C0001D1012010BD9847012800D0AE
:10590000002010BD10B5002803D0C3681B6C1C001C
:1059100001D1012010BD9847012800D0002010BD02
:1059200000B581B0002803D0C268526C130001D1C9
:10593000012003E09047012800D0002001B000BD05
:1059400070B50D0000242C601A4EF17801292CD07E
:10595000FDF726FB012828D0BC203070BE207070D7
:10596000748034710120707130001430B0601248BE
:10597000F06034611148F06130001C307061B46136
:105980002E60F0680168080006D100200021002286
:1059900007C603C62C6008E030008847012806D1FE
:1059A0001421286801F00CFB2C60012070BD002040
:1059B00070BD0000B81A002078000020281B0020CD
:1059C00000B581B0002803D0C16889680A0001D100
:1059D000012003E08847012800D0002001B000BD6D
:1059E00000B581B0002803D0C168C9680A0001D1A0
:1059F000012003E08847012800D0002001B000BD4D
:105A0000002801D0002901D101207047C07808701A
:105A100000207047002801D0002901D101207047E3
:105A2000807808700020704700B581B0002805D04C
:105A3000C268002902D09269130001D1012003E05D
:105A40009047012800D0002001B000BD00B581B012
:105A5000002803D0C268526A130001D1012003E07C
:105A60009047012800D0002001B000BD10B50028EB
:105A700005D0C368002A02D09B6A1C0001D1012016
:105A800010BD9847012800D0002010BD10B5002897
:105A900003D0C368DB6A1C0001D1012010BD984708
:105AA000012800D0002010BD00B581B0002803D02F
:105AB000C268126B130001D1012003E09047012856
:105AC00000D0002001B000BD70B50D0000242C6096
:105AD000002838D0012867D0574EF07801282BD005
