:020000040800F2
:10000000180C002025D3000881D2000883D20008F4
:1000100000000000000000000000000000000000E0
:100020000000000000000000000000002332000873
:1000300000000000000000005F32000885D20008C8
:10004000EB3B00086B3E0008AB4600084F68000819
:10005000036F0008D77D0008DB7D000891D20008FF
:100060002386000807870008D3890008BF8B000893
:10007000FBB50008AFC100080000000077C600080B
:10008000000000004FCF000800000000000000004A
:1000900097D0000800000000BBD10008D7D20008AC
:1000A000E7D2000813D3000849D300084BD3000857
:1000B0004DD300084FD3000851D3000853D3000894
:1000C00010B582B00400002069460870200001F0DD
:1000D000F5FE002838D0684600782178884233D170
:1000E0000421200002F03EF900282DD040212000FC
:1000F00001F0F0FE002827D00021200002F0B6F821
:10010000002821D0AE48A1680968086000212000BD
:1001100001F054FF002817D00021200001F0F9FE63
:10012000002811D00821200002F098F900280BD0F7
:100130001021200002F0C2F9002805D02021200063
:1001400002F0ECF9002801D1012002E00120E0706A
:10015000002002B010BD70B582B00400A06806682F
:100160000025684605706946200001F0A7FE0028BA
:1001700000D19EE0684600782178884200D098E05F
:100180000021200002F0F0FE002800D191E00021C3
:10019000200002F053FE002800D18AE00021200058
:1001A00002F02DFE002800D183E00021200002F0A3
:1001B0009DFE00287DD00021200002F0FCFC0028DC
:1001C00077D00021200002F0AEF8002871D0002185
:1001D000200002F0B0FC00286BD00021200002F0CB
:1001E0007CFA002865D00021200002F04AFF002898
:1001F0005FD00021200002F0F5FE002859D0002138
:10020000200002F0B7FC002853D00021200002F0AB
:10021000F1FC00284DD00021200002F00CFD002848
:1002200047D00021200002F00AFC002841D0002124
:10023000200002F023FC00283BD00021200002F027
:100240003CFC002835D00021200002F06EFE002882
:100250002FD00021200002F08DFC002829D00021A1
:10026000200002F0C7FC002823D00021200002F06B
:10027000E2FC00281DD00021200002F0FEFC002836
:1002800017D00021200002F039FD002811D00021F4
:10029000200002F0D4FB00280BD00021200002F047
:1002A000EDFB002805D00021200002F006FC00280C
:1002B00001D1012037E00021200002F0F8FD0028E4
:1002C000F7D00021200002F017FC0028F1D0002117
:1002D000200002F002FA0028EBD00021200002F0FA
:1002E00062FE0028E5D00021200002F066FD002813
:1002F000DFD00021200002F0E0FC0028D9D02079D6
:1003000000280DD0A0680168200000F06FF90128D6
:10031000CFD00021200001F051FE0028C9D0257166
:1003200000203060E57002B070BD10B50400207987
:10033000012842D0A06800680068814902F0E6FE0A
:1003400001D2102130E07F4902F0E0FE01D22021ED
:100350002AE07D4902F0DAFE01D2302124E09D49F5
:1003600002F0D4FE01D240211EE09B4902F0CEFEF5
:1003700001D2502118E0994902F0C8FE01D2602153
:1003800012E0974902F0C2FE01D270210CE09549BB
:1003900002F0BCFE01D2802106E0934902F0B6FED5
:1003A00001D2902100E0A021200001F007FE0028EA
:1003B00001D1012010BD01202071002010BD0000DE
:1003C0000000D04230B581B004002079002840D030
:1003D000A06805686946200001F00FFE002834D0AF
:1003E00068460078002826D0102823D020281FD067
:1003F00030281BD0402817D0502813D060280FD0A9
:1004000070280BD0802807D0902803D0A0281AD1BC
:10041000954810E095480EE095480CE095480AE0B4
:10042000954808E0954806E0954804E0954802E0C4
:10043000954800E0954828600021200001F0BEFDAD
:10044000002804D101E092482860012001E000204A
:10045000207101B030BD00B581B001F02FFD401E0C
:100460008041C00F01B000BD30B581B0040000254F
:10047000684605706946200001F020FD002804D080
:10048000684600782178884200D00125280001B014
:1004900030BDF0B583B005000C0001A8002100229A
:1004A00006C001A9280001F064FD002844D001A87D
:1004B0004178090202788E18C17809028278891879
:1004C0006A4651804179090200790F18694628006F
:1004D00001F03EFD00282FD06846007800280CD09F
:1004E000042804D0082806D00C2802D024E0824D2D
:1004F00004E0824D02E0824D00E0824D30B202F015
:100500001DFE290002F035FE02F08CFE20600098EE
:10051000001402F013FE290002F02BFE02F082FE0E
:10052000606038B202F00AFE290002F022FE02F0FA
:1005300079FEA060002000E0012003B0F0BD0000C3
:10054000010050410100D0410100504210B582B07D
:100550000C006946002200230CC1694601F009FD28
:10056000002801D1012010E0684641780902027894
:1005700089182180C17809028278891861804179BF
:10058000090200790818A080002002B010BD10B543
:1005900082B00C00694601F0DBFC002801D101208B
:1005A0000DE068460078002806D004280DD0082801
:1005B00007D00C2807D00AE052482060002002B083
:1005C00010BD4F48F9E74D48F7E74B48F5E730488D
:1005D0002060E4E70100D042010050430100D04315
:1005E000014050440180CF440120504510B582B0F5
:1005F0000C00694601F001FD002801D101201AE03C
:1006000068460078002814D0102816D0202816D06C
:10061000302816D0402816D0502816D0602816D082
:10062000702816D0802816D0902816D0A02816D072
:1006300017E02060002002B010BD1448F9E712480E
:10064000F7E71048F5E70E48F3E70C48F1E70A48EA
:10065000EFE70848EDE70648EBE70448E9E702481A
:10066000E7E70B482060C9E70020D045002050454F
:100670000080CF44004050440000D043000050436D
:100680000000D042000050420000D0410000504124
:10069000000080BF00B581B00279012A15D1002980
:1006A0000CD0022908D009D3042901D002D30AE0D2
:1006B000402104E0302102E0202100E0102101F07F
:1006C0007DFC002814D1012013E080680068002917
:1006D0000CD0022908D009D3042901D002D3F2E7B3
:1006E0006E4904E06E4902E06E4900E06E49016027
:1006F000002001B000BD000023DBF93E23DB793E82
:1007000023DBF93D23DB793D00B581B00200080011
:1007100066491379012B3CD102F0F8FC01D210217B
:1007200030E0634902F0F2FC01D220212AE0614965
:1007300002F0ECFC01D2302124E05F4902F0E6FC3B
:1007400001D240211EE05D4902F0E0FC01D25021BF
:1007500018E05B4902F0DAFC01D2602112E059494D
:1007600002F0D4FC01D270210CE0574902F0CEFC1B
:1007700001D2802106E0554902F0C8FC01D2902147
:1007800000E0A021100001F019FC00282AD101206E
:1007900029E09268126802F0B9FC1FD3444902F0C4
:1007A000B5FC1BD3434902F0B1FC17D3424902F018
:1007B000ADFC13D3414902F0A9FC0FD3404902F02C
:1007C000A5FC0BD33F4902F0A1FC07D33E4902F040
:1007D0009DFC03D33D4902F099FC01D2481E00E084
:1007E000A5481060002001B000BD10B582B00C001B
:1007F000694601F0ADFB002801D101200EE06846FA
:100800000078002806D004280ED0082808D00C282C
:1008100008D00BE08020C0052060002002B010BD91
:100820008120F8E78220F6E78320F4E793482060F0
:10083000E3E700B581B0002904D0022909D00429DA
:1008400009D00AE001F065FB401E8041C00F01B0F5
:1008500000BD0821F6E70C21F4E70120F7E700B519
:1008600081B002000800AF4902F050FC01D2002123
:100870000CE0AD4902F04AFC01D2082106E0AB4988
:1008800002F044FC01D20C2100E00421100001F030
:1008900040FB401E8041C00F01B000BD0000D042AF
:1008A000000050420000D041000050410100504182
:1008B0000100D041010050420100D04201005043EC
:1008C0000100D043014050440180CF4401205045F5
:1008D00030B581B005000C0000A9891C01F0DDFDD8
:1008E00000280CD000A9491C280001F006FE0028B1
:1008F00005D06946280001F030FE002801D1012012
:1009000018E068468078082801D1012000E0002026
:10091000207068464078102801D1012000E00020B6
:10092000607068460078202801D1012000E0002096
:10093000A070002001B030BD30B581B004000D00C2
:100940002878012801D1082100E00021200001F0D1
:1009500085FD00280AD06878012801D1102100E027
:100960000021200001F0AAFD002801D101200BE0A8
:10097000A878012801D1202100E00021200001F009
:10098000CDFD401E8041C00F01B030BD00B581B02B
:10099000012301F08AFA401E8041C00F01B000BD62
:1009A00000B581B06B461A7001236A4601F074FAF3
:1009B000401E8041C00F01B000BD10B582B00C00D8
:1009C000694601F064FF002809D0684600780028D5
:1009D00001D0012803D12070002002B010BD0120F9
:1009E000FBE710B582B004000020694608702000C3
:1009F00001F064FA002838D06846007821788842EF
:100A000033D10421200001F0ADFC00282DD040217D
:100A1000200001F05FFA002827D00021200001F01B
:100A200025FC002821D08248A168096808600021BF
:100A3000200001F023FB002817D00C21200001F03A
:100A4000EDFA002811D00821200001F0B6FD0028A1
:100A50000BD01021200001F0E0FD002805D020215E
:100A6000200001F00AFE002801D1012002E001204F
:100A7000E070002002B010BD0020D045000080BF13
:100A8000F0B581B00400A0680768002668460670CB
:100A90006946200001F012FA002841D0684600782B
:100AA000217888423CD12079002832D0A06805689E
:100AB0006946200001F001FB002831D0684600782B
:100AC00000281ED010281BD0202817D0302813D083
:100AD00040280FD050280BD0602807D0702803D0B2
:100AE00080281BD193480CE093480AE0934808E023
:100AF000934806E04E4804E0924802E0924800E045
:100B0000924828600021200001F0B8FA002807D0A0
:100B1000267100203860E67001B0F0BD8C48286076
:100B20000120F9E701000040010080400100004180
:100B300010B504002079012836D0A068006800684C
:100B4000844902F0E3FA01D2102124E0824902F044
:100B5000DDFA01D220211EE0804902F0D7FA01D24D
:100B6000302118E07E4902F0D1FA01D2402112E092
:100B7000A54902F0CBFA01D250210CE0A34902F0C2
:100B8000C5FA01D2602106E0A14902F0BFFA01D204
:100B9000702100E08021200001F070FA002801D1CE
:100BA000012010BD01202071002010BD30B581B0A2
:100BB00004002079002838D0A06805686946200024
:100BC00001F07BFA00282CD06846007800281ED05F
:100BD00010281BD0202817D0302813D040280FD041
:100BE00050280BD0602807D0702803D0802816D159
:100BF00050480CE050480AE0504808E0504806E0F1
:100C00000B4804E04F4802E04F4800E04F4828609E
:100C10000021200001F032FA002804D101E04C4804
:100C20002860012001E00020207101B030BD0000EB
:100C30000000D04200B581B001F040F9401E804173
:100C4000C00F01B000BD30B581B00400002568467A
:100C500005706946200001F031F9002804D068468B
:100C600000782178884200D00125280001B030BDED
:100C7000F0B583B005000C0001A80021002206C0D9
:100C800001A9280001F02AFA002850D001A84178D3
:100C9000090202788E18C1780902827889186A469A
:100CA00051804179090200790F1800A9491C2800D8
:100CB00001F058FA00283AD068464078022801D15D
:100CC000884D16E06946280001F0C7F900282ED0AB
:100CD0006846007800280BD0042807D0082803D0E5
:100CE0000C2824D1804D04E0804D02E0804D00E0CE
:100CF000804D30B202F022FA290002F03AFA02F0F6
:100D000091FA20600098001402F018FA290002F00D
:100D100030FA02F087FA606038B202F00FFA290068
:100D200002F027FA02F07EFAA060002000E0012025
:100D300003B0F0BD0080CF44004050440000D043D9
:100D400000005043000050420000D04100005041DC
:100D5000000080BF010050410100D041010050421D
:100D60000100D04210B582B00C0069460022002379
:100D70000CC1694601F0B2F9002801D1012010E050
:100D8000684641780902027889182180C1780902F1
:100D90008278891861804179090200790818A08059
:100DA000002002B010BD30B581B004000D0000A9D4
:100DB000491C01F0D7F900280ED068464078022877
:100DC00004D148482860002001B030BD69462000A9
:100DD00001F043F9002801D10120F5E768460078C9
:100DE000002806D0042806D0082806D00C2806D0F3
:100DF00007E04048E6E73E48E4E73C48E2E73A4897
:100E0000E0E784482860E7E7010050430100D04351
:100E10000140504410B582B00C00694601F04DF914
:100E2000002801D1012016E068460078002810D083
:100E3000102812D0202812D0302812D0402812D0EA
:100E4000502812D0602812D0702812D0802812D0DA
:100E500013E02060002002B010BD6F48F9E76F4832
:100E6000F7E76F48F5E76F48F3E76F48F1E76F483A
:100E7000EFE76F48EDE76F48EBE766482060D1E7A2
:100E800000B581B00279012A15D100290CD00229C0
:100E900008D009D3042901D002D30AE0402104E09C
:100EA000302102E0202100E0102101F0E7F80028C5
:100EB00014D1012013E08068006800290CD00229B9
:100EC00008D009D3042901D002D3F2E7554904E040
:100ED000534902E0514900E04F490160002001B050
:100EE00000BD000000008C4000008C4200000C425D
:100EF00000008C4100000C4100B581B002000800E8
:100F000071491379012B30D102F000F901D210217F
:100F100024E06E4902F0FAF801D220211EE06C496B
:100F200002F0F4F801D2302118E06A4902F0EEF83C
:100F300001D2402112E0684902F0E8F801D25021C4
:100F40000CE0664902F0E2F801D2602106E0644953
:100F500002F0DCF801D2702100E08021100001F0E5
:100F60008DF8002822D1012021E09268126802F059
:100F7000CDF817D3554902F0C9F813D3544902F0FC
:100F8000C5F80FD3534902F0C1F80BD3524902F010
:100F9000BDF807D3514902F0B9F803D3504902F024
:100FA000B5F801D2481E00E022481060002001B0D0
:100FB00000BD30B581B005000C00694601F0D2F8E3
:100FC000002806D000A9491C280001F046F8002896
:100FD00001D1012006E068460078022804D141488A
:100FE0002060002001B030BD68464078002806D05F
:100FF000042806D0082806D00C2806D007E0A1480F
:10100000EEE7A148ECE7A148EAE7A148E8E7014894
:101010002060DEE7000080BF000050410000D041AA
:10102000000050420000D042000050430000D04376
:10103000004050440080CF4400B581B0002904D066
:10104000022909D0042909D00AE000F0E7FF401E78
:101050008041C00F01B000BD0421F6E70C21F4E788
:101060000120F7E730B581B004000800A84902F07C
:101070004DF808D20221200001F055F8002821D0B7
:10108000002001B030BDA34902F040F801D2002594
:101090000CE0A14902F03AF801D2042506E09F498C
:1010A00002F034F801D2082500E00C2500212000D0
:1010B00001F039F8002805D02900200000F0AEFF2B
:1010C0000028DDD10120DCE7010050410100D041C2
:1010D000010050420100D042010050430100D043C2
:1010E000014050440000FA4230B581B005000C00C8
:1010F00000A9891C01F080FA00280CD000A9491C25
:10110000280001F0A9FA002805D06946280001F05E
:10111000D3FA002801D1012018E068468078082819
:1011200001D1012000E0002020706846407810289E
:1011300001D1012000E0002060706846007820287E
:1011400001D1012000E00020A070002001B030BDDE
:1011500030B581B004000D002878012801D10821A4
:1011600000E00021200001F028FA00280AD0687869
:10117000012801D1102100E00021200001F04DFAEA
:10118000002801D101200BE0A878012801D12021FD
:1011900000E00021200001F070FA401E8041C00FE5
:1011A00001B030BD00B581B0012300F07EFE401ECD
:1011B0008041C00F01B000BD00B581B06B461A7010
:1011C00001236A4600F068FE401E8041C00F01B056
:1011D00000BD10B582B00C00694601F069FB002823
:1011E0000AD068460078002802D0022804D10120E5
:1011F0002070002002B010BD0120FBE700B581B0D7
:1012000002000800794901F081FF01D2102130E08D
:10121000B94901F07BFF01D220212AE0B74901F052
:1012200075FF01D2302124E0B54901F06FFF01D2F2
:1012300040211EE0B34901F069FF01D2502118E0BE
:10124000B14901F063FF01D2602112E0AF4901F022
:101250005DFF01D270210CE0AD4901F057FF01D2D2
:10126000802106E0AB4901F051FF01D2902100E05E
:10127000A021100000F0A2FE401E8041C00F01B06E
:1012800000BD0000000075430000FA4300007A44EE
:101290000000FA4410B504009F492079012805D1C7
:1012A0002000FFF7ABFF012803D110BDA068006844
:1012B00001600021200000F02CFE00281DD0062136
:1012C000200001F0BBFD002817D00021200001F014
:1012D00074FD002811D00021200001F04FFD0028EE
:1012E0000BD00021200001F028FD002805D00321AB
:1012F000200001F084FD002801D1012010BD102143
:10130000200001F031FE401E8041C00F10BD0000E2
:101310000100FA42010075430100FA4301007A44DA
:1013200010B50400002101F01FFE002805D00021A7
:10133000200001F083FD002801D1012010BD002113
:10134000200001F05CFD401E8041C00F10BD10B5B3
:1013500082B00C00694601F0F0F900280AD0684616
:101360000078002802D0202804D10120207000201D
:1013700002B010BD0120FBE700B581B001F03FFDD8
:10138000401E8041C00F01B000BD10B504008F4960
:101390002079012805D12000FFF730FF012803D173
:1013A00010BDA068006801600021200000F0B1FDC0
:1013B000002811D01721200001F063FE00280BD077
:1013C0000421200001F089F9002805D040212000E7
:1013D00001F0B1FB002801D1012010BD80212000C7
:1013E00000F0A1FF401E8041C00F10BD0100504120
:1013F00010B50400002100F096FF00280BD000215A
:10140000200001F098FB002805D00021200001F009
:1014100064F9002801D1012010BD0021200001F055
:1014200030FE401E8041C00F10BD10B582B00C00D0
:10143000694601F0C3FA00280AD0684600780028FF
:1014400002D0102804D101202070002002B010BD6D
:101450000120FBE700B581B001F0FBFD401E80419B
:10146000C00F01B000BD00B581B0022101F086F8C7
:10147000401E8041C00F01B000BD00B581B0002109
:1014800001F07CF8401E8041C00F01B000BD00B5E6
:1014900081B001F0F6FD401E8041C00F01B000BDDB
:1014A00010B5040049492079012805D12000FFF733
:1014B000A5FE012803D110BDA068006801600021CD
:1014C000200000F026FD00280BD00421200001F0B0
:1014D00004F9002805D02021200001F00DFB002890
:1014E00001D1012010BD0221200001F0E0FC401ECE
:1014F0008041C00F10BD00000100D04101005042EA
:101500000100D042010050430100D043014050444B
:101510000180CF44012050450000D04310B50400A5
:10152000002101F0C4FC002805D00021200001F0BA
:10153000E3FA002801D1012010BD0021200001F0B4
:10154000CCF8401E8041C00F10BD10B582B00C0019
:10155000694601F044FA00280AD06846007800285D
:1015600002D0202804D101202070002002B010BD3C
:101570000120FBE710B504009B492079012805D123
:101580002000FFF73BFE012803D110BDA0680068D2
:1015900001600021200000F0BCFC00280BD00021DD
:1015A000200001F00AFC002805D00221200001F0F3
:1015B00084FB002801D1012010BD2021200001F072
:1015C000F2FC401E8041C00F10BD00000000D04161
:1015D00010B50400002101F0E6FC002805D0002130
:1015E000200001F0EAFB002801D1012010BD0021FC
:1015F000200001F062FB401E8041C00F10BD10B5FD
:1016000082B00C00694601F087F800280AD06846CD
:101610000078002802D0082804D101202070002082
:1016200002B010BD0120FBE700B581B001F045FB21
:10163000401E8041C00F01B000BD10B504006A49D2
:101640002079012805D12000FFF7D8FD012803D11A
:1016500010BDA068006801600021200000F059FC66
:10166000002823D00821200001F027FA00281DD0EF
:101670000421200001F002FA002817D002212000E6
:1016800001F0DDF9002811D00821200001F072FAE4
:1016900000280BD00221200001F0ACFA002805D070
:1016A0000121200001F0C7FA002801D1012010BD5E
:1016B0004021200001F096FC401E8041C00F10BD6B
:1016C00010B50400002101F08DFC00281DD0002180
:1016D000200001F04FFA002817D00021200001F06F
:1016E00089FA002811D00021200001F0A4FA002876
:1016F0000BD00021200001F0A2F9002805D0002124
:10170000200001F0BBF9002801D1012010BD00210B
:10171000200001F0D2F9401E8041C00F10BD10B56D
:1017200082B00C00694601F02AF800280AD0684609
:101730000078002802D0202804D101202070002049
:1017400002B010BD0120FBE710B504002649207946
:10175000012805D12000FFF751FD012803D110BD5C
:10176000A068006801600021200000F0D2FB002882
:101770002FD00821200001F0A0F9002829D0042151
:10178000200001F07BF9002823D00221200001F085
:1017900056F900281DD00821200001F0EBF900289F
:1017A00017D00321200001F025FA002811D00321D1
:1017B000200001F040FA00280BD00821200001F0A1
:1017C0005CFA002805D08021200001F097FA00285B
:1017D00001D1012010BD0821200001F0A6FB401E10
:1017E0008041C00F10BD00000000D04310B50400C0
:1017F000002101F09AFB002829D00021200001F0EF
:10180000B9F9002823D00021200001F0F3F90028C5
:101810001DD00021200001F00EFA002817D0002171
:10182000200001F02AFA002811D00021200001F048
:1018300065FA00280BD00021200001F000F90028F3
:1018400005D00021200001F019F9002801D1012064
:1018500010BD0021200001F030F9401E8041C00F72
:1018600010BD10B582B00C00694600F077FF00286B
:101870000AD068460078002802D0102804D1012040
:101880002070002002B010BD0120FBE700B581B040
:1018900001F070F9401E8041C00F01B000BD00B5DD
:1018A00081B001F0A7F9401E8041C00F01B000BD1A
:1018B00000B581B001F0BFF9401E8041C00F01B0FA
:1018C00000BD00B581B001F0D8F9401E8041C00FC5
:1018D00001B000BD10B5040084492079012805D16C
:1018E0002000FFF78BFC012803D110BDA068006821
:1018F00001600021200000F00CFB002805D04021F1
:10190000200001F058F9002801D1012010BD042168
:10191000200001F0EBFA401E8041C00F10BD10B551
:101920000400002101F0E2FA002801D1012010BDDD
:101930000021200001F03FF9401E8041C00F10BD82
:1019400010B582B00C00694600F090FF00280AD064
:1019500068460078002802D0402804D10120207079
:10196000002002B010BD0120FBE710B582B00C00D2
:10197000694600F015FF002809D068460078002865
:1019800001D0012803D12070002002B010BD012039
:10199000FBE710B582B00C00694600F012FF00288A
:1019A0000AD068460078002802D0022804D101201D
:1019B0002070002002B010BD0120FBE710B582B0FE
:1019C0000C00694600F00EFF00280AD06846007837
:1019D000002802D0042804D101202070002002B089
:1019E00010BD0120FBE710B582B00C00694600F085
:1019F0000AFF00280AD068460078002802D008288C
:101A000004D101202070002002B010BD0120FBE7AE
:101A100010B582B00C00694600F006FF00280AD01D
:101A200068460078002802D0102804D101202070D8
:101A3000002002B010BD0120FBE710B582B00C0001
:101A4000694600F002FF00280AD0684600780028A6
:101A500002D0202804D101202070002002B010BD47
:101A60000120FBE700B581B002000800A04901F0A9
:101A70004DFB01D2082130E09E4901F047FB01D225
:101A800010212AE09C4901F041FB01D2182124E0F9
:101A90009A4901F03BFB01D220211EE0984901F058
:101AA00035FB01D2282118E0964901F02FFB01D225
:101AB000302112E0944901F029FB01D238210CE0D9
:101AC000924901F023FB01D2402106E0904901F048
:101AD0001DFB01D2482100E05021100000F0E5FB81
:101AE000401E8041C00F01B000BD00000000D04387
:101AF00010B582B00C00694600F01DFF00280CD024
:101B000068460078002802D0202804D005E0207024
:101B1000002002B010BD0120F9E70120F9E710B55F
:101B200082B00C00694600F0F5FE00280CD0684633
:101B30000078002802D0102804D005E02070002092
:101B400002B010BD0120F9E70120F9E710B582B01D
:101B50000C00694600F000FF00280CD068460078B1
:101B6000002802D0402804D005E02070002002B0F8
:101B700010BD0120F9E70120F9E700B581B000F0C0
:101B8000FCFE401E8041C00F01B000BD00B581B019
:101B900001F047FA401E8041C00F01B000BD00B502
:101BA00081B000F096FE401E8041C00F01B000BD24
:101BB00000B581B0072905D800F018FB401E804110
:101BC000C00F00E0012001B000BD00B581B00A00E7
:101BD0000DD008290BD0102909D0182907D02029A9
:101BE00005D0282903D0302901D0382905D100F0AB
:101BF0001DFB401E8041C00F00E0012001B000BD70
:101C000070B582B004000E0000A9891C01F009FA29
:101C1000002828D000A8801C41780D0200780543D8
:101C20006946200000F094F900281CD0684600782E
:101C300000280CD0042804D0082806D00C2802D094
:101C400011E0344C04E0344C02E0344C00E0344CFD
:101C500028B201F073FA210001F08BFA01F0E2FAE8
:101C60003060002000E0012002B070BD70B582B08D
:101C700004000E0000A9891C01F0D3F9002834D01B
:101C800000A8801C41780D020078054300A9491C7A
:101C9000200000F067FA002827D068464078022824
:101CA00001D1204C16E06946200000F0D6F900284A
:101CB0001BD06846007800280BD0042807D00828DD
:101CC00003D00C2811D1184C04E0184C02E0184C39
:101CD00000E0184C28B201F031FA210001F049FA75
:101CE00001F0A0FA3060002000E0012002B070BDD9
:101CF000010020410100C841010048420100C842E2
:101D0000010048430100C843010048440100C844A1
:101D100001404E4523DBF93E23DB793E23DBF93DD1
:101D200023DB793D00008C4000008C4200000C4217
:101D300000008C4100000C4100B581B0012904D99C
:101D4000CA1E012A01D9D21E05D100F08FFA401E09
:101D50008041C00F00E0012001B000BD00B581B09E
:101D60000A0001D0202905D100F0BEFA401E8041B2
:101D7000C00F00E0012001B000BD00B581B000F04F
:101D800002FA401E8041C00F01B000BD00B581B015
:101D9000012905D800F005FB401E8041C00F00E07E
:101DA000012001B000BD00B581B0012905D800F0C7
:101DB00027FE401E8041C00F00E0012001B000BDA1
:101DC00000B581B0032905D800F00AFB401E804110
:101DD000C00F00E0012001B000BD00B581B00129B5
:101DE00005D800F00DFE401E8041C00F00E001202C
:101DF00001B000BD00B581B00A0005D0042903D0B0
:101E0000082901D00C2905D100F009FB401E8041B2
:101E1000C00F00E0012001B000BDF8B40168421815
:101E200043685908511800918168DB0701D54B467A
:101E3000C918009B9A4202D10C30F2BC704713784B
:101E4000521C032403261E4002D11678F61C521C95
:101E50001D090F2D07D115780F35521C03E0177897
:101E6000521C0F70491C761EF9D1002DE1D0167856
:101E7000521C9B081C40032C01D11478521C2302D5
:101E8000F3185C420B19AD1CD3D01C785B1C0C7092
:101E9000491C6D1ECDD0F8E700B581B001F08AFA7B
:101EA000401E8041C00F01B000BD00B581B001F0FF
:101EB00099FA401E8041C00F01B000BD00B581B04D
:101EC00001230A000F2101F08DFA401E8041C00F4E
:101ED00001B000BD30B581B005000C0001236A4699
:101EE000122101F07FFA002801D000200FE068469F
:101EF0000078BF2101400C436846047001236A4604
:101F00001221280001F056FA401E8041C00F01B096
:101F100030BD30B581B005000C0001236A461021A8
:101F200001F060FA002801D000200FE06846007838
:101F3000F32101400C436846047001236A461021D6
:101F4000280001F037FA401E8041C00F01B030BDBB
:101F500010B50C0001232200102101F043FA0028E3
:101F600001D0002010BD20780C21014021700120FB
:101F700010BDF0B581B007000E0000240325012339
:101F8000E4B2321921002831C9B2380001F02AFA2E
:101F900000280BD1641C0123E4B23219210028313E
:101FA000C9B2380001F01EFA002801D0002003E079
:101FB000641C6D1EE3D1012001B0F0BD30B581B0CD
:101FC00005000C0001236A46102101F00BFA0028DD
:101FD00001D000200FE0684600780007000F04439E
:101FE0006846047001236A461021280001F0E2F9D6
:101FF000401E8041C00F01B030BD10B50C00012360
:102000002200102101F0EEF9002801D0002010BDBF
:102010002078F02101402170012010BD30B581B041
:1020200005000C0001236A46112101F0DBF90028AC
:1020300001D000200FE068460078F32101400C43F6
:102040006846047001236A461121280001F0B2F9A4
:10205000401E8041C00F01B030BD10B50C000123FF
:102060002200112101F0BEF9002801D0002010BD8E
:1020700020780C2101402170012010BD30B581B0C5
:1020800005000C0001236A46112101F0ABF900287C
:1020900001D000200FE0684600780007000F0443DD
:1020A0006846047001236A461121280001F082F974
:1020B000401E8041C00F01B030BD10B50C0001239F
:1020C0002200112101F08EF9002801D0002010BD5E
:1020D0002078F02101402170012010BDF0B581B0C1
:1020E00007000E00002403250123E4B23219210069
:1020F0002231C9B2380001F075F900280BD1641CF7
:102100000123E4B2321921002231C9B2380001F0B2
:1021100069F9002801D0002003E0641C6D1EE3D1A2
:10212000012001B0F0BD30B581B005000C000123E5
:102130006A46112101F056F9002801D000200FE075
:1021400068460078FD2101400C4368460470012375
:102150006A461121280001F02DF9401E8041C00F70
:1021600001B030BD10B50C0001232200112101F097
:1021700039F9002801D0002010BD20780221084044
:102180002070012010BD70B582B005000C0026053E
:1021900001236A46062101F025F9002811D168467D
:1021A000047001236A460621280001F003F9002883
:1021B00007D101236A460721280001F013F90028FE
:1021C00001D0002010E068460078F0210140300F77
:1021D00008436946087001236A460721280001F078
:1021E000E9F8401E8041C00F02B070BD30B581B02B
:1021F00005000C0001236A46082101F0F3F80028CD
:1022000001D000200FE068460078F82101400C431F
:102210006846047001236A460821280001F0CAF8C4
:10222000401E8041C00F01B030BD000030B581B00C
:1022300005000C0001236A46082101F0D3F80028AC
:1022400001D000200FE068460078C72101400C4310
:102250006846047001236A460821280001F0AAF8A4
:10226000401E8041C00F01B030BD000030B581B0CC
:1022700005000C0001236A460A2101F0B3F800288A
:1022800001D000200FE068460078F82101400C439F
:102290006846047001236A460A21280001F08AF882
:1022A000401E8041C00F01B030BD30B581B0050087
:1022B0000C0001236A460A2101F094F8002801D09D
:1022C00000200FE068460078872101400C436846F3
:1022D000047001236A460A21280001F06BF8401EB1
:1022E0008041C00F01B030BD30B581B005000C0099
:1022F00001236A460D2101F075F8002801D0002065
:102300000FE068460078DF2101400C436846047006
:1023100001236A460D21280001F04CF8401E80413F
:10232000C00F01B030BD30B581B005000C000123F5
:102330006A460D2101F056F8002801D000200FE078
:10234000684600784006400E044368460470012346
:102350006A460D21280001F02DF8401E8041C00F73
:1023600001B030BD30B581B005000C0001236A46D4
:10237000122101F037F8002801D000200FE0684654
:102380000078FB2101400C436846047001236A4633
:102390001221280001F00EF8401E8041C00F01B04C
:1023A00030BD30B581B005000C0001236A46132111
:1023B00001F018F8002801D000200FE068460078EE
:1023C000FE2101400C436846047001236A46132134
:1023D000280000F0EFFF401E8041C00F01B030BD6B
:1023E00030B581B005000C0001236A46142100F0CD
:1023F000F9FF002801D000200FE068460078FC219A
:1024000001400C436846047001236A4614212800E9
:1024100000F0D0FF401E8041C00F01B030BD30B58C
:1024200081B005000C0001236A46142100F0DAFF98
:10243000002801D000200FE068460078F321014019
:102440000C436846047001236A461421280000F0FA
:10245000B1FF401E8041C00F01B030BD30B581B02A
:1024600005000C0001236A46182100F0BBFF00287C
:1024700001D000200FE068460078F72101400C43AE
:102480006846047001236A461821280000F092FF74
:10249000401E8041C00F01B030BD10B50C000123BB
:1024A0002200182100F09EFF002801D0002010BD5E
:1024B0002078082108402070012010BD30B581B07F
:1024C00005000C0001236A46182100F08BFF00284C
:1024D00001D000200FE068460078EF2101400C4356
:1024E0006846047001236A461821280000F062FF44
:1024F000401E8041C00F01B030BD10B50C0001235B
:102500002200182100F06EFF002801D0002010BD2D
:102510002078102108402070012010BD30B581B016
:1025200005000C0001236A46182100F05BFF00281B
:1025300001D000200FE068460078DF2101400C4305
:102540006846047001236A461821280000F032FF13
:10255000401E8041C00F01B030BD10B50C000123FA
:102560002200182100F03EFF002801D0002010BDFD
:102570002078202108402070012010BD30B581B0A6
:1025800005000C0001236A46192100F02BFF0028EA
:1025900001D000200FE068460078FD2101400C4387
:1025A0006846047001236A461921280000F002FFE2
:1025B000401E8041C00F01B030BD30B581B0050074
:1025C0000C0001236A46192100F00CFF002801D0FD
:1025D00000200FE068460078F72101400C43684670
:1025E000047001236A461921280000F0E3FE401E12
:1025F0008041C00F01B030BD10B50C000123220096
:10260000192100F0EFFE002801D0002010BD207835
:10261000082108402070012010BD30B581B00500B0
:102620000C0001236A46192100F0DCFE002801D0CD
:1026300000200FE068460078EF2101400C43684617
:10264000047001236A461921280000F0B3FE401EE1
:102650008041C00F01B030BD10B50C000123220035
:10266000192100F0BFFE002801D0002010BD207805
:10267000102108402070012010BD30B581B0050048
:102680000C0001236A46192100F0ACFE002801D09D
:1026900000200FE068460078DF2101400C436846C7
:1026A000047001236A461921280000F083FE401EB1
:1026B0008041C00F01B030BD10B50C0001232200D5
:1026C000192100F08FFE002801D0002010BD2078D5
:1026D000202108402070012010BD30B581B00500D8
:1026E0000C0001236A46192100F07CFE002801D06D
:1026F00000200FE068460078FB2101400C4368464B
:10270000047001236A461921280000F053FE401E80
:102710008041C00F01B030BD10B50C000123220074
:102720001B2100F05FFE002801D0002010BD2078A2
:10273000082108402070012010BD10B50C000123B5
:1027400022001B2100F04EFE002801D0002010BD09
:102750002078202108402070012010BD10B50C0009
:10276000012322001C2100F03DFE002801D00020A2
:1027700010BD2078102108402070012010BD10B538
:102780000C00012322001C2100F02CFE002801D0A7
:10279000002010BD2078202108402070012010BDAD
:1027A00010B50C00012322001D2100F01BFE0028A3
:1027B00001D0002010BD2078C107C90F2170012071
:1027C00010BD10B50C00012322001D2100F00AFEEF
:1027D000002801D0002010BD207802210840207080
:1027E000012010BD10B50C00012322001D2100F0B6
:1027F000F9FD002801D0002010BD207804210840F8
:102800002070012010BD10B50C00012322001D21F5
:1028100000F0E8FD002801D0002010BD207808213C
:1028200008402070012010BD10B50C0001232200CB
:102830001D2100F0D7FD002801D0002010BD207818
:10284000102108402070012010BD10B50C0001239C
:1028500022001D2100F0C6FD002801D0002010BD7F
:102860002078202108402070012010BD10B50C00F8
:10287000012322001D2100F0B5FD002801D0002019
:1028800010BD2078402108402070012010BD10B5F7
:102890000C00012322001E2100F0A4FD002801D01D
:1028A000002010BD2078C107C90F2170012010BD84
:1028B00010B50C00012322001E2100F093FD00281A
:1028C00001D0002010BD2078022108402070012096
:1028D00010BD30B581B004000D0001236A463A21D5
:1028E00000F080FD002808D1012300AA521C3B21E2
:1028F000200000F077FD002801D0002008E06846A5
:1029000040780007000D69460978084328800120B7
:1029100001B030BD10B50C00012322003B2100F0B6
:1029200061FD002801D0002010BD20781021084052
:102930002070012010BD10B50C00012322003B21A6
:1029400000F050FD002801D0002010BD207820218B
:1029500008402070012010BD10B50C00012322009A
:102960003B2100F03FFD002801D0002010BD207861
:10297000402108402070012010BD30B581B0040016
:102980000D0001236A463C2100F02CFD002808D1EF
:10299000012300AA521C3D21200000F023FD002845
:1029A00001D0002008E0684640788007800D694625
:1029B000097808432880012001B030BD10B50C0013
:1029C00001232200532100F00DFD002801D000203A
:1029D00010BD2078102108402070012010BD10B5D6
:1029E0000C0001232200532100F0FCFC002801D040
:1029F000002010BD2078202108402070012010BD4B
:102A000030B581B005000C0001236A46582100F062
:102A1000E9FC002801D000200FE068460078FE2184
:102A200001400C436846047001236A46582128007F
:102A300000F0C0FC401E8041C00F01B030BD30B579
:102A400081B005000C0001236A46582100F0CAFC41
:102A5000002801D000200FE068460078FD210140E9
:102A60000C436846047001236A465821280000F090
:102A7000A1FC401E8041C00F01B030BD30B581B017
:102A800005000C0001236A46582100F0ABFC002829
:102A900001D000200FE068460078FB2101400C4384
:102AA0006846047001236A465821280000F082FC21
:102AB000401E8041C00F01B030BD30B581B005006F
:102AC0000C0001236A46582100F08CFC002801D03C
:102AD00000200FE068460078F72101400C4368466B
:102AE000047001236A465821280000F063FC401E50
:102AF0008041C00F01B030BD30B581B005000C0081
:102B000001236A46582100F06DFC002801D0002006
:102B10000FE068460078DF2101400C4368460470EE
:102B200001236A465821280000F044FC401E8041E1
:102B3000C00F01B030BD30B581B005000C000123DD
:102B40006A46582100F04EFC002801D000200FE01A
:102B500068460078BF2101400C4368460470012399
:102B60006A465821280000F025FC401E8041C00F15
:102B700001B030BD30B581B005000C0001236A46BC
:102B8000592100F02FFC002801D0002011E06846F8
:102B90000078E0210140E006C00E08436946087055
:102BA00001236A465921280000F004FC401E8041A0
:102BB000C00F01B030BD30B581B005000C0001235D
:102BC0006A46592100F00EFC002801D000200FE0D9
:102BD000684600789F2101400C4368460470012339
:102BE0006A465921280000F0E5FB401E8041C00FD5
:102BF00001B030BD30B581B005000C0001236A463C
:102C00005A2100F0EFFB002801D0002011E06846B7
:102C10000078FC210140A007800F08436946087036
:102C200001236A465A21280000F0C4FB401E80415F
:102C3000C00F01B030BD30B581B005000C000123DC
:102C40006A465A2100F0CEFB002801D0002012E095
:102C500068460078F3210140A0000C2202400A439C
:102C60006846027001236A465A21280000F0A2FB40
:102C7000401E8041C00F01B030BD30B581B00500AD
:102C80000C0001236A465A2100F0ACFB002801D059
:102C9000002010E0684600780007000F2101014382
:102CA0006846017001236A465A21280000F082FB21
:102CB000401E8041C00F01B030BD30B581B005006D
:102CC0000C0001236A465B2100F08CFB002801D038
:102CD000002011E068460078C0210140A006800E67
:102CE00008436946087001236A465B21280000F00A
:102CF00061FB401E8041C00F01B030BD30B581B0D6
:102D000005000C0001236A465B2100F06BFB0028E4
:102D100001D000200FE0684600784006400E0443D2
:102D20006846047001236A465B21280000F042FBDC
:102D3000401E8041C00F01B030BD30B581B00500EC
:102D40000C0001236A465C2100F04CFB002801D0F6
:102D5000002011E068460078F02101402007000FB4
:102D600008436946087001236A465C21280000F088
:102D700021FB401E8041C00F01B030BD30B581B095
:102D800005000C0001236A465C2100F02BFB0028A3
:102D900001D000200FE068460078EF2101400C438D
:102DA0006846047001236A465C21280000F002FB9B
:102DB000401E8041C00F01B030BD30B581B005006C
:102DC0000C0001236A465C2100F00CFB002801D0B6
:102DD000002012E0684600789F21014060016022D7
:102DE00002400A436846027001236A465C212800BB
:102DF00000F0E0FA401E8041C00F01B030BD30B598
:102E000081B005000C0001236A465D2100F0EAFA5A
:102E1000002801D000200FE068460078F82101402A
:102E20000C436846047001236A465D21280000F0C7
:102E3000C1FA401E8041C00F01B030BD70B582B0F4
:102E400005000C00660901236A465D2100F0CAFAFC
:102E5000002817D1684600784007400FE100014381
:102E60006846017001236A465D21280000F0A2FA3D
:102E7000002807D101236A465C21280000F0B2FA3D
:102E8000002801D0002010E0684600784006400E7F
:102E9000F10101436846017001236A465C21280064
:102EA00000F088FA401E8041C00F02B070BD30B5FE
:102EB00081B005000C0001236A465E2100F092FA01
:102EC000002801D000200FE068460078FD21014075
:102ED0000C436846047001236A465E21280000F016
:102EE00069FA401E8041C00F01B030BD30B581B0DD
:102EF00005000C0001236A465E2100F073FA0028E9
:102F000001D000200FE068460078FB2101400C430F
:102F10006846047001236A465E21280000F04AFAE0
:102F2000401E8041C00F01B030BD30B581B00500FA
:102F30000C0001236A465E2100F054FA002801D0FB
:102F400000200FE068460078F72101400C436846F6
:102F5000047001236A465E21280000F02BFA401E0F
:102F60008041C00F01B030BD30B581B005000C000C
:102F700001236A465E2100F035FA002801D00020C6
:102F80000FE068460078EF2101400C43684604706A
:102F900001236A465E21280000F00CFA401E8041A1
:102FA000C00F01B030BD30B581B005000C00012369
:102FB0006A465E2100F016FA002801D000200FE0DA
:102FC00068460078DF2101400C4368460470012305
:102FD0006A465E21280000F0EDF9401E8041C00FD6
:102FE00001B030BD30B581B005000C0001236A4648
:102FF0005E2100F0F7F9002801D000200FE06846BC
:103000000078BF2101400C436846047001236A46E2
:103010005E21280000F0CEF9401E8041C00F01B0B3
:1030200030BD30B581B005000C00012322003E21E7
:1030300000F0D8F9002807D10123621C3F212800A5
:1030400000F0D0F9002801D0002000E0012001B0FC
:1030500030BD30B581B005000C00012322004B21AA
:1030600000F0C0F9002807D10123621C4C21280080
:1030700000F0B8F9002801D0002000E0012001B0E4
:1030800030BD30B581B005000C0001236A46012136
:1030900000F0A8F900280BD1684600788021014390
:1030A0006846017001236A460121280000F082F978
:1030B000012300AA521C0F21280000F093F9684652
:1030C0004078E0210140E006C00E084369464870A0
:1030D000012300AA521C0F21280000F06BF90123E4
:1030E0006A460121280000F07DF900280BD16846CE
:1030F00000784006400E6946087001236A460121A7
:10310000280000F057F9012001B030BD0CB40122B5
:1031100012060318DA4207D84B18DA4204D8020024
:103120000A43921802D288420CBC7047FCD08142FC
:10313000FAE70268531C0360117070479D2102007A
:103140000AD5F446524200F007F80122D207104394
:10315000604700009D2102000AD002D4491E921847
:10316000FCD5C905100A1206524100D3012A484174
:10317000704730B405004D400122D20715404B186E
:103180000418240E2ED01B0E32D0FF2C34D0FF2B6F
:103190003AD0E4180002090210431143000A090A58
:1031A0009446C2B24A43000AC3B24B43000A4843A2
:1031B000110A5B181A43D2B2190A091801D4491826
:1031C000641E080A7F3C23DBFE2C08DAE4050906AE
:1031D0001143634699416041284330BC7047FF204A
:1031E000C005F9E728001B0EFF2BF6D1D043F4E70A
:1031F0002800FF2CF1D1F9E74002F7D1FF2B01D1D4
:103200004902F3D1E005E7E7D8054902E4D0EDE74C
:1032100043020020641CDFD15B129B1CDCD9D80563
:10322000DAE7FEE70122D2070118090E7F3910D430
:1032300049421F310FD4001805D2C0011043C840C5
:1032400000D5D0437047C0011043C84005D4404268
:103250007047002070470042F3D510007047FEE72A
:1032600030B587B08F4C200000F06CFC002835D1C1
:103270008D4860603320A0600120E0608B482060B2
:103280008B4D0220696801436960696801400091C3
:103290000099C0218900019112210291049000201F
:1032A00003900420059001A9824800F09FFC802033
:1032B0008003296901432961296808432860286837
:1032C0007D490140296000220021172000F08AFD7D
:1032D000172000F0A2FD200000F0F4F8200000F01C
:1032E00031FC012801D1002000E0012007B030BDF1
:1032F00000207047F0B58BB0012570480068284366
:103300006E490860086828400090009810200690D8
:103310006B4F0797022409940026089606A9A0205F
:10332000C00500F063FC00220021072000F05AFDD8
:10333000072000F072FD6148006820435F49086083
:103340000868204000900098019502970494039625
:1033500001A9584800F04AFC00220021052000F095
:1033600041FD052000F059FD00200BB0F0BD00B577
:1033700087B0012051490A6802430A600968084081
:1033800000900098102001904D4802900220049077
:103390000020039001A9A020C00500F027FC002216
:1033A0000021072000F01EFD072000F036FD002060
:1033B00007B000BD30B583B03A4C80256D01029551
:1033C0000193009201230A004178200000F0E6F802
:1033D000002805D0200000F0C5F800F01BF80120FF
:1033E00003B030BD30B583B02E4C80256D01029501
:1033F0000193009201230A004178200000F036FA80
:10340000002805D0200000F0ADF800F003F80120FE
:1034100003B030BD30B587B0224C200000F092FBE5
:10342000002835D1204860603320A0600120E06092
:103430001E4820601E4D022069680143696069686A
:10344000014000910099C02189000191122102914F
:103450000490002003900420059001A9154800F075
:10346000C5FB80208003296901432961296808433D
:103470002860286810490140296000220021172097
:1034800000F0B0FC172000F0C8FC200000F01AF893
:10349000200000F057FB012801D1002000E00120AE
:1034A00007B030BD941C00202E11B1000054004024
:1034B0002810024000040050FFFFDFFF2C100240E4
:1034C0000000111030B581B0040001D1012047E0A7
:1034D000250034356878002803D12870200000F0DA
:1034E00083FB02206870206801680122914301601B
:1034F0006068274901402068016120688168254A89
:103500000A408260A068002809D0E168012901D141
:10351000802100E084210902014320688160E06885
:10352000022803D18020000121684860206841689A
:10353000194A0A434260206961690143A069000297
:1035400008432168C860E069216A0143206801607E
:103550002068012102680A430260002068606970E7
:1035600001B030BD10B5002801D1012010BD04000C
:1035700034340221617001680A6801239A430A60A9
:1035800000F072FC002060606070207010BD0000D0
:10359000FFFFFFF0FF7FFFFF00800002FDB584B05A
:1035A000343000904078012800D056E10C98002873
:1035B00003D06846808E002801D101204EE1049896
:1035C00000688269120400D547E1009A1278012A46
:1035D00000D142E10127009B1F705222009B5A70CC
:1035E0000022009B5A608905890D019141689C4A1F
:1035F0000A40019911436A46128B1206120A0A43C5
:1036000098491143416000F031FC05000024E44377
:103610000E9E049800688169890723D431000498BC
:1036200000F093FA002813D1A642F2D0002E04D065
:1036300000F01CFC401B8642EBD200984068202121
:10364000014300984160009847700020009908707D
:103650000098406800984068042859D100200099DB
:103660000870E9E06946098B012926D06946898AF4
:10367000090A816200F0FAFB05000498006880697D
:1036800080071AD43100049800F05FFA0028DFD1D7
:10369000A642F2D0002E04D000F0E8FB401B864288
:1036A000EBD20098406820210143009841600098C7
:1036B0004770002000990870CAE76846808AC0B247
:1036C00004990968886200F0D1FB0500049800683D
:1036D000816909060ED4A642F8D0002E04D000F06D
:1036E000C5FB401B8642F1D200984770002000992C
:1036F0000870AFE76946898EFF2941680CDD584A9A
:103700000A4001991143584A0A434260FF2511E0DB
:103710000020009908709EE0514A0A400199114327
:103720006A46928E1206120A0A43790611434160D4
:103730006846858E00F09AFB0290049800688169C3
:1037400089071FD43100049800F0FFF9002814D134
:10375000A642F2D0002E05D000F088FB0299401A54
:103760008642EAD2009840682021014300984160D7
:10377000009847700020009908700098406804285D
:1037800069D159E00C99097881620C98401C0C9021
:103790006D1E6846808E401E69468886002D6846EC
:1037A000808E25D1002825D000F060FB050004980C
:1037B0000068816909060ED4A642F8D0002E04D014
:1037C00000F054FB401B8642F1D200984770002065
:1037D000009908703FE06946898EFF2941689BDDAA
:1037E000019A1F4B0B4013431F49194341608DE75A
:1037F00000289FD100F03AFB0500202404980068BF
:10380000816921401AD11921049800F09EF90028FD
:103810000ED100F02BFB401B1A28EFD30098406814
:103820000443009844600098477000200099087095
:103830000098406804280ED101200FE0C46104986C
:1038400000684168BA4A0A40426000984770002008
:103850000099087002E0032000E0022007B0F0BDEC
:10386000009800FC002000010000FF01FDB584B0BD
:10387000343000904078012800D055E10C980028A1
:1038800003D06846808E002801D101204DE10498C4
:1038900000688269120400D546E1009A1278012A74
:1038A00000D141E10127009B1F706222009B5A70EA
:1038B0000022009B5A608905890D029141689D4A4A
:1038C0000A40029911436A46128B1206120A0A43F1
:1038D00079031143416000F0C9FA06000025ED4369
:1038E0000E9C049800688169890723D421000498FC
:1038F00000F02BF9002813D1AC42F2D0002C04D0F8
:1039000000F0B4FA801B8442EBD20098406820217A
:1039100001430098416000984770002000990870AA
:10392000009840680098406804285BD10020009906
:103930000870E8E06946098B012926D06946898A22
:10394000090A816200F092FA060004980068806912
:1039500080071AD42100049800F0F7F80028DFD17E
:10396000AC42F2D0002C04D000F080FA801B8442DC
:10397000EBD20098406820210143009841600098F4
:103980004770002000990870CAE76846808AC0B274
:1039900004990968886200F069FA01904026049849
:1039A0000068816931400FD1AC42F8D0002C05D0BD
:1039B00000F05CFA0199401A8442F0D200984770F6
:1039C000002000990870ADE76946898EFF2941689B
:1039D0000CDD584A0A4002991143574A0A43426093
:1039E000FF261CE00020009908709BE0514A0A4025
:1039F000029911436A46928E1206120A0A434F49EF
:103A000009E04C4A0A40029911436A46928E120616
:103A1000120A0A43B104114341606846868E00F0E1
:103A200025FA019004980068816949070FD4AC42D7
:103A3000F8D0002C05D000F019FA0199401A844200
:103A4000F0D2009847700020009908706AE0406A40
:103A50000C9908700C98401C0C90761E6846808E5D
:103A6000401E69468886002E6846808E27D1002831
:103A700027D000F0FBF90190802604980068816946
:103A800031400FD1AC42F8D0002C05D000F0EEF957
:103A90000199401A8442F0D20098477000200099A2
:103AA00008703FE06946898EFF294168A9DD029AC6
:103AB000204B0B40134322491943416090E70028F3
:103AC000ADD100F0D3F90500202404980068816985
:103AD00021401AD11921049800F037F800280ED19E
:103AE00000F0C4F9401B1A28EFD300984068044343
:103AF0000098446000984770002000990870009872
:103B0000406804280ED101200FE0C46104980068C9
:103B10004168074A0A4042600098477000200099B7
:103B2000087002E0032000E0022007B0F0BD0000B2
:103B300000E800FE009800FC0024FF0100240002C1
:103B40000000FF013521405C7047F0B581B00400F2
:103B50000F0000F08BF90090206810258169294042
:103B60003DD0260034367178122905D0717852295B
:103B700002D07178622906D14168890103D4416875
:103B8000AA020A4342602068202182690A4011D1BA
:103B90000020C0438742F6D0002F05D000F066F920
:103BA0000099401A8742EED20120707000203070D8
:103BB000032015E0C5612068C161216801208A6980
:103BC000024000D1C86121684A68064B13404B602F
:103BD00004217160707000203070012000E000202E
:103BE00001B0F0BD00E800FE7047FEE7F0B484B01D
:103BF0000022032301240D68002D00D1C9E00D68C7
:103C0000012696402E400296029D002D00D1BBE079
:103C10004D68022D01D0122D16D1D508AD004519E1
:103C200000952D6A03959600AC460F251C2737405A
:103C3000BD406746AF430D69AC461C25354066461E
:103C4000AE403E43009D2E624D68012D05D0022DF1
:103C500003D0112D01D0122D18D1866855006F4662
:103C60003D716D462F790325BD40AE43CD686F464B
:103C70003F79BD4035438560466801259540AE4398
:103C80004D682D092540954035434560066855002F
:103C90006F463D716D462F790325BD40ED432E40A3
:103CA000B4464F681F406E463679B7406646374384
:103CB0000760C66835408E686F463F79BE402E4328
:103CC000C6604D68ED005FD53E4D2D6825433D4EE5
:103CD00035603D4D9608B600AD1900952F689600E9
:103CE0000C2535400F26AE40B7433E00A027FF0508
:103CF000B84201D1002714E0344FB84201D1012766
:103D00000FE0334FB84201D102270AE0314FB842E9
:103D100001D1032705E0304FB84201D1052700E06B
:103D20000627AF403743009D2F602C4D2D68029F22
:103D3000FE4300962E404D68ED0302D53500029EED
:103D40002E43264D2E606E68009D35404E68B603AA
:103D500002D52E00029D3543204E7560B668009D49
:103D600035404E68F60202D52E00029D35431B4EAB
:103D7000B560F668009D35404E68B60202D52E004B
:103D8000029D3543154EF560521C0D68D54000D09C
:103D900035E704B0F0BC7047002A01D0816170475C
:103DA0008162704742694A40426170470C4A136819
:103DB000034000D1704700B581B0106000F0DEFB19
:103DC00001B000BD34100240080001400004005062
:103DD00000080050000C0050001C0050000401407E
:103DE0001404014010B4C20018231340FF249C4067
:103DF000E2438907090E9940002804D5154B0007B6
:103E0000000F083800E0144B800880001818036881
:103E10001A401143016010BC70470121C006C00E5A
:103E200081400E4801607047401E8021490488424D
:103E300001D3012070470A4948600A48026812020B
:103E4000120AC0231B061343036000208860072268
:103E50000A6070471CED00E000E400E000E100E0D3
:103E600010E000E020ED00E07047FEE70148006848
:103E7000704700BF341D0020F0B5CFB000F0FEFB4E
:103E800000F014FC002000F089FC002000F0AAFCE7
:103E90000121002000F0C2FC00F0B2FD0C200090D7
:103EA00000200A9080204000029000200590684683
:103EB00000F012FE002804D00120982149000A00D9
:103EC00001E0FF21FF220A4C21617F21E1600949C5
:103ED0000860E264084860604020A06000206061E3
:103EE000E0612062201D01F069F9002806D0FEE79C
:103EF00088180020381D0020002800406846142142
:103F0000C1700221417018218170022101700122CB
:103F10006946201D01F0B6FA002800D0FEE701A88E
:103F20000821017010214170002141800491059108
:103F3000012201A9201D01F0A5F9002800D0FEE70B
:103F40000025ED4321006C31280001F081FB2100A8
:103F50007031280001F0B2FC21007431002001F022
:103F6000E1FD21007831002001F0AAFE21007C3122
:103F7000002001F069FF20008030029001462800F7
:103F800002F082F9270084370EAD1DE000F02AFC14
:103F9000B3480078002810D0607800280DD00EA813
:103FA00002F028FBA0783721685434200E900EA828
:103FB00000F012FD00206070A0702078002803D06F
:103FC000FA20400002F0C6FB0EA800F08BFC00288F
:103FD0000BD02879322808D10EA802F015FBA04892
:103FE0000078002801D000202070606D216D88428B
:103FF00038D0206D606502980068216DC90702D530
:1040000002F06CFA01E002F079FAA06F216D490725
:1040100002D501F095FE01E001F0A2FEE06F216DF6
:10402000890702D502F0ACF801E002F0B9F8E06EC1
:10403000216DC90602D501F0ADFB01E001F0BAFB2C
:10404000206F216D890602D501F0D8FC01E001F056
:10405000E5FC606F216D490602D501F09DFD01E090
:1040600001F0AAFD00207E490978002902D12178BB
:10407000002911D0002204A9201D01F0CFF900224F
:1040800003A9201D01F0AFFAE16C0598081A64221B
:104090005043491C02F081FB7149097800290AD07C
:1040A0006946097CE97104A94978297204A98978CB
:1040B0006972A87218E02178002915D0C0B2019069
:1040C00004A88078009004A843786846027C884958
:1040D000380002F0BDFB380002F0D6FB9F4B82B2E5
:1040E0003900844802F00BFC206DC00764D5002025
:1040F00069460880491C0298006802F00FFA0028FF
:104100005AD168464078012856D16946029800681D
:1041100002F058FA6846007800284DD06078401CBC
:104120006070A07808210143A170210058310298E5
:10413000006802F007FAA66D3000FFF773F80190EF
:10414000FEF7FCFF02003000002102F0DBFE01D888
:10415000110001E01000310002F020FF02F076FFB4
:1041600000227F4B02F08BFF03F04BF803F052F874
:1041700006003B48007800280CD002220199280054
:104180000B3003F0F8F80222310028000D3003F064
:10419000F2F811E0207800280ED03300019A564939
:1041A000380002F055FB380002F06EFB6B4B82B218
:1041B0003900504802F0A3FB206D400764D5002071
:1041C00069460880491CA06F01F0DAFD00285BD128
:1041D00068464078012857D16946A06F01F024FE57
:1041E0006846007800284FD06078401C6070A07846
:1041F00010210143A17021005C31A06F01F0D4FDBA
:10420000E66D3000FFF70EF80190FEF797FF020011
:104210003000002102F076FE01D8110001E010000C
:10422000310002F0BBFE02F011FF00224C4B02F005
:1042300026FF02F0E6FF02F0EDFF060008480078D6
:1042400000280FD0012201992800113003F093F8C3
:10425000012231002800123003F08DF814E000BF75
:1042600048000020207800280ED03300019ABE4973
:10427000380002F0EDFA380002F006FB374B82B24C
:1042800039001C4802F03BFB206D80076FD50020F1
:1042900069460880491CE06F01F092FF002866D152
:1042A00068464078012862D16946E06F01F0DCFF82
:1042B0006846007800285AD06078401C6070A0786A
:1042C00020210143A17021006031E06F01F08CFFDB
:1042D000266E3000FEF7A6FF0190FEF72FFF0200CA
:1042E0003000002102F00EFE08D8110008E000BFE7
:1042F000BCD1000818140020D8D1000810003100EB
:1043000002F04CFE02F0A2FE0022154B02F0B7FEB6
:1043100002F077FF02F07EFF0600B7480078002821
:104320000CD00122019928000F3003F024F801225B
:1043300031002800103003F01EF818E02078002823
:1043400015D03300019A00BF88A1380002F080FA2E
:10435000380002F099FA014B04E000BF8813000016
:104360000000594082B23900A44802F0C8FA206D1A
:10437000C0064CD500206946888001A9491CE06E22
:1043800001F028FA002842D16846407901283ED140
:1043900001A9E06E01F082FA68460079002836D063
:1043A0006078401C6070A07801210143A170210059
:1043B0002831E06E01F022FA8F480078002812D0F0
:1043C0000422A16A2800133003F018F80422E16ADD
:1043D0002800173003F012F80422216B28001B304C
:1043E00003F00CF813E02078002810D0206B009028
:1043F000E36AA26A86A1380002F02AFA380002F0C5
:1044000043FA7F4B82B239007C4802F078FA206D83
:1044100080064CD500206946888001A9491C206F80
:1044200001F00CFB002842D16846407901283ED1BA
:1044300001A9206F01F066FB68460079002836D09C
:104440006078401C6070A07802210143A1702100B7
:104450003431206F01F006FB67480078002812D045
:104460000422616B28001F3002F0C8FF0422A16BF8
:104470002800233002F0C2FF0422E16B280027301D
:1044800002F0BCFF13E02078002810D0E06B009011
:10449000A36B626B67A1380002F0DAF9380002F012
:1044A000F3F9574B82B23900544802F028FA206DD4
:1044B00040064CD500206946888001A9491C606FE0
:1044C00001F08AFB002842D16846407901283ED19C
:1044D00001A9606F01F0E4FB68460079002836D03E
:1044E0006078401C6070A07804210143A170210015
:1044F0004031606F01F084FB3F480078002812D003
:104500000422216C28002B3002F078FF0422616C19
:1045100028002F3002F072FF0422A16C28003330F3
:1045200002F06CFF13E02078002810D0A06C0090FF
:10453000636C226C48A1380002F08AF9380002F05E
:10454000A3F92F4B82B239002C4802F0D8F92A483F
:104550000078002803D12078002800D116E500203B
:1045600000F04EF914E50000ECD1000854454D5020
:104570003A2025642E253032640D0A0080218901FD
:10458000884200D0704710B51E4C606E002805D1DF
:10459000A06E002802D1FFF769FC0AE0FFF766FC75
:1045A000A066A06E616E401AFF212E3188420CD3A6
:1045B000A06E606610480078002801D0002003E05B
:1045C0002178481E8041C00F207010BD10B586B004
:1045D00000236C46E37020706170A2700193039316
:1045E000049300226946084800F04CFE002800D0E1
:1045F000FEE706B010BD000048000020181400209F
:1046000088130000881800208C180020FEE70000A6
:104610004143435F583A2025642C204143435F596E
:104620003A2025642C204143435F5A3A2025640DEB
:104630000A0000004759525F583A2025642C204751
:1046400059525F593A2025642C204759525F5A3AF3
:104650002025640D0A0000004D41475F583A20258F
:10466000642C204D41475F593A2025642C204D4150
:10467000475F5A3A2025640D0A00000000B581B05A
:104680000848016840220A430260016802229143FF
:104690000160032002F0CAFE00F006F8002001B01D
:1046A00000BD0000002002407047FEE770B594B0E6
:1046B000344C6068802149050143616032480168DB
:1046C000324A0A40C10C11430160022005900125C5
:1046D0000895102109910F90002610964004119022
:1046E0000001129005A800F0F7F90F2000900320B8
:1046F00001900296039604960121684600F0F8FBAB
:1047000020680543256014B070BD21490968006820
:10471000204A904201D108201DE01432904201D17C
:10472000802018E01432904201D1D00C13E01432F2
:10473000904202D1802000020DE01432904202D15A
:104740008020000307E01432904202D18020000450
:1047500001E080200005084070470068406870470D
:104760000D49016000218160C160802202614161C8
:1047700081612021C161C021890101620421416060
:10478000704700003410024000700040FFE7FFFF58
:1047900000000240080002405800024030B587B0D7
:1047A00001214A4A13680B43136012680A400092C1
:1047B000009A00BF18A24300D55A0195029100212A
:1047C000039103210491424980000C1801A920683B
:1047D000FFF70CFA002229002068FFF7DDFA07B086
:1047E00030BD000000B581B0002200BF0AA1430027
:1047F000C95A374B80001858FFF7CEFA01B000BDF8
:1048000000B581B004A14200895A314A8000105895
:10481000FFF7C8FA01B000BD2000000030B587B036
:1048200005000C000421294802680A43026002685E
:10483000114000910099816801220A4382602000A2
:1048400010D100BF20A06900405A019000200290C2
:10485000022003900320049001A91E48AA0080585A
:10486000FFF7C4F9012C2AD117A06900405A019022
:10487000002003901848029001A91648AA00805809
:10488000FFF7B4F90FA0405D43B2D90018240C40E3
:10489000FF22A240D143C022A240002B04D50F4CDE
:1048A0001B071B0F083B00E00D4C9B089B00E31807
:1048B0001C6821400A431A6040B2FFF7AEFA07B005
:1048C00030BD000007000000002000002C10024056
:1048D000A8060020AC060020000011101CED00E02E
:1048E00000E400E0F1B584B000267448FFF70DFF46
:1048F00000286ED18024A4007048FFF72EFF201AF4
:1049000080B202906E4884880298A04202DA802128
:1049100089004018001B80B2019000960198012880
:104920004FDB6848005D641CA4B2802189008C4282
:1049300000DB0024F0283ED16148848800250BE08C
:10494000221811001312DB0D9A18521252028C1AFF
:10495000A4B2761C2D18ADB2601C009A954216DAEE
:104960000112C90D091849124902471A5548005D3C
:104970005449BFB2C95D049AB6B29219121D02F031
:104980009BFCC0B20028DBD14D48878021E0B6B245
:1049900004990E6001000212D20D1018401240025C
:1049A0000C1AA4B246498C80049802F0BAFC002884
:1049B00001D001200EE00098401C0090019988422F
:1049C000AFDB0198FF21891C884202DB02983C4939
:1049D0008880002005B0F0BD30B581B0050002F040
:1049E0007AFC394C29002000703002F03CFC374B37
:1049F00082B221007031200001F081FF01B030BD92
:104A000070B586B0012032490A6802430A600A681C
:104A100002400092009A0A6802430A600A68024053
:104A20000092009ACA6843041343CB604A68024369
:104A30004A604968084000900098042401940220CC
:104A400002900025039504900594A026F60501A97F
:104A50003000FFF7CBF808200190059401A9300041
:104A6000FFF7C4F8184C1B482060154E706C60604E
:104A7000A560E5602561A5610C206061200001F062
:104A80000BFF002800D0FEE730000830FFF768FE7B
:104A90003000083002F0DCFC2000583031000831D2
:104AA000C1603463074961658022920002804561DC
:104AB000200001F0B5FF06B070BD00000800002026
:104AC0000000002088160020181400208813000021
:104AD0002C10024000440040F0B583B00400B54DF6
:104AE0002078C0074FD50C21E8680840082808D076
:104AF00080204002EA6811400C290AD1E96801408F
:104B000007D0286880033ED5606800283BD101208B
:104B1000E4E1616881420BD0A74AA023DB029942FD
:104B2000296809D10A402A60296882000A432A605C
:104B300029680843286009E00A402A60296808407B
:104B40000090009828689D49014029608027BF0295
:104B5000606800280BD0FFF789F906002868384004
:104B600011D1FFF783F9801B6528F7D3B3E1FFF775
:104B70007DF906002868384005D0FFF777F9801BDB
:104B80006528F7D3A7E12078800718D50C21E868BD
:104B90000840042806D0E86801400C2943D1E868A1
:104BA000C00340D42868400702D5E0680128AED190
:104BB0006868B349014020690002084368602078B2
:104BC000C0061AD56F0DE8680C21014050D1286845
:104BD000074002D0E069002899D06868A9490140DF
:104BE000606A0843686068680002000A216A090672
:104BF00001436960032002F019FC2078000776D594
:104C000060690028286D63D0012101432965FFF701
:104C10002DF90600286D800769D4FFF727F9801B5E
:104C20000328F7D357E1E0680921C9430427002886
:104C30000FD02A68114008432860FFF717F90600D3
:104C400028683840B4D1FFF711F9801B0328F7D347
:104C500041E1286801402960FFF708F9060028684B
:104C60003840ACD0FFF702F9801B0328F7D332E1BC
:104C7000E069002828681CD0A90D01432960FFF7CE
:104C8000F5F806002868384005D1FFF7EFF8801BDB
:104C90000328F7D31FE168687A490140606A084336
:104CA000686068680002000A216A090601436960B9
:104CB000A3E78B4901402960FFF7D8F80600286870
:104CC00038409AD0FFF7D2F8801B0328F7D302E1CF
:104CD000012188432865FFF7C9F80600286D800781
:104CE00005D5FFF7C3F8801B0328F7D3F3E020783E
:104CF00080062ED57B48A1690029A96816D001221B
:104D00000A43AA60696B01220A436A6301686A0C5C
:104D10000A430260FFF7AAF80600A868800718D4C3
:104D2000FFF7A4F8801B0328F7D3D4E001229143B6
:104D3000A96001686C4A0A400260FFF797F8060014
:104D4000A868800705D5FFF791F8801B0328F7D3E3
:104D5000C1E02078400776D50020019000908020A7
:104D60004005A96B014004D1A96B0843A863012049
:104D70000190AF0D5D480068384013D15B48006872
:104D800038435A49086001200090FFF76FF8060089
:104D900056480068384005D1FFF768F8801B652841
:104DA000F6D398E0A168B94215D04D48002907D143
:104DB000296D14E000100240FFFFFEFFFFFFFBFF24
:104DC000A022D2009142296D09D108402865286DA2
:104DD000290D01432965286D07432F6505E008402B
:104DE0002865286D9449014029656F0DA068002849
:104DF0000CD0FFF73BF80600286D384013D1FFF7C1
:104E000035F8801B8D498842F6D364E0FFF72EF811
:104E10000600286D384006D0FFF728F8801B874928
:104E20008842F6D357E00098002805D02F48006844
:104E30002B4901402D4801600198002803D0A86B40
:104E40007F490140A963A06A002846D0E9680C2286
:104E50000A400C2A00D15AE68027BF04794902286B
:104E600028682BD101402960FFF700F80600286868
:104E7000384009D0FEF7FAFF801B0328F7D32AE059
:104E8000FFE0FFFFFF1FFFFFE8688A490140206B3A
:104E90000843616B0143E06A0843E86028687908C9
:104EA00001432960FEF7E2FF06002868384014D16C
:104EB000FEF7DCFF801B0328F7D30CE001402960DC
:104EC000FEF7D4FF06002868384006D0FEF7CEFF74
:104ED000801B0328F7D3032000E0002003B0F0BDBF
:104EE000FFFEFFFF20000140FEDFFFFF00700040DB
:104EF000F2B5040070480068C107C90F00988142EC
:104F00000DD26D48006801218843009901436A4829
:104F100001600068C107C90F0098814270D1864DB9
:104F20002078800705D5E868F0218843A16801430F
:104F3000E9602078C0074ED56068022802D1296850
:104F4000890308E0002802D12968890503E00328C5
:104F5000296802D1890102D452E0490750D5E96895
:104F6000032291430843E860FEF780FF0700606872
:104F70000C2602280AD1E868304008282BD0FEF71A
:104F800075FFC01B2D498842F5D322E003280AD1C2
:104F9000E86830400C281ED0FEF768FFC01B274988
:104FA0008842F5D315E0002809D1E868304012D0D6
:104FB000FEF75CFFC01B21498842F6D309E0E86890
:104FC0003040042807D0FEF751FFC01B1B49884220
:104FD000F5D303202DE038480068C107C90F0098B9
:104FE00081420FD33448006801218843009901436E
:104FF000314801600068C107C90F0098814201D0A3
:10500000012016E02078400705D5E8685F49014097
:10501000E0680843E8602078000706D5E8685C4946
:1050200001402069C0000843E860032002F0FEF957
:10503000002001B0F0BD0000FFFBFFFF891300005E
:10504000FFFFFFEFFFFFFFFE00B53B4A5068D1684E
:105050000C230B40042B04D0082B09D00C2B09D0B7
:1050600020E01068C00601D54B4800BD4B4800BD8C
:105070004B4800BDD068D1684A4B8002000F185CD5
:105080000902890F491CD368DB0306D41268D206D3
:1050900001D5414A02E0414A00E0414A504301F053
:1050A0007FFB00BD01210004400F401C8140C8036C
:1050B00000BD0000FFFF02FF0020024010B51E4CA3
:1050C0006068E1680C220A40042A1DD0082A19D021
:1050D0000C2A20D1E068E168324A8002000F105C9F
:1050E0000902890F491CE268D20306D42268D2065D
:1050F00001D5294A02E0294A00E0294A504301F03B
:105100004FFB0EE026480CE02068C00601D522487F
:1051100007E0224805E001210004400F401C8140C7
:10512000C80300BF21A1E2681206120F895CC840C3
:105130001D49086010BD00000010024000B581B09C
:10514000FFF782FF19A1134A13681B061B0FCB5CE4
:10515000D840154B186012685205520F895CC84040
:1051600001B000BD00B581B0FFF76EFF0FA1094A85
:1051700013681B061B0FCB5CD8400B4B18601268E2
:105180009204520F895CC84001B000BDFFF8FFFFD8
:10519000FFC7FFFF0C10024000093D000024F4008F
:1051A00000127A0058D10008B0060020000000006C
:1051B000010203040102030406070809F0B581B0E7
:1051C00004002CD02120205C002804D12021605430
:1051D000200002F0FBF9022021216054CA2021683E
:1051E000486253202168486220684025C1682940F0
:1051F00017D10021C943C160FEF738FE0700854E74
:105200002068C06828400CD1FEF730FEC01BB042B9
:10521000F6D3FF2021684862042021216054012038
:105220002EE0206881687C4A0A408260206881689C
:10523000626823691343A2691A430A438260E068E3
:105240002168086120680169A26812040A430261AA
:105250002068C16880229143C1602068C16C03222C
:105260009143C1642068C16CE269636913430B43D5
:10527000C364FF202168486201202121605400207E
:1052800001B0F0BDF2B582B004002020205C0128FE
:1052900001D10220BBE00120202160540220212105
:1052A000605420680027002A806842D1400601D45B
:1052B0000299CF70029801780D0000200A2907DBBF
:1052C00008000A2101F069FA0100F62251436D1825
:1052D0000001054368460571029841780D000020E1
:1052E0000A2907DB08000A2101F057FA0100F6221B
:1052F00051436D1800010543029881780E0000208B
:105300000A2907DB08000A2101F047FA0100F6220A
:10531000514376186946097909042D062A0C0A4377
:1053200000010643F6B216430298C07805043543DF
:1053300011E0400601D40299CF7002980078000471
:10534000029949780902014302988078084302993A
:10535000C9780D040543CA2021684862532021689A
:1053600048622068C168490611D40021C943C16060
:10537000FEF77CFD0090274E2068C068400606D4EA
:10538000FEF774FD0099401AB042F5D32DE0AC4809
:1053900028402168086020688168AA4A0A40826023
:1053A00020688168029AD268029B1B6913430B43F1
:1053B00083602068C16880229143C16020682025F5
:1053C000816829401BD1C168A0229143C160FEF7CA
:1053D0004DFD00900F4E2068C06828400FD1FEF7A9
:1053E00045FD0099401AB042F5D3FF20216848627C
:1053F00004202121605420202754012007E0FF20B1
:10540000216848620120212160546755002003B0C3
:10541000F0BD0000E9030000BFFF8FFF10B400687B
:10542000836A4B6003695B045B0C8B600368844890
:105430001840030C9C06A40E0C70040A4C70887073
:1054400040200340CB70002A18D10A780F2013099E
:105450009C00E3185B0002409A180A704A7813090E
:105460009C00E3185B0002409A184A708A7813097E
:105470009C00E3185B00104018188870002010BCD6
:1054800070470000F0B583B004000D002020205CC0
:10549000012801D10220A4E0012020216054022033
:1054A0002121605468780027002A5ED1C10603D507
:1054B000EF2101400A316970E9780E0000200A29C5
:1054C00007DB08000A2101F068F90100F6225143C8
:1054D0007618000106436846467169780E00002080
:1054E0000A2907DB08000A2101F057F90100F6221A
:1054F000514376180001064368460671A9780E00EC
:1055000000200A2907DB08000A2101F046F9010002
:10551000F622514376186946497909046A46127998
:1055200012020A4300010643F6B2164328784503E7
:105530003543CA20216848625320216848622068A8
:10554000C16849061BD40021C943C160FEF78EFC27
:1055500000903D4E2068C068400610D4FEF786FCDF
:105560000099401AB042F5D329E0E9780904000215
:105570000843A9780143287845030D43D9E7334808
:105580002840216848602068C16880229143C1603A
:1055900020682025816829401BD1C168A022914341
:1055A000C160FEF763FC0090274E2068C068284069
:1055B0000FD1FEF75BFC0099401AB042F5D3FF20F3
:1055C00021684862042021216054202027540120B2
:1055D00007E0FF20216848620120212160546755BF
:1055E000002003B0F0BD10B40068436817481840AD
:1055F000030CCB70C304DB0E4B7088700004400FAB
:105600000870002A18D1CA780F2013099C00E318EB
:105610005B0002409A18CA704A7813099C00E3188C
:105620005B0002409A184A708A7813099C00E318BC
:105630005B00104018188870002010BC70470000F4
:105640007F7F7F00FFFFFBFFE90300003FFFFF00BC
:1056500010B50C000021216000280DD0012811D0C8
:10566000200000F04FF8012804D1200000F011F8CC
:1056700001280CD0002010BD200000F00AF80128FD
:10568000F8D104E0200000F03DF80128F2D101201B
:1056900010BD70B505000024394EF078012830D0D7
:1056A000FDF7DEFD01282CD068203070D620707008
:1056B000748034710120707130002830B06031483E
:1056C000F06034613048F06330003830B062F4622A
:1056D0002E60F0680168080005D10020002100223A
:1056E00007C603C607E030008847012806D1142109
:1056F000286801F0CFFF2C60012070BDFDF7F8FD98
:10570000002070BD70B5050000241D4EF07D0128FD
:1057100035D0FDF7A5FD012831D069203075D420A2
:1057200070750120B075F4753476707630003030C5
:10573000F0611648306216487062300040303063C5
:105740007463300014302860306A0168080007D1A3
:10575000300014300021002200230EC006C008E0F3
:10576000300014308847012806D11421286801F040
:1057700091FF2C60012070BDFDF7BCFD002070BDC5
:105780000C1C002070020020201D00201C040020A2
:105790001003002000B581B0002803D0C1688968DB
:1057A0000A0001D1012003E08847012800D0002031
:1057B00001B000BD00B581B0002803D0C168C96840
:1057C0000A0001D1012003E08847012800D0002011
:1057D00001B000BD002801D0002901D1012070478F
:1057E000C078087000207047002801D0002901D13E
:1057F00001207047807808700020704700B581B0A4
:10580000002805D0C268002902D09269130001D196
:10581000012003E09047012800D0002001B000BD26
:1058200000B581B0002803D0C268D26A130001D14C
:10583000012003E09047012800D0002001B000BD06
:1058400000B581B0002803D0C268926B130001D16B
:10585000012003E09047012800D0002001B000BDE6
:1058600010B5002805D0C368002A02D05B6C1C006C
:1058700001D1012010BD9847012800D0002010BDA3
:1058800010B5002803D0C3689B6C1C0001D1012017
:1058900010BD9847012800D0002010BD00B581B090
:1058A000002803D0C268D26C130001D1012003E0AC
:1058B0009047012800D0002001B000BD10B50C00B9
:1058C0000021216000280DD0012811D0200000F017
:1058D0004DF8012804D1200000F011F801280CD067
:1058E000002010BD200000F00AF80128F8D104E0E3
:1058F000200000F03BF80128F2D1012010BD70B566
:1059000005000024384EF07801282ED0FDF7A8FCC1
:1059100001282AD068203070D620707074803471CD
:105920000120707130002830B0603048F060346180
:105930002F48F06330003830B062F4622E60F068B7
:105940000168080005D100200021002207C603C617
:1059500007E030008847012806D11421286801F0AB
:1059600099FE2C60012070BD002070BD70B505004F
:1059700000241D4EF07D012835D0FDF771FC012873
:1059800031D069203075D42070750120B075F47560
:105990003476707630003030F06116483062164848
:1059A000706230004030306374633000143028601F
:1059B000306A0168080007D130001430002100224D
:1059C00000230EC006C008E03000143088470128CC
:1059D00006D11421286801F05DFE2C60012070BD05
:1059E000FDF788FC002070BD501C0020C002002084
:1059F000201D00206C040020E003002000B581B0D1
:105A0000002803D0C16889680A0001D1012003E0A1
:105A10008847012800D0002001B000BD00B581B04A
:105A2000002803D0C168C9680A0001D1012003E041
:105A30008847012800D0002001B000BD002801D017
:105A4000002901D101207047C078087000207047FC
:105A5000002801D0002901D101207047807808700A
:105A60000020704700B581B0002805D0C268002929
:105A700002D09269130001D1012003E09047012870
:105A800000D0002001B000BD00B581B0002803D0D7
:105A9000C268D26A130001D1012003E090470128B7
:105AA00000D0002001B000BD00B581B0002803D0B7
:105AB000C268926B130001D1012003E090470128D6
:105AC00000D0002001B000BD10B5002805D0C3688B
:105AD000002A02D05B6C1C0001D1012010BD984748
