:020000040800F2
:10000000B0070020917A00086D7A00086F7A000826
:10001000B57A0008B97A0008BD7A0008000000002F
:10002000000000000000000000000000C17A00088D
:10003000717A000800000000C57A0008737A000891
:10004000C97A0008CD7A0008D17A0008D57A00086C
:10005000D97A0008DD7A0008E17A0008E57A00081C
:10006000E97A0008ED7A0008F17A0008F57A0008CC
:10007000F97A0008FD7A0008017B0008057B00087A
:10008000097B00080D7B0008117B0008157B000828
:10009000197B00081D7B0008217B0008257B0008D8
:1000A000297B00082D7B0008317B0008357B000888
:1000B000397B00083D7B0008417B0008457B000838
:1000C000497B00084D7B0008517B0008557B0008E8
:1000D000597B00085D7B0008617B0008657B000898
:1000E000777A0008697B00086D7B0008717B000847
:1000F000757B000800000000797B00087D7B00080C
:10010000817B0008857B0008897B00088D7B0008C7
:10011000917B0008957B0008997B00080000000097
:100120009D7B000870B5044682B0A06806683568FB
:1001300000208DF800006946204601F07FFE00B3E4
:100140009DF80000217888421BD10421204602F04E
:10015000DCF8B0B14021204601F07CFE88B10021DE
:10016000204602F056F860B1DFF8500C70600021B4
:10017000204601F0E1FE20B10021204601F089FE79
:1001800010B9012002B070BD01202870E07002B0EB
:10019000002070BD70B5044682B0A06805682E6866
:1001A00000208DF800006946204601F047FE002837
:1001B00000F0B0809DF800002178884240F0AA80CD
:1001C0000021204602F05BFD002800F0A380002102
:1001D000204602F051FB002800F09C8000212046C0
:1001E00002F0B9FC002800F095800021204602F0C2
:1001F00093FC002800F08E800021204602F001FDD3
:10020000002800F087800021204602F035FB0028FE
:1002100000F080800021204602F06BFB002879D09E
:100220000021204602F052F8002873D00021204619
:1002300002F006F900286DD00021204602F01FF9D7
:10024000002867D00021204602F0A4FD002861D0DC
:100250000021204602F051FD00285BD000212046FD
:1002600002F00AFB002855D00021204602F023FBB3
:1002700000284FD00021204602F05AFB002849D028
:100280000021204602F072FB002843D000212046C6
:1002900002F095FA00283DD00021204602F0AEFA87
:1002A000002837D00021204602F0C7FA002831D0BC
:1002B0000021204602F0C4FC60B30021204602F079
:1002C000DBFA38B30021204602F0F5FA10B3002122
:1002D000204602F02DFBE8B10021204602F046FB4B
:1002E000C0B10021204602F05FFB98B100212046FA
:1002F00002F098FB70B10021204602F060FA48B18C
:100300000021204602F07AFA20B10021204602F0B6
:1003100094FA10B9012002B070BD0021204602F00D
:1003200051FC0028F6D00021204602F06AF800288F
:10033000F0D00021204602F0A2F80028EAD00021E7
:10034000204602F0BBFC0028E4D00021204602F049
:1003500093FA0028DED00021204602F0BFFB0028DF
:10036000D8D00021204602F03FFB0028D2D02079CF
:1003700078B1A0680068011D204600F086F90128C8
:10038000C8D00021204601F0D7FD0028C2D00020AF
:100390002071002068603070E07002B070BD10B550
:1003A00004462079012849D0A068DFF8141A0068B3
:1003B000406802F02FFD38BF102137D3DFF8041A50
:1003C00002F028FD38BF202130D3DFF8FC1902F0FD
:1003D00021FD38BF302129D3DFF8F01902F01AFDD2
:1003E00038BF402122D3DFF8E81902F013FD38BFEF
:1003F00050211BD3DFF8581A02F00CFD38BF6021E2
:1004000014D3DFF8501A02F005FD38BF70210DD368
:10041000DFF8441A02F0FEFC38BF802106D3DFF873
:10042000041C02F0F7FC34BF9021A021204601F00B
:1004300083FD08B9012010BD01202071002010BDEE
:1004400030B5044681B0207900284ED0A0680068FD
:10045000051D6946204601F08EFD002840D09DF81C
:100460000000002830D010282CD0202827D0302899
:1004700022D040281DD0502818D0602813D07028D2
:100480000ED0802809D0902804D0A02825D1DFF8EC
:100490002C0A19E0DFF8280A16E0DFF8280A13E032
:1004A000DFF8240A10E0DFF8240A0DE0DFF8200A64
:1004B0000AE0DFF8080907E0DFF8180A04E0DFF8CF
:1004C000180A01E0DFF8140A28600021204601F034
:1004D00033FD40B9012001B030BDDFF8C40B286006
:1004E000012001B030BD0020207101B030BD00B549
:1004F00081B001F0A3FC401E8041C00F01B000BDDF
:1005000010B582B0044600208DF8000069462046F0
:1005100001F094FC20B19DF800002178884202D0BF
:10052000012002B010BD002002B010BD2DE9F04145
:1005300084B00C460021CDE900118046694601F0E7
:10054000D7FC00284ED09DF801109DF800209DF8A2
:10055000040002EB01269DF803109DF8022002EB37
:1005600001279DF8051000EB012502A9404601F086
:10057000AFFC002836D09DF808000C2832D8DFE800
:1005800000F010313131073131310D3131310A0094
:10059000DFF84C8907E0DFF84C8904E0DFF8488990
:1005A00001E0DFF8848A30B202F046FC414602F0F6
:1005B0005BFC02F0C5FC206038B202F03DFC414615
:1005C00002F052FC02F0BCFC606028B202F034FC85
:1005D000414602F049FC02F0B3FCA06004B00020E8
:1005E000BDE8F081012004B0BDE8F08110B582B013
:1005F0000C4669460022C1E9002201F079FC10B9DD
:10060000012002B010BD9DF801109DF8002002EB02
:10061000012121809DF802209DF8031002EB0121A9
:1006200061809DF804009DF8051000EB0120A0807A
:1006300002B0002010BD000010B582B00C46694623
:1006400001F046FCF0B19DF800000C2817D8DFE857
:1006500000F007161616131616160D1616161000AD
:10066000DFF8C409206002B0002010BDDFF8780870
:10067000F8E7DFF87008F5E7DFF86408F2E7DFF87D
:10068000200A2060012002B010BD10B582B00C46D7
:10069000694601F070FC10B9012002B010BD9DF850
:1006A0000000C8B110281BD020281CD030281DD035
:1006B00040281ED050281FD0602820D0702821D07C
:1006C000802822D0902823D0A02824D0DFF8D00979
:1006D000206002B0012010BD206002B0002010BDDB
:1006E000DFF8F807F8E7DFF8F007F5E7DFF8E407E9
:1006F000F2E7DFF8C806EFE7DFF8D407ECE7DFF84A
:10070000CC07E9E7DFF8C007E6E7DFF8B807E3E77B
:10071000DFF8AC07E0E7DFF8A407DDE700B581B05C
:100720000279012A13D104290ED8DFE801F0090962
:1007300007050300402104E0302102E0202100E011
:10074000102101F0F9FBC0B9012001B000BD8068A3
:1007500000680429F8D8DFE801F00D0D0A0704004D
:10076000F2E7DFF8581607E0DFF8681704E0DFF873
:10077000681701E0DFF864174160002001B000BD98
:1007800000B581B0024608461379DFF83416012B14
:1007900044D102F03FFB38BF102137D3DFF82416D5
:1007A00002F038FB38BF202130D3DFF81C1602F0EE
:1007B00031FB38BF302129D3DFF8101602F02AFBB5
:1007C00038BF402122D3DFF8081602F023FB38BFE0
:1007D00050211BD3DFF8781602F01CFB38BF6021D4
:1007E00014D3DFF8701602F015FB38BF70210DD35B
:1007F000DFF8641602F00EFB38BF802106D3DFF865
:10080000241802F007FB34BF9021A021104601F00C
:1008100093FB00284CD1012001B000BD9268126802
:1008200002F0F8FA38BFDFF8B40640D3DFF89415C9
:1008300002F0F0FA38BFDFF8A00638D3DFF88815E9
:1008400002F0E8FA38BFDFF88C0630D3DFF87C1509
:1008500002F0E0FA38BFDFF8640528D3DFF870153E
:1008600002F0D8FA38BFDFF8680620D3DFF8E015C9
:1008700002F0D0FA38BFDFF8540618D3DFF8D415E9
:1008800002F0C8FA38BFDFF8400610D3DFF8C81509
:1008900002F0C0FA38BFDFF82C0608D3DFF884175F
:1008A00002F0B8FA34BFDFF81806DFF8100650601F
:1008B000002001B000BD000010B582B00C466946B2
:1008C00001F006FBF0B19DF800000C2817D8DFE816
:1008D00000F007161616131616160D16161610002B
:1008E0004FF08040206002B0002010BD4FF08140EA
:1008F000F8E74FF08240F5E74FF08340F2E7DFF88A
:10090000A0072060012002B010BD000000B504293E
:1009100081B010D8DFE801F0030F0B0F0D000021AC
:1009200001F0B7FA401E8041C00F01B000BD0821A0
:10093000F6E70C21F4E7012001B000BD02460846AD
:10094000DFF82C1A00B502F065FA81B038BF00213B
:100950000DD3DFF8201A02F05DFA38BF082106D364
:10096000DFF8BC1B02F056FA34BF0C2104211046FC
:1009700001F08FFA401E8041C00F01B000BD00B5EC
:1009800081B0012301F048FA401E8041C00F01B040
:1009900000BD00B581B001238DF800206A4601F04A
:1009A00044FA401E8041C00F01B000BD10B582B0B6
:1009B0000C46694601F032FE48B19DF8000000285F
:1009C00018BF012803D1207002B0002010BD012003
:1009D00002B010BD70B5044682B0A06806683568E4
:1009E00000208DF800006946204601F027FA00B388
:1009F0009DF80000217888421BD10421204601F097
:100A000084FCB0B14021204601F024FA88B10021D5
:100A1000204601F0FEFB60B1DFF8D00470600021D9
:100A2000204601F00BFB20B10C21204601F0B3FA67
:100A300010B9012002B070BD01206870E07002B0F2
:100A4000002070BD70B5044682B0A06805682E68AD
:100A500000208DF800006946204601F0EFF998B1BA
:100A60009DF80000217888420ED1207988B1A068D5
:100A70000068011D204600F0ADF9012804D00021D6
:100A8000204601F0DBFA10B9012002B070BD002051
:100A90002071002068607070E07002B070BD10B509
:100AA00004462079012844D0A068C5490068406800
:100AB00002F0B0F938BF102133D3C24902F0AAF9CD
:100AC00038BF20212DD3C04902F0A4F938BF30210E
:100AD00027D3BE4902F09EF938BF402121D3BC493B
:100AE00002F098F938BF50211BD3DFF8641302F0ED
:100AF00091F938BF602114D3DFF8581302F08AF956
:100B000038BF70210DD3DFF8501302F083F938BFDE
:100B1000802106D3DFF8241602F07CF934BF90213F
:100B2000A021204601F08AFA08B9012010BD012059
:100B30002071002010BD30B5044681B02079002816
:100B40004CD0A0680068051D6946204601F095FA62
:100B500000283ED09DF8000000282ED010282BD071
:100B6000202826D0302821D040281DD0502818D049
:100B7000602813D070280ED0802809D0902804D087
:100B8000A02823D1DFF8340317E0DFF8340314E0A2
:100B9000DFF8300311E0DFF830030EE0DFF82C035C
:100BA0000BE0DFF82C0308E0844806E0DFF82403BC
:100BB00003E0DFF8240300E0C84828600021204655
:100BC00001F03CFA40B9012001B030BDDFF8D0049B
:100BD0002860012001B030BD0020207101B030BD7F
:100BE00000B581B001F02AF9401E8041C00F01B06C
:100BF00000BD10B582B0044600208DF800006946A3
:100C0000204601F01BF920B19DF8000021788842B0
:100C100002D0012002B010BD002002B010BD0000C3
:100C20002DE9F04184B080460C4601A80021C0E9BE
:100C30000011404601A901F0DDF900285AD001A8B1
:100C40009DF80420417802EB01269DF80710827878
:100C5000007902EB01279DF8091000EB01250DF149
:100C60000101404601F038FA002843D09DF8010008
:100C7000022808BFDFF8BC8A1DD06946404601F053
:100C8000A9F9002836D09DF800000C2832D8DFE8FA
:100C900000F0103131310D3131310A31313107007D
:100CA000DFF8948A07E0DFF8948A04E0DFF8908A9E
:100CB00001E0DFF8C08B30B202F0BEF8414602F02E
:100CC000D3F802F03DF9206038B202F0B5F84146A1
:100CD00002F0CAF802F034F9606028B202F0ACF811
:100CE000414602F0C1F802F02BF9A06004B00020E8
:100CF000BDE8F081012004B0BDE8F08110B582B0FC
:100D00000C4669460022C1E9002201F073F910B9CE
:100D1000012002B010BD9DF801109DF8002002EBEB
:100D2000012121809DF802209DF8031002EB012192
:100D300061809DF804009DF8051000EB0120A08063
:100D400002B0002010BD000030B581B00C46054651
:100D50000DF1010101F0C0F970B19DF80100022808
:100D600005D1DFF8D009206001B0002030BD694610
:100D7000284601F02FF910B9012001B030BD9DF8CF
:100D800000000C2814D8DFE800F0071313130A132F
:100D900013130D1313131000DFF8D80AE3E7DFF87D
:100DA000A009E0E7DFF89409DDE7DFF88C09DAE76E
:100DB000BB48206001B0012030BD00000000D042DF
:100DC000010050410100D041010050420100D042D9
:100DD0000100504310B582B00C46694601F04DF950
:100DE00010B9012002B010BD9DF80000C0B110285C
:100DF0001AD020281AD030281AD040281AD05028CB
:100E00001AD060281AD070281AD080281AD09028BA
:100E10001AD0A0281AD0A248206002B0012010BD2C
:100E2000206002B0002010BD2C48F9E72A48F7E7FF
:100E30002848F5E72D48F3E72548F1E72348EFE791
:100E40002148EDE71F48EBE71D48E9E71B48E7E7C6
:100E50000100D043014050440180CF4400B581B02F
:100E60000279012A13D104290ED8DFE801F009091B
:100E700007050300402104E0302102E0202100E0CA
:100E8000102101F0DBF8A8B9012001B000BD806895
:100E900000680429F8D8DFE801F00A0A080604000F
:100EA000F2E7124905E00B4903E00B4901E0DFF8E6
:100EB000941B4160002001B000BD00000020D0451F
:100EC000002050450080CF44004050440000D043F3
:100ED00000005043000050420000D041000050414B
:100EE00023DBF93E23DB793E23DBF93D0000D042D2
:100EF00000B581B0024608461379DFF87C19012B52
:100F000043D101F087FF38BF102136D3DFF8381BFB
:100F100001F080FF38BF20212FD3DFF8301B01F014
:100F200079FF38BF302128D3DFF8241B01F072FF8E
:100F300038BF402121D3DFF81C1B01F06BFF38BF05
:100F400050211AD3DFF8101B01F064FF38BF602175
:100F500013D3DFF8081B01F05DFF38BF70210CD3FD
:100F6000DFF8FC1A01F056FF38BF802105D32D4968
:100F700001F050FF34BF9021A021104601F05EF82F
:100F800000284BD1012001B000BD9268126801F029
:100F900041FF38BFDFF8AC0A3FD3DFF8AC1A01F0ED
:100FA00039FF38BFDFF8BC0A37D3DFF8A01A01F0E9
:100FB00031FF38BFDFF8B00A2FD3DFF8941A01F001
:100FC00029FF38BFDFF8A40A27D3DFF8881A01F019
:100FD00021FF38BFDFF8980A1FD3DFF87C1A01F031
:100FE00019FF38BFDFF88C0A17D3DFF8701A01F049
:100FF00011FF38BFDFF8800A0FD3DFF8641A01F061
:1010000009FF38BFDFF8740A07D3064901F002FF71
:1010100034BFDFF86C0ADFF8F80B5060002001B035
:1010200000BD00000120504523DB793D30B581B083
:101030000C460546694601F04FF828B10DF1010153
:10104000284600F0C7FF10B9012001B030BD9DF85F
:101050000000022805D1DFF8BC0B206001B00020A1
:1010600030BD9DF801000C2814D8DFE800F007130C
:1010700013130A1313130D1313131000DFF8980B37
:10108000EBE7DFF8980BE8E7DFF8940BE5E7DFF82C
:10109000940BE2E70248206001B0012030BD00005F
:1010A000000080BF00B5042981B010D8DFE801F04E
:1010B000030F0B0F0D00002100F06DFF401E80415B
:1010C000C00F01B000BD0421F6E70C21F4E70120B8
:1010D00001B000BD30B504460846DFF84C1B01F0F6
:1010E00099FE81B007D20221204600F0D6FF10B34E
:1010F000002001B030BDDFF8C01B01F08BFE38BF0F
:1011000000250DD3DFF8B41B01F084FE38BF0425A1
:1011100006D3DFF8AC1B01F07DFE34BF08250C259B
:101120000021204600F0B9FF28B12946204600F0F2
:1011300032FF0028DCD1012001B030BD0120504534
:1011400000B581B0012300F067FE401E8041C00F52
:1011500001B000BD00B581B001238DF800206A46C2
:1011600000F063FE401E8041C00F01B000BD10B50D
:1011700082B00C46694601F061FA48B19DF8000062
:1011800010B1022804D10120207002B0002010BD4F
:10119000012002B010BD02460846DFF8DC1600B59B
:1011A00001F038FE81B038BF102137D3DFF898182E
:1011B00001F030FE38BF202130D3DFF8901801F065
:1011C00029FE38BF302129D3DFF8841801F022FE30
:1011D00038BF402122D3DFF87C1801F01BFE38BF56
:1011E00050211BD3DFF8701801F014FE38BF6021C6
:1011F00014D3DFF8681801F00DFE38BF70210DD34D
:10120000DFF85C1801F006FE38BF802106D3DFF856
:10121000B41A01F0FFFD34BF9021A021104600F068
:101220008BFE401E8041C00F01B000BD10B50446CA
:10123000DFF840182079012805D12046FFF7ABFFE1
:10124000012803D110BDA06800684160002120463C
:1012500000F01FFEE8B10621204601F07CFCC0B181
:101260000021204601F03AFC98B10021204601F00F
:1012700016FC70B10021204601F0F3FB48B10321B8
:10128000204601F049FC20B18021204601F0F4FA0B
:1012900008B9012010BD1021204601F0F0FC401ECD
:1012A0008041C00F10BD10B50446002101F0E7FCDD
:1012B00048B10021204601F0DFFA20B1002120468C
:1012C00001F049FC08B9012010BD0021204601F0C1
:1012D00023FC401E8041C00F10BD10B582B00C46EB
:1012E000694601F0FBF848B19DF8000010B12028D4
:1012F00004D10120207002B0002010BD012002B0F6
:1013000010BD00B581B001F007FC401E8041C00F48
:1013100001B000BD10B50446DFF848172079012858
:1013200005D12046FFF737FF012803D110BDA06883
:10133000006841600021204600F0ABFD70B117212C
:10134000204601F027FD48B10421204601F097F81E
:1013500020B11021204601F073F808B9012010BD1A
:101360008021204600F0B2FF401E8041C00F10BD1A
:10137000010000400100804010B50446002100F04B
:10138000A5FF48B10021204601F05AF820B1002104
:10139000204601F074F808B9012010BD0021204654
:1013A00001F0F8FC401E8041C00F10BD10B582B0A6
:1013B0000C46694601F0C4F948B19DF8000010B12F
:1013C000102804D10120207002B0002010BD01209F
:1013D00002B010BD00B581B001F0C5FC401E8041D7
:1013E000C00F01B000BD00B581B0022100F0EAFFDE
:1013F000401E8041C00F01B000BD00B581B000218A
:1014000000F0E0FF401E8041C00F01B000BD00B5FC
:1014100081B001F0BFFC401E8041C00F01B000BD93
:1014200010B50446DFF83C162079012805D1204686
:10143000FFF7B1FE012803D110BDA068006841602C
:101440000021204600F025FD48B10421204601F08E
:1014500016F820B10821204600F0D3FF08B901207A
:1014600010BD0221204601F0ADFB401E8041C00F9F
:1014700010BD10B50446002101F0A4FB20B10021ED
:10148000204600F0BEFF08B9012010BD0021204613
:1014900000F0F5FF401E8041C00F10BD10B582B0B6
:1014A0000C46694601F05CF948B19DF8000010B1A6
:1014B000202804D10120207002B0002010BD01209E
:1014C00002B010BD10B50446DFF8A8152079012838
:1014D00005D12046FFF75FFE012803D110BDA068AB
:1014E000006841600021204600F0D3FC70B100216B
:1014F000204601F0F3FA48B10221204601F074FAC7
:1015000020B18021204601F0B7F908B9012010BDB3
:101510002021204601F0D2FB401E8041C00F10BDAB
:101520000100004110B50446002101F0C7FB48B19D
:101530000021204601F0A0F920B10021204601F051
:10154000CDFA08B9012010BD0021204601F04CFA67
:10155000401E8041C00F10BD10B582B00C466946D8
:1015600000F0ACFF48B19DF8000010B1082804D18C
:101570000120207002B0002010BD012002B010BD7B
:1015800000B581B001F030FA401E8041C00F01B0BB
:1015900000BD10B50446DFF8DC142079012805D120
:1015A0002046FFF7F8FD012803D110BDA0680068B0
:1015B00041600021204600F06CFC10B30821204659
:1015C00001F03BF9E8B10421204601F017F9C0B160
:1015D0000221204601F0F3F898B10821204601F0DD
:1015E0006AF970B10221204601F0A2F948B1012147
:1015F000204601F0BBF920B18021204601F03CF9E2
:1016000008B9012010BD4021204601F076FB401EA4
:101610008041C00F10BD10B50446002101F06DFBE4
:10162000E8B10021204601F027F9C0B10021204691
:1016300001F041F998B10021204601F079F970B12B
:101640000021204601F092F948B10021204601F026
:10165000B6F820B10021204601F0D0F808B90120E9
:1016600010BD0021204601F0E8F8401E8041C00F67
:1016700010BD10B582B00C46694600F04FFF48B16E
:101680009DF8000010B1202804D10120207002B084
:10169000002010BD012002B010BD10B50446DFF8D7
:1016A000D4132079012805D12046FFF774FD0128C5
:1016B00003D110BDA068006841600021204600F001
:1016C000E8FB00282CD00821204601F0B6F838B3FA
:1016D0000421204601F092F810B30221204601F0C7
:1016E0006EF8E8B10821204601F0E5F8C0B1032109
:1016F000204601F01DF998B10321204601F036F98A
:1017000070B10821204601F04FF948B180212046F0
:1017100001F088F920B18021204601F0ADF808B928
:10172000012010BD0821204601F08AFA401E8041A8
:10173000C00F10BD00008C4000008C4200000C4225
:1017400000008C4110B50446002101F079FA38B34D
:101750000021204601F090F810B30021204601F04E
:10176000AAF8E8B10021204601F0E2F8C0B100215A
:10177000204601F0FBF898B10021204601F014F951
:1017800070B10021204601F04DF948B100212046FA
:1017900001F015F820B10021204601F02FF808B91A
:1017A000012010BD0021204601F047F8401E804175
:1017B000C00F10BD10B582B00C46694600F09EFE09
:1017C00048B19DF8000010B1102804D1012020700C
:1017D00002B0002010BD012002B010BD00B581B0E4
:1017E00001F069F8401E8041C00F01B000BD00B596
:1017F00081B001F09DF8401E8041C00F01B000BDD6
:1018000000B581B001F0B2F8401E8041C00F01B0B8
:1018100000BD00B581B001F0C7F8401E8041C00F87
:1018200001B000BD10B5044692492079012805D1C8
:101830002046FFF7B0FC012803D110BDA068006866
:1018400041600021204600F024FB48B140212046A1
:1018500001F04FF820B18021204601F00DF808B9C1
:10186000012010BD0421204601F0CBF9401E80412B
:10187000C00F10BD00000C410100504110B50446DE
:10188000002101F0BEF920B10021204600F0F4FF54
:1018900008B9012010BD0021204601F02AF8401EA1
:1018A0008041C00F10BD10B582B00C46694600F0F3
:1018B000A5FE48B19DF8000010B1402804D10120D8
:1018C000207002B0002010BD012002B010BD10B584
:1018D00082B00C46694600F031FE48B19DF8000028
:1018E000002818BF012803D1207002B0002010BDCD
:1018F000012002B010BD10B582B00C46694600F060
:101900002DFE48B19DF8000010B1022804D101203D
:10191000207002B0002010BD012002B010BD10B533
:1019200082B00C46694600F029FE48B19DF80000DF
:1019300010B1042804D10120207002B0002010BD95
:10194000012002B010BD10B582B00C46694600F00F
:1019500025FE48B19DF8000010B1082804D10120EF
:10196000207002B0002010BD012002B010BD10B5E3
:1019700082B00C46694600F021FE48B19DF8000097
:1019800010B1102804D10120207002B0002010BD39
:10199000012002B010BD10B582B00C46694600F0BF
:1019A0001DFE48B19DF8000010B1202804D101208F
:1019B000207002B0002010BD012002B010BD024610
:1019C0000846C14900B501F025FA81B038BF0821A9
:1019D0002FD3BE4901F01EFA38BF102129D3BC49CC
:1019E00001F018FA38BF182123D3BA4901F012FACE
:1019F00038BF20211DD3B84901F00CFA38BF282187
:101A000017D3B64901F006FA38BF302111D3B449D3
:101A100001F000FA38BF38210BD3B24901F0FAF9CE
:101A200038BF402105D3B04901F0F4F934BF482153
:101A30005021104600F00CFC401E8041C00F01B048
:101A400000BD0000000050410100D04101005042A3
:101A50000100D042010050430100D04301405044F6
:101A60000180CF440000D041000050420000D0422D
:101A7000000050430000D043004050440080CF4459
:101A80000020504510B582B00C46694600F017FEA4
:101A900068B19DF8000020B1202806D0012002B0D6
:101AA00010BD207002B0002010BD0120F9E7012018
:101AB00002B010BD10B582B00C46694600F0EFFDD3
:101AC00068B19DF8000020B1102806D0012002B0B6
:101AD00010BD207002B0002010BD0120F9E70120E8
:101AE00002B010BD10B582B00C46694600F0F7FD9B
:101AF00068B19DF8000020B1402806D0012002B056
:101B000010BD207002B0002010BD0120F9E70120B7
:101B100002B010BD00B581B000F0F1FD401E804163
:101B2000C00F01B000BD00B581B001F005F9401E45
:101B30008041C00F01B000BD00B581B000F08EFD46
:101B4000401E8041C00F01B000BD00B5072981B023
:101B500006D800F000FB401E8041C00F01B000BD60
:101B6000012001B000BD00B50A0018BF082981B0EE
:101B70000BD0102918BF182907D0202918BF2829F1
:101B800003D0302918BF382906D100F004FB401ECD
:101B90008041C00F01B000BD012001B000BD0000B8
:101BA00070B582B00D460446694601F0C5F80028BC
:101BB0002BD09DF801009DF8001041EA00260DF1A0
:101BC0000201204600F084F9F8B19DF802000C28CB
:101BD0001BD8DFE800F00D1A1A1A071A1A1A0B1A86
:101BE0001A1A0900414C04E0414C02E0414C00E06B
:101BF000414C30B201F020F9214601F035F901F0F5
:101C00009FF9286002B0002070BD012002B070BDB5
:101C10000020D0450000FA42000075430000FA435E
:101C200000007A440000FA440100FA4270B582B024
:101C30000C4605460DF1020101F07EF8002837D070
:101C40009DF803009DF8021041EA00260DF1010104
:101C5000284600F041FA00282AD09DF80100022809
:101C600008BF264D18D06946284600F0B3F9F8B1F0
:101C70009DF800000C281BD8DFE800F00D1A1A1A96
:101C80000B1A1A1A091A1A1A07001D4D04E01D4DE5
:101C900002E01D4D00E01D4D30B201F0CDF82946A7
:101CA00001F0E2F801F04CF9206002B0002070BDB4
:101CB000012002B070BD0000010075430100FA432D
:101CC00001007A4401205045010020410100C84133
:101CD000010048420100C842010048430100C843D6
:101CE000010048440100C84401404E4523DBF93E51
:101CF00023DB793E23DBF93D23DB793D00008C407B
:101D000000008C4200000C4200008C4100000C419D
:101D100000B5062981B00CD8DFE801F004040B04FB
:101D2000040B040000F075FA401E8041C00F01B0A2
:101D300000BD012001B000BD00B50A0018BF202978
:101D400081B006D100F0A3FA401E8041C00F01B05F
:101D500000BD012001B000BD00B581B000F0CCF99C
:101D6000401E8041C00F01B000BD00B50A0018BF81
:101D7000802981B006D100F02DFA401E8041C00FAD
:101D800001B000BD012001B000BD00B5012981B046
:101D900006D800F0F5FC401E8041C00F01B000BD28
:101DA000012001B000BD00B5032981B006D800F0C4
:101DB000CBFA401E8041C00F01B000BD012001B030
:101DC00000BD00B5012981B006D800F0D9FC401E45
:101DD0008041C00F01B000BD012001B000BD000076
:101DE00000B50C2981B00FD8DFE801F0070E0E0E08
:101DF000070E0E0E070E0E0E070000F0C4FA401E6E
:101E00008041C00F01B000BD012001B000BD0268DB
:101E1000531C03601170704700B581B001F062F986
:101E2000401E8041C00F01B000BD00B581B001F07F
:101E300042F9401E8041C00F01B000BD00B50A4606
:101E400081B001230F2101F04DF9401E8041C00FE8
:101E500001B000BD30B581B00D46044601236A468D
:101E6000122101F03FF910B1002001B030BD9DF802
:101E7000000000F0BF0028438DF8000001236A46EF
:101E80001221204601F017F9401E8041C00F01B019
:101E900030BD30B581B00D46044601236A4610219D
:101EA00001F020F910B1002001B030BD9DF8000014
:101EB00000F0F30028438DF8000001236A4610214A
:101EC000204601F0F8F8401E8041C00F01B030BD3F
:101ED00010B50C4601232246102101F003F908B188
:101EE000002010BD207800F00C002070012010BDF3
:101EF000F0B581B004460D4600260327F6B206F180
:101F000028010123AA19C9B2204601F0EBF850B903
:101F1000761CF6B206F128010123AA19C9B220469F
:101F200001F0E0F810B1002001B0F0BD761C7F1E7A
:101F3000E4D1012001B0F0BD30B581B00D460446BA
:101F400001236A46102101F0CDF810B1002001B044
:101F500030BD9DF8000000F00F0028438DF8000010
:101F600001236A461021204601F0A5F8401E804159
:101F7000C00F01B030BD10B50C4601232246102120
:101F800001F0B0F808B1002010BD207800F0F0009A
:101F90002070012010BD30B581B00D4604460123EC
:101FA0006A46112101F09EF810B1002001B030BD49
:101FB0009DF8000000F0F30028438DF80000012395
:101FC0006A461121204601F076F8401E8041C00F7C
:101FD00001B030BD10B50C4601232246112101F09D
:101FE00081F808B1002010BD207800F00C002070AE
:101FF000012010BDF0B581B004460D460026032730
:10200000F6B206F122010123AA19C9B2204601F055
:1020100069F850B9761CF6B206F122010123AA191B
:10202000C9B2204601F05EF810B1002001B0F0BD49
:10203000761C7F1EE4D1012001B0F0BD30B581B027
:102040000D46044601236A46112101F04BF810B1F8
:10205000002001B030BD9DF8000000F00F002843C3
:102060008DF8000001236A461121204601F023F873
:10207000401E8041C00F01B030BD10B50C46012399
:102080002246112101F02EF808B1002010BD207861
:1020900000F0F0002070012010BD30B581B00D4679
:1020A000044601236A46112101F01CF810B10020FA
:1020B00001B030BD9DF8000000F0FD0028438DF810
:1020C000000001236A461121204600F0F4FF401E63
:1020D0008041C00F01B030BD10B50C46012322462F
:1020E000112100F0FFFF08B1002010BD207800F0A2
:1020F00002002070012010BD70B582B0044601239B
:102100006A460D46062100F0EDFF2E0A78B98DF8DB
:10211000005001236A460621204600F0CCFF30B96A
:1021200001236A460721204600F0DCFF10B10020A1
:1021300002B070BD9DF8000066F302008DF800004B
:1021400001236A460721204600F0B5FF401E80416A
:10215000C00F02B070BD30B581B00D4604460123FA
:102160006A46082100F0BEFF10B1002001B030BD6A
:102170009DF8000000F0F80028438DF800000123CE
:102180006A460821204600F096FF401E8041C00F9D
:1021900001B030BD000030B581B00D4604460123CA
:1021A0006A46082100F09EFF10B1002001B030BD4A
:1021B0009DF8000000F0C70028438DF800000123BF
:1021C0006A460821204600F076FF401E8041C00F7D
:1021D00001B030BD30B581B00D46044601236A46DA
:1021E000092100F07FFF10B1002001B030BD9DF843
:1021F000000000F07F0028438DF8000001236A46AC
:102200000921204600F057FF401E8041C00F01B059
:1022100030BD30B581B00D46044601236A460A211F
:1022200000F060FF10B1002001B030BD9DF800004B
:1022300000F0F80028438DF8000001236A460A21C7
:10224000204600F038FF401E8041C00F01B030BD75
:1022500030B581B00D46044601236A460A2100F0DC
:1022600041FF10B1002001B030BD9DF8000000F02A
:10227000870028438DF8000001236A460A21204682
:1022800000F019FF401E8041C00F01B030BD30B5D5
:1022900081B00D46044601236A460D2100F022FF5D
:1022A00010B1002001B030BD9DF8000000F0DF004B
:1022B00028438DF8000001236A460D21204600F0D6
:1022C000FAFE401E8041C00F01B030BD30B581B074
:1022D0000D46044601236A460D2100F003FF10B1AC
:1022E000002001B030BD9DF8000000F07F002843C1
:1022F0008DF8000001236A460D21204600F0DBFE28
:10230000401E8041C00F01B030BD30B581B00D46D8
:10231000044601236A46122100F0E4FE10B10020B9
:1023200001B030BD9DF8000000F0FB0028438DF89F
:10233000000001236A461221204600F0BCFE401E28
:102340008041C00F01B030BD30B581B00D460446AC
:1023500001236A46142100F0C5FE10B1002001B02F
:1023600030BD9DF8000000F0FC0028438DF800000F
:1023700001236A461421204600F09DFE401E804144
:10238000C00F01B030BD30B581B00D460446012309
:102390006A46142100F0A6FE10B1002001B030BD45
:1023A0009DF8000000F0F30028438DF800000123A1
:1023B0006A461421204600F07EFE401E8041C00F78
:1023C00001B030BD30B581B00D46044601236A46E8
:1023D000192100F087FE10B1002001B030BD9DF83A
:1023E000000000F0FD0028438DF8000001236A463C
:1023F0001921204600F05FFE401E8041C00F01B051
:1024000030BD30B581B00D46044601236A4619211E
:1024100000F068FE10B1002001B030BD9DF8000052
:1024200000F0F70028438DF8000001236A461921C7
:10243000204600F040FE401E8041C00F01B030BD7C
:1024400030B581B00D46044601236A46192100F0DB
:1024500049FE10B1002001B030BD9DF8000000F031
:10246000EF0028438DF8000001236A461921204619
:1024700000F021FE401E8041C00F01B030BD30B5DC
:1024800081B00D46044601236A46192100F02AFE58
:1024900010B1002001B030BD9DF8000000F0FB003D
:1024A00028438DF8000001236A461921204600F0D8
:1024B00002FE401E8041C00F01B030BD10B50C4679
:1024C000012322461B2100F00DFE08B1002010BDA3
:1024D000207800F008002070012010BD10B50C46D7
:1024E000012322461B2100F0FDFD08B1002010BD94
:1024F000207800F020002070012010BD10B50C469F
:10250000012322461C2100F0EDFD08B1002010BD82
:10251000207800F010002070012010BD10B50C468E
:10252000012322461C2100F0DDFD08B1002010BD72
:10253000207800F020002070012010BD10B50C465E
:10254000012322461D2100F0CDFD08B1002010BD61
:10255000207800F001002070012010BD10B50C465D
:10256000012322461D2100F0BDFD08B1002010BD51
:10257000207800F002002070012010BD10B50C463C
:10258000012322461D2100F0ADFD08B1002010BD41
:10259000207800F004002070012010BD10B50C461A
:1025A000012322461D2100F09DFD08B1002010BD31
:1025B000207800F008002070012010BD10B50C46F6
:1025C000012322461D2100F08DFD08B1002010BD21
:1025D000207800F010002070012010BD10B50C46CE
:1025E000012322461D2100F07DFD08B1002010BD11
:1025F000207800F020002070012010BD10B50C469E
:10260000012322461D2100F06DFD08B1002010BD00
:10261000207800F040002070012010BD10B50C465D
:10262000012322461E2100F05DFD08B1002010BDEF
:10263000207800F001002070012010BD10B50C467C
:10264000012322461E2100F04DFD08B1002010BDDF
:10265000207800F002002070012010BD30B581B05C
:102660000D46044601236A463A2100F03BFD38B985
:1026700001230DF101023B21204600F033FD10B192
:10268000002001B030BD9DF801009DF8001000F061
:102690000F0041EA0020288001B0012030BD10B5B4
:1026A0000C46012322463B2100F01CFD08B100200E
:1026B00010BD207800F010002070012010BD10B572
:1026C0000C46012322463B2100F00CFD08B10020FE
:1026D00010BD207800F020002070012010BD10B542
:1026E0000C46012322463B2100F0FCFC08B10020EF
:1026F00010BD207800F040002070012010BD30B5E2
:1027000081B00D46044601236A463C2100F0EAFCF4
:1027100038B901230DF101023D21204600F0E2FC11
:1027200010B1002001B030BD9DF801009DF80010EF
:1027300000F0030041EA0020288001B0012030BDF4
:1027400010B50C4601232246532100F0CBFC08B102
:10275000002010BD207800F010002070012010BD76
:1027600010B50C4601232246532100F0BBFC08B1F2
:10277000002010BD207800F020002070012010BD46
:1027800030B581B00D46044601236A46582100F059
:10279000A9FC10B1002001B030BD9DF8000000F090
:1027A000FE0028438DF8000001236A465821204688
:1027B00000F081FC401E8041C00F01B030BD30B53B
:1027C00081B00D46044601236A46582100F08AFC78
:1027D00010B1002001B030BD9DF8000000F0FD00F8
:1027E00028438DF8000001236A465821204600F056
:1027F00062FC401E8041C00F01B030BD30B581B0D9
:102800000D46044601236A46582100F06BFC10B1C6
:10281000002001B030BD9DF8000000F0FB0028430F
:102820008DF8000001236A465821204600F043FC41
:10283000401E8041C00F01B030BD30B581B00D46A3
:10284000044601236A46582100F04CFC10B10020D8
:1028500001B030BD9DF8000000F0F70028438DF86E
:10286000000001236A465821204600F024FC401E47
:102870008041C00F01B030BD30B581B00D46044677
:1028800001236A46582100F02DFC10B1002001B050
:1028900030BD9DF8000000F07F0028438DF8000057
:1028A00001236A465821204600F005FC401E804165
:1028B000C00F01B030BD30B581B00D4604460123D4
:1028C0006A46592100F00EFC10B1002001B030BD65
:1028D0009DF8000065F304008DF8000001236A46AE
:1028E0005921204600F0E7FB401E8041C00F01B097
:1028F00030BD30B581B00D46044601236A465921EA
:1029000000F0F0FB10B1002001B030BD9DF80000D8
:1029100000F09F0028438DF8000001236A465921EA
:10292000204600F0C8FB401E8041C00F01B030BD02
:1029300030B581B00D46044601236A465A2100F0A5
:10294000D1FB10B1002001B030BD9DF8000065F34F
:1029500001008DF8000001236A465A21204600F04C
:10296000AAFB401E8041C00F01B030BD30B581B020
:102970000D46044601236A465A2100F0B3FB10B10C
:10298000002001B030BD9DF8000065F383008DF894
:10299000000001236A465A21204600F08CFB401EAD
:1029A0008041C00F01B030BD30B581B00D46044646
:1029B00001236A465A2100F095FB10B1002001B0B6
:1029C00030BD9DF8000000F00F0040EA05108DF8C2
:1029D000000001236A465A21204600F06CFB401E8D
:1029E0008041C00F01B030BD30B581B00D46044606
:1029F00001236A465B2100F075FB10B1002001B095
:102A000030BD9DF8000065F305008DF8000001233E
:102A10006A465B21204600F04EFB401E8041C00FFD
:102A200001B030BD30B581B00D46044601236A4681
:102A30005B2100F057FB10B1002001B030BD9DF8C4
:102A4000000000F07F0028438DF8000001236A4653
:102A50005B21204600F02FFB401E8041C00F01B0DB
:102A600030BD30B581B00D46044601236A465C2175
:102A700000F038FB10B1002001B030BD9DF800001F
:102A800065F303008DF8000001236A465C212046AF
:102A900000F011FB401E8041C00F01B030BD30B5C9
:102AA00081B00D46044601236A465C2100F01AFB02
:102AB00010B1002001B030BD9DF8000000F0EF0023
:102AC00028438DF8000001236A465C21204600F06F
:102AD000F2FA401E8041C00F01B030BD30B581B068
:102AE0000D46044601236A465C2100F0FBFA10B152
:102AF000002001B030BD9DF8000065F346108DF850
:102B0000000001236A465C21204600F0D4FA401EF2
:102B10008041C00F01B030BD30B581B00D460446D4
:102B200001236A465D2100F0DDFA10B1002001B0FA
:102B300030BD9DF8000000F0F80028438DF800003B
:102B400001236A465D21204600F0B5FA401E80410F
:102B5000C00F01B030BD70B582B0044601236A4693
:102B60000E465D2100F0BEFA7509A8B99DF8000077
:102B700000F0070040EAC6008DF8000001236A4615
:102B80005D21204600F097FA30B901236A465C21A6
:102B9000204600F0A7FA10B1002002B070BD9DF8E9
:102BA000000000F07F0040EAC5108DF8000001230E
:102BB0006A465C21204600F07EFA401E8041C00F2C
:102BC00002B070BD30B581B00D46044601236A469F
:102BD0005E2100F087FA10B1002001B030BD9DF8F1
:102BE000000000F0FD0028438DF8000001236A4634
:102BF0005E21204600F05FFA401E8041C00F01B008
:102C000030BD30B581B00D46044601236A465E21D1
:102C100000F068FA10B1002001B030BD9DF800004E
:102C200000F0FB0028438DF8000001236A465E2176
:102C3000204600F040FA401E8041C00F01B030BD78
:102C400030B581B00D46044601236A465E2100F08E
:102C500049FA10B1002001B030BD9DF8000000F02D
:102C6000F70028438DF8000001236A465E212046C4
:102C700000F021FA401E8041C00F01B030BD30B5D8
:102C800081B00D46044601236A465E2100F02AFA0F
:102C900010B1002001B030BD9DF8000000F0EF0041
:102CA00028438DF8000001236A465E21204600F08B
:102CB00002FA401E8041C00F01B030BD30B581B076
:102CC0000D46044601236A465E2100F00BFA10B15E
:102CD000002001B030BD9DF8000000F0DF00284367
:102CE0008DF8000001236A465E21204600F0E3F9DA
:102CF000401E8041C00F01B030BD30B581B00D46DF
:102D0000044601236A465E2100F0ECF910B1002070
:102D100001B030BD9DF8000000F0BF0028438DF8E1
:102D2000000001236A465E21204600F0C4F9401EDF
:102D30008041C00F01B030BD30B50D4681B00446B2
:102D400001232A463E2100F0CDF930B901236A1C47
:102D50003F21204600F0C6F910B1002001B030BD7F
:102D6000012001B030BD30B50D4681B004460123CD
:102D70002A464B2100F0B6F930B901236A1C4C21D8
:102D8000204600F0AFF910B1002001B030BD0120A5
:102D900001B030BD30B581B00D46044601236A460E
:102DA000012100F09FF958B99DF8000040F0800023
:102DB0008DF8000001236A460121204600F07BF9CE
:102DC00001230DF101020F21204600F08BF99DF83F
:102DD000010065F304008DF8010001230DF10102EB
:102DE0000F21204600F067F901236A4601212046A1
:102DF00000F078F958B99DF8000000F07F008DF8D8
:102E0000000001236A460121204600F054F9012008
:102E100001B030BD4FF0807C1CEB400F94BF1CEB29
:102E2000410F05E040EA010C5FEA4C0C01D28842F8
:102E3000704718BF81427047002840F10780F44670
:102E4000404200F003F850F0004060470AD0B0FA6A
:102E500080F18840D1F19D01C905020672F100425E
:102E600041EB102070470000FF2212EAD05C1DBF2A
:102E700012EAD153944593422BE09C44D30780EA55
:102E800001021A4043EA002043EA0121A1FB00307D
:102E9000410038BF40007CF17F010BDBFE294ADA9C
:102EA0005B0842EAC15153EA006373F1004C51EBF5
:102EB00010207047D1F1080CDCF120012FDB5B08FA
:102EC00010FA01F10B4373F1004120FA0CF050416C
:102ED000704794451CBF02EAD153934280EA010235
:102EE00002F000421DD0400019D0490017D05BB954
:102EF000634514D00902B1FA81F39940BCEB030C8D
:102F0000C00140F00040C1E70002B0FA80FC10FAB6
:102F10000CF0B3EB0C0CC90141F00041B6E7100016
:102F2000704740000AD0490008D010F1807F94BF5C
:102F300011F1807F02E042F0FF407047D0437047BC
:102F40004100090E7F3915D4D1F11F0114D440007E
:102F500007D2C00140F00040C84048BF6FF00040B9
:102F60007047C00140F00040C8404CBF4FF00040E7
:102F7000404270470020704700424FF0004058BF69
:102F8000C043704730B58F4C87B0204600F09CFDA1
:102F9000002847D18C488D4D606001A90020A060B9
:102FA0003320E0604FF480402061894820606868E9
:102FB00040F002006860686800F00200009000982D
:102FC0004FF44070019012200290022004900020E3
:102FD0000390042005907F4800F07AFDE86840F4F3
:102FE0000010E8600022E86800F400100090002162
:102FF0000098286840F400102860286820F4001029
:1030000028601F2000F061FE1F2000F087FE0022D4
:103010000021202000F059FE202000F07FFE2046F5
:1030200000F0DEF8204600F04FFD20280CBF002005
:10303000012007B030BD70B5674D684C654E8CB04F
:10304000286840F00200286006A9286800F0020005
:1030500000900098079420200690022009900020FC
:103060000890304600F034FD00220021172000F0C7
:103070002CFE172000F052FE286840F00200286065
:1030800001A9286800F00200009000980294102026
:1030900001900220049000200390304600F018FDBB
:1030A000002200210A2000F010FE0A2000F036FE67
:1030B00000200CB070BD30B583B04FF48055009245
:1030C00002950A460193012341783E4C204600F0C8
:1030D0002DF928B1204600F00FF900F01AF8012070
:1030E00003B030BD30B583B04FF4805500920295E7
:1030F0000A46019301234178324C204600F08BFAB6
:1031000028B1204600F0F8F800F003F8012003B0E1
:1031100030BD30B52B4C87B0204600F0D5FC0028E0
:1031200047D12948294D606001A90020A0603320C3
:10313000E0604FF48040206125482060686840F0DE
:1031400002006860686800F00200009000984FF488
:103150004070019012200290022004900020039001
:10316000042005901B4800F0B3FCE86840F4001010
:10317000E8600022E86800F4001000900021009848
:10318000286840F400102860286820F400102860A7
:103190001F2000F09AFD1F2000F0C0FD002200213A
:1031A000202000F092FD202000F0B8FD204600F025
:1031B00017F8204600F088FC20280CBF00200120D2
:1031C00007B030BD340B0020801A060018380240CA
:1031D00000540040000402401C380240000011105E
:1031E00070B504000CD094F8350020B984F8340090
:1031F000204600F06CFC01F001F93A49884201D206
:10320000012070BD242184F8351021680A68520815
:1032100052000A603449B0FBF1F221684B689B0907
:1032200042EA83134B60314923681D6A66688E4207
:1032300006D34FF4967672434FF47A76B2FBF6F2E9
:10324000521CAD0942EA85121A622268D369656888
:103250008D4208D26900B0FBF1F0C0F30B010429E4
:1032600013D2042011E0A16821B905EB4501B0FBA0
:10327000F1F005E019216943B0FBF1F040F4804022
:1032800001050CBF012040F40040194919400843D2
:10329000D06120680168E26921F0C0011143226A0F
:1032A000114301602068134A81681140226911436B
:1032B000E268114381602068C168A2696369090AF4
:1032C0001A4342EA0121C1602068016841F001010E
:1032D00001600020A063202084F83500002084F8DD
:1032E000360070BD80841E0040420F00A1860100A0
:1032F0000030FFFF007CFFFF10B5040001D101206A
:1033000010BD242084F83500206801684908490070
:103310000160204601F0A2F80020A06384F8350087
:1033200084F8360084F8340010BD00002DE9F04F19
:10333000054681B095F8350020288A4616469946FC
:103340001FD1DDF82880B8F1000F02D00B9C2000BF
:1033500003D1012001B0BDE8F08F01F081F80746EC
:1033600042F2117B2868816989070ED501F078F84F
:10337000C01B5845F6D3202085F83500002085F87D
:103380003400022001B0BDE8F08F95F83410012917
:10339000F7D0012185F83410016821F40061016043
:1033A000212085F83500402085F836000020A863EC
:1033B0002868016841F48071016001F051F80C9FA8
:1033C000834628684169C9071AD417F1010FF8D05C
:1033D0002FB101F045F8A0EB0B008742F1D220207D
:1033E00085F83500002085F83400A86B042840F0EB
:1033F000AE80002085F8340001B00120BDE8F08FD8
:103400000AF0FE01016101F02BF88246286841694B
:10341000890741691ED449050AD5016841F4007144
:1034200001606FF48060296848610420A86309E0A6
:1034300017F1010FEAD02FB101F012F8A0EB0A004A
:103440008742E3D2202085F83500002085F834003B
:10345000A86BCAE7009180690090009801F000F81D
:10346000824629684869000624D44869400513D576
:103470006FF4806048610420A863202085F835003F
:10348000002085F83400A86B0428AED128680168B4
:1034900041F400710160A8E717F1010FE1D02FB1ED
:1034A00000F0DEFFA0EB0A008742DAD2A86B40F002
:1034B0002000E1E7B9F1010F25D0300A086100F0E2
:1034C000CFFF81462868416909061CD44169490536
:1034D00004D56FF48061416104200CE017F1010F05
:1034E000F0D02FB100F0BCFFA0EB09008742E9D279
:1034F000A86B40F02000A863202085F8350000204C
:1035000085F83400BFE72868F6B2066100F0A8FF2E
:1035100006462868416909062DD4416949051DD52B
:103520006FF4806141610420A863202085F8350094
:10353000002085F83400A86B04280BD128680168A6
:1035400041F400710160012001B0BDE8F08F00205E
:1035500085F83400032001B0BDE8F08F17F1010FAA
:10356000D7D027B100F07CFF801B8742D1D2A86B57
:1035700040F02000D8E718F8011B0161641E28689C
:103580004169490723D4A0B20028BFD100F068FFE9
:1035900004462868416909062ED4416949051ED5AB
:1035A0006FF4806141610420A863202085F8350014
:1035B000002085F83400A86B0428CBD12868016866
:1035C00041F400710160012001B0BDE8F08FA1B2AB
:1035D0000029DBD018F8011B0161641ED3E717F145
:1035E000010FD6D027B100F03BFF001B8742D0D29D
:1035F000A86B40F02000D7E7016841F4007101603A
:10360000202085F83500002085F8360085F8340044
:1036100001B0BDE8F08F2DE9F04F054681B095F877
:10362000350020280E46924698461FD1DDF8289096
:10363000B9F1000F02D00B9C200003D1012001B092
:10364000BDE8F08F00F00CFF074642F2117B2868BE
:10365000816989070ED500F003FFC01B5845F6D3DA
:10366000202085F83500002085F83400022001B0C4
:10367000BDE8F08F95F834100129F7D0012185F8C5
:103680003410016821F400610160222085F83500C2
:10369000402085F836000020A8632868016841F4BE
:1036A000806101602868016841F48071016000F068
:1036B000D7FE0C9F834628684169C9070CD417F1CF
:1036C000010FF8D0002F00F0C78000F0C9FEA0EB7A
:1036D0000B008742EFD2BFE006F0FE01016100F06F
:1036E000BFFE834628684169890741691DD44905A1
:1036F0000AD5016841F4007101606FF480602968A7
:1037000048610420A86309E017F1010FEAD02FB146
:1037100000F0A6FEA0EB0B008742E3D2202085F844
:103720003500002085F83400BBE0009180690090EE
:10373000009800F095FE83462968486900061CD46D
:10374000486940050BD56FF4806048610420A86388
:10375000202085F83500002085F834005EE017F160
:10376000010FE9D02FB100F07BFEA0EB0B008742E8
:10377000E2D2A86B40F02000E9E7B8F1010F26D0B3
:103780004FEA1A20086100F06BFE80462868416904
:1037900009061CD44169490504D56FF48061416173
:1037A00004200CE017F1010FF0D02FB100F058FE0B
:1037B000A0EB08008742E9D2A86B40F02000A86384
:1037C000202085F83500002085F8340026E02868A0
:1037D0005FFA8AF1016100F043FE82462868416980
:1037E000090624D44169490504D56FF4806141611B
:1037F00004200CE017F1010FF0D02FB100F030FEE3
:10380000A0EB0A008742E9D2A86B40F02000A86331
:10381000202085F83500002085F83400A86B0428A6
:1038200040D12868016841F4007101603AE0016804
:1038300041F48071016000F013FE824628684169FE
:10384000C90710D417F1010FF8D02FB100F008FE0E
:10385000A0EB0A008742F1D2202085F83500002035
:1038600085F834001EE046F00101C9B2016100F0A4
:10387000F7FD064628684169890728D4416949054A
:103880001AD5016841F4007101606FF48060296805
:1038900048610420A863202085F83500002085F8C1
:1038A0003400A86BA86B042822D1002085F83400CE
:1038B00001B00120BDE8F08F17F1010FDAD0002F21
:1038C000E9D000F0CDFD801B8742D3D2E3E7012C85
:1038D00015D1016821F48061016028684169009177
:1038E000816900910099016841F40071016017E05D
:1038F000002085F8340001B00320BDE8F08F022CD1
:1039000009D1016821F4806101602868016841F4EF
:103910000061016028684169009180690090009809
:10392000A4B2042C80F29B80012C38D100F098FDC9
:1039300006462868416949061FD44169C90612D55F
:103940006FF0100141610020A863202085F8350048
:10395000002085F83400A86B20287FF46FAE032088
:1039600001B0BDE8F08F27B100F07AFD801B8742DF
:10397000DFD2A86B40F02000E6E7006909F8010BF0
:103980000024A0B20028CBD1202085F835000020EB
:1039900085F8360085F8340001B0BDE8F08F022CC0
:1039A0001DD100F05DFD06462868416949070CD429
:1039B00017F1010FF8D027B100F052FD801B8742AC
:1039C000F2D2202085F8350092E7016841F40071B9
:1039D00001602868006909F8010B2868CDE700F04C
:1039E0003FFD06462868416949070CD417F1010FCD
:1039F000F8D027B100F034FD801B8742F2D220209E
:103A000085F8350074E7016821F480610160286859
:103A1000006989F8000000F023FD06462868416926
:103A200049070CD417F1010FF8D027B100F018FDA9
:103A3000801B8742F2D2202085F8350058E70168C4
:103A400041F400710160E41E2868006989F80100F2
:103A50002868006989F8020009F1030991E700F07C
:103A6000FFFC06462868416949061FD44169C9061A
:103A700012D56FF0100141610020A863202085F865
:103A80003500002085F83400A86B20287FF4D6ADDF
:103A9000032001B0BDE8F08F27B100F0E1FC801BEE
:103AA0008742DFD2A86B40F02000E6E7006909F802
:103AB000010B641E2868416949077FF562AF006900
:103AC00009F8010B641E5CE790F8350070477047F9
:103AD0002DE9F04F81B00C686A4BDFF8AC81DFF85C
:103AE000AC910022002C4FF00F0A4FF0010B00F0B8
:103AF000B1800C680BFA02FC1CEA040E00F0A580F1
:103B00004C68022C18BF122C0ED1D40800EB840490
:103B10009500266A05F01C050AFA05F7BE430F69F1
:103B200007FA05F5354325625400032506680F7929
:103B3000A540ED4307F003072E40A7403E43066033
:103B40004E68012E18BF022E03D0112E18BF122E60
:103B50000ED18668CF682E40A7403E4386604668F7
:103B600026EA0C074E68C6F3001696403E434660B0
:103B7000C6682E408D6805FA04F43443C4604C686E
:103B8000E40062D5D9F8004044F00104C9F80040CF
:103B90004FEA920CD9F8005005F00104009495000A
:103BA000009C58F82C6005F00C040AFA04F526EA8B
:103BB0000505374EB04208BF00261DD0354EB04235
:103BC00008BF012618D0344EB04208BF022613D0D9
:103BD000324EB04208BF03260ED0314EB04208BF6D
:103BE000042609D02F4EB04208BF052604D02E4E21
:103BF000B0420CBF0626072606FA04F42C4348F808
:103C00002C406FEA0E061C684D683440ED0348BF37
:103C10004EEA04041C605C684D683440AD0348BF44
:103C20004EEA04045C609C684D683440ED0248BF75
:103C30004EEA04049C60DC6806EA040C4C68A402AA
:103C400048BF4EEA0C0CC3F80CC0521C0C68D440A0
:103C50007FF44FAF01B0BDE8F08F0000006908406D
:103C6000401E8041C043C00F704702B90904816102
:103C700070470E4A136803421CBF106001F0A1B9DF
:103C80007047000000040140080001402038024055
:103C9000000002400004024000080240000C024004
:103CA00000100240001402400018024014040140B9
:103CB00027490A684FF6FF0300021A4000F4E0604B
:103CC0001043244A10430860704730B4204B1B68EF
:103CD000C3F30223C3F10704052C28BF04241D1DD0
:103CE000072D34BF0023DB1E012505FA04F4641EF2
:103CF0002140994005FA03F35B1E1A401143090164
:103D0000002807D5144A00F00F00104400F8041CE6
:103D100030BC7047114A115430BC7047012100F08B
:103D20001F0291400E4A400942F820107047401E81
:103D3000B0F1807F01D3012070470A494860F0202C
:103D400081F8130D0020886007200860002070476C
:103D50000CED00E00000FA0518ED00E000E400E0E2
:103D600000E100E010E000E0F0B5044681B020780A
:103D7000DFF8B056C00752D5A86800F00C0008283C
:103D800007D0A86800F00C000C280DD1A868C0036B
:103D90000AD52868C0F34040002840D06068002859
:103DA0003DD1012001B0F0BD6068012803D1286831
:103DB00040F4803012E008B9286809E00528286836
:103DC00006D140F480202860286840F4803005E067
:103DD00020F480302860286820F480202860606803
:103DE00070B100F03DFB06462868C0F34040B0B912
:103DF00000F036FB801B6528F6D3032001B0F0BD30
:103E000000F02EFB06462868C0F3404038B100F0B1
:103E100027FB801B6528F6D3032001B0F0BD207876
:103E200080071BD5A86800F00C00042807D0A868FC
:103E300000F00C000C2832D1A868C0032FD42868E9
:103E4000C0F3400000281CBFE0680128A9D16868C1
:103E5000216920F4F85040EA012068602078C0060B
:103E600040F1C180A86810F00C0F40F0D78028689E
:103E7000C0F3402010B1A069002892D0266A68687B
:103E800000F46040B04269D2A868002710F0F00F3B
:103E900048D1686AC00029D501F0F8FA35E0E06839
:103EA000DFF8887588B10120386000F0D9FA06463D
:103EB0002868C0F340000028C9D100F0D1FA801B67
:103EC0000328F5D3032001B0F0BD386000F0C8FA34
:103ED00006462868C0F340000028BFD000F0C0FAB2
:103EE000801B0328F5D3032001B0F0BD686A40F0C1
:103EF00080506862686A00F080500090009801F07D
:103F0000C5FA696A21F080516962B0F5C05F08BFE7
:103F1000B6F5404F06D1D5F8000440F00400012763
:103F2000C5F80004D5F80004400847EA4000C5F889
:103F30000004D5F8000400F00100B8427FF431AF6E
:103F40006868216A20F46040084368606868E16935
:103F500020F07F4040EA0160686041E0686820F43A
:103F600060403043686000276868E16920F07F4066
:103F700040EA01606860266AA86810F0F00F21D15D
:103F8000686AC00002D501F081FA0EE0686A40F06C
:103F900080506862686A00F080500090009801F0DC
:103FA00075FA696A21F080516962B0F5C05F08BF97
:103FB000B6F5404F06D1D5F8000440F004000127C3
:103FC000C5F80004D5F80004400847EA4000C5F8E9
:103FD0000004D5F8000400F00100B8427FF4E1AE1F
:103FE0000F2001F05BFA207800075CD56069DFF8EC
:103FF0003C74002846D00120C7F8800600F030FA53
:104000000646686BC0F3400000284CD100F028FA47
:10401000801B0328F5D3032001B0F0BDA069DFF8B1
:104020000C74F0B10120386200F01AFA06462868D4
:10403000C0F3402038B900F013FA801B0328F6D3F0
:10404000032001B0F0BD6868216A20F46040084395
:1040500068606868E16920F07F4040EA016068605C
:10406000C1E7386200F0FCF906462868C0F340203A
:104070000028B8D000F0F4F9801B0328F5D3032002
:1040800001B0F0BDC7F8800600F0EAF90646686B9B
:10409000C0F3400038B100F0E3F9801B0328F6D3E9
:1040A000032001B0F0BD207840075BD5686ADFF8D7
:1040B000807340F080506862686A00F08050009021
:1040C0000098386840F48070386000F0C9F90646FE
:1040D0003868C00507D400F0C3F9801B6528F7D302
:1040E000032001B0F0BDA068012803D1686B40F443
:1040F000807012E008B9686B09E00528686B06D18A
:1041000040F480606863686B40F4807005E020F4E0
:1041100080706863686B20F480606863A06880B119
:1041200000F09EF9064641F28937686BC0F34020E3
:10413000C0B900F095F9801BB842F6D3032001B056
:10414000F0BD00F08DF9064641F28937686BC0F387
:10415000402038B100F084F9801BB842F6D3032028
:1041600001B0F0BD606A002846D0A96801F00C01DA
:104170000C293FF416AE0228DFF8B0722BD10020D4
:10418000386600F06DF906462868C0F3406038B123
:1041900000F066F9801B0328F6D3032001B0F0BDC0
:1041A000A868A16A20F47D000843E16A0843216BF6
:1041B0000843A8600120386600F052F906462868D6
:1041C000C0F34060C0B900F04BF9801B0328F6D360
:1041D000032001B0F0BD0020386600F041F906462A
:1041E0002868C0F3406038B100F03AF9801B03281A
:1041F000F6D3032001B0F0BD002001B0F0BDF0B552
:10420000DFF8206281B00446D6F800040D4600F0C5
:104210000100A84215D2012D05D1D6F8000440F0C6
:104220000400C6F80004D6F80004400845EA40003F
:10423000C6F80004D6F8000400F00100A84240F0DF
:104240008B802078800705D5B068A16820F0F00049
:104250000843B0602078C00763D56068022803D1A6
:104260003168C1F340410AE0032803D13168C1F34A
:10427000406104E00128316805D1C1F3400131B942
:10428000012001B0F0BDC1F34021002964D0B16824
:10429000890840EA8100B06000F0E2F807466068F3
:1042A00002280ED1B06800F00C00082839D000F0C8
:1042B000D7F8C01B41F289318842F3D3032001B003
:1042C000F0BD03280ED1B06800F00C000C2828D0F7
:1042D00000F0C6F8C01B41F289318842F3D30320B5
:1042E00001B0F0BD01280ED1B06800F00C00042828
:1042F00017D000F0B5F8C01B41F289318842F3D3E2
:10430000032001B0F0BDB06810F00C0F09D000F030
:10431000A7F8C01B41F289318842F4D3032001B0D1
:10432000F0BDD6F8000400F00100854217D2012D3F
:1043300005D1D6F8000440F00400C6F80004D6F811
:104340000004400845EA4000C6F80004D6F800041E
:1043500000F00100A84202D0012001B0F0BD207899
:10436000400705D5B068E16820F4E0600843B0601C
:104370002078000706D5B068216920F4605040EA33
:10438000C100B06000F00EF8B2682A49C2F303120F
:10439000895CC840244908600F2001F07FF80020A4
:1043A00001B0F0BD2548416801F00C02042A04D098
:1043B000082A04D00C2A04D016E02148704721486E
:1043C00070470FF28C02C1F38343C1F38151D25C79
:1043D0000FF27803595C4068C0034CBF1948184875
:1043E0005043B0FBF1F070470068400B00F007004D
:1043F0000121401C01FA00F0C00370470A480E4A30
:10440000006812681049C2F30222895CC8407047F4
:104410000548094A006812680B49C2F3C222895C48
:10442000C840704700380240340300200000474273
:1044300000700040907900080838024004380240BB
:104440000024F40000127A00AC7A00080102030490
:10445000030406080C10182030000000704700000C
:1044600001480068704700BF9C0B00202DE9F04117
:1044700001F028F801F040F8002001F095F8012142
:10448000002001F0D0F801F025F9DFF8DC4B211D08
:10449000002001F079F9012834D004F1080100204E
:1044A00001F082FA01282DD0606801F01DFA012880
:1044B00004D0A06801F0D8FA012847D10FF6D03215
:1044C000DFF8A81B04F1300001F02CFB04F13000F0
:1044D00001F042FB82B241F2883304F13001DFF88F
:1044E000900B01F083FB002001F087F84FF47A7005
:1044F00001F01CFD002001F08BF84FF47A7001F000
:1045000015FDF0E70FF68832DFF8601B04F130008C
:1045100001F008FB04F1300001F01EFB82B241F211
:10452000883304F13001DFF8480B01F05FFB002015
:1045300001F063F84FF47A7001F0F8FC002001F00C
:1045400067F84FF47A7001F0F1FCF0E70FF64831AC
:10455000DFF81C5BDFF81C7B0FF6683804F13000D5
:1045600001F0E0FA04F1300001F0F6FA41F2883689
:1045700082B2334604F13001284601F037FB01E0F6
:1045800001202070207810B101284CD068E000F0A4
:1045900089F8012821D10FF6F822DFF8D01A04F1AA
:1045A000300001F0BFFA04F1300001F0D5FA82B218
:1045B000334604F13001284601F018FB002001F0D9
:1045C0001CF84FF47A7001F0B1FC002001F020F8E3
:1045D0004FF47A7001F0AAFCF0E700F0B5FA012878
:1045E000CED10FF6AC22DFF8841A04F1300001F0CE
:1045F00099FA04F1300001F0AFFA82B2334604F1C7
:104600003001284601F0F2FA002000F0F6FF4FF4E6
:104610007A7001F08BFC002000F0FAFF4FF47A7002
:1046200001F084FCF0E7414604F1300001F07AFA31
:1046300004F1300001F090FA82B2334604F1300107
:10464000284601F0D3FA386820F0020038600121D2
:10465000002001F079FC386840F00200386091E7F2
:104660000FF62C22DFF8041A04F1300001F05AFA98
:1046700004F1300001F070FA82B2334604F13001E7
:10468000284601F0B3FA002000F0B7FF4FF47A702B
:1046900001F04CFC002000F0BBFF4FF47A7001F0F9
:1046A00045FCF0E72DE9F04F89B000208DF80000BF
:1046B00006ADDFF8B4490FF6382104F1300001F0FF
:1046C00031FA04F1300001F047FA82B241F2883346
:1046D00004F13001DFF8980901F088FA4FF47A709C
:1046E00001F024FC5FF0000000F087FF04F10C08EB
:1046F0004FF00A0B18F8011B60682A4601F017F901
:10470000012800F0A3806D1CBBF1010B7FF4F2AF18
:1047100004F1180504F10C084FF00A0B15F8012BF1
:1047200018F8011B606801F012F9012800F08E8072
:10473000BBF1010BF2D1642001F0F8FB60680DF1D0
:10474000010101F011F9012800F080809DF80100BD
:104750000028F3D0606801A901F0D6F8012875D0CF
:104760000025A846052660680DF1010101F0FCF85E
:1047700001286BD09DF801000028F4D0606801A9E1
:1047800001F0C2F8012861D00198451902988044CF
:104790000398761E8344E6D1052095FBF0F598FB3F
:1047A000F0F89BFBF0FB6068012101F0EDF80128B7
:1047B0004CD0642001F0BAFB60680DF1010101F0FA
:1047C000D3F8012842D09DF801000028F4D0606899
:1047D00001A901F099F8012838D04FF00009CA4624
:1047E000052760680DF1010101F0BEF801282DD008
:1047F0009DF801000028F4D0606801A901F084F858
:10480000012823D0019886190298814403987F1EBD
:104810008244E6D1052096FBF0F699FBF0F99AFB6D
:10482000F0FA06A805900A2704F10C0004900598F8
:10483000401C059010F8012D0498401C049010F8BD
:10484000011D606801F083F8012803D1012009B03F
:10485000BDE8F08F7F1EEAD1701BFEF7EDFADFF89E
:10486000187820F000403946FEF7D4FA09D3701BBF
:10487000FEF7E2FA20F00040DFF8001801F07AFBC2
:1048800002D801208DF80000A9EB0800FEF7D4FA49
:1048900020F000403946FEF7BDFA0AD3A9EB080024
:1048A000FEF7CAFA20F00040DFF8D01701F062FBF3
:1048B00002D801208DF80000AAEB0B00FEF7BCFA2D
:1048C00020F000403946FEF7A5FA0DD3AAEB0B0005
:1048D000FEF7B2FA20F00040DFF8A01701F04AFB23
:1048E00088BF9DF8007000D801270FF6500104F131
:1048F000300001F017F904F1300001F02DF982B217
:1049000041F2883304F13001DFF8640701F06EF9F9
:104910000FF6480104F1300001F004F904F1300011
:1049200001F01AF982B241F2883304F13001DFF864
:10493000400701F05BF90FF6540104F1300001F07B
:10494000F1F804F1300001F007F982B241F2883346
:1049500004F13001DFF8180701F048F933462A4620
:104960000FF6580104F1300001F0DCF804F13000DA
:1049700001F0F2F882B241F2883304F13001DFF83D
:10498000F00601F033F94B4642460FF6540104F1AC
:10499000300001F0C7F804F1300001F0DDF882B218
:1049A00041F2883304F13001DFF8C40601F01EF94A
:1049B00053465A460FF64C0104F1300001F0B2F8AC
:1049C00004F1300001F0C8F882B241F2883304F1FA
:1049D0003001DFF89C0601F009F90FF64C0104F1F3
:1049E000300001F09FF804F1300001F0B5F882B218
:1049F00041F2883304F13001DFF8740601F0F6F873
:104A00000FF6440104F1300001F08CF804F130009D
:104A100001F0A2F882B241F2883304F13001DFF8EC
:104A2000500601F0E3F80FF2647104F1300001F078
:104A300079F804F1300001F08FF882B241F2883346
:104A400004F13001DFF8280601F0D0F840F2A4604C
:104A50000090701BFEF7F0F920F00040FEF770FAAE
:104A600003465A220FF6100104F1300001F05AF803
:104A700004F1300001F070F882B241F2883304F1A1
:104A80003001DFF8EC0501F0B1F840F2A4600090CD
:104A9000A9EB0800FEF7D0F920F00040FEF750FA2D
:104AA00003465A220FF2D07104F1300001F03AF8B7
:104AB00004F1300001F050F841F2883382B204F181
:104AC0003001DFF8AC0501F091F840F2A4600090ED
:104AD000AAEB0B00FEF7B0F920F00040FEF730FA29
:104AE00003465A220FF2907104F1300001F01AF8D7
:104AF00004F1300001F030F882B241F2883304F161
:104B00003001DFF86C0501F071F8002F0CBF0FF2D7
:104B100084710FF2AC7104F1300001F003F804F17C
:104B2000300001F019F882B241F2883304F130010B
:104B3000DFF83C0501F05AF8002000F069FD002084
:104B400009B0BDE8F08F00002DE9F04F89B00020DA
:104B50008DF8000006ADDFF810450FF2907104F1FA
:104B6000300000F0DFFF04F1300000F0F5FF82B20A
:104B700041F2883304F13001DFF8F40401F036F833
:104B80004FF47A7001F0D2F95FF0000000F035FDCB
:104B900004F10C084FF00A0B18F8011BA0682A4614
:104BA00000F085FF012800F0A3806D1CBBF1010B14
:104BB0007FF4F2AF04F1240504F10C084FF00A0B66
:104BC00015F8012B18F8011BA06800F080FF0128E0
:104BD00000F08E80BBF1010BF2D1962001F0A6F916
:104BE000A0680DF1010100F07FFF012800F0808036
:104BF0009DF801000028F3D0A06801A900F044FF4F
:104C0000012875D00025A8460526A0680DF10101F0
:104C100000F06AFF01286BD09DF801000028F4D055
:104C2000A06801A900F030FF012861D00198451962
:104C3000029880440398761E8344E6D1052095FBB4
:104C4000F0F598FBF0F89BFBF0FBA068042100F066
:104C50005BFF01284CD0322001F068F9A0680DF10B
:104C6000010100F041FF012842D09DF80100002819
:104C7000F4D0A06801A900F007FF012838D04FF058
:104C80000009CA460527A0680DF1010100F02CFFBC
:104C900001282DD09DF801000028F4D0A06801A9BA
:104CA00000F0F2FE012823D0019886190298814471
:104CB00003987F1E8244E6D1052096FBF0F699FB0F
:104CC000F0F99AFBF0FA06A805900A2704F10C0007
:104CD00004900598401C059010F8012D0498401C84
:104CE000049010F8011DA06800F0F1FE012803D126
:104CF000012009B0BDE8F08F7F1EEAD1701BFEF7DE
:104D00009BF8DF4F20F000403946FEF783F808D3C8
:104D1000701BFEF791F820F00040DA4901F02AF903
:104D200002D801208DF80000A9EB0800FEF784F8F6
:104D300020F000403946FEF76DF809D3A9EB0800D2
:104D4000FEF77AF820F00040CE4901F013F902D8BE
:104D500001208DF80000AAEB0B00FEF76DF820F0A3
:104D600000403946FEF756F80CD3AAEB0B00FEF7CD
:104D700063F820F00040C34901F0FCF888BF9DF8BB
:104D8000007000D801270FF2AC5104F1300000F0A0
:104D9000C9FE04F1300000F0DFFE82B241F2883338
:104DA00004F13001B24800F021FF0FF2B03104F1FC
:104DB000300000F0B7FE04F1300000F0CDFE82B20A
:104DC00041F2883304F13001A94800F00FFF0FF2DF
:104DD000BC3104F1300000F0A5FE04F1300000F019
:104DE000BBFE82B241F2883304F13001A04800F0EA
:104DF000FDFE33462A460FF2645104F1300000F004
:104E000091FE04F1300000F0A7FE82B241F2883337
:104E100004F13001964800F0E9FE4B4642460FF29D
:104E2000605104F1300000F07DFE04F1300000F02C
:104E300093FE82B241F2883304F130018C4800F0D5
:104E4000D5FE53465A460FF25C5104F1300000F093
:104E500069FE04F1300000F07FFE82B241F2883337
:104E600004F13001824800F0C1FE0FF25C5104F100
:104E7000300000F057FE04F1300000F06DFE82B209
:104E800041F2883304F13001794800F0AFFE0FF2AF
:104E9000B83104F1300000F045FE04F1300000F0BC
:104EA0005BFE82B241F2883304F13001704800F0B9
:104EB0009DFE0FF2D82104F1300000F033FE04F122
:104EC000300000F049FE82B241F2883304F1300133
:104ED000674800F08BFE6C480090701BFDF7ACFF3C
:104EE00020F00040FEF72CF80346684A0FF2FC4120
:104EF00004F1300000F016FE04F1300000F02CFE4A
:104F000082B241F2883304F13001594800F06EFE5C
:104F10005D480090A9EB0800FDF78EFF20F00040EF
:104F2000FEF70EF80346594A0FF2C04104F1300073
:104F300000F0F8FD04F1300000F00EFE41F288337D
:104F400082B204F130014A4800F050FE4E48009011
:104F5000AAEB0B00FDF770FF20F00040FDF7F0FF1B
:104F600003464A4A0FF2844104F1300000F0DAFDB2
:104F700004F1300000F0F0FD82B241F2883304F118
:104F800030013B4800F032FE002F0CBF0FF2784199
:104F90000FF29C4104F1300000F0C4FD04F1300038
:104FA00000F0DAFD82B241F2883304F1300130487A
:104FB00000F01CFE002000F02BFB002009B0BDE833
:104FC000F08F10B5B0F5005F06D1002000F069FB4E
:104FD00008B92549087010BD234C0FF27C420FF22E
:104FE000904104F1300000F09DFD04F1300000F02C
:104FF000B3FD82B241F2883304F130011C4800F065
:10500000F5FD002000F0F9FA4FF47A7000F08EFF01
:10501000002000F0FDFA4FF47A7000F087FFF0E70F
:1050200010B5114C0FF24841024604F1300000F077
:1050300079FD04F1300000F08FFD82B241F2883337
:1050400004F130010A4800F0D1FD002000F0D5FA4B
:105050004FF47A7000F06AFF002000F0D9FA4FF4A4
:105060007A7000F063FFF0E7FC0100207054000844
:10507000B009002010E000E00000B4420180D444F8
:10508000007C124801E62A4960AE0A00F04902009D
:105090006D61696E000000000D0A2D2D2D2D2D2D46
:1050A000204C534D3644534C2073656C662D74650B
:1050B00073742044454D4F202D2D2D2D2D2D0D0A7F
:1050C000000000000D0A507265737320555345525D
:1050D00020627574746F6E20746F207374617274C3
:1050E000207468652044454D4F202E2E2E0D0A0059
:1050F0000D0A5374617274696E67204C534D3644C7
:10510000534C20616363656C65726F6D6574657285
:105110002073656C662D74657374202E2E2E0D0A17
:105120004B656570207468652064657669636520E9
:105130007374696C6C2121210D0A00000D0A4D6504
:1051400061737572656420616363656C6572617417
:10515000696F6E205B6D675D3A0D0A000D0A2020B5
:105160002020204158495320202020207C205052CC
:10517000452D53454C4654455354207C2020205304
:10518000454C46544553540D0A0000002D2D2D2D3D
:105190002D2D2D2D2D2D2D2D2D2D7C2D2D2D2D2DF0
:1051A0002D2D2D2D2D2D2D2D2D7C2D2D2D2D2D2DE0
:1051B0002D2D2D2D2D2D2D2D0D0A000020202020F0
:1051C000202020582020202020207C2025386C649E
:1051D00020202020207C2025386C640D0A0000004F
:1051E00020202020202020592020202020207C202A
:1051F00025386C6420202020207C2025386C640D0C
:105200000A000000202020202020205A20202020DA
:1052100020207C2025386C6420202020207C202524
:10522000386C640D0A0000000D0A54657374206C1C
:10523000696D69747320616E642064617461205BC0
:105240006D675D3A0D0A00000D0A20204C4F572073
:105250004C494D49542020207C2020444946464555
:1052600052454E434520207C202048494748204C49
:10527000494D49540D0A0000253864202020202083
:10528000207C2025386420202020207C20253864A4
:105290000D0A00000D0A4C534D3644534C206163F7
:1052A00063656C65726F6D657465722073656C669D
:1052B0002D7465737420504153534544210D0A00E9
:1052C0000D0A4C534D3644534C20616363656C6545
:1052D000726F6D657465722073656C662D7465738D
:1052E00074204641494C4544210D0A000D0A53746F
:1052F000617274696E67204C534D3644534C20677D
:1053000079726F73636F70652073656C662D746559
:105310007374202E2E2E0D0A4B65657020746865FF
:1053200020646576696365207374696C6C21212142
:105330000D0A00000D0A4D65617375726564206188
:105340006E67756C61722076656C6F636974792025
:105350005B6D6470735D3A0D0A0000002020202010
:10536000202020582020202020207C202025386C40
:1053700064202020207C202025386C640D0A000049
:1053800020202020202020592020202020207C2088
:105390002025386C64202020207C202025386C6457
:1053A0000D0A0000202020202020205A202020202C
:1053B00020207C202025386C64202020207C202088
:1053C00025386C640D0A00000D0A54657374206C56
:1053D000696D69747320616E642064617461205B1F
:1053E0006D6470735D3A0D0A0000000020202538BE
:1053F00064202020207C2020253864202020207C50
:1054000020202538640D0A000D0A4C534D364453B4
:105410004C206779726F73636F70652073656C667B
:105420002D7465737420504153534544210D0A0077
:105430000D0A4C534D3644534C206779726F736399
:105440006F70652073656C662D74657374204641BA
:10545000494C4544210D0A0048414C5F4750494F93
:105460005F455854495F43616C6C6261636B000037
:105470000D0A4572726F7220696E202725732720EE
:1054800066756E6374696F6E2E0D0A0002480068BF
:1054900000F4C050704700000070004010B5044692
:1054A000074800684FF47A71B0FBF1F0FEF73FFC5B
:1054B000002221464FF0FF30FEF707FC002010BD10
:1054C0003403002000B50A4881B0016841F00401AE
:1054D0000160016841F0020101600320FEF7E8FB72
:1054E0000F20FFF7DBFF00F005F8002001B000BD42
:1054F000003C02407047000010B594B001A80021A4
:10550000002200230EC006C000241EC01EC01EC004
:1055100001600220069010910120099010200A904D
:1055200002200F904FF4002011904FF400001290D1
:1055300006A8FEF719FC18B10FF25800FFF770FD2E
:105540001248016841F080510160006800F080500D
:10555000009000980E48016821F4C05141F40061A8
:1055600001604168C906FCD40F2001900394032018
:10557000029004940594012101A8FEF740FE18B1A1
:105580000FF21000FFF74CFD14B010BD243802409C
:105590000070004053797374656D436C6F636B5F8B
:1055A000436F6E666967000070B5040086B00AD16B
:1055B000DFF80401016841F001010160006800F0BA
:1055C0000100009000980FF20010DFF8F06030F852
:1055D000145001950120029001A90020039002209F
:1055E000049056F82400FEF773FA56F824000022BF
:1055F0002946FEF73AFB06B070BD0FF2CC01DFF88A
:10560000BC3031F8101053F820000122FEF72DBBFA
:105610000FF2B401DFF8A43031F8101053F8200075
:105620000022FEF722BB30B50446200087B00D46AD
:105630000AD1DFF88400016841F0040101600068CC
:1056400000F00400009000980FF2800030F8140081
:1056500001900020039001200490280008D1002030
:10566000029001A9DFF8580050F82400FEF730FA44
:10567000012D14D1DFF84C00029001A9DFF84000A1
:1056800050F82400FEF724FA0FF24400045D0022D3
:105690000F2160B2FEF719FB60B2FEF73FFB07B0C7
:1056A00030BD0FF22801DFF8182031F8101052F841
:1056B0002000FEF7D3BA00001C3802402C03002063
:1056C0003003002000002110200000000020000016
:1056D0002800000010B52848284C86B0016841F029
:1056E00001010160016801F0010100910099016868
:1056F00041F001010160016801F001010091009990
:10570000816841F40031816001A9806800F40030B3
:105710000090009804200190022002900020039045
:1057200002200490072005902046FEF7D1F90820BA
:10573000019001A9072005902046FEF7C9F9104CF9
:10574000104820604FF4E13060600020A060E0600D
:105750002061A0610C206061204600F019FA00B1C0
:10576000FEE704F14000A0624FF48070A0850020A5
:10577000E06306B010BD00001C380240000002408B
:10578000B00900200044004010B50C460021216003
:1057900068B10128204611D000F016F8012804D184
:1057A000204600F053F801280CD0002010BD204600
:1057B00000F00AF80128F8D1012010BD00F046F8E9
:1057C0000128F2D1012010BD30B5424D0446E878E1
:1057D000012881B038D0FDF7D5FB012834D06A20EC
:1057E0002870D620687000206880287101206871B8
:1057F00005F12800A8603848E86038482861384832
:10580000A86305F13800A8620020E8622560E86816
:105810000168080008D100200021002207C503C547
:10582000206001B0012030BD28468847012808D1FA
:105830002068142100F0B0FB0020206001B001209E
:1058400030BDFDF7F8FB002001B030BD30B5214D73
:105850000446E87D012881B039D0FDF793FB01288B
:1058600035D033202875322068750120A8750020B6
:10587000E87528760120687605F13000E86119485E
:1058800028620020686205F14000286300206863F8
:1058900005F114002060286A0168080005F1140071
:1058A00008D10021002200230EC006C02160012083
:1058B00001B030BD8847012808D12068142100F0CC
:1058C0006BFB0020206001B0012030BD002001B042
:1058D00030BD0000F00A00205C01002050000020D4
:1058E000A40B00200000002000B581B018B1C168F1
:1058F00089680A0002D1012001B000BD8847012853
:1059000018BF002001B000BD00B581B000281CBF49
:10591000C268002902D09269130002D1012001B0AF
:1059200000BD9047012818BF002001B000BD10B590
:1059300000281CBFC368002A02D05B6C1C0001D188
:10594000012010BD9847012818BF002010BD10B5D8
:1059500018B1C3689B6C1C0001D1012010BD984791
:10596000012818BF002010BD00B581B018B1C26871
:10597000D26C130002D1012001B000BD9047012874
:1059800018BF002001B000BD00281CBF0269002A1A
:1059900007D003786A2B04D1D2F8CC20130018BFAB
:1059A000104701207047000000B581B00022002898
:1059B0000A60084606D000F00CF8012806D0002046
:1059C00001B000BD00F005F80128F8D1012001B0B8
:1059D00000BD30B5204D0446E878012881B038D0AC
:1059E000FDF7D0FA012834D06A202870D6206870DC
:1059F0000020688028710120687105F11400A860FA
:105A00001648E860164828611648E86105F11C0050
:105A100068610020A8612560E8680168080008D175
:105A200000200021002207C503C5206001B001202D
:105A300030BD28468847012808D12068142100F08D
:105A4000ABFA0020206001B0012030BDFDF7F3FA71
:105A5000002001B030BD0000700B0020AC01002020
:105A600020010020A40B002000B581B018B1C1684E
:105A700089680A0002D1012001B000BD88470128D1
:105A800018BF002001B000BD00B581B000281CBFC8
:105A9000C268002902D09269130002D1012001B02E
:105AA00000BD9047012818BF002001B000BD10B50F
:105AB00000281CBFC368002A02D05B6C1C0001D107
:105AC000012010BD9847012818BF002010BD10B557
:105AD00018B1C3689B6C1C0001D1012010BD984710
