:020000040800F2
:1000000088050020D1490008A9490008AB4900082B
:10001000ED490008F1490008F5490008000000001A
:10002000000000000000000000000000F949000886
:10003000AD49000800000000FD490008AF49000874
:10004000014A0008054A0008094A00080D4A00084C
:10005000114A0008154A0008194A00081D4A0008FC
:10006000214A0008254A0008B3490008294A000827
:100070002D4A0008314A0008354A0008394A00086C
:100080003D4A0008414A0008454A000800000000B7
:10009000000000000000000000000000494A0008C5
:1000A0004D4A0008514A0008554A0008594A0008BC
:1000B0005D4A0008614A0008654A0008694A00086C
:1000C0006D4A0008714A0008754A0008794A00081C
:1000D0007D4A0008814A0008854A000800000000A7
:1000E000B9490008894A00088D4A0008000000004C
:1000F000000000000000000000000000914A00081D
:1001000000000000954A0008994A00089D4A00082E
:1001100000000000000000000000000000000000DF
:10012000A14A0008A54A0008A94A0008AD4A0008EB
:10013000B14A0008000000000000000000000000BC
:10014000000000000000000000000000B54A0008A8
:10015000B94A0008BD4A0008C14A0008C54A00085B
:10016000C94A0008CD4A0008000000000000000055
:10017000000000000000000000000000000000007F
:1001800000000000D14A000800000000000000004C
:10019000D54A000810B582B0044600208DF8000052
:1001A0006946204601F09CFA002831D09DF80000F5
:1001B000217888422CD10421204601F008FC38B374
:1001C0004021204601F098FA10B30021204601F0AA
:1001D00082FBE8B1A068DFF8B41800680160002174
:1001E000204601F0FBFA98B10021204601F0A3FA65
:1001F00070B10821204601F047FC48B1102120468B
:1002000001F071FC20B12021204601F09BFC10B9C7
:10021000012002B010BD0120E07002B0002010BD2E
:1002200030B5044681B0A068056800208DF8000054
:100230006946204601F054FA002800F094809DF8A9
:1002400000002178884240F08E800021204602F094
:10025000D6F8002800F087800021204602F03BF805
:10026000002800F080800021204602F015F80028C8
:1002700079D00021204602F084F8002873D00021B4
:10028000204601F0F6FE00286DD00021204601F046
:100290007FFB002867D00021204601F0ADFE00283A
:1002A00061D00021204601F09BFC00285BD000219A
:1002B000204602F02FF9002855D00021204602F0F8
:1002C000DCF800284FD00021204601F0B4FE0028C1
:1002D00049D00021204601F0EBFE002843D0002148
:1002E000204601F003FF00283DD00021204601F008
:1002F00007FE002837D00021204601F020FE00280C
:1003000031D00021204601F039FE60B300212046A3
:1003100002F056F838B30021204601F08CFE10B3ED
:100320000021204601F0C4FEE8B10021204601F082
:10033000DDFEC0B10021204601F0F6FE98B100219B
:10034000204601F02FFF70B10021204601F0D8FDBA
:1003500048B10021204601F0F2FD20B100212046E5
:1003600001F00CFE10B9012001B030BD0021204683
:1003700001F0E8FF0028F6D00021204601F01DFE24
:100380000028F0D00021204601F02AFC0028EAD005
:100390000021204602F052F80028E4D00021204637
:1003A00001F05CFF0028DED00021204601F0DCFED9
:1003B0000028D8D0207970B1A0680168204600F0EC
:1003C000ADF90128CFD00021204601F007FA00281E
:1003D000C9D00020207100202860E07001B030BD3D
:1003E00010B50446207901285CD0A068006890ED23
:1003F000000ADFED9B0AB4EE600AF1EE10FA48BF86
:10040000102147D4DFED970AB4EE600AF1EE10FA3E
:1004100048BF20213ED4DFED940AB4EE600AF1EE2D
:1004200010FA48BF302135D4DFED900AB4EE600AEF
:10043000F1EE10FA48BF40212CD4DFED8D0AB4EE66
:10044000600AF1EE10FA48BF502123D4DFEDAF0A65
:10045000B4EE600AF1EE10FA48BF60211AD4DFED65
:10046000AC0AB4EE600AF1EE10FA48BF702111D464
:10047000DFEDA80AB4EE600AF1EE10FA48BF802161
:1004800008D4DFEDA50AB4EE600AF1EE10FA4CBF15
:100490009021A021204601F0A1F908B9012010BD4A
:1004A00001202071002010BD30B5044681B02079B4
:1004B00000284DD0A06805686946204601F0ADF9D6
:1004C000002840D09DF80000002830D010282CD003
:1004D000202827D0302822D040281DD0502818D0DE
:1004E000602813D070280ED0802809D0902804D01E
:1004F000A02825D1DFF8AC0619E0DFF8A40616E045
:10050000DFF8980613E0DFF8900610E0DFF88406C5
:100510000DE0DFF87C060AE0DFF8700507E0DFF8A1
:10052000680504E0DFF88C0601E0DFF88C0628603F
:100530000021204601F052F940B9012001B030BD40
:10054000DFF878062860012001B030BD002020715E
:1005500001B030BD00B581B001F0C2F8401E80414D
:10056000C00F01B000BD10B582B0044600208DF868
:1005700000006946204601F0B3F820B19DF8000064
:100580002178884202D0012002B010BD002002B0C4
:1005900010BD00002DE9F04184B00C460021CDE9EA
:1005A00000118046694601F0F5F8002854D09DF806
:1005B00001109DF800209DF8040002EB01269DF833
:1005C00003109DF8022002EB01279DF8051000EBB7
:1005D000012502A9404601F0CDF800283CD09DF845
:1005E00008000C2838D8DFE800F010373737073715
:1005F00037370D3737370A009FED840A07E09FED44
:10060000840A04E09FED830A01E09FED830A36B27D
:1006100000EE906AF8EEE00A60EE800AFDEEE00A75
:10062000C4ED000A3FB200EE907AF8EEE00A60EE08
:10063000800AFDEEE00AC4ED010A2DB200EE905AE8
:10064000F8EEE00A20EE800ABDEEC00A84ED020A50
:10065000002004B0BDE8F081012004B0BDE8F081C5
:10066000010050410100D041010050420100D04240
:100670000100504310B582B00C4669460022C1E922
:10068000002201F087F810B9012002B010BD9DF8DA
:1006900001109DF8002002EB012121809DF802202D
:1006A0009DF8031002EB012161809DF804009DF884
:1006B000051000EB0120A08002B0002010BD00005A
:1006C00010B582B00C46694601F054F8D0B19DF8DF
:1006D00000000C2813D8DFE800F0071212121012E5
:1006E00012120C1212120E004B48206002B00020B1
:1006F00010BD4848F9E74648F7E74448F5E7DFF812
:10070000C0042060012002B010BD00000100D043F1
:10071000014050440180CF440120504510B582B0C3
:100720000C46694601F079F810B9012002B010BDFD
:100730009DF80000C8B110281BD020281CD03028FC
:100740001DD040281DD050281DD060281ED07028F4
:100750001FD0802820D0902821D0A02822D0DFF8D8
:100760005C04206002B0012010BD206002B00020B7
:1007700010BDDFF84404F8E7DFF83804F5E7C248B5
:10078000F3E7C248F1E7DFF80804EEE7DFF8040416
:10079000EBE7DFF80404E8E7DFF80004E5E7DFF85B
:1007A0000004E2E7DFF8FC03DFE7000000B581B0FA
:1007B0000279012A13D104290ED8DFE801F00909D2
:1007C00007050300402104E0302102E0202100E081
:1007D000102101F003F8B0B9012001B000BD80681C
:1007E00000680429F8D8DFE801F00B0B08060400C4
:1007F000F2E7A64906E0A44904E0DFF8B81301E0F7
:10080000DFF8B4130160002001B000BD23DBF93E26
:1008100023DB793E23DBF93D23DB793D00B581B055
:1008200001790129DFED8F0A55D1B4EE600AF1EEAE
:1008300010FA48BF102147D4DFED8B0AB4EE600AEE
:10084000F1EE10FA48BF20213ED4DFED880AB4EE65
:10085000600AF1EE10FA48BF302135D4DFED840A8A
:10086000B4EE600AF1EE10FA48BF40212CD4DFED5F
:10087000810AB4EE600AF1EE10FA48BF502123D489
:10088000DFED7D0AB4EE600AF1EE10FA48BF602198
:100890001AD4DFED7A0AB4EE600AF1EE10FA48BF1E
:1008A000702111D4DFED760AB4EE600AF1EE10FA91
:1008B00048BF802108D4DFED730AB4EE600AF1EE80
:1008C00010FA4CBF9021A02100F088FF00285FD1D2
:1008D000012001B000BD80680068B4EE600AF1EE4E
:1008E00010FA48BFB2EE0A0A50D4DFED5F0AB4EE48
:1008F000600AF1EE10FA48BFB3EE0A0A46D4DFED03
:100900005B0AB4EE600AF1EE10FA48BF9FED5E0A92
:100910003CD4DFED570AB4EE600AF1EE10FA48BF9E
:100920009FED5A0A32D4DFED530AB4EE600AF1EEBD
:1009300010FA48BF9FED960A28D4DFED4F0AB4EEB7
:10094000600AF1EE10FA48BF9FED920A1ED4DFED67
:100950004B0AB4EE600AF1EE10FA48BF9FED8E0A22
:1009600014D4DFED470AB4EE600AF1EE10FA48BF86
:100970009FED8A0A0AD4DFED430AB4EE600AF1EE75
:1009800010FA4CBF9FED860A9FED860A80ED000AA3
:10099000002001B000BD000010B582B00C466946D1
:1009A00000F0E8FEF0B19DF800000C2817D8DFE851
:1009B00000F007161616131616160D16161610004A
:1009C0004FF08040206002B0002010BD4FF0814009
:1009D000F8E74FF08240F5E74FF08340F2E7DFF8A9
:1009E000E0012060012002B010BD000000B5042924
:1009F00081B010D8DFE801F0030F0B0F0D000021CC
:100A000000F099FE401E8041C00F01B000BD0821DA
:100A1000F6E70C21F4E7012001B000BDDFED620A2A
:100A200000B5B4EE600AF1EE10FA81B048BF0021C3
:100A300011D4DFED5E0AB4EE600AF1EE10FA48BFA1
:100A4000082108D4DFED5A0AB4EE600AF1EE10FA7C
:100A50004CBF0C21042100F06EFE401E8041C00FEF
:100A600001B000BD010050410100D04101005042E1
:100A70000100D042010050430100D04301405044E6
:100A80000180CF4401205045000050420000D04278
:100A900030B581B00D4604460DF1020101F013F8A6
:100AA00050B10DF10101204601F03CF820B169463A
:100AB000204601F066F810B9012001B030BD9DF864
:100AC000020008280CBF0120002028709DF80100BA
:100AD00010280CBF0120002068709DF8000020281D
:100AE0000CBF01200020A87001B0002030BD30B53F
:100AF0000D4681B00446287801280CBF082100214A
:100B0000204600F0C1FF40B1687801280CBF1021D9
:100B10000021204600F0E7FF10B9012001B030BDF0
:100B2000A87801280CBF20210021204601F00AF8F6
:100B3000401E8041C00F01B030BD00B581B001231F
:100B400000F0C5FD401E8041C00F01B000BD00B5E2
:100B500081B001238DF800206A4600F0AFFD401EF1
:100B60008041C00F01B000BD10B582B00C4669468F
:100B700001F005F948B19DF80000002818BF0128D0
:100B800003D1207002B0002010BD012002B010BDC2
:100B9000000050430000D043004050440080CF4448
:100BA000002050450020D045010000400100804059
:100BB000010000410000D04100005041000080BF12
:100BC000000080BFDFED490A00B5B4EE600AF1EE27
:100BD00010FA81B048BF102147D4DFED450AB4EECA
:100BE000600AF1EE10FA48BF20213ED4DFED410A41
:100BF000B4EE600AF1EE10FA48BF302135D4DFEDD3
:100C00003E0AB4EE600AF1EE10FA48BF40212CD43F
:100C1000DFED3A0AB4EE600AF1EE10FA48BF502157
:100C200023D4DFED370AB4EE600AF1EE10FA48BFC4
:100C300060211AD4DFED330AB4EE600AF1EE10FA47
:100C400048BF702111D4DFED300AB4EE600AF1EE36
:100C500010FA48BF802108D4DFEDC50AB4EE600A5F
:100C6000F1EE10FA4CBF9021A02100F0B7FD401E1C
:100C70008041C00F01B000BD10B504469FEDBD0A14
:100C80002079012805D12046FFF79CFF012804D1D7
:100C900010BDA068006880ED000A0021204600F029
:100CA0004AFDC0B10621204601F015FB98B1002194
:100CB000204601F0D3FA70B10021204601F0AFFACE
:100CC00048B10021204601F08CFA20B103212046D2
:100CD00001F0E2FA08B9012010BD1021204601F010
:100CE0008EFB401E8041C00F10BD0000010050412E
:100CF0000100D041010050420100D04201005043A8
:100D00000100D043014050440180CF4410B5044657
:100D1000002101F074FB20B10021204601F0DBFA34
:100D200008B9012010BD0021204601F0B5FA401E8F
:100D30008041C00F10BD10B582B00C46694600F06E
:100D40007EFF48B19DF8000010B1202804D1012099
:100D5000207002B0002010BD012002B010BD00B50F
:100D600081B001F099FA401E8041C00F01B000BD72
:100D700010B50446B3EE0A0A2079012805D12046B1
:100D8000FFF720FF012804D110BDA068006880EDA6
:100D9000000A0021204600F0CEFC70B11721204649
:100DA00001F0B8FB48B10421204600F019FF20B142
:100DB0004021204601F020F908B9012010BD802112
:100DC000204600F0E5FD401E8041C00F10BD10B56B
:100DD0000446002100F0DCFD48B10021204601F06E
:100DE0000BF920B10021204600F0FAFE08B90120DD
:100DF00010BD0021204601F08DFB401E8041C00F38
:100E000010BD10B582B00C46694601F03AF848B101
:100E10009DF8000010B1102804D10120207002B00C
:100E2000002010BD012002B010BD00B581B001F05E
:100E30005AFB401E8041C00F01B000BD00B581B01B
:100E4000022100F0AEFE401E8041C00F01B000BD87
:100E500000B581B0002100F0A4FE401E8041C00F0B
:100E600001B000BD00B581B001F054FB401E8041CF
:100E7000C00F01B000BD10B50446B3EE0A0A2079D8
:100E8000012805D12046FFF79DFE012804D110BDA1
:100E9000A068006880ED000A0021204600F04BFCAD
:100EA00048B10421204600F09BFE20B120212046BD
:100EB00001F083F808B9012010BD0221204601F09D
:100EC00041FA401E8041C00F10BD10B504460021FC
:100ED00001F038FA20B10021204601F06EF808B97F
:100EE000012010BD0021204600F07AFE401E804106
:100EF000C00F10BD10B582B00C46694600F0D1FF9E
:100F000048B19DF8000010B1202804D101202070C4
:100F100002B0002010BD012002B010BD10B5044683
:100F20009FED140A2079012805D12046FFF74AFEDB
:100F3000012804D110BDA068006880ED000A0021DE
:100F4000204600F0F8FB48B10021204601F086F968
:100F500020B10221204601F007F908B9012010BD97
:100F60002021204601F06AFA401E8041C00F10BDCA
:100F7000012050450000D04310B50446002101F087
:100F80005DFA20B10021204601F068F908B901207E
:100F900010BD0021204601F0E7F8401E8041C00F3F
:100FA00010BD10B582B00C46694600F038FE48B15D
:100FB0009DF8000010B1082804D10120207002B073
:100FC000002010BD012002B010BD00B581B001F0BD
:100FD000CBF8401E8041C00F01B000BD10B50446E3
:100FE0009FEDA90A2079012805D12046FFF7EAFDE7
:100FF000012804D110BDA068006880ED000A00211E
:10100000204600F098FBE8B10821204600F0B6FF2A
:10101000C0B10421204600F092FF98B10221204681
:1010200000F06EFF70B10821204601F004F848B1CD
:101030000221204601F03CF820B10121204601F0B8
:1010400055F808B9012010BD4021204601F015FADD
:10105000401E8041C00F10BD10B50446002101F0B4
:101060000CFAC0B10021204600F0E5FF98B1002144
:10107000204601F01DF870B10021204601F036F83D
:1010800048B10021204600F03BFF20B1002120465E
:1010900000F055FF08B9012010BD0021204600F0E6
:1010A0006DFF401E8041C00F10BD10B582B00C46D0
:1010B000694600F0E4FD48B19DF8000010B1202819
:1010C00004D10120207002B0002010BD012002B028
:1010D00010BD000010B504469FED6B0A2079012871
:1010E00005D12046FFF76EFD012804D110BDA06890
:1010F000006880ED000A0021204600F01CFB38B398
:101100000821204600F03AFF10B30421204600F0E9
:1011100016FFE8B10221204600F0F2FEC0B108211E
:10112000204600F088FF98B10321204600F0C0FF60
:1011300070B10321204600F0D9FF48B108212046B4
:1011400000F0F2FF20B18021204601F02BF808B911
:10115000012010BD0821204601F032F9401E8041D7
:10116000C00F10BD10B50446002101F029F910B3DD
:101170000021204600F05FFFE8B10021204600F08A
:1011800097FFC0B10021204600F0B0FF98B10021C8
:10119000204600F0C9FF70B10021204601F002F89E
:1011A00048B10021204600F0ABFE20B100212046CE
:1011B00000F0C5FE08B9012010BD0021204600F056
:1011C000DDFE401E8041C00F10BD10B582B00C4640
:1011D000694600F044FD48B19DF8000010B11028A8
:1011E00004D10120207002B0002010BD012002B007
:1011F00010BD00B581B000F01EFF401E8041C00F41
:1012000001B000BD00B581B000F052FF401E80412A
:10121000C00F01B000BD00B581B000F067FF401EF7
:101220008041C00F01B000BD00B581B000F07CFF6F
:10123000401E8041C00F01B000BD000010B5044643
:101240009FED110A2079012805D12046FFF7BAFC4D
:10125000012804D110BDA068006880ED000A0021BB
:10126000204600F068FA20B14021204600F001FF3E
:1012700008B9012010BD0421204601F082F8401E6B
:101280008041C00F10BD00000000D04310B50446DF
:10129000002101F076F808B9012010BD0021204698
:1012A00000F0E7FE401E8041C00F10BD10B582B0B7
:1012B0000C46694600F053FD48B19DF8000010B19E
:1012C000402804D10120207002B0002010BD012070
:1012D00002B010BD10B582B00C46694600F0DFFCCC
:1012E00048B19DF80000002818BF012803D12070E4
:1012F00002B0002010BD012002B010BD10B582B0B8
:101300000C46694600F0DBFC48B19DF8000010B1C6
:10131000022804D10120207002B0002010BD01205D
:1013200002B010BD10B582B00C46694600F0D7FC83
:1013300048B19DF8000010B1042804D101202070AC
:1013400002B0002010BD012002B010BD10B582B067
:101350000C46694600F0D3FC48B19DF8000010B17E
:10136000082804D10120207002B0002010BD012007
:1013700002B010BD10B582B00C46694600F0CFFC3B
:1013800048B19DF8000010B1102804D10120207050
:1013900002B0002010BD012002B010BD10B582B017
:1013A0000C46694600F0CBFC48B19DF8000010B136
:1013B000202804D10120207002B0002010BD01209F
:1013C00002B010BDDFED840A00B5B4EE600AF1EEA4
:1013D00010FA81B048BF082147D4DFED800AB4EE8F
:1013E000600AF1EE10FA48BF10213ED4DFED7C0A0E
:1013F000B4EE600AF1EE10FA48BF182135D4DFEDE3
:10140000790AB4EE600AF1EE10FA48BF20212CD41C
:10141000DFED750AB4EE600AF1EE10FA48BF28213C
:1014200023D4DFED720AB4EE600AF1EE10FA48BF81
:1014300030211AD4DFED6E0AB4EE600AF1EE10FA34
:1014400048BF382111D4DFED6B0AB4EE600AF1EE2B
:1014500010FA48BF402108D4DFED670AB4EE600AF5
:10146000F1EE10FA4CBF4821502100F053FA401E13
:101470008041C00F01B000BD10B582B00C46694676
:1014800000F0BEFC68B19DF8000020B1202806D015
:10149000012002B010BD207002B0002010BD01205C
:1014A000F9E7012002B010BD10B582B00C466946C4
:1014B00000F096FC68B19DF8000020B1102806D01D
:1014C000012002B010BD207002B0002010BD01202C
:1014D000F9E7012002B010BD10B582B00C46694694
:1014E00000F09EFC68B19DF8000020B1402806D0B5
:1014F000012002B010BD207002B0002010BD0120FC
:10150000F9E7012002B010BD00B581B000F098FCF1
:10151000401E8041C00F01B000BD00B581B000F099
:10152000CBFF401E8041C00F01B000BD00B581B0AF
:1015300000F035FC401E8041C00F01B000BD00B579
:10154000072981B006D800F0A7F9401E8041C00FDE
:1015500001B000BD012001B000BD000070B582B037
:101560000D460446694600F0A7FF002831D09DF8DB
:1015700001009DF8001041EA00260DF1020120460D
:1015800000F0F8F828B39DF802000C2821D8DFE815
:1015900000F010202020072020200D2020200A000D
:1015A0009FED160A07E09FED160A04E09FED150A6D
:1015B00001E09FED150A36B200EE906AF8EEE00AFF
:1015C00020EE800ABDEEC00A85ED000A002002B0C0
:1015D00070BD012002B070BD010020410100C84172
:1015E000010048420100C842010048430100C843CD
:1015F000010048440100C84401404E4523DBF93E48
:1016000023DB793E23DBF93D23DB793D00B5062959
:1016100081B00CD8DFE801F004040B04040B0400D3
:1016200000F059F9401E8041C00F01B000BD0120FB
:1016300001B000BD00B50A0018BF202981B006D155
:1016400000F087F9401E8041C00F01B000BD0120AD
:1016500001B000BD00B581B000F0EFF8401E804140
:10166000C00F01B000BD00B5012981B006D800F05F
:10167000CDF9401E8041C00F01B000BD012001B076
:1016800000BD00B5012981B006D800F01AFC401E4B
:101690008041C00F01B000BD012001B000BD00B508
:1016A000032981B006D800F0D0F9401E8041C00F58
:1016B00001B000BD012001B000BD000000B581B047
:1016C00001F00AF8401E8041C00F01B000BD00B516
:1016D00081B001F018F8401E8041C00F01B000BD7C
:1016E00000B50A4681B001230F2101F00CF8401E1D
:1016F0008041C00F01B000BD30B581B00D46044639
:1017000001236A46122100F0FEFF10B1002001B053
:1017100030BD9DF8000000F0BF0028438DF80000A8
:1017200001236A461221204600F0D6FF401E804168
:10173000C00F01B030BD30B581B00D460446012365
:101740006A46102100F0DFFF10B1002001B030BD6B
:101750009DF8000000F0F30028438DF800000123FD
:101760006A461021204600F0B7FF401E8041C00F9E
:1017700001B030BD10B50C4601232246102100F007
:10178000C2FF08B1002010BD207800F00C002070CE
:10179000012010BDF0B581B004460D460026032798
:1017A000F6B206F128010123AA19C9B2204600F0B9
:1017B000AAFF50B9761CF6B206F128010123AA1936
:1017C000C9B2204600F09FFF10B1002001B0F0BD6B
:1017D000761C7F1EE4D1012001B0F0BD30B581B090
:1017E0000D46044601236A46102100F08CFF10B11B
:1017F000002001B030BD9DF8000000F00F0028432C
:101800008DF8000001236A461021204600F064FF95
:10181000401E8041C00F01B030BD10B50C46012301
:101820002246102100F06FFF08B1002010BD207883
:1018300000F0F0002070012010BD70B582B00446A9
:1018400001236A460D46062100F05DFF2E0A78B995
:101850008DF8005001236A460621204600F03CFF27
:1018600030B901236A460721204600F04CFF10B131
:10187000002002B070BD9DF8000066F303008DF8F3
:10188000000001236A460721204600F025FF401E84
:101890008041C00F02B070BD30B581B00D46044626
:1018A00001236A46082100F02EFF10B1002001B08C
:1018B00030BD9DF8000000F0F80028438DF80000CE
:1018C00001236A460821204600F006FF401E8041A1
:1018D000C00F01B030BD30B581B00D4604460123C4
:1018E0006A460A2100F00FFF10B1002001B030BDA0
:1018F0009DF8000000F0F80028438DF80000012357
:101900006A460A21204600F0E7FE401E8041C00FD3
:1019100001B030BD30B581B00D46044601236A46A2
:101920000A2100F0F0FE10B1002001B030BD9DF89A
:10193000000000F0870028438DF8000001236A466C
:101940000A21204600F0C8FE401E8041C00F01B0B1
:1019500030BD30B581B00D46044601236A460D21E5
:1019600000F0D1FE10B1002001B030BD9DF80000A4
:1019700000F0DF0028438DF8000001236A460D21A6
:10198000204600F0A9FE401E8041C00F01B030BDCE
:1019900030B581B00D46044601236A460D2100F0A2
:1019A000B2FE10B1002001B030BD9DF8000000F083
:1019B0007F0028438DF8000001236A460D21204650
:1019C00000F08AFE401E8041C00F01B030BD30B52E
:1019D00081B00D46044601236A46122100F093FEB1
:1019E00010B1002001B030BD9DF8000000F0FB00F8
:1019F00028438DF8000001236A461221204600F09A
:101A00006BFE401E8041C00F01B030BD30B581B0CB
:101A10000D46044601236A46132100F074FE10B1FE
:101A2000002001B030BD9DF8000000F0FE0028430A
:101A30008DF8000001236A461321204600F04CFE79
:101A4000401E8041C00F01B030BD30B581B00D46A1
:101A5000044601236A46142100F055FE10B100200F
:101A600001B030BD9DF8000000F0FC0028438DF867
:101A7000000001236A461421204600F02DFE401E7E
:101A80008041C00F01B030BD30B581B00D46044675
:101A900001236A46182100F036FE10B1002001B083
:101AA00030BD9DF8000000F0F70028438DF80000DD
:101AB00001236A461821204600F00EFE401E804198
:101AC000C00F01B030BD10B50C46012322461821CD
:101AD00000F019FE08B1002010BD207800F00800C9
:101AE0002070012010BD30B581B00D4604460123A1
:101AF0006A46182100F007FE10B1002001B030BD89
:101B00009DF8000000F0EF0028438DF8000001234D
:101B10006A461821204600F0DFFD401E8041C00FBC
:101B200001B030BD10B50C4601232246182100F04B
:101B3000EAFD08B1002010BD207800F010002070F0
:101B4000012010BD30B581B00D46044601236A4620
:101B5000182100F0D8FD10B1002001B030BD9DF873
:101B6000000000F0DF0028438DF8000001236A46E2
:101B70001821204600F0B0FD401E8041C00F01B08A
:101B800030BD10B50C4601232246182100F0BBFDE4
:101B900008B1002010BD207800F020002070012046
:101BA00010BD30B581B00D46044601236A461921A7
:101BB00000F0A9FD10B1002001B030BD9DF800007B
:101BC00000F0FD0028438DF8000001236A4619212A
:101BD000204600F081FD401E8041C00F01B030BDA5
:101BE00030B581B00D46044601236A46192100F044
:101BF0008AFD10B1002001B030BD9DF8000000F05A
:101C0000FB0028438DF8000001236A461921204675
:101C100000F062FD401E8041C00F01B030BD10B524
:101C20000C46012322461B2100F06DFD08B1002067
:101C300010BD207800F008002070012010BD10B504
:101C40000C46012322461B2100F05DFD08B1002057
:101C500010BD207800F020002070012010BD10B5CC
:101C60000C46012322461C2100F04DFD08B1002046
:101C700010BD207800F010002070012010BD10B5BC
:101C80000C46012322461C2100F03DFD08B1002036
:101C900010BD207800F020002070012010BD10B58C
:101CA0000C46012322461D2100F02DFD08B1002025
:101CB00010BD207800F001002070012010BD10B58B
:101CC0000C46012322461D2100F01DFD08B1002015
:101CD00010BD207800F002002070012010BD10B56A
:101CE0000C46012322461D2100F00DFD08B1002005
:101CF00010BD207800F004002070012010BD10B548
:101D00000C46012322461D2100F0FDFC08B10020F5
:101D100010BD207800F008002070012010BD10B523
:101D20000C46012322461D2100F0EDFC08B10020E5
:101D300010BD207800F010002070012010BD10B5FB
:101D40000C46012322461D2100F0DDFC08B10020D5
:101D500010BD207800F020002070012010BD10B5CB
:101D60000C46012322461D2100F0CDFC08B10020C5
:101D700010BD207800F040002070012010BD10B58B
:101D80000C46012322461E2100F0BDFC08B10020B4
:101D900010BD207800F001002070012010BD30B58A
:101DA00081B00D46044601236A463A2100F0ABFC9F
:101DB00038B901230DF101023B21204600F0A3FCBC
:101DC00010B1002001B030BD9DF801009DF8001059
:101DD00000F00F0041EA0020288001B0012030BD52
:101DE00010B50C46012322463B2100F08CFC08B1C3
:101DF000002010BD207800F010002070012010BDE0
:101E000010B50C46012322463B2100F07CFC08B1B2
:101E1000002010BD207800F020002070012010BDAF
:101E200010B50C46012322463B2100F06CFC08B1A2
:101E3000002010BD207800F040002070012010BD6F
:101E400030B581B00D46044601236A463C2100F0BE
:101E50005AFC38B901230DF101023D21204600F062
:101E600052FC10B1002001B030BD9DF801009DF87A
:101E7000001000F0030041EA0020288001B001209A
:101E800030BD10B50C4601232246532100F03BFC27
:101E900008B1002010BD207800F010002070012053
:101EA00010BD10B50C4601232246532100F02BFC37
:101EB00008B1002010BD207800F020002070012023
:101EC00010BD30B581B00D46044601236A46582145
:101ED00000F019FC10B1002001B030BD9DF80000E9
:101EE00000F0FE0028438DF8000001236A465821C7
:101EF000204600F0F1FB401E8041C00F01B030BD14
:101F000030B581B00D46044601236A46582100F0E1
:101F1000FAFB10B1002001B030BD9DF8000000F0C8
:101F2000FD0028438DF8000001236A465821204611
:101F300000F0D2FB401E8041C00F01B030BD30B573
:101F400081B00D46044601236A46582100F0DBFBB0
:101F500010B1002001B030BD9DF8000000F0FB0082
:101F600028438DF8000001236A465821204600F0DE
:101F7000B3FB401E8041C00F01B030BD30B581B011
:101F80000D46044601236A46582100F0BCFB10B1FF
:101F9000002001B030BD9DF8000000F0F70028439C
:101FA0008DF8000001236A465821204600F094FB7A
:101FB000401E8041C00F01B030BD30B581B00D462C
:101FC000044601236A46582100F09DFB10B1002011
:101FD00001B030BD9DF8000000F0DF0028438DF80F
:101FE000000001236A465821204600F075FB401E80
:101FF0008041C00F01B030BD30B581B00D46044600
:1020000001236A46582100F07EFB10B1002001B088
:1020100030BD9DF8000000F0BF0028438DF800009F
:1020200001236A465821204600F056FB401E80419D
:10203000C00F01B030BD30B581B00D46044601235C
:102040006A46592100F05FFB10B1002001B030BD9D
:102050009DF8000065F304008DF8000001236A4636
:102060005921204600F038FB401E8041C00F01B0CE
:1020700030BD30B581B00D46044601236A46592172
:1020800000F041FB10B1002001B030BD9DF8000010
:1020900000F09F0028438DF8000001236A46592173
:1020A000204600F019FB401E8041C00F01B030BD3A
:1020B00030B581B00D46044601236A465A2100F02E
:1020C00022FB10B1002001B030BD9DF8000065F387
:1020D00001008DF8000001236A465A21204600F0D5
:1020E000FBFA401E8041C00F01B030BD30B581B059
:1020F0000D46044601236A465A2100F004FB10B144
:10210000002001B030BD9DF8000065F383008DF81C
:10211000000001236A465A21204600F0DDFA401EE5
:102120008041C00F01B030BD30B581B00D460446CE
:1021300001236A465A2100F0E6FA10B1002001B0EE
:1021400030BD9DF8000000F00F0040EA05108DF84A
:10215000000001236A465A21204600F0BDFA401EC5
:102160008041C00F01B030BD30B581B00D4604468E
:1021700001236A465B2100F0C6FA10B1002001B0CD
:1021800030BD9DF8000065F305008DF800000123C7
:102190006A465B21204600F09FFA401E8041C00F36
:1021A00001B030BD30B581B00D46044601236A460A
:1021B0005B2100F0A8FA10B1002001B030BD9DF8FD
:1021C000000000F07F0028438DF8000001236A46DC
:1021D0005B21204600F080FA401E8041C00F01B014
:1021E00030BD30B581B00D46044601236A465C21FE
:1021F00000F089FA10B1002001B030BD9DF8000058
:1022000065F303008DF8000001236A465C21204637
:1022100000F062FA401E8041C00F01B030BD30B501
:1022200081B00D46044601236A465C2100F06BFA3A
:1022300010B1002001B030BD9DF8000000F0EF00AB
:1022400028438DF8000001236A465C21204600F0F7
:1022500043FA401E8041C00F01B030BD30B581B09F
:102260000D46044601236A465C2100F04CFA10B189
:10227000002001B030BD9DF8000065F346108DF8D8
:10228000000001236A465C21204600F025FA401E2A
:102290008041C00F01B030BD30B581B00D4604465D
:1022A00001236A465D2100F02EFA10B1002001B032
:1022B00030BD9DF8000000F0F80028438DF80000C4
:1022C00001236A465D21204600F006FA401E804147
:1022D000C00F01B030BD70B582B0044601236A461C
:1022E0000E465D2100F00FFA7509A8B99DF80000AF
:1022F00000F0070040EAC6008DF8000001236A469E
:102300005D21204600F0E8F930B901236A465C21DE
:10231000204600F0F8F910B1002002B070BD9DF821
:10232000000000F07F0040EAC5108DF80000012396
:102330006A465C21204600F0CFF9401E8041C00F64
:1023400002B070BD30B581B00D46044601236A4627
:102350005E2100F0D8F910B1002001B030BD9DF829
:10236000000000F0FD0028438DF8000001236A46BC
:102370005E21204600F0B0F9401E8041C00F01B040
:1023800030BD30B581B00D46044601236A465E215A
:1023900000F0B9F910B1002001B030BD9DF8000087
:1023A00000F0FB0028438DF8000001236A465E21FF
:1023B000204600F091F9401E8041C00F01B030BDB1
:1023C00030B581B00D46044601236A465E2100F017
:1023D0009AF910B1002001B030BD9DF8000000F066
:1023E000F70028438DF8000001236A465E2120464D
:1023F00000F072F9401E8041C00F01B030BD30B511
:1024000081B00D46044601236A465E2100F07BF947
:1024100010B1002001B030BD9DF8000000F0EF00C9
:1024200028438DF8000001236A465E21204600F013
:1024300053F9401E8041C00F01B030BD30B581B0AE
:102440000D46044601236A465E2100F05CF910B196
:10245000002001B030BD9DF8000000F0DF002843EF
:102460008DF8000001236A465E21204600F034F911
:10247000401E8041C00F01B030BD30B581B00D4667
:10248000044601236A465E2100F03DF910B10020A8
:1024900001B030BD9DF8000000F0BF0028438DF86A
:1024A000000001236A465E21204600F015F9401E17
:1024B0008041C00F01B030BD30B50D4681B004463B
:1024C00001232A463E2100F01EF930B901236A1C7F
:1024D0003F21204600F017F910B1002001B030BDB7
:1024E000012001B030BD30B50D4681B00446012356
:1024F0002A464B2100F007F930B901236A1C4C2110
:10250000204600F000F910B1002001B030BD0120DC
:1025100001B030BD30B581B00D46044601236A4696
:10252000012100F0F0F858B99DF8000040F080005B
:102530008DF8000001236A460121204600F0CCF806
:1025400001230DF101020F21204600F0DCF89DF877
:10255000010065F304008DF8010001230DF1010273
:102560000F21204600F0B8F801236A4601212046D9
:1025700000F0C9F858B99DF8000000F07F008DF810
:10258000000001236A460121204600F0A5F8012041
:1025900001B030BD30B5964C87B0204600F0C8FD84
:1025A00000284BD19348944D606001A90020A060A1
:1025B0003320E0604FF4804020619048206000208C
:1025C0000090286940F002002861286900F00200AC
:1025D000009000984FF44070019012200290022069
:1025E00004900020039004200590854800F0A4FD8D
:1025F000002000900022286A40F400102862002188
:10260000286A00F4001000900098286840F4001038
:102610002860286820F4001028601F2000F085FE44
:102620001F2000F0ABFE00220021202000F07DFEE4
:10263000202000F0A3FE204600F0EAF8204600F03B
:1026400077FD20280CBF0020012007B030BD0020FE
:10265000704730B58BB00020009006A9694D6A4CD8
:10266000286840F001002860286800F00100009010
:1026700000980794102006900220099000200890EE
:10268000624800F059FD002200210A2000F04DFEB2
:102690000A2000F073FE0020009001A9286840F095
:1026A00002002860286800F0020000900098029460
:1026B000012001900220049000200390504800F077
:1026C0003BFD00220021062000F02FFE062000F036
:1026D00055FE00200BB030BD30B583B04FF48055AF
:1026E000009202950A46019301234178404C20460E
:1026F00000F01EF928B1204600F0F9F800F01AF8B1
:10270000012003B030BD30B583B04FF48055009246
:1027100002950A46019301234178354C204600F08A
:1027200087FA28B1204600F0E2F800F003F8012013
:1027300003B030BD30B52E4C87B0204600F0F8FC19
:1027400000284BD12B482C4D606001A90020A060CF
:102750003320E0604FF48040206128482060002052
:102760000090286940F002002861286900F002000A
:10277000009000984FF440700190122002900220C7
:10278000049000200390042005901D4800F0D4FC24
:10279000002000900022286A40F4001028620021E6
:1027A000286A00F4001000900098286840F4001097
:1027B0002860286820F4001028601F2000F0B5FD74
:1027C0001F2000F0DBFD00220021202000F0ADFDE5
:1027D000202000F0D3FD204600F01AF8204600F03B
:1027E000A7FC20280CBF0020012007B030BD00004E
:1027F00088050020801A060020380240005400405E
:102800000004024030380240000011100000024075
:1028100030B5040081B008BF012066D094F83D00B7
:1028200020B984F83C00204600F085FC242084F880
:102830003D002068016849084900016000F077FE0A
:10284000DFF8E020A0FB02212268C90C5160636818
:10285000DFF8D420934208D34FF4967313FB01F1B1
:10286000DFF8C850A1FB0553590A2368491C1962B7
:102870006168914208D24900B0FBF1F0C0F30B014E
:10288000042913D2042011E0A26822B901EB41010E
:10289000B0FBF1F005E019225143B0FBF1F040F438
:1028A000804001050CBF012040F400402168C86150
:1028B000E069216A0843216808602069E1680843EB
:1028C000216888606069A16908432168C860206840
:1028D000016841F00101016000202064202084F89B
:1028E0003D000020206384F83E0001B030BD10B5EB
:1028F000040001D1012010BD242084F83D0020688F
:102900000168490849000160204600F05BFE002094
:10291000206484F83D00206384F83E0084F83C0085
:1029200010BD000006BD3786A1860100986E128397
:102930002DE9F043054681B095F83D0020288846F2
:1029400014461F4615D100F03FFE064642F21179AB
:1029500028688169890710D500F036FE801B48453C
:10296000F6D300202863202085F83D00002085F85C
:102970003C00022001B0BDE8F08395F83C1001292D
:10298000F7D0012185F83C10016821F40061016055
:10299000212085F83D00402085F83E000020286475
:1029A000A248E8622868016841F48071016000F083
:1029B0000BFE0A9E814628684169C9071CD416F19E
:1029C000010FF8D02EB100F0FFFDA0EB0900864208
:1029D000F1D200202863202085F83D00002085F8F2
:1029E0003C00286C042840F09780002085F83C00CB
:1029F00001B00120BDE8F08308F0FE01016100F0A4
:102A0000E3FD804628684169890721D44169490569
:102A10000AD5016841F4007101606FF48060296893
:102A200048610420286409E016F1010FEAD02EB1B4
:102A300000F0CAFDA0EB08008642E3D20020286324
:102A4000202085F83D00002085F83C00286CC8E770
:102A5000002100914169009180690090009800F088
:102A6000B3FD804629684869000626D448694005B8
:102A700015D56FF480604861042028640020286325
:102A8000202085F83D00002085F83C00286C0428B3
:102A9000A7D12868016841F400710160A1E716F12F
:102AA000010FDFD02EB100F08FFDA0EB08008642B1
:102AB000D8D2286C40F02000DFE7012F26D0200A72
:102AC000086100F081FD07462868416909061DD4A8
:102AD0004169490504D56FF48061416104200BE030
:102AE00016F1010FF0D026B100F06EFDC01B86423A
:102AF000EAD2286C40F020002864002028632020BF
:102B000085F83D00002085F83C00BFE72868E4B266
:102B10000461089F099C0BE0002085F83C0003201D
:102B200001B0BDE8F08300BF17F8011B0161641E0E
:102B3000A0B200283BD000F047FD804628684169DC
:102B4000090629D44169490518D56FF480614161AE
:102B50000420286400202863202085F83D00002000
:102B600085F83C00286C0428D9D12868016841F414
:102B700000710160012001B0BDE8F08316F1010F82
:102B8000DCD02EB100F020FDA0EB08008642D5D2AB
:102B9000286C40F02000DCE717F8011B0161641E7F
:102BA000286841694907C3D5A1B20029BCD100F00A
:102BB0000BFD044628684169090628D44169490586
:102BC00018D56FF4806141610420286400202863D7
:102BD000202085F83D00002085F83C00286C042862
:102BE0009DD12868016841F400710160012001B0A5
:102BF000BDE8F08316F1010FDCD026B100F0E4FC53
:102C0000001B8642D6D2286C40F02000DDE7016828
:102C100041F400710160202085F83D00002085F816
:102C20003E0085F83C0001B0BDE8F0830000FFFFE6
:102C30002DE9F043054681B095F83D0020280C466B
:102C40001746984615D100F0BFFC064642F21179AE
:102C500028688169890710D500F0B6FC801B4845BB
:102C6000F6D300202863202085F83D00002085F859
:102C70003C00022001B0BDE8F08395F83C1001292A
:102C8000F7D0012185F83C10016821F40061016052
:102C9000222085F83D00402085F83E000020286471
:102CA000DFF88804E8622868016841F48061016007
:102CB0002868016841F48071016000F085FC0A9E7B
:102CC000814628684169C9070CD416F1010FF8D074
:102CD000002E00F0CE8000F077FCA0EB09008642C9
:102CE000EFD2C6E004F0FE01016100F06DFC814608
:102CF00028684169890720D4416949050AD50168D6
:102D000041F4007101606FF480602968486104201B
:102D1000286409E016F1010FEAD02EB100F054FC4E
:102D2000A0EB09008642E3D200202863202085F82A
:102D30003D00002085F83C00C4E00021009141697D
:102D4000009180690090009800F03EFC814629685F
:102D5000486900061ED4486940050DD56FF48060AF
:102D600048610420286400202863202085F83D0065
:102D7000002085F83C005FE016F1010FE7D02EB18E
:102D800000F022FCA0EB09008642E0D2286C40F063
:102D90002000E7E7B8F1010F27D0380A086100F0FA
:102DA00013FC80462868416909061ED4416949051B
:102DB00004D56FF48061416104200CE016F1010F2D
:102DC000F0D02EB100F000FCA0EB08008642E9D262
:102DD000286C40F02000286400202863202085F81B
:102DE0003D00002085F83C0026E02868FFB207611E
:102DF00000F0EAFB074628684169090625D44169C5
:102E0000490504D56FF48061416104200BE016F19F
:102E1000010FF0D026B100F0D7FBC01B8642EAD2EA
:102E2000286C40F02000286400202863202085F8CA
:102E30003D00002085F83C00286C042843D1286818
:102E4000016841F4007101603DE0016841F4807166
:102E5000016000F0B9FB074628684169C90711D431
:102E600016F1010FF8D026B100F0AEFBC01B864270
:102E7000F2D200202863202085F83D00002085F84C
:102E80003C0020E044F00101C9B2016100F09CFB6C
:102E900004462868416989072AD4416949051CD537
:102EA000016841F4007101606FF480602968486135
:102EB0000420286400202863202085F83D0000209D
:102EC00085F83C00286C286C04282AD1002085F85D
:102ED0003C00012001B0BDE8F08316F1010FD8D00D
:102EE000002EE7D000F070FB001B8642D1D2E1E754
:102EF000099C21001CD10021009141690091816948
:102F000000910099016841F400710160202085F86A
:102F10003D00002085F83E0085F83C0001B0BDE88A
:102F2000F083002085F83C00032001B0BDE8F08369
:102F3000012C11D1016821F4806101600020009012
:102F4000286841690091816900910099016841F404
:102F500000710160089F29E0022C12D1016821F460
:102F6000806101602868016841F40061016000200F
:102F70000090286841690091806900900098089F3E
:102F800014E000210091F5E726B100F01DFB001BC5
:102F9000864214D2286C40F0200028641CE00069AE
:102FA00007F8010B0024A0B20028AFD0A4B2042C73
:102FB00080F08380012C1CD100F006FB04462868B9
:102FC00041694906EBD44169C906DDD56FF01001AE
:102FD0004161002028642863202085F83D000020FE
:102FE00085F83C00286C20289ED0012001B0BDE867
:102FF000F083022C1FD100F0E7FA044628684169EB
:1030000049070ED416F1010FF8D026B100F0DCFA12
:10301000001B8642F2D200202863202085F83D0064
:103020007FE7016841F4007101602868006907F8D2
:10303000010B2868B3E700F0C7FA804628684169A9
:1030400049070FD416F1010FF8D02EB100F0BCFAE9
:10305000A0EB08008642F1D200202863202085F8EA
:103060003D005EE7016821F4806101602868006925
:10307000387000F0A9FA80462868416949070FD4E2
:1030800016F1010FF8D02EB100F09EFAA0EB080067
:103090008642F1D200202863202085F83D0040E7D9
:1030A000016841F400710160E41E286800697870CD
:1030B00028680069B870FF1C75E700F085FA804643
:1030C00028684169490622D44169C90613D56FF0C1
:1030D00010014161002028642863202085F83D000C
:1030E000002085F83C00286C20287FF4F2AE0320F5
:1030F00001B0BDE8F0832EB100F066FAA0EB080045
:103100008642DDD2286C40F020002864E5E70069A3
:1031100007F8010B641E2868416949077FF543AF32
:10312000006907F8010B641E3DE700000000FFFF87
:1031300090F83D00704770472DE9F04F002381B0B3
:10314000024600249946DFF8A4A1694F4FF00F0E04
:1031500001200D68984000EA0508804540F0A780EE
:103160004D68022D18BF122D11D1DD0802EB850C20
:1031700009F01C05DCF820600EFA05FB26EA0B06B8
:10318000D1F810B00BFA05F53543CCF820500326E2
:103190001568A6406FEA060C0E7906F003060CEAE5
:1031A0000505A640354315604D68012D18BF022D59
:1031B00003D0112D18BF122D0FD19568CE680CEADF
:1031C0000505A64035439560556825EA00004D6821
:1031D000C5F300159D4028435060D0688D680CEA07
:1031E0000000A5402843D0604868C0005FD500209B
:1031F000009009F00C0C38683E4E40F48040386076
:10320000386800F4804000900098980856F82050E4
:103210000EFA0CF6B543384EB24208BF002613D062
:10322000364EB24208BF01260ED0354EB24208BF1C
:10323000022609D0334EB24208BF032604D0324ED4
:10324000B2420CBF0426052606FA0CF62E43294D81
:1032500045F820606FEA0800DAF8005000EA050C33
:103260004D68ED0348BF48EA0C0CCAF800C0DAF814
:10327000045000EA050C4D68AD0348BF48EA0C0C49
:10328000CAF804C0DAF8085000EA050C4D68ED02EF
:1032900048BF48EA0C0CCAF808C0DAF80C502840BD
:1032A0004D68AD0248BF48EA0000CAF80C005B1C3C
:1032B000A41C102B09F10409FFF44AAF01B0BDE8CA
:1032C000F08F00690840401E8041C043C00F704726
:1032D00002B90904816170470C4A136803421CBF9C
:1032E000106000F0BFB9704700000000003C0140D2
:1032F0004438024008380140000002400004024007
:1033000000080240000C024000100240143C014042
:1033100027490A684FF6FF0300021A4000F4E060F4
:103320001043244A10430860704730B4204B1B6898
:10333000C3F30223C3F10704052C28BF04241D1D79
:10334000072D34BF0023DB1E012505FA04F4641E9B
:103350002140994005FA03F35B1E1A40114309010D
:10336000002807D5144A00F00F00104400F8041C90
:1033700030BC7047114A115430BC7047012100F035
:103380001F0291400E4A400942F820107047401E2B
:10339000B0F1807F01D3012070470A494860F020D6
:1033A00081F8130D00208860072008600020704716
:1033B0000CED00E00000FA0518ED00E000E400E08C
:1033C00000E100E010E000E0F0B5634E81B004469B
:1033D000D6F800040D4600F00F00A84207D286F888
:1033E0000054D6F8000400F00F00A84272D12078F3
:1033F000800705D5B068A16820F0F0000843B060F0
:103400002078C00758D56068012802D13168890347
:1034100005E0022818BF032805D13168890105D4C9
:10342000012001B0F0BD3168890753D5B168890822
:1034300040EA8100B06000F0C7F8074660680128E4
:103440000ED1B06800F00C00042835D000F0BCF8B4
:10345000C01B41F289318842F3D3032001B0F0BD93
:1034600002280ED1B06800F00C00082824D000F02B
:10347000ABF8C01B41F289318842F3D3032001B07D
:10348000F0BD03280AD1B06800F09EF8C01B41F2DD
:1034900089318842F7D3032001B0F0BDB06810F045
:1034A0000C0F09D000F090F8C01B41F2893188421E
:1034B000F4D3032001B0F0BDD6F8000400F00F00F3
:1034C00085420AD286F80054D6F8000400F00F00B6
:1034D000A84202D0012001B0F0BD2078400705D5F8
:1034E000B068E16820F4E0500843B060207800073D
:1034F00006D5B068216920F4604040EAC100B060A0
:103500000F2000F0CBF8002001B0F0BD00B581B075
:1035100000F030F8114B0FF24C021B681049C3F356
:103520000313D25CD040086001B0086800BD10B53C
:1035300000F020F8094B0FF22C021C680849C4F374
:103540000314145DE040086008681968C1F3822123
:10355000515CC84010BD00000038024008380240ED
:1035600080010020000000000102030401020304A6
:10357000060708091048416801F00C01042903D02E
:10358000082903D00D4870470D487047016802684C
:10359000520201F03F014CBF094A084AB2FBF1F167
:1035A00002680068C0F30140C2F38812401C514316
:1035B0004000B1FBF0F07047043802400024F400F2
:1035C00000127A007047000001480068704700BF91
:1035D0001806002010B582B000208DF8000000F021
:1035E00071F800F08DF8002000F0D2F801210020E1
:1035F00000F00EF9284C211D012000F065F901288A
:1036000003D1002000F0EEF8FEE7606800F00EFA4B
:10361000207890B16068694600F034FA58B99DF896
:10362000000040B1002000F0DDF8642000F03AFA1C
:10363000002000F0E2F800202070607838B1606867
:1036400000F004FA18B90120E07000206070A07842
:103650000028DDD0606800F007FA0028D8D1E070BB
:10366000A070D5E700B5B0F5005F81B00DD10020A6
:1036700000F012F970B90848C178002907BF01218C
:1036800041700121817001B000BD102802D10249B2
:103690000120087001B000BD7001002010B5044683
:1036A000FFF734FF064AA0FB0221480AFFF76FFE2E
:1036B000002221464FF0FF30FFF737FE002010BDFB
:1036C000986E128300B50C4881B0016841F4007116
:1036D0000160016841F480610160016841F480711A
:1036E00001600320FFF714FE0F20FFF7D7FF00F063
:1036F00005F8002001B000BD003C0240704700000A
:1037000000B593B0002000901F48016841F080513F
:103710000160006800F08050009000980020009048
:103720001A48016821F4404141F4004101600068F9
:1037300000F440400090009802200690012009907B
:1037400010200A9002200C9000200D9010200E9066
:103750004FF4A8700F90042010900720119006A835
:1037600000F0AEF90F20019002210220029000200B
:1037700003904FF4805004900020059001A8FFF7BB
:1037800023FE13B000BD00BF40380240007000406F
:1037900070B586B0044600200090DFF81061DFF8B5
:1037A0001001016841F00101016001A9006800F009
:1037B0000100009000980FF2041030F814500195A9
:1037C00001200290002003900220049056F824006B
:1037D000FFF7B2FC56F8240000222946FFF778FDD7
:1037E00006B070BD0FF2D401DFF8C03031F8101010
:1037F00053F820000122FFF76BBD0FF2C001DFF884
:10380000AC3031F8101053F820000022FFF760BDF3
:1038100030B587B00446002000900D46DFF89000D8
:10382000016841F004010160006800F004000090AC
:103830002800009810D10FF2880030F81400019091
:1038400001A900200290022003900490DFF8640098
:1038500050F82400FFF770FC012D1BD10FF260001F
:1038600030F81400019001A900200390DFF848000F
:103870000290DFF8400050F82400FFF75DFC0FF2E3
:103880004400045D00220F2160B2FFF74EFD60B2DC
:10389000FFF774FD07B030BD0FF22401DFF81420EC
:1038A00031F8101052F82000FFF70BBD780100200E
:1038B000303802407C010020000021102000000070
:1038C000002000002800000010B50C4600212160F7
:1038D00068B10128204611D000F058F8012804D121
:1038E000204600F011F801280CD0002010BD204621
:1038F00000F00AF80128F8D1012010BD00F046F8C8
:103900000128F2D1012010BD30B5434D0446E878BE
:10391000012881B038D0FEF73DFE012834D0682060
:103920002870D62068700020688028710120687196
:1039300005F12800A8603948E8600020286138486F
:10394000E86305F13800A8620020E8622560E868B5
:103950000168080008D100200021002207C503C526
:10396000206001B0012030BD28468847012808D1D9
:103970002068142100F0E0F90020206001B001204F
:1039800030BDFEF764FE002001B030BD30B5224DE1
:103990000446E87D012881B03BD0FEF7FBFD0128FD
:1039A00037D069202875D42068750120A8750020BB
:1039B000E87528760120687605F13000E86119483D
:1039C00028621948686205F1400028630020686396
:1039D00005F114002060286A0168080005F1140050
:1039E00008D10021002200230EC006C02160012062
:1039F00001B030BD8847012808D12068142100F0AB
:103A00009BF90020206001B0012030BDFEF721FEAF
:103A1000002001B030BD0000CC05002000000020D7
:103A200010060020200100205000002000B581B0C9
:103A300018B1C16889680A0002D1012001B000BD37
:103A40008847012818BF002001B000BD00281CBF16
:103A50000169002906D00278692A03D109680A00A1
:103A600018BF08470120704700281CBF01690029C2
:103A700006D00278692A03D149680A0018BF0847AE
:103A80000120704700281CBF0269002A07D031B10D
:103A90000378692B03D19268130018BF10470120E7
:103AA0007047000011B581B0FFF78EFD4FEA0004AA
:103AB000FFF78AFD0199001B8842F9D302B010BDBF
:103AC000F0B5044681B02078984DC00734D5A86879
:103AD00000F00C00042807D0A86800F00C000828AB
:103AE0000AD16868400207D52868800324D5606839
:103AF00010BB012001B0F0BD6068A870606868B1BB
:103B0000FFF762FD06462868800315D4FFF75CFDC9
:103B1000801B6528F7D3032001B0F0BDFFF754FDEB
:103B200006462868800307D5FFF74EFD801B6528F1
:103B3000F7D3032001B0F0BD2078800718D5A8681E
:103B400010F00C0F07D0A86800F00C00082826D150
:103B50006868400223D42868800702D5E0680128FD
:103B6000C7D12868216920F0F80040EAC100286028
:103B70002078000745D560696D4F90B30120C7F8E4
:103B8000800EFFF721FD0646686F800739D4FFF7E6
:103B90001BFD801B0328F7D3032001B0F0BDE068B4
:103BA000634F78B101203860FFF70EFD06462868A4
:103BB0008007D6D4FFF708FD801B0328F7D3032026
:103BC00001B0F0BD3860FFF7FFFC064628688007AB
:103BD000CED5FFF7F9FC801B0328F7D3032001B0F3
:103BE000F0BDC7F8800EFFF7EFFC0646686F800750
:103BF00007D5FFF7E9FC801B0328F7D3032001B0AA
:103C0000F0BD2078400742D500200090494F286C35
:103C100040F080502864286C00F08050009000989C
:103C2000386840F480703860FFF7CEFC064638688C
:103C3000C00507D4FFF7C8FC801B0328F7D3032077
:103C400001B0F0BDA06885F87000A06878B1FFF7FA
:103C5000BBFC064641F28937286F800717D4FFF76F
:103C6000B3FC801BB842F7D3032001B0F0BDFFF7CF
:103C7000ABFC064641F28937286F800707D5FFF76E
:103C8000A3FC801BB842F7D3032001B0F0BDA069AC
:103C9000002848D0A96801F00C0108293FF429AF99
:103CA0000228234F2FD100203866FFF78DFC0646EF
:103CB0002868800107D5FFF787FC801B0328F7D30E
:103CC000032001B0F0BDE069216A0843616A40EA5F
:103CD0008110A16A891EC903090C40EA0140E16A0A
:103CE00040EA0160686001203866FFF76DFC064617
:103CF0002868800117D4FFF767FC801B0328F7D3DF
:103D0000032001B0F0BD00203866FFF75DFC0646D9
:103D10002868800107D5FFF757FC801B0328F7D3DD
:103D2000032001B0F0BD002001B0F0BD003802401A
:103D30000000474200700040002200F001B800007F
:103D4000401810F0030308D0C91A1FD3DB0748BF7F
:103D500000F8012D28BF20F8022D130030B41446BE
:103D60001546103928BF20E93C00FAD8490728BF7A
:103D700020E90C0048BF40F8042D890028BF20F836
:103D8000022D48BF00F8012D30BC7047C91818BF7C
:103D900000F8012DCB0728BF00F8012D7047000067
:103DA00010B582B0044600208DF800006946204618
:103DB00000F0B6FB60B39DF800002178884227D15F
:103DC0000421204600F0F6FC10B3A068DFF80417C9
:103DD000006801604021204600F00CFCC0B10021C9
:103DE000204600F0D8FB98B10021204600F0A4FB4B
:103DF00070B10821204600F050FC48B11021204647
:103E000000F07AFC20B12021204600F0A4FC10B97B
:103E1000012002B010BD0120E07002B0002010BDF2
:103E200030B5044681B0A068056800208DF8000018
:103E30006946204600F074FB90B19DF8000021789F
:103E400088420DD1207980B1A0680168204600F039
:103E50006BF9012804D00021204600F09CFB10B92A
:103E6000012001B030BD0020207100202860E070EA
:103E700001B030BD10B504462079012838D0A068C3
:103E8000006890ED000ADFEDA40AB4EE600AF1EEDE
:103E900010FA48BF202123D4DFEDA00AB4EE600A57
:103EA000F1EE10FA48BF40211AD4DFED9D0AB4EEBE
:103EB000600AF1EE10FA48BF602111D4DFED990AD3
:103EC000B4EE600AF1EE10FA48BF802108D4DFEDAD
:103ED000B50AB4EE600AF1EE10FA4CBFA021C02181
:103EE000204600F058FB08B9012010BD01202071C8
:103EF000002010BD30B5044681B0207900283ED0A6
:103F0000A068056868680178012909D140682860BF
:103F10000021204600F03FFB78BB012001B030BDFE
:103F20006946204600F056FB20B39DF800000028AB
:103F3000EDD0202818D0402813D060280ED080283B
:103F400009D0A02804D0C02811D1DFF89405DEE7FD
:103F5000DFF88805DBE7DFF88005D8E7DFF87405D0
:103F6000D5E7DFF86C05D2E7DFF88405CFE7DFF8A7
:103F700084052860012001B030BD0020207101B00F
:103F800030BD00B581B000F0CBFA401E8041C00FBB
:103F900001B000BD10B582B0044600208DF80000CD
:103FA0006946204600F0BCFA20B19DF80000217857
:103FB000884202D0012002B010BD002002B010BD26
:103FC0002DE9F04184B088460021CDE90011044676
:103FD000694600F02EFB002850D09DF801109DF896
:103FE00000209DF8040002EB01269DF803109DF8C7
:103FF000022002EB01279DF8051000EB012502A924
:10400000204600F0B8FAC8B39DF8080078B1082837
:1040100004D0102808D0182803D02FE09FED790A8B
:1040200007E09FED790A04E09FED780A01E09FED3B
:10403000B00A36B200EE906AF8EEE00A60EE800A4E
:10404000FDEEE00AC8ED000A3FB200EE907AF8EE0D
:10405000E00A60EE800AFDEEE00AC8ED010A2DB22A
:1040600000EE905AF8EEE00A20EE800ABDEEC00A9B
:1040700088ED020A002004B0BDE8F081012004B000
:10408000BDE8F08110B582B00C4669460022C1E956
:10409000002200F0CEFA10B9012002B010BD9DF848
:1040A00001109DF8002002EB012121809DF80220E3
:1040B0009DF8031002EB012161809DF804009DF83A
:1040C000051000EB0120A08002B0002010BD10B54B
:1040D00082B00C46694600F04EFA10B9012002B0D9
:1040E00010BD9DF8000058B1082812D010280CD03F
:1040F00018280CD0DFF8FC03206002B0012010BDAE
:104100007B48206002B0002010BD4048F9E73E48DF
:10411000F7E73C48F5E70000010020410100484274
:104120000100EE4201006E4310B582B00C4681687A
:10413000096849680A78012A02D1486820601CE0B1
:10414000694600F047FA10B9012002B010BD9DF891
:10415000000088B1202813D0402814D0602815D042
:10416000802816D0A02817D0C02818D0DFF88403E4
:10417000206002B0012010BD2060002002B010BD00
:10418000DFF86C03F8E7DFF84803F5E7DFF84403EE
:10419000F2E7DFF84403EFE7DFF84003ECE7DFF88E
:1041A0004003E9E70100EE4300B581B00279012A3E
:1041B00011D104290CD8DFE801F007070505030039
:1041C000602102E0402100E0202100F0E4F9A8B9DC
:1041D000012001B000BD806800680429F8D8DFE83C
:1041E00001F00A0A07070400F2E7DFF8E81204E02A
:1041F000DFF8DC1201E0DFF8F8120160002001B006
:1042000000BD00005A643B3F23DB793E23DBF93DD0
:1042100000B581B001790129DFED680A30D1B4EE33
:10422000600AF1EE10FA48BF202123D4DFED640AC2
:10423000B4EE600AF1EE10FA48BF40211AD4DFED67
:10424000610AB4EE600AF1EE10FA48BF602111D4A1
:10425000DFED9D0AB4EE600AF1EE10FA48BF80214E
:1042600008D4DFED9A0AB4EE600AF1EE10FA4CBF02
:10427000A021C02100F08FF9B8BB012001B000BD22
:1042800080680068B4EE600AF1EE10FA48BFB2EE42
:10429000040A28D4DFED4A0AB4EE600AF1EE10FAFF
:1042A00048BF9FED8B0A1ED4DFED460AB4EE600ACC
:1042B000F1EE10FA48BF9FED870A14D4DFED820AB1
:1042C000B4EE600AF1EE10FA48BF9FED830A0AD4FB
:1042D000DFED7E0AB4EE600AF1EE10FA4CBF9FEDFE
:1042E0007F0A9FED7F0A80ED000A002001B000BD2B
:1042F00023DB793D10B582B00C46694600F03BF9EE
:1043000010B9012002B010BD9DF8000058B1082876
:1043100015D010280DD018280ED0DFF8DC01206051
:1043200002B0012010BD4FF08040206002B000209C
:1043300010BD4FF08140F8E74FF08240F5E74FF0B5
:104340008340F2E700B5042981B010D8DFE801F01E
:10435000030F0B0F0D00002100F0EEF8401E80410E
:10436000C00F01B000BD1021F6E71821F4E70120CD
:1043700001B000BDDFED5B0A00B5B4EE600AF1EEFE
:1043800010FA81B048BF002111D4DFED570AB4EE16
:10439000600AF1EE10FA48BF102108D4DFED530A8D
:1043A000B4EE600AF1EE10FA4CBF1821082100F0BB
:1043B000C3F8401E8041C00F01B000BD0100204184
:1043C000010048420100EE4230B581B00D4604467E
:1043D0000DF1020100F080F950B10DF1010120460C
:1043E00000F0A9F920B16946204600F0D3F910B9D0
:1043F000012001B030BD9DF8020008280CBF01204B
:10440000002028709DF8010010280CBF012000201A
:1044100068709DF8000020280CBF01200020A870C3
:1044200001B0002030BD30B50D4681B0044628787B
:1044300001280CBF08210021204600F02EF940B1D0
:10444000687801280CBF10210021204600F054F9A3
:1044500010B9012001B030BDA87801280CBF20217F
:104460000021204600F077F9401E8041C00F01B0C6
:1044700030BD00B581B0012300F049F8401E8041F5
:10448000C00F01B000BD00B581B001238DF8002040
:104490006A4600F033F8401E8041C00F01B000BDF5
:1044A00010B582B00C46694600F0E7F848B19DF8B7
:1044B0000000002818BF012803D1207002B000209E
:1044C00010BD012002B010BD01006E430100EE439B
:1044D000000048420000EE4200006E430000EE4340
:1044E00000006E44010000400100804001000041D6
:1044F00000002041000080BF000080BF00B581B0F7
:10450000FEF7EAF8401E8041C00F01B000BD00B5C3
:1045100081B0FEF7F8F8401E8041C00F01B000BD29
:1045200000B50A4681B001230F21FEF7ECF8401ECA
:104530008041C00F01B000BD30B581B00D460446CA
:1045400001236A462021FEF7DEF810B1002001B0F9
:1045500030BD9DF8000000F0E70028438DF8000012
:1045600001236A4620212046FEF7B6F8401E80410E
:10457000C00F01B030BD10B50C46012322462021EA
:10458000FEF7C1F808B1002010BD207800F0180037
:104590002070012010BD30B581B00D4604460123C6
:1045A0006A462021FEF7AFF810B1002001B030BDFF
:1045B0009DF8000000F01F0028438DF80000012343
:1045C0006A4620212046FEF787F8401E8041C00F32
:1045D00001B030BD10B50C46012322462021FEF764
:1045E00092F808B1002010BD207800F0E0002070A3
:1045F000012010BD30B581B00D46044601236A4646
:104600002221FEF780F810B1002001B030BD9DF8E6
:10461000000000F0BF0028438DF8000001236A4627
:1046200022212046FEF758F8401E8041C00F01B0FD
:1046300030BDF0B581B004460D4600260327F6B222
:1046400006F128010123AA19C9B22046FEF75BF83A
:1046500050B9761CF6B206F128010123AA19C9B295
:104660002046FEF750F810B1002001B0F0BD761CD6
:104670007F1EE4D1012001B0F0BD10B50C4601232E
:1046800022462721FEF73FF808B1002010BD207810
:1046900000F001002070012010BD30B581B00D4642
:1046A000044601236A461F21FEF72DF810B10020B1
:1046B00001B030BD9DF8000000F0F70028438DF8F0
:1046C000000001236A461F212046FEF705F8401E20
:1046D0008041C00F01B030BD10B50C460123224609
:1046E0001F21FEF710F808B1002010BD207800F05F
:1046F00008002070012010BD30B581B00D46044681
:1047000001236A461F21FDF7FEFF10B1002001B012
:1047100030BD9DF8000000F0EF0028438DF8000048
:1047200001236A461F212046FDF7D6FF401E804127
:10473000C00F01B030BD10B50C46012322461F2129
:10474000FDF7E1FF08B1002010BD207800F0100057
:104750002070012010BD30B581B00D460446012304
:104760006A461F21FDF7CFFF10B1002001B030BD18
:104770009DF8000000F0DF0028438DF800000123C1
:104780006A461F212046FDF7A7FF401E8041C00F4B
:1047900001B030BD10B50C46012322461F21FDF7A4
:1047A000B2FF08B1002010BD207800F0200020707A
:1047B000012010BD30B581B00D46044601236A4684
:1047C0002221FDF7A0FF10B1002001B030BD9DF8FF
:1047D000000000F0FB0028438DF8000001236A462A
:1047E00022212046FDF778FF401E8041C00F01B016
:1047F00030BDF0B4016844688368014401EB5402A1
:10480000E40748BF4B44914202D1F0BC0C307047E2
:1048100011F8015B15F0030604BF11F8014BE61C0B
:104820002C090F2C07D111F8014B0F3403E011F8BC
:10483000017B03F8017B761EF9D1002CE3D0AD0893
:1048400011F8016B05F00305032D08BF11F8015B9A
:1048500006EB05256D42A41C1D44D4D015F8016B50
:1048600003F8016B641EF9D1CDE700000E480F4B31
:10487000D0F8801041F47001C0F880100C490A682B
:1048800042F001020A6000228A600A681A400A6047
:10489000084A4A600A6822F480220A600022CA603C
:1048A0004FF000610160704708ED00E0FFFFF6FE89
:1048B000003802401030002419E050F8041BCB07E8
:1048C00044BFA9F101035918121F0023042A41F81B
:1048D000043BF9D25FEA827C0B4604D54FF0000C12
:1048E000A1F800C09B1CD10744BF0021197050F8EB
:1048F000042B002AE1D1704710B5074979441831DB
:10490000064C7C44163404E00A68081D11448847AC
:104910000146A142F8D110BD2C0000004800000063
:104920004EF68851CEF20001086840F4700008602D
:10493000BFF34F8FBFF36F8F4FF00070E1EE100A9F
:104940007047000075FFFFFF9400000088050020FD
:10495000000000009FFEFFFF800100008E020000AB
:104960000000002000F00BF8002801D0FFF7C4FF82
:104970000020C046C046FEF72DFE00F002F80120E0
:10498000704700F001B800000746384600F002F812
:10499000FBE7000080B5C046C046024A110018205F
:1049A000ABBEFBE7260002007047FEE7704700F051
:1049B00007B81020FEF790BC4FF40050FEF78CBCF7
:1049C00002480168491C0160704700BF18060020BA
:1049D00001488047014800476D480008E149000848
:1049E000C046C046FFF79CFFFFF7BCFFFFF7FEBFC6
:1049F000FFF7FEBFFFF7FEBFFFF7FEBFFFF7FEBFEB
:104A0000FFF7FEBFFFF7FEBFFFF7FEBFFFF7FEBFDA
:104A1000FFF7FEBFFFF7FEBFFFF7FEBFFFF7FEBFCA
:104A2000FFF7FEBFFFF7FEBFFFF7FEBFFFF7FEBFBA
:104A3000FFF7FEBFFFF7FEBFFFF7FEBFFFF7FEBFAA
:104A4000FFF7FEBFFFF7FEBFFFF7FEBFFFF7FEBF9A
:104A5000FFF7FEBFFFF7FEBFFFF7FEBFFFF7FEBF8A
:104A6000FFF7FEBFFFF7FEBFFFF7FEBFFFF7FEBF7A
:104A7000FFF7FEBFFFF7FEBFFFF7FEBFFFF7FEBF6A
:104A8000FFF7FEBFFFF7FEBFFFF7FEBFFFF7FEBF5A
:104A9000FFF7FEBFFFF7FEBFFFF7FEBFFFF7FEBF4A
:104AA000FFF7FEBFFFF7FEBFFFF7FEBFFFF7FEBF3A
:104AB000FFF7FEBFFFF7FEBFFFF7FEBFFFF7FEBF2A
:104AC000FFF7FEBFFFF7FEBFFFF7FEBFFFF7FEBF1A
:104AD000FFF7FEBFFFF7FEBF1007A13D0008213E14
:104AE0000008750412F5041003833F0008950412B2
:104AF000C104100385400008CF04100329410008B9
:104B0000A90413114224110413454330110412C99E
:104B100004100327440008730412870412A1041030
:104B200007790C00080D0D00083704125F0412719C
:104B30000412CF041003030E00082B04123D0412CC
:104B4000510412650412770412CB0412F504131DEC
:104B50000F3C110412A30412CB0412DD04100359FC
:104B6000100008AB0412D50413651118110412F3D8
:104B7000041003051200081704122904123D041240
:104B80008D0412AD0412D50412FD04100325130088
:104B9000084D04127504129D0412C504137914C43F
:104BA000110412D9041003091500081B04122D0466
:104BB000123F04125D0410030D160008350412554F
:104BC00004126704128304129F0417950120100336
:104BD000020008E10340120420120520110412957E
:104BE00004177506281104131D0780110410071DF2
:104BF00008000899090008ED0410031D0A00089137
:104C00000412EF0410033B0B00084F041269045018
:0F4C1000010001000116025A1104000124F400F2
:0400000508000000EF
:00000001FF
