:020000040800F2
:10000000F0050020B9680008196800081B6800089E
:1000100000000000000000000000000000000000E0
:10002000000000000000000000000000C7240008DD
:100030000000000000000000032500081D68000803
:100040003F2E0008C73000088B360008BF4100086B
:1000500093530008C35400087B5600082968000821
:100060000F570008CF640008D36400083F680008F9
:1000700097680008A368000800000000DD68000819
:1000800000000000DF680008000000000000000021
:10009000E168000800000000E3680008E568000867
:1000A000E7680008E9680008EB680008ED680008E8
:1000B000EF680008F1680008F3680008F5680008B8
:1000C00070B582B00400A06805682E6800206946FB
:1000D0000870200001F04CFA002824D0684600780F
:1000E000217888421FD10421200001F0DFFB002885
:1000F00019D04021200001F047FA002813D0002138
:10010000200001F057FB00280DD0B748686000219F
:10011000200001F0ADFA002805D00021200001F0F8
:1001200052FA002801D1012003E001203070E07074
:10013000002002B070BDF0B581B00400A068066870
:1001400037680025684605706946200001F010FAFE
:10015000002800D1BAE0684600782178884200D0B3
:10016000B4E00021200002F053F8002800D1ADE0F7
:100170000021200001F033FE002800D1A6E000217C
:10018000200001F0AFFF002800D19FE000212000F7
:1001900001F089FF002800D198E00021200001F043
:1001A000F9FF002800D191E00021200001F017FEA6
:1001B000002800D18AE00021200001F050FE002834
:1001C00000D183E00021200001F051FB00287DD008
:1001D0000021200001F0E6FB002877D0002120005C
:1001E00001F0FFFB002871D00021200002F09DF8F3
:1001F00000286BD00021200002F048F8002865D0CC
:100200000021200001F0EBFD00285FD0002120003C
:1002100001F004FE002859D00021200001F03EFE2C
:10022000002853D00021200001F059FE00284DD0B5
:100230000021200001F076FD002847D00021200099
:1002400001F08FFD002841D00021200001F0A8FD21
:1002500000283BD00021200001F0BBFF002835D052
:100260000021200001F0BBFD00282FD0002120003C
:1002700001F0D4FD002829D00021200001F00EFE5D
:10028000002823D00021200001F029FE00281DD0E5
:100290000021200001F045FE002817D00021200099
:1002A00001F080FE002811D00021200001F03AFD6D
:1002B00000280BD00021200001F053FD002805D0BC
:1002C0000021200001F06CFD002801D101203FE059
:1002D0000021200001F03FFF0028F7D0002120007E
:1002E00001F041FB0028F1D00021200001F079FB52
:1002F0000028EBD00021200001F0A9FF0028E5D064
:100300000021200001F06BFD0028DFD0002120003B
:1003100001F0A7FE0028D9D00021200001F021FE25
:100320000028D3D0207900280ED0A0680068011DD5
:10033000200000F06FF90128C8D00021200001F052
:1003400097F90028C2D02571002070603D70E570DB
:1003500001B0F0BD10B504002079012842D0A0689A
:1003600000684068804902F025F801D2102130E091
:100370007E4902F01FF801D220212AE07C4902F0D8
:1003800019F801D2302124E09C4902F013F801D27F
:1003900040211EE09A4902F00DF801D2502118E0E8
:1003A000984902F007F801D2602112E0964902F064
:1003B00001F801D270210CE0944901F0FBFF01D259
:1003C000802106E0924901F0F5FF01D2902100E082
:1003D000A021200001F04CF9002801D1012010BD1E
:1003E00001202071002010BD0000D04230B581B046
:1003F00004002079002841D0A0680068051D6946E6
:10040000200001F054F9002834D068460078002814
:1004100026D0102823D020281FD030281BD04028D9
:1004200017D0502813D060280FD070280BD0802808
:1004300007D0902803D0A0281AD1954810E09548FD
:100440000EE095480CE095480AE0954808E095488C
:1004500006E0954804E0954802E0954800E095489C
:1004600028600021200001F003F9002804D101E0F8
:1004700091482860012001E00020207101B030BDCA
:1004800000B581B001F074F8401E8041C00F01B08A
:1004900000BD30B581B0040000256846057069468E
:1004A000200001F065F8002804D068460078217823
:1004B000884200D00125280001B030BDF0B583B0DE
:1004C00005000C0001A80021002206C001A9280097
:1004D00001F0A9F8002844D001A841780902027867
:1004E0008E18C1780902827889186A46518041794C
:1004F000090200790F186946280001F083F80028E6
:100500002FD06846007800280CD0042804D0082892
:1005100006D00C2802D024E0814D04E0814D02E099
:10052000814D00E0814D30B201F05CFF290001F007
:1005300072FF01F0C9FF20600098001401F052FF23
:10054000290001F068FF01F0BFFF606038B201F0E0
:1005500049FF290001F05FFF01F0B6FFA060002015
:1005600000E0012003B0F0BD010050410100D04186
:100570000100504210B582B00C00694600220023F1
:100580000CC1694601F04FF8002801D1012010E0AC
:10059000684641780902027889182180C1780902E9
:1005A0008278891861804179090200790818A08051
:1005B000002002B010BD10B582B00C00694601F0F9
:1005C00021F8002801D101200DE0684600780028BC
:1005D00006D004280DD0082807D00C2807D00AE040
:1005E00052482060002002B010BD4F48F9E74D4846
:1005F000F7E74B48F5E730482060E4E70100D042D8
:10060000010050430100D043014050440180CF44D9
:100610000120504510B582B00C00694601F047F842
:10062000002801D101201AE068460078002814D083
:10063000102816D0202816D0302816D0402816D0E2
:10064000502816D0602816D0702816D0802816D0D2
:10065000902816D0A02816D017E02060002002B005
:1006600010BD1448F9E71248F7E71048F5E70E48BF
:10067000F3E70C48F1E70A48EFE70848EDE70648DA
:10068000EBE70448E9E70248E7E70B482060C9E7E1
:100690000020D045002050450080CF440040504409
:1006A0000000D043000050430000D0420000504200
:1006B0000000D04100005041000080BF00B581B073
:1006C0000279012A15D100290CD0022908D009D3BA
:1006D000042901D002D30AE0402104E0302102E0E5
:1006E000202100E0102100F0C3FF002814D10120D8
:1006F00013E08068006800290CD0022908D009D3D3
:10070000042901D002D3F2E76E4904E06E4902E009
:100710006E4900E085494160002001B000BD000045
:1007200023DBF93E23DB793E23DBF93D23DB793DF7
:1007300000B581B00200080065491379012B3CD156
:1007400001F038FE01D2102130E0794901F032FE8B
:1007500001D220212AE0774901F02CFE01D230217C
:1007600024E0754901F026FE01D240211EE07349C4
:1007700001F020FE01D2502118E0714901F01AFE6B
:1007800001D2602112E06F4901F014FE01D2702104
:100790000CE06D4901F00EFE01D2802106E06B49AC
:1007A00001F008FE01D2902100E0A021100000F02D
:1007B0005FFF00282AD1012029E09268126801F029
:1007C000F9FD1FD35A4901F0F5FD1BD3594901F03A
:1007D000F1FD17D3584901F0EDFD13D3574901F04E
:1007E000E9FD0FD3564901F0E5FD0BD3554901F062
:1007F000E1FD07D3544901F0DDFD03D3534901F076
:10080000D9FD01D2481E00E051485060002001B0DF
:1008100000BD10B582B00C00694600F0F3FE002860
:1008200001D101200EE068460078002806D0042897
:100830000ED0082808D00C2808D00BE08020C00576
:100840002060002002B010BD8120F8E78220F6E78A
:100850008320F4E73F482060E3E700B581B000293A
:1008600004D0022909D0042909D00AE000F0ABFE27
:10087000401E8041C00F01B000BD0821F6E70C21E9
:10088000F4E70120F7E700B581B002000800324923
:1008900001F090FD01D200210CE0304901F08AFD09
:1008A00001D2082106E02E4901F084FD01D20C217D
:1008B00000E00421100000F086FE401E8041C00FC1
:1008C00001B000BD0000D042000050420000D04105
:1008D0000100504100B581B0012300F037FE401EF9
:1008E0008041C00F01B000BD00B581B06B461A70E9
:1008F00001236A4600F033FE401E8041C00F01B064
:1009000000BD10B582B00C00694601F044F9002822
:1009100009D068460078002801D0012803D1207052
:10092000002002B010BD0120FBE700000000504194
:100930000100D041010050420100D042010050436B
:100940000100D043014050440180CF440120504574
:100950000020D045000080BF010000400100804021
:100960000100004100B581B002000800764901F0A5
:1009700021FD01D2102130E0744901F01BFD01D2AC
:1009800020212AE0724901F015FD01D2302124E036
:10099000B24901F00FFD01D240211EE0B04901F043
:1009A00009FD01D2502118E0AE4901F003FD01D24A
:1009B000602112E0AC4901F0FDFC01D270210CE095
:1009C000AA4901F0F7FC01D2802106E0A84901F014
:1009D000F1FC01D2902100E0A021100000F048FEBF
:1009E000401E8041C00F01B000BD10B50400A149F8
:1009F0002079012805D12000FFF7B4FF012803D199
:100A000010BDA068006841600021200000F0DBFDFF
:100A1000002823D00621200001F064FB00281DD00F
:100A20000021200001F01DFB002817D0002120002C
:100A300001F0F8FA002811D00021200001F0D1FACD
:100A400000280BD00321200001F02DFB002805D049
:100A50008021200001F0C3F9002801D1012010BD40
:100A60001021200001F0D4FB401E8041C00F10BDBA
:100A700010B50400002101F0CBFB00280BD00021B1
:100A8000200001F0ACF9002805D00021200001F081
:100A900029FB002801D1012010BD0021200001F018
:100AA00002FB401E8041C00F10BD10B582B00C008B
:100AB000694600F0C6FF00280AD068460078002882
:100AC00002D0202804D101202070002002B010BDE7
:100AD0000120FBE700B581B001F0E5FA401E80413E
:100AE000C00F01B000BD10B5040092492079012863
:100AF00005D12000FFF736FF012803D110BDA06803
:100B0000006841600021200000F05DFD002811D048
:100B10001721200001F009FC00280BD0042120003F
:100B200000F05FFF002805D01021200000F03AFF00
:100B3000002801D1012010BD8021200000F097FE87
:100B4000401E8041C00F10BD010050410100D04146
:100B50000100504210B50400002100F088FE00287A
:100B60000BD00021200000F01DFF002805D000213F
:100B7000200000F036FF002801D1012010BD002127
:100B8000200001F0D2FB401E8041C00F10BD10B507
:100B900082B00C00694601F084F800280AD068464B
:100BA0000078002802D0102804D1012020700020F5
:100BB00002B010BD0120FBE700B581B001F09DFB44
:100BC000401E8041C00F01B000BD00B581B00221C0
:100BD00000F0AAFE401E8041C00F01B000BD00B56C
:100BE00081B0002100F0A0FE401E8041C00F01B086
:100BF00000BD00B581B001F098FB401E8041C00FE0
:100C000001B000BD10B504004A492079012805D182
:100C10002000FFF7A7FE012803D110BDA0680068DF
:100C200041600021200000F0CEFC00280BD0042100
:100C3000200000F0D6FE002805D00821200000F09A
:100C400092FE002801D1012010BD0221200001F0F8
:100C500082FA401E8041C00F10BD00000100D0424A
:100C6000010050430100D043014050440180CF4473
:100C7000012050450000D04310B50400002101F0D0
:100C80006AFA002805D00021200000F06CFE002840
:100C900001D1012010BD0021200000F0A2FE401E65
:100CA0008041C00F10BD10B582B00C00694601F044
:100CB00009F800280AD068460078002802D02028C9
:100CC00004D101202070002002B010BD0120FBE7FC
:100CD00010B50400AA492079012805D12000FFF7AA
:100CE00041FE012803D110BDA068006841600021C9
:100CF000200000F068FC002811D00021200001F045
:100D0000B0F900280BD00221200001F02AF90028B8
:100D100005D08021200001F062F8002801D10120D7
:100D200010BD2021200001F092FA401E8041C00F2A
:100D300010BD00000000D04110B50400002101F0FA
:100D400086FA00280BD00021200001F048F8002886
:100D500005D00021200001F084F9002801D10120F4
:100D600010BD0021200001F0FCF8401E8041C00FA2
:100D700010BD10B582B00C00694600F051FE00288D
:100D80000AD068460078002802D0082804D1012043
:100D90002070002002B010BD0120FBE700B581B03B
:100DA00001F0DFF8401E8041C00F01B000BD10B55A
:100DB000040073492079012805D12000FFF7D2FDF6
:100DC000012803D110BDA068006841600021200007
:100DD00000F0F9FB002829D00821200000F0E0FFF6
:100DE000002823D00421200000F0BBFF00281DD0E4
:100DF0000221200000F096FF002817D008212000D3
:100E000001F00CF8002811D00221200001F046F872
:100E100000280BD00121200001F061F8002805D046
:100E20008021200000F0DBFF002801D1012010BD4F
:100E30004021200001F02AFA401E8041C00F10BD61
:100E400010B50400002101F021FA002823D0002170
:100E5000200000F0C4FF00281DD00021200000F079
:100E6000DDFF002817D00021200001F017F800282E
:100E700011D00021200001F032F800280BD0002111
:100E8000200000F04FFF002805D00021200000F0D6
:100E900068FF002801D1012010BD0021200000F0D2
:100EA0007FFF401E8041C00F10BD10B582B00C0006
:100EB000694600F0E8FD00280AD06846007800285E
:100EC00002D0202804D101202070002002B010BDE3
:100ED0000120FBE710B5040029492079012805D13C
:100EE0002000FFF73FFD012803D110BDA068006876
:100EF00041600021200000F066FB002835D0082169
:100F0000200000F04DFF00282FD00421200000F029
:100F100028FF002829D00221200000F003FF00282C
:100F200023D00821200000F079FF00281DD00321E4
:100F3000200000F0B3FF002817D00321200000F0AC
:100F4000CEFF002811D00821200000F0EAFF002881
:100F50000BD08021200001F025F8002805D0802149
:100F6000200000F03CFF002801D1012010BD082125
:100F7000200001F02EF9401E8041C00F10BD00007E
:100F80000000D04310B50400002101F022F9002830
:100F90002FD00021200000F022FF002829D00021BE
:100FA000200000F03BFF002823D00021200000F0AB
:100FB00075FF00281DD00021200000F090FF0028C0
:100FC00017D00021200000F0ACFF002811D0002134
:100FD000200000F0E7FF00280BD00021200000F0E7
:100FE000A1FE002805D00021200000F0BAFE002854
:100FF00001D1012010BD0021200000F0D1FE401ED3
:101000008041C00F10BD10B582B00C00694600F0E1
:1010100029FD00280AD068460078002802D0102850
:1010200004D101202070002002B010BD0120FBE798
:1010300000B581B000F0F2FE401E8041C00F01B04B
:1010400000BD00B581B000F029FF401E8041C00FF7
:1010500001B000BD00B581B000F041FF401E8041ED
:10106000C00F01B000BD00B581B000F05AFF401EB6
:101070008041C00F01B000BD10B504008A4920793D
:10108000012805D12000FFF76DFC012803D110BD18
:10109000A068006841600021200000F094FA002858
:1010A0000BD04021200000F0DAFE002805D080217E
:1010B000200000F094FE002801D1012010BD042181
:1010C000200001F067F8401E8041C00F10BD10B530
:1010D0000400002101F05EF8002805D00021200066
:1010E00000F07DFE002801D1012010BD002120006C
:1010F00000F0B5FE401E8041C00F10BD10B582B09B
:101100000C00694600F036FD00280AD068460078D9
:10111000002802D0402804D101202070002002B015
:1011200010BD0120FBE710B582B00C00694600F04D
:10113000BBFC002809D068460078002801D00128AF
:1011400003D12070002002B010BD0120FBE710B5D4
:1011500082B00C00694600F0B8FC00280AD068464E
:101160000078002802D0022804D10120207000203D
:1011700002B010BD0120FBE710B582B00C0069463B
:1011800000F0B4FC00280AD068460078002802D09D
:10119000042804D101202070002002B010BD0120DD
:1011A000FBE710B582B00C00694600F0B0FC0028E7
:1011B0000AD068460078002802D0082804D101200F
:1011C0002070002002B010BD0120FBE710B582B0F6
:1011D0000C00694600F0ACFC00280AD06846007894
:1011E000002802D0102804D101202070002002B075
:1011F00010BD0120FBE710B582B00C00694600F07D
:10120000A8FC00280AD068460078002802D02028D0
:1012100004D101202070002002B010BD0120FBE7A6
:1012200000B581B002000800724901F0C3F801D294
:10123000082130E0704901F0BDF801D210212AE008
:101240006E4901F0B7F801D2182124E06C4901F091
:10125000B1F801D220211EE06A4901F0ABF801D2B9
:10126000282118E0684901F0A5F801D2302112E0E8
:10127000664901F09FF801D238210CE0644901F081
:1012800099F801D2402106E0624901F093F801D2B9
:10129000482100E05021100000F0ABFA401E8041D0
:1012A000C00F01B000BD00000000D04310B582B0F7
:1012B0000C00694600F0B2FC00280CD068460078AB
:1012C000002802D0202804D005E02070002002B0C1
:1012D00010BD0120F9E70120F9E710B582B00C003C
:1012E000694600F08AFC00280CD068460078002887
:1012F00002D0102804D005E02070002002B010BDFC
:101300000120F9E70120F9E710B582B00C00694629
:1013100000F095FC00280CD068460078002802D028
:10132000402804D005E02070002002B010BD01204C
:10133000F9E70120F9E700B581B000F091FC401E0B
:101340008041C00F01B000BD00B581B000F0BDFF0D
:10135000401E8041C00F01B000BD00B581B000F05B
:101360002BFC401E8041C00F01B000BD00B581B014
:10137000072905D800F0DFF9401E8041C00F00E0CA
:10138000012001B000BD70B582B004000E0000A9BC
:10139000891C00F09AFF002828D000A8801C417802
:1013A0000D02007805436946200000F02BF9002863
:1013B0001CD06846007800280CD0042804D00828E7
:1013C00006D00C2802D011E0134C04E0134C02E0CC
:1013D000134C00E0134C28B201F004F8210001F096
:1013E0001AF801F071F83060002000E0012002B02E
:1013F00070BD0000010020410100C84101004842C9
:101400000100C842010048430100C84301004844AC
:101410000100C84401404E4523DBF93E23DB793E01
:1014200023DBF93D23DB793D00B581B0012904D9E7
:10143000CA1E012A01D9D21E05D100F0BBF9401EF7
:101440008041C00F00E0012001B000BD00B581B0B7
:101450000A0001D0202905D100F0EAF9401E8041A0
:10146000C00F00E0012001B000BD00B581B000F068
:101470002FF9401E8041C00F01B000BD00B581B002
:101480000A0001D0802905D100F075F9401E804185
:10149000C00F00E0012001B000BD00B581B00129FE
:1014A00005D800F020FC401E8041C00F00E0012064
:1014B00001B000BD00B581B0032905D800F015FAD0
:1014C000401E8041C00F00E0012001B000BDF8B413
:1014D0000168421843685908511800918168DB0778
:1014E00001D54B46C918009B9A4202D10C30F2BC80
:1014F00070471378521C032403261E4002D116782D
:10150000F61C521C1D090F2D07D115780F35521CE2
:1015100003E01778521C0F70491C761EF9D1002D7C
:10152000E1D01678521C9B081C40032C01D1147882
:10153000521C2302F3185C420B19AD1CD3D01C784B
:101540005B1C0C70491C6D1ECDD0F8E700B581B056
:1015500001F071F8401E8041C00F01B000BD00B520
:1015600081B001F050F8401E8041C00F01B000BDB5
:1015700000B581B001230A000F2101F05CF8401E84
:101580008041C00F01B000BD30B581B005000C0036
:1015900001236A46122101F04EF8002801D00020F4
:1015A0000FE068460078BF2101400C436846047094
:1015B00001236A461221280001F025F8401E8041CF
:1015C000C00F01B030BD30B581B005000C00012363
:1015D0006A46102101F02FF8002801D000200FE00A
:1015E00068460078F32101400C43684604700123EB
:1015F0006A461021280001F006F8401E8041C00F05
:1016000001B030BD10B50C0001232200102101F003
:1016100012F8002801D0002010BD20780C210140D4
:101620002170012010BDF0B581B007000E0000242C
:1016300003250123E4B2321921002831C9B2380050
:1016400000F0F9FF00280BD1641C0123E4B2321929
:1016500021002831C9B2380000F0EDFF002801D088
:10166000002003E0641C6D1EE3D1012001B0F0BD39
:1016700030B581B005000C0001236A46102100F04E
:10168000DAFF002801D000200FE06846007800074C
:10169000000F04436846047001236A4610212800A5
:1016A00000F0B1FF401E8041C00F01B030BD10B549
:1016B0000C0001232200102100F0BDFF002801D002
:1016C000002010BD2078F02101402170012010BDC4
:1016D00070B582B005000C00660501236A4606213C
:1016E00000F0A9FF002811D16846047001236A4662
:1016F0000621280000F087FF002807D101236A4651
:101700000721280000F097FF002801D0002010E0FA
:1017100068460078F8210140700F08436946087058
:1017200001236A460721280000F06DFF401E80411A
:10173000C00F02B070BD30B581B005000C000123B0
:101740006A46082100F077FF002801D000200FE052
:1017500068460078F82101400C4368460470012374
:101760006A460821280000F04EFF401E8041C00F4D
:1017700001B030BD000030B581B005000C00012380
:101780006A46092100F057FF002801D000200FE031
:10179000684600784006400E044368460470012302
:1017A0006A460921280000F02EFF401E8041C00F2C
:1017B00001B030BD30B581B005000C0001236A4690
:1017C0000A2100F038FF002801D000200FE0684611
:1017D0000078F82101400C436846047001236A46F2
:1017E0000A21280000F00FFF401E8041C00F01B009
:1017F00030BD30B581B005000C0001236A460A21D6
:1018000000F019FF002801D000200FE068460078A2
:10181000872101400C436846047001236A460A216F
:10182000280000F0F0FE401E8041C00F01B030BD26
:1018300030B581B005000C0001236A460D2100F08F
:10184000FAFE002801D000200FE068460078DF2172
:1018500001400C436846047001236A460D212800AC
:1018600000F0D1FE401E8041C00F01B030BD30B548
:1018700081B005000C0001236A460D2100F0DBFE5B
:10188000002801D000200FE0684600784006400E96
:1018900004436846047001236A460D21280000F0C5
:1018A000B2FE401E8041C00F01B030BD30B581B0E6
:1018B00005000C0001236A46122100F0BCFE00283E
:1018C00001D000200FE068460078FB2101400C4366
:1018D0006846047001236A461221280000F093FE36
:1018E000401E8041C00F01B030BD30B581B0050051
:1018F0000C0001236A46142100F09DFE002801D04F
:1019000000200FE068460078FC2101400C43684647
:10191000047001236A461421280000F074FE401E62
:101920008041C00F01B030BD30B581B005000C0062
:1019300001236A46192100F07EFE002801D0002014
:101940000FE068460078FD2101400C4368460470B2
:1019500001236A461921280000F055FE401E8041EF
:10196000C00F01B030BD30B581B005000C000123BF
:101970006A46192100F05FFE002801D000200FE028
:1019800068460078F72101400C4368460470012343
:101990006A461921280000F036FE401E8041C00F23
:1019A00001B030BD30B581B005000C0001236A469E
:1019B000192100F040FE002801D000200FE0684609
:1019C0000078EF2101400C436846047001236A4609
:1019D0001921280000F017FE401E8041C00F01B001
:1019E00030BD30B581B005000C0001236A461921D5
:1019F00000F021FE002801D000200FE068460078AA
:101A0000FB2101400C436846047001236A461921FA
:101A1000280000F0F8FD401E8041C00F01B030BD2D
:101A200010B50C00012322001B2100F004FE002849
:101A300001D0002010BD207808210840207001202E
:101A400010BD10B50C00012322001B2100F0F3FD96
:101A5000002801D0002010BD2078202108402070EF
:101A6000012010BD10B50C00012322001C2100F044
:101A7000E2FD002801D0002010BD20781021084090
:101A80002070012010BD10B50C00012322001C2184
:101A900000F0D1FD002801D0002010BD20782021C9
:101AA00008402070012010BD10B50C000123220059
:101AB0001D2100F0C0FD002801D0002010BD2078BD
:101AC000C107C90F2170012010BD10B50C00012302
:101AD00022001D2100F0AFFD002801D0002010BD24
:101AE0002078022108402070012010BD10B50C00A4
:101AF000012322001D2100F09EFD002801D00020BE
:101B000010BD2078042108402070012010BD10B5C0
:101B10000C00012322001D2100F08DFD002801D0C2
:101B2000002010BD2078082108402070012010BD41
:101B300010B50C00012322001D2100F07CFD0028BF
:101B400001D0002010BD2078102108402070012015
:101B500010BD10B50C00012322001D2100F06BFD0B
:101B6000002801D0002010BD2078202108402070DE
:101B7000012010BD10B50C00012322001D2100F032
:101B80005AFD002801D0002010BD207840210840D7
:101B90002070012010BD10B50C00012322001E2171
:101BA00000F049FD002801D0002010BD2078C107B9
:101BB000C90F2170012010BD30B581B004000D00A7
:101BC00001236A463A2100F036FD002808D101239E
:101BD00000AA521C3B21200000F02DFD002801D05E
:101BE000002008E0684640780007000D6946097843
:101BF00008432880012001B030BD10B50C0001233E
:101C000022003B2100F017FD002801D0002010BD6C
:101C10002078102108402070012010BD10B50C0064
:101C2000012322003B2100F006FD002801D0002006
:101C300010BD2078202108402070012010BD10B573
:101C40000C00012322003B2100F0F5FC002801D00C
:101C5000002010BD2078402108402070012010BDD8
:101C600030B581B004000D0001236A463C2100F02C
:101C7000E2FC002808D1012300AA521C3D212000CB
:101C800000F0D9FC002801D0002008E06846407828
:101C90008007800D6946097808432880012001B03B
:101CA00030BD10B50C0001232200532100F0C3FC0D
:101CB000002801D0002010BD20781021084020709D
:101CC000012010BD10B50C0001232200532100F0AB
:101CD000B2FC002801D0002010BD2078202108404F
:101CE0002070012010BD30B581B005000C0001232B
:101CF0006A46582100F09FFC002801D000200FE028
:101D000068460078FE2101400C43684604700123B8
:101D10006A465821280000F076FC401E8041C00F22
:101D200001B030BD30B581B005000C0001236A461A
:101D3000582100F080FC002801D000200FE0684608
:101D40000078FD2101400C436846047001236A4677
:101D50005821280000F057FC401E8041C00F01B000
:101D600030BD30B581B005000C0001236A46582112
:101D700000F061FC002801D000200FE068460078E8
:101D8000FB2101400C436846047001236A46582138
:101D9000280000F038FC401E8041C00F01B030BD6B
:101DA00030B581B005000C0001236A46582100F0CF
:101DB00042FC002801D000200FE068460078F7219F
:101DC00001400C436846047001236A4658212800EC
:101DD00000F019FC401E8041C00F01B030BD30B58D
:101DE00081B005000C0001236A46582100F023FC55
:101DF000002801D000200FE0684600784006400E21
:101E000004436846047001236A465821280000F004
:101E1000FAFB401E8041C00F01B030BD30B581B02B
:101E200005000C0001236A46592100F004FC00283B
:101E300001D0002011E068460078E0210140E00672
:101E4000C00E08436946087001236A4659212800DC
:101E500000F0D9FB401E8041C00F01B030BD30B54D
:101E600081B005000C0001236A46592100F0E3FB14
:101E7000002801D000200FE0684600789F21014033
:101E80000C436846047001236A465921280000F07B
:101E9000BAFB401E8041C00F01B030BD30B581B0EB
:101EA00005000C0001236A465A2100F0C4FB0028FB
:101EB00001D0002011E068460078FC210140A00715
:101EC000800F08436946087001236A465A2128009A
:101ED00000F099FB401E8041C00F01B030BD30B50D
:101EE00081B005000C0001236A465A2100F0A3FBD3
:101EF000002801D0002012E068460078F32101405C
:101F0000A0000C2202400A436846027001236A4680
:101F10005A21280000F077FB401E8041C00F01B01D
:101F200030BD30B581B005000C0001236A465A214E
:101F300000F081FB002801D0002010E06846007806
:101F40000007000F210101436846017001236A4622
:101F50005A21280000F057FB401E8041C00F01B0FD
:101F600030BD30B581B005000C0001236A465B210D
:101F700000F061FB002801D0002011E068460078E5
:101F8000C0210140A006800E084369460870012365
:101F90006A465B21280000F036FB401E8041C00FDE
:101FA00001B030BD30B581B005000C0001236A4698
:101FB0005B2100F040FB002801D000200FE06846C4
:101FC00000784006400E04436846047001236A46C8
:101FD0005B21280000F017FB401E8041C00F01B0BC
:101FE00030BD30B581B005000C0001236A465C218C
:101FF00000F021FB002801D0002011E068460078A5
:10200000F02101402007000F0843694608700123B2
:102010006A465C21280000F0F6FA401E8041C00F9D
:1020200001B030BD30B581B005000C0001236A4617
:102030005C2100F000FB002801D000200FE0684682
:102040000078EF2101400C436846047001236A4682
:102050005C21280000F0D7FA401E8041C00F01B07B
:1020600030BD30B581B005000C0001236A465C210B
:1020700000F0E1FA002801D0002012E06846007864
:102080009F2101406001602202400A4368460270BD
:1020900001236A465C21280000F0B5FA401E804109
:1020A000C00F01B030BD30B581B005000C00012378
:1020B0006A465D2100F0BFFA002801D000200FE041
:1020C00068460078F82101400C43684604700123FB
:1020D0006A465D21280000F096FA401E8041C00F3C
:1020E00001B030BD70B582B005000C006609012357
:1020F0006A465D2100F09FFA002817D168460078F3
:102100004007400FE10001436846017001236A4621
:102110005D21280000F077FA002807D101236A46E4
:102120005C21280000F087FA002801D0002010E090
:10213000684600784006400EF10101436846017090
:1021400001236A465C21280000F05DFA401E8041B0
:10215000C00F02B070BD30B581B005000C00012386
:102160006A465E2100F067FA002801D000200FE0E7
:1021700068460078FD2101400C4368460470012345
:102180006A465E21280000F03EFA401E8041C00FE2
:1021900001B030BD30B581B005000C0001236A46A6
:1021A0005E2100F048FA002801D000200FE06846C8
:1021B0000078FB2101400C436846047001236A4605
:1021C0005E21280000F01FFA401E8041C00F01B0C0
:1021D00030BD30B581B005000C0001236A465E2198
:1021E00000F029FA002801D000200FE068460078AE
:1021F000F72101400C436846047001236A465E21C2
:10220000280000F000FA401E8041C00F01B030BD30
:1022100030B581B005000C0001236A465E2100F054
:102220000AFA002801D000200FE068460078EF216C
:1022300001400C436846047001236A465E21280071
:1022400000F0E1F9401E8041C00F01B030BD30B553
:1022500081B005000C0001236A465E2100F0EBF915
:10226000002801D000200FE068460078DF210140FF
:102270000C436846047001236A465E21280000F082
:10228000C2F9401E8041C00F01B030BD30B581B0F1
:1022900005000C0001236A465E2100F0CCF90028FD
:1022A00001D000200FE068460078BF2101400C43B8
:1022B0006846047001236A465E21280000F0A3F9F5
:1022C000401E8041C00F01B030BD30B581B0050067
:1022D0000C00012322003E2100F0ADF9002807D1B7
:1022E0000123621C3F21280000F0A5F9002801D03D
:1022F000002000E0012001B030BD30B581B0050004
:102300000C00012322004B2100F095F9002807D191
:102310000123621C4C21280000F08DF9002801D017
:10232000002000E0012001B030BD30B581B00500D3
:102330000C0001236A46012100F07DF900280BD131
:1023400068460078802101436846017001236A468F
:102350000121280000F057F9012300AA521C0F2187
:10236000280000F068F968464078E0210140E00666
:10237000C00E084369464870012300AA521C0F2171
:10238000280000F040F901236A460121280000F0EE
:1023900052F900280BD1684600784006400E694685
:1023A000087001236A460121280000F02CF9012061
:1023B00001B030BD0CB4012212060318DA4207D86E
:1023C0004B18DA4204D802000A43921802D288421B
:1023D0000CBC7047FCD08142FAE70268531C0360D2
:1023E000117070479D21020008D5F446524200F05A
:1023F00005F80122D2071043604700000AD002D43A
:10240000491E9218FCD5C905100A1206524100D384
:10241000012A4841704730B405004D400122D207DF
:1024200015404B180418240E2ED01B0E32D0FF2C52
:1024300034D0FF2B3AD0E4180002090210431143B4
:10244000000A090A9446C2B24A43000AC3B24B4387
:10245000000A4843110A5B181A43D2B2190A091834
:1024600001D44918641E080A7F3C23DBFE2C08DADD
:10247000E40509061143634699416041284330BC95
:102480007047FF20C005F9E728001B0EFF2BF6D18F
:10249000D043F4E72800FF2CF1D1F9E74002F7D14F
:1024A000FF2B01D14902F3D1E005E7E7D805490246
:1024B000E4D0EDE743020020641CDFD15B129B1CDB
:1024C000DCD9D805DAE7FEE70122D2070118090EA8
:1024D0007F3910D449421F310FD4001805D2C001F2
:1024E0001043C84000D5D0437047C0011043C840D6
:1024F00005D440427047002070470042F3D51000D9
:102500007047FEE730B587B07B4C200000F044FCFC
:10251000002835D1794860603320A0600120E06058
:1025200077482060774D02206968014369606968D7
:10253000014000910099C02189000191122102916E
:102540000490002003900420059001A96E4800F03B
:1025500077FC8020800329690143296129680843A9
:10256000286028686949014029600022002117205D
:1025700000F066FD172000F07EFD200000F0CCF892
:10258000200000F009FC012801D1002000E001201A
:1025900007B030BDF0B58BB002245D4F38682043E2
:1025A0003860386820400090009820200690594EEE
:1025B000079609940025089506A9534800F040FCA9
:1025C00000220021072000F03BFD072000F053FD12
:1025D0003868204338603868204000900098102008
:1025E000019002960494039501A9474800F028FC45
:1025F00000220021072000F023FD072000F03BFD12
:1026000000200BB0F0BD30B583B03B4C80256D0190
:1026100002950193009201230A004178200000F006
:10262000E7F8002805D0200000F0C6F800F01BF8FD
:10263000012003B030BD30B583B02F4C80256D0133
:1026400002950193009201230A004178200000F0D6
:1026500037FA002805D0200000F0AEF800F003F8AB
:10266000012003B030BD30B587B0234C200000F00E
:1026700093FB002835D1214860603320A060012001
:10268000E0601F4820601F4D0220696801436960B7
:102690006968014000910099C021890001911221CF
:1026A00002910490002003900420059001A916488F
:1026B00000F0C6FB80208003296901432961296855
:1026C0000843286028681149014029600022002140
:1026D000172000F0B5FC172000F0CDFC200000F022
:1026E0001BF8200000F058FB012801D1002000E079
:1026F000012007B030BD0000AC1000202E11B10049
:10270000005400402810024000040050FFFFDFFF8B
:102710002C1002400000111030B581B0040001D12E
:10272000012047E0250034356878002803D128705F
:10273000200000F083FB02206870206801680122FD
:102740009143016060682749014020680161206869
:102750008168254A0A408260A068002809D0E168A3
:10276000012901D1802100E0842109020143206870
:102770008160E068022803D1802000012168486060
:1027800020684168194A0A4342602069616901432F
:10279000A069000208432168C860E069216A01431A
:1027A000206801602068012102680A43026000205D
:1027B0006860697001B030BD10B5002801D10120FA
:1027C00010BD040034340221617001680A680123DD
:1027D0009A430A6000F076FC002060606070207010
:1027E00010BD0000FFFFFFF0FF7FFFFF0080000231
:1027F000FDB584B0343000904078012800D056E117
:102800000C98002803D06846808E002801D1012052
:102810004EE1049800688269120400D547E1009AED
:102820001278012A00D142E10127009B1F70522239
:10283000009B5A700022009B5A608905890D019106
:1028400041689C4A0A40019911436A46128B12065C
:10285000120A0A4398491143416000F035FC050013
:102860000024E4430E9E049800688169890723D4FC
:102870003100049800F093FA002813D1A642F2D058
:10288000002E04D000F020FC401B8642EBD20098C2
:102890004068202101430098416000984770002063
:1028A000009908700098406800984068042859D141
:1028B000002000990870E9E06946098B012926D0BB
:1028C0006946898A090A816200F0FEFB05000498C6
:1028D0000068806980071AD43100049800F05FFA1C
:1028E0000028DFD1A642F2D0002E04D000F0ECFB8D
:1028F000401B8642EBD2009840682021014300989B
:10290000416000984770002000990870CAE7684647
:10291000808AC0B204990968886200F0D5FB05007E
:1029200004980068816909060ED4A642F8D0002EEA
:1029300004D000F0C9FB401B8642F1D200984770DA
:10294000002000990870AFE76946898EFF29416829
:102950000CDD584A0A4001991143584A0A43426023
:10296000FF2511E00020009908709EE0514A0A40BE
:10297000019911436A46928E1206120A0A43790699
:10298000114341606846858E00F09EFB02900498DA
:102990000068816989071FD43100049800F0FFF9AD
:1029A000002814D1A642F2D0002E05D000F08CFBF6
:1029B0000299401A8642EAD20098406820210143D9
:1029C00000984160009847700020009908700098B6
:1029D0004068042869D159E00C99097881620C9803
:1029E000401C0C906D1E6846808E401E694688868D
:1029F000002D6846808E25D1002825D000F064FB8C
:102A0000050004980068816909060ED4A642F8D032
:102A1000002E04D000F058FB401B8642F1D20098F3
:102A200047700020009908703FE06946898EFF29B1
:102A300041689BDD019A1F4B0B4013431F4919430B
:102A400041608DE700289FD100F03EFB0500202467
:102A500004980068816921401AD11921049800F076
:102A60009EF900280ED100F02FFB401B1A28EFD34F
:102A70000098406804430098446000984770002024
:102A8000009908700098406804280ED101200FE0DA
:102A9000C461049800684168BA4A0A4042600098DC
:102AA000477000200099087002E0032000E0022037
:102AB00007B0F0BD009800FC002000010000FF01FD
:102AC000FDB584B0343000904078012800D055E145
:102AD0000C98002803D06846808E002801D1012080
:102AE0004DE1049800688269120400D546E1009A1D
:102AF0001278012A00D141E10127009B1F70622258
:102B0000009B5A700022009B5A608905890D029132
:102B100041689D4A0A40029911436A46128B120687
:102B2000120A0A4379031143416000F0CDFA06000E
:102B30000025ED430E9C049800688169890723D421
:102B40002100049800F02BF9002813D1AC42F2D0F8
:102B5000002C04D000F0B8FA801B8442EBD200981D
:102B60004068202101430098416000984770002090
:102B700000990870009840680098406804285BD16C
:102B8000002000990870E8E06946098B012926D0E9
:102B90006946898A090A816200F096FA060004985B
:102BA0000068806980071AD42100049800F0F7F8C3
:102BB0000028DFD1AC42F2D0002C04D000F084FA1F
:102BC000801B8442EBD2009840682021014300988A
:102BD000416000984770002000990870CAE7684675
:102BE000808AC0B204990968886200F06DFA019089
:102BF000402604980068816931400FD1AC42F8D07A
:102C0000002C05D000F060FA0199401A8442F0D2FD
:102C100000984770002000990870ADE76946898EDA
:102C2000FF2941680CDD584A0A4002991143574A6E
:102C30000A434260FF261CE00020009908709BE0D8
:102C4000514A0A40029911436A46928E1206120AAC
:102C50000A434F4909E04C4A0A40029911436A4627
:102C6000928E1206120A0A43B1041143416068466B
:102C7000868E00F029FA019004980068816949075E
:102C80000FD4AC42F8D0002C05D000F01DFA019909
:102C9000401A8442F0D200984770002000990870D2
:102CA0006AE0406A0C9908700C98401C0C90761EE3
:102CB0006846808E401E69468886002E6846808E53
:102CC00027D1002827D000F0FFF901908026049832
:102CD0000068816931400FD1AC42F8D0002C05D09A
:102CE00000F0F2F90199401A8442F0D2009847703E
:102CF0000020009908703FE06946898EFF294168ED
:102D0000A9DD029A204B0B4013432249194341602D
:102D100090E70028ADD100F0D7F9050020240498F1
:102D20000068816921401AD11921049800F037F810
:102D300000280ED100F0C8F9401B1A28EFD30098E4
:102D40004068044300984460009847700020009950
:102D500008700098406804280ED101200FE0C4617B
:102D6000049800684168074A0A404260009847702A
:102D700000200099087002E0032000E0022007B064
:102D8000F0BD000000E800FE009800FC0024FF01F8
:102D9000002400020000FF013521405C7047F0B5BF
:102DA00081B004000F0000F08FF90090206810251A
:102DB000816929403DD0260034367178122905D02A
:102DC0007178522902D07178622906D1416889014F
:102DD00003D44168AA020A43426020682021826924
:102DE0000A4011D10020C0438742F6D0002F05D001
:102DF00000F06AF90099401A8742EED20120707003
:102E000000203070032015E0C5612068C161216891
:102E100001208A69024000D1C86121684A68064BD6
:102E200013404B60042171607070002030700120ED
:102E300000E0002001B0F0BD00E800FE7047FEE7B2
:102E4000F0B484B00022032301240D68002D00D1CA
:102E5000C9E00D68012696402E400296029D002D85
:102E600000D1BBE04D68022D01D0122D16D1D5083E
:102E7000AD00451900952D6A03959600AC460F25C7
:102E80001C273740BD406746AF430D69AC461C2543
:102E900035406646AE403E43009D2E624D68012D92
:102EA00005D0022D03D0112D01D0122D18D1866826
:102EB00055006F463D716D462F790325BD40AE43E9
:102EC000CD686F463F79BD40354385604668012532
:102ED0009540AE434D682D092540954035434560EA
:102EE000066855006F463D716D462F790325BD403C
:102EF000ED432E40B4464F681F406E463679B740CA
:102F0000664637430760C66835408E686F463F792E
:102F1000BE402E43C6604D68ED005FD5404D2D6824
:102F200025433F4E35603F4D9608B600AD190095DC
:102F30002F6896000C2535400F26AE40B7433E0063
:102F4000A027FF05B84201D1002714E0364FB84250
:102F500001D101270FE0354FB84201D102270AE025
:102F6000334FB84201D1032705E0324FB84201D1B7
:102F7000052700E00627AF403743009D2F602E4D08
:102F80002D68029FFE4300962E404D68ED0302D54A
:102F90003500029E2E43284D2E606E68009D354000
:102FA0004E68B60302D52E00029D3543224E756051
:102FB000B668009D35404E68F60202D52E00029D8F
:102FC00035431D4EB560F668009D35404E68B6022B
:102FD00002D52E00029D3543174EF560521C0D6838
:102FE000D54000D035E704B0F0BC70470069084018
:102FF000401E8041C043C00F7047002A01D081614C
:103000007047816270470D4A1368034000D17047D2
:1030100000B581B0106000F005FB01B000BD0000FC
:103020003410024008000140000400500008005025
:10303000000C0050001C005000040140140401402A
:1030400010B4C20018231340FF249C40E2438907B8
:10305000090E9940002804D5154B0007000F0838C9
:1030600000E0144B80088000181803681A401143D0
:10307000016010BC70470121C006C00E81400E489F
:1030800001607047401E80214904884201D301201D
:1030900070470A4948600A4802681202120AC023AF
:1030A0001B06134303600020886007220A607047F4
:1030B0001CED00E000E400E000E100E010E000E0D2
:1030C00020ED00E07047FEE701480068704700BF50
:1030D000F010002030B581B0002469460C7000F07B
:1030E000BDFA00F0D3FA002000F006FB0121002019
:1030F00000F044FB00F0B2FB8A4D291D002000F0D7
:10310000FDFB012803D1002000F01AFBFEE76868F0
:1031100000F094FC686800F0ABFC2878002815D01B
:103120006946686800F0B6FC00280ED16846007851
:1031300000280AD000F012F8002000F001FB642003
:1031400000F039FD002000F009FB2C7068780028A1
:10315000E3D000F003F86C70DFE7000030B583B017
:103160000020694688714880888048706D4C60688E
:1031700000F074FC01A9891C606800F09FFC012824
:1031800006D16846027868492000083000F020FD2A
:1031900000A9C91C606800F0A5FC012806D168469A
:1031A000027862492000083000F012FD01A9491C94
:1031B000606800F0ACFC012806D1684602785C49E2
:1031C0002000083000F004FD00A9891C606800F0B0
:1031D000B3FC012806D16846027856492000083021
:1031E00000F0F6FC01A9606800F0BBFC012806D1E4
:1031F0006846027850492000083000F0E9FC00A938
:10320000491C606800F0C2FC012806D168460278BB
:103210004A492000083000F0DBFC6846817940799B
:1032200008436946097901436A46D2780A4309D1BD
:103230006B469B78012B05D16B465B78002B01D147
:103240003F4956E06B469B79012B11D16B465B7968
:103250006D462D791D436B46DB782B436D46AD786B
:103260001D4305D16B465B78002B01D135A140E0B1
:1032700000290BD16946C978012907D169468978A7
:103280006B465B780B4301D15BA132E069468979DB
:10329000002911D16946497901290DD16946097979
:1032A0006B46DB780B436946897819436B465B783C
:1032B0000B4301D17DA11CE0002A09D16946897820
:1032C000002905D169464978012901D1A4A110E05E
:1032D000002813D16846007901280FD16846C078CC
:1032E00069468978014368464078084306D100BFA3
:1032F000A7A12000083000F06BFC06E068460278C9
:10330000B5A12000083000F063FC2000083000F078
:103310007BFCCF4B82B221000831CE4800F0AFFCDD
:1033200003B030BD600F0020D464000820650008A1
:103330006C650008B865000804660008506600085F
:103340009C6600080D0A20205F5F5F5F5F5F5F5F24
:103350005F5F5F5F5F5F5F5F20200D0A207C202042
:1033600020202020202020202020202020207C2001
:103370000D0A207C2020202020202020202020201A
:10338000202A20207C200D0A207C202020202020A4
:10339000202020202020202020207C200D0A207C9E
:1033A000202020202020202020202020202020201D
:1033B0007C200D0A207C202020202020202020207E
:1033C0002020202020207C200D0A207C202020206E
:1033D0002020202020202020202020207C200D0ABA
:1033E000207C5F5F5F5F5F5F5F5F5F5F5F5F5F5F0F
:1033F0005F5F7C200D0A00000D0A20205F5F5F5F89
:103400005F5F5F5F5F5F5F5F5F5F5F5F20200D0AF1
:10341000207C202020202020202020202020202050
:1034200020207C200D0A207C20202020202020200D
:1034300020202020202020207C200D0A207C2020FD
:1034400020202020202020202020202020207C2020
:103450000D0A207C20202020202020202020202039
:10346000202020207C200D0A207C202020202020CD
:10347000202020202020202020207C200D0A207CBD
:1034800020202A2020202020202020202020202032
:103490007C200D0A207C5F5F5F5F5F5F5F5F5F5F27
:1034A0005F5F5F5F5F5F7C200D0A00000D0A2020D8
:1034B0005F5F5F5F5F5F5F5F5F5F5F5F5F5F5F5F1C
:1034C00020200D0A207C20202020202020202020C9
:1034D0002020202020207C200D0A207C202020205D
:1034E0002020202020202020202020207C200D0AA9
:1034F000207C202020202020202020202020202070
:1035000020207C200D0A207C20202020202020202C
:1035100020202020202020207C200D0A207C20201C
:1035200020202020202020202020202020207C203F
:103530000D0A207C20202020202020202020202058
:10354000202A20207C200D0A207C5F5F5F5F5F5F68
:103550005F5F5F5F5F5F5F5F5F5F7C200D0A000002
:103560000D0A20205F5F2A5F5F5F5F5F5F5F5F5FC5
:103570005F5F5F5F20200D0A207C5F5F5F5F5F5FA2
:103580005F5F5F5F5F5F5F5F5F5F7C200D0A0000D2
:103590000D0A20205F5F5F5F5F5F5F5F5F5F5F5F60
:1035A0005F5F5F5F20200D0A207C5F5F5F5F5F5F72
:1035B0005F5F5F5F5F5F5F5F5F5F7C200D0A202062
:1035C00020202A20202020202020202020202020F1
:1035D00020200D0A000000004E6F6E65206F6620EF
:1035E000746865203644206F7269656E7461746911
:1035F0006F6E20617865732069732073657420692C
:103600006E204C534D3644534C202D20616363652E
:103610006C65726F6D657465725B25645D2E0D0A55
:103620000000000000B581B080218901884207D1E7
:10363000002000F0F9F8012807D10749487004E09C
:10364000202802D101200449087001B000BD00000B
:1036500088130000F00D0020600F002000B581B03D
:103660000848016840220A4302600168022291432F
:103670000160032000F091FD00F006F8002001B089
:1036800000BD0000002002407047FEE770B594B016
:10369000164C606880214905014361601448016847
:1036A000144A0A40C10C1143016002200590012513
:1036B0000895102109910F90002610964004119052
:1036C0000001129005A800F07BFD0F200090032060
:1036D00001900296039604960121684600F07CFF53
:1036E00020680543256014B070BD00BF341002404F
:1036F00000700040FFE7FFFF30B587B00121514A5D
:1037000013680B43136012680A400092009A00BFCE
:1037100019A24300D55A019502910021039103217A
:103720000491494980000C1801A92068FFF788FB23
:10373000002229002068FFF760FC07B030BD0000C0
:1037400000B581B0012200BF0BA14300C95A3E4B16
:1037500080001858FFF751FC01B000BD00B581B0E2
:10376000002200BF04A14300C95A374B80001858FB
:10377000FFF743FC01B000BD2000000030B587B06A
:1037800005000C0004212F4802680A430260026809
:10379000114000910099816801220A438260200053
:1037A00010D100BF26A06900405A0190002002906D
:1037B000022003900320049001A92448AA00805805
:1037C000FFF73EFB012C2AD11DA06900405A019051
:1037D000002003901E48029001A91C48AA008058AE
:1037E000FFF72EFB0FA0405D43B2D90018240C4018
:1037F000FF22A240D143C022A240002B04D5154C89
:103800001B071B0F083B00E0134C9B089B00E318B1
:103810001C6821400A431A6040B2FFF72CFC07B035
:1038200030BD00000700000000B581B004A14200D7
:10383000895A064A80001058FFF7D8FB01B000BD36
:10384000002000002C1002407001002074010020B4
:10385000000011101CED00E000E400E070B586B03F
:103860000121234802680A43026002680A4000926C
:10387000009A02680A4302600268114000910099B0
:10388000C168802292020A43C2600424019402208B
:1038900002900025039504900594A026F60501A941
:1038A0003000FFF7CDFA08200190059401A93000FF
:1038B000FFF7C6FA0F4C10482060E120400260601C
:1038C000A560E5602561A5610C206061200000F025
:1038D000A3F9002800D0FEE72000703060652000CA
:1038E0005830802149000180456106B070BD00005C
:1038F0002C100240F00D00200044004010B50C00D8
:103900000021216000280DD0012811D0200000F0F6
:1039100016F8012804D1200000F04BF801280CD043
:10392000002010BD200000F00AF80128F8D104E0C2
:10393000200000F03EF80128F2D1012010BD70B542
:1039400005000024384EF078012831D0FEF7DAFD6A
:1039500001282DD06A203070D620707074803471A8
:103960000120707130002830B0603048F06030487D
:1039700030613048B06330003830B062F4622E609D
:10398000F0680168080005D100200021002207C668
:1039900003C607E030008847012806D114212868B3
:1039A00000F0A2FF2C60012070BDFEF7F3FD0020A7
:1039B00070BD70B5050000241B4EF07D012832D08B
:1039C000FEF7A0FD01282ED033203075322070750F
:1039D0000120B075F4753476707630003030F061C7
:1039E00015483062746230004030306374633000D8
:1039F00014302860306A0168080007D130001430A4
:103A00000021002200230EC006C008E03000143060
:103A10008847012806D11421286800F065FF2C6032
:103A2000012070BD002070BD681000202001002022
:103A300050000020F81000200000002000B581B0E8
:103A4000002803D0C16889680A0001D1012003E081
:103A50008847012800D0002001B000BD002801D017
:103A6000002901D10120704780780870002070473C
:103A700000B581B000280AD00169002907D002787A
:103A80006A2A04D1096F0A0001D0884700E00120AA
:103A900001B000BD00B581B000280CD00269002A39
:103AA00009D0002907D003786A2B04D1926F130044
:103AB00001D0904700E0012001B000BD00B581B009
:103AC00000280CD00269002A09D0002907D0037809
:103AD0006A2B04D1D26F130001D0904700E001207F
:103AE00001B000BD00B581B000280DD00269002AE8
:103AF0000AD0002908D003786A2B05D18023D25838
:103B0000130001D0904700E0012001B000BD00B5D6
:103B100081B000280DD00269002A0AD0002908D0FF
:103B200003786A2B05D18423D258130001D0904723
:103B300000E0012001B000BD00B581B000280DD02B
:103B40000269002A0AD0002908D003786A2B05D11F
:103B50008823D258130001D0904700E0012001B023
:103B600000BD00B581B000280DD00269002A0AD03E
:103B7000002908D003786A2B05D18C23D258130072
:103B800001D0904700E0012001B000BD00B581B038
:103B900000280DD00269002A0AD0002908D0037835
:103BA0006A2B05D19023D258130001D0904700E032
:103BB000012001B000BD11B581B0FFF785FA040006
:103BC000FFF782FA001B01998842F9D302B010BDB9
:103BD0000CB41CB5040004A80190009401AB0A00C9
:103BE0006946084878441C3000F080FE0021009AA5
:103BF0001170002801D40098001B02B0019910BC7C
:103C000003B00847D7E7FFFF010000E0491C0A782E
:103C1000002AFBD1081A704730B581B0040001D1E9
:103C200001202AE0250068356878002803D1287033
:103C3000200000F0B1FA02206870206801680122BB
:103C400091430160200000F0ABF8606A002802D0C8
:103C5000200000F015FA206841684F4A0A4042608F
:103C6000206881682A2291438160206801680122CE
:103C70000A430260200000F0A5F901B030BDF1B5A3
:103C80000C001D0006465036707E012802D0707E62
:103C900022287DD1002C01D0100001D1012078E034
:103CA000307E012874D0012030760020F061707ED3
:103CB000222801D1322000E01220707632807280FA
:103CC00004E02188C905C90D8162A41C7088010027
:103CD0003FD0401E7080FFF7F7F90700009800689A
:103CE000C169090627D40020C0438542F6D0002DC3
:103CF00004D0FFF7E9F9C01B8542EFD200980068B5
:103D000001688022914301600098006801682022C8
:103D100091430160009800680168204A0A400260EF
:103D200000980068816801229143816072760020CA
:103D3000307603202DE0009989688022520191425B
:103D400003D1009909690029BBD021788162641CE4
:103D5000BCE7FFF7B9F90700402400980068C06984
:103D600020400BD10020C0438542F6D0002DC5D0A5
:103D7000FFF7AAF9C01B8542EFD2BFE7707E322859
:103D800001D1222000E0012070760020307600E092
:103D9000022001B0F0BD0000FFB7FFFFFFFEFFFFF4
:103DA000F0B581B004000021002025682A68844B0A
:103DB0001340A2681A432369134362691A43E369F3
:103DC00013432B606A68A84B1340E2681A436A6089
:103DD000A369A64A954202D01E00236A3343AE6807
:103DE000A34F37403B43AB60A24B9D4221D1A24B36
:103DF000DB6C9B079B0F04D0022B3BD026D3032BFD
:103E000036E00121E26980231B029A4200D0ADE036
:103E1000082900D9A0E002A2525C5200974400BFDA
:103E200005878B9C949C9C9C980000F0FBFC4000B8
:103E30008FE0924B9D420BD18F4BDB6C0C261E40CA
:103E4000042E03D0082E15D00C2E11E0042114E00E
:103E5000954212D1884BDB6CC02636011E40130DF3
:103E60009E42F3D0D30C9E4204D0C0231B019E423D
:103E700002D002E0022100E008219542C2D10029CF
:103E800006D002291AD004292DD0082941D094E067
:103E900000F0C8FC01F04AF90022AB4B01F056F9E2
:103EA00006000F00606801F041F902000B003000CD
:103EB000390001F00DFA01F06DFA76E0606801F06A
:103EC00035F902000B00A14C6B480068C00602D512
:103ED00000209F4901E000209E4901F0F9F901F01E
:103EE00059FA206069E000F023FC01F01FF900227C
:103EF000954B01F02BF906000F00606801F016F9F0
:103F000002000B003000390001F0E2F901F042FA42
:103F10004BE0606801F00AF902000B0000208E49B6
:103F200001F0D6F901F036FA8849086045E000F062
:103F30008DFC40000DE061684F480068C00601D567
:103F4000864807E0864805E000F0F2FB400000E00C
:103F50005800616801F035FA824A02400006400EBE
:103F60004007400F02432068C26026E0082924D899
:103F700001A0405C874400BF0A101642284242421A
:103F8000380000F04FFC0DE000F060FC0AE06168D2
:103F900039480068C00601D573480BE0734809E052
:103FA00000F0C6FB616801F00CFA2168C86004E00B
:103FB0001846616801F005FAE86001B0F0BD000044
:103FC000F369FFEFF0B581B00400206800680007D6
:103FD0000FD5FFF779F80700654E8025AD032068FF
:103FE000C069284005D1FFF76FF8C01BB042F6D377
:103FF00012E020680068400729D5FFF765F8070040
:104000008025ED035A4E2068C06928401FD1FFF774
:104010005BF8C01BB042F6D3206801688022914350
:1040200001602068016820229143016020680168D6
:104030000C4A0A4002602068816801229143816035
:1040400020006830427000210170032007E020004A
:10405000683000210170416001214170002001B0F1
:10406000F0BD0000FFFEFFFFFFCFFFFF0048004054
:10407000FFF4FFFF00380140001002400044004000
:104080002421415CC90706D501684A68394B1340B1
:10409000826A1A434A602421415C890706D5016877
:1040A0004A68354B1340C26A1A434A602421415C76
:1040B000490706D501684A68304B1340026B1A4322
:1040C0004A602421415C090706D501684A682C4BE7
:1040D0001340426B1A434A602421415CC90606D54D
:1040E00001688A68274B1340826B1A438A60242137
:1040F000415C890606D501688A68234B1340C26B70
:104100001A438A602421415C490611D501684A6836
:104110001E4B1340026C1A434A60026C80235B03FF
:104120009A4205D14A681A4B1340426C1A434A60BE
:104130002421415C090606D501684A68154B1340E5
:10414000806C184348607047000070400C48004085
:104150008084CE418084EE410000604100127A00EC
:104160000048E801F0FF000000093D000024F400D1
:10417000F1550000FFFFFDFFFFFFFEFFFFFFFBFF0C
:10418000FF7FFFFFFFEFFFFFFFDFFFFFFFFFEFFFFF
:10419000FFFF9FFFFFFFF7FF704710B5040000F01F
:1041A00001FBFA21890001F00CF9FEF76BFF0022F8
:1041B00021000020C043FEF743FF002010BDFEE7B2
:1041C000F0B583B00400B54D2078C0074FD50C2161
:1041D000E8680840082808D080204002EA681140BA
:1041E0000C290AD1E968014007D0286880033ED530
:1041F000606800283BD10120E4E1616881420BD076
:10420000A74AA023DB029942296809D10A402A6003
:10421000296882000A432A6029680843286009E067
:104220000A402A60296808400090009828689D4943
:10423000014029608027BF02606800280BD0FEF78C
:1042400043FF06002868384011D1FEF73DFF801B70
:104250006528F7D3B3E1FEF737FF0600286838403A
:1042600005D0FEF731FF801B6528F7D3A7E1207842
:10427000800718D50C21E8680840042806D0E868B3
:1042800001400C2943D1E868C00340D428684007A6
:1042900002D5E0680128AED16868B34901402069C1
:1042A0000002084368602078C0061AD56F0DE868E0
:1042B0000C21014050D12868074002D0E069002855
:1042C00099D06868A9490140606A084368606868D5
:1042D0000002000A216A0906014369600320FFF712
:1042E0005CFF2078000776D560690028286D63D0D0
:1042F000012101432965FEF7E7FE0600286D8007CE
:1043000069D4FEF7E1FE801B0328F7D357E1E0688C
:104310000921C943042700280FD02A681140084307
:104320002860FEF7D1FE060028683840B4D1FEF7B9
:10433000CBFE801B0328F7D341E1286801402960A8
:10434000FEF7C2FE060028683840ACD0FEF7BCFE7F
:10435000801B0328F7D332E1E069002828681CD0CD
:10436000A90D01432960FEF7AFFE0600286838401A
:1043700005D1FEF7A9FE801B0328F7D31FE168686B
:104380007A490140606A0843686068680002000A70
:10439000216A090601436960A3E78B49014029604E
:1043A000FEF792FE0600286838409AD0FEF78CFE91
:1043B000801B0328F7D302E1012188432865FEF71B
:1043C00083FE0600286D800705D5FEF77DFE801B65
:1043D0000328F7D3F3E0207880062ED57B48A16927
:1043E0000029A96816D001220A43AA60696B01223C
:1043F0000A436A6301686A0C0A430260FEF764FEBE
:104400000600A868800718D4FEF75EFE801B03280C
:10441000F7D3D4E001229143A96001686C4A0A40B5
:104420000260FEF751FE0600A868800705D5FEF77A
:104430004BFE801B0328F7D3C1E02078400776D5D8
:1044400000200190009080204005A96B014004D11C
:10445000A96B0843A86301200190AF0D5D48006877
:10446000384013D15B48006838435A49086001203E
:104470000090FEF729FE060056480068384005D136
:10448000FEF722FE801B6528F6D398E0A168B942AA
:1044900015D04D48002907D1296D14E000100240C5
:1044A000FFFFFEFFFFFFFBFFA022D2009142296D1C
:1044B00009D108402865286D290D01432965286D1B
:1044C00007432F6505E008402865286D94490140A1
:1044D00029656F0DA06800280CD0FEF7F5FD0600D9
:1044E000286D384013D1FEF7EFFD801B8D498842BF
:1044F000F6D364E0FEF7E8FD0600286D384006D0EC
:10450000FEF7E2FD801B87498842F6D357E000980A
:10451000002805D02F4800682B4901402D48016034
:104520000198002803D0A86B7F490140A963A06AC5
:10453000002846D0E9680C220A400C2A00D15AE62D
:104540008027BF047949022828682BD101402960BF
:10455000FEF7BAFD06002868384009D0FEF7B4FD22
:10456000801B0328F7D32AE0FFE0FFFFFF1FFFFFB8
:10457000E8688A490140206B0843616B0143E06AA7
:104580000843E8602868790801432960FEF79CFD2C
:1045900006002868384014D1FEF796FD801B0328DA
:1045A000F7D30CE001402960FEF78EFD0600286875
:1045B000384006D0FEF788FD801B0328F7D3032080
:1045C00000E0002003B0F0BDFFFEFFFF200001402F
:1045D000FEDFFFFF00700040F2B504007048006885
:1045E000C107C90F009881420DD26D4800680121B2
:1045F0008843009901436A4801600068C107C90FF8
:104600000098814270D1864D2078800705D5E868F2
:10461000F0218843A1680143E9602078C0074ED5A6
:104620006068022802D12968890308E0002802D1C5
:104630002968890503E00328296802D1890102D489
:1046400052E0490750D5E968032291430843E860E6
:10465000FEF73AFD070060680C2602280AD1E868D8
:10466000304008282BD0FEF72FFDC01B2D49884273
:10467000F5D322E003280AD1E86830400C281ED088
:10468000FEF722FDC01B27498842F5D315E000281C
:1046900009D1E868304012D0FEF716FDC01B214951
:1046A0008842F6D309E0E8683040042807D0FEF7D6
:1046B0000BFDC01B1B498842F5D303202DE0384871
:1046C0000068C107C90F009881420FD334480068C1
:1046D0000121884300990143314801600068C10706
:1046E000C90F0098814201D0012016E020784007D0
:1046F00005D5E8685F490140E0680843E860207834
:10470000000706D5E8685C4901402069C0000843FD
:10471000E8600320FFF741FD002001B0F0BD00007C
:10472000FFFBFFFF89130000FFFFFFEFFFFFFFFE0E
:1047300000B53B4A5068D1680C230B40042B04D0D1
:10474000082B09D00C2B09D020E01068C00601D539
:104750004B4800BD4B4800BD4B4800BDD068D168F8
:104760004A4B8002000F185C0902890F491CD3686C
:10477000DB0306D41268D20601D5414A02E0414A61
:1047800000E0414A504300F01CFE00BD012100043E
:10479000400F401C8140C80300BD0000FFFF02FF26
:1047A0000020024010B51E4C6068E1680C220A40EF
:1047B000042A1DD0082A19D00C2A20D1E068E1680B
:1047C000324A8002000F105C0902890F491CE2681E
:1047D000D20306D42268D20601D5294A02E0294A2A
:1047E00000E0294A504300F0ECFD0EE026480CE0C2
:1047F0002068C00601D5224807E0224805E00121D3
:104800000004400F401C8140C80300BF21A1E268A2
:104810001206120F895CC8401D49086010BD0000D7
:104820000010024000B581B0FFF782FF19A1134AC2
:1048300013681B061B0FCB5CD840154B1860126821
:104840005205520F895CC84001B000BD00B581B06F
:10485000FFF76EFF0FA1094A13681B061B0FCB5C05
:10486000D8400B4B186012689204520F895CC84004
:1048700001B000BDFFF8FFFFFFC7FFFF0C100240B3
:1048800000093D000024F40000127A00A867000827
:10489000780100200000000001020304010203046B
:1048A00006070809094205D0830705D00270401C9D
:1048B000491EF9D170470000130030B414001500F0
:1048C000103902D310393CC0FCD2490700D30CC0C8
:1048D00000D504C0890002D30280801C002900D5C5
:1048E000027030BC704700000022DBE7F9B595B0DC
:1048F00014004A487844FF3025300CC813A80CC077
:10490000099108AD0020E86101E00098241800201A
:104910006946C88013AB0022D243210001A8801C45
:1049200000F0A6FD0090012805DA2078411E89419B
:10493000C943C90F00916846C0882528009F00D14F
:104940007F1E012F0EDB260031780998159A9047BB
:104950000990002800D1ECE0E869401CE861761C71
:104960007F1EF1D16846C088252804D10020286127
:104970006861A86108E06846C0880028C5D1E86978
:10498000D9E0010001200843641C21782029F8D0D7
:1049900023290ED02B2904D02D2907D030290BD064
:1049A0000DE001000220084380B2EDE70100042081
:1049B000F9E701000820F6E701001020F3E72A29B3
:1049C00012D116990968169A11600A68091D169B7A
:1049D00019606A62002A05D551426962010004200B
:1049E000084380B2641C12E0002169620AE06A6A2E
:1049F0000B4B9A4205D093009A1852005118303947
:104A00006962641C21780A00303A0A2AEFD32178BF
:104A10002E2907D00021C943296225E0B81E0000D5
:104A2000FFFFFF7F641C21782A290AD116990968A3
:104A3000169A11600A68091D169B19602A62641C87
:104A400012E0002129620AE02A6AC34B9A4205D08B
:104A500093009A185200511830392962641C217849
:104A60000A00303A0A2AEFD328852678310000BFA1
:104A7000BAA000F00BFD002801D0641C00E0002665
:104A80002A202E54285C682806D12078682803D173
:104A900062202A216854641C02A8E8602678641CFD
:104AA000252E15D0582E55D0632E00D1B3E0642E9C
:104AB00000D18EE0692E00D18BE06F2E4AD0702E8F
:104AC0003BD0732E0AD0752E44D0782E42D0CAE047
:104AD00001202861252069460872CFE02A20285C41
:104AE0006C28169800681699086017D00668001D93
:104AF00016990860AE602F6A002F03D53000FFF7CB
:104B000083F809E03A000021300000F0C9FC0028D9
:104B100001D0801B00E038006861AFE00268001D32
:104B20001699086008A9159800F042F9002800D4E9
:104B3000A4E00020C04317B0F0BD16980068169995
:104B400008600168001D169A1060089102A8A8600C
:104B500078215CE02A20285C6C2801D1169810E0AE
:104B6000712801D1169802E06A28169809D10268C6
:104B7000D21D072082431698026003CA169B1A6052
:104B800005E0016801600868091D169A1160089027
:104B90002A20285C682802D1089880B203E06228A5
:104BA00002D10898C0B208902820285C000729D5B7
:104BB0000898002826D020203043782822D1286960
:104BC000302102AA1154401C411C296102A90E5433
:104BD00018E016992A20285C00F0C4F808900028F4
:104BE00002D528692D2109E0288D810702D5286981
:104BF0002B2103E0C00705D52869202102AA115402
:104C0000401C286102A829694018A860310008A842
:104C100000F0F8F932E02A20285C6C280CD0012042
:104C2000286116980068169908600168001D169A98
:104C300010606846017221E01698006816990860B5
:104C40000168001D169A10606846018000206946C0
:104C50004880C04328626A4608A9159800F0A8F861
:104C600000280BD565E701202861252069460872D8
:104C7000300003D00220286102A84670686A2969C2
:104C8000401AA969401A6969401A00902820285CD6
:104C9000400711D4202069460871009801280BDBD9
:104CA000009E012301AA08A9159800F027FA002800
:104CB00000D03EE7761EF4D12F6902AE002F0DD052
:104CC00031780998159A90470990002800D130E76B
:104CD000E869401CE861761C7F1EF1D130206946EE
:104CE0000871AE69012E0ADB012301AA08A91598F3
:104CF00000F004FA002800D01BE7761EF4D1AE685D
:104D00006F69002F0DD031780998159A9047099056
:104D1000002800D10DE7E869401CE861761C7F1E81
:104D2000F1D12820285C400700D4F0E52020694616
:104D300008710098012800DAE9E5009E012301AA24
:104D400008A9159800F0DAF9002800D0F1E6761EDF
:104D500000D1DCE5F2E700BFFFFFFF7F686C747AEB
:104D60004C000000622815D068280CD06C2818D0A0
:104D7000742816D07A2814D10A680A601068121DA7
:104D80000A60002170470A680A601068121D0A60F4
:104D900000B20BE00A680A601068121D0A6040B297
:104DA00004E00A680A601068121D0A60C1177047A3
:104DB000F4B59AB007000C00206A002800D58E4890
:104DC000039000F079FB616A081806908BA003C875
:104DD00007AA03C22820205C400702D40698412875
:104DE00006D209A8029040200690002005900EE00F
:104DF00000F068FB02900028F7D10020C043F8E0E3
:104E00001A98801C1A9003980199401A03900398ED
:104E1000012800DA93E007AA1A98018800A8401C2C
:104E200000F0ACFB0190002800D59FE01A980088A4
:104E3000002804D10198401E019000D596E0039807
:104E4000019988427BDB20690699019A8218914278
:104E500064D2002161624142A069081A6169401A66
:104E600004902820205C400710D420206946087058
:104E7000049801280ADB049D01236A4621003800BA
:104E800000F03CF9002871D16D1EF5D12669029D14
:104E9000002E0BD029786068B8476060002865D084
:104EA000E069401CE0616D1C761EF3D1302069463C
:104EB0000870A569012D09DB01236A46210038002D
:104EC00000F01CF9002851D16D1EF5D1A568666966
:104ED000002E0BD029786068B8476060002845D064
:104EE000E069401CE0616D1C761EF3D12820205C37
:104EF000400710D5202069460870049801280ADB75
:104F0000049D01236A462100380000F0F7F80028CC
:104F10002CD16D1EF5D1002005902061019A00A9C9
:104F2000491C02982369C01800F034FB20690199DC
:104F3000401820611A980088002800D060E7059882
:104F400000284FD1606A2169401AA169401A61693D
:104F5000461A2820205C400711D4012E0FDB3500B3
:104F600020216068B8476060002803D10020C0435A
:104F7000059037E0E069401CE0616D1EF0D12369C7
:104F8000029A2100380000F0B9F80028EED1A56996
:104F9000012D0ADB30216068B84760600028E5D049
:104FA000E069401CE0616D1EF4D16369A2682100D4
:104FB000380000F0A3F80028D8D12820205C400752
:104FC0000DD5012E0BDB350020216068B8476060ED
:104FD0000028CBD0E069401CE0616D1EF4D10020B8
:104FE00020616062029809A9884201D000F000FBAC
:104FF00005981BB0F0BD0000FFFFFF7F0000000020
:1050000000000000F2B582B00400E068009068463D
:10501000007A6F2801D1082506E020220243782A71
:1050200001D00A2500E01025182721680E00642809
:1050300001D0692803D1002901D570420600002E55
:105040000DD1206A00280AD1082D31D12820205CFA
:1050500000072DD5172730200099C87528E07F1E3E
:1050600001973000290000F0ACF93031C9B23A297B
:1050700003DB6846007A513809180098C1553000A2
:10508000290000F09EF9060004D0A0680099C91913
:105090008842E4D3082D0BD12820205C000707D5D7
:1050A0000098C05D302803D07F1E30200099C8557D
:1050B0001820C01B60610099C919A160216A88424B
:1050C00006DA081AA061208D0B490140218510E005
:1050D00000290ED52821615C14220A40102A08D12B
:1050E000616A2269891AA269891A0F1A012F00DBE5
:1050F000A76103B0F0BD0000EFFF0000F1B50E00A6
:1051000014000027002B0FD01D0021787068009A32
:1051100090477060002806D0F069401CF061641C64
:105120006D1E01D0F1E7FF433800F2BD010000BF62
:1051300042221201D21E004207D002D4521E001891
:10514000FCD5C10A4005120589187047F0B50E005C
:105150005E400125ED072E40B446AE0ADF184C181C
:10516000F44208D2F7420ED2640D01D07F0D12D165
:1051700000206146F0BD05D1F74201D87F0D05D171
:105180000020C143F0BDFBD1640DF9D00020C14324
:10519000490549088FE0E419C902DB0229432B4382
:1051A000DB0A460DC00231438E4630B487B295B259
:1051B0007D432E0CADB2140C7C43A419260C2404A0
:1051C00025439CB27C43A419190C7943270CC919B7
:1051D000A4B20F043C43090C000C97B247432E0CB9
:1051E000BE193543ADB2170C4743360CBF19A6B2F2
:1051F000BF193E043543240C3E0C36199FB2474379
:10520000BF19BCB23E0C89191F0C47437F183E04DE
:105210003443390C704680B297B247432E0CBE1906
:105220003543ADB2170C4743360CBF19A6B2BF19B0
:105230003E043543240C3E0C36199FB24743BF1938
:10524000BCB23E0C89191F0C47437F183E043443FF
:10525000390C77463F0C90B278432E0C8019060427
:10526000ADB22E43050CA0B22D18120C7A43501982
:10527000020C80B2240CA4189AB27A4312191404B6
:105280002043120C89181B0C7B43C91830BCEF0A51
:10529000394203D1B61940414941641E6F12BF0D16
:1052A000E41B0BDBFF19BC4211DA2405002742087E
:1052B000AE417841614166463143F0BD641C05D181
:1052C000401C6141CF0201D34908F4E750E75DE794
:1052D000F0B40E005E400125ED072E40B446AE0A44
:1052E000DF184C18F4423BD2F74241D2640D43D050
:1052F0007F0D38D0E41BC902DB0229432B43CF0AC0
:10530000DB0A0600B61A9F4104D2641EB6197F411B
:10531000B6185F416812800D24180018844222DA02
:10532000E80C0021B6197F41B61A9F4102D2B61887
:105330005F413F1C40414941F4D3241C21DD240539
:10534000B6197F41B61A9F4105D33743C607374385
:105350000026012F7041614166463143F0BC704721
:10536000FCD1F74205D20020C14349054908F3E7C3
:1053700004D00020C143F1E77F0DFAD00020614640
:10538000ECE72442FAD1401C61410F03F6D3002020
:10539000E2E7FEE74A1812D2400DC9020843012194
:1053A000C9070843520D40210901521A521C06D464
:1053B00052421F3201D4D0407047C01770470020BE
:1053C00070470022030A8B420BD203098B4219D289
:1053D00043088B422ED2411A00D201465241104658
:1053E0007047FF2209023FD012068B4205D31212EA
:1053F00009028B4201D31212090203098B4219D30D
:1054000000E0090AC3098B4201D3CB01C01A524103
:1054100083098B4201D38B01C01A524143098B424D
:1054200001D34B01C01A524103098B4201D30B0136
:10543000C01A5241C3088B4201D3CB00C01A52415B
:1054400083088B4201D38B00C01A524143088B4220
:1054500001D34B00C01A5241884200D3401A524136
:10546000CFD201461046704708B500F005F908BDD7
:10547000F8B504000F0015001E0000F0FFF833001F
:105480002A003900200000F00DF9F2BDC9B200E099
:10549000401C02788A4202D0002AF9D100207047CD
:1054A000C9B201E0401C521E002A03D003788B428F
:1054B000F8D170470020704780B500F0DFF8012078
:1054C00002BDFEE770B505002C000F3407208443B1
:1054D000C046C046A54233D2082C04D2082402E0BC
:1054E000083000F085F82448026811000CD1011D35
:1054F0000A68002A20D01368A34212D2111DF7E7D0
:105500001D68A5420DD2191D0B68002BF8D1126839
:10551000011D00E0191D0B6893420DD01D68A542C6
:10552000F8D300290CD00D682A681300083BA34269
:105530000AD26A680A600FE000F0D2F80028CFD1E2
:10554000C046C046002070BD2B190B606E685E60BF
:10555000121B0B681A602C600968002904D04A6885
:10556000002A01D0091D00E000210160C046C046AC
:105570002800083070BD0000E810002070B504005D
:105580000D00160000F07AF832002900200000F02B
:105590007FF870BD124207D08B0706D00B78491CEC
:1055A0000370401C521EF7D87047830706D00B7853
:1055B000491C0370401C521EF9D1704770B4103A58
:1055C00003D378C9103A78C0FBD2530701D318C966
:1055D00018C001D508C908C0D20704D30B880380BE
:1055E000891C801C002A01D50B78037070BC7047A1
:1055F000002800D1704738B5083804002068082812
:1056000036D3400734D1C046C0461A484168002905
:1056100001D08C4203D26160446019E019004B68EC
:10562000002B01D0A342F9D30B68CD18AC421DD397
:10563000A54204D122689A180A600C0008E04A6862
:10564000002A03D02368E3189A420FD362604C60AB
:10565000616800290AD02268A3188B4206D1002372
:10566000036008681018206048686060C046C04643
:1056700031BD0000E81000207047FEE780B5034808
:1056800000F044F8806902BD0000000084010020A1
:10569000002804D10EA003C803C200207047017087
:1056A00001207047002904D10BA003C803C30020C8
:1056B0007047002A02D10120C0437047002801D062
:1056C0000A7802800978481E8041C043C00F7047A5
:1056D00000000000000000000000000000000000CA
:1056E00007490868002801D00020704705480722B4
:1056F0009043086004499143091A0160704700BF54
:10570000F4100020F7050020F00D00207047FEE7A0
:1057100030B581B00400A0680568002069460870B3
:10572000200000F0F5FB002830D068460078217892
:1057300088422BD18021200000F0F6FB002825D0E4
:105740000021200000F037FE00281FD07548286097
:105750000021200000F03CFD002817D0002120008F
:1057600000F001FC002811D00121200000F060FDB4
:1057700000280BD00221200000F08AFD002805D06F
:105780000421200000F0B4FD002801D1012002E036
:105790000120E070002001B030BDF0B581B0040000
:1057A000A06807680026684606706946200000F079
:1057B000AFFB00283ED0684600782178884239D176
:1057C000207900282FD0A06805686946200000F0E5
:1057D0001EFD00282ED06846007800281BD0102817
:1057E00017D0202813D030280FD040280BD05028B5
:1057F00007D0602803D070281AD14B480BE04B48E3
:1058000009E0484807E04A4805E04A4803E04A48BA
:1058100001E0FE20800528600021200000F0D8FC77
:10582000002807D0267100203860E67001B0F0BD76
:10583000424828600120F9E710B5040020790128CA
:1058400030D0A068006800683D49FCF7B3FD01D284
:1058500010211EE03B49FCF7ADFD01D2202118E0EC
:105860003949FCF7A7FD01D2302112E03749FCF796
:10587000A1FD01D240210CE03549FCF79BFD01D28E
:10588000502106E0AC49FCF795FD01D2602100E013
:105890007021200000F09CFC002801D1012010BDE7
:1058A00001202071002010BD30B581B004002079A6
:1058B000002835D0A06805686946200000F0A7FCE4
:1058C000002829D06846007800281BD0102817D05F
:1058D000202813D030280FD040280BD0502807D0D4
:1058E000602803D0702815D10F480BE00F4809E05D
:1058F0000C4807E00E4805E00E4803E00E4801E0C2
:10590000FE20800528600021200000F061FC0028B6
:1059100004D101E009482860012001E00020207145
:1059200001B030BD0000C8420000C8430000484339
:10593000000048420000C84100002041000080BF34
:105940000100803F010020410100C84101004842A0
:105950000100C84200B581B000F0DAFA401E804173
:10596000C00F01B000BD10B582B004000020694630
:105970000870200000F0CCFA002804D068460078B7
:105980002178884201D0012000E0002002B010BD43
:1059900010B584B00C00694600F03CFB002801D132
:1059A000012006E000982060019860600298A060E5
:1059B000002004B010BD70B584B006000C0069462C
:1059C00000F0D7FC002834D000A9491C300000F0BA
:1059D000BFFC00282DD068464078082805D16846CD
:1059E0000078002801D108250EE06846407800289C
:1059F0001FD168460078002801D1062504E06846DA
:105A00000078082815D1042501A9300000F0DBFA40
:105A100000280ED001A80021415E294121800221E9
:105A2000415E294161800421405E2841A080002020
:105A300000E0012004B070BD30B581B004000D005D
:105A400000A9891C00F084FC002872D000A9491C20
:105A5000200000F08EFC00286BD06846807800287B
:105A60001FD16846407800281BD16946200000F00D
:105A700099FA00285DD06846007800280BD01028DD
:105A800007D0202803D0302808D1614804E06148BD
:105A900002E0614800E06148286046E08A482860EA
:105AA00047E06846807808281FD16846407800287B
:105AB0001BD16946200000F075FA002839D06846ED
:105AC000007800280BD0102807D0202803D03028D9
:105AD00008D17E4804E07E4802E07E4800E04D4860
