:020000040800F2
:100000008810002065DE000841DE000843DE00089D
:1000100089DE00088DDE000891DE00080000000087
:1000200000000000000000000000000095DE000855
:1000300045DE00080000000099DE000847DE0008E9
:100040009DDE0008A1DE0008A5DE0008A9DE00088C
:10005000ADDE0008B1DE0008B5DE0008B9DE00083C
:10006000BDDE0008C1DE0008C5DE0008C9DE0008EC
:10007000CDDE0008D1DE0008D5DE0008D9DE00089C
:10008000DDDE0008E1DE0008E5DE0008E9DE00084C
:10009000EDDE0008F1DE0008F5DE0008F9DE0008FC
:1000A000FDDE000801DF000805DF000809DF0008A9
:1000B0000DDF000811DF000815DF000819DF000858
:1000C0001DDF000821DF000825DF000829DF000808
:1000D0002DDF000831DF000835DF000839DF0008B8
:1000E0004BDE00083DDF000841DF000845DF000867
:1000F00049DF00084DDF000851DF000855DF000828
:1001000059DF00085DDF000861DF000865DF0008D7
:1001100069DF00086DDF000871DF000875DF000887
:1001200079DF00087DDF000881DF000885DF000837
:1001300089DF00088DDF000891DF000895DF0008E7
:1001400099DF00089DDF0008A1DF0008A5DF000897
:10015000A9DF0008ADDF0008B1DF0008B5DF000847
:10016000B9DF0008BDDF0008C1DF0008C5DF0008F7
:10017000C9DF0008CDDF0008D1DF00080000000063
:10018000D5DF0008D9DF000810B582B00446002092
:100190008DF800006946204601F0C0FF002831D0EC
:1001A0009DF80000217888422CD10421204602F0DD
:1001B000FDF938B34021204601F0BCFF10B3002107
:1001C000204602F077F9E8B1A068DFF8B4180068BB
:1001D00001600021204602F01FF898B1002120465E
:1001E00001F0C7FF70B10821204602F05BFA48B168
:1001F0001021204602F085FA20B12021204602F08D
:10020000AFFA10B9012002B010BD0120E07002B0B9
:10021000002010BD30B5044681B0A06805680020FC
:100220008DF800006946204601F078FF002800F0B4
:1002300094809DF800002178884240F08E80002153
:10024000204602F087FF002800F08780002120462A
:1002500002F0ECFE002800F080800021204602F031
:10026000C6FE002879D00021204602F035FF002884
:1002700073D00021204602F0A7FD00286DD0002198
:10028000204602F074F9002867D00021204602F0D1
:100290005EFD002861D00021204602F03CFB0028D2
:1002A0005BD00021204602F0E0FF002855D000215D
:1002B000204602F08DFF00284FD00021204602F09A
:1002C00065FD002849D00021204602F09CFD002851
:1002D00043D00021204602F0B4FD00283DD000218B
:1002E000204602F0B8FC002837D00021204602F05A
:1002F000D1FC002831D00021204602F0EAFC60B396
:100300000021204602F007FF38B30021204602F00A
:100310003DFD10B30021204602F075FDE8B100213B
:10032000204602F08EFDC0B10021204602F0A7FD5C
:1003300098B10021204602F0E0FD70B10021204676
:1003400002F089FC48B10021204602F0A3FC20B154
:100350000021204602F0BDFC10B9012001B030BDE3
:100360000021204602F099FE0028F6D00021204608
:1003700002F0CEFC0028F0D00021204602F0CBFA9B
:100380000028EAD00021204602F003FF0028E4D034
:100390000021204602F00DFE0028DED0002120467C
:1003A00002F08DFD0028D8D0207970B1A0680168D6
:1003B000204600F0ADF90128CFD00021204601F001
:1003C0002BFF0028C9D00020207100202860E07099
:1003D00001B030BD10B50446207901285CD0A0687A
:1003E000006890ED000ADFED9B0AB4EE600AF1EEC2
:1003F00010FA48BF102147D4DFED970AB4EE600A27
:10040000F1EE10FA48BF20213ED4DFED940AB4EE9D
:10041000600AF1EE10FA48BF302135D4DFED900AC2
:10042000B4EE600AF1EE10FA48BF40212CD4DFEDA3
:100430008D0AB4EE600AF1EE10FA48BF502123D4C1
:10044000DFEDAF0AB4EE600AF1EE10FA48BF6021AA
:100450001AD4DFEDAC0AB4EE600AF1EE10FA48BF30
:10046000702111D4DFEDA80AB4EE600AF1EE10FAA3
:1004700048BF802108D4DFEDA50AB4EE600AF1EE92
:1004800010FA4CBF9021A021204601F0C5FE08B90A
:10049000012010BD01202071002010BD30B50446A0
:1004A00081B0207900284DD0A068056869462046B3
:1004B00001F0D1FE002840D09DF80000002830D087
:1004C00010282CD0202827D0302822D040281DD01A
:1004D000502818D0602813D070280ED0802809D05A
:1004E000902804D0A02825D1DFF8380719E0DFF8DC
:1004F000300716E0DFF8240713E0DFF81C0710E0F0
:10050000DFF810070DE0DFF808070AE0DFF87005F4
:1005100007E0DFF8680504E0DFF8F00A01E0DFF843
:10052000F00A28600021204601F076FE40B9012043
:1005300001B030BDDFF8CC0B2860012001B030BD28
:100540000020207101B030BD00B581B001F0E6FDA2
:10055000401E8041C00F01B000BD10B582B00446FE
:1005600000208DF800006946204601F0D7FD20B13B
:100570009DF800002178884202D0012002B010BD11
:10058000002002B010BD00002DE9F04184B00C46FF
:100590000021CDE900118046694601F019FE0028CE
:1005A00054D09DF801109DF800209DF8040002EB46
:1005B00001269DF803109DF8022002EB01279DF80B
:1005C000051000EB012502A9404601F0F1FD0028CD
:1005D0003CD09DF808000C2838D8DFE800F0103730
:1005E0003737073737370D3737370A009FED840A1B
:1005F00007E09FED840A04E09FED830A01E09FED90
:10060000830A36B200EE906AF8EEE00A60EE800AE5
:10061000FDEEE00AC4ED000A3FB200EE907AF8EE7B
:10062000E00A60EE800AFDEEE00AC4ED010A2DB298
:1006300000EE905AF8EEE00A20EE800ABDEEC00A05
:1006400084ED020A002004B0BDE8F081012004B06E
:10065000BDE8F081010050410100D041010050424D
:100660000100D0420100504310B582B00C466946EB
:100670000022C1E9002201F0ABFD10B9012002B057
:1006800010BD9DF801109DF8002002EB0121218092
:100690009DF802209DF8031002EB012161809DF876
:1006A00004009DF8051000EB0120A08002B000209E
:1006B00010BD000010B582B00C46694601F078FD0F
:1006C000D0B19DF800000C2813D8DFE800F0071225
:1006D0001212101212120C1212120E004B4820604D
:1006E00002B0002010BD4848F9E74648F7E7444803
:1006F000F5E7DFF8540B2060012002B010BD0000C8
:100700000100D043014050440180CF4401205045B6
:1007100010B582B00C46694601F09DFD10B901206C
:1007200002B010BD9DF80000C8B110281BD02028D1
:100730001CD030281DD040281DD050281DD0602846
:100740001ED070281FD0802820D0902821D0A0282B
:1007500022D0DFF8B009206002B0012010BD206077
:1007600002B0002010BDDFF8A808F8E7DFF89C0809
:10077000F5E7C248F3E7C248F1E7DFF89404EEE793
:10078000DFF89004EBE7DFF89004E8E7DFF88C048B
:10079000E5E7DFF88C04E2E7DFF88804DFE7000034
:1007A00000B581B00279012A13D104290ED8DFE8FF
:1007B00001F0090907050300402104E0302102E0AF
:1007C000202100E0102101F027FDB0B9012001B087
:1007D00000BD806800680429F8D8DFE801F00B0B41
:1007E00008060400F2E7A64906E0A44904E0DFF8A1
:1007F0001C1801E0DFF818180160002001B000BDEE
:1008000023DBF93E23DB793E23DBF93D23DB793D16
:1008100000B581B001790129DFED8F0A55D1B4EE21
:10082000600AF1EE10FA48BF102147D4DFED8B0AC1
:10083000B4EE600AF1EE10FA48BF20213ED4DFED9D
:10084000880AB4EE600AF1EE10FA48BF302135D4C0
:10085000DFED840AB4EE600AF1EE10FA48BF4021E1
:100860002CD4DFED810AB4EE600AF1EE10FA48BF35
:10087000502123D4DFED7D0AB4EE600AF1EE10FAC8
:1008800048BF60211AD4DFED7A0AB4EE600AF1EEB7
:1008900010FA48BF702111D4DFED760AB4EE600A79
:1008A000F1EE10FA48BF802108D4DFED730AB4EEF0
:1008B000600AF1EE10FA4CBF9021A02101F0ACFCCF
:1008C00000285FD1012001B000BD80680068B4EE4F
:1008D000600AF1EE10FA48BFB2EE0A0A50D4DFED1A
:1008E0005F0AB4EE600AF1EE10FA48BFB3EE0A0AEE
:1008F00046D4DFED5B0AB4EE600AF1EE10FA48BFB1
:100900009FED5E0A3CD4DFED570AB4EE600AF1EECB
:1009100010FA48BF9FED5A0A32D4DFED530AB4EE05
:10092000600AF1EE10FA48BF9FEDB90A28D4DFED56
:100930004F0AB4EE600AF1EE10FA48BF9FEDB50A17
:100940001ED4DFED4B0AB4EE600AF1EE10FA48BF98
:100950009FEDB10A14D4DFED470AB4EE600AF1EE60
:1009600010FA48BF9FEDAD0A0AD4DFED430AB4EE9A
:10097000600AF1EE10FA4CBF9FEDA90A9FEDA90A9B
:1009800080ED000A002001B000BD000010B582B06B
:100990000C46694601F00CFCF0B19DF800000C28F3
:1009A00017D8DFE800F007161616131616160D16E0
:1009B000161610004FF08040206002B0002010BDDD
:1009C0004FF08140F8E74FF08240F5E74FF0834069
:1009D000F2E7DFF874082060012002B010BD0000CB
:1009E00000B5042981B010D8DFE801F0030F0B0F28
:1009F0000D00002101F0BDFB401E8041C00F01B081
:100A000000BD0821F6E70C21F4E7012001B000BD8C
:100A1000DFEDB30A00B5B4EE600AF1EE10FA81B072
:100A200048BF002111D4DFEDAF0AB4EE600AF1EE49
:100A300010FA48BF082108D4DFEDAB0AB4EE600A13
:100A4000F1EE10FA4CBF0C21042101F092FB401E84
:100A50008041C00F01B000BD010050410100D041F4
:100A6000010050420100D042010050430100D04338
:100A7000014050440180CF440120504500005042C5
:100A80000000D04230B581B00D4604460DF10201A0
:100A900001F027FE50B10DF10101204601F050FE9A
:100AA00020B16946204601F07AFE10B9012001B05C
:100AB00030BD9DF8020008280CBF012000202870DE
:100AC0009DF8010010280CBF0120002068709DF8DF
:100AD000000020280CBF01200020A87001B00020D9
:100AE00030BD30B50D4681B00446287801280CBFD2
:100AF00008210021204601F0D5FD40B16878012889
:100B00000CBF10210021204601F0FBFD10B901208F
:100B100001B030BDA87801280CBF2021002120465B
:100B200001F01EFE401E8041C00F01B030BD00B577
:100B300081B0012301F0E9FA401E8041C00F01B0ED
:100B400000BD00B581B001238DF800206A4601F098
:100B5000D3FA401E8041C00F01B000BD10B582B075
:100B60000C46694601F0A6FF48B19DF80000002838
:100B700018BF012803D1207002B0002010BD012051
:100B800002B010BD10B582B0044600208DF8000000
:100B90006946204601F0C2FA002831D09DF80000D5
:100BA000217888422CD10421204601F0FFFC38B383
:100BB0004021204601F0BEFA10B30021204601F08A
:100BC00079FCE8B1A068DFF8BC170068016000217B
:100BD000204601F07FFB98B10C21204601F04BFB31
:100BE00070B10821204601F009FE48B110212046CD
:100BF00001F033FE20B12021204601F05DFE10B946
:100C0000012002B010BD0120E07002B0002010BD34
:100C1000000050430000D043004050440080CF44C7
:100C2000002050450020D04570B5044682B0A06831
:100C3000056800208DF800006946204601F06EFA34
:100C4000002849D09DF800002178884244D12079BD
:100C5000002839D0A06806686946204601F059FB93
:100C6000002839D09DF8000030B3102822D0202869
:100C70001DD0302818D0402813D050280ED060281E
:100C800009D0702804D0802823D1DFF8880313E02E
:100C9000DFF8840310E0DFF884030DE0DFF8800361
:100CA0000AE0DFF8800307E0DFF87C0304E0DFF808
:100CB0005C0301E0DFF8580330600021204601F0BA
:100CC00009FB48B10020207100202860E07002B0CC
:100CD00070BDDFF874053060012002B070BD000007
:100CE00001000040010080400100004110B50446B1
:100CF000207901284AD0A068006890ED000ADFED55
:100D00008F0AB4EE600AF1EE10FA48BF102135D414
:100D1000DFED8B0AB4EE600AF1EE10FA48BF202135
:100D20002CD4DFED880AB4EE600AF1EE10FA48BF69
:100D3000302123D4DFED840AB4EE600AF1EE10FA1C
:100D400048BF40211AD4DFED810AB4EE600AF1EE0B
:100D500010FA48BF502111D4DFED7D0AB4EE600ACD
:100D6000F1EE10FA48BF602108D4DFEDA70AB4EE17
:100D7000600AF1EE10FA4CBF70218021204601F08C
:100D8000A9FA08B9012010BD01202071002010BD72
:100D900030B5044681B0207900283AD0A0680568B3
:100DA0006946204601F0B5FA00282DD09DF80000D4
:100DB000F0B110281BD0202817D0302813D040289D
:100DC0000FD050280BD0602807D0702803D080287F
:100DD00017D190480CE090480AE0904808E090480D
:100DE00006E0904804E0904802E0884800E0884827
:100DF00028600021204601F06DFA40B9012001B0C1
:100E000030BDDFF844042860012001B030BD00206F
:100E1000207101B030BD00B581B001F07FF9401EF6
:100E20008041C00F01B000BD10B582B00446002063
:100E30008DF800006946204601F070F920B19DF858
:100E400000002178884202D0012002B010BD0020AD
:100E500002B010BD2DE9F04184B080460C4601A8D7
:100E60000021C0E90011404601A901F062FA002802
:100E700060D001A89DF80420417802EB01269DF87E
:100E800007108278007902EB01279DF8091000EB2A
:100E900001250DF10101404601F08FFA002849D0EB
:100EA0009DF80100022808BF9FED950A1DD06946F4
:100EB000404601F0FFF900283CD09DF800000C28C6
:100EC00038D8DFE800F0103737370D3737370A37B3
:100ED000373707009FED8C0A07E09FED8C0A04E08E
:100EE0009FED8B0A01E09FED8B0A36B200EE906A0F
:100EF000F8EEE00A60EE800AFDEEE00AC4ED000ABA
:100F00003FB200EE907AF8EEE00A60EE800AFDEE65
:100F1000E00AC4ED010A2DB200EE905AF8EEE00AA4
:100F200020EE800ABDEEC00A84ED020A002004B063
:100F3000BDE8F081012004B0BDE8F081010050411E
:100F40000100D041010050420100D0420100504355
:100F50000100D04310B582B00C4669460022C1E9B9
:100F6000002201F0E6F910B9012002B010BD9DF891
:100F700001109DF8002002EB012121809DF8022044
:100F80009DF8031002EB012161809DF804009DF89B
:100F9000051000EB0120A08002B0002010BD000071
:100FA00030B581B00C4605460DF1010101F005FA9E
:100FB00068B19DF80100022804D15148206001B0B9
:100FC000002030BD6946284601F074F910B90120AF
:100FD00001B030BD9DF800000C2810D8DFE800F00B
:100FE000070F0F0F090F0F0F0B0F0F0F0D004948C1
:100FF000E4E74748E2E74548E0E74348DEE7924850
:10100000206001B0012030BD014050440000D041BB
:10101000000050410080CF44004050440000D043C5
:10102000000050430000D0420000504210B582B092
:101030000C46694601F06DF910B9012002B010BDEF
:101040009DF80000A0B1102816D0202817D0302815
:1010500018D0402818D0502818D0602818D07028F0
:1010600018D0802818D02748206002B0012010BD79
:10107000206002B0002010BDDFF8F40AF8E7DFF8C6
:10108000F40AF5E7BE48F3E7BE48F1E7BE48EFE7EC
:10109000BE48EDE7BE48EBE7DFF8AC04E8E7000048
:1010A00000B581B00279012A13D104290ED8DFE8F6
:1010B00001F0090907050300402104E0302102E0A6
:1010C000202100E0102101F005F9B0B9012001B0A4
:1010D00000BD806800680429F8D8DFE801F00B0B38
:1010E00008060400F2E7A74906E0A54904E0DFF896
:1010F000841A01E0DFF8781A0160002001B000BD19
:1011000000008C40000080BF00008C4200000C42B8
:1011100000008C4100000C4100B581B0017901292B
:10112000DFED900A43D1B4EE600AF1EE10FA48BF49
:10113000102135D4DFED8C0AB4EE600AF1EE10FA1E
:1011400048BF20212CD4DFED890AB4EE600AF1EE0D
:1011500010FA48BF302123D4DFED850AB4EE600ACF
:10116000F1EE10FA48BF40211AD4DFED820AB4EE46
:10117000600AF1EE10FA48BF502111D4DFED7E0A6B
:10118000B4EE600AF1EE10FA48BF602108D4DFED3A
:101190007B0AB4EE600AF1EE10FA4CBF7021802198
:1011A00001F098F800284BD1012001B000BD806803
:1011B0000068B4EE600AF1EE10FA48BFB2EE0A0A17
:1011C0003CD4DFED690AB4EE600AF1EE10FA48BFD4
:1011D000B3EE0A0A32D4DFED650AB4EE600AF1EE2E
:1011E00010FA48BF9FED660A28D4DFED610AB4EE1D
:1011F000600AF1EE10FA48BF9FED620A1ED4DFEDDF
:101200005D0AB4EE600AF1EE10FA48BF9FED5E0A87
:1012100014D4DFED590AB4EE600AF1EE10FA48BFBB
:101220009FED5A0A0AD4DFED550AB4EE600AF1EEDA
:1012300010FA4CBF9FED560A9FEDC30A80ED000ADD
:10124000002001B000BD0000000080BF30B581B0BB
:101250000C460546694601F0B0F828B10DF10101D0
:10126000284601F027F810B9012001B030BD9DF8E3
:101270000000022805D1DFF8EC0A206001B0002050
:1012800030BD9DF801000C2814D8DFE800F00713EA
:1012900013130A1313130D1313131000DFF8C80AE6
:1012A000EBE7DFF8C80AE8E7DFF8C40AE5E7DFF8AC
:1012B000C40AE2E7DFF8580C206001B0012030BD1D
:1012C00000B5042981B010D8DFE801F0030F0B0F3F
:1012D0000D00002100F0CFFF401E8041C00F01B083
:1012E00000BD0421F6E70C21F4E7012001B000BDA8
:1012F00030B5DFEDB30AB4EE600AF1EE10FA81B05A
:10130000044606D5022101F039F838B3002001B0B7
:1013100030BDDFEDAC0AB4EE600AF1EE10FA48BF62
:10132000002511D4DFEDA80AB4EE600AF1EE10FA40
:1013300048BF042508D4DFEDA50AB4EE600AF1EE3B
:1013400010FA4CBF08250C25002101F017F828B130
:101350002946204600F08FFF0028D7D1012001B098
:1013600030BD0000010050410100D0410100504259
:101370000100D042010050430100D04301405044DD
:10138000000050420000D042000050430000D04313
:101390000040504430B581B00D4604460DF10201C5
:1013A00001F04BFA50B10DF10101204601F074FA41
:1013B00020B16946204601F09EFA10B9012001B023
:1013C00030BD9DF8020008280CBF012000202870C5
:1013D0009DF8010010280CBF0120002068709DF8C6
:1013E000000020280CBF01200020A87001B00020C0
:1013F00030BD30B50D4681B00446287801280CBFB9
:1014000008210021204601F0F9F940B1687801284F
:101410000CBF10210021204601F01FFA10B9012055
:1014200001B030BDA87801280CBF20210021204642
:1014300001F042FA401E8041C00F01B030BD00B53E
:1014400081B0012300F061FE401E8041C00F01B059
:1014500000BD00B581B001238DF800206A4600F080
:101460004BFE401E8041C00F01B000BD10B582B0E0
:101470000C46694601F02EFB48B19DF8000010B102
:10148000022804D10120207002B0002010BD0120EC
:1014900002B010BDDFED4E0A00B5B4EE600AF1EE09
:1014A00010FA81B048BF102147D4DFED4A0AB4EEEC
:1014B000600AF1EE10FA48BF20213ED4DFED460A63
:1014C000B4EE600AF1EE10FA48BF302135D4DFEDFA
:1014D000430AB4EE600AF1EE10FA48BF40212CD462
:1014E000DFED3F0AB4EE600AF1EE10FA48BF50217A
:1014F00023D4DFED3C0AB4EE600AF1EE10FA48BFE7
:1015000060211AD4DFED380AB4EE600AF1EE10FA69
:1015100048BF702111D4DFED350AB4EE600AF1EE58
:1015200010FA48BF802108D4DFEDCA0AB4EE600A81
:10153000F1EE10FA4CBF9021A02100F06DFE401E8C
:101540008041C00F01B000BD0080CF4410B50446FB
:101550009FEDC10A2079012805D12046FFF79AFFA7
:10156000012804D110BDA068006880ED000A0021A8
:10157000204600F0FEFDC0B10621204601F056FDD8
:1015800098B10021204601F014FD70B100212046E1
:1015900001F0F0FC48B10021204601F0CDFC20B163
:1015A0000321204601F023FD08B9012010BD1021C0
:1015B000204601F0CFFD401E8041C00F10BD00004D
:1015C0000100FA42010075430100FA4301007A4428
:1015D000010050410100D041010050420100D042C1
:1015E000010050430100D043014050440180CF44EA
:1015F00010B50446002101F0ADFD20B100212046C8
:1016000001F014FD08B9012010BD0021204601F0B1
:10161000EEFC401E8041C00F10BD10B582B00C46DC
:10162000694601F0A7F948B19DF8000010B12028E3
:1016300004D10120207002B0002010BD012002B0B2
:1016400010BD00B581B001F0D2FC401E8041C00F3A
:1016500001B000BD10B50446B3EE0A0A2079012896
:1016600005D12046FFF716FF012804D110BDA06860
:10167000006880ED000A0021204600F07AFD70B17C
:101680001721204601F0F1FD48B10421204601F068
:1016900042F920B14021204601F059FB08B9012050
:1016A00010BD8021204600F062FF401E8041C00F27
:1016B00010BD10B50446002100F059FF48B10021CB
:1016C000204601F044FB20B10021204601F023F91F
:1016D00008B9012010BD0021204601F0C6FD401EC2
:1016E0008041C00F10BD10B582B00C46694601F0B4
:1016F00073FA48B19DF8000010B1102804D1012000
:10170000207002B0002010BD012002B010BD00B555
:1017100081B001F093FD401E8041C00F01B000BDBB
:1017200000B581B0022101F04AF8401E8041C00F8F
:1017300001B000BD00B581B0002101F040F8401EAD
:101740008041C00F01B000BD00B581B001F08DFD3A
:10175000401E8041C00F01B000BD10B50446B3EE7D
:101760000A0A2079012805D12046FFF793FE0128B7
:1017700004D110BDA068006880ED000A0021204659
:1017800000F0F7FC48B10421204601F0C4F820B174
:101790002021204601F0BCFA08B9012010BD022129
:1017A000204601F07AFC401E8041C00F10BD10B5EC
:1017B0000446002101F071FC20B10021204601F017
:1017C000A7FA08B9012010BD0021204601F0A3F8B6
:1017D000401E8041C00F10BD10B582B00C46694656
:1017E00001F00AFA48B19DF8000010B1202804D198
:1017F0000120207002B0002010BD012002B010BDF9
:1018000010B504469FED140A2079012805D1204621
:10181000FFF740FE012804D110BDA068006880EDEC
:10182000000A0021204600F0A4FC48B10021204617
:1018300001F0BFFB20B10221204601F040FB08B9B6
:10184000012010BD2021204601F0A3FC401E804154
:10185000C00F10BD012050450000D04310B5044614
:10186000002101F096FC20B10021204601F0A1FBEF
:1018700008B9012010BD0021204601F020FB401EC8
:101880008041C00F10BD10B582B00C46694601F012
:1018900061F848B19DF8000010B1082804D101207A
:1018A000207002B0002010BD012002B010BD00B5B4
:1018B00081B001F004FB401E8041C00F01B000BDAB
:1018C00010B504469FEDA90A2079012805D12046CC
:1018D000FFF7E0FD012804D110BDA068006880ED8D
:1018E000000A0021204600F044FCE8B1082120460F
:1018F00001F0EFF9C0B10421204601F0CBF998B115
:101900000221204601F0A7F970B10821204601F01C
:101910003DFA48B10221204601F075FA20B10121BB
:10192000204601F08EFA08B9012010BD4021204662
:1019300001F04EFC401E8041C00F10BD10B50446A2
:10194000002101F045FCC0B10021204601F01EFA43
:1019500098B10021204601F056FA70B100212046CE
:1019600001F06FFA48B10021204601F074F920B16E
:101970000021204601F08EF908B9012010BD002198
:10198000204601F0A6F9401E8041C00F10BD10B5E1
:1019900082B00C46694601F00DF848B19DF8000090
:1019A00010B1202804D10120207002B0002010BD09
:1019B000012002B010BD000010B504469FED6B0A77
:1019C0002079012805D12046FFF764FD012804D1C4
:1019D00010BDA068006880ED000A0021204600F0DC
:1019E000C8FB38B30821204601F073F910B3042175
:1019F000204601F04FF9E8B10221204601F02BF911
:101A0000C0B10821204601F0C1F998B10321204658
:101A100001F0F9F970B10321204601F012FA48B142
:101A20000821204601F02BFA20B18021204601F048
:101A300064FA08B9012010BD0821204601F06BFBB3
:101A4000401E8041C00F10BD10B50446002101F0BA
:101A500062FB10B30021204601F098F9E8B10021A3
:101A6000204601F0D0F9C0B10021204601F0E9F98B
:101A700098B10021204601F002FA70B10021204601
:101A800001F03BFA48B10021204601F0E4F820B112
:101A90000021204601F0FEF808B9012010BD002108
:101AA000204601F016F9401E8041C00F10BD10B550
:101AB00082B00C46694600F06DFF48B19DF8000009
:101AC00010B1102804D10120207002B0002010BDF8
:101AD000012002B010BD00B581B001F057F9401EE1
:101AE0008041C00F01B000BD00B581B001F08BF99D
:101AF000401E8041C00F01B000BD00B581B001F0B3
:101B0000A0F9401E8041C00F01B000BD00B581B0FA
:101B100001F0B5F9401E8041C00F01B000BD0000CA
:101B200010B504469FED110A2079012805D1204601
:101B3000FFF7B0FC012804D110BDA068006880ED5B
:101B4000000A0021204600F014FB20B1402120466D
:101B500001F03AF908B9012010BD0421204601F036
:101B6000BBFA401E8041C00F10BD00000000D043F2
:101B7000000050410000D04110B50446002101F0A2
:101B8000ABFA08B9012010BD0021204601F01CF974
:101B9000401E8041C00F10BD10B582B00C46694692
:101BA00000F078FF48B19DF8000010B1402804D142
:101BB0000120207002B0002010BD012002B010BD35
:101BC00010B582B00C46694600F004FF48B19DF89C
:101BD0000000002818BF012803D1207002B00020A7
:101BE00010BD012002B010BD10B582B00C46694690
:101BF00000F000FF48B19DF8000010B1022804D1A8
:101C00000120207002B0002010BD012002B010BDE4
:101C100010B582B00C46694600F0FCFE48B19DF854
:101C2000000010B1042804D10120207002B000206F
:101C300010BD012002B010BD10B582B00C4669463F
:101C400000F0F8FE48B19DF8000010B1082804D15A
:101C50000120207002B0002010BD012002B010BD94
:101C600010B582B00C46694600F0F4FE48B19DF80C
:101C7000000010B1102804D10120207002B0002013
:101C800010BD012002B010BD10B582B00C466946EF
:101C900000F0F0FE48B19DF8000010B1202804D1FA
:101CA0000120207002B0002010BD012002B010BD44
:101CB000DFED980A00B5B4EE600AF1EE10FA81B0DB
:101CC00048BF082147D4DFED940AB4EE600AF1EE74
:101CD00010FA48BF10213ED4DFEDB60AB4EE600A18
:101CE000F1EE10FA48BF182135D4DFEDB30AB4EE97
:101CF000600AF1EE10FA48BF20212CD4DFEDAF0AC4
:101D0000B4EE600AF1EE10FA48BF282123D4DFEDCB
:101D1000AC0AB4EE600AF1EE10FA48BF30211AD4D2
:101D2000DFEDA80AB4EE600AF1EE10FA48BF3821E0
:101D300011D4DFEDA50AB4EE600AF1EE10FA48BF47
:101D4000402108D4DFEDA10AB4EE600AF1EE10FAEA
:101D50004CBF4821502100F0CCFB401E8041C00FF9
:101D600001B000BD0000FA42000075430000FA43D4
:101D700000007A440000FA4410B582B00C4669466F
:101D800000F0E9FE68B19DF8000020B1202806D0DF
:101D9000012002B010BD207002B0002010BD012053
:101DA000F9E7012002B010BD10B582B00C466946BB
:101DB00000F0C1FE68B19DF8000020B1102806D0E7
:101DC000012002B010BD207002B0002010BD012023
:101DD000F9E7012002B010BD10B582B00C4669468B
:101DE00000F0C9FE68B19DF8000020B1402806D07F
:101DF000012002B010BD207002B0002010BD0120F3
:101E0000F9E7012002B010BD00B581B000F0C3FEBB
:101E1000401E8041C00F01B000BD00B581B001F08F
:101E2000F6F9401E8041C00F01B000BD00B581B081
:101E300000F060FE401E8041C00F01B000BD00B543
:101E4000072981B006D800F0F7FA401E8041C00F84
:101E500001B000BD012001B000BD00B50A0018BFEF
:101E6000082981B00BD0102918BF182907D02029C4
:101E700018BF282903D0302918BF382906D100F00F
:101E8000FAFA401E8041C00F01B000BD012001B030
:101E900000BD000070B582B00D460446694601F0F1
:101EA000B6F9002831D09DF801009DF8001041EAF4
:101EB00000260DF10201204600F07AF928B39DF8C2
:101EC00002000C2821D8DFE800F010202020072095
:101ED00020200D2020200A009FED3D0A07E09FED05
:101EE0003D0A04E09FED3C0A01E09FED3C0A36B25A
:101EF00000EE906AF8EEE00A20EE800ABDEEC00A1D
:101F000085ED000A002002B070BD012002B070BD56
:101F1000000080BF010020410100C84170B582B0BF
:101F20000D4604460DF1020101F071F900283ED082
:101F30009DF803009DF8021041EA00260DF1010111
:101F4000204600F03AFA002831D09DF8010002281E
:101F500008BF9FED230A1CD06946204600F0AAF96D
:101F600028B39DF800000C2821D8DFE800F01020ED
:101F700020200D2020200A20202007009FED190A94
:101F800007E09FED190A04E09FED180A01E09FEDBC
:101F9000180A36B200EE906AF8EEE00A20EE800AE7
:101FA000BDEEC00A85ED000A002002B070BD012020
:101FB00002B070BD010048420100C8420100484320
:101FC0000100C843010048440100C84401404E4597
:101FD00023DBF93E23DB793E23DBF93D23DB793D2F
:101FE00000008C4000008C4200000C4200008C413C
:101FF00000000C4100B5062981B00CD8DFE801F0E3
:1020000004040B04040B040000F054FA401E804149
:10201000C00F01B000BD012001B000BD00B50A0035
:1020200018BF202981B006D100F082FA401E8041FD
:10203000C00F01B000BD012001B000BD00B581B0EE
:1020400000F0CBF9401E8041C00F01B000BD00B5CB
:10205000012981B006D800F0C8FA401E8041C00FA7
:1020600001B000BD012001B000BD00B5012981B063
:1020700006D800F0D1FD401E8041C00F01B000BD68
:10208000012001B000BD00B5032981B006D800F0E1
:10209000CBFA401E8041C00F01B000BD012001B04D
:1020A00000BD00B5012981B006D800F0B5FD401E85
:1020B0008041C00F01B000BD012001B000BD000093
:1020C00000B50C2981B00FD8DFE801F0070E0E0E25
:1020D000070E0E0E070E0E0E070000F0C4FA401E8B
:1020E0008041C00F01B000BD012001B000BD0268F9
:1020F000531C03601170704700B581B001F0B2F954
:10210000401E8041C00F01B000BD00B581B001F09C
:10211000C0F9401E8041C00F01B000BD00B50A46A5
:1021200081B001230F2101F0B4F9401E8041C00F9E
:1021300001B000BD30B581B00D46044601236A46AA
:10214000122101F0A6F910B1002001B030BD9DF8B8
:10215000000000F0BF0028438DF8000001236A460C
:102160001221204601F07EF9401E8041C00F01B0CF
:1021700030BD30B581B00D46044601236A461021BA
:1021800001F087F910B1002001B030BD9DF80000CA
:1021900000F0F30028438DF8000001236A46102167
:1021A000204601F05FF9401E8041C00F01B030BDF4
:1021B00010B50C4601232246102101F06AF908B13E
:1021C000002010BD207800F00C002070012010BD10
:1021D000F0B581B004460D4600260327F6B206F19D
:1021E00028010123AA19C9B2204601F052F950B9B9
:1021F000761CF6B206F128010123AA19C9B22046BD
:1022000001F047F910B1002001B0F0BD761C7F1E2F
:10221000E4D1012001B0F0BD30B581B00D460446D7
:1022200001236A46102101F034F910B1002001B0F9
:1022300030BD9DF8000000F00F0028438DF800002D
:1022400001236A461021204601F00CF9401E80410E
:10225000C00F01B030BD10B50C460123224610213D
:1022600001F017F908B1002010BD207800F0F0004F
:102270002070012010BD30B581B00D460446012309
:102280006A46112101F005F910B1002001B030BDFE
:102290009DF8000000F0F30028438DF800000123B2
:1022A0006A461121204601F0DDF8401E8041C00F32
:1022B00001B030BD10B50C4601232246112101F0BA
:1022C000E8F808B1002010BD207800F00C00207064
:1022D000012010BD30B581B00D46044601236A4689
:1022E000112101F0D6F810B1002001B030BD9DF8E9
:1022F000000000F00F0028438DF8000001236A461B
:102300001121204601F0AEF8401E8041C00F01B0FF
:1023100030BD10B50C4601232246112101F0B9F859
:1023200008B1002010BD207800F0F00020700120DE
:1023300010BDF0B581B004460D4600260327F6B265
:1023400006F122010123AA19C9B2204601F0A1F821
:1023500050B9761CF6B206F122010123AA19C9B2BE
:10236000204601F096F810B1002001B0F0BD761CB7
:102370007F1EE4D1012001B0F0BD000030B581B076
:102380000D46044601236A46112101F082F810B17E
:10239000002001B030BD9DF8000000F0FD00284392
:1023A0008DF8000001236A461121204601F05AF8F9
:1023B000401E8041C00F01B030BD10B50C46012356
:1023C0002246112101F065F808B1002010BD2078E7
:1023D00000F002002070012010BD70B582B00446EC
:1023E00001236A460D46062101F053F82E0A78B9FA
:1023F0008DF8005001236A460621204601F032F88C
:1024000030B901236A460721204601F042F810B195
:10241000002002B070BD9DF8000066F303008DF847
:10242000000001236A460721204601F01BF8401EE8
:102430008041C00F02B070BD30B581B00D4604467A
:1024400001236A46082101F024F810B1002001B0F0
:1024500030BD9DF8000000F0F80028438DF8000022
:1024600001236A460821204600F0FCFF401E8041FF
:10247000C00F01B030BD30B581B00D460446012318
:102480006A46082101F005F810B1002001B030BD06
:102490009DF8000000F0C70028438DF800000123DC
:1024A0006A460821204600F0DDFF401E8041C00F33
:1024B00001B030BD30B581B00D46044601236A46F7
:1024C0000A2100F0E6FF10B1002001B030BD9DF8F8
:1024D000000000F0F80028438DF8000001236A4650
:1024E0000A21204600F0BEFF401E8041C00F01B00F
:1024F00030BD30B581B00D46044601236A460A213D
:1025000000F0C7FF10B1002001B030BD9DF8000001
:1025100000F0870028438DF8000001236A460A2155
:10252000204600F09FFF401E8041C00F01B030BD2B
:1025300030B581B00D46044601236A460D2100F0F6
:10254000A8FF10B1002001B030BD9DF8000000F0E0
:10255000DF0028438DF8000001236A460D21204644
:1025600000F080FF401E8041C00F01B030BD30B58B
:1025700081B00D46044601236A460D2100F089FF13
:1025800010B1002001B030BD9DF8000000F07F00C8
:1025900028438DF8000001236A460D21204600F0F3
:1025A00061FF401E8041C00F01B030BD30B581B029
:1025B0000D46044601236A46122100F06AFF10B15D
:1025C000002001B030BD9DF8000000F0FB00284362
:1025D0008DF8000001236A461221204600F042FFD8
:1025E000401E8041C00F01B030BD30B581B00D46F6
:1025F000044601236A46132100F04BFF10B100206E
:1026000001B030BD9DF8000000F0FE0028438DF8B9
:10261000000001236A461321204600F023FF401EDC
:102620008041C00F01B030BD30B581B00D460446C9
:1026300001236A46142100F02CFF10B1002001B0E4
:1026400030BD9DF8000000F0FC0028438DF800002C
:1026500001236A461421204600F004FF401E8041F9
:10266000C00F01B030BD30B581B00D460446012326
:102670006A46142100F00DFF10B1002001B030BDFA
:102680009DF8000000F0F30028438DF800000123BE
:102690006A461421204600F0E5FE401E8041C00F2E
:1026A00001B030BD30B581B00D46044601236A4605
:1026B000182100F0EEFE10B1002001B030BD9DF8F1
:1026C000000000F0F70028438DF8000001236A465F
:1026D0001821204600F0C6FE401E8041C00F01B008
:1026E00030BD10B50C4601232246182100F0D1FE62
:1026F00008B1002010BD207800F0080020700120F3
:1027000010BD30B581B00D46044601236A4618213C
:1027100000F0BFFE10B1002001B030BD9DF80000F8
:1027200000F0EF0028438DF8000001236A461821CD
:10273000204600F097FE401E8041C00F01B030BD22
:1027400010B50C4601232246182100F0A2FE08B164
:10275000002010BD207800F010002070012010BD76
:1027600030B581B00D46044601236A46182100F0B9
:1027700090FE10B1002001B030BD9DF8000000F0C7
:10278000DF0028438DF8000001236A461821204607
:1027900000F068FE401E8041C00F01B030BD10B592
:1027A0000C4601232246182100F073FE08B10020D8
:1027B00010BD207800F020002070012010BD30B541
:1027C00081B00D46044601236A46192100F061FEDE
:1027D00010B1002001B030BD9DF8000000F0FD00F8
:1027E00028438DF8000001236A461921204600F095
:1027F00039FE401E8041C00F01B030BD30B581B000
:102800000D46044601236A46192100F042FE10B12C
:10281000002001B030BD9DF8000000F0F700284313
:102820008DF8000001236A461921204600F01AFEA7
:10283000401E8041C00F01B030BD10B50C460123D1
:102840002246192100F025FE08B1002010BD207895
:1028500000F008002070012010BD30B581B00D4699
:10286000044601236A46192100F013FE10B100202E
:1028700001B030BD9DF8000000F0EF0028438DF856
:10288000000001236A461921204600F0EBFD401E9E
:102890008041C00F01B030BD10B50C460123224667
:1028A000192100F0F6FD08B1002010BD207800F0DD
:1028B00010002070012010BD30B581B00D460446D7
:1028C00001236A46192100F0E4FD10B1002001B097
:1028D00030BD9DF8000000F0DF0028438DF80000B7
:1028E00001236A461921204600F0BCFD401E8041AC
:1028F000C00F01B030BD10B50C460123224619218E
:1029000000F0C7FD08B1002010BD207800F02000C5
:102910002070012010BD30B581B00D460446012362
:102920006A46192100F0B5FD10B1002001B030BD9C
:102930009DF8000000F0FB0028438DF80000012303
:102940006A461921204600F08DFD401E8041C00FCF
:1029500001B030BD10B50C46012322461B2100F00A
:1029600098FD08B1002010BD207800F0080020700C
:10297000012010BD10B50C46012322461B2100F09A
:1029800088FD08B1002010BD207800F020002070E4
:10299000012010BD10B50C46012322461C2100F079
:1029A00078FD08B1002010BD207800F010002070E4
:1029B000012010BD10B50C46012322461C2100F059
:1029C00068FD08B1002010BD207800F020002070C4
:1029D000012010BD10B50C46012322461D2100F038
:1029E00058FD08B1002010BD207800F001002070D3
:1029F000012010BD10B50C46012322461D2100F018
:102A000048FD08B1002010BD207800F002002070C1
:102A1000012010BD10B50C46012322461D2100F0F7
:102A200038FD08B1002010BD207800F004002070AF
:102A3000012010BD10B50C46012322461D2100F0D7
:102A400028FD08B1002010BD207800F0080020709B
:102A5000012010BD10B50C46012322461D2100F0B7
:102A600018FD08B1002010BD207800F01000207083
:102A7000012010BD10B50C46012322461D2100F097
:102A800008FD08B1002010BD207800F02000207063
:102A9000012010BD10B50C46012322461D2100F077
:102AA000F8FC08B1002010BD207800F04000207034
:102AB000012010BD10B50C46012322461E2100F056
:102AC000E8FC08B1002010BD207800F00100207063
:102AD000012010BD10B50C46012322461E2100F036
:102AE000D8FC08B1002010BD207800F00200207052
:102AF000012010BD30B581B00D46044601236A4661
:102B00003A2100F0C6FC38B901230DF101023B2146
:102B1000204600F0BEFC10B1002001B030BD9DF891
:102B200001009DF8001000F00F0041EA002028800D
:102B300001B0012030BD10B50C46012322463B21D7
:102B400000F0A7FC08B1002010BD207800F01000B4
:102B50002070012010BD10B50C46012322463B21F8
:102B600000F097FC08B1002010BD207800F0200094
:102B70002070012010BD10B50C46012322463B21D8
:102B800000F087FC08B1002010BD207800F0400064
:102B90002070012010BD30B581B00D4604460123E0
:102BA0006A463C2100F075FC38B901230DF10102A1
:102BB0003D21204600F06DFC10B1002001B030BD79
:102BC0009DF801009DF8001000F0030041EA00208C
:102BD000288001B0012030BD10B50C4601232246EB
:102BE000532100F056FC08B1002010BD207800F001
:102BF00010002070012010BD10B50C4601232246A4
:102C0000532100F046FC08B1002010BD207800F0F0
:102C100020002070012010BD30B581B00D46044663
:102C200001236A46582100F034FC10B1002001B0A5
:102C300030BD9DF8000000F0FE0028438DF8000034
:102C400001236A465821204600F00CFC401E8041BA
:102C5000C00F01B030BD30B581B00D460446012330
:102C60006A46582100F015FC10B1002001B030BDBB
:102C70009DF8000000F0FD0028438DF800000123BE
:102C80006A465821204600F0EDFB401E8041C00FEF
:102C900001B030BD30B581B00D46044601236A460F
:102CA000582100F0F6FB10B1002001B030BD9DF8B6
:102CB000000000F0FB0028438DF8000001236A4665
:102CC0005821204600F0CEFB401E8041C00F01B0CD
:102CD00030BD30B581B00D46044601236A46582107
:102CE00000F0D7FB10B1002001B030BD9DF800000E
:102CF00000F0F70028438DF8000001236A465821B0
:102D0000204600F0AFFB401E8041C00F01B030BD37
:102D100030B581B00D46044601236A46582100F0C3
:102D2000B8FB10B1002001B030BD9DF8000000F0EC
:102D3000DF0028438DF8000001236A465821204611
:102D400000F090FB401E8041C00F01B030BD30B597
:102D500081B00D46044601236A46582100F099FBD4
:102D600010B1002001B030BD9DF8000000F0BF00A0
:102D700028438DF8000001236A465821204600F0C0
:102D800071FB401E8041C00F01B030BD30B581B035
:102D90000D46044601236A46592100F07AFB10B122
:102DA000002001B030BD9DF8000065F304008DF8EF
:102DB000000001236A465921204600F053FB401EC3
:102DC0008041C00F01B030BD30B581B00D46044622
:102DD00001236A46592100F05CFB10B1002001B0CC
:102DE00030BD9DF8000000F09F0028438DF80000E2
:102DF00001236A465921204600F034FB401E8041E1
:102E0000C00F01B030BD30B581B00D46044601237E
:102E10006A465A2100F03DFB10B1002001B030BDE0
:102E20009DF8000065F301008DF8000001236A465B
:102E30005A21204600F016FB401E8041C00F01B011
:102E400030BD30B581B00D46044601236A465A2193
:102E500000F01FFB10B1002001B030BD9DF8000054
:102E600065F383008DF8000001236A465A2120464D
:102E700000F0F8FA401E8041C00F01B030BD30B5FF
:102E800081B00D46044601236A465A2100F001FB39
:102E900010B1002001B030BD9DF8000000F00F001F
:102EA00040EA05108DF8000001236A465A212046A9
:102EB00000F0D8FA401E8041C00F01B030BD30B5DF
:102EC00081B00D46044601236A465B2100F0E1FA19
:102ED00010B1002001B030BD9DF8000065F3050081
:102EE0008DF8000001236A465B21204600F0BAFA03
:102EF000401E8041C00F01B030BD30B581B00D46DD
:102F0000044601236A465B2100F0C3FA10B1002099
:102F100001B030BD9DF8000000F07F0028438DF81F
:102F2000000001236A465B21204600F09BFA401E08
:102F30008041C00F01B030BD30B581B00D460446B0
:102F400001236A465C2100F0A4FA10B1002001B010
:102F500030BD9DF8000065F303008DF800000123EB
:102F60006A465C21204600F07DFA401E8041C00F79
:102F700001B030BD30B581B00D46044601236A462C
:102F80005C2100F086FA10B1002001B030BD9DF840
:102F9000000000F0EF0028438DF8000001236A468E
:102FA0005C21204600F05EFA401E8041C00F01B057
:102FB00030BD30B581B00D46044601236A465C2120
:102FC00000F067FA10B1002001B030BD9DF800009C
:102FD00065F346108DF8000001236A465C21204607
:102FE00000F040FA401E8041C00F01B030BD30B546
:102FF00081B00D46044601236A465D2100F049FA7E
:1030000010B1002001B030BD9DF8000000F0F800C4
:1030100028438DF8000001236A465D21204600F018
:1030200021FA401E8041C00F01B030BD70B582B0A2
:10303000044601236A460E465D2100F02AFA75090E
:10304000A8B99DF8000000F0070040EAC6008DF81E
:10305000000001236A465D21204600F003FA30B9E2
:1030600001236A465C21204600F013FA10B10020CB
:1030700002B070BD9DF8000000F07F0040EAC5106E
:103080008DF8000001236A465C21204600F0EAF931
:10309000401E8041C00F02B070BD30B581B00D46FA
:1030A000044601236A465E2100F0F3F910B10020C6
:1030B00001B030BD9DF8000000F0FD0028438DF800
:1030C000000001236A465E21204600F0CBF9401E35
:1030D0008041C00F01B030BD30B581B00D4604460F
:1030E00001236A465E2100F0D4F910B1002001B03E
:1030F00030BD9DF8000000F0FB0028438DF8000073
:1031000001236A465E21204600F0ACF9401E804152
:10311000C00F01B030BD30B581B00D46044601236B
:103120006A465E2100F0B5F910B1002001B030BD53
:103130009DF8000000F0F70028438DF800000123FF
:103140006A465E21204600F08DF9401E8041C00F86
:1031500001B030BD30B581B00D46044601236A464A
:103160005E2100F096F910B1002001B030BD9DF84D
:10317000000000F0EF0028438DF8000001236A46AC
:103180005E21204600F06EF9401E8041C00F01B064
:1031900030BD30B581B00D46044601236A465E213C
:1031A00000F077F910B1002001B030BD9DF80000AB
:1031B00000F0DF0028438DF8000001236A465E21FD
:1031C000204600F04FF9401E8041C00F01B030BDD5
:1031D00030B581B00D46044601236A465E2100F0F9
:1031E00058F910B1002001B030BD9DF8000000F08A
:1031F000BF0028438DF8000001236A465E21204667
:1032000000F030F9401E8041C00F01B030BD30B534
:103210000D4681B0044601232A463E2100F039F9CB
:1032200030B901236A1C3F21204600F032F910B169
:10323000002001B030BD012001B030BD30B50D46D9
:1032400081B0044601232A464B2100F022F930B90F
:1032500001236A1C4C21204600F01BF910B100200C
:1032600001B030BD012001B030BD30B581B00D4698
:10327000044601236A46012100F00BF958B99DF874
:10328000000040F080008DF8000001236A46012113
:10329000204600F0E7F801230DF101020F2120463E
:1032A00000F0F7F89DF8010065F304008DF80100C7
:1032B00001230DF101020F21204600F0D3F8012374
:1032C0006A460121204600F0E4F858B99DF8000054
:1032D00000F07F008DF8000001236A46012120469E
:1032E00000F0C0F8012001B030BD000030B59F4CA7
:1032F00087B0204600F080FC002844D19C489D4DBA
:10330000606001A93320A0600120E0609A4820603D
:10331000686940F002006861686900F0020000908E
:1033200000984FF440700190122002900220049007
:103330000020039004200590904800F0A3FC286A28
:1033400040F4001028620022286A00F40010009067
:1033500000210098286840F400102860286820F4B4
:10336000001028601F2000F092FD1F2000F0B8FD23
:1033700000220021202000F08AFD202000F0B0FD76
:10338000204600F001F9204600F036FC20280CBF52
:103390000020012007B030BD0020704730B5784CC8
:1033A000784D8BB0206840F00100206006A92068AD
:1033B00000F0010000900098079510200690022070
:1033C0000990002008904FF0904000F05BFC002234
:1033D00000210A2000F05BFD0A2000F081FD20683A
:1033E00040F00200206001A9206800F00200009077
:1033F0000098029501200190022004900020039083
:103400005E4800F03FFC00220021062000F03FFD56
:10341000062000F065FD00200BB030BD00B5584817
:1034200087B0016841F00101016001A9006800F066
:103430000100009000981020019052480290022054
:103440000490002003904FF0904000F01BFC0022FD
:1034500000210A2000F01BFD0A2000F041FD0020A1
:1034600007B000BD30B583B04FF48055009202958F
:103470000A460193012341783C4C204600F0F2F8C3
:1034800028B1204600F0D4F800F01AF8012003B06B
:1034900030BD30B583B04FF48055009202950A4696
:1034A000019301234178314C204600F03DFA28B1C8
:1034B000204600F0BDF800F003F8012003B030BD55
:1034C00030B52A4C87B0204600F096FB002844D146
:1034D0002748284D606001A93320A0600120E060EA
:1034E00025482060686940F002006861686900F062
:1034F0000200009000984FF440700190122002905A
:103500000220049000200390042005901B4800F046
:10351000B9FB286A40F4001028620022286A00F4EF
:103520000010009000210098286840F400102860E6
:10353000286820F4001028601F2000F0A8FC1F203D
:1035400000F0CEFC00220021202000F0A0FC202072
:1035500000F0C6FC204600F017F8204600F04CFBB7
:1035600020280CBF0020012007B030BD0C16002021
:103570003A14D110381002400054004000040048B2
:103580004C1002400000111010B5040001D10120C0
:1035900010BD94F83D0020B984F83C00204600F0AE
:1035A0006FFB242084F83D00206801684908490029
:1035B00001606068216820F070600861206881689F
:1035C00021F400418160A06840B1E16801292168CF
:1035D0000CBF40F4004040F404408860E0680228DA
:1035E00003D121684FF4006048602068416841F0D1
:1035F000007141F400414160206961690843A1699B
:1036000040EA01202168C860E069216A0843216816
:1036100008602068016841F0010101600020206419
:10362000202084F83D000020206384F83E0010BD77
:1036300010B5040001D1012010BD242084F83D0004
:1036400020680168490849000160204600F06EFCCE
:103650000020206484F83D00206384F83E0084F854
:103660003C0010BD2DE9F04F054681B095F83D00B6
:1036700020280F4616469B4640F05281DDF828A0D0
:10368000BAF1000F00F031810B9C200000F02D8179
:1036900028688069000400F1438195F83C00012806
:1036A00000F03E81012085F83C0000F041FC80469E
:1036B000212085F83D00402085F83E000020286448
:1036C000C7F309000090DFF8249528684168009A44
:1036D00009EA010111435FFA8BF241EA024141F02C
:1036E000807141F4005141600C9F2968886980070E
:1036F00026D442463946284600F081FAA8B917F187
:10370000010FF2D02FB100F013FCA0EB08008742AC
:10371000EBD2286C40F020002864202085F83D0082
:10372000002085F83E0085F83C00286C286C0428B1
:1037300054D1002085F83C0001B00120BDE8F08F95
:10374000BBF1010F23D0300A8862286880698007A6
:103750001DD442463946284600F051FA0028E4D1EB
:1037600017F1010FF1D02FB100F0E2FBA0EB080040
:103770008742EAD2286C40F020002864202085F897
:103780003D00002085F83E0085F83C00CDE7286824
:10379000F6B2866228688169090612D417F1010F12
:1037A000F8D02FB100F0C4FBA0EB08008742F1D2A3
:1037B000202085F83D00002085F83E0085F83C007B
:1037C000B4E74168009AFF2C09EA010110DD1143BA
:1037D000DFF81C2411434160FF2611E0002085F82A
:1037E0003C0001B00320BDE8F08F009A09EA010116
:1037F0001143E2B241EA024141F0007141602646C4
:1038000028688169890722D442463946284600F053
:10381000F6F9A8B917F1010FF2D02FB100F088FB2B
:10382000A0EB08008742EBD2286C40F0200028640F
:10383000202085F83D00002085F83E0085F83C00FA
:10384000286C042868D1012001B0BDE8F08F1AF877
:10385000011B8162761EA4F10104A0B223D120B322
:1038600028688169090615D417F1010FF8D02FB126
:1038700000F05EFBA0EB08008742F1D2202085F823
:103880003D00002085F83E0085F83C0001B0032093
:10389000BDE8F08FA4B2FF2C4168A6DD009A09EACA
:1038A0000101114394E70028AAD12868816989069B
:1038B0001FD442463946284600F0A1F990B92FB1ED
:1038C00000F036FBA0EB08008742EED2286C40F0F7
:1038D00020002864202085F83D00002085F83E0067
:1038E00085F83C00286C042816D1012001B0BDE801
:1038F000F08F2021C1612868DFF8F822416811406B
:103900004160202085F83D00002085F83E0085F8C4
:103910003C0001B0BDE8F08F032001B0BDE8F08F9E
:10392000022001B0BDE8F08F2DE9F04F054681B0CF
:1039300095F83D0020280F4616469B4640F05281E0
:10394000DDF828A0BAF1000F00F031810B9C2000B7
:1039500000F02D8128688069000400F1438195F80A
:103960003C00012800F03E81012085F83C0000F079
:10397000DFFA8046222085F83D00402085F83E0091
:1039800000202864C7F309000090DFF860922868DF
:103990004168009A09EA010111435FFA8BF241EA9A
:1039A000024141F4005141600C9F296888698007F9
:1039B00026D442463946284600F021F9A8B917F125
:1039C000010FF2D02FB100F0B3FAA0EB080087424C
:1039D000EBD2286C40F020002864202085F83D00C0
:1039E000002085F83E0085F83C00286C286C0428EF
:1039F00055D1002085F83C0001B00120BDE8F08FD2
:103A0000BBF1010F23D0300A8862286880698007E3
:103A10001DD442463946284600F0F1F80028E4D18A
:103A200017F1010FF1D02FB100F082FAA0EB0800DE
:103A30008742EAD2286C40F020002864202085F8D4
:103A40003D00002085F83E0085F83C00CDE7286861
:103A5000F6B2866228688169490612D417F1010F0F
:103A6000F8D02FB100F064FAA0EB08008742F1D241
:103A7000202085F83D00002085F83E0085F83C00B8
:103A8000B4E74168009AFF2C09EA01010EDD1143F9
:103A900041F0FE7141F449314160FF261AE00020F7
:103AA00085F83C0001B00320BDE8F08F1143E2B27D
:103AB00041EA024141F0007141F4105108E0009ADE
:103AC00009EA01011143E2B241EA024141F0007109
:103AD0004160264628688169490715D417F1010F0E
:103AE000F8D02FB100F024FAA0EB08008742F1D201
:103AF000202085F83D00002085F83E0085F83C0038
:103B000001B00320BDE8F08F406A0AF8010B761E71
:103B1000A4F10104A0B228D148B32868816909063C
:103B200015D417F1010FF8D02FB100F001FAA0EB76
:103B300008008742F1D2202085F83D00002085F85A
:103B40003E0085F83C0001B00320BDE8F08FA4B230
:103B5000FF2C4168B3DD009A09EA01011143DFF847
:103B6000902011434160FF26B4E70028B2D12868B5
:103B7000816989061FD442463946284600F03FF83D
:103B800090B92FB100F0D4F9A0EB08008742EED233
:103B9000286C40F020002864202085F83D0000209B
:103BA00085F83E0085F83C00286C042816D10120D9
:103BB00001B0BDE8F08F2021C1612868DFF8342012
:103BC000416811404160202085F83D00002085F8C3
:103BD0003E0085F83C0001B0BDE8F08F032001B045
:103BE000BDE8F08F022001B0BDE8F08F009800FC26
:103BF0000000FF0100E800FE90F83D00704770B53E
:103C000004460D4620688069C006164634D52068F3
:103C10008169890612D415F1010FF8D025B100F0A1
:103C200087F9801B8542F2D2202084F83D000020D5
:103C300084F83E0084F83C00032070BD1021C1616F
:103C400020202168C86120688169C90703D481697F
:103C500041F0010181612068084A416811404160DA
:103C600004202064202084F83D00002084F83E00D9
:103C700084F83C00012070BD002070BD00E800FE0B
:103C8000704700002DE9F04F81B00C686F4BDFF8F2
:103C9000C081DFF8C0910022002C4FF00F0A4FF0D6
:103CA000010B00F0BE800C680BFA02FC1CEA040E4B
:103CB00000F0B2804C68022C18BF122C0ED1D40830
:103CC00000EB84049500266A05F01C050AFA05F746
:103CD000BE430F6907FA05F53543256254000325F5
:103CE00006680F79A540ED4307F003072E40A74073
:103CF0003E4306604E68012E18BF022E03D0112EDF
:103D000018BF122E0ED18668CF682E40A7403E43C2
:103D1000866046684F68C7F3001726EA0C0697408E
:103D20003E4346604E6806F00307032F07D1C76A7B
:103D3000C6F3C00627EA0C0796403E43C662C66833
:103D40002E408D6805FA04F43443C4604C68E400E6
:103D500062D5D9F8004044F00104C9F800404FEAA8
:103D6000920CD9F8005005F0010400949500009CD5
:103D700058F82C6005F00C040AFA04F526EA05054B
:103D8000B0F1904F08BF00261DD0334EB04208BF9F
:103D9000012618D0314EB04208BF022613D0304E53
:103DA000B04208BF03260ED02E4EB04208BF0426F4
:103DB00009D02D4EB04208BF052604D02B4EB0428C
:103DC0000CBF0626072606FA04F42C4348F82C40BC
:103DD0006FEA0E061C684D683440ED0348BF4EEA9A
:103DE00004041C605C684D683440AD0348BF4EEA73
:103DF00004045C609C684D683440ED0248BF4EEAA4
:103E000004049C60DC6806EA040C4C68A40248BF09
:103E10004EEA0C0CC3F80CC0521C0C68D4407FF462
:103E200042AF01B0BDE8F08F002A14BF816181620A
:103E3000704742695140416170470D4A136803421F
:103E40001CBF106000F021BC70470000000401405E
:103E500008000140601002400004004800080048CB
:103E6000000C0048001000480014004800180048EA
:103E70001404014027490A684FF6FF0300021A4064
:103E800000F4E0601043244A10430860704730B4E7
:103E9000204B1B68C3F30223C3F10704052C28BF82
:103EA00004241D1D072D34BF0023DB1E012505FA48
:103EB00004F4641E2140994005FA03F35B1E1A4086
:103EC00011430901002807D5144A00F00F001044DF
:103ED00000F8041C30BC7047114A115430BC7047C4
:103EE000012100F01F0291400E4A400942F82010C3
:103EF0007047401EB0F1807F01D3012070470A490E
:103F00004860F02081F8130D0020886007200860C9
:103F1000002070470CED00E00000FA0518ED00E00D
:103F200000E400E000E100E010E000E07047000085
:103F300001480068704700BF401700202DE9F04F8E
:103F400081B0DFF8C4472DED028BD2B000F048FC01
:103F500000F054FC002000F033FD002000F058FD7C
:103F60000121002000F069FD00F05AFE0C200090B5
:103F7000002009900120029000200590684600F082
:103F8000C5FE00281ABF0120F921FF21E1600A4681
:103F90007F21A160DFF874170860E264DFF8700722
:103FA00020604020606000202061A061E061204628
:103FB00001F0B6FA00B1FEE714208DF803000122EB
:103FC00002208DF80100694618208DF802000220B9
:103FD0008DF80000204601F0FAFB00B1FEE7082052
:103FE0008DF80400012210208DF8050001A90020A1
:103FF000ADF8060004900590204601F0F3FA00B1F8
:10400000FEE704F16C014FF0FF3001F0C5FC04F154
:1040100070014FF0FF3001F003FE04F17401002045
:1040200001F040FF04F17801002002F00FF804F1E4
:104030007C01002002F0D4F804F180014FF0FF3041
:1040400002F012FB0FF2787A0FF26079DFF8C456B3
:104050000FF2D068DFF8C07641F2883621E000BF69
:1040600000F0D6FC387800281CBF94F849000028DE
:1040700010D010A802F0D4FC94F84A008DF8770014
:104080003420109010A800F0B3FD002084F84900FF
:1040900084F84A0094F8480018B14FF4FA7002F01E
:1040A0007FFD10A800F024FD58B19DF8440032288F
:1040B00007D110A802F0BEFC387810B1002084F8B7
:1040C0004800606D216D884238D0206D6065D4F85D
:1040D0008000216DC90702D502F018FC01E002F052
:1040E00025FCA06F216D490702D501F0F7FF01E023
:1040F00002F004F8E06F216D890702D502F032FA70
:1041000001E002F03FFAE06E216DC90602D501F030
:10411000F5FC01E001F002FD206F216D890602D55A
:1041200001F02EFE01E001F03BFE606F216D4906BB
:1041300002D501F0F9FE01E001F006FF3978002018
:10414000002904BF94F84810002911D0002203A9C7
:10415000204601F006FB002202A9204601F0E6FB02
:10416000E06C0499411A64225143401C91FBF0F029
:10417000397871B19DF80C108DF847108DF84A0010
:104180009DF80D108DF848109DF80E108DF849100F
:104190001BE094F84810C1B1C0B2019041469DF8AF
:1041A0000E009DF80D309DF80C20009004F1840065
:1041B00002F004FD04F1840002F01AFD82B23346DD
:1041C00004F18401284602F062FD206DC0076FD51E
:1041D0000020ADF800000DF10101D4F8800002F0DC
:1041E000B5FB002804BF9DF80100012860D1D4F878
:1041F0008000694602F0FCFB9DF80000002857D0C3
:1042000094F84900401C84F8490004F1580194F8DE
:104210004A0040F0080084F84A00D4F8800002F018
:10422000A7FB94ED160ABDEEC08AB5EE400AF8EE83
:10423000C80AF1EE10FAACBF30EE600A30EEC00AE8
:1042400010EE100A03F022F80022DFF8D03403F059
:1042500045F841EC100B03F012F951EC100B03F090
:104260001BF98346387868B1022218EE101A0DF156
:104270004B0003F0C2F9022259460DF14D0003F044
:10428000BCF915E094F8480090B15B4618EE102A8E
:10429000494604F1840002F091FC04F1840002F02C
:1042A000A7FC82B2334604F18401284602F0EFFCF9
:1042B000206D40076CD50020ADF800000DF1010124
:1042C000A06F01F02BFF002804BF9DF8010001281A
:1042D0005ED1A06F694601F073FF9DF800000028D1
:1042E00056D094F84900401C84F8490004F15C0160
:1042F00094F84A0040F0100084F84A00A06F01F0E2
:104300001FFF94ED170ABDEEC08AB5EE400AF8EE25
:10431000C80AF1EE10FAACBF30EE600A30EEC00A07
:1043200010EE100A02F0B2FF0022DFF8F03302F0C4
:10433000D5FF41EC100B03F0A2F851EC100B03F089
:10434000ABF88346387868B1012218EE101A0DF1E7
:10435000510003F052F9012259460DF1520003F0C9
:104360004CF915E094F8480090B15B4618EE102A1D
:10437000514604F1840002F021FC04F1840002F0B3
:1043800037FC82B2334604F18401284602F07FFCF8
:10439000206D80076BD50020ADF800000DF1010104
:1043A000E06F02F0FFF8002804BF9DF8010001282B
:1043B0005DD1E06F694602F047F99DF800000028E2
:1043C00055D094F84900401C84F8490004F160017C
:1043D00094F84A0040F0200084F84A00E06F02F0B0
:1043E000F3F894ED180ABDEEC08AB5EE400AF8EE77
:1043F000C80AF1EE10FAACBF30EE600A30EEC00A27
:1044000010EE100A02F042FF0022C44B02F066FFD9
:1044100041EC100B03F033F851EC100B03F03CF8B7
:104420008346387860B1012218EE101A0DF14F0062
:1044300003F0E3F80122594614A803F0DEF816E071
:1044400094F8480098B15B4618EE102A0FF28031BC
:1044500004F1840002F0B2FB04F1840002F0C8FB16
:1044600082B2334604F18401284602F010FC206D2C
:10447000C00652D50020ADF804000DF10501E06E34
:1044800001F05CFB002804BF9DF80500012844D121
:10449000E06E01A901F0B4FB9DF8040000283CD0B7
:1044A00094F84900401C84F8490004F1240194F870
:1044B0004A0040F0010084F84A00E06E01F050FB31
:1044C000387890B1616A04220DF1530003F0D1F8FD
:1044D000A16A04220DF1570003F0CBF8E16A04222F
:1044E0000DF15B0003F0C5F817E094F84800A0B1A7
:1044F000E06AA36A626A0FF24821009004F1840026
:1045000002F05CFB04F1840002F072FB82B23346DD
:1045100004F18401284602F0BAFB206D800652D5D2
:104520000020ADF804000DF10501206F01F048FCFA
:10453000002804BF9DF80500012844D1206F01A97F
:1045400001F0A0FC9DF8040000283CD094F849003C
:10455000401C84F8490004F1300194F84A0040F00E
:10456000020084F84A00206F01F03CFC387890B1DA
:10457000216B04220DF15F0003F07BF8616B0422D4
:104580000DF1630003F075F8A16B04220DF16700D3
:1045900003F06FF817E094F84800A0B1A06B636BCC
:1045A000226B0FF2C011009004F1840002F006FBB0
:1045B00004F1840002F01CFB82B2334604F1840152
:1045C000284602F064FB206D400652D50020ADF86D
:1045D00004000DF10501606F01F0C6FC002804BF66
:1045E0009DF80500012844D1606F01A901F01EFD6E
:1045F0009DF8040000283CD094F84900401C84F841
:10460000490004F13C0194F84A0040F0040084F8A9
:104610004A00606F01F0BAFC387890B1E16B042277
:104620000DF16B0003F025F8216C04220DF16F00F1
:1046300003F01FF8616C04220DF1730003F019F808
:1046400017E094F84800A0B1606C236CE26B0FF2A5
:104650003811009004F1840002F0B0FA04F18400F3
:1046600002F0C6FA82B2334604F18401284602F011
:104670000EFB3878002804BF94F8480000283FF467
:10468000EFAC002000F0CFF9ECE4B0F5005F00D013
:10469000704710B51C4C606E002804BFA06E002847
:1046A00002D1FFF745FC09E0FFF742FCA066A06ECF
:1046B000616E401AB0F5967F0DD9A06E60661648FF
:1046C000007808B1002004E094F84810481E8041AA
:1046D000C00F84F8480010BD00B585B000238DF8E8
:1046E00000008DF801108DF802208DF80330019341
:1046F0000393049300226946034800F073FF00B15E
:10470000FEE705B000BD000088120020441700201D
:104710000028004000000020B8040020000059409C
:10472000FEE7000054696D655374616D703A202591
:10473000643A25643A25642E25640D0A00000000C1
:104740004143435F583A2025642C204143435F593D
:104750003A2025642C204143435F5A3A2025640DBA
:104760000A0000004759525F583A2025642C204720
:1047700059525F593A2025642C204759525F5A3AC2
:104780002025640D0A0000004D41475F583A20255E
:10479000642C204D41475F593A2025642C204D411F
:1047A000475F5A3A2025640D0A00000050524553D5
:1047B000533A2025642E253032640D0A0000000093
:1047C00048554D3A2025642E253032640D0A0000EC
:1047D00054454D503A2025642E253032640D0A0090
:1047E00000B581B00320FFF745FB0F2002F058FF12
:1047F00000F003F8002001B000BD704700B595B08F
:1048000068460021002200230EC006C00FF270117E
:1048100091EC100B80EC100B102005900C920120F5
:104820000B9060200D9002200E9001200F901090B0
:104830002820119002201490072012900420139039
:1048400005A800F063FA08B1FFF76AFF0F20009097
:1048500004210320019000200290039004906846F8
:1048600000F026FD08B1FFF75BFF15B000BD006842
:10487000354A3649904226D3354AD1F80014904241
:1048800008BF082048D0334A904208BF802043D058
:10489000314A904208BF4FF400603DD02F4A904209
:1048A00008BF4FF4004037D02D4A904208BF4FF464
:1048B000002031D02B4A904214BF4FF000604FF4DB
:1048C000000008407047284A0968904205D0274AEE
:1048D000904205D18020084070470820084070476A
:1048E000234A904206D0234A904207D14FF4004019
:1048F000084070474FF40060084070471E4A9042DD
:1049000008D01E4A90420CBF4FF400004FF00060E8
:10491000084070474FF40020084070470068406826
:1049200070471649016000218160C16080210161EA
:104930000021416181612021C1614FF44051016238
:1049400002214160704700008100024000000240E7
:10495000080402401C0402403004024044040240A7
:10496000580402406C040240080002401C0002404F
:104970003000024044000240580002406C000240F7
:104980000000000000000000000000000000000027
:104990000000000000000000000000000000000017
:1049A0000000000000000000000000000000000007
:1049B00000000000000000000000000000000000F7
:1049C00010B586B001A90022002300241CC10CC12F
:1049D00001000AD1DFF8FC100A6842F001020A6007
:1049E000096801F00101009100990FF2F801DFF868
:1049F000E82031F810100191039301210291022166
:104A0000049101A952F82000FFF73CF906B010BD4F
:104A10000FF2D001DFF8C03031F8101053F8200049
:104A20000022FFF701BA0FF2BC01DFF8AC2031F829
:104A3000101052F82000FFF7FCB930B587B00446DB
:104A400001A80022002300252CC00CC020000AD1A0
:104A5000DFF88000026842F004020260006800F0A3
:104A6000040000900098080011D10FF27C0030F88B
:104A700014000190029302200490039301A9DFF82F
:104A80005C0050F82400FFF7FDF807B030BD0129A5
:104A90001DD10FF2540030F814000190039301A9C6
:104AA000DFF83C00029002200490DFF8300050F85C
:104AB0002400FFF7E7F80FF2340030F8144000222A
:104AC0000F2160B2FFF7E3F960B2FFF709FA07B010
:104AD00030BD00004C100240180B00201C0B0020C1
:104AE000000021102000000000200000280000002D
:104AF0002DE9F04F0446824D81B005F17000FFF7BB
:104B0000B6FE002700286FD105F17000FFF706FF01
:104B1000C0F50078B5F8B0601FFA88F8B045AEBFB0
:104B2000A8EB060008F50070801B80B20090B94623
:104B30000098012852DBA819761CB6B290F8B40090
:104B4000B6F5007FA8BF0026F02842D1B5F8B060C6
:104B50004FF0000A0BE081190A1201EBD2525212F7
:104B6000A1EB42265044B6B27F1C1FFA80FA701C9B
:104B7000CA451BDA011200EBD1514912A0EB4121C9
:104B8000A8191FFA81FB90F8B40005EB0B01BFB226
:104B900091F8B410E219121D02F0C7FCC0B200284F
:104BA000D9D1A5F8B0B001B0BDE8F08F011200EB8B
:104BB000D1514912BFB2A0EB41262760B6B2A5F889
:104BC000B060204602F0ECFC18B1012001B0BDE855
:104BD000F08F009809F101098145ACDB0098B0F530
:104BE000807FC8BFA5F8B080002001B0BDE8F08F7D
:104BF00030B581B0044602F0A7FC414D4FF42E7051
:104C00002146284402F06EFC82B24FF42E7029181F
:104C1000284601B0BDE8304041F2883302F037B891
:104C200010B53848364C86B0416841F0010141600A
:104C3000416801F0010100910099416841F00101D2
:104C40004160416801F0010100910099016941F45E
:104C500000310161016901F400310091009901689E
:104C600041F00101016001A9006800F0010000901D
:104C7000009804200190022002900020039002205E
:104C80000490072005904FF09040FEF7FBFF0820AE
:104C9000019001A9072005904FF09040FEF7F2FF28
:104CA00019482060D4F8B40260600020A060E06081
:104CB0002061A0610C206061204601F0B5FF00B1C9
:104CC000FEE704F17000FFF72CFE04F1700002F023
:104CD000FDFC04F170006066C4F8984004F1B40073
:104CE00060654FF400724FF40070A4F8580004F1AE
:104CF000B4010020E066204602F057F806B010BD6F
:104D00000000002048100240004400402DE9F0411E
:104D1000044682B02078DFF8DC57C00640F1B88046
:104D2000A86810F00C0F40F0D2802868800703D5E7
:104D3000A069002800F0C7802868276A00074EBFD6
:104D40002868D5F89400000900F0F000B84248D275
:104D5000A86D0026C00002D502F01AFE0EE0A86D74
:104D600040F08050A865A86D00F080500090009839
:104D700002F00EFEA96D21F08051A965B0F5007F0B
:104D800005D1812F0ED3A12F0BD302260AE0812F4C
:104D900028BF032606D2802F01D1022602E0702F01
:104DA00000D10126DFF854070168C90846EAC101AD
:104DB0000160006800F00700B04240F0848028687D
:104DC00040F0080028602868216A20F0F0000843BD
:104DD00028606868E16920F47F4040EA012068604B
:104DE00047E0286840F00800286000262868216A0B
:104DF00020F0F000084328606868E16920F47F40F3
:104E000040EA01206860276AA86DC00002D502F060
:104E1000BFFD0EE0A86D40F08050A865A86D00F0C1
:104E200080500090009802F0B3FDA96D21F08051F0
:104E3000A965B0F5007F05D1812F0ED3A12F0BD32B
:104E400002260AE0812F28BF032606D2802F01D137
:104E5000022602E0702F00D10126DFF8A0060168CB
:104E6000C90846EAC1010160006800F00700B042CD
:104E700029D100F0D3FAAA68DFF88416C2F303122E
:104E8000895CC840DFF8701608600F2002F008FC4B
:104E90002078C00740F1A680A86800F00C00082820
:104EA00009D0A86800F00C000C2802BFE86800F0E8
:104EB0000300032845D12868800340F1938060688F
:104EC000002840F08F80012002B0BDE8F081A06989
:104ED0000028286823D040F001002860FFF728F858
:104EE00006462868800708D4FFF722F8801B0328AD
:104EF000F7D3032002B0BDE8F081286840F0080035
:104F000028602868216A20F0F0000843286068685B
:104F1000E16920F47F4040EA01206860B8E740087A
:104F200040002860FFF704F8064628688007AFD5E0
:104F3000FEF7FEFF801B0328F7D3032002B0BDE875
:104F4000F081286820F480302860286820F48020D0
:104F50002860FEF7EDFF06462868800308D5FEF7B7
:104F6000E7FF801B6528F7D3032002B0BDE8F0817E
:104F70006068B0F5803F03D1286840F4803010E0CD
:104F8000B0F5A02F286820F480302860286806D16A
:104F900040F480202860286840F4803001E020F44C
:104FA00080202860606870B1FEF7C2FF064628685E
:104FB000800317D4FEF7BCFF801B6528F7D30320BE
:104FC00002B0BDE8F081FEF7B3FF06462868800313
:104FD00008D5FEF7ADFF801B6528F7D3032002B08C
:104FE000BDE8F081207880071CD5A86800F00C008F
:104FF000042809D0A86800F00C000C2802BFE8685B
:1050000000F0030002282AD12868400503D5E06893
:1050100000283FF458AF6868216920F0F85040EA52
:10502000016068602078000755D560690028D5F8D0
:1050300094003CD040F00100C5F89400FEF778FFE2
:105040004FEA0006D5F89400800744D4FEF770FFBD
:10505000801B0328F6D3032002B0BDE8F081E0688E
:105060000028286811D040F480702860FEF760FFA7
:10507000064628684005CED4FEF75AFF801B032859
:10508000F7D3032002B0BDE8F08120F480702860DF
:10509000FEF74EFF064628684005C3D5FEF748FFD9
:1050A000801B0328F7D3032002B0BDE8F08140083D
:1050B0004000C5F89400FEF73BFF0646D5F8940083
:1050C000800708D5FEF734FF801B0328F6D30320A2
:1050D00002B0BDE8F0812078400740F17F80A86DE4
:1050E0000027C00009D4A86D40F08050A8650127B2
:1050F000A86D00F0805000900098DFF80884D8F880
:105100000000C00515D4D8F8000040F48070C8F83D
:105110000000FEF70DFF0646D8F80000C00508D4D1
:10512000FEF706FF801B0328F6D3032002B0BDE87C
:10513000F081A068012804D1D5F8900040F001006A
:105140001EE010B9D5F8900012E00528D5F89000BF
:105150000ED140084000C5F89000D5F8900040F00E
:105160000400C5F89000D5F8900040F0010007E079
:1051700040084000C5F89000D5F8900020F00400E9
:10518000C5F89000A06890B1FEF7D2FE4FEA000685
:1051900041F28938D5F8900080071AD4FEF7C8FE8E
:1051A000801B4045F6D3032002B0BDE8F081FEF736
:1051B000BFFE064641F28938D5F89000800708D531
:1051C000FEF7B6FE801B4045F6D3032002B0BDE8D3
:1051D000F0811FB1A86D20F08050A865606A00289A
:1051E00062D0A96801F00C010C293FF46CAE0228D2
:1051F000286820F0807028603ED1FEF799FE0646B0
:105200002868800108D5FEF793FE801B0328F7D39A
:10521000032002B0BDE8F081E06A216B401E090264
:1052200041EA0010616B090940EA4140A16A084364
:10523000A16B891E0905490D40EA4150E16B891EA9
:10524000090601F07E410843E860286840F080705C
:105250002860E86840F08070E860FEF769FE064666
:105260002868800120D4FEF763FE801B0328F7D353
:10527000032002B0BDE8F081E868DFF88C128008F6
:105280008000E860E8680840E860FEF751FE0646E6
:105290002868800108D5FEF74BFE801B0328F7D352
:1052A000032002B0BDE8F081002002B0BDE8F0812B
:1052B0002DE9F041DFF8446204463068884600F08A
:1052C0000700404509D23068C00848EAC000306095
:1052D000306800F0070040457AD12078DFF814727A
:1052E000800705D5B868A16820F0F0000843B860D1
:1052F0002078C0075DD56068022802D1396889032B
:1053000008E0032802D13968890103E000283968E0
:1053100004D1890704D40120BDE8F081490557D59F
:10532000B968890840EA8100B860FEF701FE0546C9
:10533000606802280ED1B86800F00C00082838D048
:10534000FEF7F6FD401B41F289318842F3D303207A
:10535000BDE8F08103280ED1B86800F00C000C28DD
:1053600027D0FEF7E5FD401B41F289318842F3D397
:105370000320BDE8F08168B9B86810F00C0F18D0B0
:10538000FEF7D6FD401B41F289318842F4D3032059
:10539000BDE8F081B86800F00C00042809D0FEF7E1
:1053A000C7FD401B41F289318842F3D30320BDE899
:1053B000F081306800F0070080450CD23068C008EA
:1053C00048EAC0003060306800F00700404502D075
:1053D0000120BDE8F0812078400705D5B868E16874
:1053E00020F4E0600843B8602078000706D5B8686C
:1053F000216920F4605040EAC100B86000F00EF866
:10540000BA683F49C2F30312895CC8403A49086050
:105410000F2002F045F90020BDE8F08135498B6886
:105420000022002013F00C0F09D08B6803F00C034E
:105430000C2B02BFCB6803F00303012B12D10A68C7
:10544000334B120759BFD1F89420C2F303220A68E4
:10545000C2F3031253F822208B6813F00C0F0ED105
:1054600010460CE08B6803F00C03042B08BF29489E
:1054700005D08B6803F00C03082B08BF26488B6807
:1054800003F00C030C2B20D1C868CB68C3F30213C4
:105490005B1C00F00300022802D0032804D007E0C0
:1054A0001C48B0FBF3F005E01B48B0FBF3F001E053
:1054B000B2FBF3F0CA68C968C1F34161C2F30622C6
:1054C000491C50434900B0FBF1F070470A480F4AAD
:1054D000006812681149C2F30222895CC840704713
:1054E00005480A4A006812680C49C2F3C222895C66
:1054F000C840704700100240200B002000200240EE
:1055000094DA000800700040FFFFEEFE0810024031
:10551000A4DA00080024F40000127A0080DE0008FB
:1055200070B504002BD094F8210020B984F8200035
:10553000204602F035FA022084F82100CA202168B2
:1055400048625320216848622068C168490618D41F
:105550004FF0FF31C16040F2E936FEF7E9FC054645
:105560002068C06840060CD4FEF7E2FC401BB04245
:10557000F6D32168FF204862042084F8210001202E
:1055800070BD2068DFF800248168114081602068C8
:105590008168626823691A43A3691A4311438160D1
:1055A0002168E068086120680169A26841EA024157
:1055B00001612068C16821F08001C1602068C16C70
:1055C00089088900C1642068C16CE26963691A4373
:1055D0001143C164FF2021684862012084F8210042
:1055E000002070BD2DE9F04104460D4694F82000DE
:1055F000012808BF022000F0B280012084F82000BA
:10560000022084F82100002A206880683CD14006EE
:105610005CBF0020E87028780A28014609DBDFF823
:105620006C2380FB0232921002EBD272F62000FB58
:10563000021141EA0210697800230A290A4609DBAF
:10564000DFF8483381FB03639B1003EBD373F62130
:1056500001FB032242EA0311AA7800260A2A134614
:1056600009DBDFF8286382FB0686B61006EBD676E8
:10567000F62202FB06330906C0B2090C41EA0040DB
:1056800043EA0611C9B209E040065CBF0020E87099
:1056900069782878090241EA0040A9780843E97846
:1056A00040EA01462168CA204862532021684862C6
:1056B0002068C168490611D44FF0FF31C16040F243
:1056C000E938FEF735FC07462068C068400605D477
:1056D000FEF72EFCC01B4045F6D32BE02168DFF817
:1056E000B002304008602068816821F48021816028
:1056F00020688168EA682B691A4311438160206839
:10570000C16821F08001C1602068816889061DD4CC
:10571000C16821F0A001C16040F2E936FEF708FC43
:1057200005462068C068800610D4FEF701FC401BC7
:10573000B042F6D32168FF204862042084F821009B
:10574000002084F820000120BDE8F0812168FF20BE
:105750004862012084F82100002084F82000BDE880
:10576000F0810068836A4B600369C3F30E038B60AA
:105770000068DFF81C321840030C03F03F0C81F87E
:1057800000C088704FEA102C03F0400081F801C07F
:10579000C870D2B90A78100900EB800302F00F003C
:1057A00000EB430008704A78100900EB800302F018
:1057B0000F0000EB430048708A78100900EB80036B
:1057C00002F00F0000EB4300887000207047F0B536
:1057D000044681B094F82000012808BF022000F0A0
:1057E000A380012084F82000022084F82100002AF0
:1057F00048785ED1C20603D500F0EF000A30487049
:105800000023C8780A28024609DBDFF8803180FBD4
:1058100003539B1003EBD373F62000FB032242EAF1
:1058200003104A7800250A2A134609DBDFF85C5189
:1058300082FB0565AD1005EBD575F62202FB05333D
:1058400043EA05128B7800260A2B1D4609DBDFF898
:105850003C6183FB0676B61006EBD676F62303FB97
:1058600006551206C0B2120C42EA004045EA061282
:10587000D2B20978104340EA41352168CA20486213
:105880005320216848622068C168490617D44FF048
:10589000FF31C16040F2E936FEF74AFB0746206857
:1058A000C06840060BD4FEF743FBC01BB042F6D3E2
:1058B00025E0CA78000240EA02408A78D9E72168E8
:1058C000DFF8D000284048602068C16821F08001DE
:1058D000C1602068816889061DD4C16821F0A001DB
:1058E000C16040F2E936FEF723FB05462068C06838
:1058F000800610D4FEF71CFB401BB042F6D3216893
:10590000FF204862042084F82100002084F8200051
:1059100001B00120F0BD2168FF204862012084F819
:105920002100002084F8200001B0F0BD0068DFF8FD
:10593000643040681840030CCB708870030A03F091
:105940001F03400B4B7000F007000870D2B9CA78F3
:10595000100900EB800302F00F0000EB4300C87059
:105960004A78100900EB800302F00F0000EB4300BF
:1059700048708A78100900EB800302F00F0000EBFA
:105980004300887000207047BFFF8FFF6766666620
:105990007F7F7F003FFFFF0010B50C460021216094
:1059A00068B10128204611D000F058F8012804D130
:1059B000204600F011F801280CD0002010BD204630
:1059C00000F00AF80128F8D1012010BD00F046F8D7
:1059D0000128F2D1012010BD30B5434D0446E878CE
:1059E000012881B038D0FDF781FC012834D068202F
:1059F0002870D620687000206880287101206871A6
:105A000005F12800A8603948E8600020286138487E
:105A1000E86305F13800A8620020E8622560E868C4
:105A20000168080008D100200021002207C503C535
:105A3000206001B0012030BD28468847012808D1E8
:105A40002068142101F0FEFF0020206001B0012039
:105A500030BDFDF7A1FC002001B030BD30B5224DB6
:105A60000446E87D012881B03BD0FDF73FFC0128CA
:105A700037D069202875D42068750120A8750020CA
:105A8000E87528760120687605F13000E86119484C
:105A900028621948686205F14000286300206863A5
:105AA00005F114002060286A0168080005F114005F
:105AB00008D10021002200230EC006C02160012071
:105AC00001B030BD8847012808D12068142101F0B9
:105AD000B9FF0020206001B0012030BDFDF75EFC61
