:020000040800F2
:100000009007002021590008615800086358000833
:1000100045590008495900084D59000800000000E2
:10002000000000000000000000000000515900081E
:10003000655800080000000055590008675800087E
:10004000595900085D5900086159000865590008B0
:10005000695900086D590008715900087559000860
:10006000795900087D590008815900088559000810
:10007000895900088D5900089159000895590008C0
:10008000995900089D590008A1590008A559000870
:10009000A9590008AD590008B1590008B559000820
:1000A000B9590008BD590008C1590008C5590008D0
:1000B000C9590008CD590008D1590008D559000880
:1000C000D9590008DD590008E1590008E559000830
:1000D000E9590008ED590008F1590008F5590008E0
:1000E0006B580008F9590008FD590008015A00082A
:1000F000055A000800000000095A00080D5A0008BF
:10010000115A0008155A0008195A00081D5A00080B
:10011000215A0008255A0008295A0008000000004A
:100120002D5A000830B5044681B0A0680068056803
:100130006878B0BB8DF800006946204600F09FFD4E
:1001400001282BD09DF800002178884226D1DFF8C5
:10015000880968600121204600F09EFD01281DD01D
:100160000021204600F0B8FD012817D000212046CC
:1001700000F0E6FD012811D00021204600F001FE2C
:1001800001280BD00221204600F01BFE012805D0DB
:100190000021204600F075FE012802D1012001B0A7
:1001A00030BD01202870E07001B0002030BD50B596
:1001B000044681B0A06800680668707860B920794C
:1001C00050B1F07828B90021204600F085FD0128C3
:1001D00005D00020B070207100203070E07001B0B8
:1001E00050BD30B5044681B0A0680068056820792C
:1001F000012846D06868DFF8E41800F0DBFF38BF5C
:10020000102114D3DFF8D81800F0D4FF38BF202114
:100210000DD3DFF8D01800F0CDFF38BF302106D362
:10022000DFF8C41800F0C6FF34BF4021502120463B
:1002300000F052FD01282AD06946204600F06CFDEE
:10024000012824D09DF80000B8B1102813D0202830
:100250000ED0302809D0402804D0502814D1DFF81F
:100260008C080AE0DFF8880807E0DFF86C0804E093
:10027000DFF8800801E04FF07E5068600120A87030
:100280002071002001B030BDDFF86C0868600120EB
:1002900001B030BD30B5044681B0A0680068056883
:1002A000207950B1E87828B90021204600F014FDEB
:1002B000012802D00020A870207101B030BD00B527
:1002C00081B000F0DCFC012818BF002001B000BDA7
:1002D00010B582B0044600208DF800006946204623
:1002E00000F0CDFC012806D09DF80000217888425E
:1002F00014BF0120002002B010BD10B582B00C4622
:1003000000210091694600F092FE012808D0009873
:1003100000F062FFDFF8E41700F076FF20600020B5
:1003200002B010BD10B582B00C46694600F0F4FC76
:1003300001282ED09DF8000018B310281FD02028C7
:1003400017D030280FD0402807D050281DD1DFF813
:100350009C07206002B0002010BDDFF894072060E9
:1003600002B0002010BDDFF87007206002B000204E
:1003700010BDDFF88007206002B0002010BD4FF0F4
:100380007E50206002B0002010BDDFF86C072060B6
:10039000012002B010BD000030B5054681B0A8684C
:1003A00000680468287901283FD104293AD8DFE899
:1003B00001F00B0907050300502106E0402104E08D
:1003C000302102E0202100E01021284600F084FCCA
:1003D000012827D06946284600F09EFC012821D03C
:1003E0009DF8000058B1102816D0202811D03028D0
:1003F0000CD0402807D0502811D1DFF8F0066060FB
:1004000001B0002030BDDFF8E806F8E7DFF8C806E5
:10041000F5E7DFF8E006F2E74FF07E50EFE7DFF8B0
:10042000D8066060012001B030BD0429FAD8DFE8A9
:1004300001F00E0B08050400F4E7DEE7DFF8B00674
:10044000DDE7DFF89406DAE7DFF8A806D7E74FF034
:100450007E50D4E730B5054681B00846A9680968E2
:100460002A790C68DFF87416012A49D100F0A2FE3F
:1004700038BF102114D3DFF8681600F09BFE38BF98
:1004800020210DD3DFF85C1600F094FE38BF302138
:1004900006D3DFF8541600F08DFE34BF4021502102
:1004A000284600F019FC012827D06946284600F0AC
:1004B00033FC012821D09DF8000058B1102816D037
:1004C000202811D030280CD0402807D0502811D136
:1004D000DFF81806606001B0002030BDDFF81006BC
:1004E000F8E7DFF8F405F5E7DFF80806F2E74FF084
:1004F0007E50EFE7DFF800066060012001B030BDFC
:1005000000F058FE38BF4FF07E50E3D3DFF8D0152F
:1005100000F050FE38BFDFF8DC05DBD3DFF8C41590
:1005200000F048FE38BFDFF8B005D3D3DFF8B815C8
:1005300000F040FE2CBFDFF8B405DFF8B405C9E7D2
:1005400000B5134681B0012200F061FB012818BFFD
:10055000002001B000BD00B581B06B468DF80020D1
:10056000012200F070FB012818BF002001B000BD7F
:1005700010B582B00C46694600F007FD012803D093
:100580009DF801002070002002B010BD30B5044677
:1005900081B0A068006805682878B0BB8DF80000BD
:1005A0006946204600F06BFB01282BD09DF8000027
:1005B0002178884226D1DFF8200568600121204695
:1005C00000F06AFB01281DD00021204600F084FBCA
:1005D000012817D00021204600F0B2FB012811D0DD
:1005E0000021204600F0CDFB01280BD0022120463F
:1005F00000F0E7FB012805D00021204600F041FC77
:10060000012802D1012001B030BD01206870E070E6
:1006100001B0002030BD50B5044681B0A06800682C
:100620000668307860B9207950B1B07828B90021D7
:10063000204600F051FB012805D00020F070207109
:1006400000207070E07001B050BD30B5044681B03C
:10065000A068006805682079012846D06868DFF83E
:100660007C1400F0A7FD38BF102114D3DFF87014FC
:1006700000F0A0FD38BF20210DD3DFF8681400F092
:1006800099FD38BF302106D3DFF85C1400F092FDED
:1006900034BF40215021204600F01EFB01282AD003
:1006A0006946204600F038FB012824D09DF8000060
:1006B000B8B1102813D020280ED0302809D04028F7
:1006C00004D0502814D1DFF824040AE0DFF8200415
:1006D00007E0DFF8040404E0DFF8180401E04FF05D
:1006E0007E5068600120E8702071002001B030BDAC
:1006F000DFF804046860012001B030BD30B5044665
:1007000081B0A06800680568207950B1A87828B940
:100710000021204600F0E0FA012802D00020E87015
:10072000207101B030BD00B581B000F0A8FA0128F9
:1007300018BF002001B000BD10B582B004460020F3
:100740008DF800006946204600F099FA012806D08D
:100750009DF800002178884214BF0120002002B0DB
:1007600010BD10B582B00C460021ADF800106946EE
:1007700000F072FC012809D0BDF9000000F02CFD4A
:10078000DFF8701300F040FD2060002002B010BDC3
:1007900010B582B00C46694600F0BEFA01282CD094
:1007A0009DF8000010B310281ED0202816D0302845
:1007B0000FD0402807D050281CD1DFF8300320602C
:1007C00002B0002010BDDFF82803206002B0002036
:1007D00010BDC148206002B0002010BDDFF8140336
:1007E000206002B0002010BD4FF07E50206002B0AB
:1007F000002010BDC0482060012002B010BD0000E4
:1008000030B5054681B0A8680068046828790128D9
:100810003AD1042935D8DFE801F00B0907050300B8
:10082000502106E0402104E0302102E0202100E0D8
:100830001021284600F050FA012822D069462846A7
:1008400000F06AFA01281CD09DF8000050B1102871
:1008500012D020280ED030280AD0402806D05028A8
:100860000DD1A248606001B0002030BDA048F9E77A
:100870009948F7E79F48F5E74FF07E50F2E79E482A
:100880006060012001B030BD0429FAD8DFE801F032
:100890000B0907050400F4E7E3E79548E2E78E4813
:1008A000E0E79448DEE74FF07E50DBE730B50546E1
:1008B00081B00846A96809682A790C688749012A25
:1008C00041D100F077FC38BF102111D3844900F0EA
:1008D00071FC38BF20210BD3824900F06BFC38BF7C
:1008E000302105D3804900F065FC34BF4021502100
:1008F000284600F0F1F9012822D06946284600F088
:100900000BFA01281CD09DF8000050B1102812D01D
:1009100020280ED030280AD0402806D050280DD1EB
:100920007248606001B0002030BD7148F9E76A4844
:10093000F7E77048F5E74FF07E50F2E76E486060E9
:10094000012001B030BD00F035FC38BF4FF07E50C3
:10095000E7D3634900F02EFC38BF6648E1D3614914
:1009600000F028FC38BF5C48DBD35F4900F022FC74
:100970002CBF5E485E48D4E700B5134681B0012223
:1009800000F045F9012818BF002001B000BD00B5F6
:1009900081B06B468DF80020012200F054F9012847
:1009A00018BF002001B000BD10B582B00C466946EA
:1009B00000F0EBFA012803D09DF800002070002021
:1009C00002B010BD10B582B00C46694600F0C5FB00
:1009D000012803D09DF801002070002002B010BD56
:1009E00010B582B00C46694600F0B7FB012803D071
:1009F0009DF802002070002002B010BD10B582B03A
:100A00000C46694600F0A9FB012803D09DF80300BD
:100A10002070002002B010BD10B582B00C466946AF
:100A200000F09BFB012803D09DF8040020700020FB
:100A300002B010BD00B5012981B006D800F000FA5F
:100A4000012818BF002001B000BD012001B000BD89
:100A500000B5012981B006D800F0D1F9012818BFEE
:100A6000002001B000BD012001B000BD10B582B072
:100A70000C46694600F071FB012803D09DF8000088
:100A80002070002002B010BD70B582B00446002076
:100A900001900D46164601A9204600F0C8FA01282B
:100AA00018D0019800F098FB144900F0ADFB2860C5
:100AB00069460020ADF80000204600F0CDFA01287C
:100AC00008D0BDF9000000F087FB0A4900F09CFB4C
:100AD0003060002002B070BD0000C8410100803FBE
:100AE000010020410100C841010048420000964237
:100AF0000000484200002041000080BF0000C842C2
:100B000010B582B00C46694600F0E3FA012803D024
:100B10009DF800002070002002B010BD00B50A0052
:100B200018BF202981B007D0402918BF602903D001
:100B3000802918BFE02906D100F0ABFA012818BFC0
:100B4000002001B000BD012001B000BD00B581B0A2
:100B500000F0F3FA012818BF002001B000BD00B575
:100B600081B000F0CAFA012818BF002001B000BD12
:100B700000B5012981B006D800F062F9012818BF3C
:100B8000002001B000BD012001B000BD00B581B062
:100B900029B1022913D00AD3012001B000BD0121DF
:100BA00000F0B1F901280FD0002001B000BD0121F3
:100BB00000F0CAF90128F7D1012001B000BD0121E0
:100BC00000F080F90128EFD1012001B000BD00B58F
:100BD00081B029B1022912D009D3012001B000BD92
:100BE00000F091F901280FD0002001B000BD0021D4
:100BF00000F0AAF90128F7D1012001B000BD0021C1
:100C000000F060F90128EFD1012001B000BD2DE90D
:100C1000F0410446904600265FEA08000D461F4654
:100C20000ED0711901233A46C9B2204600F0FEFBEE
:100C300010B10120BDE8F081761C7F1C4645F0DB39
:100C40000020BDE8F0812DE9F041044690460026E1
:100C50005FEA08000D461F460ED0711901233A467F
:100C6000C9B2204600F0CBFB10B10120BDE8F081F5
:100C7000761C7F1C4645F0DB0020BDE8F08100B506
:100C80000A4681B001230F2100F0D0FB401E8041B5
:100C9000C043C00F01B000BD30B581B00D46044661
:100CA00001236A461A2100F0C1FB10B1012001B0F6
:100CB00030BD9DF8000000F0FE0028438DF80000D4
:100CC00001236A461A21204600F099FB401E80410C
:100CD000C043C00F01B030BD30B581B00D460446F1
:100CE00001236A46102100F0A1FB10B1012001B0E0
:100CF00030BD9DF8000000F08F0028438DF8000003
:100D000001236A461021204600F079FB401E8041F5
:100D1000C043C00F01B030BD10B582B00C460123F6
:100D20006A46102100F082FB38B99DF8000000F0FF
:100D30007000207002B0002010BD012002B010BD74
:100D400030B581B00D46044601236A46102100F0FB
:100D50006DFB10B1012001B030BD9DF8000000F026
:100D6000F70040EAC5008DF8000001236A46102113
:100D7000204600F044FB401E8041C043C00F01B03C
:100D800030BD30B581B00D46044601236A461021BE
:100D900000F04CFB10B1012001B030BD9DF8000007
:100DA00000F0FB0028438DF8000001236A46102163
:100DB000204600F024FB401E8041C043C00F01B01C
:100DC00030BD30B581B00D46044601236A4610217E
:100DD00000F02CFB10B1012001B030BD9DF80000E7
:100DE00000F0FD0028438DF8000001236A46102121
:100DF000204600F004FB00B1002001B030BD30B54A
:100E000081B00D46044601236A46112100F00EFB15
:100E100010B1012001B030BD9DF8000000F0BF000E
:100E200040EA85108DF8000001236A461121204612
:100E300000F0E5FA401E8041C043C00F01B030BD54
:100E400030B581B00D46044601236A46112100F0F9
:100E5000EDFA10B1012001B030BD9DF8000000F0A6
:100E6000DF0040EA45108DF8000001236A46112199
:100E7000204600F0C4FA401E8041C043C00F01B0BC
:100E800030BD30B581B00D46044601236A461121BC
:100E900000F0CCFA10B1012001B030BD9DF8000087
:100EA00000F0EF0040EA05108DF8000001236A46CB
:100EB0001121204600F0A3FA401E8041C043C00F1C
:100EC00001B030BD30B581B00D46044601236A46FD
:100ED000122100F0ABFA10B1012001B030BD9DF835
:100EE000000000F0F70040EAC5008DF80000012383
:100EF0006A461221204600F082FA401E8041C0431B
:100F0000C00F01B030BD30B581B00D46044601239D
:100F10006A46122100F08AFA10B1012001B030BDFA
:100F20009DF8000000F0EF0040EA05108DF8000089
:100F300001236A461221204600F061FA401E8041DA
:100F4000C043C00F01B030BD30B581B00D4604467E
:100F500001236A46122100F069FA10B1012001B0A4
:100F600030BD9DF8000000F0DF0040EA45108DF82C
:100F7000000001236A461221204600F040FA401E7C
:100F80008041C043C00F01B030BD10B582B00C46E7
:100F900001236A46272100F049FAB0B99DF8000004
:100FA00000F0010060709DF8000000F00200207069
:100FB0009DF80000C0F34010A0709DF80000C0F341
:100FC0000010E07002B0002010BD012002B010BD82
:100FD00030B581B00C46054601236A46282100F051
:100FE00025FA78B901230DF101022921284600F0E4
:100FF0001DFA38B901230DF102022A21284600F01A
:1010000015FA10B1012001B030BD9DF800109DF817
:1010100001209DF8020041EA022141EA004001025C
:1010200048BF40F07F40206001B0002030BD10B5C7
:1010300082B00C466946FFF7CBFF10B1012002B029
:1010400010BD009864214843C11200EB11500013F9
:10105000206002B0002010BD10B582B00C466B4677
:1010600002222B21FFF7D3FD10B1012002B010BDE9
:101070009DF801009DF8001001EB002000B200EB8C
:1010800080014800642190FBF1F0208002B0002034
:1010900010BD30B581B00D46044601236A461421C7
:1010A00000F0C4F910B1012001B030BD9DF800007E
:1010B00000F01F0028438DF8000001236A46142128
:1010C000204600F09CF9401E8041C043C00F01B093
:1010D00030BD10B582B00C4601236A46142100F0E1
:1010E000A5F938B99DF8000000F0E000207002B0CA
:1010F000002010BD012002B010BD30B581B00D46FA
:10110000044601236A46142100F090F910B1012031
:1011100001B030BD9DF8000000F0E00028438DF8DC
:10112000000001236A461421204600F068F9401EA1
:101130008041C043C00F01B030BD10B50C46012343
:101140002246142100F072F928B9207800F01F001F
:101150002070002010BD012010BD10B582B00C46DB
:1011600001236A46262100F061F9B8B99DF8000014
:10117000C00920719DF80000C0F38010E0709DF858
:10118000000000F03F00411E89412070C90F6170CE
:10119000207820280CBF0120002002E0012002B0AE
:1011A00010BDA07002B0002010BD0268531C036087
:1011B000117070474FF0807C1CEB400F94BF1CEB0C
:1011C000410F05E040EA010C5FEA4C0C01D2884275
:1011D000704718BF81427047002840F10780F446ED
:1011E000404200F003F850F0004060470AD0B0FAE7
:1011F00080F18840D1F19D01C905020672F10042DB
:1012000041EB10207047000010B5FF2313EAD054C3
:101210001DBF13EAD1529C429A4239E0A41ADA0760
:1012200080EA0103134042EA012142EA0020421A07
:101230003CBF641E01EB4202090AB2FBF1FE01FB56
:101240001E221202B2FBF1F001FB10226EF30F20FE
:101250001202B2FBF1FE4EEA00207F3406DDFE2CC6
:1012600024DA53EA500050EBC45010BDD4F102040C
:1012700001FB1E2240F08071192C1DDC21FA04F0C4
:10128000C4F12004A140114371F10042584110BD46
:101290009C421ABF03EAD1529A420FE080EA010E43
:1012A0000EF00043400004D0490016D143F0FF4047
:1012B00010BD490008BFD343180010BD9C4205D1A2
:1012C000D21AF7D001F00041484010BD4A0212BFC7
:1012D0000846484000F0004010BD4AB90902B1FA82
:1012E00081F2914044B1A418C00140F000409EE753
:1012F000C90141F0004152420002B0FA80F4A0401E
:10130000141B94E730B5814C87B0204600F080FD77
:10131000002847D17E487F4D606001A90020A06071
:101320003320E0604FF4804020617B482060686893
:1013300040F002006860686800F0020000900098C9
:101340004FF440700190122002900220049000207F
:10135000039004200590714800F05EFDE86840F4B9
:101360000010E8600022E86800F4001000900021FE
:101370000098286840F400102860286820F40010C5
:1013800028601F2000F045FE1F2000F06BFE0022A9
:101390000021202000F03DFE202000F063FE2046CA
:1013A00000F0C2F8204600F033FD20280CBF0020DA
:1013B000012007B030BD00B5594887B0016841F041
:1013C0000201016001A9006800F00200009000988D
:1013D0004FF4806001905348029002200490002056
:1013E00003904E4800F018FD00220021282000F054
:1013F00010FE282000F036FE002007B000BD30B5FA
:1014000083B04FF48055009202950A460193012360
:1014100041783E4C204600F02DF928B1204600F0DE
:101420000FF900F01AF8012003B030BD30B583B0D9
:101430004FF48055009202950A46019301234178AA
:10144000324C204600F08BFA28B1204600F0F8F824
:1014500000F003F8012003B030BD30B52B4C87B04D
:10146000204600F0D5FC002847D12948294D60606E
:1014700001A90020A0603320E0604FF4804020618B
:1014800025482060686840F002006860686800F0E5
:101490000200009000984FF44070019012200290DA
:1014A0000220049000200390042005901B4800F0C7
:1014B000B3FCE86840F40010E8600022E86800F43B
:1014C0000010009000210098286840F40010286067
:1014D000286820F4001028601F2000F09AFD1F20CB
:1014E00000F0C0FD00220021202000F092FD20200D
:1014F00000F0B8FD204600F017F8204600F088FC08
:1015000020280CBF0020012007B030BD300C002087
:10151000801A0600183802400054004000040240BF
:101520001C3802400000111070B504000CD094F873
:10153000350020B984F83400204600F06CFC01F03E
:1015400001F93A49884201D2012070BD242184F872
:10155000351021680A68520852000A603449B0FB0D
:10156000F1F221684B689B0942EA83134B603149D1
:1015700023681D6A66688E4206D34FF496767243DE
:101580004FF47A76B2FBF6F2521CAD0942EA8512AC
:101590001A622268D36965688D4208D26900B0FB7F
:1015A000F1F0C0F30B01042913D2042011E0A1686B
:1015B00021B905EB4501B0FBF1F005E019216943C4
:1015C000B0FBF1F040F4804001050CBF012040F475
:1015D0000040194919400843D06120680168E26958
:1015E00021F0C0011143226A114301602068134AAF
:1015F0008168114022691143E268114381602068CB
:10160000C168A2696369090A1A4342EA0121C160FB
:101610002068016841F0010101600020A0632020E2
:1016200084F83500002084F8360070BD80841E00E8
:1016300040420F00A18601000030FFFF007CFFFF49
:1016400010B5040001D1012010BD242084F835001C
:1016500020680168490849000160204601F0A2F8AD
:101660000020A06384F8350084F8360084F8340044
:1016700010BD00002DE9F04F054681B095F835000A
:1016800020288A46164699461FD1DDF82880B8F1F1
:10169000000F02D00B9C200003D1012001B0BDE857
:1016A000F08F01F081F8074642F2117B28688169CA
:1016B00089070ED501F078F8C01B5845F6D32020D5
:1016C00085F83500002085F83400022001B0BDE81F
:1016D000F08F95F834100129F7D0012185F83410E6
:1016E000016821F400610160212085F83500402067
:1016F00085F836000020A8632868016841F48071ED
:10170000016001F051F80C9F834628684169C907C0
:101710001AD417F1010FF8D02FB101F045F8A0EB62
:101720000B008742F1D2202085F83500002085F893
:101730003400A86B042840F0AE80002085F8340007
:1017400001B00120BDE8F08F0AF0FE01016101F057
:101750002BF8824628684169890741691ED44905EA
:101760000AD5016841F4007101606FF48060296856
:1017700048610420A86309E017F1010FEAD02FB1F6
:1017800001F012F8A0EB0A008742E3D2202085F88E
:101790003500002085F83400A86BCAE70091806905
:1017A0000090009801F000F8824629684869000618
:1017B00024D44869400513D56FF480604861042043
:1017C000A863202085F83500002085F83400A86B38
:1017D0000428AED12868016841F400710160A8E7CF
:1017E00017F1010FE1D02FB100F0DEFFA0EB0A00EE
:1017F0008742DAD2A86B40F02000E1E7B9F1010F8F
:1018000025D0300A086100F0CFFF81462868416981
:1018100009061CD44169490504D56FF48061416112
:1018200004200CE017F1010FF0D02FB100F0BCFF45
:10183000A0EB09008742E9D2A86B40F02000A86322
:10184000202085F83500002085F83400BFE728689F
:10185000F6B2066100F0A8FF06462868416909064D
:101860002DD4416949051DD56FF480614161042083
:10187000A863202085F83500002085F83400A86B87
:1018800004280BD12868016841F40071016001202F
:1018900001B0BDE8F08F002085F83400032001B0CE
:1018A000BDE8F08F17F1010FD7D027B100F07CFF12
:1018B000801B8742D1D2A86B40F02000D8E718F8EF
:1018C000011B0161641E28684169490723D4A0B245
:1018D0000028BFD100F068FF044628684169090666
:1018E0002ED4416949051ED56FF480614161042001
:1018F000A863202085F83500002085F83400A86B07
:101900000428CBD12868016841F4007101600120EE
:1019100001B0BDE8F08FA1B20029DBD018F8011B9F
:101920000161641ED3E717F1010FD6D027B100F093
:101930003BFF001B8742D0D2A86B40F02000D7E7C6
:10194000016841F400710160202085F83500002015
:1019500085F8360085F8340001B0BDE8F08F2DE938
:10196000F04F054681B095F8350020280E46924686
:1019700098461FD1DDF82890B9F1000F02D00B9CDA
:10198000200003D1012001B0BDE8F08F00F00CFF72
:10199000074642F2117B2868816989070ED500F05D
:1019A00003FFC01B5845F6D3202085F835000020E2
:1019B00085F83400022001B0BDE8F08F95F83410AE
:1019C0000129F7D0012185F83410016821F4006164
:1019D0000160222085F83500402085F8360000207F
:1019E000A8632868016841F4806101602868016883
:1019F00041F48071016000F0D7FE0C9F8346286897
:101A00004169C9070CD417F1010FF8D0002F00F07D
:101A1000C78000F0C9FEA0EB0B008742EFD2BFE009
:101A200006F0FE01016100F0BFFE834628684169AF
:101A3000890741691DD449050AD5016841F400713F
:101A400001606FF48060296848610420A86309E0A0
:101A500017F1010FEAD02FB100F0A6FEA0EB0B00AA
:101A60008742E3D2202085F83500002085F8340035
:101A7000BBE0009180690090009800F095FE8346DD
:101A80002968486900061CD4486940050BD56FF4E5
:101A9000806048610420A863202085F8350000207C
:101AA00085F834005EE017F1010FE9D02FB100F0A6
:101AB0007BFEA0EB0B008742E2D2A86B40F0200037
:101AC000E9E7B8F1010F26D04FEA1A20086100F0CB
:101AD0006BFE80462868416909061CD441694905A6
:101AE00004D56FF48061416104200CE017F1010F0F
:101AF000F0D02FB100F058FEA0EB08008742E9D2E9
:101B0000A86B40F02000A863202085F83500002055
:101B100085F8340026E028685FFA8AF1016100F058
:101B200043FE824628684169090624D44169490573
:101B300004D56FF48061416104200CE017F1010FBE
:101B4000F0D02FB100F030FEA0EB0A008742E9D2BE
:101B5000A86B40F02000A863202085F83500002005
:101B600085F83400A86B042840D12868016841F446
:101B7000007101603AE0016841F48071016000F099
:101B800013FE824628684169C90710D417F1010F76
:101B9000F8D02FB100F008FEA0EB0A008742F1D286
:101BA000202085F83500002085F834001EE046F03E
:101BB0000101C9B2016100F0F7FD064628684169DC
:101BC000890728D4416949051AD5016841F4007193
:101BD00001606FF48060296848610420A8632020B8
:101BE00085F83500002085F83400A86BA86B042820
:101BF00022D1002085F8340001B00120BDE8F08F2B
:101C000017F1010FDAD0002FE9D000F0CDFD801BD5
:101C10008742D3D2E3E7012C15D1016821F480611A
:101C2000016028684169009181690091009901680B
:101C300041F40071016017E0002085F8340001B024
:101C40000320BDE8F08F022C09D1016821F48061E6
:101C500001602868016841F40061016028684169F9
:101C60000091806900900098A4B2042C80F29B80BF
:101C7000012C38D100F098FD0646286841694906D4
:101C80001FD44169C90612D56FF0100141610020CF
:101C9000A863202085F83500002085F83400A86B63
:101CA00020287FF46FAE032001B0BDE8F08F27B18C
:101CB00000F07AFD801B8742DFD2A86B40F0200045
:101CC000E6E7006909F8010B0024A0B20028CBD197
:101CD000202085F83500002085F8360085F834008E
:101CE00001B0BDE8F08F022C1DD100F05DFD06466D
:101CF0002868416949070CD417F1010FF8D027B1C2
:101D000000F052FD801B8742F2D2202085F835007A
:101D100092E7016841F4007101602868006909F8E0
:101D2000010B2868CDE700F03FFD064628684169B1
:101D300049070CD417F1010FF8D027B100F034FD9A
:101D4000801B8742F2D2202085F8350074E70168B5
:101D500021F4806101602868006989F8000000F0C2
:101D600023FD06462868416949070CD417F1010F85
:101D7000F8D027B100F018FD801B8742F2D2202056
:101D800085F8350058E7016841F400710160E41EF0
:101D90002868006989F801002868006989F802004C
:101DA00009F1030991E700F0FFFC06462868416944
:101DB00049061FD44169C90612D56FF0100141616F
:101DC0000020A863202085F83500002085F8340025
:101DD000A86B20287FF4D6AD032001B0BDE8F08FBA
:101DE00027B100F0E1FC801B8742DFD2A86B40F0F6
:101DF0002000E6E7006909F8010B641E28684169C4
:101E000049077FF562AF006909F8010B641E5CE7C2
:101E100090F83500704770472DE9F04F81B00C689D
:101E20006A4BDFF8AC81DFF8AC910022002C4FF058
:101E30000F0A4FF0010B00F0B1800C680BFA02FCA6
:101E40001CEA040E00F0A5804C68022C18BF122C6E
:101E50000ED1D40800EB84049500266A05F01C0519
:101E60000AFA05F7BE430F6907FA05F535432562FF
:101E70005400032506680F79A540ED4307F00307DA
:101E80002E40A7403E4306604E68012E18BF022E2A
:101E900003D0112E18BF122E0ED18668CF682E40A7
:101EA000A7403E438660466826EA0C074E68C6F3A4
:101EB000001696403E434660C6682E408D6805FA7F
:101EC00004F43443C4604C68E40062D5D9F800409F
:101ED00044F00104C9F800404FEA920CD9F80050D0
:101EE00005F0010400949500009C58F82C6005F062
:101EF0000C040AFA04F526EA0505374EB04208BF7D
:101F000000261DD0354EB04208BF012618D0344EF1
:101F1000B04208BF022613D0324EB04208BF03269B
:101F20000ED0314EB04208BF042609D02F4EB04229
:101F300008BF052604D02E4EB0420CBF0626072649
:101F400006FA04F42C4348F82C406FEA0E061C688D
:101F50004D683440ED0348BF4EEA04041C605C68E1
:101F60004D683440AD0348BF4EEA04045C609C6891
:101F70004D683440ED0248BF4EEA04049C60DC68C2
:101F800006EA040C4C68A40248BF4EEA0C0CC3F8E5
:101F90000CC0521C0C68D4407FF44FAF01B0BDE8B8
:101FA000F08F000000690840401E8041C043C00F10
:101FB000704702B90904816170470E4A13680342F1
:101FC0001CBF106000F08BBE704700000004014091
:101FD0000800014020380240000002400004024096
:101FE00000080240000C02400010024000140240B1
:101FF000001802401404014027490A684FF6FF0305
:1020000000021A4000F4E0601043244A10430860C4
:10201000704730B4204B1B68C3F30223C3F107049D
:10202000052C28BF04241D1D072D34BF0023DB1EF3
:10203000012505FA04F4641E2140994005FA03F3D2
:102040005B1E1A4011430901002807D5144A00F00D
:102050000F00104400F8041C30BC7047114A1154A2
:1020600030BC7047012100F01F0291400E4A400928
:1020700042F820107047401EB0F1807F01D301204C
:1020800070470A494860F02081F8130D00208860ED
:1020900007200860002070470CED00E00000FA0502
:1020A00018ED00E000E400E000E100E010E000E0F6
:1020B000F0B5044681B02078DFF8B056C00752D59D
:1020C000A86800F00C00082807D0A86800F00C00F1
:1020D0000C280DD1A868C0030AD52868C0F3404079
:1020E000002840D0606800283DD1012001B0F0BD3B
:1020F0006068012803D1286840F4803012E008B9F4
:10210000286809E00528286806D140F48020286066
:10211000286840F4803005E020F48030286028688A
:1021200020F480202860606870B100F03DFB064616
:102130002868C0F34040B0B900F036FB801B65282A
:10214000F6D3032001B0F0BD00F02EFB0646286850
:10215000C0F3404038B100F027FB801B6528F6D360
:10216000032001B0F0BD207880071BD5A86800F0DF
:102170000C00042807D0A86800F00C000C2832D10D
:10218000A868C0032FD42868C0F3400000281CBFF3
:10219000E0680128A9D16868216920F4F85040EA74
:1021A000012068602078C00640F1C180A86810F066
:1021B0000C0F40F0D7802868C0F3402010B1A06910
:1021C000002892D0266A686800F46040B04269D264
:1021D000A868002710F0F00F48D1686AC00029D520
:1021E00000F0A4FE35E0E068DFF8887588B10120D2
:1021F000386000F0D9FA06462868C0F3400000288D
:10220000C9D100F0D1FA801B0328F5D3032001B017
:10221000F0BD386000F0C8FA06462868C0F34000F8
:102220000028BFD000F0C0FA801B0328F5D303209C
:1022300001B0F0BD686A40F080506862686A00F0E2
:1022400080500090009800F071FE696A21F0805182
:102250006962B0F5C05F08BFB6F5404F06D1D5F84A
:10226000000440F004000127C5F80004D5F800047C
:10227000400847EA4000C5F80004D5F8000400F023
:102280000100B8427FF431AF6868216A20F46040F1
:10229000084368606868E16920F07F4040EA0160B7
:1022A000686041E0686820F460403043686000275F
:1022B0006868E16920F07F4040EA01606860266A52
:1022C000A86810F0F00F21D1686AC00002D500F0B4
:1022D0002DFE0EE0686A40F080506862686A00F087
:1022E00080500090009800F021FE696A21F0805132
:1022F0006962B0F5C05F08BFB6F5404F06D1D5F8AA
:10230000000440F004000127C5F80004D5F80004DB
:10231000400847EA4000C5F80004D5F8000400F082
:102320000100B8427FF4E1AE0F2000F007FE2078F4
:1023300000075CD56069DFF83C74002846D00120B6
:10234000C7F8800600F030FA0646686BC0F340001C
:1023500000284CD100F028FA801B0328F5D3032075
:1023600001B0F0BDA069DFF80C74F0B10120386253
:1023700000F01AFA06462868C0F3402038B900F089
:1023800013FA801B0328F6D3032001B0F0BD686860
:10239000216A20F46040084368606868E16920F0C1
:1023A0007F4040EA01606860C1E7386200F0FCF9F4
:1023B00006462868C0F340200028B8D000F0F4F9A1
:1023C000801B0328F5D3032001B0F0BDC7F88006B9
:1023D00000F0EAF90646686BC0F3400038B100F03F
:1023E000E3F9801B0328F6D3032001B0F0BD207869
:1023F00040075BD5686ADFF8807340F08050686200
:10240000686A00F0805000900098386840F480704E
:10241000386000F0C9F906463868C00507D400F0F6
:10242000C3F9801B6528F7D3032001B0F0BDA06875
:10243000012803D1686B40F4807012E008B9686B22
:1024400009E00528686B06D140F480606863686B1A
:1024500040F4807005E020F480706863686B20F4BD
:1024600080606863A06880B100F09EF9064641F282
:102470008937686BC0F34020C0B900F095F9801B24
:10248000B842F6D3032001B0F0BD00F08DF9064646
:1024900041F28937686BC0F3402038B100F084F90D
:1024A000801BB842F6D3032001B0F0BD606A00285B
:1024B00046D0A96801F00C010C293FF416AE0228A1
:1024C000DFF8B0722BD10020386600F06DF90646B7
:1024D0002868C0F3406038B100F066F9801B03281B
:1024E000F6D3032001B0F0BDA868A16A20F47D00F6
:1024F0000843E16A0843216B0843A860012038665D
:1025000000F052F906462868C0F34060C0B900F0F8
:102510004BF9801B0328F6D3032001B0F0BD002047
:10252000386600F041F906462868C0F3406038B1CB
:1025300000F03AF9801B0328F6D3032001B0F0BD68
:10254000002001B0F0BDF0B5DFF8206281B0044694
:10255000D6F800040D4600F00100A84215D2012D66
:1025600005D1D6F8000440F00400C6F80004D6F8FF
:102570000004400845EA4000C6F80004D6F800040C
:1025800000F00100A84240F08B802078800705D53C
:10259000B068A16820F0F0000843B0602078C00760
:1025A00063D56068022803D13168C1F340410AE075
:1025B000032803D13168C1F3406104E00128316888
:1025C00005D1C1F3400131B9012001B0F0BDC1F323
:1025D0004021002964D0B168890840EA8100B060D8
:1025E00000F0E2F80746606802280ED1B06800F0FB
:1025F0000C00082839D000F0D7F8C01B41F289310F
:102600008842F3D3032001B0F0BD03280ED1B06897
:1026100000F00C000C2828D000F0C6F8C01B41F2D6
:1026200089318842F3D3032001B0F0BD01280ED1D7
:10263000B06800F00C00042817D000F0B5F8C01BFB
:1026400041F289318842F3D3032001B0F0BDB06874
:1026500010F00C0F09D000F0A7F8C01B41F289312F
:102660008842F4D3032001B0F0BDD6F8000400F096
:102670000100854217D2012D05D1D6F8000440F0A3
:102680000400C6F80004D6F80004400845EA4000FB
:10269000C6F80004D6F8000400F00100A84202D0F9
:1026A000012001B0F0BD2078400705D5B068E16891
:1026B00020F4E0600843B0602078000706D5B068D9
:1026C000216920F4605040EAC100B06000F00EF8CB
:1026D000B2682A49C2F30312895CC84024490860E1
:1026E0000F2000F02BFC002001B0F0BD2548416810
:1026F00001F00C02042A04D0082A04D00C2A04D0C9
:1027000016E021487047214870470FF28C02C1F350
:102710008343C1F38151D25C0FF27803595C406866
:10272000C0034CBF194818485043B0FBF1F0704744
:102730000068400B00F007000121401C01FA00F086
:10274000C00370470A480E4A006812681049C2F375
:102750000222895CC84070470548094A006812682F
:102760000B49C2F3C222895CC8407047003802405E
:102770002C0200200000474200700040385700083B
:1027800008380240043802400024F40000127A00A5
:102790003C59000801020304030406080C10182029
:1027A000300000007047000001480068704700BF1B
:1027B000A00C00202DE9F04B84B000F0D3FB00F01A
:1027C000EBFB002000F040FC0121002000F07BFC2E
:1027D00000F0D0FCDFF8C04504F10801002000F053
:1027E00023FD01282DD004F10C01012000F018FE7A
:1027F000012826D0A06800F077FD012843D10FF210
:10280000A4520FF20C7104F1100000F0F3FE04F179
:10281000100000F009FF82B241F2883304F1100188
:10282000DFF8780500F04AFF002000F036FC642055
:1028300001F0E4F8002000F03BFC642001F0DEF839
:10284000F2E70FF260520FF2C86104F1100000F0DD
:10285000D1FE04F1100000F0E7FE82B241F28833AD
:1028600004F11001DFF8340500F028FF002000F02B
:1028700014FC642001F0C2F8002000F019FC642070
:1028800001F0BCF8F2E7E06800F0A4FE0128B6D041
:10289000A068002100F038FD01281DD0A0680021AB
:1028A00000F094FD012817D0A068012100F08EFDF2
:1028B000012811D0A068022100F088FD01280BD06A
:1028C000A068002100F074FD012805D0A068052152
:1028D00000F08AFD012821D10FF2C8420FF23061C9
:1028E00004F1100000F086FE04F1100000F09CFEE0
:1028F00082B241F2883304F11001DFF8A00400F045
:10290000DDFE002000F0C9FB642001F077F8002014
:1029100000F0CEFB642001F071F8F2E70FF28C4179
:10292000DFF87884DFF878B404F1100000F062FE7C
:1029300004F1100000F078FE41F2883982B24B4673
:1029400004F11001404600F0B9FE01E002202071C0
:102950002079401E0328FBD8DFE810F0050057005F
:102960007F008501F4E70FF2704104F1100000F0E0
:1029700041FE04F1100000F057FE82B24B4604F114
:102980001001404600F09AFE0FF29C4104F1100045
:1029900000F030FE04F1100000F046FE82B24B461B
:1029A00004F11001404600F089FE4FF47A7001F006
:1029B00025F8A068202100F0EDFC012805D0A068D2
:1029C000012100F01FFD0128C0D10FF2D8320FF213
:1029D000405104F1100000F00DFE04F1100000F071
:1029E00023FE82B24B4604F11001404600F066FE21
:1029F000002000F052FB642001F000F8002000F0FD
:102A000057FB642000F0FAFFF2E7A068A11C00F079
:102A1000B2FC012802D104B0BDE8F08BA078E278C6
:102A2000904210D0E070DBA104F1100000F0E2FD54
:102A300004F1100000F0F8FD82B24B4604F11001E1
:102A4000404600F03BFE207808B103202071A078BA
:102A500020287FF47DAF20787AE7A068611C00F021
:102A600063FC01281FD10FF23C320FF2A44104F1A4
:102A7000100000F0BFFD04F1100000F0D5FD82B29F
:102A80004B4604F11001404600F018FE002000F013
:102A900004FB642000F0B2FF002000F009FB64207A
:102AA00000F0ACFFF2E7607800283FF451AF00205F
:102AB00000F0F3FA00208DF804000390029001A9C1
:102AC000A06800F058FC012800F0AD80A2780FF259
:102AD0008C3104F1100000F08DFD04F1100000F0C5
:102AE000A3FD82B24B4604F11001404600F0E6FD22
:102AF0004FF47A7000F082FF0FF2A03104F1100061
:102B000000F078FD04F1100000F08EFD82B24B461B
:102B100004F11001404600F0D1FD002620E000BF86
:102B200000F07AFF00F0ECFF00225B4601F010F8A5
:102B300001F0DFF801F0E6F8034632460FF28C317F
:102B400004F1100000F056FD04F1100000F06CFDDF
:102B500082B24B4604F11001404600F0AFFD2E4614
:102B60009DF80400864248DAA06802AA03A900F092
:102B7000EAFB012857D0039D284601F0E9F80746F3
:102B8000FEF72AFB02462846002101F003F992BF16
:102B900011461046294600F03FFF00F0B1FF002229
:102BA0005B4600F0D5FF01F0A4F801F0ABF800900F
:102BB000751C3B462A460FF2003104F1100000F06C
:102BC00019FD04F1100000F02FFD82B24B4604F114
:102BD0001001404600F072FD029F384601F0B8F83F
:102BE0000646FEF7F9FA02463846002101F0D2F80F
:102BF00092BF11461046394692E70FF2DC2104F1EC
:102C0000100000F0F7FC04F1100000F00DFD82B29E
:102C10004B4604F11001404600F050FD002000F04A
:102C200047FA042093E60FF27C120FF2E42104F13C
:102C3000100000F0DFFC04F1100000F0F5FC82B29F
:102C40004B4604F11001404600F038FD002000F032
:102C500024FA642000F0D2FE002000F029FA64205B
:102C600000F0CCFEF2E7A068002100F093FB012801
:102C700015D00FF2881104F1100000F0BBFC04F134
:102C8000100000F0D1FC82B24B4604F11001404626
:102C900000F014FD00202070A070E07057E60FF2E5
:102CA00004120FF26C2104F1100000F0A3FC04F1F7
:102CB000100000F0B9FC82B24B4604F1100140460E
:102CC00000F0FCFC002000F0E8F9642000F096FE23
:102CD000002000F0EDF9642000F090FEF2E710B55E
:102CE000B0F5005F0BD1002000F02BFA002802BFE6
:102CF000294C2079002804BF0120207110BDB0F5B7
:102D0000806F254C02D10120207010BD0FF2E81217
:102D10000FF2FC1104F1100000F06CFC04F1100043
:102D200000F082FC82B241F2883304F110011B48AA
:102D300000F0C4FC002000F0B0F9642000F05EFE5A
:102D4000002000F0B5F9642000F058FEF2E710B55D
:102D5000114C0FF2BC11024604F1100000F04AFCC5
:102D600004F1100000F060FC82B241F2883304F1FB
:102D700010010A4800F0A2FC002000F08EF9642047
:102D800000F03CFE002000F093F9642000F036FED5
:102D9000F2E700002E00000014010020900900203E
:102DA000000059406D61696E000000000D0A2D2D74
:102DB0002D2D2D2D204C505332324842204649466D
:102DC0004F204D6F64652044454D4F202D2D2D2DF6
:102DD0002D2D0D0A000000004649464F5F494E5414
:102DE0004552525550545F545950453A2054485218
:102DF0004553484F4C440D0A000000005072657363
:102E000073205553455220627574746F6E20746F31
:102E1000207374617274207468652044454D4F2E90
:102E20002E2E0D0A000000000D0A4C50533232487D
:102E3000422073746172747320746F2073746F72A4
:102E40006520746865206461746120696E746F2008
:102E50004649464F2E2E2E0D0A0A00000D0A256403
:102E60002073616D706C657320696E204649464F12
:102E70002E0D0A0A537461727420746F20646F7788
:102E80006E6C6F616420646174612066726F6D2086
:102E90004649464F2E2E2E0D0A0A00005B4441542F
:102EA000412023235D20205052455353202020549D
:102EB000454D500D0A0000005B444154412025322D
:102EC000645D202025642E25303264002020256496
:102ED0002E253032640D0A000D0A4649464F206403
:102EE0006F776E6C6F616420636F6D706C65746575
:102EF000642E0D0A0D0A000048414C5F4750494FAF
:102F00005F455854495F43616C6C6261636B0000BC
:102F10000D0A4572726F7220696E20272573272073
:102F200066756E6374696F6E2E0D0A000248006844
:102F300000F4C050704700000070004010B5044617
:102F4000074800684FF47A71B0FBF1F0FFF793F88F
:102F5000002221464FF0FF30FFF75BF8002010BD44
:102F60002C02002000B50A4881B0016841F004013C
:102F70000160016841F0020101600320FFF73CF8A5
:102F80000F20FFF7DBFF00F005F8002001B000BDC7
:102F9000003C02407047000010B594B001A8002129
:102FA000002200230EC006C000241EC01EC01EC08A
:102FB00001600220069010910120099010200A90D3
:102FC00002200F904FF4002011904FF40000129057
:102FD00006A8FFF76DF818B10FF25800FFF7B7FE1B
:102FE0001248016841F080510160006800F0805093
:102FF000009000980E48016821F4C05141F400612E
:1030000001604168C906FCD40F200190039403209D
:10301000029004940594012101A8FFF794FA18B1D5
:103020000FF21000FFF793FE14B010BD24380240D9
:103030000070004053797374656D436C6F636B5F10
:10304000436F6E666967000070B5040086B00AD1F0
:10305000DFF80401016841F001010160006800F03F
:103060000100009000980FF20010DFF8F06030F8D7
:10307000145001950120029001A900200390022024
:10308000049056F82400FEF7C7FE56F824000022EC
:103090002946FEF78EFF06B070BD0FF2CC01DFF8B7
:1030A000BC3031F8101053F820000122FEF781BF28
:1030B0000FF2B401DFF8A43031F8101053F82000FB
:1030C0000022FEF776BF30B50446200087B00D46DB
:1030D0000AD1DFF88400016841F004010160006852
:1030E00000F00400009000980FF2800030F8140007
:1030F00001900020039001200490280008D10020B6
:10310000029001A9DFF8580050F82400FEF784FE71
:10311000012D14D1DFF84C00029001A9DFF8400026
:1031200050F82400FEF778FE0FF24400045D002200
:103130000F2160B2FEF76DFF60B2FEF793FF07B09C
:1031400030BD0FF22801DFF8182031F8101052F8C6
:103150002000FEF727BF00001C3802402402002098
:1031600028020020000021102000000000200000A4
:103170002800000010B52848284C86B0016841F0AE
:1031800001010160016801F00101009100990168ED
:1031900041F001010160016801F001010091009915
:1031A000816841F40031816001A9806800F4003039
:1031B00000900098042001900220029000200390CB
:1031C00002200490072005902046FEF725FE0820E7
:1031D000019001A9072005902046FEF71DFE104C26
:1031E000104820604FF4E13060600020A060E06093
:1031F0002061A0610C206061204600F031FA00B12E
:10320000FEE704F14000A0624FF48070A08500202A
:10321000E06306B010BD00001C3802400000024010
:10322000900900200044004000B581B00022002831
:103230000A60084606D000F00CF8012806D00020ED
:1032400001B000BD00F005F80128F8D1012001B05F
:1032500000BD30B5204D0446E878012881B038D053
:10326000FEF750F8012834D0B1202870BA206870D9
:103270000020688028710120687105F11400A860A1
:103280001648E860164828611648E86105F11C00F8
:1032900068610020A8612560E8680168080008D11D
:1032A00000200021002207C503C5206001B00120D5
:1032B00030BD28468847012808D12068142100F035
:1032C0007BFD0020206001B0012030BDFEF773F8C7
:1032D000002001B030BD00006C0C00203400002044
:1032E0009C0000208C0C002000B581B018B1C16892
:1032F00089680A0002D1012001B000BD8847012879
:1033000018BF002001B000BD00B581B018B1C2687F
:10331000126A130002D1012001B000BD90470128BC
:1033200018BF002001B000BD00281CBF0269002AA0
:1033300007D031B10378B12B03D1D268130018BF85
:1033400010470120704710B481B000281CBF0369EA
:10335000002B0CD0002918BF002A08D00478B12C0B
:1033600005D1DB691C0002D001B010BC184701B0C8
:1033700010BC0120704700281CBF0269002A07D03A
:1033800031B10378B12B03D19269130018BF1047F4
:103390000120704700281CBF0269002A06D003786C
:1033A000B12B03D1526A130018BF10470120704798
:1033B00000281CBF0269002A06D00378B12B03D174
:1033C000526B130018BF10470120704700281CBF24
:1033D0000269002A06D00378B12B03D1926B130047
:1033E00018BF10470120704700281CBF0269002A3F
:1033F00006D00378B12B03D1D26A130018BF10474F
:103400000120704700281CBF0269002A06D00378FB
:10341000B12B03D15269130018BF10470120704728
:1034200030B50C4681B00021002821603DD0012834
:1034300075D0624DE87801282FD0FDF763FF012891
:103440002BD0BC202870BE206870002068802871B6
:103450000120687105F12800A8605948E860002043
:1034600028615848A86305F13800A8620020E86286
:103470002560E8680168080005D1002000210022CD
:1034800007C503C508E02846884701280AD12068F7
:10349000142100F091FC00202060204600F047F845
:1034A000012841D0002001B030BD444DE87801280A
:1034B0003AD0FDF727FF012836D0BC202870BE2067
:1034C00068700020688028710120687105F128006B
:1034D000A8603B48E860002028613A48A86305F1ED
:1034E0003800A8620020E8622560E86801680800EA
:1034F00008D100200021002207C503C5206001B0CB
:10350000012030BD284688470128CBD120681421EE
:1035100000F052FC0020206001B0012030BD2046A8
:1035200000F005F80128BDD1012001B030BD30B553
:10353000224D0446E87D012881B03DD0FDF7E2FE32
:10354000012839D0B1202875BA2068750120A875E6
:103550000020E87528760120687605F13000E861E2
:1035600019482862194868621948E86305F13C0067
:1035700028630020686305F114002060286A016850
:10358000080005F1140008D10021002200230EC01C
:1035900006C02160012001B030BD8847012808D154
:1035A0002068142100F008FC0020206001B00120F8
:1035B00030BDFDF700FF002001B030BDF00B002052
:1035C000000000209C0C002068000020D800002093
:1035D0008C0C002000B581B018B1C16889680A0060
:1035E00002D1012001B000BD8847012818BF00208A
:1035F00001B000BD0CB41CB5044604A801900A46F5
:10360000009401AB694607487844183000F0D8FBB5
:10361000009A0021117000285CBF0098001B16BCA6
:103620005DF80CFB87DBFFFF00F10103810704D08D
:1036300010F8011B89B18107FAD10268B2F101319A
:10364000914311F0803F04BF50F8042FF6E710F8C3
:10365000011B11B110F8011BFBE7C01A70470000F5
:1036600010B5040001D1012010BD94F8390020B933
:1036700084F83800204600F0BFF9022084F83900B1
:103680002068C16821F40051C160204600F0B5F8FF
:103690002068016921F4904101612068416921F0AD
:1036A0002A0141612068C16841F40051C1600020D5
:1036B000E063012084F83900002010BDF0B5044615
:1036C00081B094F83900012818BF22280E461D4603
:1036D00040F090800EB1100002D1012001B0F0BD89
:1036E00094F83800012800F08580012084F8380023
:1036F0000020E06394F8390022280CBF3220122009
:1037000084F83900A284E28403E000BF16F8011BAC
:103710004160E08C01004ED0401EE084A068B0F50E
:10372000805F36D1FFF740F8074620680168090638
:1037300025D415F1010FF8D025B1FFF735F8C01BDE
:103740008542F2D22068C16821F08001C160206802
:10375000C16821F02001C1602068C16821F4807136
:10376000C16020684169490849004161012084F82D
:103770003900002084F8380001B00320F0BD318802
:10378000C1F3080141602069002814BF761CB61CF3
:10379000BFE7FFF709F80746206801680906B5D4B6
:1037A00015F1010FF8D0002DCCD0FEF7FDFFC01BA6
:1037B0008542F1D2C6E7FEF7F7FF064620680068AB
:1037C00040060AD415F1010FF8D0002DBAD0FEF74B
:1037D000EBFF801B8542F1D2B4E794F83900322820
:1037E0000CBF2220012084F83900002084F8380022
:1037F00001B0F0BD022001B0F0BD2DE9F047044654
:10380000642520680169E26821F440511143016197
:103810001926C168764A1140A268114322691143F2
:1038200062691143E2691143C1604169A26921F4EF
:10383000407111434161E2696E49B2F5004F40F0B9
:103840008480884240D1FEF787FF0746FEF784FF59
:103850008046FEF781FF8146FEF77EFF8246FEF737
:103860007BFF06FB08F361684900B3FBF1F306FB3D
:1038700007F206FB09F7B7FBF1F7B7FBF5F705FB16
:103880001733DB003233B3FBF5F3B2FBF1F25B002D
:10389000B2FBF5F203F4F87303EB0212704306FB7C
:1038A0000AF3B0FBF1F0B3FBF1F3B0FBF5F005FB6D
:1038B0001030C0003230B0FBF5F0216800F0070096
:1038C00080188860BDE8F087FEF73CFF0746FEF7EA
:1038D00039FF8046FEF736FF8146FEF733FF82460A
:1038E000FEF730FF06FB08F361684900B3FBF1F314
:1038F00006FB07F206FB09F7B7FBF1F7B7FBF5F795
:1039000005FB1733DB003233B3FBF5F3B2FBF1F207
:103910005B00B2FBF5F203F4F87303EB02127043A1
:1039200006FB0AF3B0FBF1F0B3FBF1F3B0FBF5F0EB
:1039300005FB1030C0003230B0FBF5F0216800F01C
:10394000070080188860BDE8F08788420ED1FEF736
:1039500003FF0746FEF700FF8046FEF7FDFE8146A7
:10396000FEF7FAFE8246FEF7F7FE0DE0FEF7EAFEEE
:103970000746FEF7E7FE8046FEF7E4FE8146FEF7C7
:10398000E1FE8246FEF7DEFE06FB08F36168890071
:10399000B3FBF1F306FB07F206FB09F7B7FBF1F700
:1039A000B7FBF5F705FB17331B013233B2FBF1F21E
:1039B000B3FBF5F3B2FBF5F203F0F00303EB0212F5
:1039C000704306FB0AF3B0FBF1F0B3FBF1F3B0FB7D
:1039D000F5F005FB103000013230B0FBF5F0216846
:1039E00000F00F0080188860BDE8F087000000003C
:1039F000F369FFFF003801407047000011B581B046
:103A0000FEF7D2FE4FEA0004FEF7CEFE0199001B3E
:103A10008842F9D302B010BD90EA010F44BF81F093
:103A2000004100F0B7BD00BF431A4FF000423EBF57
:103A30005340C01AC91800BFD3095FEAD05C13EB2A
:103A4000400F34BFB3EB410F40E07CEBD1530CD3BC
:103A500042EA012122D8D1EB402009D3400A28BFF5
:103A60005FEA500140EBCC507047401A15D040023D
:103A7000B0FA80F2521C9040400A4FEA3C23B3EB6C
:103A8000026384BF00EB730007E040F400001A16E5
:103A9000DB07C2F10102D04018437047182BFCDC51
:103AA00031FA03F202FA03F3591A38BF42F0010265
:103AB000D2EB40203CBF4000ACF1010C5FEACC5C93
:103AC000C20572F100414CEB5020704713EB400FE0
:103AD0000FD24B0009D0ACEBD153022B03DB4902D0
:103AE000172BDDDD70479143401A4300D5D10020EC
:103AF000704713EB410FD0D36FF000007047000008
:103B00005FF0FF0C1CEAD05114BF614506E0C11004
:103B1000400721F0E04101F16051704779B900F0B0
:103B2000004100020AD0B0FA80FC00FA0CF001F16A
:103B30006051A1EB0C5101EBD021400570474102CF
:103B40000CBF40F4E0016FF000010020704700005E
:103B5000B0B581EA030C0CF0004C40F2FF7515EA99
:103B600011541DBF15EA1357AC42AF4239E0E419B6
:103B700023EA455343F48013C90241F0004141EA6E
:103B8000505EC7021100A7FB020200284FF00000A0
:103B9000EEFB01204FF00001E3FB072118BF42F0CC
:103BA0000102401800214941E3FB0E01A4F58064A5
:103BB0000F0302D252004041494154F101046CDD2F
:103BC000470872F1004250F1000051EB0451A1F599
:103BD00080115CBF41EA0C01B0BD4CEA05510020E8
:103BE000B0BD05EA1357AC4214BFAF4241E050EA02
:103BF000410E1CBF52EA430E02E061460020B0BDF8
:103C000024423C441BD15FEA070EF6D0090302BFF1
:103C100001460020AEF1140EB1FA81F7AEEB0704B5
:103C200001FA07FE0C37C7F1200100FA07F7C84078
:103C30004EEA000E23EA455343F48013A2E733F023
:103C40000043B3FA83F704BFB2FA82FE77440B3F16
:103C5000E41BB7F1200E2FBF02FA0EF3BB40C7F1F1
:103C6000200E22FA0EFE38BF43EA0E03BA40641C4F
:103C700082E750EA410E14BF52EA430E6FF0000192
:103C80004FF4001717EB430F8ABF194617EB410F8C
:103C9000B5E74CEA05510020B0BDD4F10104B4F100
:103CA00020070FDAC4F12007520828BF42F00102B2
:103CB00010FA07F501FA07F7E1BF2A43E04038435D
:103CC000E1400FE0352C98DCC7F1200452EA4002B5
:103CD00020FA07F218BF42F0010231FA07F0A140C2
:103CE0000A43002172F1004250F1000051EB0C0137
:103CF000B0BD83B50021684600F086FCDDE9000117
:103D000003B000BDF446400D40EAC120490006D290
:103D100000F00EF8004248BF6FF00040604700F02E
:103D200007F84FF0004188428CBF08464042604788
:103D300040F00040490DA1F58061491C05D4D1F146
:103D40001F0154BFC840C01770474FF000007047B4
:103D50004100090E7F3915D4D1F11F0114D4400060
:103D600007D2C00140F00040C84048BF6FF000409B
:103D70007047C00140F00040C8404CBF4FF00040C9
:103D8000404270470020704700424FF0004058BF4B
:103D9000C04370474FF0807C1CEB400F94BF1CEB7E
:103DA000410F05E040EA010C5FEA4C0C01D2814270
:103DB000704718BF88427047002200F063BC0000C3
:103DC0002DE9F04F80460FF2A47095B015461E46BF
:103DD000D0E90023CDE9132303AF00200391B8619C
:103DE0000DF1340900E02D190020ADF8020013ABED
:103DF0004FF0FF3229460DF1020000F072FC04463C
:103E0000012C04DA2878441EA441E443E40FBDF8F1
:103E1000020025280CBFA4F1010BA346BBF1010F42
:103E20000EDBAA461AF8011B0398C047002803902E
:103E300000F0DA80B869401CBBF1010BB861F1D128
:103E4000BDF80200252804D10020F86038617861AF
:103E500005E00028C7D1B86906E340F0010015F875
:103E6000011F2029F9D023290DD02B2904D02D2979
:103E700006D030290AD00CE040F0020080B2EEE714
:103E800040F00400FAE740F00800F7E740F01000C7
:103E9000F4E72A290ED13168316051F8042B3160E2
:103EA000002A3A6204D5514240F00400396280B2DF
:103EB0006D1C13E0002139620BE0396A6FF000439A
:103EC000994205D001EB810302EB4301303939629D
:103ED0006D1C2A78A2F130010A29EED329782E2907
:103EE00003D04FF0FF31F9611FE015F8011F2A29B7
:103EF00007D1316831606D1C51F8042B3160FA61D3
:103F000013E00021F9610BE0F9696FF00043994279
:103F100005D001EB810302EB43013039F9616D1CDF
:103F20002A78A2F130010A29EED3B8840FF2446056
:103F3000297800F0E7FB08B115F8010B8DF8320085
:103F40009DF83200682804BF2878682803D16220D1
:103F50008DF832006D1C0DA8B86015F8014B252CAA
:103F600013D0582C4BD0632C00F0A380642C18BFC6
:103F7000692C7CD06F2C42D0702C36D0732C0AD098
:103F8000752C18BF782C3AD0B6E00120F8602520B7
:103F90008DF83400BAE09DF832006C28306830604B
:103FA00018D050F8044B30607C60D7F81CA0BAF1F0
:103FB000000F04D52046FFF737FB824607E0524644
:103FC0000021204600F0AAFB08B1A0EB040AC7F8C4
:103FD00010A09BE050F8042B306002A9404600F08E
:103FE0002DF9002840F192803CE23068306050F8B2
:103FF000041B306002910DA87860782155E09DF88F
:1040000032006C280DD0712818BF6A2809D1306899
:10401000C01D20F007023260D2E900010832326090
:1040200004E03168316051F8040B316002909DF872
:104030003200682802D102A8008803E0622802D179
:1040400002A80078029097F82400000728D502986B
:1040500030B344F02000782822D1F868302109F8E4
:104060000010401C411CF96009F8004018E09DF860
:104070003200314600F0BCF80028029002D5F86802
:104080002D2109E0B88C810702D5F8682B2103E0C7
:10409000C00705D5F868202109F80010401CF86019
:1040A0000DA8F96808447860214602A800F0DFF9FD
:1040B0002CE09DF832006C2809D00120F8603068AF
:1040C000306050F8041B30608DF834101EE030680A
:1040D000306001AA50F8041B3060ADF804100020D5
:1040E000ADF8060002A94FF0FF30F861404600F03D
:1040F000A5F800280AD577E70120F86025208DF87B
:1041000034001CB10220F86089F80140386AF9686F
:10411000401A7969401A3969441A97F8240040070F
:1041200011D42020012C8DF800000CDBA2460123C5
:104130006A4602A9404600F001FA00287FF454AF15
:10414000BAF1010AF3D1D7F80CB0BBF1000F0DF1B1
:10415000340A0DD01AF8011B0398C04700280390B9
:104160003FF442AFB869401CBBF1010BB861F1D11B
:10417000D7F814A03020BAF1010F8DF800000BDB46
:1041800001236A4602A9404600F0D8F900287FF4CE
:104190002BAFBAF1010AF3D1D7F810B0D7F804A0C9
:1041A000BBF1000F0DD01AF8011B0398C04700287F
:1041B00003903FF419AFB869401CBBF1010BB86123
:1041C000F1D197F8240040077FF50EAE2020012C96
:1041D0008DF80000FFF608AE01236A4602A94046AA
:1041E00000F0ACF900287FF4FFAE641EF4D1FBE5CB
:1041F000622815D068280CD06C2818BF742816D0F7
:104200007A2814D10A680A6052F8040B0A60002167
:1042100070470A680A6052F8040B0A6000B20BE0AB
:104220000A680A6052F8040B0A6040B204E00A68A7
:104230000A6052F8040B0A60C11770472DE9F44F69
:104240000D4694B02F6A002F804648BF6FF000479C
:1042500000F090FA696A401801900FF22030D0E91E
:104260000023CDE9022395F82800400702D40198E5
:10427000412805D240200DF110090190002606E0EA
:1042800000F07EFA5FEA0009F8D1EBE03F1B012F56
:10429000C0F294801498018802AA0DF1010000F088
:1042A000C7FA0028044600F19C801498008810B9D1
:1042B000641E00F19680A742C0F2808028690199AF
:1042C0002218914268D26E624042A969401A696917
:1042D000461A95F82800400710D42020012E8DF8AA
:1042E00000000BDBB24601236A462946404600F037
:1042F00025F9002875D1BAF1010AF4D1D5F810B02A
:10430000BBF1000FCA460CD01AF8011B6868C04701
:104310000028686065D0E869401CBBF1010BE861CA
:10432000F2D130208DF80000D5F818A0BAF1010FB5
:104330000ADB01236A462946404600F0FFF80028C0
:104340004FD1BAF1010AF4D1D5F814B0D5F808A0CC
:10435000BBF1000F0CD01AF8011B6868C047002899
:1043600068603ED0E869401CBBF1010BE861F2D106
:1043700095F8280040070DD52020012E8DF800006B
:1043800008DB01236A462946404600F0D7F840BBC7
:10439000761EF6D100262E61224628690DF1010114
:1043A000484400F053FA2869201828611498801CAA
:1043B0001490801E008800287FF468AF686A29691D
:1043C000401AA969401A6969471A95F828004007F8
:1043D0000FD4012F0DDB3C4668682021C047686080
:1043E00010B94FF0FF3635E0E869401C641EE86103
:1043F000F2D12B694A462946404600F09FF8002832
:10440000EFD1AC69012C0ADB68683021C047002875
:104410006860E6D0E869401C641EE861F4D16B690D
:10442000AA682946404600F089F80028D9D195F8B5
:10443000280040070CD5012F0ADB68682021C047FF
:1044400000286860CDD0E869401C7F1EE861F4D187
:104450002E616E6204A881451CBF484600F032FA06
:10446000304601E04FF0FF3015B0BDE8F08FF0B4FA
:10447000C2686F2908BF082405D041F02003782BBB
:1044800014BF0A24102418230668642918BF692958
:10449000374602D1002E48BF7F425FB9056A4DB949
:1044A000082C27D190F82810090723D5302117238D
:1044B000D1751FE0B7FBF4F604FB16773037FFB277
:1044C0005D1E3A2FA4BFA1F1510C674457552B46EE
:1044D000370003D08568D618B542EBD3082C09D134
:1044E00090F82810090705D5D15C302902D05B1E51
:1044F0003021D1541A448260C3F11801026A41612B
:10450000914208DA511A81614FF6EF72018D114024
:104510000185F0BC7047002A0ED590F8282002F0E3
:104520001402102A08D1426A0369D21A8369D21A86
:10453000531A012BA8BF8361F0BC7047F8B504463D
:104540000D4616461F46002077B116F8011B686815
:10455000A047686030B1E869401CE86100207F1E18
:10456000F3D1F2BD4FF0FF30F2BD000000000000BB
:1045700000000000686C747A4C000000000000002D
:104580000000000090EA010F44BF81F00041FFF7F6
:104590004BBA00BF421A3CBF801A89184FF0004C3A
:1045A000C0F3C752FF2A24D0C1F3C75313B3D21AA2
:1045B000D2F1190327DD4CEA01214CFA03F321EA79
:1045C0000303D140C20D4CEA0020401834BF20EA5A
:1045D0000C004CEA5000D20553EA006373EB0C0C5C
:1045E00052EB1020420012F1807F38BF7047C00D9F
:1045F000C0057047490212BF9A4200EB5120F8E70C
:10460000D2F11703D9D570474268C2F30A5240F27B
:10461000FF739A4207D14168090303BF006800286D
:1046200001200220704743685B0004BF0368002B31
:1046300025D040F233439A1A521A012A1FDB352A39
:1046400006DB416801F0004141600021016013E098
:10465000012102F01F039940491E920607D54268C6
:1046600011404A40426002681143002202E00268A1
:1046700011404A40026011B14FF0FF3070470020F6
:1046800070470000401810F0030308D0C91A1FD368
:10469000DB0748BF00F8012D28BF20F8022D1300CA
:1046A00030B414461546103928BF20E93C00FAD82A
:1046B000490728BF20E90C0048BF40F8042D8900B5
:1046C00028BF20F8022D48BF00F8012D30BC7047EC
:1046D000C91818BF00F8012DCB0728BF00F8012D1D
:1046E0007047F8B504460D4616461F4600F02AF9F5
:1046F0003B4632462946204601B0BDE8F04000F076
:1047000038B900000278C9B28A421AB11CBF10F849
:10471000012FF9E718BF002070470000C9B28307D6
:1047200006D0521E22D310F8013B9942F7D11FE068
:10473000083A13D302F1040241EA012141EA01419E
:1047400050F8043B121F21BF4B40A3F1013C2CEA5F
:10475000030C1CF0803FF3D0C9B2001F083210F8E0
:10476000013B521E28BF91EA030FF8D818BF012061
:10477000401E704780B500F0E5F8012002BD000042
:1047800070B5054605F10F00C408C046C046E400F8
:10479000A54232D2082C04D2082402E0083000F0EE
:1047A00091F82248026811000CD1011D0A6802B379
:1047B0001368A34238BF111DF8D310E01D68A5424D
:1047C0000DD2191D0B68002BF8D11268011D00E0F5
:1047D000191D0B6893420CD01D68A542F8D361B136
:1047E0000D682A68A2F10803A3420AD26A680A6027
:1047F0000FE000F0E1F80028D0D1C046C04600200C
:1048000070BD2B190B60121B6E685E600B681A601E
:104810002C60096800291DBF4A68002A091D002173
:104820000160C046C04605F1080070BD940C002030
:1048300070B504460D46164600F084F83246294607
:104840002046BDE8704000F087B8000062B38B07D7
:1048500008D0521E11F8013B00F8013B00F0248003
:104860008B07F6D1830740F0208000BF103A07D3B2
:1048700030B4B1E83810103AA0E83810F9D230BCA2
:10488000530724BFB1E80810A0E8081044BF51F84E
:10489000043B40F8043BD20724BF31F8022B20F838
:1048A000022B44BF0B7803707047083A07D3B1E876
:1048B0000810083A40F8043B40F804CBF7D25307FD
:1048C000E4E7000000B9704738B5A0F1080420689B
:1048D000082833D310F0070F30D1C046C04618481F
:1048E000416809B18C4203D26160446017E0194607
:1048F0004B680BB1A342FAD30B68CD18AC421BD363
:10490000A54204D12268D2180A600C4607E04A6822
:104910001AB1236823449A420ED362604C606168E6
:1049200051B12268A3188B4206D1002303600868A6
:104930008018206048686060C046C04631BD0000F5
:10494000940C002080B5DFF80C0000F04BF8806973
:1049500002BD00002003002030B430B90FF248003F
:10496000D0E90045C2E900451BE00170012030BCE0
:10497000704730B431B90FF23800D0E90045C3E9CF
:1049800000450EE01AB930BC6FF00100704708B165
:104990000A7802800978481E804130BCC043C00FAD
:1049A0007047002030BC704700000000000000008D
:1049B00000000000000000000749086808B100205E
:1049C00070470648C008C00008600549C908C9000A
:1049D000091A0160704700BFA40C0020970700204F
:1049E000900900207047000010B51C46022A1346AB
:1049F000A8BF41F080012246FCF718FD401E80410F
:104A0000C043C00F10BD10B51C46022A1346A8BFF4
:104A100041F080012246FCF7F2FC401E8041C04379
:104A2000C00F10BD00B50A4681B001230F21FCF76D
:104A3000FDFC401E8041C043C00F01B000BD2DE908
:104A4000F04383B08946804602236A46B221FCF7D0
:104A5000EDFC88BB012301AA35214046FCF7E6FCAA
:104A600050BB9DF804009DF8002000F0030142EACD
:104A70000121CE089DF8011000F00C0041EA8010E1
:104A8000C40804236A46BC214046FCF7CFFC98B911
:104A90009DF801009DF8001002236A4641EA0025B6
:104AA0009DF803009DF8021041EA0027AA21404624
:104AB000FCF7BCFC2DB218B1012003B0BDE8F083B7
:104AC0009DF801009DF8001041EA002000B2401B53
:104AD000FCF782FB8046A01BFCF77EFB414600F002
:104AE00039F904463FB2781BFCF776FB01462046B5
:104AF000FCF78AFB04463046FCF76EFB2146FFF7C5
:104B000041FD064900F026F9FFF722F9A9F8000057
:104B100003B00020BDE8F083000000000000204149
:104B200030B581B00C46154601236A462721FCF7B3
:104B30007DFC10B1012001B030BD9DF80000C0F334
:104B4000400020709DF8000000F00100287001B0C6
:104B5000002030BD10B582B0044601236A462021F2
:104B6000FCF764FC10B1012002B010BD9DF80000FC
:104B700040F080008DF8000001236A462021204685
:104B8000FCF73DFC401E8041C043C00F02B010BD89
:104B900010B582B0044601236A462021FCF746FC8A
:104BA00010B1012002B010BD9DF8000000F07F00A0
:104BB0008DF8000001236A4620212046FCF71FFCE7
:104BC000401E8041C043C00F02B010BD30B50D463D
:104BD000012D81B004460AD0280008D040F263229B
:104BE0000FF2D0010FF23C1000F020F9FEE7012394
:104BF0006A4620212046FCF719FC10B1012001B0C3
:104C000030BD9DF8000000F0FB0040EA85008DF803
:104C1000000001236A4620212046FCF7F0FB401EDD
:104C20008041C043C00F01B030BD30B50D0018BF8A
:104C3000012D81B004460CD0022D18BF032D08D0E1
:104C400040F2BA220FF26C010FF2D80000F0EEF839
:104C5000FEE701236A462021FCF7E8FB10B10120A2
:104C600001B030BD9DF8000000F0FC0028438DF835
:104C7000000001236A4620212046FCF7C0FB401EAD
:104C80008041C043C00F01B030BD10B582B00C46AA
:104C900001236A462021FCF7C9FB10B1012002B0B4
:104CA00010BD9DF8000000F00300207002B000204D
:104CB00010BD0000433A5C53544D33325F45787069
:104CC000616E73696F6E5F536F6674776172655F53
:104CD000446576656C6F706D656E745F53564E5C9F
:104CE000582D435542452D4D454D53315C747275D9
:104CF0006E6B5C447269766572735C4253505C43C0
:104D00006F6D706F6E656E74735C68747332323180
:104D10005C4854533232315F4472697665722E6357
:104D20000000000057726F6E6720706172616D65E0
:104D3000746572732076616C75653A2066696C657E
:104D4000202573206F6E206C696E652025640D0A26
:104D500000000000FF2212EAD05C1DBF12EAD1530E
:104D6000944593422BE09C44D30780EA01021A4009
:104D700043EA002043EA0121A1FB0030410038BF93
:104D800040007CF17F010BDBFE294ADA5B0842EA36
:104D9000C15153EA006373F1004C51EB102070478E
:104DA000D1F1080CDCF120012FDB5B0810FA01F1D6
:104DB0000B4373F1004120FA0CF0504170479445C9
:104DC0001CBF02EAD153934280EA010202F0004282
:104DD0001DD0400019D0490017D05BB9634514D0ED
:104DE0000902B1FA81F39940BCEB030CC00140F019
:104DF0000040C1E70002B0FA80FC10FA0CF0B3EBFF
:104E00000C0CC90141F00041B6E7100070474000AA
:104E10000AD0490008D010F1807F94BF11F1807F43
:104E200002E042F0FF407047D04370470EB400B537
:104E300082B003A9009102466B46012103487844E1
:104E40000A30FEF7BDFF06BC5DF810FBB10A00009A
:104E500010B5044682B0A06800680068007800BB06
:104E60008DF8000069462046FFF7DCFD012815D0CB
:104E70009DF800002178884210D12046FFF788FE77
:104E800001280BD001212046FFF7A0FE012805D004
:104E900001212046FFF7C9FE012802D1012002B0FE
:104EA00010BDA1680968096801204870E07002B06F
:104EB000002010BD10B50446A068006800680178A5
:104EC00071B9217961B1807820B92046FFF760FE81
:104ED00001280BD0A168096809680020C8702071FA
:104EE0000020A168096809684870E07010BD10B51D
:104EF0000446207901280FD0A068006800688078F7
:104F000020B92046FFF726FE012806D0A1680968CF
:104F100009680120C8702071002010BD10B504463A
:104F2000207978B1A06800680068807820B92046B0
:104F3000FFF72EFE012805D0A16809680968002046
:104F4000C870207110BD00B581B0FFF76BFD01285E
:104F500018BF002001B000BD10B582B0044600208B
:104F60008DF8000069462046FFF75CFD012806D059
:104F70009DF800002178884214BF0120002002B073
:104F800010BD10B582B00C460021ADF80010694686
:104F9000FFF755FD012808D0BDF90000FCF71CF90A
:104FA0002E49FCF731F92060002002B010BD00004E
:104FB00010B582B00C466946FFF767FE01281FD086
:104FC0009DF80000032818D8DFE800F0120C070253
:104FD0002348206002B0002010BD2248206002B0AB
:104FE000002010BD4FF07E50206002B0002010BDA8
:104FF0000020206002B0002010BD1B48206001206E
:1050000002B010BD00B581B021B1491E032909D8F5
:10501000032100E00121FFF708FE012803D0002052
:1050200001B000BD012001B000BD024608460F4995
:1050300000B5FCF7BFF881B038BF012105D30C499A
:10504000FCF7B8F834BF022103211046FFF7EDFD4D
:10505000012818BF002001B000BD00000000204161
:10506000000048410000E040000080BF0100803F98
:105070000100E04000B5134681B00122FFF7B4FC07
:10508000012818BF002001B000BD00B581B06B46FB
:105090008DF800200122FFF7B6FC012818BF002080
:1050A00001B000BD10B582B00C466A460DF1010199
:1050B000FFF736FD012809D09DF80000002818BF31
:1050C000012803D1207002B0002010BD012002B0E1
:1050D00010BD2DE9F04104460D4620780321084219
:1050E00016461F4632D0204600F099F870BB15B125
:1050F000D5E900018619012F30D12088C00416D5CA
:10510000A16904F13D02204600F0A6F8626A8046DB
:1051100002B92269E168204600F09EF8A6EB08017A
:105120000E1AA26AE168204600F096F8361A1EB9F7
:105130004FB916F1010F09D094F903003A463146F0
:1051400000F08FF8064616F1010F0AD100F0B0F812
:10515000232101604FF0FF30BDE8F081022FE7D13D
:10516000EAE720884FF4405108420ED06068E060C2
:105170002061A06260616068E06204F13D00A061AE
:1051800004F12400E061002060622DB1D5E9020144
:1051900004F13002C2E9000120884CF6FF610840AA
:1051A00020800020BDE8F08138B500F087F8044683
:1051B000208880042ED5656809E04A1B294600F046
:1051C0007FF810F1010F18BF00280CD00544E168EA
:1051D00094F903008D42F0D30022002100F070F812
:1051E00010F1010F0DD16068E0606061E06220881D
:1051F00040F400702080204600F061F84FF0FF304E
:1052000032BD6568E5606561E5624DF6FF71208835
:1052100008402080204600F052F8002032BDF8B54A
:10522000A0B9C046C04600240A4D08264FF0FF37FB
:10523000286820B1FFF7B8FF002848BF3C462D1D65
:10524000761EF5D1C046C0462046F2BDBDE8F2400C
:10525000AAE70000F0020020914234BF501A00205B
:10526000704730B583B004000D00012A02D100F070
:1052700074F807E0022A07D10094002001906946E3
:105280000C20ABBE2D1801E0002A0CD10094019532
:1052900069460A20ABBE002805D100222100280063
:1052A00000F038F801E00020C04303B030BD00003A
:1052B0000148FFF797BB00008C0300207047704740
:1052C00080B5002802D400F069F802BD002002BDBC
:1052D00010B4314A002113461C68844205D10023D2
:1052E00042F8313002EBC10111E09C68491C844254
:1052F0001EBF491C1C6984421EBF491C9C69844214
:10530000EDD0491C20331029E6D310BC70474B6008
:1053100010BC704770B4204C002325462E688E4286
:1053200009D1014604EBC303012A04BF5A6851188E
:10533000596070BC7047AE685B1C8E421EBF5B1C20
:105340002E698E421EBF5B1CAE698E42E9D05B1C8B
:105350002035102BE2D370BC704710B40E4A0021E8
:1053600013461C68844204D102EBC100406810BCA3
:1053700070479C68491C84421EBF491C1C698442BA
:105380001EBF491C9C698442EED0491C2033102961
:10539000E7D310BC00207047D00A002080B5002958
:1053A00001D1002002BD012801D0022802D100F065
:1053B00004F802BD00F011F802BD30B583B00C0056
:1053C0001500012000F032F8009001940295694622
:1053D0000520ABBE281A03B030BD10B584B0030061
:1053E000140000930191029469460520ABBE01228E
:1053F0001900201AFFF78EFF04B010BD80B500F031
:1054000033F802000023DB431068984204D01100F7
:105410000220ABBE002010605068984204D0111DDD
:105420000220ABBE0020506001BD000010B584B06A
:10543000040000F019F8A100421810680021C943C7
:1054400088420DD107A00090002C01D1002000E07F
:10545000042001900320029069460120ABBE106039
:1054600004B010BD3A747400004870471003002067
:1054700010B50446E0686169884253D3218849F237
:1054800002020A40022A08D008044CBF4FF4007000
:105490004FF48440084320803DE001F4C041B1F561
:1054A000C04F06D1A168884203D32046FFF7B7FE5C
:1054B00088BB20884FF44061084202BF606804F155
:1054C0003D01884218D14FF40070FFF759F9606030
:1054D00030B904F13D006060E060401CA0600BE06A
:1054E000218841F040012180E060A0624FF400710A
:1054F00001446068A160E06260682061A06860614A
:10550000207840070AD502220021204600F00CF83E
:1055100010F1010F02D14FF0FF3010BD208840F490
:10552000C0402080002010BD70B50C461546FFF726
:10553000C5FE06462B4622460021FFF7CAFD04465B
:105540003046FFF7BCFE204670BD0000017809061A
:1055500026D51D4A13680021834203D1002342F857
:1055600021301BE05368012183421EBF0221936852
:105570008342F3D0D368032183421EBF0421136901
:105580008342EBD05369052183421EBF06219369F4
:1055900083421EBF0721D3698342DFD0FFF792B950
:1055A000002101804FF0FF31C17000F13D014160E9
:1055B000C160016181624161C162816100F12401C8
:1055C000C161704700000000F002002038B50446B9
:1055D00003212078084202D06056002809D5C04631
:1055E000C0462046FFF7B2FFC046C0464FF0FF3529
:1055F00027E02046FFF713FE0546C046C046207848
:10560000400644BF6068FFF75DF90020606094F9D0
:105610000300022804D900F016F808B14FF0FF3556
:10562000A06B48B100F01CF808B14FF0FF35A06B3B
:10563000FFF748F90020A0632046FFF787FFC04628
:10564000C046284632BD10B582B0020000926946BD
:105650000220ABBE04001000FFF73AFE200016BD8A
:1056600000B583B00090FDF7DFFF019069460E2082
:10567000ABBE03B000BDF0B4016844688368014468
:1056800001EB5402E40748BF4B44914202D1F0BC05
:105690000C30704711F8015B15F0030604BF11F8D8
:1056A000014BE61C2C090F2C07D111F8014B0F34CC
:1056B00003E011F8017B03F8017B761EF9D1002C81
:1056C000E3D0AD0811F8016B05F00305032D08BF09
:1056D00011F8015B06EB05256D42A41C1D44D4D0D6
:1056E00015F8016B03F8016B641EF9D1CDE70000DA
:1056F0000D480E4A016841F48071016081681140D3
:1057000081600B4A016811400160016821F4802129
:105710000160816821F47D0181600021C1604FF04A
:105720000060044908607047003802400CC0FF88E0
:10573000FEFFFEEE08ED00E00000000000000000AB
:10574000010203040607080910B5144C206808B1CB
:10575000FFF73CFF606808B1FFF738FFA06808B1A9
:10576000FFF734FFE06808B1FFF730FF206908B1A8
:10577000FFF72CFF606908B1FFF728FFA06908B1A7
:10578000FFF724FFE06908B1FFF720FFBDE81040F4
:10579000002200214FF0FF30FFF792BDF002002001
:1057A00038B505460846FFF789FD0446E06861699B
:1057B000884204D32046FFF75BFE002810D4E0683F
:1057C000401CE06000F8015D2088010504D440051C
:1057D0000CD5EDB20A2D09D12046FFF720FD28B1E6
:1057E0002046FFF76CFD4FF0FF3032BD2046FFF73B
:1057F00066FDE8B232BD19E050F8041BCB0744BF88
:10580000A9F101035918121F0023042A41F8043B8F
:10581000F9D25FEA827C0B4604D54FF0000CA1F868
:1058200000C09B1CD10744BF0021197050F8042B05
:10583000002AE1D17047000010B5074979441831BA
:10584000064C7C44163404E00A68081D114488475D
:105850000146A142F8D110BD3C00000058000000F4
:105860007047FEE7704700F00DB800B581B04FF407
:105870000050FCF7A2FB01B05DF804EB4FF4806030
:10588000FCF79BBB02480168491C0160704700BFE0
:10589000A00C002063FFFFFF180300009009002008
:1058A00000000000D3FDFFFF880100003602000069
:1058B0000000002000F00BF8002801D0FFF7BCFF2B
:1058C0000020C046C046FCF775FF00F002F801203A
:1058D000704700F001B800000746FFF735FF384673
:1058E00000F002F8FBE7000080B5FFF787FD024AF1
:1058F00011001820ABBEFBE72600020038B50446B5
:105900000D46284600F006F8A84218BF002420469D
:1059100032BD00000149FFF743BF00BF7002002005
:105920000148804701480047F156000831590008F6
:10593000C046C046C046C046FFF7BCFF000000009E
:1059400001020304FFF7FEBFFFF7FEBFFFF7FEBF34
:10595000FFF7FEBFFFF7FEBFFFF7FEBFFFF7FEBF7B
:10596000FFF7FEBFFFF7FEBFFFF7FEBFFFF7FEBF6B
:10597000FFF7FEBFFFF7FEBFFFF7FEBFFFF7FEBF5B
:10598000FFF7FEBFFFF7FEBFFFF7FEBFFFF7FEBF4B
:10599000FFF7FEBFFFF7FEBFFFF7FEBFFFF7FEBF3B
:1059A000FFF7FEBFFFF7FEBFFFF7FEBFFFF7FEBF2B
:1059B000FFF7FEBFFFF7FEBFFFF7FEBFFFF7FEBF1B
:1059C000FFF7FEBFFFF7FEBFFFF7FEBFFFF7FEBF0B
:1059D000FFF7FEBFFFF7FEBFFFF7FEBFFFF7FEBFFB
:1059E000FFF7FEBFFFF7FEBFFFF7FEBFFFF7FEBFEB
:1059F000FFF7FEBFFFF7FEBFFFF7FEBFFFF7FEBFDB
:105A0000FFF7FEBFFFF7FEBFFFF7FEBFFFF7FEBFCA
:105A1000FFF7FEBFFFF7FEBFFFF7FEBFFFF7FEBFBA
:105A2000FFF7FEBFFFF7FEBFFFF7FEBFFFF7FEBFAA
:105A30001003514E0008B50412EF0410031D4F006F
:105A400008470412590412830412B10410030550CC
:105A500000082B04127504128B0412A504100325F0
:105A6000010008AF0412E304100395020008BF040C
:105A700012D10412FB041003250300089904100737
:105A800055040008410500085704127104128D04E2
:105A90001003170600084B0412FD0410032707002B
:105AA000083904126304129104100301080008ADC0
:105AB000041003790900088F0412A90412C5041206
:105AC000E10412FD041003190A0008350412510400
:105AD000126D0412890413010BB41104124D041247
