:020000040800F2
:10000000680600205D51000835510008375100088E
:10001000795100087D51000881510008000000005E
:1000200000000000000000000000000085510008F2
:100030003951000800000000895100083B510008B8
:100040008D51000891510008955100089951000800
:100050009D510008A1510008A5510008A9510008B0
:10006000AD510008B15100083F510008B5510008DA
:10007000B9510008BD510008C1510008C551000820
:10008000C9510008CD510008D151000800000000FE
:10009000000000000000000000000000D551000832
:1000A000D9510008DD510008E1510008E551000870
:1000B000E9510008ED510008F1510008F551000820
:1000C000F9510008FD5100080152000805520008CE
:1000D000095200080D5200081152000800000000EB
:1000E0004551000815520008195200080000000090
:1000F0000000000000000000000000001D52000889
:100100000000000021520008255200082952000872
:1001100000000000000000000000000000000000DF
:100120002D5200083152000835520008395200089B
:100130003D52000800000000000000000000000028
:100140000000000000000000000000004152000814
:1001500045520008495200084D520008515200080B
:10016000555200085952000800000000000000002D
:10017000000000000000000000000000000000007F
:10018000000000005D5200080000000000000000B8
:100190006152000810B582B0044600208DF80000BE
:1001A0006946204600F040FE002831D09DF800004E
:1001B000217888422CD10421204600F0BDFF38B3BD
:1001C0004021204600F03CFE10B30021204600F004
:1001D00056FFE8B1A068DFF89817006801600021B9
:1001E000204600F07BFE98B10C21204600F047FE2F
:1001F00070B10821204600F0FCFF48B110212046D4
:1002000001F026F820B12021204601F050F810B965
:10021000012002B010BD0120E07002B0002010BD2E
:1002200070B5044682B0A068056800208DF8000013
:100230006946204600F0F8FD002849D09DF80000EE
:100240002178884244D12079002839D0A0680668F6
:100250006946204600F061FE002839D09DF8000074
:1002600030B3102822D020281DD0302818D04028A4
:1002700013D050280ED0602809D0702804D08028D0
:1002800023D1DFF87C0313E0DFF8780310E0DFF818
:1002900078030DE0DFF874030AE0DFF8740307E089
:1002A000DFF8700304E0DFF8500301E0DFF84C03EF
:1002B00030600021204600F011FE48B1002020717E
:1002C00000202860E07002B070BDDFF86805306083
:1002D000012002B070BD000010B50446207901284D
:1002E0004AD0A068006890ED000ADFED8F0AB4EEF6
:1002F000600AF1EE10FA48BF102135D4DFED8B0A09
:10030000B4EE600AF1EE10FA48BF20212CD4DFEDE4
:10031000880AB4EE600AF1EE10FA48BF302123D407
:10032000DFED840AB4EE600AF1EE10FA48BF402116
:100330001AD4DFED810AB4EE600AF1EE10FA48BF7C
:10034000502111D4DFED7D0AB4EE600AF1EE10FA0F
:1003500048BF602108D4DFEDA70AB4EE600AF1EED1
:1003600010FA4CBF70218021204600F0B7FD08B97B
:10037000012010BD01202071002010BD30B50446C1
:1003800081B0207900283AD0A068056869462046E7
:1003900000F0C3FD00282DD09DF80000F0B110281A
:1003A0001BD0202817D0302813D040280FD0502839
:1003B0000BD0602807D0702803D0802817D1904830
:1003C0000CE090480AE0904808E0904806E0904829
:1003D00004E0904802E0884800E088482860002156
:1003E000204600F07BFD40B9012001B030BDDFF8B0
:1003F00044042860012001B030BD0020207101B00C
:1004000030BD00B581B000F00FFD401E8041C00F2F
:1004100001B000BD10B582B0044600208DF8000088
:100420006946204600F000FD20B19DF800002178CB
:10043000884202D0012002B010BD002002B010BDE1
:100440002DE9F04184B080460C4601A80021C0E9A6
:100450000011404601A900F070FD002860D001A8FD
:100460009DF80420417802EB01269DF80710827860
:10047000007902EB01279DF8091000EB01250DF131
:100480000101404600F09DFD002849D09DF8010083
:10049000022808BF9FED950A1DD06946404600F02E
:1004A0000DFD00283CD09DF800000C2838D8DFE86E
:1004B00000F0103737370D3737370A37373707002F
:1004C0009FED8C0A07E09FED8C0A04E09FED8B0AFC
:1004D00001E09FED8B0A36B200EE906AF8EEE00A7A
:1004E00060EE800AFDEEE00AC4ED000A3FB200EEC5
:1004F000907AF8EEE00A60EE800AFDEEE00AC4EDC4
:10050000010A2DB200EE905AF8EEE00A20EE800AC1
:10051000BDEEC00A84ED020A002004B0BDE8F081FF
:10052000012004B0BDE8F081010050410100D0413C
:10053000010050420100D042010050430100D0436D
:1005400010B582B00C4669460022C1E9002200F0D5
:10055000F4FC10B9012002B010BD9DF801109DF807
:10056000002002EB012121809DF802209DF803105C
:1005700002EB012161809DF804009DF8051000EB5D
:100580000120A08002B0002010BD000030B581B075
:100590000C4605460DF1010100F013FD68B19DF810
:1005A0000100022804D15148206001B0002030BD74
:1005B0006946284600F082FC10B9012001B030BD28
:1005C0009DF800000C2810D8DFE800F0070F0F0F8F
:1005D000090F0F0F0B0F0F0F0D004948E4E74748B5
:1005E000E2E74548E0E74348DEE79248206001B093
:1005F000012030BD014050440000D0410000504176
:100600000080CF44004050440000D04300005043DD
:100610000000D0420000504210B582B00C4669463E
:1006200000F07BFC10B9012002B010BD9DF8000065
:10063000A0B1102816D0202817D0302818D0402874
:1006400018D0502818D0602818D0702818D08028CA
:1006500018D02748206002B0012010BD206002B0F1
:10066000002010BDDFF82C04F8E7DFF82C04F5E7D4
:10067000BE48F3E7BE48F1E7BE48EFE7BE48EDE706
:10068000BE48EBE7DFF8F803E8E7000000B581B00B
:100690000279012A13D104290ED8DFE801F00909F3
:1006A00007050300402104E0302102E0202100E0A2
:1006B000102100F013FCB0B9012001B000BD80682A
:1006C00000680429F8D8DFE801F00B0B08060400E5
:1006D000F2E7A74906E0A54904E0DFF8BC1301E012
:1006E000DFF8B0130160002001B000BD00008C40B5
:1006F000000080BF00008C4200000C4200008C41D2
:1007000000000C4100B581B001790129DFED900AAC
:1007100043D1B4EE600AF1EE10FA48BF102135D48F
:10072000DFED8C0AB4EE600AF1EE10FA48BF20212A
:100730002CD4DFED890AB4EE600AF1EE10FA48BF5E
:10074000302123D4DFED850AB4EE600AF1EE10FA11
:1007500048BF40211AD4DFED820AB4EE600AF1EE00
:1007600010FA48BF502111D4DFED7E0AB4EE600AC2
:10077000F1EE10FA48BF602108D4DFED7B0AB4EE39
:10078000600AF1EE10FA4CBF7021802100F0A6FB48
:1007900000284BD1012001B000BD80680068B4EE94
:1007A000600AF1EE10FA48BFB2EE0A0A3CD4DFED5F
:1007B000690AB4EE600AF1EE10FA48BFB3EE0A0A15
:1007C00032D4DFED650AB4EE600AF1EE10FA48BFEC
:1007D0009FED660A28D4DFED610AB4EE600AF1EEFF
:1007E00010FA48BF9FED620A1ED4DFED5D0AB4EE39
:1007F000600AF1EE10FA48BF9FED5E0A14D4DFEDF7
:10080000590AB4EE600AF1EE10FA48BF9FED5A0A99
:100810000AD4DFED550AB4EE600AF1EE10FA4CBFCF
:100820009FED560A9FED960A80ED000A002001B068
:1008300000BD0000000080BF30B581B00C46054609
:10084000694600F0BEFB28B10DF10101284600F019
:1008500035FB10B9012001B030BD9DF80000022821
:1008600005D1DFF8EC02206001B0002030BD9DF81A
:1008700001000C2814D8DFE800F0071313130A1343
:1008800013130D1313131000DFF8C802EBE7DFF8A2
:10089000C802E8E7DFF8C402E5E7DFF8C402E2E7F0
:1008A000DFF8C003206001B0012030BD00B504298D
:1008B00081B010D8DFE801F0030F0B0F0D0000210D
:1008C00000F0DDFA401E8041C00F01B000BD0421E0
:1008D000F6E70C21F4E7012001B000BD30B5DFEDF3
:1008E000690AB4EE600AF1EE10FA81B0044606D54A
:1008F000022100F047FB38B3002001B030BDDFED2E
:10090000620AB4EE600AF1EE10FA48BF002511D475
:10091000DFED5E0AB4EE600AF1EE10FA48BF04257E
:1009200008D4DFED5B0AB4EE600AF1EE10FA4CBFBA
:1009300008250C25002100F025FB28B1294620467A
:1009400000F09DFA0028D7D1012001B030BD000091
:10095000010050410100D041010050420100D0424D
:10096000010050430100D043014050440000504278
:100970000000D042000050430000D04300405044EB
:1009800030B581B00D4604460DF1020100F050FC77
:1009900050B10DF10101204600F079FC20B169460B
:1009A000204600F0A3FC10B9012001B030BD9DF835
:1009B000020008280CBF0120002028709DF80100CB
:1009C00010280CBF0120002068709DF8000020282E
:1009D0000CBF01200020A87001B0002030BD30B550
:1009E0000D4681B00446287801280CBF082100215B
:1009F000204600F0FEFB40B1687801280CBF1021B2
:100A00000021204600F024FC10B9012001B030BDC7
:100A1000A87801280CBF20210021204600F047FCC7
:100A2000401E8041C00F01B030BD00B581B0012330
:100A300000F0F1F9401E8041C00F01B000BD00B5CB
:100A400081B001238DF800206A4600F0DBF9401EDA
:100A50008041C00F01B000BD10B582B00C466946A0
:100A600000F054FC48B19DF8000010B1022804D1F8
:100A70000120207002B0002010BD012002B010BD86
:100A80000080CF440100FA42010075430100FA439F
:100A900001007A44000050410000D041DFED720AAD
:100AA00000B5B4EE600AF1EE10FA81B048BF08213B
:100AB00047D4DFED6E0AB4EE600AF1EE10FA48BFDB
:100AC00010213ED4DFED900AB4EE600AF1EE10FA88
:100AD00048BF182135D4DFED8D0AB4EE600AF1EE7F
:100AE00010FA48BF20212CD4DFED890AB4EE600A49
:100AF000F1EE10FA48BF282123D4DFED860AB4EEC8
:100B0000600AF1EE10FA48BF30211AD4DFED820AF4
:100B1000B4EE600AF1EE10FA48BF382111D4DFEDCF
:100B20007F0AB4EE600AF1EE10FA48BF402108D403
:100B3000DFED7B0AB4EE600AF1EE10FA4CBF4821FB
:100B4000502100F0BBFA401E8041C00F01B000BD33
:100B50000000FA42000075430000FA4300007A44A6
:100B60000000FA4410B582B00C46694600F00FFC54
:100B700068B19DF8000020B1202806D0012002B005
:100B800010BD207002B0002010BD0120F9E7012047
:100B900002B010BD10B582B00C46694600F0E7FB0C
:100BA00068B19DF8000020B1102806D0012002B0E5
:100BB00010BD207002B0002010BD0120F9E7012017
:100BC00002B010BD10B582B00C46694600F0EFFBD4
:100BD00068B19DF8000020B1402806D0012002B085
:100BE00010BD207002B0002010BD0120F9E70120E7
:100BF00002B010BD00B581B000F0E9FB401E80419D
:100C0000C00F01B000BD00B581B000F020FC401E57
:100C10008041C00F01B000BD00B581B000F086FB7F
:100C2000401E8041C00F01B000BD00B50A0018BFD2
:100C3000082981B00BD0102918BF182907D0202906
:100C400018BF282903D0302918BF382906D100F051
:100C5000F7F9401E8041C00F01B000BD012001B076
:100C600000BD0000000080BF010020410100C8411C
:100C700070B582B00D4604460DF1020100F0E7FBAD
:100C800000283ED09DF803009DF8021041EA00269E
:100C90000DF10101204600F094F9002831D09DF8B3
:100CA0000100022808BF9FED1F0A1CD0694620469C
:100CB00000F004F928B39DF800000C2821D8DFE8E3
:100CC00000F0102020200D2020200A2020200700E6
:100CD0009FED150A07E09FED150A04E09FED140A49
:100CE00001E09FED140A36B200EE906AF8EEE00AD9
:100CF00020EE800ABDEEC00A85ED000A002002B099
:100D000070BD012002B070BD010048420100C84220
:100D1000010048430100C843010048440100C844A1
:100D200001404E4500008C4000008C4200000C4207
:100D300000008C4100000C4100B5062981B00CD8A0
:100D4000DFE801F004040B04040B040000F097F941
:100D5000401E8041C00F01B000BD012001B000BDA8
:100D600000B50A0018BF202981B006D100F0C5F9EE
:100D7000401E8041C00F01B000BD012001B000BD88
:100D800000B581B000F02DF9401E8041C00F01B0C8
:100D900000BD00B5012981B006D800F0ECF9401E75
:100DA0008041C00F01B000BD012001B000BD00B501
:100DB000012981B006D800F02BFB401E8041C00FF6
:100DC00001B000BD012001B000BD000000B50C293C
:100DD00081B00FD8DFE801F0070E0E0E070E0E0EE1
:100DE000070E0E0E070000F0E5F9401E8041C00F0F
:100DF00001B000BD012001B000BD0268531C0360BA
:100E00001170704700B581B000F0D8FB401E8041E2
:100E1000C00F01B000BD00B581B000F0E6FB401E80
:100E20008041C00F01B000BD00B50A4681B001236A
:100E30000F2100F0DAFB401E8041C00F01B000BD61
:100E400030B581B00D46044601236A46122100F0F8
:100E5000CCFB10B1002001B030BD9DF8000000F0C7
:100E6000BF0028438DF8000001236A461221204666
:100E700000F0A4FB401E8041C00F01B030BD30B572
:100E800081B00D46044601236A46112100F0ADFBF6
:100E900010B1002001B030BD9DF8000000F0F3005B
:100EA00028438DF8000001236A461121204600F0F6
:100EB00085FB401E8041C00F01B030BD10B50C460F
:100EC00001232246112100F090FB08B1002010BD43
:100ED000207800F00C002070012010BD30B581B0EA
:100EE0000D46044601236A46112100F07EFB10B135
:100EF000002001B030BD9DF8000000F00F00284335
:100F00008DF8000001236A461121204600F056FBAF
:100F1000401E8041C00F01B030BD10B50C4601230A
:100F20002246112100F061FB08B1002010BD20789D
:100F300000F0F0002070012010BDF0B581B0044633
:100F40000D4600260327F6B206F122010123AA1955
:100F5000C9B2204600F049FB50B9761CF6B206F142
:100F600022010123AA19C9B2204600F03EFB10B1AC
:100F7000002001B0F0BD761C7F1EE4D1012001B03D
:100F8000F0BD000030B581B00D46044601236A462D
:100F9000112100F02AFB10B1002001B030BD9DF8F6
:100FA000000000F0FD0028438DF8000001236A4690
:100FB0001121204600F002FB401E8041C00F01B00D
:100FC00030BD10B50C4601232246112100F00DFB67
:100FD00008B1002010BD207800F002002070012030
:100FE00010BD70B582B0044601236A460D46062145
:100FF00000F0FBFA2E0A78B98DF8005001236A46FA
:101000000621204600F0DAFA30B901236A460721AA
:10101000204600F0EAFA10B1002002B070BD9DF841
:10102000000066F303008DF8000001236A460721E3
:10103000204600F0C3FA401E8041C00F02B070BDD0
:1010400030B581B00D46044601236A46082100F000
:10105000CCFA10B1002001B030BD9DF8000000F0C6
:10106000C70028438DF8000001236A460821204666
:1010700000F0A4FA401E8041C00F01B030BD30B571
:1010800081B00D46044601236A460A2100F0ADFAFC
:1010900010B1002001B030BD9DF8000000F0F80054
:1010A00028438DF8000001236A460A21204600F0FB
:1010B00085FA401E8041C00F01B030BD30B581B00F
:1010C0000D46044601236A460A2100F08EFA10B14B
:1010D000002001B030BD9DF8000000F087002843DB
:1010E0008DF8000001236A460A21204600F066FAC6
:1010F000401E8041C00F01B030BD30B581B00D46FB
:10110000044601236A460D2100F06FFA10B1002059
:1011100001B030BD9DF8000000F0DF0028438DF8DD
:10112000000001236A460D21204600F047FA401EC8
:101130008041C00F01B030BD30B581B00D460446CE
:1011400001236A46122100F050FA10B1002001B0CC
:1011500030BD9DF8000000F0FB0028438DF8000032
:1011600001236A461221204600F028FA401E8041E1
:10117000C00F01B030BD30B581B00D46044601232B
:101180006A46132100F031FA10B1002001B030BDE1
:101190009DF8000000F0FE0028438DF800000123B8
:1011A0006A461321204600F009FA401E8041C00F14
:1011B00001B030BD30B581B00D46044601236A460A
:1011C000142100F012FA10B1002001B030BD9DF8DA
:1011D000000000F0F30028438DF8000001236A4668
:1011E0001421204600F0EAF9401E8041C00F01B0F2
:1011F00030BD30B581B00D46044601236A46192141
:1012000000F0F3F910B1002001B030BD9DF80000EE
:1012100000F0F70028438DF8000001236A461921E9
:10122000204600F0CBF9401E8041C00F01B030BD18
:1012300010B50C4601232246192100F0D6F908B159
:10124000002010BD207800F008002070012010BDA3
:1012500030B581B00D46044601236A46192100F0DD
:10126000C4F910B1002001B030BD9DF8000000F0BD
:10127000EF0028438DF8000001236A46192120461B
:1012800000F09CF9401E8041C00F01B030BD10B588
:101290000C4601232246192100F0A7F908B10020CD
:1012A00010BD207800F010002070012010BD30B576
:1012B00081B00D46044601236A46192100F095F9D4
:1012C00010B1002001B030BD9DF8000000F0DF003B
:1012D00028438DF8000001236A461921204600F0BA
:1012E0006DF9401E8041C00F01B030BD10B50C46F5
:1012F00001232246192100F078F908B1002010BD21
:10130000207800F020002070012010BD10B50C46A0
:10131000012322461E2100F068F908B1002010BD0B
:10132000207800F002002070012010BD30B581B09F
:101330000D46044601236A463A2100F056F938B9B1
:1013400001230DF101023B21204600F04EF910B1BE
:10135000002001B030BD9DF801009DF8001000F0A4
:101360000F0041EA0020288001B0012030BD10B5F7
:101370000C46012322463B2100F037F908B100203A
:1013800010BD207800F010002070012010BD10B5B5
:101390000C46012322463B2100F027F908B100202A
:1013A00010BD207800F020002070012010BD10B585
:1013B0000C46012322463B2100F017F908B100201A
:1013C00010BD207800F040002070012010BD30B525
:1013D00081B00D46044601236A463C2100F005F920
:1013E00038B901230DF101023D21204600F0FDF83E
:1013F00010B1002001B030BD9DF801009DF8001033
:1014000000F0030041EA0020288001B0012030BD37
:1014100030B581B00D46044601236A46582100F0DC
:10142000E4F810B1002001B030BD9DF8000000F0DC
:10143000FE0028438DF8000001236A46582120460B
:1014400000F0BCF8401E8041C00F01B030BD30B587
:101450000D4681B0044601232A463E2100F0C5F81E
:1014600030B901236A1C3F21204600F0BEF810B1BC
:10147000002001B030BD012001B030BD30B5954C29
:1014800087B0204600F0C6FD00284BD19248934D0E
:10149000606001A90020A0603320E0604FF480402C
:1014A00020618F48206000200090286940F00200F1
:1014B0002861286900F00200009000984FF4407005
:1014C000019012200290022004900020039004203A
:1014D0000590844800F0A2FD002000900022286AB8
:1014E00040F4001028620021286A00F400100090E7
:1014F0000098286840F400102860286820F4001044
:1015000028601F2000F083FE1F2000F0A9FE0022AB
:101510000021202000F07BFE202000F0A1FE2046CC
:1015200000F0E8F8204600F075FD20280CBF0020F0
:10153000012007B030BD30B58BB00020009006A967
:10154000694D6A4C286840F001002860286800F066
:101550000100009000980794102006900220099046
:1015600000200890624800F059FD002200210A2066
:1015700000F04DFE0A2000F073FE0020009001A94B
:10158000286840F002002860286800F002000090FF
:101590000098029401200190022004900020039002
:1015A000504800F03BFD00220021062000F02FFEF5
:1015B000062000F055FE00200BB030BD30B583B0E2
:1015C0004FF48055009202950A4601930123417819
:1015D000404C204600F01EF928B1204600F0F9F8F2
:1015E00000F01AF8012003B030BD30B583B04FF4DD
:1015F0008055009202950A46019301234178354CAB
:10160000204600F087FA28B1204600F0E2F800F00A
:1016100003F8012003B030BD30B52E4C87B0204612
:1016200000F0F8FC00284BD12B482C4D606001A93C
:101630000020A0603320E0604FF480402061284803
:10164000206000200090286940F00200286128698D
:1016500000F00200009000984FF4407001901220BA
:1016600002900220049000200390042005901D4861
:1016700000F0D4FC002000900022286A40F4001002
:1016800028620021286A00F4001000900098286861
:1016900040F400102860286820F4001028601F2003
:1016A00000F0B5FD1F2000F0DBFD0022002120200E
:1016B00000F0ADFD202000F0D3FD204600F01AF828
:1016C000204600F0A7FC20280CBF0020012007B016
:1016D00030BD0000A8090020801A06002038024012
:1016E0000054004000040240303802400000111055
:1016F0000000024030B5040081B008BF012066D070
:1017000094F83D0020B984F83C00204600F085FCA8
:10171000242084F83D0020680168490849000160E0
:1017200000F077FEDFF8E020A0FB02212268C90C60
:1017300051606368DFF8D420934208D34FF4967366
:1017400013FB01F1DFF8C850A1FB0553590A2368C8
:10175000491C19626168914208D24900B0FBF1F05E
:10176000C0F30B01042913D2042011E0A26822B9AE
:1017700001EB4101B0FBF1F005E019225143B0FB50
:10178000F1F040F4804001050CBF012040F400401E
:101790002168C861E069216A0843216808602069FE
:1017A000E1680843216888606069A169084321688D
:1017B000C8602068016841F00101016000202064D8
:1017C000202084F83D000020206384F83E0001B012
:1017D00030BD10B5040001D1012010BD242084F8D3
:1017E0003D0020680168490849000160204600F07A
:1017F0006FFE0020206484F83D00206384F83E00E2
:1018000084F83C0010BD000006BD3786A1860100AB
:10181000986E12832DE9F043054681B095F83D009E
:101820002028884614461F4615D100F053FE064670
:1018300042F2117928688169890710D500F04AFEC3
:10184000801B4845F6D300202863202085F83D0002
:10185000002085F83C00022001B0BDE8F08395F837
:101860003C100129F7D0012185F83C10016821F4D2
:1018700000610160212085F83D00402085F83E0090
:1018800000202864A248E8622868016841F4807159
:10189000016000F01FFE0A9E814628684169C90761
:1018A0001CD416F1010FF8D02EB100F013FEA0EBFE
:1018B00009008642F1D200202863202085F83D00EF
:1018C000002085F83C00286C042840F09780002018
:1018D00085F83C0001B00120BDE8F08308F0FE016E
:1018E000016100F0F7FD804628684169890721D42D
:1018F000416949050AD5016841F4007101606FF43E
:101900008060296848610420286409E016F1010F0D
:10191000EAD02EB100F0DEFDA0EB08008642E3D253
:1019200000202863202085F83D00002085F83C0039
:10193000286CC8E7002100914169009180690090FE
:10194000009800F0C7FD804629684869000626D443
:101950004869400515D56FF480604861042028640B
:1019600000202863202085F83D00002085F83C00F9
:10197000286C0428A7D12868016841F4007101602F
:10198000A1E716F1010FDFD02EB100F0A3FDA0EB0F
:1019900008008642D8D2286C40F02000DFE7012FF3
:1019A00026D0200A086100F095FD074628684169A5
:1019B00009061DD44169490504D56FF48061416170
:1019C00004200BE016F1010FF0D026B100F082FDEB
:1019D000C01B8642EAD2286C40F020002864002018
:1019E0002863202085F83D00002085F83C00BFE7F3
:1019F0002868E4B20461089F099C0BE0002085F888
:101A00003C00032001B0BDE8F08300BF17F8011BC4
:101A10000161641EA0B200283BD000F05BFD80464F
:101A200028684169090629D44169490518D56FF428
:101A3000806141610420286400202863202085F80B
:101A40003D00002085F83C00286C0428D9D1286886
:101A5000016841F400710160012001B0BDE8F0832C
:101A600016F1010FDCD02EB100F034FDA0EB080020
:101A70008642D5D2286C40F02000DCE717F8011B25
:101A80000161641E286841694907C3D5A1B20029D4
:101A9000BCD100F01FFD044628684169090628D41E
:101AA0004169490518D56FF48061416104202864BB
:101AB00000202863202085F83D00002085F83C00A8
:101AC000286C04289DD12868016841F400710160E8
:101AD000012001B0BDE8F08316F1010FDCD026B182
:101AE00000F0F8FC001B8642D6D2286C40F02000A3
:101AF000DDE7016841F400710160202085F83D00B8
:101B0000002085F83E0085F83C0001B0BDE8F08378
:101B10000000FFFF2DE9F043054681B095F83D0038
:101B200020280C461746984615D100F0D3FC0646EF
:101B300042F2117928688169890710D500F0CAFC42
:101B4000801B4845F6D300202863202085F83D00FF
:101B5000002085F83C00022001B0BDE8F08395F834
:101B60003C100129F7D0012185F83C10016821F4CF
:101B700000610160222085F83D00402085F83E008C
:101B800000202864DFF88804E8622868016841F4CE
:101B9000806101602868016841F48071016000F093
:101BA00099FC0A9E814628684169C9070CD416F140
:101BB000010FF8D0002E00F0CE8000F08BFCA0EBDF
:101BC00009008642EFD2C6E004F0FE01016100F098
:101BD00081FC814628684169890720D4416949050B
:101BE0000AD5016841F4007101606FF480602968D2
:101BF00048610420286409E016F1010FEAD02EB1F3
:101C000000F068FCA0EB09008642E3D200202863C4
:101C1000202085F83D00002085F83C00C4E000212C
:101C200000914169009180690090009800F052FC99
:101C300081462968486900061ED4486940050DD5CB
:101C40006FF480604861042028640020286320200D
:101C500085F83D00002085F83C005FE016F1010F9B
:101C6000E7D02EB100F036FCA0EB09008642E0D2AE
:101C7000286C40F02000E7E7B8F1010F27D0380AC0
:101C8000086100F027FC80462868416909061ED4D7
:101C90004169490504D56FF48061416104200CE07D
:101CA00016F1010FF0D02EB100F014FCA0EB0800EB
:101CB0008642E9D2286C40F0200028640020286386
:101CC000202085F83D00002085F83C0026E02868AB
:101CD000FFB2076100F0FEFB07462868416909066C
:101CE00025D44169490504D56FF480614161042020
:101CF0000BE016F1010FF0D026B100F0EBFBC01B9A
:101D00008642EAD2286C40F0200028640020286334
:101D1000202085F83D00002085F83C00286C042830
:101D200043D12868016841F4007101603DE0016819
:101D300041F48071016000F0CDFB074628684169DD
:101D4000C90711D416F1010FF8D026B100F0C2FB7B
:101D5000C01B8642F2D200202863202085F83D0077
:101D6000002085F83C0020E044F00101C9B2016187
:101D700000F0B0FB04462868416989072AD441690C
:101D800049051CD5016841F4007101606FF4806061
:101D9000296848610420286400202863202085F8F1
:101DA0003D00002085F83C00286C286C04282AD1CE
:101DB000002085F83C00012001B0BDE8F08316F159
:101DC000010FD8D0002EE7D000F084FB001B864224
:101DD000D1D2E1E7099C21001CD100210091416989
:101DE0000091816900910099016841F400710160DE
:101DF000202085F83D00002085F83E0085F83C0055
:101E000001B0BDE8F083002085F83C00032001B05C
:101E1000BDE8F083012C11D1016821F480610160DB
:101E20000020009028684169009181690091009923
:101E3000016841F400710160089F29E0022C12D171
:101E4000016821F4806101602868016841F4006143
:101E5000016000200090286841690091806900902D
:101E60000098089F14E000210091F5E726B100F0EA
:101E700031FB001B864214D2286C40F020002864FD
:101E80001CE0006907F8010B0024A0B20028AFD0C5
:101E9000A4B2042C80F08380012C1CD100F01AFB2A
:101EA0000446286841694906EBD44169C906DDD575
:101EB0006FF010014161002028642863202085F81C
:101EC0003D00002085F83C00286C20289ED0012091
:101ED00001B0BDE8F083022C1FD100F0FBFA0446EC
:101EE0002868416949070ED416F1010FF8D026B1D0
:101EF00000F0F0FA001B8642F2D200202863202076
:101F000085F83D007FE7016841F4007101602868B1
:101F1000006907F8010B2868B3E700F0DBFA804698
:101F20002868416949070FD416F1010FF8D02EB186
:101F300000F0D0FAA0EB08008642F1D2002028631E
:101F4000202085F83D005EE7016821F48061016092
:101F500028680069387000F0BDFA80462868416939
:101F600049070FD416F1010FF8D02EB100F0B2FAE4
:101F7000A0EB08008642F1D200202863202085F8DB
:101F80003D0040E7016841F400710160E41E2868EB
:101F90000069787028680069B870FF1C75E700F068
:101FA00099FA804628684169490622D44169C906E0
:101FB00013D56FF0100141610020286428632020B0
:101FC00085F83D00002085F83C00286C20287FF42F
:101FD000F2AE032001B0BDE8F0832EB100F07AFA32
:101FE000A0EB08008642DDD2286C40F02000286477
:101FF000E5E7006907F8010B641E28684169490795
:102000007FF543AF006907F8010B641E3DE7000050
:102010000000FFFF90F83D00704770472DE9F04F3A
:10202000002381B0024600249946DFF8A4A1694F3D
:102030004FF00F0E01200D68984000EA050880451A
:1020400040F0A7804D68022D18BF122D11D1DD0878
:1020500002EB850C09F01C05DCF820600EFA05FB8C
:1020600026EA0B06D1F810B00BFA05F53543CCF88B
:10207000205003261568A6406FEA060C0E7906F07C
:1020800003060CEA0505A640354315604D68012D91
:1020900018BF022D03D0112D18BF122D0FD1956836
:1020A000CE680CEA0505A64035439560556825EADB
:1020B00000004D68C5F300159D4028435060D0686E
:1020C0008D680CEA0000A5402843D0604868C00035
:1020D0005FD50020009009F00C0C38683E4E40F4AB
:1020E00080403860386800F480400090009898087C
:1020F00056F820500EFA0CF6B543384EB24208BFDF
:10210000002613D0364EB24208BF01260ED0354EFF
:10211000B24208BF022609D0334EB24208BF03269E
:1021200004D0324EB2420CBF0426052606FA0CF645
:102130002E43294D45F820606FEA0800DAF8005078
:1021400000EA050C4D68ED0348BF48EA0C0CCAF8DC
:1021500000C0DAF8045000EA050C4D68AD0348BF32
:1021600048EA0C0CCAF804C0DAF8085000EA050C7A
:102170004D68ED0248BF48EA0C0CCAF808C0DAF80E
:102180000C5028404D68AD0248BF48EA0000CAF82C
:102190000C005B1CA41C102B09F10409FFF44AAFCE
:1021A00001B0BDE8F08F00690840401E8041C04387
:1021B000C00F704702B90904816170470C4A136867
:1021C00003421CBF106000F000BC7047000000001C
:1021D000003C014044380240083801400000024001
:1021E0000004024000080240000C024000100240BF
:1021F000143C014027490A684FF6FF0300021A40C9
:1022000000F4E0601043244A10430860704730B483
:10221000204B1B68C3F30223C3F10704052C28BF1E
:1022200004241D1D072D34BF0023DB1E012505FAE4
:1022300004F4641E2140994005FA03F35B1E1A4022
:1022400011430901002807D5144A00F00F0010447B
:1022500000F8041C30BC7047114A115430BC704760
:10226000012100F01F0291400E4A400942F820105F
:102270007047401EB0F1807F01D3012070470A49AA
:102280004860F02081F8130D002088600720086066
:10229000002070470CED00E00000FA0518ED00E0AA
:1022A00000E400E000E100E010E000E0F0B56D4E79
:1022B00081B00446D6F800040D4600F00F00A84295
:1022C00007D286F80054D6F8000400F00F00A842A8
:1022D00072D12078800705D5B068A16820F0F000A1
:1022E0000843B0602078C00758D56068012802D143
:1022F0003168890305E0022818BF032805D1316839
:10230000890105D4012001B0F0BD3168890753D59A
:10231000B168890840EA8100B06000F0DBF8074648
:10232000606801280ED1B06800F00C00042835D098
:1023300000F0D0F8C01B41F289318842F3D303206A
:1023400001B0F0BD02280ED1B06800F00C000828E2
:1023500024D000F0BFF8C01B41F289318842F3D38A
:10236000032001B0F0BD03280AD1B06800F0B2F834
:10237000C01B41F289318842F7D3032001B0F0BD80
:10238000B06810F00C0F09D000F0A4F8C01B41F2A7
:1023900089318842F4D3032001B0F0BDD6F800049F
:1023A00000F00F0085420AD286F80054D6F80004E7
:1023B00000F00F00A84202D0012001B0F0BD20784B
:1023C000400705D5B068E16820F4E0500843B060EC
:1023D0002078000706D5B068216920F4604040EA03
:1023E000C100B0600F2000F0EBFB002001B0F0BD99
:1023F00000B581B000F044F81B4B0FF274021B686B
:102400001A49C3F30313D25CD040086001B00868D6
:1024100000BD10B500F034F8134B0FF254021C68E5
:102420001249C4F30314145DE04008600868196899
:10243000C1F38221515CC84010BD10B500F020F8F6
:10244000094B0FF22C021C680849C4F30314145DF5
:10245000E040086008681968C1F34231515CC84027
:1024600010BD00000038024008380240EC01002096
:10247000000000000102030401020304060708092A
:102480001048416801F00C01042903D0082903D049
:102490000D4870470D48704701680268520201F00C
:1024A0003F014CBF094A084AB2FBF1F102680068DB
:1024B000C0F30140C2F38812401C51434000B1FBFD
:1024C000F0F07047043802400024F40000127A0053
:1024D0007047000001480068704700BF400A0020B4
:1024E0002DE9F04786B000208DF80A00039000F037
:1024F0007BFB00F097FB002000F0DCFB01210020BB
:1025000000F018FC00F072FCDFF83045211D0120BE
:1025100000F0CCFC012821D10FF228520FF2846187
:1025200004F1080000F022FE04F1080000F038FE7B
:1025300082B241F2883304F10801DFF8040500F0AB
:102540007BFE002000F0E0FB642001F039F8002061
:1025500000F0E5FB642001F033F8F2E7606800F07A
:1025600055FD012821D10FF2DC420FF2386104F150
:10257000080000F0FBFD04F1080000F011FE82B23B
:1025800041F2883304F10801DFF8B40400F054FE8E
:10259000002000F0B9FB642001F012F8002000F0E8
:1025A000BEFB642001F00CF8F2E76068002100F047
:1025B0003DFD01281ED06068082100F082FD012841
:1025C00018D060689FED560A00F040FD012811D038
:1025D0006068202100F0A0FD01280BD060681F2159
:1025E00000F0A8FD012805D06068012100F0B0FDD1
:1025F000012821D10FF24C420FF2A85104F108003A
:1026000000F0B4FD04F1080000F0CAFD82B241F20E
:10261000883304F10801DFF8280400F00DFE0020E3
:1026200000F072FB642000F0CBFF002000F077FB8D
:10263000642000F0C5FFF2E70FF2104104F108003A
:1026400000F094FD04F1080000F0AAFD41F2883981
:1026500082B24B4604F10801DFF8E40300F0ECFD20
:1026600001E0022060706078042800F28E81DFE8CB
:1026700010F00500060043006D005101F3E70FF272
:10268000244104F1080000F071FD04F1080000F09D
:1026900087FD82B24B4604F10801DFF8A40300F085
:1026A000CBFD4FF47A7000F08BFF6068012100F0E1
:1026B00025FD0128D5D10FF28C320FF2E84104F14B
:1026C000080000F053FD04F1080000F069FD82B23B
:1026D0004B4604F10801DFF8680300F0ADFD00206F
:1026E00000F012FB642000F06BFF002000F017FBED
:1026F000642000F065FFF2E7606803A900F0D2FCF7
:10270000012802D106B0BDE8F087BDF80C00BDF885
:102710000E10884215D0ADF80E00C7A102E000BF30
:102720000040CE4504F1080000F020FD04F108004F
:1027300000F036FD82B24B4604F10801C04800F0BB
:102740007BFD207800288ED003208BE760680DF198
:102750000A0100F089FC01281FD10FF2E8220FF2D4
:10276000444104F1080000F001FD04F1080000F00C
:1027700017FD82B24B4604F10801B14800F05CFD40
:10278000002000F0C1FA642000F01AFF002000F0E1
:10279000C6FA642000F014FFF2E79DF80A00012851
:1027A0007FF461AF002000F0AFFA0020ADF8080020
:1027B0008246606802A900F075FC012800F08A805A
:1027C000BDF808004AF6AB214143480CADF80800BB
:1027D00002460FF2043104F1080000F0C7FC04F1D6
:1027E000080000F0DDFC82B24B4604F10801944879
:1027F00000F022FD4FF47A7000F0E2FE0FF220317B
:1028000004F1080000F0B2FC04F1080000F0C8FC7C
:1028100082B24B4604F10801894800F00DFD1CE02E
:10282000DDF814807F1E24D11FFA8AF00196421C25
:10283000009543460FF2343104F1080000F096FC95
:1028400004F1080000F0ACFC82B24B4604F1080130
:102850007B4800F0F1FC0AF1010ABDF8080082454E
:102860001FDA0020ADF810000590804600250026F4
:102870000327606804A900F006FC01282AD06068DC
:1028800005A900F02CFC012824D0BDF81000002878
:10289000C6D0022801D002D31CE0059EC2E7059DE8
:1028A000C0E70FF2A82104F1080000F05FFC04F17A
:1028B000080000F075FC82B24B4604F10801604844
:1028C00000F0BAFC642000F07BFE002000F027FA44
:1028D0000420C7E60FF26C120FF2C82104F10800C1
:1028E00000F044FC04F1080000F05AFC82B24B46B0
:1028F00004F10801524800F09FFC002000F004FAA7
:10290000642000F05DFE002000F009FA642000F071
:1029100057FEF2E76068002100F0F0FB012814D0B8
:102920000FF2541104F1080000F020FC04F108003B
:1029300000F036FC82B24B4604F10801404800F03A
:102940007BFC0020207003908CE60FF2F8020FF25F
:10295000542104F1080000F009FC04F1080000F023
:102960001FFC82B24B4604F10801354800F064FCBC
:10297000002000F0C9F9642000F022FE002000F0E1
:10298000CEF9642000F01CFEF2E70FF2B8020FF25D
:10299000142104F1080000F0E9FB04F1080000F044
:1029A000FFFB82B24B4604F10801254800F044FCCD
:1029B000002000F0A9F9642000F002FE002000F0E1
:1029C000AEF9642000F0FCFDF2E710B5B0F5005F51
:1029D0000BD1002000F0F2F9002802BF174C6078FC
:1029E000002804BF0120607010BD1028134C02D1D4
:1029F0000120207010BD0FF294120FF2A81104F103
:102A0000080000F0B3FB04F1080000F0C9FB82B23B
:102A100041F2883304F10801094800F00DFC002060
:102A200000F072F9642000F0CBFD002000F077F98F
:102A3000642000F0C5FDF2E72E000000DC0000205D
:102A4000680800206D61696E000000000D0A2D2DE0
:102A50002D2D2D2D204C534D3644533320464946C1
:102A60004F204D6F64652044454D4F202D2D2D2D59
:102A70002D2D0D0A0D0A00005072657373205553F9
:102A8000455220627574746F6E20746F2073746188
:102A90007274207468652044454D4F2E2E2E0D0A09
:102AA000000000000D0A4C534D364453332073741C
:102AB0006172747320746F2073746F726520746810
:102AC00065206461746120696E746F204649464FC9
:102AD0002E2E2E0D0A0D0A000D0A0D0A25642073F4
:102AE000616D706C657320696E204649464F2E0DEE
:102AF0000A0D0A5374617274656420646F776E6C9A
:102B00006F6164696E6720646174612066726F6DC5
:102B1000204649464F2E2E2E0D0A0D0A00000000B9
:102B20005B444154412023235D202020202047592D
:102B3000525F5820202020204759525F59202020E2
:102B400020204759525F5A0D0A0000000D0A4649DD
:102B5000464F20646F776E6C6F616420636F6D7099
:102B60006C657465642E0D0A0D0A00005B444154C7
:102B70004120253032645D202025386C64202025DA
:102B8000386C64202025386C640D0A0048414C5F85
:102B90004750494F5F455854495F43616C6C6261CF
:102BA000636B00000D0A4572726F7220696E2027F8
:102BB0002573272066756E6374696F6E2E0D0A008B
:102BC00010B50446FFF714FC064AA0FB0221480A90
:102BD000FFF74FFB002221464FF0FF30FFF717FBB6
:102BE000002010BD986E128300B50C4881B00168BA
:102BF00041F400710160016841F480610160016885
:102C000041F4807101600320FFF7F4FA0F20FFF711
:102C1000D7FF00F005F8002001B000BD003C0240E5
:102C20007047000000B593B0002000901F48016875
:102C300041F080510160006800F0805000900098E1
:102C4000002000901A48016821F4404141F40041FD
:102C50000160006800F44040009000980220069057
:102C60000120099010200A9002200C9000200D9065
:102C700010200E904FF4A8700F90042010900720A1
:102C8000119006A800F0AAFC0F200190022102205A
:102C90000290002003904FF4805004900020059093
:102CA00001A8FFF703FB13B000BD00BF403802408E
:102CB0000070004070B586B0044600200090DFF838
:102CC0001061DFF81001016841F00101016001A904
:102CD000006800F00100009000980FF2041030F836
:102CE00014500195012002900020039002200490CE
:102CF00056F82400FFF792F956F8240000222946DE
:102D0000FFF758FA06B070BD0FF2D401DFF8C030FB
:102D100031F8101053F820000122FFF74BBA0FF2E0
:102D2000C001DFF8AC3031F8101053F82000002259
:102D3000FFF740BA30B587B00446002000900D463A
:102D4000DFF89000016841F004010160006800F0C4
:102D5000040000902800009810D10FF2880030F88D
:102D60001400019001A90020029002200390049019
:102D7000DFF8640050F82400FFF750F9012D1BD153
:102D80000FF2600030F81400019001A900200390B8
:102D9000DFF848000290DFF8400050F82400FFF709
:102DA0003DF90FF24400045D00220F2160B2FFF7ED
:102DB0002EFA60B2FFF754FA07B030BD0FF22401CB
:102DC000DFF8142031F8101052F82000FFF7EBB9AB
:102DD000E401002030380240E8010020000021100A
:102DE00020000000002000002800000010B586B080
:102DF00000200090294C2A48016841F0010101603F
:102E0000016801F001010091009900210091016821
:102E100041F001010160016801F001010091009998
:102E200000210091016941F40031016101A90069AB
:102E300000F40030009000980420019002200290DD
:102E40000020039002200490072005902046FFF701
:102E5000E5F80820019001A9072005902046FFF71A
:102E6000DDF8104C104820604FF4E1306060002025
:102E7000A060E0602061A0610C206061204600F04D
:102E8000ABF900B1FEE704F14000A0624FF480709E
:102E9000A0850020E06306B010BD000000000240E5
:102EA00030380240680800200044004010B50C464D
:102EB0000021216068B10128204611D000F056F8A9
:102EC000012804D1204600F011F801280CD0002080
:102ED00010BD204600F00AF80128F8D1012010BDED
:102EE00000F044F80128F2D1012010BD30B5424D68
:102EF0000446E878012881B036D0FEF7BFFA0128F1
:102F000032D068202870D620687000206880287130
:102F10000120687105F12800A8603848E8600020A9
:102F200028613748E86305F13800A8620020E862AC
:102F30002560E8680168080008D10020002100220F
:102F400007C503C5206001B0012030BD2846884771
:102F5000012808D12068142100F07CFC00202060AA
:102F600001B0012030BD002001B030BD30B5224D90
:102F70000446E87D012881B03BD0FEF77FFA0128A6
:102F800037D069202875D42068750120A8750020E5
:102F9000E87528760120687605F13000E861194867
:102FA00028621948686205F14000286300206863C0
:102FB00005F114002060286A0168080005F114007A
:102FC00008D10021002200230EC006C0216001208C
:102FD00001B030BD8847012808D12068142100F0D5
:102FE00039FC0020206001B0012030BDFEF7A3FABB
:102FF000002001B030BD0000EC09002000000020DE
:10300000300A00208C0000205000002000B581B064
:1030100018B1C16889680A0002D1012001B000BD61
:103020008847012818BF002001B000BD00B581B05D
:1030300018B1C268926A130002D1012001B000BD2C
:103040009047012818BF002001B000BD00281CBF18
:103050000169002906D00278692A03D109680A00AB
:1030600018BF08470120704700281CBF0269002ACA
:1030700007D031B10378692B03D15268130018BF10
:1030800010470120704700281CBF0269002A07D0A2
:1030900031B10378692B03D11269130018BF1047AF
:1030A0000120704700281CBF0269002A07D031B1F7
:1030B0000378692B03D19269130018BF10470120D0
:1030C000704700281CBF0269002A06D00378692BCC
:1030D00003D1D269130018BF1047012070470028A0
:1030E0001CBF0269002A07D031B10378692B03D1D4
:1030F000126A130018BF10470120704700281CBF38
:103100000269002A06D00378692B03D1526A1300A2
:1031100018BF10470120704700281CBF0269002A11
:1031200006D00378692B03D1926A130018BF1047A9
:103130000120704700281CBF0269002A06D00378CE
:10314000692B03D1D26A130018BF104701207047C2
:1031500000281CBF0269002A06D00378692B03D11E
:10316000126B130018BF1047012070470CB41CB538
:10317000044604A801900A46009401AB694607483A
:103180007844183000F06AFB009A00211170002882
:103190005CBF0098001B16BC5DF80CFB5FDCFFFFFA
:1031A00000F10103810704D010F8011B89B18107E8
:1031B000FAD10268B2F10131914311F0803F04BFAE
:1031C00050F8042FF6E710F8011B11B110F8011B9D
:1031D000FBE7C01A7047000010B5040001D10120C0
:1031E00010BD94F8390020B984F83800204600F06A
:1031F000E5F9242084F839002068C16821F40051E1
:10320000C160204600F0AAF82068016921F49041CD
:1032100001612068416921F02A0141612068C1688B
:1032200041F40051C1600020E063202084F839009F
:1032300084F83A00002010BDF0B5044681B094F83F
:10324000390020280E461D4640F085800EB1100042
:1032500002D1012001B0F0BD94F8380001287AD0E5
:10326000012084F838000020E063212084F8390030
:10327000A284E28403E000BF16F8011B4160E08CE9
:10328000010031D0401EE084A068B0F5805F1AD103
:10329000FFF720F9074620680168090609D415F1EF
:1032A000010FF8D085B3FFF715F9C01B8542F2D2A4
:1032B0002AE03188C1F3080141602069002814BF69
:1032C000761CB61CDBE7FFF705F9074620680168A6
:1032D0000906D1D415F1010FF8D0ADB1FFF7FAF816
:1032E000C01B8542F2D20FE0FFF7F4F806462068D3
:1032F0000068400627D415F1010FF8D025B1FFF77B
:10330000E9F8801B8542F2D22068C16821F0800173
:10331000C1602068C16821F02001C1602068C168D7
:1033200021F48071C1602068416949084900416108
:10333000202084F8390084F83A00002084F838000E
:1033400001B00320F0BD202084F83900002084F86B
:10335000380001B0F0BD022001B0F0BD2DE9F04110
:10336000044620680169E26821F44051114301617B
:103370008E4AC1681140A2681143226911436269F3
:103380001143E2691143C1604169A26921F44071AE
:1033900011434161E2698649B2F5004F40F0A380D4
:1033A00088421CBF834988424ED1FFF746F8054644
:1033B000FFF743F80646FFF740F80746FFF73DF8EA
:1033C0008046FFF73AF819225543DFF8ECE16168CF
:1033D00057434B00B5FBF3F5A5FB0EEC4FEA9C15EC
:1033E000B7FBF3F7DFF8D0E15643A7FB0EEC6421FF
:1033F000B6FBF3F64FEA9C1701FB1766F600323670
:10340000DFF8B4C1A6FB0CC7BE09760006F4F87657
:1034100006EB051502FB08F65043B6FBF3F6B0FBCE
:10342000F3F0654BA0FB0332900901FB1060C00074
:103430003230614AA0FB02218809216800F00700B0
:1034400040198860BDE8F081FEF7E3FF0546FEF70E
:10345000E0FF0646FEF7DDFF0746FEF7DAFF80468F
:10346000FEF7D7FF19225543DFF84CE16168574357
:103470004B00B5FBF3F5A5FB0EEC4FEA9C15B7FB33
:10348000F3F7DFF834E15643A7FB0EEC6421B6FBFB
:10349000F3F64FEA9C1701FB1766F6003236DFF8A9
:1034A00018C1A6FB0CC7BE09760006F4F87606EB39
:1034B000051502FB08F65043B6FBF3F6B0FBF3F03C
:1034C0003D4BA0FB0332900901FB1060C00032307D
:1034D000394AA0FB02218809216800F00700401941
:1034E0008860BDE8F08188421CBF324988420ED115
:1034F000FEF7A3FF0546FEF7A0FF0646FEF79DFF79
:103500000746FEF79AFF8046FEF797FF0DE0FEF7AD
:1035100080FF0546FEF77DFF0646FEF77AFF074669
:10352000FEF777FF8046FEF774FF19225543DFF858
:1035300088E0616857438B00B5FBF3F5A5FB0EEC03
:103540004FEA9C15B7FBF3F7DFF86CE05643A7FB97
:103550000EEC6421B6FBF3F64FEA9C1701FB1766ED
:1035600036013236DFF850C0A6FB0CC7BE0906F0A4
:10357000F00606EB051502FB08F65043B6FBF3F622
:10358000B0FBF3F00C4BA0FB0332900901FB106081
:1035900000013230084AA0FB02218809216800F0AE
:1035A0000F0040198860BDE8F0810000F369FFFF5B
:1035B00000100140001401403E0AD7A370470000EC
:1035C00011B581B0FEF786FF4FEA0004FEF782FFD7
:1035D0000199001B8842F9D302B010BDF0B5044632
:1035E00081B02078984DC00734D5A86800F00C0051
:1035F000042807D0A86800F00C0008280AD16868E1
:10360000400207D52868800324D5606810BB0120DC
:1036100001B0F0BD6068A870606868B1FEF75AFF3D
:1036200006462868800315D4FEF754FF801B6528E2
:10363000F7D3032001B0F0BDFEF74CFF0646286823
:10364000800307D5FEF746FF801B6528F7D30320CC
:1036500001B0F0BD2078800718D5A86810F00C0FD5
:1036600007D0A86800F00C00082826D1686840023E
:1036700023D42868800702D5E0680128C7D12868CC
:10368000216920F0F80040EAC10028602078000796
:1036900045D560696D4F90B30120C7F8800EFEF7E5
:1036A00019FF0646686F800739D4FEF713FF801BA9
:1036B0000328F7D3032001B0F0BDE068634F78B171
:1036C00001203860FEF706FF064628688007D6D43A
:1036D000FEF700FF801B0328F7D3032001B0F0BDE5
:1036E0003860FEF7F7FE064628688007CED5FEF75D
:1036F000F1FE801B0328F7D3032001B0F0BDC7F80B
:10370000800EFEF7E7FE0646686F800707D5FEF7D6
:10371000E1FE801B0328F7D3032001B0F0BD207821
:10372000400742D500200090494F286C40F080505F
:103730002864286C00F0805000900098386840F4AD
:1037400080703860FEF7C6FE06463868C00507D4AC
:10375000FEF7C0FE801B0328F7D3032001B0F0BDA5
:10376000A06885F87000A06878B1FEF7B3FE064641
:1037700041F28937286F800717D4FEF7ABFE801B14
:10378000B842F7D3032001B0F0BDFEF7A3FE064612
:1037900041F28937286F800707D5FEF79BFE801B13
:1037A000B842F7D3032001B0F0BDA069002848D08B
:1037B000A96801F00C0108293FF429AF0228234F22
:1037C0002FD100203866FEF785FE06462868800166
:1037D00007D5FEF77FFE801B0328F7D3032001B037
:1037E000F0BDE069216A0843616A40EA8110A16A7C
:1037F000891EC903090C40EA0140E16A40EA016000
:10380000686001203866FEF765FE0646286880017C
:1038100017D4FEF75FFE801B0328F7D3032001B007
:10382000F0BD00203866FEF755FE06462868800188
:1038300007D5FEF74FFE801B0328F7D3032001B006
:10384000F0BD002001B0F0BD00380240000047424A
:1038500000700040002200F0E3BB00002DE9F04FB3
:1038600080460FF2A47095B015461E46D0E900239D
:10387000CDE9132303AF00200391B8610DF13409A2
:1038800000E02D190020ADF8020013AB4FF0FF321D
:1038900029460DF1020000F0F2FB0446012C04DA87
:1038A0002878441EA441E443E40FBDF80200252813
:1038B0000CBFA4F1010BA346BBF1010F0EDBAA461E
:1038C0001AF8011B0398C0470028039000F0DA8023
:1038D000B869401CBBF1010BB861F1D1BDF8020021
:1038E000252804D10020F8603861786105E00028BF
:1038F000C7D1B86906E340F0010015F8011F20297F
:10390000F9D023290DD02B2904D02D2906D0302918
:103910000AD00CE040F0020080B2EEE740F0040074
:10392000FAE740F00800F7E740F01000F4E72A2932
:103930000ED13168316051F8042B3160002A3A62AF
:1039400004D5514240F00400396280B26D1C13E08E
:10395000002139620BE0396A6FF00043994205D0CB
:1039600001EB810302EB4301303939626D1C2A7887
:10397000A2F130010A29EED329782E2903D04FF085
:10398000FF31F9611FE015F8011F2A2907D13168BD
:1039900031606D1C51F8042B3160FA6113E0002195
:1039A000F9610BE0F9696FF00043994205D001EB32
:1039B000810302EB43013039F9616D1C2A78A2F1D1
:1039C00030010A29EED3B8840FF24460297800F060
:1039D00067FB08B115F8010B8DF832009DF8320035
:1039E000682804BF2878682803D162208DF8320047
:1039F0006D1C0DA8B86015F8014B252C13D0582C60
:103A00004BD0632C00F0A380642C18BF692C7CD0B1
:103A10006F2C42D0702C36D0732C0AD0752C18BF66
:103A2000782C3AD0B6E00120F86025208DF83400DB
:103A3000BAE09DF832006C283068306018D050F839
:103A4000044B30607C60D7F81CA0BAF1000F04D59D
:103A50002046FFF7A5FB824607E05246002120469C
:103A600000F02AFB08B1A0EB040AC7F810A09BE005
:103A700050F8042B306002A9404600F02DF90028D0
:103A800040F192803CE23068306050F8041B3060B6
:103A900002910DA87860782155E09DF832006C28DD
:103AA0000DD0712818BF6A2809D13068C01D20F0D8
:103AB00007023260D2E900010832326004E0316866
:103AC000316051F8040B316002909DF83200682893
:103AD00002D102A8008803E0622802D102A800787F
:103AE000029097F82400000728D5029830B344F0DC
:103AF0002000782822D1F868302109F80010401CF5
:103B0000411CF96009F8004018E09DF83200314688
:103B100000F0BCF80028029002D5F8682D2109E0D9
:103B2000B88C810702D5F8682B2103E0C00705D5C2
:103B3000F868202109F80010401CF8600DA8F96809
:103B400008447860214602A800F0DFF92CE09DF8D7
:103B500032006C2809D00120F8603068306050F8DD
:103B6000041B30608DF834101EE03068306001AA0C
:103B700050F8041B3060ADF804100020ADF80600CA
:103B800002A94FF0FF30F861404600F0A5F8002888
:103B90000AD577E70120F86025208DF834001CB1A4
:103BA0000220F86089F80140386AF968401A79699A
:103BB000401A3969441A97F82400400711D420208C
:103BC000012C8DF800000CDBA24601236A4602A9F5
:103BD000404600F001FA00287FF454AFBAF1010A20
:103BE000F3D1D7F80CB0BBF1000F0DF1340A0DD0B2
:103BF0001AF8011B0398C047002803903FF442AF16
:103C0000B869401CBBF1010BB861F1D1D7F814A021
:103C10003020BAF1010F8DF800000BDB01236A465A
:103C200002A9404600F0D8F900287FF42BAFBAF182
:103C3000010AF3D1D7F810B0D7F804A0BBF1000FF8
:103C40000DD01AF8011B0398C047002803903FF4D9
:103C500019AFB869401CBBF1010BB861F1D197F8FD
:103C6000240040077FF50EAE2020012C8DF80000C7
:103C7000FFF608AE01236A4602A9404600F0ACF9FF
:103C800000287FF4FFAE641EF4D1FBE5622815D056
:103C900068280CD06C2818BF742816D07A2814D144
:103CA0000A680A6052F8040B0A60002170470A682B
:103CB0000A6052F8040B0A6000B20BE00A680A605E
:103CC00052F8040B0A6040B204E00A680A6052F835
:103CD000040B0A60C11770472DE9F44F0D4694B0EC
:103CE0002F6A002F804648BF6FF0004700F010FA9F
:103CF000696A401801900FF22030D0E90023CDE925
:103D0000022395F82800400702D40198412805D2E3
:103D100040200DF110090190002606E000F0FEF9A8
:103D20005FEA0009F8D1EBE03F1B012FC0F294805D
:103D30001498018802AA0DF1010000F047FA00284A
:103D4000044600F19C801498008810B9641E00F1AC
:103D50009680A742C0F2808028690199221891427A
:103D600068D26E624042A969401A6969461A95F89C
:103D70002800400710D42020012E8DF800000BDB16
:103D8000B24601236A462946404600F025F900283C
:103D900075D1BAF1010AF4D1D5F810B0BBF1000F1A
:103DA000CA460CD01AF8011B6868C0470028686032
:103DB00065D0E869401CBBF1010BE861F2D130200D
:103DC0008DF80000D5F818A0BAF1010F0ADB012325
:103DD0006A462946404600F0FFF800284FD1BAF164
:103DE000010AF4D1D5F814B0D5F808A0BBF1000F42
:103DF0000CD01AF8011B6868C047002868603ED0E4
:103E0000E869401CBBF1010BE861F2D195F828008C
:103E100040070DD52020012E8DF8000008DB01237E
:103E20006A462946404600F0D7F840BB761EF6D1D8
:103E300000262E61224628690DF10101484400F058
:103E4000D3F92869201828611498801C1490801ECA
:103E5000008800287FF468AF686A2969401AA96958
:103E6000401A6969471A95F8280040070FD4012FB6
:103E70000DDB3C4668682021C047686010B94FF0F0
:103E8000FF3635E0E869401C641EE861F2D12B6919
:103E90004A462946404600F09FF80028EFD1AC6919
:103EA000012C0ADB68683021C04700286860E6D032
:103EB000E869401C641EE861F4D16B69AA68294670
:103EC000404600F089F80028D9D195F8280040072D
:103ED0000CD5012F0ADB68682021C04700286860E4
:103EE000CDD0E869401C7F1EE861F4D12E616E627E
:103EF00004A881451CBF484600F0B2F9304601E0F5
:103F00004FF0FF3015B0BDE8F08FF0B4C2686F29F4
:103F100008BF082405D041F02003782B14BF0A24E1
:103F2000102418230668642918BF6929374602D16E
:103F3000002E48BF7F425FB9056A4DB9082C27D1D2
:103F400090F82810090723D530211723D1751FE0D9
:103F5000B7FBF4F604FB16773037FFB25D1E3A2F3D
:103F6000A4BFA1F1510C674457552B46370003D02D
:103F70008568D618B542EBD3082C09D190F82810E3
:103F8000090705D5D15C302902D05B1E3021D15400
:103F90001A448260C3F11801026A4161914208DA51
:103FA000511A81614FF6EF72018D11400185F0BC0D
:103FB0007047002A0ED590F8282002F01402102A2B
:103FC00008D1426A0369D21A8369D21A531A012BA3
:103FD000A8BF8361F0BC7047F8B504460D4616468D
:103FE0001F46002077B116F8011B6868A04768607B
:103FF00030B1E869401CE86100207F1EF3D1F2BDBA
:104000004FF0FF30F2BD0000000000000000000093
:10401000686C747A4C000000000000000000000092
:10402000401810F0030308D0C91A1FD3DB0748BF9C
:1040300000F8012D28BF20F8022D130030B41446DB
:104040001546103928BF20E93C00FAD8490728BF97
:1040500020E90C0048BF40F8042D890028BF20F853
:10406000022D48BF00F8012D30BC7047C91818BF99
:1040700000F8012DCB0728BF00F8012D7047F8B5D7
:1040800004460D4616461F4600F02AF93B463246C6
:104090002946204601B0BDE8F04000F038B90000E4
:1040A0000278C9B28A421AB11CBF10F8012FF9E791
:1040B00018BF002070470000C9B2830706D0521E07
:1040C00022D310F8013B9942F7D11FE0083A13D3ED
:1040D00002F1040241EA012141EA014150F8043BA6
:1040E000121F21BF4B40A3F1013C2CEA030C1CF032
:1040F000803FF3D0C9B2001F083210F8013B521EB6
:1041000028BF91EA030FF8D818BF0120401E70475E
:1041100080B500F0E5F8012002BD000070B505464D
:1041200005F10F00C408C046C046E400A54232D2E3
:10413000082C04D2082402E0083000F091F822484C
:10414000026811000CD1011D0A6802B31368A34272
:1041500038BF111DF8D310E01D68A5420DD2191DFE
:104160000B68002BF8D11268011D00E0191D0B68C7
:1041700093420CD01D68A542F8D361B10D682A683E
:10418000A2F10803A3420AD26A680A600FE000F0B5
:10419000E1F80028D0D1C046C046002070BD2B19E0
:1041A0000B60121B6E685E600B681A602C600968F9
:1041B00000291DBF4A68002A091D00210160C04670
:1041C000C04605F1080070BD380A002070B50446ED
:1041D0000D46164600F084F8324629462046BDE8D2
:1041E000704000F087B8000062B38B0708D0521E01
:1041F00011F8013B00F8013B00F024808B07F6D159
:10420000830740F0208000BF103A07D330B4B1E8F4
:104210003810103AA0E83810F9D230BC530724BF48
:10422000B1E80810A0E8081044BF51F8043B40F87A
:10423000043BD20724BF31F8022B20F8022B44BFE5
:104240000B7803707047083A07D3B1E80810083AB2
:1042500040F8043B40F804CBF7D25307E4E70000F2
:1042600000B9704738B5A0F108042068082833D396
:1042700010F0070F30D1C046C0461848416809B158
:104280008C4203D26160446017E019464B680BB161
:10429000A342FAD30B68CD18AC421BD3A54204D17C
:1042A0002268D2180A600C4607E04A681AB12368EF
:1042B00023449A420ED362604C60616851B1226817
:1042C000A3188B4206D10023036008688018206081
:1042D00048686060C046C04631BD0000380A002012
:1042E00080B5DFF80C0000F04BF8806902BD0000DB
:1042F000F801002030B430B90FF24800D0E9004591
:10430000C2E900451BE00170012030BC704730B4A9
:1043100031B90FF23800D0E90045C3E900450EE09D
:104320001AB930BC6FF00100704708B10A780280FA
:104330000978481E804130BCC043C00F7047002040
:1043400030BC7047000000000000000000000000CA
:10435000000000000749086808B1002070470648BF
:10436000C008C00008600549C908C900091A0160F1
:10437000704700BF440A00206F0600206808002034
:104380007047000010B582B0044600208DF8000090
:104390006946204600F08AFC002830D09DF80000D5
:1043A000217888422BD10421204600F0C9FD30B38A
:1043B000A06800689FED160A80ED000A4021406861
:1043C00080ED010A204600F0DBFCC0B10021204650
:1043D00000F0A7FC98B11821204600F073FC70B1E2
:1043E0000821204600F01FFD48B11021204600F0B2
:1043F00049FD20B12021204600F073FD10B90120B5
:1044000002B010BD0120E07002B0002010BD00001D
:104410000000EE4270B5044682B0A0680568002036
:104420008DF800006946204600F040FC002844D08A
:104430009DF80000217888423FD1A0680668207965
:10444000002832D06946204600F08AFC002834D08B
:104450009DF80000E0B1202818D0402813D0602833
:104460000ED0802809D0A02804D0C02822D1DFF89F
:1044700084040DE0DFF880040AE0DFF8800407E040
:10448000DFF86C0404E0DFF8BC0601E0DFF8E806C2
:1044900030600021204600F044FC70B171680020BB
:1044A0000870002170684160217100202860E07070
:1044B00002B070BDDFF8B4063060012002B070BDFC
:1044C00070B5044682B0A068066820790128354698
:1044D0005ED095ED000ADFED920AB4EE600AF1EECF
:1044E00010FA48BF202123D4DFED8E0AB4EE600A13
:1044F000F1EE10FA48BF40211AD4DFEDAD0AB4EE58
:10450000600AF1EE10FA48BF602111D4DFEDA90A6C
:10451000B4EE600AF1EE10FA48BF802108D4DFED56
:10452000A60AB4EE600AF1EE10FA4CBFA021C02139
:10453000204600F0F6FB88B37068061D69462046E9
:1045400000F00EFC50B39DF80000E0B1202818D018
:10455000402813D060280ED0802809D0A02804D08D
:10456000C02818D1DFF88C030DE0DFF88C030AE0D7
:10457000DFF8880307E0DFF8780304E0DFF8C4051C
:1045800001E0DFF8F40530600120696808702071EF
:10459000002002B070BDDFF8D4053060012002B009
:1045A00070BD30B5044681B0A06805682079002848
:1045B00039D06946204600F0D3FB48B39DF800008F
:1045C000D0B1202816D0402811D060280DD08028E6
:1045D00009D0A02804D0C02817D1DFF818030BE0B9
:1045E000DFF8140308E0C54806E0C14804E0DFF83E
:1045F000540501E0DFF8800528600021204600F026
:1046000090FB40B9012001B030BDDFF860052860A3
:10461000012001B030BD6968002008700021686881
:1046200041600020207101B030BD00B581B000F0C4
:104630003DFB401E8041C00F01B000BD10B582B0EF
:10464000044600208DF800006946204600F02EFB4D
:1046500020B19DF800002178884202D0012002B0EC
:1046600010BD002002B010BD2DE9F04184B0884695
:104670000021CDE900110446694600F0A0FB0028A6
:104680004AD09DF801109DF800209DF8040002EB2F
:1046900001269DF803109DF8022002EB01279DF8EA
:1046A000051000EB012502A9204600F02AFB98B373
:1046B0009DF8080048B1082804D018282CD19FED97
:1046C000880A04E09FED870A01E09FED870A36B271
:1046D00000EE906AF8EEE00A60EE800AFDEEE00A75
:1046E000C8ED000A3FB200EE907AF8EEE00A60EE04
:1046F000800AFDEEE00AC8ED010A2DB200EE905AE4
:10470000F8EEE00A20EE800ABDEEC00A88ED020A4B
:10471000002004B0BDE8F081012004B0BDE8F081C4
:10472000010070410100704210B582B00C4669462C
:104730000022C1E9002200F042FB10B9012002B0C2
:1047400010BD9DF801109DF8002002EB0121218091
:104750009DF802209DF8031002EB012161809DF875
:1047600004009DF8051000EB0120A08002B000209D
:1047700010BD10B582B00C46694600F0C2FA10B9FF
:10478000012002B010BD9DF8000040B108280BD0F8
:1047900018280BD05548206002B0012010BD5248A7
:1047A000206002B0002010BD4E48F9E74C48F7E702
:1047B0000100EE4201006E430100EE4310B582B0ED
:1047C0000C46694600F0CCFA10B9012002B010BDC9
:1047D0009DF8000080B1202812D0402813D0602816
:1047E00014D0802814D0A02814D0C02814D03F485A
:1047F000206002B0012010BD206002B0002010BD7A
:10480000DFF87403F8E7DFF83C03F5E73848F3E72F
:104810003A48F1E73848EFE73648EDE730B5054666
:1048200081B0A86804682879012839D1042934D8CE
:10483000DFE801F0070705050300602102E04021E1
:1048400000E02021284600F06CFA30B36068041DB7
:104850006946284600F084FAF8B19DF8000060B17E
:10486000202816D0402812D060280ED080280AD0E8
:10487000A02806D0C0280ED11E482060002001B01C
:1048800030BD1D48F9E71D48F7E71948F5E7AD4881
:10489000F3E7B948F1E715482060012001B030BDC9
:1048A0000429FAD8DFE801F014140C0C0400F4E732
:1048B0009FED0F0A84ED000A606880ED010ADDE7D4
:1048C0009FEDA00A84ED000A606880ED010AD5E73B
:1048D000B2EE0E0A84ED000A606880ED010ACDE7B1
:1048E00000008C4200008C4100000C41000080BFA1
:1048F0000000EE4200006E440000EE4300006E43F4
:1049000030B5054681B0A86804682879DFED8E0AC5
:104910000128B4EE600A59D1F1EE10FA48BF202107
:1049200023D4DFED8A0AB4EE600AF1EE10FA48BF34
:1049300040211AD4DFED860AB4EE600AF1EE10FAD7
:1049400048BF602111D4DFED830AB4EE600AF1EEB6
:1049500010FA48BF802108D4DFED7F0AB4EE600A68
:10496000F1EE10FA4CBFA021C021284600F0D9F981
:1049700048B36068041D6946284600F0F1F910B399
:104980009DF80000D8B1202818D0402813D0602806
:104990000ED0802809D0A02804D0C02811D1724898
:1049A000206078E06F48206075E06D48206072E01C
:1049B0006A4820606FE0634820606CE06E482060C9
:1049C00069E06A482060012001B030BDF1EE10FAC4
:1049D00048BFB2EE0E1A28D49FED5C1AB4EE410A1D
:1049E000F1EE10FA48BF9FED571A1ED49FED581AEA
:1049F000B4EE410AF1EE10FA48BF9FED581A14D4F4
:104A00009FED541AB4EE410AF1EE10FA48BF9FED43
:104A1000541A0AD49FED501AB4EE410AF1EE10FA7E
:104A20004CBF9FED501A9FED501AB4EE600AF1EEA4
:104A300010FA84ED001A48BFB2EE0E0A28D4DFED5A
:104A4000430AB4EE600AF1EE10FA48BF9FED3D0A4A
:104A50001ED4DFED3F0AB4EE600AF1EE10FA48BF53
:104A60009FED3E0A14D4DFED3B0AB4EE600AF1EE8E
:104A700010FA48BF9FED3A0A0AD4DFED370AB4EEC8
:104A8000600AF1EE10FA4CBF9FED360A9FED360A30
:104A9000606880ED010A002001B030BD10B582B021
:104AA0000C46694600F02DF910B9012002B010BD86
:104AB0009DF8000040B108280BD018280BD02B48D7
:104AC000206002B0012010BD2C48206002B0002000
:104AD00010BD2B48F9E72B48F7E7000000B5042983
:104AE00081B010D8DFE801F0030F0B0F0D0000219B
:104AF00000F0E8F8401E8041C00F01B000BD082161
:104B0000F6E71821F4E7012001B000BDDFED180A37
:104B100000B5B4EE600AF1EE10FA81B048BF002192
:104B200008D4DFED140AB4EE600AF1EE10FA4CBFBF
:104B30000821182100F0C6F8401E8041C00F01B0C6
:104B400000BD000000007042010070410100704291
:104B50000100EE4201006E430100EE430000EE4210
:104B600000006E430000EE4300006E44000080BF72
:104B7000010075430100FA430000704100007543D5
:104B80000000FA430000FA4430B581B00D460446F7
:104B90000DF1020100F066F950B10DF1010120465E
:104BA00000F08FF920B16946204600F0B9F910B93C
:104BB000012001B030BD9DF8020008280CBF012083
:104BC000002028709DF8010010280CBF0120002053
:104BD00068709DF8000020280CBF01200020A870FC
:104BE00001B0002030BD30B50D4681B004462878B4
:104BF00001280CBF08210021204600F014F940B123
:104C0000687801280CBF10210021204600F03AF9F5
:104C100010B9012001B030BDA87801280CBF2021B7
:104C20000021204600F05DF9401E8041C00F01B018
:104C300030BD00B581B0012300F02FF8401E804147
:104C4000C00F01B000BD00B581B001238DF8002078
:104C50006A4600F019F8401E8041C00F01B000BD47
:104C600010B582B00C46694600F0CDF848B19DF809
:104C7000000010B1022804D10120207002B00020F1
:104C800010BD012002B010BD00B581B0FCF796FC4C
:104C9000401E8041C00F01B000BD00B581B0FCF7DF
:104CA000A4FC401E8041C00F01B000BD00B50A4603
:104CB00081B001230F21FCF798FC401E8041C00FFA
:104CC00001B000BD30B581B00D46044601236A46EF
:104CD0001021FCF78AFC10B1002001B030BD9DF816
:104CE000000000F0E70028438DF8000001236A4629
:104CF00010212046FCF762FC401E8041C00F01B02D
:104D000030BD10B50C46012322461021FCF76DFC86
:104D100008B1002010BD207800F01800207001209C
:104D200010BD30B581B00D46044601236A461021FE
:104D3000FCF75BFC10B1002001B030BD9DF8000015
:104D400000F01F0028438DF8000001236A4610215F
:104D50002046FCF733FC401E8041C00F01B030BD3F
:104D600010B50C46012322461021FCF73EFC08B189
:104D7000002010BD207800F0E0002070012010BD60
:104D800030B581B00D46044601236A462221FCF766
:104D90002CFC10B1002001B030BD9DF8000000F0E7
:104DA000BF0028438DF8000001236A4622212046D7
:104DB000FCF704FC401E8041C00F01B030BDF0B5CF
:104DC00081B004460D4600260327F6B206F118010D
:104DD0000123AA19C9B22046FCF707FC50B9761C7A
:104DE000F6B206F118010123AA19C9B22046FCF750
:104DF000FCFB10B1002001B0F0BD761C7F1EE4D199
:104E0000012001B0F0BD10B50C4601232246272138
:104E1000FCF7EBFB08B1002010BD207800F0020089
:104E20002070012010BD30B581B00D46044601232D
:104E30006A461E21FCF7D9FB10B1002001B030BD3D
:104E40009DF8000000F0F70028438DF800000123D2
:104E50006A461E212046FCF7B1FB401E8041C00F70
:104E600001B030BD10B50C46012322461E21FCF7CF
:104E7000BCFB08B1002010BD207800F008002070B5
:104E8000012010BD30B581B00D46044601236A46AD
:104E90001E21FCF7AAFB10B1002001B030BD9DF827
:104EA000000000F0EF0028438DF8000001236A465F
:104EB0001E212046FCF782FB401E8041C00F01B03E
:104EC00030BD10B50C46012322461E21FCF78DFB98
:104ED00008B1002010BD207800F0100020700120E3
:104EE00010BD30B581B00D46044601236A461E212F
:104EF000FCF77BFB10B1002001B030BD9DF8000035
:104F000000F0DF0028438DF8000001236A461E21CF
:104F10002046FCF753FB401E8041C00F01B030BD5E
:104F200010B50C46012322461E21FCF75EFB08B19A
:104F3000002010BD207800F020002070012010BD5E
:104F400030B581B00D46044601236A462221FCF7A4
:104F50004CFB10B1002001B030BD9DF8000000F006
:104F6000FB0028438DF8000001236A4622212046D9
:104F7000FCF724FB401E8041C00F01B030BDF0B4EF
:104F8000016844688368014401EB5402E40748BFA8
:104F90004B44914202D1F0BC0C30704711F8015BD8
:104FA00015F0030604BF11F8014BE61C2C090F2C69
:104FB00007D111F8014B0F3403E011F8017B03F81E
:104FC000017B761EF9D1002CE3D0AD0811F8016BFE
:104FD00005F00305032D08BF11F8015B06EB05255D
:104FE0006D42A41C1D44D4D015F8016B03F8016B6D
:104FF000641EF9D1CDE700000E480F4BD0F88010A9
:1050000041F47001C0F880100C490A6842F00102B6
:105010000A6000228A600A681A400A60084A4A60E8
:105020000A6822F480220A600022CA604FF0006100
:105030000160704708ED00E0FFFFF6FE0038024017
:105040001030002419E050F8041BCB0744BFA9F12D
:1050500001035918121F0023042A41F8043BF9D216
:105060005FEA827C0B4604D54FF0000CA1F800C02B
:105070009B1CD10744BF0021197050F8042B002A53
:10508000E1D1704710B5074979441831064C7C448A
:10509000163404E00A68081D114488470146A142FD
:1050A000F8D110BD2C000000480000004EF68851D9
:1050B000CEF20001086840F470000860BFF34F8F23
:1050C000BFF36F8F4FF00070E1EE100A70470000E1
:1050D00075FFFFFFE00100006808002000000000ED
:1050E0009FFEFFFF80010000AE01000000000020D5
:1050F00000F00BF8002801D0FFF7C4FF0020C046E5
:10510000C046FDF7EDF900F002F80120704700F00D
:1051100001B800000746384600F002F8FBE700003F
:1051200080B5C046C046024A11001820ABBEFBE75E
:10513000260002007047FEE7704700F007B8102015
:10514000FDF73CB84FF40050FDF738B8024801684D
:10515000491C0160704700BF400A00200148804799
:1051600001480047F94F00086D510008C046C0468D
:10517000FFF79CFFFFF7BCFFFFF7FEBFFFF7FEBF87
:10518000FFF7FEBFFFF7FEBFFFF7FEBFFFF7FEBF53
:10519000FFF7FEBFFFF7FEBFFFF7FEBFFFF7FEBF43
:1051A000FFF7FEBFFFF7FEBFFFF7FEBFFFF7FEBF33
:1051B000FFF7FEBFFFF7FEBFFFF7FEBFFFF7FEBF23
:1051C000FFF7FEBFFFF7FEBFFFF7FEBFFFF7FEBF13
:1051D000FFF7FEBFFFF7FEBFFFF7FEBFFFF7FEBF03
:1051E000FFF7FEBFFFF7FEBFFFF7FEBFFFF7FEBFF3
:1051F000FFF7FEBFFFF7FEBFFFF7FEBFFFF7FEBFE3
:10520000FFF7FEBFFFF7FEBFFFF7FEBFFFF7FEBFD2
:10521000FFF7FEBFFFF7FEBFFFF7FEBFFFF7FEBFC2
:10522000FFF7FEBFFFF7FEBFFFF7FEBFFFF7FEBFB2
:10523000FFF7FEBFFFF7FEBFFFF7FEBFFFF7FEBFA2
:10524000FFF7FEBFFFF7FEBFFFF7FEBFFFF7FEBF92
:10525000FFF7FEBFFFF7FEBFFFF7FEBFFFF7FEBF82
:10526000FFF7FEBF10078543000815440008C1047E
:105270001007A34500082B4600083D0412690410DE
:105280000329470008730412BD04100B1D480008D1
:10529000014900089D4A0008DD0410030D4B000879
:1052A000890412E7041003334C0008470412610418
:1052B00010079D0A0008650B0008950412C504122A
:1052C000F5041003070C00081904122B04127104D2
:1052D00013390D2C110412810412930412AF04121D
:1052E000CD0410079501000821020008D90410041C
:1052F0007D03000803049C110422410410020500F0
:10530000088D041319060811041305074810020834
:105310000008AD0412DD04100381090008DF041247
:105320002B80123F04125904F001F6000400011012
:0B533000020240000804F76424F4119E
:0400000508000000EF
:00000001FF
