:020000040800F2
:10000000000F002049B8000825B8000827B80008EC
:100010006DB8000871B8000875B80008000000004D
:1000200000000000000000000000000079B8000897
:1000300029B80008000000007DB800082BB80008AF
:1000400081B8000885B8000889B800088DB8000894
:1000500091B8000895B8000899B800089DB8000844
:10006000A1B80008A5B80008A9B80008ADB80008F4
:10007000B1B80008B5B80008B9B80008BDB80008A4
:10008000C1B80008C5B80008C9B80008CDB8000854
:10009000D1B80008D5B80008D9B80008DDB8000804
:1000A000E1B80008E5B80008E9B80008EDB80008B4
:1000B000F1B80008F5B80008F9B80008FDB8000864
:1000C00001B9000805B9000809B900080DB9000810
:1000D00011B9000815B9000819B900081DB90008C0
:1000E0002FB8000821B9000825B9000829B900086F
:1000F0002DB900080000000031B9000835B900082A
:1001000039B900083DB9000841B9000845B90008EF
:1001100049B900084DB9000851B9000800000000B5
:1001200055B9000870B5044682B0A0680668356805
:1001300000208DF800006946204601F07FFE00B3E4
:100140009DF80000217888421BD10421204602F04E
:10015000DCF8B0B14021204601F07CFE88B10021DE
:10016000204602F056F860B1DFF8500C70600021B4
:10017000204601F0E1FE20B10021204601F089FE79
:1001800010B9012002B070BD01202870E07002B0EB
:10019000002070BD70B5044682B0A06805682E6866
:1001A00000208DF800006946204601F047FE002837
:1001B00000F0B0809DF800002178884240F0AA80CD
:1001C0000021204602F05BFD002800F0A380002102
:1001D000204602F051FB002800F09C8000212046C0
:1001E00002F0B9FC002800F095800021204602F0C2
:1001F00093FC002800F08E800021204602F001FDD3
:10020000002800F087800021204602F035FB0028FE
:1002100000F080800021204602F06BFB002879D09E
:100220000021204602F052F8002873D00021204619
:1002300002F006F900286DD00021204602F01FF9D7
:10024000002867D00021204602F0A4FD002861D0DC
:100250000021204602F051FD00285BD000212046FD
:1002600002F00AFB002855D00021204602F023FBB3
:1002700000284FD00021204602F05AFB002849D028
:100280000021204602F072FB002843D000212046C6
:1002900002F095FA00283DD00021204602F0AEFA87
:1002A000002837D00021204602F0C7FA002831D0BC
:1002B0000021204602F0C4FC60B30021204602F079
:1002C000DBFA38B30021204602F0F5FA10B3002122
:1002D000204602F02DFBE8B10021204602F046FB4B
:1002E000C0B10021204602F05FFB98B100212046FA
:1002F00002F098FB70B10021204602F060FA48B18C
:100300000021204602F07AFA20B10021204602F0B6
:1003100094FA10B9012002B070BD0021204602F00D
:1003200051FC0028F6D00021204602F06AF800288F
:10033000F0D00021204602F0A2F80028EAD00021E7
:10034000204602F0BBFC0028E4D00021204602F049
:1003500093FA0028DED00021204602F0BFFB0028DF
:10036000D8D00021204602F03FFB0028D2D02079CF
:1003700078B1A0680068011D204600F086F90128C8
:10038000C8D00021204601F0D7FD0028C2D00020AF
:100390002071002068603070E07002B070BD10B550
:1003A00004462079012849D0A068DFF8141A0068B3
:1003B000406802F02FFD38BF102137D3DFF8041A50
:1003C00002F028FD38BF202130D3DFF8FC1902F0FD
:1003D00021FD38BF302129D3DFF8F01902F01AFDD2
:1003E00038BF402122D3DFF8E81902F013FD38BFEF
:1003F00050211BD3DFF8581A02F00CFD38BF6021E2
:1004000014D3DFF8501A02F005FD38BF70210DD368
:10041000DFF8441A02F0FEFC38BF802106D3DFF873
:10042000041C02F0F7FC34BF9021A021204601F00B
:1004300083FD08B9012010BD01202071002010BDEE
:1004400030B5044681B0207900284ED0A0680068FD
:10045000051D6946204601F08EFD002840D09DF81C
:100460000000002830D010282CD0202827D0302899
:1004700022D040281DD0502818D0602813D07028D2
:100480000ED0802809D0902804D0A02825D1DFF8EC
:100490002C0A19E0DFF8280A16E0DFF8280A13E032
:1004A000DFF8240A10E0DFF8240A0DE0DFF8200A64
:1004B0000AE0DFF8080907E0DFF8180A04E0DFF8CF
:1004C000180A01E0DFF8140A28600021204601F034
:1004D00033FD40B9012001B030BDDFF8C40B286006
:1004E000012001B030BD0020207101B030BD00B549
:1004F00081B001F0A3FC401E8041C00F01B000BDDF
:1005000010B582B0044600208DF8000069462046F0
:1005100001F094FC20B19DF800002178884202D0BF
:10052000012002B010BD002002B010BD2DE9F04145
:1005300084B00C460021CDE900118046694601F0E7
:10054000D7FC00284ED09DF801109DF800209DF8A2
:10055000040002EB01269DF803109DF8022002EB37
:1005600001279DF8051000EB012502A9404601F086
:10057000AFFC002836D09DF808000C2832D8DFE800
:1005800000F010313131073131310D3131310A0094
:10059000DFF84C8907E0DFF84C8904E0DFF8488990
:1005A00001E0DFF8848A30B202F046FC414602F0F6
:1005B0005DFC02F0C7FC206038B202F03DFC414611
:1005C00002F054FC02F0BEFC606028B202F034FC81
:1005D000414602F04BFC02F0B5FCA06004B00020E4
:1005E000BDE8F081012004B0BDE8F08110B582B013
:1005F0000C4669460022C1E9002201F079FC10B9DD
:10060000012002B010BD9DF801109DF8002002EB02
:10061000012121809DF802209DF8031002EB0121A9
:1006200061809DF804009DF8051000EB0120A0807A
:1006300002B0002010BD000010B582B00C46694623
:1006400001F046FCF0B19DF800000C2817D8DFE857
:1006500000F007161616131616160D1616161000AD
:10066000DFF8C409206002B0002010BDDFF8780870
:10067000F8E7DFF87008F5E7DFF86408F2E7DFF87D
:10068000200A2060012002B010BD10B582B00C46D7
:10069000694601F070FC10B9012002B010BD9DF850
:1006A0000000C8B110281BD020281CD030281DD035
:1006B00040281ED050281FD0602820D0702821D07C
:1006C000802822D0902823D0A02824D0DFF8D00979
:1006D000206002B0012010BD206002B0002010BDDB
:1006E000DFF8F807F8E7DFF8F007F5E7DFF8E407E9
:1006F000F2E7DFF8C806EFE7DFF8D407ECE7DFF84A
:10070000CC07E9E7DFF8C007E6E7DFF8B807E3E77B
:10071000DFF8AC07E0E7DFF8A407DDE700B581B05C
:100720000279012A13D104290ED8DFE801F0090962
:1007300007050300402104E0302102E0202100E011
:10074000102101F0F9FBC0B9012001B000BD8068A3
:1007500000680429F8D8DFE801F00D0D0A0704004D
:10076000F2E7DFF8581607E0DFF8681704E0DFF873
:10077000681701E0DFF864174160002001B000BD98
:1007800000B581B0024608461379DFF83416012B14
:1007900044D102F03FFB38BF102137D3DFF82416D5
:1007A00002F038FB38BF202130D3DFF81C1602F0EE
:1007B00031FB38BF302129D3DFF8101602F02AFBB5
:1007C00038BF402122D3DFF8081602F023FB38BFE0
:1007D00050211BD3DFF8781602F01CFB38BF6021D4
:1007E00014D3DFF8701602F015FB38BF70210DD35B
:1007F000DFF8641602F00EFB38BF802106D3DFF865
:10080000241802F007FB34BF9021A021104601F00C
:1008100093FB00284CD1012001B000BD9268126802
:1008200002F0F8FA38BFDFF8B40640D3DFF89415C9
:1008300002F0F0FA38BFDFF8A00638D3DFF88815E9
:1008400002F0E8FA38BFDFF88C0630D3DFF87C1509
:1008500002F0E0FA38BFDFF8640528D3DFF870153E
:1008600002F0D8FA38BFDFF8680620D3DFF8E015C9
:1008700002F0D0FA38BFDFF8540618D3DFF8D415E9
:1008800002F0C8FA38BFDFF8400610D3DFF8C81509
:1008900002F0C0FA38BFDFF82C0608D3DFF884175F
:1008A00002F0B8FA34BFDFF81806DFF8100650601F
:1008B000002001B000BD000010B582B00C466946B2
:1008C00001F006FBF0B19DF800000C2817D8DFE816
:1008D00000F007161616131616160D16161610002B
:1008E0004FF08040206002B0002010BD4FF08140EA
:1008F000F8E74FF08240F5E74FF08340F2E7DFF88A
:10090000A0072060012002B010BD000000B504293E
:1009100081B010D8DFE801F0030F0B0F0D000021AC
:1009200001F0B7FA401E8041C00F01B000BD0821A0
:10093000F6E70C21F4E7012001B000BD02460846AD
:10094000DFF82C1A00B502F065FA81B038BF00213B
:100950000DD3DFF8201A02F05DFA38BF082106D364
:10096000DFF8BC1B02F056FA34BF0C2104211046FC
:1009700001F08FFA401E8041C00F01B000BD00B5EC
:1009800081B0012301F048FA401E8041C00F01B040
:1009900000BD00B581B001238DF800206A4601F04A
:1009A00044FA401E8041C00F01B000BD10B582B0B6
:1009B0000C46694601F032FE48B19DF8000000285F
:1009C00018BF012803D1207002B0002010BD012003
:1009D00002B010BD70B5044682B0A06806683568E4
:1009E00000208DF800006946204601F027FA00B388
:1009F0009DF80000217888421BD10421204601F097
:100A000084FCB0B14021204601F024FA88B10021D5
:100A1000204601F0FEFB60B1DFF8D00470600021D9
:100A2000204601F00BFB20B10C21204601F0B3FA67
:100A300010B9012002B070BD01206870E07002B0F2
:100A4000002070BD70B5044682B0A06805682E68AD
:100A500000208DF800006946204601F0EFF998B1BA
:100A60009DF80000217888420ED1207988B1A068D5
:100A70000068011D204600F0ADF9012804D00021D6
:100A8000204601F0DBFA10B9012002B070BD002051
:100A90002071002068607070E07002B070BD10B509
:100AA00004462079012844D0A068C5490068406800
:100AB00002F0B0F938BF102133D3C24902F0AAF9CD
:100AC00038BF20212DD3C04902F0A4F938BF30210E
:100AD00027D3BE4902F09EF938BF402121D3BC493B
:100AE00002F098F938BF50211BD3DFF8641302F0ED
:100AF00091F938BF602114D3DFF8581302F08AF956
:100B000038BF70210DD3DFF8501302F083F938BFDE
:100B1000802106D3DFF8241602F07CF934BF90213F
:100B2000A021204601F08AFA08B9012010BD012059
:100B30002071002010BD30B5044681B02079002816
:100B40004CD0A0680068051D6946204601F095FA62
:100B500000283ED09DF8000000282ED010282BD071
:100B6000202826D0302821D040281DD0502818D049
:100B7000602813D070280ED0802809D0902804D087
:100B8000A02823D1DFF8340317E0DFF8340314E0A2
:100B9000DFF8300311E0DFF830030EE0DFF82C035C
:100BA0000BE0DFF82C0308E0844806E0DFF82403BC
:100BB00003E0DFF8240300E0C84828600021204655
:100BC00001F03CFA40B9012001B030BDDFF8D0049B
:100BD0002860012001B030BD0020207101B030BD7F
:100BE00000B581B001F02AF9401E8041C00F01B06C
:100BF00000BD10B582B0044600208DF800006946A3
:100C0000204601F01BF920B19DF8000021788842B0
:100C100002D0012002B010BD002002B010BD0000C3
:100C20002DE9F04184B080460C4601A80021C0E9BE
:100C30000011404601A901F0DDF900285AD001A8B1
:100C40009DF80420417802EB01269DF80710827878
:100C5000007902EB01279DF8091000EB01250DF149
:100C60000101404601F038FA002843D09DF8010008
:100C7000022808BFDFF8BC8A1DD06946404601F053
:100C8000A9F9002836D09DF800000C2832D8DFE8FA
:100C900000F0103131310D3131310A31313107007D
:100CA000DFF8948A07E0DFF8948A04E0DFF8908A9E
:100CB00001E0DFF8C08B30B202F0BEF8414602F02E
:100CC000D5F802F03FF9206038B202F0B5F841469D
:100CD00002F0CCF802F036F9606028B202F0ACF80D
:100CE000414602F0C3F802F02DF9A06004B00020E4
:100CF000BDE8F081012004B0BDE8F08110B582B0FC
:100D00000C4669460022C1E9002201F073F910B9CE
:100D1000012002B010BD9DF801109DF8002002EBEB
:100D2000012121809DF802209DF8031002EB012192
:100D300061809DF804009DF8051000EB0120A08063
:100D400002B0002010BD000030B581B00C46054651
:100D50000DF1010101F0C0F970B19DF80100022808
:100D600005D1DFF8D009206001B0002030BD694610
:100D7000284601F02FF910B9012001B030BD9DF8CF
:100D800000000C2814D8DFE800F0071313130A132F
:100D900013130D1313131000DFF8D80AE3E7DFF87D
:100DA000A009E0E7DFF89409DDE7DFF88C09DAE76E
:100DB000BB48206001B0012030BD00000000D042DF
:100DC000010050410100D041010050420100D042D9
:100DD0000100504310B582B00C46694601F04DF950
:100DE00010B9012002B010BD9DF80000C0B110285C
:100DF0001AD020281AD030281AD040281AD05028CB
:100E00001AD060281AD070281AD080281AD09028BA
:100E10001AD0A0281AD0A248206002B0012010BD2C
:100E2000206002B0002010BD2C48F9E72A48F7E7FF
:100E30002848F5E72D48F3E72548F1E72348EFE791
:100E40002148EDE71F48EBE71D48E9E71B48E7E7C6
:100E50000100D043014050440180CF4400B581B02F
:100E60000279012A13D104290ED8DFE801F009091B
:100E700007050300402104E0302102E0202100E0CA
:100E8000102101F0DBF8A8B9012001B000BD806895
:100E900000680429F8D8DFE801F00A0A080604000F
:100EA000F2E7124905E00B4903E00B4901E0DFF8E6
:100EB000941B4160002001B000BD00000020D0451F
:100EC000002050450080CF44004050440000D043F3
:100ED00000005043000050420000D041000050414B
:100EE00023DBF93E23DB793E23DBF93D0000D042D2
:100EF00000B581B0024608461379DFF87C19012B52
:100F000043D101F087FF38BF102136D3DFF8381BFB
:100F100001F080FF38BF20212FD3DFF8301B01F014
:100F200079FF38BF302128D3DFF8241B01F072FF8E
:100F300038BF402121D3DFF81C1B01F06BFF38BF05
:100F400050211AD3DFF8101B01F064FF38BF602175
:100F500013D3DFF8081B01F05DFF38BF70210CD3FD
:100F6000DFF8FC1A01F056FF38BF802105D32D4968
:100F700001F050FF34BF9021A021104601F05EF82F
:100F800000284BD1012001B000BD9268126801F029
:100F900041FF38BFDFF8AC0A3FD3DFF8AC1A01F0ED
:100FA00039FF38BFDFF8BC0A37D3DFF8A01A01F0E9
:100FB00031FF38BFDFF8B00A2FD3DFF8941A01F001
:100FC00029FF38BFDFF8A40A27D3DFF8881A01F019
:100FD00021FF38BFDFF8980A1FD3DFF87C1A01F031
:100FE00019FF38BFDFF88C0A17D3DFF8701A01F049
:100FF00011FF38BFDFF8800A0FD3DFF8641A01F061
:1010000009FF38BFDFF8740A07D3064901F002FF71
:1010100034BFDFF86C0ADFF8F80B5060002001B035
:1010200000BD00000120504523DB793D30B581B083
:101030000C460546694601F04FF828B10DF1010153
:10104000284600F0C7FF10B9012001B030BD9DF85F
:101050000000022805D1DFF8BC0B206001B00020A1
:1010600030BD9DF801000C2814D8DFE800F007130C
:1010700013130A1313130D1313131000DFF8980B37
:10108000EBE7DFF8980BE8E7DFF8940BE5E7DFF82C
:10109000940BE2E70248206001B0012030BD00005F
:1010A000000080BF00B5042981B010D8DFE801F04E
:1010B000030F0B0F0D00002100F06DFF401E80415B
:1010C000C00F01B000BD0421F6E70C21F4E70120B8
:1010D00001B000BD30B504460846DFF84C1B01F0F6
:1010E00099FE81B007D20221204600F0D6FF10B34E
:1010F000002001B030BDDFF8C01B01F08BFE38BF0F
:1011000000250DD3DFF8B41B01F084FE38BF0425A1
:1011100006D3DFF8AC1B01F07DFE34BF08250C259B
:101120000021204600F0B9FF28B12946204600F0F2
:1011300032FF0028DCD1012001B030BD0120504534
:1011400000B581B0012300F067FE401E8041C00F52
:1011500001B000BD00B581B001238DF800206A46C2
:1011600000F063FE401E8041C00F01B000BD10B50D
:1011700082B00C46694601F061FA48B19DF8000062
:1011800010B1022804D10120207002B0002010BD4F
:10119000012002B010BD02460846DFF8DC1600B59B
:1011A00001F038FE81B038BF102137D3DFF898182E
:1011B00001F030FE38BF202130D3DFF8901801F065
:1011C00029FE38BF302129D3DFF8841801F022FE30
:1011D00038BF402122D3DFF87C1801F01BFE38BF56
:1011E00050211BD3DFF8701801F014FE38BF6021C6
:1011F00014D3DFF8681801F00DFE38BF70210DD34D
:10120000DFF85C1801F006FE38BF802106D3DFF856
:10121000B41A01F0FFFD34BF9021A021104600F068
:101220008BFE401E8041C00F01B000BD10B50446CA
:10123000DFF840182079012805D12046FFF7ABFFE1
:10124000012803D110BDA06800684160002120463C
:1012500000F01FFEE8B10621204601F07CFCC0B181
:101260000021204601F03AFC98B10021204601F00F
:1012700016FC70B10021204601F0F3FB48B10321B8
:10128000204601F049FC20B18021204601F0F4FA0B
:1012900008B9012010BD1021204601F0F0FC401ECD
:1012A0008041C00F10BD10B50446002101F0E7FCDD
:1012B00048B10021204601F0DFFA20B1002120468C
:1012C00001F049FC08B9012010BD0021204601F0C1
:1012D00023FC401E8041C00F10BD10B582B00C46EB
:1012E000694601F0FBF848B19DF8000010B12028D4
:1012F00004D10120207002B0002010BD012002B0F6
:1013000010BD00B581B001F007FC401E8041C00F48
:1013100001B000BD10B50446DFF848172079012858
:1013200005D12046FFF737FF012803D110BDA06883
:10133000006841600021204600F0ABFD70B117212C
:10134000204601F027FD48B10421204601F097F81E
:1013500020B11021204601F073F808B9012010BD1A
:101360008021204600F0B2FF401E8041C00F10BD1A
:10137000010000400100804010B50446002100F04B
:10138000A5FF48B10021204601F05AF820B1002104
:10139000204601F074F808B9012010BD0021204654
:1013A00001F0F8FC401E8041C00F10BD10B582B0A6
:1013B0000C46694601F0C4F948B19DF8000010B12F
:1013C000102804D10120207002B0002010BD01209F
:1013D00002B010BD00B581B001F0C5FC401E8041D7
:1013E000C00F01B000BD00B581B0022100F0EAFFDE
:1013F000401E8041C00F01B000BD00B581B000218A
:1014000000F0E0FF401E8041C00F01B000BD00B5FC
:1014100081B001F0BFFC401E8041C00F01B000BD93
:1014200010B50446DFF83C162079012805D1204686
:10143000FFF7B1FE012803D110BDA068006841602C
:101440000021204600F025FD48B10421204601F08E
:1014500016F820B10821204600F0D3FF08B901207A
:1014600010BD0221204601F0ADFB401E8041C00F9F
:1014700010BD10B50446002101F0A4FB20B10021ED
:10148000204600F0BEFF08B9012010BD0021204613
:1014900000F0F5FF401E8041C00F10BD10B582B0B6
:1014A0000C46694601F05CF948B19DF8000010B1A6
:1014B000202804D10120207002B0002010BD01209E
:1014C00002B010BD10B50446DFF8A8152079012838
:1014D00005D12046FFF75FFE012803D110BDA068AB
:1014E000006841600021204600F0D3FC70B100216B
:1014F000204601F0F3FA48B10221204601F074FAC7
:1015000020B18021204601F0B7F908B9012010BDB3
:101510002021204601F0D2FB401E8041C00F10BDAB
:101520000100004110B50446002101F0C7FB48B19D
:101530000021204601F0A0F920B10021204601F051
:10154000CDFA08B9012010BD0021204601F04CFA67
:10155000401E8041C00F10BD10B582B00C466946D8
:1015600000F0ACFF48B19DF8000010B1082804D18C
:101570000120207002B0002010BD012002B010BD7B
:1015800000B581B001F030FA401E8041C00F01B0BB
:1015900000BD10B50446DFF8DC142079012805D120
:1015A0002046FFF7F8FD012803D110BDA0680068B0
:1015B00041600021204600F06CFC10B30821204659
:1015C00001F03BF9E8B10421204601F017F9C0B160
:1015D0000221204601F0F3F898B10821204601F0DD
:1015E0006AF970B10221204601F0A2F948B1012147
:1015F000204601F0BBF920B18021204601F03CF9E2
:1016000008B9012010BD4021204601F076FB401EA4
:101610008041C00F10BD10B50446002101F06DFBE4
:10162000E8B10021204601F027F9C0B10021204691
:1016300001F041F998B10021204601F079F970B12B
:101640000021204601F092F948B10021204601F026
:10165000B6F820B10021204601F0D0F808B90120E9
:1016600010BD0021204601F0E8F8401E8041C00F67
:1016700010BD10B582B00C46694600F04FFF48B16E
:101680009DF8000010B1202804D10120207002B084
:10169000002010BD012002B010BD10B50446DFF8D7
:1016A000D4132079012805D12046FFF774FD0128C5
:1016B00003D110BDA068006841600021204600F001
:1016C000E8FB00282CD00821204601F0B6F838B3FA
:1016D0000421204601F092F810B30221204601F0C7
:1016E0006EF8E8B10821204601F0E5F8C0B1032109
:1016F000204601F01DF998B10321204601F036F98A
:1017000070B10821204601F04FF948B180212046F0
:1017100001F088F920B18021204601F0ADF808B928
:10172000012010BD0821204601F08AFA401E8041A8
:10173000C00F10BD00008C4000008C4200000C4225
:1017400000008C4110B50446002101F079FA38B34D
:101750000021204601F090F810B30021204601F04E
:10176000AAF8E8B10021204601F0E2F8C0B100215A
:10177000204601F0FBF898B10021204601F014F951
:1017800070B10021204601F04DF948B100212046FA
:1017900001F015F820B10021204601F02FF808B91A
:1017A000012010BD0021204601F047F8401E804175
:1017B000C00F10BD10B582B00C46694600F09EFE09
:1017C00048B19DF8000010B1102804D1012020700C
:1017D00002B0002010BD012002B010BD00B581B0E4
:1017E00001F069F8401E8041C00F01B000BD00B596
:1017F00081B001F09DF8401E8041C00F01B000BDD6
:1018000000B581B001F0B2F8401E8041C00F01B0B8
:1018100000BD00B581B001F0C7F8401E8041C00F87
:1018200001B000BD10B5044692492079012805D1C8
:101830002046FFF7B0FC012803D110BDA068006866
:1018400041600021204600F024FB48B140212046A1
:1018500001F04FF820B18021204601F00DF808B9C1
:10186000012010BD0421204601F0CBF9401E80412B
:10187000C00F10BD00000C410100504110B50446DE
:10188000002101F0BEF920B10021204600F0F4FF54
:1018900008B9012010BD0021204601F02AF8401EA1
:1018A0008041C00F10BD10B582B00C46694600F0F3
:1018B000A5FE48B19DF8000010B1402804D10120D8
:1018C000207002B0002010BD012002B010BD10B584
:1018D00082B00C46694600F031FE48B19DF8000028
:1018E000002818BF012803D1207002B0002010BDCD
:1018F000012002B010BD10B582B00C46694600F060
:101900002DFE48B19DF8000010B1022804D101203D
:10191000207002B0002010BD012002B010BD10B533
:1019200082B00C46694600F029FE48B19DF80000DF
:1019300010B1042804D10120207002B0002010BD95
:10194000012002B010BD10B582B00C46694600F00F
:1019500025FE48B19DF8000010B1082804D10120EF
:10196000207002B0002010BD012002B010BD10B5E3
:1019700082B00C46694600F021FE48B19DF8000097
:1019800010B1102804D10120207002B0002010BD39
:10199000012002B010BD10B582B00C46694600F0BF
:1019A0001DFE48B19DF8000010B1202804D101208F
:1019B000207002B0002010BD012002B010BD024610
:1019C0000846C14900B501F025FA81B038BF0821A9
:1019D0002FD3BE4901F01EFA38BF102129D3BC49CC
:1019E00001F018FA38BF182123D3BA4901F012FACE
:1019F00038BF20211DD3B84901F00CFA38BF282187
:101A000017D3B64901F006FA38BF302111D3B449D3
:101A100001F000FA38BF38210BD3B24901F0FAF9CE
:101A200038BF402105D3B04901F0F4F934BF482153
:101A30005021104600F00CFC401E8041C00F01B048
:101A400000BD0000000050410100D04101005042A3
:101A50000100D042010050430100D04301405044F6
:101A60000180CF440000D041000050420000D0422D
:101A7000000050430000D043004050440080CF4459
:101A80000020504510B582B00C46694600F017FEA4
:101A900068B19DF8000020B1202806D0012002B0D6
:101AA00010BD207002B0002010BD0120F9E7012018
:101AB00002B010BD10B582B00C46694600F0EFFDD3
:101AC00068B19DF8000020B1102806D0012002B0B6
:101AD00010BD207002B0002010BD0120F9E70120E8
:101AE00002B010BD10B582B00C46694600F0F7FD9B
:101AF00068B19DF8000020B1402806D0012002B056
:101B000010BD207002B0002010BD0120F9E70120B7
:101B100002B010BD00B581B000F0F1FD401E804163
:101B2000C00F01B000BD00B581B001F005F9401E45
:101B30008041C00F01B000BD00B581B000F08EFD46
:101B4000401E8041C00F01B000BD00B5072981B023
:101B500006D800F000FB401E8041C00F01B000BD60
:101B6000012001B000BD00B50A0018BF082981B0EE
:101B70000BD0102918BF182907D0202918BF2829F1
:101B800003D0302918BF382906D100F004FB401ECD
:101B90008041C00F01B000BD012001B000BD0000B8
:101BA00070B582B00D460446694601F0C5F80028BC
:101BB0002BD09DF801009DF8001041EA00260DF1A0
:101BC0000201204600F084F9F8B19DF802000C28CB
:101BD0001BD8DFE800F00D1A1A1A071A1A1A0B1A86
:101BE0001A1A0900414C04E0414C02E0414C00E06B
:101BF000414C30B201F020F9214601F037F901F0F3
:101C0000A1F9286002B0002070BD012002B070BDB3
:101C10000020D0450000FA42000075430000FA435E
:101C200000007A440000FA440100FA4270B582B024
:101C30000C4605460DF1020101F07EF8002837D070
:101C40009DF803009DF8021041EA00260DF1010104
:101C5000284600F041FA00282AD09DF80100022809
:101C600008BF264D18D06946284600F0B3F9F8B1F0
:101C70009DF800000C281BD8DFE800F00D1A1A1A96
:101C80000B1A1A1A091A1A1A07001D4D04E01D4DE5
:101C900002E01D4D00E01D4D30B201F0CDF82946A7
:101CA00001F0E4F801F04EF9206002B0002070BDB0
:101CB000012002B070BD0000010075430100FA432D
:101CC00001007A4401205045010020410100C84133
:101CD000010048420100C842010048430100C843D6
:101CE000010048440100C84401404E4523DBF93E51
:101CF00023DB793E23DBF93D23DB793D00008C407B
:101D000000008C4200000C4200008C4100000C419D
:101D100000B5062981B00CD8DFE801F004040B04FB
:101D2000040B040000F075FA401E8041C00F01B0A2
:101D300000BD012001B000BD00B50A0018BF202978
:101D400081B006D100F0A3FA401E8041C00F01B05F
:101D500000BD012001B000BD00B581B000F0CCF99C
:101D6000401E8041C00F01B000BD00B50A0018BF81
:101D7000802981B006D100F02DFA401E8041C00FAD
:101D800001B000BD012001B000BD00B5012981B046
:101D900006D800F0F5FC401E8041C00F01B000BD28
:101DA000012001B000BD00B5032981B006D800F0C4
:101DB000CBFA401E8041C00F01B000BD012001B030
:101DC00000BD00B5012981B006D800F0D9FC401E45
:101DD0008041C00F01B000BD012001B000BD000076
:101DE00000B50C2981B00FD8DFE801F0070E0E0E08
:101DF000070E0E0E070E0E0E070000F0C4FA401E6E
:101E00008041C00F01B000BD012001B000BD0268DB
:101E1000531C03601170704700B581B001F088F960
:101E2000401E8041C00F01B000BD00B581B001F07F
:101E300068F9401E8041C00F01B000BD00B50A46E0
:101E400081B001230F2101F073F9401E8041C00FC2
:101E500001B000BD30B581B00D46044601236A468D
:101E6000122101F065F910B1002001B030BD9DF8DC
:101E7000000000F0BF0028438DF8000001236A46EF
:101E80001221204601F03DF9401E8041C00F01B0F3
:101E900030BD30B581B00D46044601236A4610219D
:101EA00001F046F910B1002001B030BD9DF80000EE
:101EB00000F0F30028438DF8000001236A4610214A
:101EC000204601F01EF9401E8041C00F01B030BD18
:101ED00010B50C4601232246102101F029F908B162
:101EE000002010BD207800F00C002070012010BDF3
:101EF000F0B581B004460D4600260327F6B206F180
:101F000028010123AA19C9B2204601F011F950B9DC
:101F1000761CF6B206F128010123AA19C9B220469F
:101F200001F006F910B1002001B0F0BD761C7F1E53
:101F3000E4D1012001B0F0BD30B581B00D460446BA
:101F400001236A46102101F0F3F810B1002001B01E
:101F500030BD9DF8000000F00F0028438DF8000010
:101F600001236A461021204601F0CBF8401E804133
:101F7000C00F01B030BD10B50C4601232246102120
:101F800001F0D6F808B1002010BD207800F0F00074
:101F90002070012010BD30B581B00D4604460123EC
:101FA0006A46112101F0C4F810B1002001B030BD23
:101FB0009DF8000000F0F30028438DF80000012395
:101FC0006A461121204601F09CF8401E8041C00F56
:101FD00001B030BD10B50C4601232246112101F09D
:101FE000A7F808B1002010BD207800F00C00207088
:101FF000012010BDF0B581B004460D460026032730
:10200000F6B206F122010123AA19C9B2204601F055
:102010008FF850B9761CF6B206F122010123AA19F5
:10202000C9B2204601F084F810B1002001B0F0BD23
:10203000761C7F1EE4D1012001B0F0BD30B581B027
:102040000D46044601236A46112101F071F810B1D2
:10205000002001B030BD9DF8000000F00F002843C3
:102060008DF8000001236A461121204601F049F84D
:10207000401E8041C00F01B030BD10B50C46012399
:102080002246112101F054F808B1002010BD20783B
:1020900000F0F0002070012010BD30B581B00D4679
:1020A000044601236A46112101F042F810B10020D4
:1020B00001B030BD9DF8000000F0FD0028438DF810
:1020C000000001236A461121204601F01AF8401E43
:1020D0008041C00F01B030BD10B50C46012322462F
:1020E000112101F025F808B1002010BD207800F082
:1020F00002002070012010BD70B582B0044601239B
:102100006A460D46062101F013F82E0A78B98DF8BB
:10211000005001236A460621204600F0F2FF30B944
:1021200001236A460721204601F002F810B1002081
:1021300002B070BD9DF8000066F302008DF800004B
:1021400001236A460721204600F0DBFF401E804144
:10215000C00F02B070BD30B581B00D4604460123FA
:102160006A46082100F0E4FF10B1002001B030BD44
:102170009DF8000000F0F80028438DF800000123CE
:102180006A460821204600F0BCFF401E8041C00F77
:1021900001B030BD000030B581B00D4604460123CA
:1021A0006A46082100F0C4FF10B1002001B030BD24
:1021B0009DF8000000F0C70028438DF800000123BF
:1021C0006A460821204600F09CFF401E8041C00F57
:1021D00001B030BD30B581B00D46044601236A46DA
:1021E000092100F0A5FF10B1002001B030BD9DF81D
:1021F000000000F07F0028438DF8000001236A46AC
:102200000921204600F07DFF401E8041C00F01B033
:1022100030BD30B581B00D46044601236A460A211F
:1022200000F086FF10B1002001B030BD9DF8000025
:1022300000F0F80028438DF8000001236A460A21C7
:10224000204600F05EFF401E8041C00F01B030BD4F
:1022500030B581B00D46044601236A460A2100F0DC
:1022600067FF10B1002001B030BD9DF8000000F004
:10227000870028438DF8000001236A460A21204682
:1022800000F03FFF401E8041C00F01B030BD30B5AF
:1022900081B00D46044601236A460D2100F048FF37
:1022A00010B1002001B030BD9DF8000000F0DF004B
:1022B00028438DF8000001236A460D21204600F0D6
:1022C00020FF401E8041C00F01B030BD30B581B04D
:1022D0000D46044601236A460D2100F029FF10B186
:1022E000002001B030BD9DF8000000F07F002843C1
:1022F0008DF8000001236A460D21204600F001FF01
:10230000401E8041C00F01B030BD30B581B00D46D8
:10231000044601236A46122100F00AFF10B1002092
:1023200001B030BD9DF8000000F0FB0028438DF89F
:10233000000001236A461221204600F0E2FE401E02
:102340008041C00F01B030BD30B581B00D460446AC
:1023500001236A46142100F0EBFE10B1002001B009
:1023600030BD9DF8000000F0FC0028438DF800000F
:1023700001236A461421204600F0C3FE401E80411E
:10238000C00F01B030BD30B581B00D460446012309
:102390006A46142100F0CCFE10B1002001B030BD1F
:1023A0009DF8000000F0F30028438DF800000123A1
:1023B0006A461421204600F0A4FE401E8041C00F52
:1023C00001B030BD30B581B00D46044601236A46E8
:1023D000192100F0ADFE10B1002001B030BD9DF814
:1023E000000000F0FD0028438DF8000001236A463C
:1023F0001921204600F085FE401E8041C00F01B02B
:1024000030BD30B581B00D46044601236A4619211E
:1024100000F08EFE10B1002001B030BD9DF800002C
:1024200000F0F70028438DF8000001236A461921C7
:10243000204600F066FE401E8041C00F01B030BD56
:1024400030B581B00D46044601236A46192100F0DB
:102450006FFE10B1002001B030BD9DF8000000F00B
:10246000EF0028438DF8000001236A461921204619
:1024700000F047FE401E8041C00F01B030BD30B5B6
:1024800081B00D46044601236A46192100F050FE32
:1024900010B1002001B030BD9DF8000000F0FB003D
:1024A00028438DF8000001236A461921204600F0D8
:1024B00028FE401E8041C00F01B030BD10B50C4653
:1024C000012322461B2100F033FE08B1002010BD7D
:1024D000207800F008002070012010BD10B50C46D7
:1024E000012322461B2100F023FE08B1002010BD6D
:1024F000207800F020002070012010BD10B50C469F
:10250000012322461C2100F013FE08B1002010BD5B
:10251000207800F010002070012010BD10B50C468E
:10252000012322461C2100F003FE08B1002010BD4B
:10253000207800F020002070012010BD10B50C465E
:10254000012322461D2100F0F3FD08B1002010BD3B
:10255000207800F001002070012010BD10B50C465D
:10256000012322461D2100F0E3FD08B1002010BD2B
:10257000207800F002002070012010BD10B50C463C
:10258000012322461D2100F0D3FD08B1002010BD1B
:10259000207800F004002070012010BD10B50C461A
:1025A000012322461D2100F0C3FD08B1002010BD0B
:1025B000207800F008002070012010BD10B50C46F6
:1025C000012322461D2100F0B3FD08B1002010BDFB
:1025D000207800F010002070012010BD10B50C46CE
:1025E000012322461D2100F0A3FD08B1002010BDEB
:1025F000207800F020002070012010BD10B50C469E
:10260000012322461D2100F093FD08B1002010BDDA
:10261000207800F040002070012010BD10B50C465D
:10262000012322461E2100F083FD08B1002010BDC9
:10263000207800F001002070012010BD10B50C467C
:10264000012322461E2100F073FD08B1002010BDB9
:10265000207800F002002070012010BD30B581B05C
:102660000D46044601236A463A2100F061FD38B95F
:1026700001230DF101023B21204600F059FD10B16C
:10268000002001B030BD9DF801009DF8001000F061
:102690000F0041EA0020288001B0012030BD10B5B4
:1026A0000C46012322463B2100F042FD08B10020E8
:1026B00010BD207800F010002070012010BD10B572
:1026C0000C46012322463B2100F032FD08B10020D8
:1026D00010BD207800F020002070012010BD10B542
:1026E0000C46012322463B2100F022FD08B10020C8
:1026F00010BD207800F040002070012010BD30B5E2
:1027000081B00D46044601236A463C2100F010FDCD
:1027100038B901230DF101023D21204600F008FDEA
:1027200010B1002001B030BD9DF801009DF80010EF
:1027300000F0030041EA0020288001B0012030BDF4
:1027400010B50C4601232246532100F0F1FC08B1DC
:10275000002010BD207800F010002070012010BD76
:1027600010B50C4601232246532100F0E1FC08B1CC
:10277000002010BD207800F020002070012010BD46
:1027800030B581B00D46044601236A46582100F059
:10279000CFFC10B1002001B030BD9DF8000000F06A
:1027A000FE0028438DF8000001236A465821204688
:1027B00000F0A7FC401E8041C00F01B030BD30B515
:1027C00081B00D46044601236A46582100F0B0FC52
:1027D00010B1002001B030BD9DF8000000F0FD00F8
:1027E00028438DF8000001236A465821204600F056
:1027F00088FC401E8041C00F01B030BD30B581B0B3
:102800000D46044601236A46582100F091FC10B1A0
:10281000002001B030BD9DF8000000F0FB0028430F
:102820008DF8000001236A465821204600F069FC1B
:10283000401E8041C00F01B030BD30B581B00D46A3
:10284000044601236A46582100F072FC10B10020B2
:1028500001B030BD9DF8000000F0F70028438DF86E
:10286000000001236A465821204600F04AFC401E21
:102870008041C00F01B030BD30B581B00D46044677
:1028800001236A46582100F053FC10B1002001B02A
:1028900030BD9DF8000000F07F0028438DF8000057
:1028A00001236A465821204600F02BFC401E80413F
:1028B000C00F01B030BD30B581B00D4604460123D4
:1028C0006A46592100F034FC10B1002001B030BD3F
:1028D0009DF8000065F304008DF8000001236A46AE
:1028E0005921204600F00DFC401E8041C00F01B070
:1028F00030BD30B581B00D46044601236A465921EA
:1029000000F016FC10B1002001B030BD9DF80000B1
:1029100000F09F0028438DF8000001236A465921EA
:10292000204600F0EEFB401E8041C00F01B030BDDC
:1029300030B581B00D46044601236A465A2100F0A5
:10294000F7FB10B1002001B030BD9DF8000065F329
:1029500001008DF8000001236A465A21204600F04C
:10296000D0FB401E8041C00F01B030BD30B581B0FA
:102970000D46044601236A465A2100F0D9FB10B1E6
:10298000002001B030BD9DF8000065F383008DF894
:10299000000001236A465A21204600F0B2FB401E87
:1029A0008041C00F01B030BD30B581B00D46044646
:1029B00001236A465A2100F0BBFB10B1002001B090
:1029C00030BD9DF8000000F00F0040EA05108DF8C2
:1029D000000001236A465A21204600F092FB401E67
:1029E0008041C00F01B030BD30B581B00D46044606
:1029F00001236A465B2100F09BFB10B1002001B06F
:102A000030BD9DF8000065F305008DF8000001233E
:102A10006A465B21204600F074FB401E8041C00FD7
:102A200001B030BD30B581B00D46044601236A4681
:102A30005B2100F07DFB10B1002001B030BD9DF89E
:102A4000000000F07F0028438DF8000001236A4653
:102A50005B21204600F055FB401E8041C00F01B0B5
:102A600030BD30B581B00D46044601236A465C2175
:102A700000F05EFB10B1002001B030BD9DF80000F9
:102A800065F303008DF8000001236A465C212046AF
:102A900000F037FB401E8041C00F01B030BD30B5A3
:102AA00081B00D46044601236A465C2100F040FBDC
:102AB00010B1002001B030BD9DF8000000F0EF0023
:102AC00028438DF8000001236A465C21204600F06F
:102AD00018FB401E8041C00F01B030BD30B581B041
:102AE0000D46044601236A465C2100F021FB10B12B
:102AF000002001B030BD9DF8000065F346108DF850
:102B0000000001236A465C21204600F0FAFA401ECC
:102B10008041C00F01B030BD30B581B00D460446D4
:102B200001236A465D2100F003FB10B1002001B0D3
:102B300030BD9DF8000000F0F80028438DF800003B
:102B400001236A465D21204600F0DBFA401E8041E9
:102B5000C00F01B030BD70B582B0044601236A4693
:102B60000E465D2100F0E4FA7509A8B99DF8000051
:102B700000F0070040EAC6008DF8000001236A4615
:102B80005D21204600F0BDFA30B901236A465C2180
:102B9000204600F0CDFA10B1002002B070BD9DF8C3
:102BA000000000F07F0040EAC5108DF8000001230E
:102BB0006A465C21204600F0A4FA401E8041C00F06
:102BC00002B070BD30B581B00D46044601236A469F
:102BD0005E2100F0ADFA10B1002001B030BD9DF8CB
:102BE000000000F0FD0028438DF8000001236A4634
:102BF0005E21204600F085FA401E8041C00F01B0E2
:102C000030BD30B581B00D46044601236A465E21D1
:102C100000F08EFA10B1002001B030BD9DF8000028
:102C200000F0FB0028438DF8000001236A465E2176
:102C3000204600F066FA401E8041C00F01B030BD52
:102C400030B581B00D46044601236A465E2100F08E
:102C50006FFA10B1002001B030BD9DF8000000F007
:102C6000F70028438DF8000001236A465E212046C4
:102C700000F047FA401E8041C00F01B030BD30B5B2
:102C800081B00D46044601236A465E2100F050FAE9
:102C900010B1002001B030BD9DF8000000F0EF0041
:102CA00028438DF8000001236A465E21204600F08B
:102CB00028FA401E8041C00F01B030BD30B581B050
:102CC0000D46044601236A465E2100F031FA10B138
:102CD000002001B030BD9DF8000000F0DF00284367
:102CE0008DF8000001236A465E21204600F009FAB3
:102CF000401E8041C00F01B030BD30B581B00D46DF
:102D0000044601236A465E2100F012FA10B1002049
:102D100001B030BD9DF8000000F0BF0028438DF8E1
:102D2000000001236A465E21204600F0EAF9401EB9
:102D30008041C00F01B030BD30B50D4681B00446B2
:102D400001232A463E2100F0F3F930B901236A1C21
:102D50003F21204600F0ECF910B1002001B030BD59
:102D6000012001B030BD30B50D4681B004460123CD
:102D70002A464B2100F0DCF930B901236A1C4C21B2
:102D8000204600F0D5F910B1002001B030BD01207F
:102D900001B030BD30B581B00D46044601236A460E
:102DA000012100F0C5F958B99DF8000040F08000FD
:102DB0008DF8000001236A460121204600F0A1F9A8
:102DC00001230DF101020F21204600F0B1F99DF819
:102DD000010065F304008DF8010001230DF10102EB
:102DE0000F21204600F08DF901236A46012120467B
:102DF00000F09EF958B99DF8000000F07F008DF8B2
:102E0000000001236A460121204600F07AF90120E2
:102E100001B030BD4FF0807C1CEB400F94BF1CEB29
:102E2000410F05E040EA010C5FEA4C0C01D28842F8
:102E3000704718BF81427047002840F10980F4466E
:102E4000404200F005F850F000406047002800BF05
:102E50000AD0B0FA80F18840D1F19D01C90502067F
:102E600072F1004241EB102070470000FF2212EA8D
:102E7000D05C1DBF12EAD153944593422BE09C4491
:102E8000D30780EA01021A4043EA002043EA012105
:102E9000A1FB0030410038BF40007CF17F010BDB1B
:102EA000FE294ADA5B0842EAC15153EA006373F132
:102EB000004C51EB10207047D1F1080CDCF12001DF
:102EC0002FDB5B0810FA01F10B4373F1004120FA8C
:102ED0000CF05041704794451CBF02EAD153934215
:102EE00080EA010202F000421DD0400019D04900E2
:102EF00017D05BB9634514D00902B1FA81F3994048
:102F0000BCEB030CC00140F00040C1E70002B0FA86
:102F100080FC10FA0CF0B3EB0C0CC90141F000413D
:102F2000B6E71000704740000AD0490008D010F101
:102F3000807F94BF11F1807F02E042F0FF40704734
:102F4000D04370474100090E7F3915D4D1F11F01DC
:102F500014D4400007D2C00140F00040C84048BF30
:102F60006FF000407047C00140F00040C8404CBFC7
:102F70004FF00040404270470020704700424FF041
:102F8000004058BFC043704730B5A14C87B02046C1
:102F900000F0C0FD002847D19E489F4D606001A908
:102FA0000020A0603320E0604FF4804020619B4807
:102FB0002060686840F002006860686800F0020005
:102FC000009000984FF4407001901220029002206F
:102FD00004900020039004200590914800F09EFD8D
:102FE000E86840F40010E8600022E86800F400108F
:102FF000009000210098286840F40010286028689C
:1030000020F4001028601F2000F083FE1F2000F035
:10301000A9FE00220021202000F07BFE202000F0ED
:10302000A1FE204600F002F9204600F073FD2028A2
:103030000CBF0020012007B030BD70B5794D7A4C2F
:10304000774E8CB0286840F00200286006A92868F6
:1030500000F00200009000980794202006900220C3
:10306000099000200890304600F058FD0022002111
:10307000172000F04EFE172000F074FE286840F084
:103080000200286001A9286800F002000090009862
:1030900002941020019002200490002003903046FA
:1030A00000F03CFD002200210A2000F032FE0A2040
:1030B00000F058FE00200CB070BD00B5594887B034
:1030C000016841F00201016001A9006800F00200FE
:1030D000009000984FF480600190534802900220C5
:1030E0000490002003904E4800F018FD00220021BB
:1030F000282000F00EFE282000F034FE002007B04B
:1031000000BD30B583B04FF48055009202950A4659
:103110000193012341783E4C204600F02DF928B15F
:10312000204600F00FF900F01AF8012003B030BD7E
:1031300030B583B04FF48055009202950A46019352
:1031400001234178324C204600F08BFA28B120460A
:1031500000F0F8F800F003F8012003B030BD30B5FE
:103160002B4C87B0204600F0D5FC002847D12948D9
:10317000294D606001A90020A0603320E0604FF479
:103180008040206125482060686840F00200686047
:10319000686800F00200009000984FF440700190C1
:1031A0001220029002200490002003900420059039
:1031B0001B4800F0B3FCE86840F40010E86000220F
:1031C000E86800F40010009000210098286840F49E
:1031D00000102860286820F4001028601F2000F0EC
:1031E00098FD1F2000F0BEFD00220021202000F0ED
:1031F00090FD202000F0B6FD204600F017F8204694
:1032000000F088FC20280CBF0020012007B030BD52
:1032100024140020801A0600183802400054004090
:10322000000402401C3802400000111070B5040078
:103230000CD094F8350020B984F83400204600F012
:103240006CFC01F0FFF83A49884201D2012070BDC0
:10325000242184F8351021680A68520852000A6057
:103260003449B0FBF1F221684B689B0942EA8313B1
:103270004B60314923681D6A66688E4206D34FF45D
:10328000967672434FF47A76B2FBF6F2521CAD0991
:1032900042EA85121A622268D36965688D4208D2B3
:1032A0006900B0FBF1F0C0F30B01042913D2042034
:1032B00011E0A16821B905EB4501B0FBF1F005E093
:1032C00019216943B0FBF1F040F4804001050CBFC7
:1032D000012040F40040194919400843D06120689A
:1032E0000168E26921F0C0011143226A11430160C3
:1032F0002068134A8168114022691143E268114332
:1033000081602068C168A2696369090A1A4342EAB8
:103310000121C1602068016841F0010101600020C5
:10332000A063202084F83500002084F8360070BDAA
:1033300080841E0040420F00A18601000030FFFF84
:10334000007CFFFF10B5040001D1012010BD242036
:1033500084F835002068016849084900016020466A
:1033600001F0A0F80020A06384F8350084F836004E
:1033700084F8340010BD00002DE9F04F054681B0FF
:1033800095F8350020288A46164699461FD1DDF863
:103390002880B8F1000F02D00B9C200003D101203F
:1033A00001B0BDE8F08F01F07FF8074642F2117BD3
:1033B0002868816989070ED501F076F8C01B584549
:1033C000F6D3202085F83500002085F8340002204F
:1033D00001B0BDE8F08F95F834100129F7D0012134
:1033E00085F83410016821F400610160212085F81E
:1033F0003500402085F836000020A8632868016861
:1034000041F48071016001F04FF80C9F83462868F9
:103410004169C9071AD417F1010FF8D02FB101F093
:1034200043F8A0EB0B008742F1D2202085F835004D
:10343000002085F83400A86B042840F0AE800020FE
:1034400085F8340001B00120BDE8F08F0AF0FE01DC
:10345000016101F029F882462868416989074169BC
:103460001ED449050AD5016841F4007101606FF46A
:103470008060296848610420A86309E017F1010F02
:10348000EAD02FB101F010F8A0EB0A008742E3D296
:10349000202085F83500002085F83400A86BCAE7A5
:1034A000009180690090009800F0FEFF8246296834
:1034B0004869000624D44869400513D56FF480603C
:1034C00048610420A863202085F83500002085F895
:1034D0003400A86B0428AED12868016841F400715B
:1034E0000160A8E717F1010FE1D02FB100F0DCFF78
:1034F000A0EB0A008742DAD2A86B40F02000E1E797
:10350000B9F1010F25D0300A086100F0CDFF8146E6
:103510002868416909061CD44169490504D56FF43E
:103520008061416104200CE017F1010FF0D02FB150
:1035300000F0BAFFA0EB09008742E9D2A86B40F087
:103540002000A863202085F83500002085F834008D
:10355000BFE72868F6B2066100F0A6FF06462868B5
:10356000416909062DD4416949051DD56FF4806173
:1035700041610420A863202085F83500002085F8EB
:103580003400A86B04280BD12868016841F400714D
:103590000160012001B0BDE8F08F002085F8340003
:1035A000032001B0BDE8F08F17F1010FD7D027B18C
:1035B00000F07AFF801B8742D1D2A86B40F0200038
:1035C000D8E718F8011B0161641E286841694907A2
:1035D00023D4A0B20028BFD100F066FF04462868BB
:1035E000416909062ED4416949051ED56FF48061F1
:1035F00041610420A863202085F83500002085F86B
:103600003400A86B0428CBD12868016841F400710C
:103610000160012001B0BDE8F08FA1B20029DBD02C
:1036200018F8011B0161641ED3E717F1010FD6D012
:1036300027B100F039FF001B8742D0D2A86B40F0C1
:103640002000D7E7016841F400710160202085F86F
:103650003500002085F8360085F8340001B0BDE85B
:10366000F08F2DE9F04F054681B095F83500202800
:103670000E46924698461FD1DDF82890B9F1000F0A
:1036800002D00B9C200003D1012001B0BDE8F08FD7
:1036900000F00AFF074642F2117B2868816989071A
:1036A0000ED500F001FFC01B5845F6D3202085F849
:1036B0003500002085F83400022001B0BDE8F08F0D
:1036C00095F834100129F7D0012185F834100168EC
:1036D00021F400610160222085F83500402085F842
:1036E00036000020A8632868016841F48061016009
:1036F0002868016841F48071016000F0D5FE0C9FDC
:10370000834628684169C9070CD417F1010FF8D026
:10371000002F00F0C78000F0C7FEA0EB0B0087422F
:10372000EFD2BFE006F0FE01016100F0BDFE83466E
:1037300028684169890741691DD449050AD501688E
:1037400041F4007101606FF48060296848610420D1
:10375000A86309E017F1010FEAD02FB100F0A4FE31
:10376000A0EB0B008742E3D2202085F83500002033
:1037700085F83400BBE0009180690090009800F06B
:1037800093FE83462968486900061CD448694005B1
:103790000BD56FF4806048610420A863202085F871
:1037A0003500002085F834005EE017F1010FE9D004
:1037B0002FB100F079FEA0EB0B008742E2D2A86B9C
:1037C00040F02000E9E7B8F1010F26D04FEA1A20B7
:1037D000086100F069FE80462868416909061CD42A
:1037E0004169490504D56FF48061416104200CE012
:1037F00017F1010FF0D02FB100F056FEA0EB08003A
:103800008742E9D2A86B40F02000A863202085F809
:103810003500002085F8340026E028685FFA8AF138
:10382000016100F041FE824628684169090624D4FE
:103830004169490504D56FF48061416104200CE0C1
:1038400017F1010FF0D02FB100F02EFEA0EB0A000F
:103850008742E9D2A86B40F02000A863202085F8B9
:103860003500002085F83400A86B042840D1286872
:10387000016841F4007101603AE0016841F480712F
:10388000016000F011FE824628684169C90710D422
:1038900017F1010FF8D02FB100F006FEA0EB0A00DF
:1038A0008742F1D2202085F83500002085F83400C9
:1038B0001EE046F00101C9B2016100F0F5FD0646C7
:1038C00028684169890728D4416949051AD50168E2
:1038D00041F4007101606FF4806029684861042040
:1038E000A863202085F83500002085F83400A86BF7
:1038F000A86B042822D1002085F8340001B00120F3
:10390000BDE8F08F17F1010FDAD0002FE9D000F0F9
:10391000CBFD801B8742D3D2E3E7012C15D1016890
:1039200021F48061016028684169009181690091FA
:103930000099016841F40071016017E0002085F8EA
:10394000340001B00320BDE8F08F022C09D10168DA
:1039500021F4806101602868016841F40061016020
:10396000286841690091806900900098A4B2042CF5
:1039700080F29B80012C38D100F096FD0646286825
:10398000416949061FD44169C90612D56FF010017B
:1039900041610020A863202085F83500002085F8CB
:1039A0003400A86B20287FF46FAE032001B0BDE87F
:1039B000F08F27B100F078FD801B8742DFD2A86B23
:1039C00040F02000E6E7006909F8010B0024A0B2EE
:1039D0000028CBD1202085F83500002085F836005E
:1039E00085F8340001B0BDE8F08F022C1DD100F045
:1039F0005BFD06462868416949070CD417F1010FA1
:103A0000F8D027B100F050FD801B8742F2D2202071
:103A100085F8350092E7016841F40071016028687B
:103A2000006909F8010B2868CDE700F03DFD064666
:103A30002868416949070CD417F1010FF8D027B164
:103A400000F032FD801B8742F2D2202085F835003D
:103A500074E7016821F4806101602868006989F8D1
:103A6000000000F021FD06462868416949070CD492
:103A700017F1010FF8D027B100F016FD801B874227
:103A8000F2D2202085F8350058E7016841F4007132
:103A90000160E41E2868006989F80100286800694F
:103AA00089F8020009F1030991E700F0FDFC0646E0
:103AB0002868416949061FD44169C90612D56FF0CB
:103AC000100141610020A863202085F83500002006
:103AD00085F83400A86B20287FF4D6AD032001B010
:103AE000BDE8F08F27B100F0DFFC801B8742DFD2FA
:103AF000A86B40F02000E6E7006909F8010B641E9E
:103B00002868416949077FF562AF006909F8010B30
:103B1000641E5CE790F83500704770472DE9F04F60
:103B200081B00C68694BDFF8A881DFF8A89100220A
:103B3000002C4FF00F0A4FF0010B00F0B1800C6821
:103B40000BFA02FC1CEA040E00F0A5804C68022C63
:103B500018BF122C0ED1D40800EB84049500266AFD
:103B600005F01C050AFA05F7BE430F6907FA05F5CB
:103B7000354325625400032506680F79A540ED43BF
:103B800007F003072E40A7403E4306604E68012E13
:103B900018BF022E03D0112E18BF122E0ED1866828
:103BA000CF682E40A7403E438660466826EA0C0751
:103BB0004E68C6F3001696403E434660C6682E40E7
:103BC0008D6805FA04F43443C4604C68E40062D59F
:103BD000D9F8004044F00104C9F800404FEA920CC3
:103BE000D9F8005005F0010400949500009C58F8A5
:103BF0002C6005F00C040AFA04F526EA0505364E99
:103C0000B04208BF00261DD0344EB04208BF012686
:103C100018D0334EB04208BF022613D0314EB04206
:103C200008BF03260ED0304EB04208BF042609D08C
:103C30002E4EB04208BF052604D02D4EB0420CBF18
:103C40000626072606FA04F42C4348F82C406FEAAF
:103C50000E061C684D683440ED0348BF4EEA04046C
:103C60001C605C684D683440AD0348BF4EEA0404F4
:103C70005C609C684D683440ED0248BF4EEA040425
:103C80009C60DC6806EA040C4C68A40248BF4EEA5B
:103C90000C0CC3F80CC0521C0C68D4407FF44FAF1E
:103CA00001B0BDE8F08F000002B9090481617047DE
:103CB00042695140416170470E4A136803421CBF7C
:103CC000106000F08ABF704700000000000401404F
:103CD0000800014020380240000002400004024079
:103CE00000080240000C0240001002400014024094
:103CF000001802401404014027490A684FF6FF03E8
:103D000000021A4000F4E0601043244A10430860A7
:103D1000704730B4204B1B68C3F30223C3F1070480
:103D2000052C28BF04241D1D072D34BF0023DB1ED6
:103D3000012505FA04F4641E2140994005FA03F3B5
:103D40005B1E1A4011430901002807D5144A00F0F0
:103D50000F00104400F8041C30BC7047114A115485
:103D600030BC7047012100F01F0291400E4A40090B
:103D700042F820107047401EB0F1807F01D301202F
:103D800070470A494860F02081F8130D00208860D0
:103D900007200860002070470CED00E00000FA05E5
:103DA00018ED00E000E400E000E100E010E000E0D9
:103DB000F0B5044681B02078DFF8B056C00752D580
:103DC000A86800F00C00082807D0A86800F00C00D4
:103DD0000C280DD1A868C0030AD52868C0F340405C
:103DE000002840D0606800283DD1012001B0F0BD1E
:103DF0006068012803D1286840F4803012E008B9D7
:103E0000286809E00528286806D140F48020286049
:103E1000286840F4803005E020F48030286028686D
:103E200020F480202860606870B100F03DFB0646F9
:103E30002868C0F34040B0B900F036FB801B65280D
:103E4000F6D3032001B0F0BD00F02EFB0646286833
:103E5000C0F3404038B100F027FB801B6528F6D343
:103E6000032001B0F0BD207880071BD5A86800F0C2
:103E70000C00042807D0A86800F00C000C2832D1F0
:103E8000A868C0032FD42868C0F3400000281CBFD6
:103E9000E0680128A9D16868216920F4F85040EA57
:103EA000012068602078C00640F1C180A86810F049
:103EB0000C0F40F0D7802868C0F3402010B1A069F3
:103EC000002892D0266A686800F46040B04269D247
:103ED000A868002710F0F00F48D1686AC00029D503
:103EE00000F026FF35E0E068DFF8887588B1012032
:103EF000386000F0D9FA06462868C0F34000002870
:103F0000C9D100F0D1FA801B0328F5D3032001B0FA
:103F1000F0BD386000F0C8FA06462868C0F34000DB
:103F20000028BFD000F0C0FA801B0328F5D303207F
:103F300001B0F0BD686A40F080506862686A00F0C5
:103F400080500090009800F0F3FE696A21F08051E3
:103F50006962B0F5C05F08BFB6F5404F06D1D5F82D
:103F6000000440F004000127C5F80004D5F800045F
:103F7000400847EA4000C5F80004D5F8000400F006
:103F80000100B8427FF431AF6868216A20F46040D4
:103F9000084368606868E16920F07F4040EA01609A
:103FA000686041E0686820F4604030436860002742
:103FB0006868E16920F07F4040EA01606860266A35
:103FC000A86810F0F00F21D1686AC00002D500F097
:103FD000AFFE0EE0686A40F080506862686A00F0E8
:103FE00080500090009800F0A3FE696A21F0805193
:103FF0006962B0F5C05F08BFB6F5404F06D1D5F88D
:10400000000440F004000127C5F80004D5F80004BE
:10401000400847EA4000C5F80004D5F8000400F065
:104020000100B8427FF4E1AE0F2000F089FE207855
:1040300000075CD56069DFF83C74002846D0012099
:10404000C7F8800600F030FA0646686BC0F34000FF
:1040500000284CD100F028FA801B0328F5D3032058
:1040600001B0F0BDA069DFF80C74F0B10120386236
:1040700000F01AFA06462868C0F3402038B900F06C
:1040800013FA801B0328F6D3032001B0F0BD686843
:10409000216A20F46040084368606868E16920F0A4
:1040A0007F4040EA01606860C1E7386200F0FCF9D7
:1040B00006462868C0F340200028B8D000F0F4F984
:1040C000801B0328F5D3032001B0F0BDC7F880069C
:1040D00000F0EAF90646686BC0F3400038B100F022
:1040E000E3F9801B0328F6D3032001B0F0BD20784C
:1040F00040075BD5686ADFF8807340F080506862E3
:10410000686A00F0805000900098386840F4807031
:10411000386000F0C9F906463868C00507D400F0D9
:10412000C3F9801B6528F7D3032001B0F0BDA06858
:10413000012803D1686B40F4807012E008B9686B05
:1041400009E00528686B06D140F480606863686BFD
:1041500040F4807005E020F480706863686B20F4A0
:1041600080606863A06880B100F09EF9064641F265
:104170008937686BC0F34020C0B900F095F9801B07
:10418000B842F6D3032001B0F0BD00F08DF9064629
:1041900041F28937686BC0F3402038B100F084F9F0
:1041A000801BB842F6D3032001B0F0BD606A00283E
:1041B00046D0A96801F00C010C293FF416AE022884
:1041C000DFF8B0722BD10020386600F06DF906469A
:1041D0002868C0F3406038B100F066F9801B0328FE
:1041E000F6D3032001B0F0BDA868A16A20F47D00D9
:1041F0000843E16A0843216B0843A8600120386640
:1042000000F052F906462868C0F34060C0B900F0DB
:104210004BF9801B0328F6D3032001B0F0BD00202A
:10422000386600F041F906462868C0F3406038B1AE
:1042300000F03AF9801B0328F6D3032001B0F0BD4B
:10424000002001B0F0BDF0B5DFF8206281B0044677
:10425000D6F800040D4600F00100A84215D2012D49
:1042600005D1D6F8000440F00400C6F80004D6F8E2
:104270000004400845EA4000C6F80004D6F80004EF
:1042800000F00100A84240F08B802078800705D51F
:10429000B068A16820F0F0000843B0602078C00743
:1042A00063D56068022803D13168C1F340410AE058
:1042B000032803D13168C1F3406104E0012831686B
:1042C00005D1C1F3400131B9012001B0F0BDC1F306
:1042D0004021002964D0B168890840EA8100B060BB
:1042E00000F0E2F80746606802280ED1B06800F0DE
:1042F0000C00082839D000F0D7F8C01B41F28931F2
:104300008842F3D3032001B0F0BD03280ED1B0687A
:1043100000F00C000C2828D000F0C6F8C01B41F2B9
:1043200089318842F3D3032001B0F0BD01280ED1BA
:10433000B06800F00C00042817D000F0B5F8C01BDE
:1043400041F289318842F3D3032001B0F0BDB06857
:1043500010F00C0F09D000F0A7F8C01B41F2893112
:104360008842F4D3032001B0F0BDD6F8000400F079
:104370000100854217D2012D05D1D6F8000440F086
:104380000400C6F80004D6F80004400845EA4000DE
:10439000C6F80004D6F8000400F00100A84202D0DC
:1043A000012001B0F0BD2078400705D5B068E16874
:1043B00020F4E0600843B0602078000706D5B068BC
:1043C000216920F4605040EAC100B06000F00EF8AE
:1043D000B2682A49C2F30312895CC84024490860C4
:1043E0000F2000F0ADFC002001B0F0BD2548416871
:1043F00001F00C02042A04D0082A04D00C2A04D0AC
:1044000016E021487047214870470FF28C02C1F333
:104410008343C1F38151D25C0FF27803595C406849
:10442000C0034CBF194818485043B0FBF1F0704727
:104430000068400B00F007000121401C01FA00F069
:10444000C00370470A480E4A006812681049C2F358
:104450000222895CC84070470548094A0068126812
:104460000B49C2F3C222895CC84070470038024041
:1044700098090020000047420070004070B6000814
:1044800008380240043802400024F40000127A0088
:1044900064B8000801020304030406080C10182085
:1044A000300000007047000001480068704700BFFE
:1044B000F81400202DE9F04FCFB000F055FC00F0CB
:1044C0006DFC002000F02EFD002000F054FD0121C5
:1044D000002000F065FD00F047FE0C200090002059
:1044E000099001200290002005906846FFF760FCCB
:1044F000DFF8644700281ABF01204FF49871FF21AC
:10450000E1600A467F21A160DFF850170860A264CD
:10451000DFF84C072060402060600020206160616F
:10452000A061204600F096FE00B1FEE714208DF851
:104530000300012202208DF80100694618208DF841
:10454000020002208DF80000204600F077FF00B145
:10455000FEE708208DF80400012210208DF80500E8
:1045600001A90020ADF8060004900590204600F057
:10457000CCFE00B1FEE704F168014FF0FF3001F01E
:1045800023F804F16C014FF0FF3001F05FF904F102
:1045900070014FF0FF3001F04BFA04F174014FF05D
:1045A000FF3001F00BFB04F178014FF0FF3001F018
:1045B000CFFB04F17C014FF0FF3001F025FD0FF23D
:1045C0003C7ADFF8A0860FF2AC69DFF89C6641F216
:1045D000883520E000F0CFFC307800281CBF94F82C
:1045E0004500002810D00DA801F0F8FD94F8460011
:1045F0008DF86B0034200D900DA800F09DFD00207B
:1046000084F8450084F8460094F8440018B14FF44B
:10461000FA7001F0A3FE0DA800F00EFD58B19DF850
:104620003800322807D10DA801F0E2FD307810B132
:10463000002084F84400206DE16C884237D0E06CA3
:104640002065E06FE16CC90702D501F03DFD01E096
:1046500001F04AFD606FE16C490702D501F0F6FAFE
:1046600001E001F003FBA06FE16C890702D501F0C6
:1046700049FC01E001F056FCA06EE16CC90602D5D0
:1046800001F052F801E001F05FF8E06EE16C89069C
:1046900002D501F03BF901E001F048F9206FE16C2F
:1046A000490602D501F008FA01E001F015FA317867
:1046B0000020002904BF94F84410002911D00022E2
:1046C00003A9204601F058FE002202A9204600F06E
:1046D0003DFFA06C0499411A64225143401C91FB98
:1046E000F0F0317871B19DF80C108DF83B108DF819
:1046F0003E009DF80D108DF83C109DF80E108DF8C1
:104700003D101BE094F84410C1B1C0B2019049467D
:104710009DF80E009DF80D309DF80C20009004F1DE
:10472000800001F06FFE04F1800001F085FE82B28E
:104730002B4604F18001404601F0C8FEE06CC00742
:1047400067D50020ADF800000DF10101E06F01F028
:10475000DBFC002804BF9DF80100012859D1E06F5F
:10476000694601F023FD9DF80000002851D094F81F
:104770004500401C84F8450004F1540194F84600BB
:1047800040F0080084F84600E06F01F0CFFC676D50
:104790003846FEF7D7FB8346FEF74EFB0246384607
:1047A000002102F09BF892BF11461046394602F0F4
:1047B000A7F802F019F90022DFF8B03402F03CF952
:1047C00002F00BFA02F012FA0746307860B10222CA
:1047D00059460DF13F0002F0BAFA022239460DF1B6
:1047E000410002F0B4FA14E094F8440088B13B466A
:1047F0005A46514604F1800001F004FE04F18000A5
:1048000001F01AFE82B22B4604F18001404601F00D
:104810005DFEE06C400768D50020ADF800000DF1AA
:104820000101606F01F032FA002804BF9DF8010019
:1048300001285AD1606F694601F07AFA9DF80000AC
:10484000002852D094F84500401C84F8450004F13B
:10485000580194F8460040F0100084F84600606F5C
:1048600001F026FAA76D3846FEF76CFB8346FEF78B
:10487000E3FA02463846002102F030F892BF1146B2
:104880001046394602F03CF802F0AEF80022DFF89C
:10489000DC3302F0D1F802F0A0F902F0A7F90746E4
:1048A000307860B1012259460DF1450002F04FFA0F
:1048B000012239460DF1460002F049FA15E094F85C
:1048C000440090B13B465A460FF2444104F1800047
:1048D00001F098FD04F1800001F0AEFD82B22B469C
:1048E00004F18001404601F0F1FDE06C800766D5DF
:1048F0000020ADF800000DF10101A06F01F022FBD6
:10490000002804BF9DF80100012858D1A06F694616
:1049100001F06AFB9DF80000002850D094F8450093
:10492000401C84F8450004F15C0194F8460040F016
:10493000200084F84600A06F01F016FBE76D3846B2
:10494000FEF700FB8346FEF777FA02463846002161
:1049500001F0C4FF92BF11461046394601F0D0FF66
:1049600002F042F80022C14B02F066F802F035F97D
:1049700002F03CF90746307858B1012259460DF152
:10498000430002F0E4F90122394611A802F0DFF9F0
:1049900015E094F8440090B13B465A460FF280313E
:1049A00004F1800001F02EFD04F1800001F044FDCF
:1049B00082B22B4604F18001404601F087FDE06C95
:1049C000C00652D50020ADF804000DF10501A06E1F
:1049D00000F0CAFE002804BF9DF80500012844D15C
:1049E000A06E01A900F022FF9DF8040000283CD031
:1049F00094F84500401C84F8450004F1200194F827
:104A0000460040F0010084F84600A06E00F0BEFEB3
:104A1000307890B1216A04220DF1470002F0D3F9F9
:104A2000616A04220DF14B0002F0CDF9A16A042263
:104A30000DF14F0002F0C7F917E094F84400A0B15F
:104A4000A06A636A226A0FF24821009004F1800094
:104A500001F0D8FC04F1800001F0EEFC82B22B469C
:104A600004F18001404601F031FDE06C800652D532
:104A70000020ADF804000DF10501E06E00F066FFC6
:104A8000002804BF9DF80500012844D1E06E01A96B
:104A900000F0BEFF9DF8040000283CD094F84500CB
:104AA000401C84F8450004F12C0194F8460040F0C5
:104AB000020084F84600E06E00F05AFF307890B1B2
:104AC000E16A04220DF1530002F07DF9216B04220A
:104AD0000DF1570002F077F9616B04220DF15B00D4
:104AE00002F071F917E094F84400A0B1606B236BF9
:104AF000E26A0FF2C011009004F1800001F082FC24
:104B000004F1800001F098FC82B22B4604F1800190
:104B1000404601F0DBFCE06C400652D50020ADF8C9
:104B200004000DF10501206F00F0E6FF002804BF2E
:104B30009DF80500012844D1206F01A901F02EF84D
:104B40009DF8040000283CD094F84500401C84F8EF
:104B5000450004F1380194F8460040F0040084F860
:104B60004600206F00F0DAFF307890B1A16B04228C
:104B70000DF15F0002F027F9E16B04220DF16300F3
:104B800002F021F9216C04220DF1670002F01BF9FB
:104B900017E094F84400A0B1206CE36BA26B0FF215
:104BA0003811009004F1800001F02CFC04F1800029
:104BB00001F042FC82B22B4604F18001404601F034
:104BC00085FC3078002804BF94F8440000283FF4A6
:104BD00001AD002000F0DAF9FEE4B0F5005F00D08E
:104BE000704710B51C4C206E002804BF606E002872
:104BF00002D1FFF759FC09E0FFF756FC6066606ED2
:104C0000216E401AB0F5967F0DD9606E2066164869
:104C1000007808B1002004E094F84410481E804158
:104C2000C00F84F8440010BD00B585B000238DF896
:104C300000008DF801108DF802208DF803300193EB
:104C40000393049300226946034800F05EFB00B121
:104C5000FEE705B000BD000000110020FC1400209C
:104C6000002800400000002084040020000059407B
:104C7000FEE7000054696D655374616D703A20253C
:104C8000643A25643A25642E25640D0A000000006C
:104C90004143435F583A2025642C204143435F59E8
:104CA0003A2025642C204143435F5A3A2025640D65
:104CB0000A0000004759525F583A2025642C2047CB
:104CC00059525F593A2025642C204759525F5A3A6D
:104CD0002025640D0A0000004D41475F583A202509
:104CE000642C204D41475F593A2025642C204D41CA
:104CF000475F5A3A2025640D0A0000005052455380
:104D0000533A2025642E253032640D0A000000003D
:104D100048554D3A2025642E253032640D0A000096
:104D200054454D503A2025642E253032640D0A003A
:104D30000248006800F4C050704700000070004056
:104D400010B50446074800684FF47A71B0FBF1F0E3
:104D5000FFF711F8002221464FF0FF30FEF7D9FF90
:104D6000002010BD9809002000B50A4881B00168F4
:104D700041F004010160016841F00201016003207B
:104D8000FEF7BAFF0F20FFF7DBFF00F005F8002069
:104D900001B000BD003C02407047000010B594B067
:104DA00001A80021002200230EC006C000241EC05E
:104DB0001EC01EC0016002200690109101200990C3
:104DC00010200A9002200F904FF4002011904FF411
:104DD0000000129006A8FEF7EBFF08B1FFF748FFAE
:104DE0004148016841F080510160006800F0805046
:104DF000009000983D48016821F4C05141F40061E1
:104E000001604168C906FCD40F200190039403207F
:104E1000029004940594012101A8FFF714FA08B147
:104E2000FFF726FF14B010BD0068314A31499042A7
:104E30001AD3314AD1F80014904208BF08203ED05E
:104E40002E4A904208BF802039D02D4A904208BF98
:104E50004FF4006033D02B4A904214BF4FF400202F
:104E60004FF4004008407047274A096890421ED01E
:104E7000264A90421ED0264A90421ED0254A904291
:104E800008BF4FF400401AD0234A90420BD0234A67
:104E9000904208BF4FF4000011D0214A904208BF51
:104EA0004FF000600BD04FF40020084070470820FE
:104EB000084070478020084070474FF40060084069
:104EC00070470068406870471449016000214160E4
:104ED00081608021C16000210161416120218161E7
:104EE0004FF48051C1617047243802400070004087
:104EF0008160024000600240086402401C6402407D
:104F00003064024044640240086002401C60024079
:104F10003060024044600240586002406C600240D1
:104F20008060024070B5040086B00AD1DFF8EC0062
:104F3000016841F001010160006800F0010000908B
:104F400000980FF2E800DFF8D86030F814500195AF
:104F50000120029001A9002003900220049056F83D
:104F60002400FEF7DBFD56F8240000222946FEF758
:104F70009BFE06B070BD0FF2B401DFF8A43031F82B
:104F8000101053F820000022FEF78EBE0FF29C0195
:104F9000DFF88C2031F8101052F82000FEF788BEA0
:104FA00030B50446200087B00D460AD1DFF86C000A
:104FB000016841F004010160006800F00400009005
:104FC00000980FF26C0030F814000190002003905C
:104FD00001200490280008D10020029001A9DFF8E8
:104FE000440050F82400FEF799FD012D14D1DFF89C
:104FF0003800029001A9DFF82C0050F82400FEF7D9
:105000008DFD0FF23000045D00220F2160B2FEF72B
:1050100080FE60B2FEF7A6FE07B030BD1C3802402D
:1050200090090020940900200000211020000000B9
:1050300000200000280000002DE9F04F0446814DBB
:1050400081B005F14000FFF7EFFE002700286FD187
:1050500005F14000FFF735FFC0F50078B5F87C603A
:105060001FFA88F8B045AEBFA8EB060008F500703F
:10507000801B80B20090B9460098012852DBA81925
:10508000761CB6B290F88000B6F5007FA8BF002667
:10509000F02842D1B5F87C604FF0000A0BE081198E
:1050A0000A1201EBD2525212A1EB42265044B6B280
:1050B0007F1C1FFA80FA701CCA451BDA011200EB34
:1050C000D1514912A0EB4121A8191FFA81FB90F898
:1050D000800005EB0B01BFB291F88010E219121DA0
:1050E00001F0CDFDC0B20028D9D1A5F87CB001B047
:1050F000BDE8F08F011200EBD1514912BFB2A0EB15
:1051000041262760B6B2A5F87C60204601F0F2FD8A
:1051100018B1012001B0BDE8F08F009809F1010934
:105120008145ACDB0098B0F5807FC8BFA5F87C80D6
:10513000002001B0BDE8F08F30B581B0044601F029
:10514000ADFD404D4FF421702146284401F074FD1F
:1051500082B24FF421702918284601B0BDE83040D2
:1051600041F2883301F0B2B910B53748374C86B0F8
:10517000016841F001010160016801F00101009145
:105180000099016841F001010160016801F001012D
:1051900000910099816841F400318160816801F4D7
:1051A000003100910099016841F08071016001A90E
:1051B000006800F0807000900098042001900220A8
:1051C00002900020039002200490072005902046C2
:1051D000FEF7A4FC0820019001A9072005902046B5
:1051E000FEF79CFC174C1A482060D4F880026060DF
:1051F0000020A060E0602061A0610C20606120467A
:1052000001F036F900B1FEE704F14000FFF75CFE63
:1052100004F1400001F0EEFD04F1400060636466BB
:1052200004F18000A0624FF400724FF40070A0857A
:1052300004F180010020E063204601F0E6F906B0A9
:1052400010BD0000000000201C3802400000024099
:105250000044004070B5040027D0607F18B9207763
:10526000204601F019FE02206077CA2021684862BA
:105270005320216848622068C168490617D44FF05E
:10528000FF31C16040F2E936FFF70EF905462068AC
:10529000C06840060BD4FFF707F9401BB042F6D3B5
:1052A0002168FF20486204206077012070BD2068DB
:1052B000DFF8F422816811408160206881686268AB
:1052C00023691A4363691A43114381602168E068C6
:1052D000086120680169A26841EA02410161206811
:1052E000C16821F08001C1602068016C21F4802137
:1052F00001642068016CA26911430164FF202168E8
:10530000486201206077002070BD2DE9F04104461D
:105310000D46207F012808BF022000F08D8001206B
:10532000207702206077002A2068806830D140060C
:105330005CBF0020E87028780A28014605DB0A22B5
:1053400090FBF2F2F62000FB021141EA02106978AC
:1053500000230A290A4605DB0A2391FBF3F3F62111
:1053600001FB032242EA0311AA7800260A2A134607
:1053700005DB0A2692FBF6F6F62202FB0633090647
:10538000C0B2090C41EA004043EA0611C9B209E083
:1053900040065CBF0020E87069782878090241EA7D
:1053A0000040A9780843E97840EA01462168CA200C
:1053B00048625320216848622068C168490611D4B8
:1053C0004FF0FF31C16040F2E938FFF76DF8074652
:1053D0002068C068400605D4FFF766F8C01B40454A
:1053E000F6D318E021687148304008602068816871
:1053F00021F48021816020688168EA682B691A4362
:10540000114381602068C16821F08001C16020469D
:1054100000F0D9FF48B12168FF204862042060777E
:10542000002020770120BDE8F0812168FF2048623C
:105430000120607700202077BDE8F081F0B50446B8
:1054400081B0207F012808BF02207DD00120207775
:1054500002206077002A487852D1C20603D500F0B6
:10546000EF000A3048700023C8780A28024605DB9E
:105470000A2390FBF3F3F62000FB032242EA031019
:105480004A7800250A2A134605DB0A2592FBF5F522
:10549000F62202FB053343EA05128B7800260A2B1D
:1054A0001D4605DB0A2693FBF6F6F62303FB06559D
:1054B0001206C0B2120C42EA004045EA0612D2B20D
:1054C0000978104340EA41352168CA2048625320D8
:1054D000216848622068C168490617D44FF0FF313F
:1054E000C16040F2E937FEF7DFFF06462068C0687A
:1054F00040060BD4FEF7D8FF801BB842F6D312E06B
:10550000CA78000240EA02408A78D9E72168284830
:10551000284048602068C16821F08001C1602046B1
:1055200000F051FF48B12168FF20486204206077F5
:105530000020207701B00120F0BD2168FF204862E3
:10554000012060770020207701B0F0BD0068184B83
:1055500040681840030CCB708870030A03F01F03E7
:10556000400B4B7000F007000870D2B9CA781009E0
:1055700000EB800302F00F0000EB4300C8704A7894
:10558000100900EB800302F00F0000EB43004870AD
:105590008A78100900EB800302F00F0000EB430053
:1055A0008870002070470000BFFF8FFF7F7F7F0063
:1055B0003FFFFF00010901EB810200F00F0000EB4B
:1055C0004200C0B27047000010B50C4600212160B7
:1055D00068B10128204611D000F016F8012804D146
:1055E000204600F053F801280CD0002010BD2046C2
:1055F00000F00AF80128F8D1012010BD00F046F8AB
:105600000128F2D1012010BD30B5424D0446E878A2
:10561000012881B038D0FDF7B7FC012834D06A20CA
:105620002870D62068700020688028710120687179
:1056300005F12800A8603848E860384828613848F3
:10564000A86305F13800A8620020E8622560E868D8
:105650000168080008D100200021002207C503C509
:10566000206001B0012030BD28468847012808D1BC
:105670002068142101F052FC0020206001B00120BC
:1056800030BDFDF7DAFC002001B030BD30B5214D52
:105690000446E87D012881B039D0FDF775FC01286A
:1056A00035D033202875322068750120A875002078
:1056B000E87528760120687605F13000E861194820
:1056C00028620020686205F14000286300206863BA
:1056D00005F114002060286A0168080005F1140033
:1056E00008D10021002200230EC006C02160012045
:1056F00001B030BD8847012808D12068142101F08D
:105700000DFC0020206001B0012030BD002001B060
:1057100030BD0000A0130020A00700209406002048
:1057200004150020FC05002000B581B018B1C16847
:1057300089680A0002D1012001B000BD8847012814
:1057400018BF002001B000BD00B581B018B1C1681C
:10575000C9680A0002D1012001B000BD88470128B4
:1057600018BF002001B000BD002818BF00290FBFDE
:105770000120C078087000207047002818BF002959
:105780000FBF0120807808700020704700B581B0FD
:1057900000281CBFC268002902D09269130002D100
:1057A000012001B000BD9047012818BF002001B0C2
:1057B00000BD00B581B018B1C268D26A130002D131
:1057C000012001B000BD9047012818BF002001B0A2
:1057D00000BD00B581B018B1C268926B130002D150
:1057E000012001B000BD9047012818BF002001B082
:1057F00000BD10B500281CBFC368002A02D05B6C36
:105800001C0001D1012010BD9847012818BF0020BD
:1058100010BD10B518B1C3689B6C1C0001D10120EC
:1058200010BD9847012818BF002010BD00B581B0F9
:1058300018B1C268D26C130002D1012001B000BDC2
:105840009047012818BF002001B000BD00B581B00D
:10585000002200280A60084606D000F00CF8012853
:1058600006D0002001B000BD00F005F80128F8D1F5
:10587000012001B000BD30B5204D0446E878012874
:1058800081B038D0FDF780FB012834D06A20287021
:10589000D62068700020688028710120687105F1A9
:1058A0001400A8601648E860164828611648E861A8
:1058B00005F11C0068610020A8612560E8680168A6
:1058C000080008D100200021002207C503C5206080
:1058D00001B0012030BD28468847012808D1206842
:1058E000142101F01BFB0020206001B0012030BD1D
:1058F000FDF7A3FB002001B030BD000060140020C4
:10590000F0070020640700200415002000B581B0D6
:1059100018B1C16889680A0002D1012001B000BD38
:105920008847012818BF002001B000BD00B581B034
:1059300018B1C168C9680A0002D1012001B000BDD8
:105940008847012818BF002001B000BD002818BFFB
:1059500000290FBF0120C078087000207047002880
:1059600018BF00290FBF0120807808700020704701
:1059700000B581B000281CBFC268002902D092691E
:10598000130002D1012001B000BD9047012818BFCB
:10599000002001B000BD00B581B018B1C268D26A64
:1059A000130002D1012001B000BD9047012818BFAB
:1059B000002001B000BD00B581B018B1C268926B83
:1059C000130002D1012001B000BD9047012818BF8B
:1059D000002001B000BD10B500281CBFC368002A1C
:1059E00002D05B6C1C0001D1012010BD984701283A
:1059F00018BF002010BD10B518B1C3689B6C1C0007
:105A000001D1012010BD9847012818BF002010BD0A
:105A100000B581B018B1C268D26C130002D1012068
:105A200001B000BD9047012818BF002001B000BDA3
:105A300030B50C4681B0002121601D4DE978012967
:105A400030D0FDF7A1FA01282CD0402028703C204E
:105A500068700020688028710120687105F11400C9
:105A6000A8601448E8600020286105F11C00686106
:105A70000020A8612560E8680168080008D10020BE
:105A80000021002207C503C5206001B0012030BD00
:105A900028468847012808D12068142101F03EFAE1
:105AA00000202060012001B030BD002001B030BDD9
:105AB000A41400204C06002000B581B018B1C168C4
:105AC00089680A0002D1012001B000BD8847012881
:105AD00018BF002001B000BD00B581B018B1C16889
