:020000040800F2
:10000000F0050020E56D0008BD6D0008BF6D00081B
:10001000096E00080D6E0008116E00080000000057
:10002000000000000000000000000000156E000845
:10003000C16D000800000000196E0008C36D0008C3
:100040001D6E0008216E0008256E0008296E00084C
:100050002D6E0008316E0008356E0008396E0008FC
:100060003D6E0008416E0008456E0008496E0008AC
:100070004D6E0008516E0008556E0008596E00085C
:100080005D6E0008616E0008656E0008696E00080C
:100090006D6E0008716E0008756E0008C76D00086F
:1000A000796E00087D6E0008816E0008856E00087C
:1000B000896E00088D6E0008916E0008956E00082C
:1000C000996E00089D6E0008A16E0008A56E0008DC
:1000D000A96E0008AD6E0008B16E0008B56E00088C
:1000E000CD6D0008B96E0008BD6E0008C16E000835
:1000F000C56E0008C96E0008CD6E0008D16E0008FC
:10010000D56E0008D96E0008DD6E0008E16E0008AB
:10011000E56E0008E96E0008ED6E0008F16E00085B
:10012000F56E0008F96E0008FD6E0008016F00080A
:10013000056F0008096F00080D6F0008116F0008B7
:10014000156F0008196F00081D6F0008216F000867
:10015000256F0008296F00082D6F0008316F000817
:10016000356F0008396F00083D6F0008416F0008C7
:10017000456F0008496F00084D6F0008000000003F
:10018000516F0008556F000870B5044682B0A06832
:100190000668356800208DF800006946204601F0A9
:1001A00099FA00B39DF80000217888421BD1042100
:1001B000204601F026FCB0B14021204601F096FA1D
:1001C00088B10021204601F0A0FB60B1DFF83C09B6
:1001D00070600021204601F0FBFA20B1002120468A
:1001E00001F0A3FA10B9012002B070BD01202870FF
:1001F000E07002B0002070BD70B5044682B0A06807
:1002000005682E6800208DF800006946204601F040
:1002100061FA002800F0B0809DF800002178884243
:1002200040F0AA800021204602F076F8002800F075
:10023000A3800021204601F06CFE002800F09C8085
:100240000021204601F0D4FF002800F09580002115
:10025000204601F0AEFF002800F08E8000212046ED
:1002600002F01CF8002800F087800021204601F0F1
:1002700050FE002800F080800021204601F086FE1C
:10028000002879D00021204601F09CFB002873D083
:100290000021204601F031FC00286DD000212046CD
:1002A00001F04AFC002867D00021204602F0BFF888
:1002B000002861D00021204602F06CF800285BD0B5
:1002C0000021204601F025FE002855D000212046BF
:1002D00001F03EFE00284FD00021204601F075FEBF
:1002E000002849D00021204601F08DFE002843D08F
:1002F0000021204601F0B0FD00283DD0002120461D
:1003000001F0C9FD002837D00021204601F0E2FDB0
:10031000002831D00021204601F0DFFF60B300212A
:10032000204601F0F6FD38B30021204601F010FE12
:1003300010B30021204601F048FEE8B1002120461C
:1003400001F061FEC0B10021204601F07AFE98B1B3
:100350000021204601F0B3FE70B10021204601F0DB
:100360007BFD48B10021204601F095FD20B1002120
:10037000204601F0AFFD10B9012002B070BD002190
:10038000204601F06CFF0028F6D00021204601F045
:1003900095FB0028F0D00021204601F0CDFB00287D
:1003A000EAD00021204601F0D6FF0028E4D0002149
:1003B000204601F0AEFD0028DED00021204601F0ED
:1003C000DAFE0028D8D00021204601F05AFE00288D
:1003D000D2D0207978B1A0680068011D204600F0D5
:1003E000AFF90128C8D00021204601F0F1F900281A
:1003F000C2D000202071002068603070E07002B030
:1004000070BD000010B50446207901285CD0A068BA
:10041000006890ED010ADFED9B0AB4EE600AF1EE90
:1004200010FA48BF102147D4DFED970AB4EE600AF6
:10043000F1EE10FA48BF20213ED4DFED940AB4EE6D
:10044000600AF1EE10FA48BF302135D4DFED900A92
:10045000B4EE600AF1EE10FA48BF40212CD4DFED73
:100460008D0AB4EE600AF1EE10FA48BF502123D491
:10047000DFEDAF0AB4EE600AF1EE10FA48BF60217A
:100480001AD4DFEDAC0AB4EE600AF1EE10FA48BF00
:10049000702111D4DFEDA80AB4EE600AF1EE10FA73
:1004A00048BF802108D4DFEDA50AB4EE600AF1EE62
:1004B00010FA4CBF9021A021204601F089F908B91B
:1004C000012010BD01202071002010BD30B5044670
:1004D00081B0207900284ED0A0680068051D6946CB
:1004E000204601F094F9002840D09DF80000002833
:1004F00030D010282CD0202827D0302822D04028D7
:100500001DD0502818D0602813D070280ED0802815
:1005100009D0902804D0A02825D1DFF8080619E0DA
:10052000DFF8FC0516E0DFF8F40513E0DFF8E80576
:1005300010E0DFF8E0050DE0DFF8D4050AE0DFF8B1
:10054000CC0507E0DFF8C00504E0DFF8E80501E0CE
:10055000DFF8E40528600021204601F039F940B9B0
:10056000012001B030BDDFF8D4052860012001B0C2
:1005700030BD0020207101B030BD00B581B001F068
:10058000A9F8401E8041C00F01B000BD10B582B077
:10059000044600208DF800006946204601F09AF8D4
:1005A00020B19DF800002178884202D0012002B0DD
:1005B00010BD002002B010BD2DE9F04184B00C4602
:1005C0000021CDE900118046694601F0DDF80028E0
:1005D00054D09DF801109DF800209DF8040002EB16
:1005E00001269DF803109DF8022002EB01279DF8DB
:1005F000051000EB012502A9404601F0B5F80028DE
:100600003CD09DF808000C2838D8DFE800F01037FF
:100610003737073737370D3737370A009FED850AE9
:1006200007E09FED850A04E09FED840A01E09FED5D
:10063000840A36B200EE906AF8EEE00A60EE800AB4
:10064000FDEEE00AC4ED000A3FB200EE907AF8EE4B
:10065000E00A60EE800AFDEEE00AC4ED010A2DB268
:1006600000EE905AF8EEE00A20EE800ABDEEC00AD5
:1006700084ED020A002004B0BDE8F081012004B03E
:10068000BDE8F081010050410100D041010050421D
:100690000100D0420100504310B582B00C466946BB
:1006A0000022C1E9002201F06FF810B9012002B068
:1006B00010BD9DF801109DF8002002EB0121218062
:1006C0009DF802209DF8031002EB012161809DF846
:1006D00004009DF8051000EB0120A08002B000206E
:1006E00010BD000010B582B00C46694601F03CF820
:1006F000D0B19DF800000C2813D8DFE800F00712F5
:100700001212101212120C1212120E004C4820601B
:1007100002B0002010BD4948F9E74748F7E74548CF
:10072000F5E7DFF81C042060012002B010BD0000D6
:100730000100D043014050440180CF440120504586
:1007400010B582B00C46694601F061F810B901207D
:1007500002B010BD9DF80000C8B110281BD02028A1
:100760001CD030281DD040281ED050281FD0602813
:1007700020D0702821D0802822D0902823D0A028F3
:1007800024D0DFF8B803206002B0012010BD206043
:1007900002B0002010BDDFF8A003F8E7DFF89403F3
:1007A000F5E7DFF86403F2E7DFF86003EFE7DFF86F
:1007B0006003ECE7DFF85C03E9E7DFF85C03E6E7FA
:1007C000DFF85803E3E7DFF85803E0E7DFF8540306
:1007D000DDE7000000B581B00279012A13D10429B8
:1007E0000ED8DFE801F0090907050300402104E005
:1007F000302102E0202100E0102100F0E9FFB0B933
:10080000012001B000BD806800680429F8D8DFE845
:1008100001F00B0B08060400F2E7BC4906E0BA49F8
:1008200004E0DFF8101301E0DFF80C134160002052
:1008300001B000BD23DBF93E23DB793E23DBF93D2C
:1008400023DB793D00B581B001790129DFED8F0A05
:1008500055D1B4EE600AF1EE10FA48BF102147D42A
:10086000DFED8B0AB4EE600AF1EE10FA48BF2021EA
:100870003ED4DFED880AB4EE600AF1EE10FA48BF0C
:10088000302135D4DFED840AB4EE600AF1EE10FABF
:1008900048BF40212CD4DFED970AB4EE600AF1EE98
:1008A00010FA48BF502123D4DFED930AB4EE600A5A
:1008B000F1EE10FA48BF60211AD4DFED900AB4EED1
:1008C000600AF1EE10FA48BF702111D4DFED8C0AF6
:1008D000B4EE600AF1EE10FA48BF802108D4DFEDD3
:1008E000890AB4EE600AF1EE10FA4CBF9021A02103
:1008F00000F06EFF00285FD1012001B000BD8068CC
:100900000068B4EE600AF1EE10FA48BFB2EE0A0ACF
:1009100050D4DFED5F0AB4EE600AF1EE10FA48BF82
:10092000B3EE0A0A46D4DFED5B0AB4EE600AF1EEDC
:1009300010FA48BF9FED740A3CD4DFED570AB4EEBD
:10094000600AF1EE10FA48BF9FED700A32D4DFED75
:10095000690AB4EE600AF1EE10FA48BF9FED6C0A26
:1009600028D4DFED650AB4EE600AF1EE10FA48BF54
:100970009FED680A1ED4DFED610AB4EE600AF1EE65
:1009800010FA48BF9FED640A14D4DFED5D0AB4EE9F
:10099000600AF1EE10FA48BF9FED600A0AD4DFED5D
:1009A000590AB4EE600AF1EE10FA4CBF9FED5C0AF2
:1009B0009FED5C0A80ED010A002001B000BD00003F
:1009C00010B582B00C46694600F0CEFEF0B19DF83D
:1009D00000000C2817D8DFE800F0071616161316CB
:1009E00016160D16161610004FF08040206002B04B
:1009F000002010BD4FF08140F8E74FF08240F5E74E
:100A00004FF08340F2E7DFF838012060012002B0A8
:100A100010BD000000B5042981B010D8DFE801F056
:100A2000030F0B0F0D00002100F07FFE401E8041E0
:100A3000C00F01B000BD0821F6E70C21F4E701204A
:100A400001B000BDDFED380A00B5B4EE600AF1EE8A
:100A500010FA81B048BF002111D4DFED340AB4EEA2
:100A6000600AF1EE10FA48BF082108D4DFED300A21
:100A7000B4EE600AF1EE10FA4CBF0C21042100F034
:100A800054FE401E8041C00F01B000BD0100504126
:100A90000100D041010050420100D04200B581B0B8
:100AA000012300F005FE401E8041C00F01B000BDD3
:100AB00000B581B001238DF800206A4600F001FEE8
:100AC000401E8041C00F01B000BD10B582B00C4681
:100AD000694601F000F948B19DF80000002818BFF0
:100AE000012803D1207002B0002010BD012002B007
:100AF00010BD0000010050430100D04301405044AC
:100B00000180CF4401205045000050420000D042F7
:100B1000000050430000D043004050440080CF44C8
:100B2000002050450020D0450100004001008040D9
:100B3000010000410000D04100005041000080BF92
:100B4000000080BFDFED4B0A00B5B4EE600AF1EEA5
:100B500010FA81B048BF102147D4DFED470AB4EE48
:100B6000600AF1EE10FA48BF20213ED4DFED430ABF
:100B7000B4EE600AF1EE10FA48BF302135D4DFED53
:100B8000400AB4EE600AF1EE10FA48BF40212CD4BE
:100B9000DFED3C0AB4EE600AF1EE10FA48BF5021D6
:100BA00023D4DFED390AB4EE600AF1EE10FA48BF43
:100BB00060211AD4DFED350AB4EE600AF1EE10FAC6
:100BC00048BF702111D4DFED320AB4EE600AF1EEB5
:100BD00010FA48BF802108D4DFED2E0AB4EE600A77
:100BE000F1EE10FA4CBF9021A02100F0F1FD401E63
:100BF0008041C00F01B000BD10B504469FEDC50A8D
:100C00002079012805D12046FFF79CFF012804D157
:100C100010BDA068006880ED010A0021204600F0A8
:100C200084FDE8B10621204601F0E2FAC0B10021BE
:100C3000204601F0A0FA98B10021204601F07CFA8C
:100C400070B10021204601F059FA48B10321204635
:100C500001F0AFFA20B18021204601F05AF908B91D
:100C6000012010BD1021204601F056FB401E80419E
:100C7000C00F10BD010050410100D04101005042A1
:100C80000100D042010050430100D04301405044D4
:100C90000180CF440120504510B50446002101F0E9
:100CA0003BFB48B10021204601F033F920B100217F
:100CB000204601F09DFA08B9012010BD0021204610
:100CC00001F077FA401E8041C00F10BD10B582B010
:100CD0000C46694600F05FFF48B19DF8000010B176
:100CE000202804D10120207002B0002010BD012076
:100CF00002B010BD00B581B001F05BFA401E80412A
:100D0000C00F01B000BD10B50446B3EE0A0A207949
:100D1000012805D12046FFF715FF012804D110BD99
:100D2000A068006880ED010A0021204600F0FDFC6B
:100D300070B11721204601F07AFB48B1042120460A
:100D400000F0FAFE20B11021204600F0D6FE08B9CE
:100D5000012010BD8021204600F034FE401E80415D
:100D6000C00F10BD10B50446002100F02BFE48B1A5
:100D70000021204600F0C1FE20B10021204600F0F5
:100D8000DBFE08B9012010BD0021204601F04FFB19
:100D9000401E8041C00F10BD10B582B00C466946A0
:100DA00001F01BF848B19DF8000010B1102804D1E3
:100DB0000120207002B0002010BD012002B010BD43
:100DC00000B581B001F01CFB401E8041C00F01B096
:100DD00000BD00B581B0022100F051FE401E8041EF
:100DE000C00F01B000BD00B581B0002100F047FE8A
:100DF000401E8041C00F01B000BD00B581B001F0C0
:100E000016FB401E8041C00F01B000BD10B5044666
:100E1000B3EE0A0A2079012805D12046FFF792FE99
:100E2000012804D110BDA068006880ED010A0021EE
:100E3000204600F07AFC48B10421204600F07CFEF8
:100E400020B10821204600F039FE08B9012010BD6C
:100E50000221204601F003FA401E8041C00F10BD60
:100E600010B50446002101F0FAF920B10021204616
:100E700000F024FE08B9012010BD0021204600F03A
:100E80005BFE401E8041C00F10BD10B582B00C4605
:100E9000694600F0B2FF48B19DF8000010B120286B
:100EA00004D10120207002B0002010BD012002B04A
:100EB00010BD000010B504469FED160A20790128E8
:100EC00005D12046FFF73EFE012804D110BDA068E1
:100ED000006880ED010A0021204600F026FC70B178
:100EE0000021204601F047F948B10221204601F0D7
:100EF000C8F820B18021204601F00BF808B9012084
:100F000010BD2021204601F026FA401E8041C00F6E
:100F100010BD00000000D04310B50446002101F0D0
:100F20001AFA48B10021204600F0F3FF20B1002159
:100F3000204601F020F908B9012010BD002120460B
:100F400001F09FF8401E8041C00F10BD10B582B067
:100F50000C46694600F00FFE48B19DF8000010B144
:100F6000082804D10120207002B0002010BD01200B
:100F700002B010BD00B581B001F083F8401E804181
:100F8000C00F01B000BD000010B504469FEDB50ACA
:100F90002079012805D12046FFF7D4FD012804D18E
:100FA00010BDA068006880ED010A0021204600F015
:100FB000BCFB10B30821204600F08CFFE8B10421EF
:100FC000204600F068FFC0B10221204600F044FF37
:100FD00098B10821204600F0BBFF70B102212046E5
:100FE00000F0F3FF48B10121204601F00CF820B1D8
:100FF0008021204600F08DFF08B9012010BD40215E
:10100000204601F0C7F9401E8041C00F10BD10B549
:101010000446002101F0BEF9E8B10021204600F0AD
:1010200078FFC0B10021204600F092FF98B1002166
:10103000204600F0CAFF70B10021204600F0E3FF17
:1010400048B10021204600F007FF20B100212046D2
:1010500000F021FF08B9012010BD0021204600F05A
:1010600039FF401E8041C00F10BD10B582B00C4644
:10107000694600F0B0FD48B19DF8000010B120288D
:1010800004D10120207002B0002010BD012002B068
:1010900010BD000010B504469FED720A20790128AA
:1010A00005D12046FFF74EFD012804D110BDA068F0
:1010B000006880ED010A0021204600F036FB002880
:1010C0002CD00821204600F005FF38B3042120462B
:1010D00000F0E1FE10B30221204600F0BDFEE8B1B1
:1010E0000821204600F034FFC0B10321204600F063
:1010F0006CFF98B10321204600F085FF70B10821F4
:10110000204600F09EFF48B18021204600F0D7FF26
:1011100020B18021204600F0FCFE08B9012010BD5E
:101120000821204601F0D9F8401E8041C00F10BDB3
:1011300010B50446002101F0D0F838B30021204654
:1011400000F0E7FE10B30021204600F001FFE8B1F7
:101150000021204600F039FFC0B10021204600F0F8
:1011600052FF98B10021204600F06BFF70B10021C2
:10117000204600F0A4FF48B10021204600F06CFE9C
:1011800020B10021204600F086FE08B9012010BDE4
:101190000021204600F09EFE401E8041C00F10BD81
:1011A00010B582B00C46694600F005FD48B19DF8C7
:1011B000000010B1102804D10120207002B00020DE
:1011C00010BD012002B010BD00B581B000F0C0FE1E
:1011D000401E8041C00F01B000BD00B581B000F0DD
:1011E000F4FE401E8041C00F01B000BD00B581B0CB
:1011F00000F009FF401E8041C00F01B000BD00B5E6
:1012000081B000F01EFF401E8041C00F01B000BD44
:1012100010B504469FED130A2079012805D1204618
:10122000FFF790FC012804D110BDA068006880ED94
:10123000010A0021204600F078FA48B140212046FA
:1012400000F0A4FE20B18021204600F062FE08B923
:10125000012010BD0421204601F020F8401E8041ED
:10126000C00F10BD0000D04310B50446002101F0AE
:1012700015F820B10021204600F04BFE08B90120EE
:1012800010BD0021204600F081FE401E8041C00FAD
:1012900010BD10B582B00C46694600F00CFD48B197
:1012A0009DF8000010B1402804D10120207002B048
:1012B000002010BD012002B010BD10B582B00C4658
:1012C000694600F098FC48B19DF80000002818BF5E
:1012D000012803D1207002B0002010BD012002B00F
:1012E00010BD10B582B00C46694600F094FC48B1C0
:1012F0009DF8000010B1022804D10120207002B036
:10130000002010BD012002B010BD10B582B00C4607
:10131000694600F090FC48B19DF8000010B1042827
:1013200004D10120207002B0002010BD012002B0C5
:1013300010BD10B582B00C46694600F08CFC48B177
:101340009DF8000010B1082804D10120207002B0DF
:10135000002010BD012002B010BD10B582B00C46B7
:10136000694600F088FC48B19DF8000010B11028D3
:1013700004D10120207002B0002010BD012002B075
:1013800010BD10B582B00C46694600F084FC48B12F
:101390009DF8000010B1202804D10120207002B077
:1013A000002010BD012002B010BD0000DFED840A56
:1013B00000B5B4EE600AF1EE10FA81B048BF082122
:1013C00047D4DFED800AB4EE600AF1EE10FA48BFB0
:1013D00010213ED4DFED7C0AB4EE600AF1EE10FA83
:1013E00048BF182135D4DFED790AB4EE600AF1EE7A
:1013F00010FA48BF20212CD4DFED750AB4EE600A44
:10140000F1EE10FA48BF282123D4DFED720AB4EEC2
:10141000600AF1EE10FA48BF30211AD4DFED6E0AEF
:10142000B4EE600AF1EE10FA48BF382111D4DFEDB6
:101430006B0AB4EE600AF1EE10FA48BF402108D4FE
:10144000DFED670AB4EE600AF1EE10FA4CBF4821F6
:10145000502100F079FA401E8041C00F01B000BD5C
:1014600010B582B00C46694600F076FC68B19DF874
:10147000000020B1202806D0012002B010BD20704D
:1014800002B0002010BD0120F9E7012002B010BD1C
:1014900010B582B00C46694600F04EFC68B19DF86C
:1014A000000020B1102806D0012002B010BD20702D
:1014B00002B0002010BD0120F9E7012002B010BDEC
:1014C00010B582B00C46694600F056FC68B19DF834
:1014D000000020B1402806D0012002B010BD2070CD
:1014E00002B0002010BD0120F9E7012002B010BDBC
:1014F00000B581B000F050FC401E8041C00F01B02B
:1015000000BD00B581B000F064FF401E8041C00FF7
:1015100001B000BD00B581B000F0EDFB401E804180
:10152000C00F01B000BD00B5072981B006D800F09A
:10153000ADF9401E8041C00F01B000BD012001B0D7
:1015400000BD000070B582B00D460446694600F04B
:1015500040FF002831D09DF801009DF8001041EABD
:1015600000260DF10201204600F0FEF828B39DF898
:1015700002000C2821D8DFE800F0102020200720EE
:1015800020200D2020200A009FED160A07E09FED85
:10159000160A04E09FED150A01E09FED150A36B228
:1015A00000EE906AF8EEE00A20EE800ABDEEC00A76
:1015B00085ED000A002002B070BD012002B070BDB0
:1015C000010020410100C841010048420100C84219
:1015D000010048430100C843010048440100C844D9
:1015E00001404E4523DBF93E23DB793E23DBF93D09
:1015F00023DB793D00B5062981B00CD8DFE801F086
:1016000004040B04040B040000F07FF9401E804129
:10161000C00F01B000BD012001B000BD00B50A003F
:1016200018BF202981B006D100F0ADF9401E8041DD
:10163000C00F01B000BD012001B000BD00B581B0F8
:1016400000F0F5F8401E8041C00F01B000BD00B5AC
:101650000A0018BF802981B006D100F037F9401E7A
:101660008041C00F01B000BD012001B000BD00B538
:10167000012981B006D800F0D0FB401E8041C00F88
:1016800001B000BD012001B000BD00B5032981B04B
:1016900006D800F0D5F9401E8041C00F01B000BD52
:1016A000012001B000BD0268531C03601170704737
:1016B00000B581B000F0A9FF401E8041C00F01B00D
:1016C00000BD00B581B000F089FF401E8041C00F11
:1016D00001B000BD00B50A4681B001230F2100F022
:1016E00094FF401E8041C00F01B000BD30B581B0F5
:1016F0000D46044601236A46122100F086FF10B110
:10170000002001B030BD9DF8000000F0BF0028436C
:101710008DF8000001236A461221204600F05EFF8A
:10172000401E8041C00F01B030BD30B581B00D46C4
:10173000044601236A46102100F067FF10B1002023
:1017400001B030BD9DF8000000F0F30028438DF893
:10175000000001236A461021204600F03FFF401E92
:101760008041C00F01B030BD10B50C4601232246A8
:10177000102100F04AFF08B1002010BD207800F0D1
:101780000C002070012010BDF0B581B004460D465C
:1017900000260327F6B206F128010123AA19C9B2CF
:1017A000204600F032FF50B9761CF6B206F128014F
:1017B0000123AA19C9B2204600F027FF10B100206A
:1017C00001B0F0BD761C7F1EE4D1012001B0F0BD58
:1017D00030B581B00D46044601236A46102100F061
:1017E00014FF10B1002001B030BD9DF8000000F0E2
:1017F0000F0028438DF8000001236A46102120467F
:1018000000F0ECFE401E8041C00F01B030BD10B5AD
:101810000C4601232246102100F0F7FE08B10020FB
:1018200010BD207800F0F0002070012010BD70B5D0
:1018300082B0044601236A460D46062100F0E5FE0B
:101840002E0A78B98DF8005001236A4606212046F9
:1018500000F0C4FE30B901236A460721204600F09B
:10186000D4FE10B1002002B070BD9DF8000066F3F8
:1018700002008DF8000001236A460721204600F08F
:10188000ADFE401E8041C00F02B070BD30B581B0CA
:101890000D46044601236A46082100F0B6FE10B149
:1018A000002001B030BD9DF8000000F0F800284392
:1018B0008DF8000001236A460821204600F08EFEC4
:1018C000401E8041C00F01B030BD000030B581B076
:1018D0000D46044601236A46092100F096FE10B128
:1018E000002001B030BD9DF8000000F07F002843CB
:1018F0008DF8000001236A460921204600F06EFEA3
:10190000401E8041C00F01B030BD30B581B00D46E2
:10191000044601236A460A2100F077FE10B1002038
:1019200001B030BD9DF8000000F0F80028438DF8AC
:10193000000001236A460A21204600F04FFE401EA7
:101940008041C00F01B030BD30B581B00D460446B6
:1019500001236A460A2100F058FE10B1002001B0B0
:1019600030BD9DF8000000F0870028438DF800008E
:1019700001236A460A21204600F030FE401E8041C5
:10198000C00F01B030BD30B581B00D460446012313
:101990006A460D2100F039FE10B1002001B030BDC3
:1019A0009DF8000000F0DF0028438DF800000123BF
:1019B0006A460D21204600F011FE401E8041C00FF6
:1019C00001B030BD30B581B00D46044601236A46F2
:1019D0000D2100F01AFE10B1002001B030BD9DF8BD
:1019E000000000F07F0028438DF8000001236A46C4
:1019F0000D21204600F0F2FD401E8041C00F01B0D5
:101A000030BD30B581B00D46044601236A4612212F
:101A100000F0FBFD10B1002001B030BD9DF80000CA
:101A200000F0FB0028438DF8000001236A461221D4
:101A3000204600F0D3FD401E8041C00F01B030BDF4
:101A400030B581B00D46044601236A46142100F0EA
:101A5000DCFD10B1002001B030BD9DF8000000F0A9
:101A6000FC0028438DF8000001236A46142120461B
:101A700000F0B4FD401E8041C00F01B030BD30B554
:101A800081B00D46044601236A46192100F0BDFDD0
:101A900010B1002001B030BD9DF8000000F0FD0045
:101AA00028438DF8000001236A461921204600F0E2
:101AB00095FD401E8041C00F01B030BD30B581B0F2
:101AC0000D46044601236A46192100F09EFD10B11F
:101AD000002001B030BD9DF8000000F0F700284361
:101AE0008DF8000001236A461921204600F076FD9A
:101AF000401E8041C00F01B030BD30B581B00D46F1
:101B0000044601236A46192100F07FFD10B1002030
:101B100001B030BD9DF8000000F0EF0028438DF8C3
:101B2000000001236A461921204600F057FD401E9F
:101B30008041C00F01B030BD30B581B00D460446C4
:101B400001236A46192100F060FD10B1002001B0A8
:101B500030BD9DF8000000F0FB0028438DF8000028
:101B600001236A461921204600F038FD401E8041BD
:101B7000C00F01B030BD10B50C46012322461B2119
:101B800000F043FD08B1002010BD207800F00800EF
:101B90002070012010BD10B50C46012322461B21E8
:101BA00000F033FD08B1002010BD207800F02000C7
:101BB0002070012010BD10B50C46012322461C21C7
:101BC00000F023FD08B1002010BD207800F01000C7
:101BD0002070012010BD10B50C46012322461C21A7
:101BE00000F013FD08B1002010BD207800F02000A7
:101BF0002070012010BD10B50C46012322461D2186
:101C000000F003FD08B1002010BD207800F00100B5
:101C10002070012010BD10B50C46012322461D2165
:101C200000F0F3FC08B1002010BD207800F00200A5
:101C30002070012010BD10B50C46012322461D2145
:101C400000F0E3FC08B1002010BD207800F0040093
:101C50002070012010BD10B50C46012322461D2125
:101C600000F0D3FC08B1002010BD207800F008007F
:101C70002070012010BD10B50C46012322461D2105
:101C800000F0C3FC08B1002010BD207800F0100067
:101C90002070012010BD10B50C46012322461D21E5
:101CA00000F0B3FC08B1002010BD207800F0200047
:101CB0002070012010BD10B50C46012322461D21C5
:101CC00000F0A3FC08B1002010BD207800F0400017
:101CD0002070012010BD10B50C46012322461E21A4
:101CE00000F093FC08B1002010BD207800F0010046
:101CF0002070012010BD30B581B00D46044601238F
:101D00006A463A2100F081FC38B901230DF1010245
:101D10003B21204600F079FC10B1002001B030BD1D
:101D20009DF801009DF8001000F00F0041EA00202E
:101D3000288001B0012030BD10B50C460123224699
:101D40003B2100F062FC08B1002010BD207800F0BB
:101D500010002070012010BD10B50C460123224652
:101D60003B2100F052FC08B1002010BD207800F0AB
:101D700020002070012010BD10B50C460123224622
:101D80003B2100F042FC08B1002010BD207800F09B
:101D900040002070012010BD30B581B00D460446D2
:101DA00001236A463C2100F030FC38B901230DF1D3
:101DB00001023D21204600F028FC10B1002001B0B6
:101DC00030BD9DF801009DF8001000F0030041EACD
:101DD0000020288001B0012030BD10B50C46012341
:101DE0002246532100F011FC08B1002010BD2078DC
:101DF00000F010002070012010BD10B50C4601232A
:101E00002246532100F001FC08B1002010BD2078CB
:101E100000F020002070012010BD30B581B00D46CB
:101E2000044601236A46582100F0EFFB10B1002060
:101E300001B030BD9DF8000000F0FE0028438DF891
:101E4000000001236A465821204600F0C7FB401ECF
:101E50008041C00F01B030BD30B581B00D460446A1
:101E600001236A46582100F0D0FB10B1002001B0D8
:101E700030BD9DF8000000F0FD0028438DF8000003
:101E800001236A465821204600F0A8FB401E8041ED
:101E9000C00F01B030BD30B581B00D4604460123FE
:101EA0006A46582100F0B1FB10B1002001B030BDEE
:101EB0009DF8000000F0FB0028438DF8000001238E
:101EC0006A465821204600F089FB401E8041C00F21
:101ED00001B030BD30B581B00D46044601236A46DD
:101EE000582100F092FB10B1002001B030BD9DF8E8
:101EF000000000F0F70028438DF8000001236A4637
:101F00005821204600F06AFB401E8041C00F01B0FE
:101F100030BD30B581B00D46044601236A465821D4
:101F200000F073FB10B1002001B030BD9DF800003F
:101F300000F07F0028438DF8000001236A465821F5
:101F4000204600F04BFB401E8041C00F01B030BD69
:101F500030B581B00D46044601236A46592100F090
:101F600054FB10B1002001B030BD9DF8000065F3B6
:101F700004008DF8000001236A465921204600F034
:101F80002DFB401E8041C00F01B030BD30B581B087
:101F90000D46044601236A46592100F036FB10B174
:101FA000002001B030BD9DF8000000F09F002843E4
:101FB0008DF8000001236A465921204600F00EFBEF
:101FC000401E8041C00F01B030BD30B581B00D461C
:101FD000044601236A465A2100F017FB10B1002085
:101FE00001B030BD9DF8000065F301008DF80000E0
:101FF00001236A465A21204600F0F0FA401E804133
:10200000C00F01B030BD30B581B00D46044601238C
:102010006A465A2100F0F9FA10B1002001B030BD33
:102020009DF8000065F383008DF8000001236A46E7
:102030005A21204600F0D2FA401E8041C00F01B064
:1020400030BD30B581B00D46044601236A465A21A1
:1020500000F0DBFA10B1002001B030BD9DF80000A7
:1020600000F00F0040EA05108DF8000001236A46D9
:102070005A21204600F0B2FA401E8041C00F01B044
:1020800030BD30B581B00D46044601236A465B2160
:1020900000F0BBFA10B1002001B030BD9DF8000087
:1020A00065F305008DF8000001236A465B21204698
:1020B00000F094FA401E8041C00F01B030BD30B531
:1020C00081B00D46044601236A465B2100F09DFA6B
:1020D00010B1002001B030BD9DF8000000F07F007D
:1020E00028438DF8000001236A465B21204600F05A
:1020F00075FA401E8041C00F01B030BD30B581B0CF
:102100000D46044601236A465C2100F07EFA10B1B8
:10211000002001B030BD9DF8000065F303008DF88C
:10212000000001236A465C21204600F057FA401E59
:102130008041C00F01B030BD30B581B00D460446BE
:1021400001236A465C2100F060FA10B1002001B062
:1021500030BD9DF8000000F0EF0028438DF800002E
:1021600001236A465C21204600F038FA401E804177
:10217000C00F01B030BD30B581B00D46044601231B
:102180006A465C2100F041FA10B1002001B030BD78
:102190009DF8000065F346108DF8000001236A46A3
:1021A0005C21204600F01AFA401E8041C00F01B0A9
:1021B00030BD30B581B00D46044601236A465D212D
:1021C00000F023FA10B1002001B030BD9DF80000EE
:1021D00000F0F80028438DF8000001236A465D21D5
:1021E000204600F0FBF9401E8041C00F01B030BD19
:1021F00070B582B0044601236A460E465D2100F0A8
:1022000004FA7509A8B99DF8000000F0070040EA3B
:10221000C6008DF8000001236A465D21204600F0CB
:10222000DDF930B901236A465C21204600F0EDF962
:1022300010B1002002B070BD9DF8000000F07F00DA
:1022400040EAC5108DF8000001236A465C21204653
:1022500000F0C4F9401E8041C00F02B070BD30B51F
:1022600081B00D46044601236A465E2100F0CDF997
:1022700010B1002001B030BD9DF8000000F0FD005D
:1022800028438DF8000001236A465E21204600F0B5
:10229000A5F9401E8041C00F01B030BD30B581B0FE
:1022A0000D46044601236A465E2100F0AEF910B1E6
:1022B000002001B030BD9DF8000000F0FB00284375
:1022C0008DF8000001236A465E21204600F086F961
:1022D000401E8041C00F01B030BD30B581B00D4609
:1022E000044601236A465E2100F08FF910B10020F8
:1022F00001B030BD9DF8000000F0F70028438DF8D4
:10230000000001236A465E21204600F067F9401E66
:102310008041C00F01B030BD30B581B00D460446DC
:1023200001236A465E2100F070F910B1002001B06F
:1023300030BD9DF8000000F0EF0028438DF800004C
:1023400001236A465E21204600F048F9401E804184
:10235000C00F01B030BD30B581B00D460446012339
:102360006A465E2100F051F910B1002001B030BD85
:102370009DF8000000F0DF0028438DF800000123E5
:102380006A465E21204600F029F9401E8041C00FB8
:1023900001B030BD30B581B00D46044601236A4618
:1023A0005E2100F032F910B1002001B030BD9DF87F
:1023B000000000F0BF0028438DF8000001236A46AA
:1023C0005E21204600F00AF9401E8041C00F01B096
:1023D00030BD30B50D4681B0044601232A463E216A
:1023E00000F013F930B901236A1C3F21204600F0A8
:1023F0000CF910B1002001B030BD012001B030BD9A
:1024000030B50D4681B0044601232A464B2100F029
:10241000FCF830B901236A1C4C21204600F0F5F885
:1024200010B1002001B030BD012001B030BD30B589
:1024300081B00D46044601236A46012100F0E5F80B
:1024400058B99DF8000040F080008DF8000001238D
:102450006A460121204600F0C1F801230DF1010276
:102460000F21204600F0D1F89DF8010065F304002B
:102470008DF8010001230DF101020F21204600F02B
:10248000ADF801236A460121204600F0BEF858B994
:102490009DF8000000F07F008DF8000001236A46DF
:1024A0000121204600F09AF8012001B030BD000063
:1024B00030B58C4C87B0204600F05AFC002844D13F
:1024C00089488A4D606001A93320A0600120E06046
:1024D00087482060686940F002006861686900F020
:1024E0000200009000984FF440700190122002907A
:1024F0000220049000200390042005907D4800F005
:102500007DFC286A40F4001028620022286A00F44A
:102510000010009000210098286840F40010286006
:10252000286820F4001028601F2000F070FD1F2094
:1025300000F096FD00220021202000F068FD202000
:1025400000F08EFD204600F0DBF8204600F010FC85
:1025500020280CBF0020012007B030BD70B5664DAB
:10256000664C644E8CB0286840F00200286006A9D2
:10257000286800F002000090009807942020069040
:102580000220099000200890304600F037FC00221D
:102590000021172000F03BFD172000F061FD2868A6
:1025A00040F00200286001A9286800F002000090B5
:1025B00000980294102001900220049000200390C3
:1025C000304600F01BFC002200210A2000F01FFD15
:1025D0000A2000F045FD00200CB070BD30B583B07E
:1025E0004FF48055009202950A46019301234178E9
:1025F0003C4C204600F0F2F828B1204600F0D4F818
:1026000000F01AF8012003B030BD30B583B04FF4AC
:102610008055009202950A46019301234178314C7E
:10262000204600F03DFA28B1204600F0BDF800F049
:1026300003F8012003B030BD30B52A4C87B02046E6
:1026400000F096FB002844D12748284D606001A97E
:102650003320A0600120E06025482060686940F0D8
:1026600002006861686900F00200009000984FF471
:1026700040700190122002900220049000200390EC
:10268000042005901B4800F0B9FB286A40F40010B4
:1026900028620022286A00F40010009000210098AF
:1026A000286840F400102860286820F40010286092
:1026B0001F2000F0ACFC1F2000F0D2FC0022002103
:1026C000202000F0A4FC202000F0CAFC204600F0EE
:1026D00017F8204600F04CFB20280CBF00200120FA
:1026E00007B030BD900A00203A14D11038100240D3
:1026F00000540040000400484C100240000011103B
:1027000010B5040001D1012010BD94F83D0020B99E
:1027100084F83C00204600F06FFB242084F83D0044
:10272000206801684908490001606068216820F05C
:10273000706008612068816821F400418160A068B0
:1027400040B1E168012921680CBF40F4004040F429
:1027500004408860E068022803D121684FF40060DB
:1027600048602068416841F0007141F400414160D7
:10277000206961690843A16940EA01202168C860B5
:10278000E069216A0843216808602068016841F017
:102790000101016000202064202084F83D00002019
:1027A000206384F83E0010BD10B5040001D1012063
:1027B00010BD242084F83D002068016849084900C4
:1027C0000160204600F072FC0020206484F83D0087
:1027D000206384F83E0084F83C0010BD2DE9F04FE2
:1027E000054681B095F83D0020280F4616469B46C9
:1027F00040F05281DDF828A0BAF1000F00F03181DD
:102800000B9C200000F02D8128688069000400F1F5
:10281000438195F83C00012800F03E81012085F8B5
:102820003C0000F045FC8046212085F83D0040201A
:1028300085F83E0000202864C7F309000090DFF807
:10284000249528684168009A09EA010111435FFA5A
:102850008BF241EA024141F0807141F40051416044
:102860000C9F29688869800726D442463946284645
:1028700000F081FAA8B917F1010FF2D02FB100F0E2
:1028800017FCA0EB08008742EBD2286C40F0200038
:102890002864202085F83D00002085F83E0085F85A
:1028A0003C00286C286C042854D1002085F83C009A
:1028B00001B00120BDE8F08FBBF1010F23D0300A39
:1028C00088622868806980071DD4424639462846B8
:1028D00000F051FA0028E4D117F1010FF1D02FB127
:1028E00000F0E6FBA0EB08008742EAD2286C40F03B
:1028F00020002864202085F83D00002085F83E0057
:1029000085F83C00CDE72868F6B2866228688169C0
:10291000090612D417F1010FF8D02FB100F0C8FB4F
:10292000A0EB08008742F1D2202085F83D0000206E
:1029300085F83E0085F83C00B4E74168009AFF2C1A
:1029400009EA010110DD1143DFF81C241143416045
:10295000FF2611E0002085F83C0001B00320BDE80F
:10296000F08F009A09EA01011143E2B241EA024103
:1029700041F000714160264628688169890722D4A8
:1029800042463946284600F0F6F9A8B917F1010F7A
:10299000F2D02FB100F08CFBA0EB08008742EBD205
:1029A000286C40F020002864202085F83D0000209D
:1029B00085F83E0085F83C00286C042868D1012089
:1029C00001B0BDE8F08F1AF8011B8162761EA4F1F8
:1029D0000104A0B223D120B328688169090615D467
:1029E00017F1010FF8D02FB100F062FBA0EB080047
:1029F0008742F1D2202085F83D00002085F83E0076
:102A000085F83C0001B00320BDE8F08FA4B2FF2C94
:102A10004168A6DD009A09EA0101114394E7002804
:102A2000AAD12868816989061FD4424639462846BA
:102A300000F0A1F990B92FB100F03AFBA0EB08002B
:102A40008742EED2286C40F020002864202085F8D0
:102A50003D00002085F83E0085F83C00286C0428E5
:102A600016D1012001B0BDE8F08F2021C161286896
:102A7000DFF8F822416811404160202085F83D00D0
:102A8000002085F83E0085F83C0001B0BDE8F08FDD
:102A9000032001B0BDE8F08F022001B0BDE8F08F47
:102AA0002DE9F04F054681B095F83D0020280F46EE
:102AB00016469B4640F05281DDF828A0BAF1000F7F
:102AC00000F031810B9C200000F02D812868806986
:102AD000000400F1438195F83C00012800F03E819C
:102AE000012085F83C0000F0E3FA8046222085F8BA
:102AF0003D00402085F83E0000202864C7F309000F
:102B00000090DFF8609228684168009A09EA0101A4
:102B100011435FFA8BF241EA024141F400514160F6
:102B20000C9F29688869800726D442463946284682
:102B300000F021F9A8B917F1010FF2D02FB100F080
:102B4000B7FAA0EB08008742EBD2286C40F02000D7
:102B50002864202085F83D00002085F83E0085F897
:102B60003C00286C286C042855D1002085F83C00D6
:102B700001B00120BDE8F08FBBF1010F23D0300A76
:102B800088622868806980071DD4424639462846F5
:102B900000F0F1F80028E4D117F1010FF1D02FB1C6
:102BA00000F086FAA0EB08008742EAD2286C40F0D9
:102BB00020002864202085F83D00002085F83E0094
:102BC00085F83C00CDE72868F6B2866228688169FE
:102BD000490612D417F1010FF8D02FB100F068FAAE
:102BE000A0EB08008742F1D2202085F83D000020AC
:102BF00085F83E0085F83C00B4E74168009AFF2C58
:102C000009EA01010EDD114341F0FE7141F4493141
:102C10004160FF261AE0002085F83C0001B0032047
:102C2000BDE8F08F1143E2B241EA024141F0007188
:102C300041F4105108E0009A09EA01011143E2B29F
:102C400041EA024141F000714160264628688169ED
:102C5000490715D417F1010FF8D02FB100F028FA69
:102C6000A0EB08008742F1D2202085F83D0000202B
:102C700085F83E0085F83C0001B00320BDE8F08FE8
:102C8000406A0AF8010B761EA4F10104A0B228D113
:102C900048B328688169090615D417F1010FF8D0E7
:102CA0002FB100F005FAA0EB08008742F1D22020F6
:102CB00085F83D00002085F83E0085F83C0001B015
:102CC0000320BDE8F08FA4B2FF2C4168B3DD009A69
:102CD00009EA01011143DFF8902011434160FF260A
:102CE000B4E70028B2D12868816989061FD442461A
:102CF0003946284600F03FF890B92FB100F0D8F9D6
:102D0000A0EB08008742EED2286C40F02000286437
:102D1000202085F83D00002085F83E0085F83C0025
:102D2000286C042816D1012001B0BDE8F08F2021C5
:102D3000C1612868DFF834204168114041602020DB
:102D400085F83D00002085F83E0085F83C0001B084
:102D5000BDE8F08F032001B0BDE8F08F022001B084
:102D6000BDE8F08F009800FC0000FF0100E800FEC5
:102D700090F83D00704770B504460D4620688069A4
:102D8000C006164634D520688169890612D415F12B
:102D9000010FF8D025B100F08BF9801B8542F2D2EB
:102DA000202084F83D00002084F83E0084F83C0098
:102DB000032070BD1021C16120202168C8612068F6
:102DC0008169C90703D4816941F0010181612068EB
:102DD000084A41681140416004202064202084F8A2
:102DE0003D00002084F83E0084F83C00012070BDC6
:102DF000002070BD00E800FE704700002DE9F04F94
:102E000081B00C68714BDFF8C881DFF8C8910022EF
:102E1000002C4FF00F0A4FF0010B00F0BE800C6841
:102E20000BFA02FC1CEA040E00F0B2804C68022C83
:102E300018BF122C0ED1D40800EB84049500266A2A
:102E400005F01C050AFA05F7BE430F6907FA05F5F8
:102E5000354325625400032506680F79A540ED43EC
:102E600007F003072E40A7403E4306604E68012E40
:102E700018BF022E03D0112E18BF122E0ED1866855
:102E8000CF682E40A7403E43866046684F68C7F330
:102E9000001726EA0C0697403E4346604E6806F04F
:102EA0000307032F07D1C76AC6F3C00627EA0C073A
:102EB00096403E43C662C6682E408D6805FA04F40B
:102EC0003443C4604C68E40062D5D9F8004044F053
:102ED0000104C9F800404FEA920CD9F8005005F0FF
:102EE000010400949500009C58F82C6005F00C0437
:102EF0000AFA04F526EA0505B0F1904F08BF00264E
:102F00001DD0354EB04208BF012618D0334EB04216
:102F100008BF022613D0324EB04208BF03260ED09F
:102F2000304EB04208BF042609D02F4EB04208BF31
:102F3000052604D02D4EB0420CBF0626072606FA01
:102F400004F42C4348F82C406FEA0E061C684D68C8
:102F50003440ED0348BF4EEA04041C605C684D68D1
:102F60003440AD0348BF4EEA04045C609C684D6881
:102F70003440ED0248BF4EEA04049C60DC6806EA77
:102F8000040C4C68A40248BF4EEA0C0CC3F80CC0F9
:102F9000521C0C68D4407FF442AF01B0BDE8F08F02
:102FA00000690840401E8041C043C00F7047002A9E
:102FB00014BF8161816270470D4A136803421CBFD0
:102FC000106000F07BB97047000000000004014071
:102FD000080001406010024000040048000800485A
:102FE000000C004800100048001400480018004879
:102FF0001404014027490A684FF6FF0300021A40F3
:1030000000F4E0601043244A10430860704730B475
:10301000204B1B68C3F30223C3F10704052C28BF10
:1030200004241D1D072D34BF0023DB1E012505FAD6
:1030300004F4641E2140994005FA03F35B1E1A4014
:1030400011430901002807D5144A00F00F0010446D
:1030500000F8041C30BC7047114A115430BC704752
:10306000012100F01F0291400E4A400942F8201051
:103070007047401EB0F1807F01D3012070470A499C
:103080004860F02081F8130D002088600720086058
:10309000002070470CED00E00000FA0518ED00E09C
:1030A00000E400E000E100E010E000E07047000014
:1030B00001480068704700BF240B002070B598B02D
:1030C00000208DF8040000F059F900F065F90020A7
:1030D00000F0BCF90121002000F0F6F900F058FAE8
:1030E0000C200790002010900120099000200C90E7
:1030F00007A800F0A7FA7E4C00281ABF0120F9218A
:10310000FF21E1600A467F21A160A262794908603F
:10311000794820604020606000202061A061E0616B
:10312000204600F099FE00B1FEE78DF80300012271
:1031300001208DF801008DF802008DF8000069462D
:10314000204600F0E0FF00B1FEE78DF808008DF8A2
:1031500009008DF80A008DF80B00059006900122F9
:1031600002A9204600F0DAFE00B1FEE704F12C01CE
:1031700001F0AEF8012803D1002000F08FF9FEE73E
:10318000E06A01F055F9E06A01F06BF9FFF790FF92
:103190004FEA000540F6B83694F82400A8B1E06A7A
:1031A00001A901F06CF968B99DF8040050B100F074
:1031B00020F8002000F072F9642001F0A1F900204D
:1031C00000F077F9002084F8240094F8250028B155
:1031D000E06A01F072F908B984F82500FFF768FF8A
:1031E000401BB042D8D300F004F8FFF761FF05465A
:1031F000D2E7F0B589B03E4C002204A9204600F089
:103200004CFF002203A9204601F02CF8A06A059982
:10321000411A64225143401C91FBF0F533A104F1A3
:10322000300001F07BF904F1300001F091F9334EE8
:1032300041F2883782B23B4604F13001304601F05A
:10324000D6F99DF812009DF811309DF810200FF26C
:10325000B4010090EDB2019504F1300001F05EF987
:1032600004F1300001F074F982B23B4604F1300100
:10327000304601F0BCF9E06A02A901F0E9F8E06A21
:1032800004F1260101F00AF9012807BF9DF8082082
:103290000FF29401E28C0FF2D00104F1300001F042
:1032A0003DF904F1300001F053F982B23B4604F1DC
:1032B0003001304601F09BF909B0F0BD00B5B0F522
:1032C000005F81B009D1002000F04AF958B90849DF
:1032D000012081F8250001B000BD202803D1044958
:1032E000012081F8240001B000BD00000D0A00009B
:1032F00060090020280B002000280040F007002073
:10330000FEE7000054696D65207374616D703A20AA
:10331000253032643A253032643A253032642E2525
:103320003032640D0A0000004572726F72206765CA
:103330007474696E67207374657020636F756E7442
:103340002066726F6D204C534D3644534C202D2017
:10335000616363656C65726F6D657465725B25642E
:103360005D2E0D0A000000005374657020636F75B8
:103370006E743A2025640D0A0000000000B581B08B
:103380000320FFF737FE0F2001F0C4FB00F003F825
:10339000002001B000BD704700B595B0684600211F
:1033A000002200230EC006C00FF2600191EC100B4A
:1033B00080EC100B102005900C9201200B906020E7
:1033C0000D9002200E9001200F9010902820119057
:1033D00002201490072012900420139005A800F0FA
:1033E00031F908B1FFF78CFF0F2000900421032072
:1033F00001900020029003900490684600F0F4FBD6
:1034000008B1FFF77DFF15B000BD0000000000000F
:1034100000000000000000000000000000000000AC
:10342000000000000000000000000000000000009C
:10343000000000000000000000000000000000008C
:1034400000000000000000000000000010B586B081
:1034500001A90022002300241CC10CC101000AD1D3
:10346000DFF810110A6842F001020A60096801F0F1
:103470000101009100990FF20C11DFF8FC2031F8E6
:10348000101001910393012102910221049101A9DD
:1034900052F82000FFF7B2FC06B010BD0FF2E401B5
:1034A000DFF8D43031F8101053F820000122FFF774
:1034B0007EBD0FF2D001DFF8C03031F8101053F8A4
:1034C00020000022FFF773BD30B587B0044601A885
:1034D0000022002300252CC00CC020000AD1DFF8F8
:1034E0009400026842F004020260006800F00400E8
:1034F00000900098080011D10FF28C0030F81400F1
:103500000190029302200490039301A9DFF86C005C
:1035100050F82400FFF772FC07B030BD01291DD11F
:103520000FF2640030F814000190039301A9DFF852
:103530005000029002200490DFF8400050F8240070
:10354000FFF75CFC0FF2440030F8144000220F211A
:1035500060B2FFF75CFD60B2FFF782FD07B030BDDF
:103560000FF22401DFF8142031F8101052F8200077
:10357000FFF716BD4C1002407001002074010020BE
:1035800000002110200000000020000028000000A2
:1035900010B52948294C86B0016841F0010101604D
:1035A000016801F0010100910099016841F00101F9
:1035B0000160016801F0010100910099C16841F4C6
:1035C0000031C16001A9C06800F40030009000988B
:1035D0000420019002200290002003900220049019
:1035E000072005904FF09040FFF708FC082001905D
:1035F00001A9072005904FF09040FFF7FFFB10480E
:1036000020604FF4E13060600020A060E060206145
:10361000A0610C206061204600F0B6FF00B1FEE71B
:1036200004F1700060654FF48070A4F85800002029
:10363000E06606B010BD00004C100240F00700200C
:10364000004400402DE9F041044682B02078DFF8C4
:10365000DC57C00640F1B880A86810F00C0F40F0AD
:10366000D2802868800703D5A069002800F0C780B1
:103670002868276A00074EBF2868D5F8940000091B
:1036800000F0F000B84248D2A86D0026C00002D574
:1036900001F056FA0EE0A86D40F08050A865A86DC4
:1036A00000F080500090009801F04AFAA96D21F0D6
:1036B0008051A965B0F5007F05D1812F0ED3A12FD0
:1036C0000BD302260AE0812F28BF032606D2802FC3
:1036D00001D1022602E0702F00D10126DFF8540745
:1036E0000168C90846EAC1010160006800F00700EE
:1036F000B04240F08480286840F0080028602868C4
:10370000216A20F0F000084328606868E16920F42D
:103710007F4040EA0120686047E0286840F00800E8
:10372000286000262868216A20F0F00008432860FD
:103730006868E16920F47F4040EA01206860276AF8
:10374000A86DC00002D501F0FBF90EE0A86D40F0B5
:103750008050A865A86D00F080500090009801F09E
:10376000EFF9A96D21F08051A965B0F5007F05D171
:10377000812F0ED3A12F0BD302260AE0812F28BF61
:10378000032606D2802F01D1022602E0702F00D13D
:103790000126DFF8A0060168C90846EAC1010160F8
:1037A000006800F00700B04229D100F0D3FAAA68FF
:1037B000DFF88416C2F30312895CC840DFF8701684
:1037C00008600F2001F0A6F92078C00740F1A6801C
:1037D000A86800F00C00082809D0A86800F00C00C8
:1037E0000C2802BFE86800F00300032845D12868D0
:1037F000800340F193806068002840F08F800120B2
:1038000002B0BDE8F081A0690028286823D040F00C
:1038100001002860FFF74CFC06462868800708D4A2
:10382000FFF746FC801B0328F7D3032002B0BDE856
:10383000F081286840F0080028602868216A20F09C
:10384000F000084328606868E16920F47F4040EA9E
:1038500001206860B8E7400840002860FFF728FCB6
:10386000064628688007AFD5FFF722FC801B032897
:10387000F7D3032002B0BDE8F081286820F480303F
:103880002860286820F480202860FFF711FC064695
:103890002868800308D5FFF70BFC801B6528F7D349
:1038A000032002B0BDE8F0816068B0F5803F03D12D
:1038B000286840F4803010E0B0F5A02F286820F48C
:1038C00080302860286806D140F48020286028686D
:1038D00040F4803001E020F480202860606870B1FE
:1038E000FFF7E6FB06462868800317D4FFF7E0FBE6
:1038F000801B6528F7D3032002B0BDE8F081FFF7F5
:10390000D7FB06462868800308D5FFF7D1FB801B4C
:103910006528F7D3032002B0BDE8F0812078800746
:103920001CD5A86800F00C00042809D0A86800F095
:103930000C000C2802BFE86800F0030002282AD11E
:103940002868400503D5E06800283FF458AF686850
:10395000216920F0F85040EA016068602078000793
:1039600055D560690028D5F894003CD040F001009E
:10397000C5F89400FFF79CFB4FEA0006D5F89400C9
:10398000800744D4FFF794FB801B0328F6D3032061
:1039900002B0BDE8F081E0680028286811D040F44A
:1039A00080702860FFF784FB064628684005CED467
:1039B000FFF77EFB801B0328F7D3032002B0BDE88E
:1039C000F08120F480702860FFF772FB06462868BB
:1039D0004005C3D5FFF76CFB801B0328F7D30320FA
:1039E00002B0BDE8F08140084000C5F89400FFF740
:1039F0005FFB0646D5F89400800708D5FFF758FB13
:103A0000801B0328F6D3032002B0BDE8F0812078A4
:103A1000400740F17F80A86D0027C00009D4A86D41
:103A200040F08050A8650127A86D00F080500090FC
:103A30000098DFF80884D8F80000C00515D4D8F83D
:103A4000000040F48070C8F80000FFF731FB064624
:103A5000D8F80000C00508D4FFF72AFB801B032814
:103A6000F6D3032002B0BDE8F081A068012804D19C
:103A7000D5F8900040F001001EE010B9D5F8900094
:103A800012E00528D5F890000ED140084000C5F896
:103A90009000D5F8900040F00400C5F89000D5F8EB
:103AA000900040F0010007E040084000C5F8900099
:103AB000D5F8900020F00400C5F89000A06890B1FF
:103AC000FFF7F6FA4FEA000641F28938D5F8900080
:103AD00080071AD4FFF7ECFA801B4045F6D3032089
:103AE00002B0BDE8F081FFF7E3FA064641F28938FB
:103AF000D5F89000800708D5FFF7DAFA801B40451B
:103B0000F6D3032002B0BDE8F0811FB1A86D20F00C
:103B10008050A865606A002862D0A96801F00C0195
:103B20000C293FF46CAE0228286820F080702860D1
:103B30003ED1FFF7BDFA06462868800108D5FFF799
:103B4000B7FA801B0328F7D3032002B0BDE8F08149
:103B5000E06A216B401E090241EA0010616B09090D
:103B600040EA4140A16A0843A16B891E0905490D3D
:103B700040EA4150E16B891E090601F07E4108438D
:103B8000E860286840F080702860E86840F0807045
:103B9000E860FFF78DFA06462868800120D4FFF719
:103BA00087FA801B0328F7D3032002B0BDE8F08119
:103BB000E868DFF88C1280088000E860E868084058
:103BC000E860FFF775FA06462868800108D5FFF718
:103BD0006FFA801B0328F7D3032002B0BDE8F08101
:103BE000002002B0BDE8F0812DE9F041DFF8446229
:103BF00004463068884600F00700404509D2306826
:103C0000C00848EAC0003060306800F00700404556
:103C10007AD12078DFF81472800705D5B868A168DA
:103C200020F0F0000843B8602078C0075DD56068D8
:103C3000022802D13968890308E0032802D13968D3
:103C4000890103E00028396804D1890704D40120E0
:103C5000BDE8F081490557D5B968890840EA810077
:103C6000B860FFF725FA0546606802280ED1B868EB
:103C700000F00C00082838D0FFF71AFA401B41F278
:103C800089318842F3D30320BDE8F08103280ED1A7
:103C9000B86800F00C000C2827D0FFF709FA401B89
:103CA00041F289318842F3D30320BDE8F08168B93D
:103CB000B86810F00C0F18D0FFF7FAF9401B41F26A
:103CC00089318842F4D30320BDE8F081B86800F060
:103CD0000C00042809D0FFF7EBF9401B41F28931B1
:103CE0008842F3D30320BDE8F081306800F007007C
:103CF00080450CD23068C00848EAC00030603068A7
:103D000000F00700404502D00120BDE8F081207896
:103D1000400705D5B868E16820F4E0600843B86062
:103D20002078000706D5B868216920F4605040EA81
:103D3000C100B86000F00EF8BA683F49C2F3031240
:103D4000895CC8403A4908600F2000F0E3FE00207B
:103D5000BDE8F08135498B680022002013F00C0F7C
:103D600009D08B6803F00C030C2B02BFCB6803F067
:103D70000303012B12D10A68334B120759BFD1F844
:103D80009420C2F303220A68C2F3031253F82220DC
:103D90008B6813F00C0F0ED110460CE08B6803F00B
:103DA0000C03042B08BF294805D08B6803F00C03D3
:103DB000082B08BF26488B6803F00C030C2B20D17E
:103DC000C868CB68C3F302135B1C00F00300022831
:103DD00002D0032804D007E01C48B0FBF3F005E054
:103DE0001B48B0FBF3F001E0B2FBF3F0CA68C9680E
:103DF000C1F34161C2F30622491C50434900B0FBA4
:103E0000F1F070470A480F4A006812681149C2F37E
:103E10000222895CC840704705480A4A0068126857
:103E20000C49C2F3C222895CC840704700100240AE
:103E30007801002000200240146C0008007000404F
:103E4000FFFFEEFE08100240246C00080024F4007E
:103E500000127A00006E000870B504002BD094F8B0
:103E6000210020B984F82000204600F071FE0220D5
:103E700084F82100CA2021684862532021684862E2
:103E80002068C168490618D44FF0FF31C16040F284
:103E9000E936FFF70DF905462068C06840060CD4E6
:103EA000FFF706F9401BB042F6D32168FF204862B5
:103EB000042084F82100012070BD2068DFF8002470
:103EC00081681140816020688168626823691A43B3
:103ED000A3691A43114381602168E0680861206882
:103EE0000169A26841EA024101612068C16821F0CC
:103EF0008001C1602068C16C89088900C1642068A4
:103F0000C16CE26963691A431143C164FF202168EF
:103F10004862012084F82100002070BD2DE9F041A5
:103F200004460D4694F82000012808BF022000F046
:103F3000B280012084F82000022084F82100002AA9
:103F4000206880683CD140065CBF0020E87028787B
:103F50000A28014609DBDFF86C2380FB023292104D
:103F600002EBD272F62000FB021141EA02106978DE
:103F700000230A290A4609DBDFF8483381FB036383
:103F80009B1003EBD373F62101FB032242EA0311DA
:103F9000AA7800260A2A134609DBDFF8286382FB89
:103FA0000686B61006EBD676F62202FB0633090625
:103FB000C0B2090C41EA004043EA0611C9B209E067
:103FC00040065CBF0020E87069782878090241EA61
:103FD0000040A9780843E97840EA01462168CA20F0
:103FE00048625320216848622068C168490611D49C
:103FF0004FF0FF31C16040F2E938FFF759F807464A
:104000002068C068400605D4FFF752F8C01B404541
:10401000F6D32BE02168DFF8B0023040086020685A
:10402000816821F48021816020688168EA682B69B9
:104030001A43114381602068C16821F08001C1608A
:104040002068816889061DD4C16821F0A001C16083
:1040500040F2E936FFF72CF805462068C068800674
:1040600010D4FFF725F8401BB042F6D32168FF209B
:104070004862042084F82100002084F820000120F8
:10408000BDE8F0812168FF204862012084F821000A
:10409000002084F82000BDE8F0810068836A4B604E
:1040A0000369C3F30E038B600068DFF81C3218400D
:1040B000030C03F03F0C81F800C088704FEA102C0D
:1040C00003F0400081F801C0C870D2B90A78100925
:1040D00000EB800302F00F0000EB430008704A7809
:1040E000100900EB800302F00F0000EB4300487062
:1040F0008A78100900EB800302F00F0000EB430008
:10410000887000207047F0B5044681B094F8200014
:10411000012808BF022000F0A380012084F82000BD
:10412000022084F82100002A48785ED1C20603D517
:1041300000F0EF000A3048700023C8780A280246D1
:1041400009DBDFF8803180FB03539B1003EBD37353
:10415000F62000FB032242EA03104A7800250A2ACF
:10416000134609DBDFF85C5182FB0565AD1005EBFA
:10417000D575F62202FB053343EA05128B7800263B
:104180000A2B1D4609DBDFF83C6183FB0676B6107F
:1041900006EBD676F62303FB06551206C0B2120CC8
:1041A00042EA004045EA0612D2B20978104340EADA
:1041B00041352168CA20486253202168486220683E
:1041C000C168490617D44FF0FF31C16040F2E936AB
:1041D000FEF76EFF07462068C06840060BD4FEF766
:1041E00067FFC01BB042F6D325E0CA78000240EA60
:1041F00002408A78D9E72168DFF8D000284048607B
:104200002068C16821F08001C1602068816889064A
:104210001DD4C16821F0A001C16040F2E936FEF76B
:1042200047FF05462068C068800610D4FEF740FFAF
:10423000401BB042F6D32168FF204862042084F876
:104240002100002084F8200001B00120F0BD216889
:10425000FF204862012084F82100002084F820001B
:1042600001B0F0BD0068DFF8643040681840030C0E
:10427000CB708870030A03F01F03400B4B7000F0F3
:1042800007000870D2B9CA78100900EB800302F069
:104290000F0000EB4300C8704A78100900EB800360
:1042A00002F00F0000EB430048708A78100900EB21
:1042B000800302F00F0000EB43008870002070477D
:1042C000BFFF8FFF676666667F7F7F003FFFFF004F
:1042D00010B50C460021216068B10128204611D09C
:1042E00000F016F8012804D1204600F053F8012808
:1042F0000CD0002010BD204600F00AF80128F8D1AB
:10430000012010BD00F046F80128F2D1012010BDB7
:1043100030B5424D0446E878012881B038D0FEF728
:10432000C7F8012834D06A202870D6206870002091
:10433000688028710120687105F12800A86038485C
:10434000E860384828613848A86305F13800A86259
:104350000020E8622560E8680168080008D10020B4
:104360000021002207C503C5206001B0012030BD37
:1043700028468847012808D12068142100F03AFC1B
:104380000020206001B0012030BDFEF7E7F80020DA
:1043900001B030BD30B5214D0446E87D012881B023
:1043A00039D0FEF785F8012835D033202875322022
:1043B00068750120A8750020E875287601206876C8
:1043C00005F13000E861194828620020686205F1B3
:1043D000400028630020686305F114002060286A0B
:1043E0000168080005F1140008D100210022002313
:1043F0000EC006C02160012001B030BD88470128F1
:1044000008D12068142100F0F5FB0020206001B0E5
:10441000012030BD002001B030BD0000D80A0020CE
:104420002001002050000020300B00200000002060
:1044300000B581B018B1C16889680A0002D10120B5
:1044400001B000BD8847012818BF002001B000BDA1
:10445000002818BF00290FBF0120807808700020B5
:10446000704700281CBF0169002906D002786A2A1B
:1044700003D109690A0018BF0847012070470028C6
:104480001CBF0269002A07D031B103786A2B03D11F
:104490009269130018BF10470120704700281CBF05
:1044A0000269002A07D031B103786A2B03D1D2699F
:1044B000130018BF10470120704730B581B00400C9
:1044C0001CBF2569002D17D020786A2814D1296ACD
:1044D00008001CBF686A00280ED0204688470128C3
:1044E0000BD00A2000F00CF8696A204688470128A2
:1044F00003D0002001B030BD012001B030BD00006C
:1045000030B581B00446FEF7D3FD0546FEF7D0FD79
:10451000401BA042FAD301B030BD00000CB41CB562
:10452000044604A801900A46009401AB6946074876
:104530007844183000F062FB009A002111700028C6
:104540005CBF0098001B16BC5DF80CFB5BD1FFFF45
:1045500000F10103810704D010F8011B89B1810724
:10456000FAD10268B2F10131914311F0803F04BFEA
:1045700050F8042FF6E710F8011B11B110F8011BD9
:10458000FBE7C01A7047000010B5040014D094F87F
:10459000690020B984F86800204600F0B9FA0220CA
:1045A00084F86900206801684908490001602046D4
:1045B00000F0ACF8012801D1012010BD606A10B1F3
:1045C000204600F0F5F92068416821F490414160EF
:1045D0002068816821F02A0181602068016841F02B
:1045E000010101602046BDE8104000F044BAF0B57A
:1045F000044681B094F8690001281CBF94F8690052
:1046000022280E461D467DD10EB1100002D1012098
:1046100001B0F0BD94F86800012873D0012084F83F
:1046200068000020E06694F8690022280CBF322060
:10463000122084F86900A4F85020A4F8522000E069
:104640000185B4F8520001003DD0401EA4F852008C
:10465000FEF72EFD07462068C169090625D415F12D
:10466000010FF8D025B1FEF723FDC01B8542F2D221
:104670002068016821F0800101602068016821F054
:10468000200101602068016821F4807101602068C8
:104690008168490849008160012084F86900002090
:1046A00084F8680001B00320F0BDA168B1F5805F17
:1046B00004BF2169002912BF16F8011B36F8021B3E
:1046C000C1F30801BCE7FEF7F3FC06462068C069A9
:1046D00040060AD415F1010FF8D0002DC8D0FEF71E
:1046E000E7FC801B8542F1D2C2E794F869003228CA
:1046F0000CBF2220012084F86900002084F86800A3
:1047000001B0F0BD022001B0F0BD0000F0B50446DC
:1047100081B022689A4B10681840A3681843236937
:10472000184363691843E369184310601026506802
:10473000E36820F440501843506000210025A06930
:10474000904B9A421CBF276A3843976827F430671A
:10475000384390608C48824220D18C48006800F039
:10476000030003284ED8DFE800F0023C2B4C012662
:10477000E069B0F5004F40F0D980082E00F2CA8001
:10478000DFE806F005AFB6C8BBC8C8C8C200FFF76F
:1047900039FB61684000B0FBF1F1BCE07C4882422B
:1047A00010D17A48006800F00C000C282AD8DFE805
:1047B00000F06529292918292929072929292800EC
:1047C00002261FE0734882420DD17048006810F045
:1047D000300053D0102804D02028F1D0302810D039
:1047E00010E004260EE06C48824226D1674800683B
:1047F00010F0C00042D04028F3D08028E0D0C0287C
:1048000000D108269A42B3D1082E00F2B580DFE825
:1048100006F005B337B339B3B3B33C00FFF7F2FA90
:10482000002800F0AA80616801EB41029042C0F0CC
:10483000A3800A0382422BD29EE0584882420DD1C7
:104840005248006810F4407018D0B0F5807FC8D08E
:10485000B0F5007FB4D0B0F5407FC0E79A42D1D127
:104860004A48006810F4406008D0B0F5806FB8D0B6
:10487000B0F5006FA4D0B0F5406FB0E70026C1E7F7
:104880004748D0E7FFF766FACAE74FF40040CAE7A7
:10489000082E1BD8DFE806F0051A081A0C1A1A1A97
:1048A0001500FFF7AFFA05E03E48B0FBF1F00EE06F
:1048B000FFF750FA010E62680002002300F0A2FD2B
:1048C00005E04FF40000B0FBF1F000E00125A0F599
:1048D0004071354A91424FD22168C860284601B0E4
:1048E000F0BDFFF799FA61684000B0FBF1F112E00A
:1048F00061682E48B0FBF1F10DE0FFF72BFA61681B
:104900004000B0FBF1F106E061684FF48030B0FB8D
:10491000F1F100E001254FF6F0700840C1F34201CB
:1049200008432168C860284601B0F0BD082E23D88E
:10493000DFE806F005080B220D2222221800FFF7FF
:1049400061FA06E0FFF768FA03E015480CE0FFF7AC
:1049500001FA6168B0FBF1F0216880B2C86001B073
:104960002846F0BD4FF400406168B0FBF1F080B222
:10497000D06001B02846F0BD0125284601B0F0BD49
:10498000F369FFEF008000400038014088100240CA
:104990000044004000480040004C004000500040EF
:1049A0000024F400000024F400FD0F000048E8019A
:1049B00090F82410C90706D501684A68836A22F472
:1049C00000321A434A6090F82410890706D501681E
:1049D0004A68C36A22F480321A434A6090F824106D
:1049E000490706D501684A68036B22F480221A43FE
:1049F0004A6090F82410090706D501684A68436B9D
:104A000022F400421A434A6090F82410C90606D5E1
:104A100001688A68836B22F480521A438A6090F896
:104A20002410890606D501688A68C36B22F40052F7
:104A30001A438A6090F82410490610D501684A6824
:104A4000036C22F480121A434A60026CB2F5801F94
:104A500005D14A68436C22F4C0021A434A6090F8B8
:104A60002410090606D501684A68806C22F40022E9
:104A700010434860704730B5044681B00020E066BE
:104A80002068006800070DD5FEF712FB0546206878
:104A9000C069800206D4FEF70BFB401BB0F1007F1B
:104AA000F5D310E020680068400729D5FEF700FB29
:104AB00005462068C069400222D4FEF7F9FA401B7F
:104AC000B0F1007FF5D32068016821F0800101601A
:104AD0002068016821F0200101602068016821F44C
:104AE0008071016020688168490849008160012067
:104AF00084F86900002084F8680001B0032030BD0C
:104B0000012084F86900002084F8680001B030BDFD
:104B10007047000010B504460748084A0068A0FB2B
:104B20000221480AFEF7A5FA002221464FF0FF3085
:104B3000FEF76DFA002010BD78010020986E1283F8
:104B4000DFF80800006800F4C060704700700040A3
:104B500010B5264CB0B0206840F08050206020682E
:104B600000F080500090009800F0C4FC20480068DD
:104B700098B90C20019000200A9001200390002099
:104B8000069001A8FEF75EFD08B1FEF7B9FB4FF4F1
:104B9000003011904FF4807012E00C200190002042
:104BA0000A90012006900020039001A8FEF74AFD1C
:104BB00008B1FEF7A5FB4FF4003011904FF40070E0
:104BC0002E9011A800F09EFC08B1FEF799FBA06B97
:104BD00040F40040A06300220F212920FEF717FABD
:104BE0002920FEF73DFA30B010BD000058100240F9
:104BF000280B0020002200F081BF00002DE9F04FBB
:104C000080460FF2A47095B015461E46D0E90023E9
:104C1000CDE9132303AF00200391B8610DF13409EE
:104C200000E02D190020ADF8020013AB4FF0FF3269
:104C300029460DF1020000F090FF0446012C04DA31
:104C40002878441EA441E443E40FBDF8020025285F
:104C50000CBFA4F1010BA346BBF1010F0EDBAA466A
:104C60001AF8011B0398C0470028039000F0DA806F
:104C7000B869401CBBF1010BB861F1D1BDF802006D
:104C8000252804D10020F8603861786105E000280B
:104C9000C7D1B86906E340F0010015F8011F2029CB
:104CA000F9D023290DD02B2904D02D2906D0302965
:104CB0000AD00CE040F0020080B2EEE740F00400C1
:104CC000FAE740F00800F7E740F01000F4E72A297F
:104CD0000ED13168316051F8042B3160002A3A62FC
:104CE00004D5514240F00400396280B26D1C13E0DB
:104CF000002139620BE0396A6FF00043994205D018
:104D000001EB810302EB4301303939626D1C2A78D3
:104D1000A2F130010A29EED329782E2903D04FF0D1
:104D2000FF31F9611FE015F8011F2A2907D1316809
:104D300031606D1C51F8042B3160FA6113E00021E1
:104D4000F9610BE0F9696FF00043994205D001EB7E
:104D5000810302EB43013039F9616D1C2A78A2F11D
:104D600030010A29EED3B8840FF24460297800F0AC
:104D700005FF08B115F8010B8DF832009DF83200DF
:104D8000682804BF2878682803D162208DF8320093
:104D90006D1C0DA8B86015F8014B252C13D0582CAC
:104DA0004BD0632C00F0A380642C18BF692C7CD0FE
:104DB0006F2C42D0702C36D0732C0AD0752C18BFB3
:104DC000782C3AD0B6E00120F86025208DF8340028
:104DD000BAE09DF832006C283068306018D050F886
:104DE000044B30607C60D7F81CA0BAF1000F04D5EA
:104DF0002046FFF7ADFB824607E0524600212046E1
:104E000000F0C8FE08B1A0EB040AC7F810A09BE0B0
:104E100050F8042B306002A9404600F02DF900281C
:104E200040F192803CE23068306050F8041B306002
:104E300002910DA87860782155E09DF832006C2829
:104E40000DD0712818BF6A2809D13068C01D20F024
:104E500007023260D2E900010832326004E03168B2
:104E6000316051F8040B316002909DF832006828DF
:104E700002D102A8008803E0622802D102A80078CB
:104E8000029097F82400000728D5029830B344F028
:104E90002000782822D1F868302109F80010401C41
:104EA000411CF96009F8004018E09DF832003146D5
:104EB00000F0BCF80028029002D5F8682D2109E026
:104EC000B88C810702D5F8682B2103E0C00705D50F
:104ED000F868202109F80010401CF8600DA8F96856
:104EE00008447860214602A800F0DFF92CE09DF824
:104EF00032006C2809D00120F8603068306050F82A
:104F0000041B30608DF834101EE03068306001AA58
:104F100050F8041B3060ADF804100020ADF8060016
:104F200002A94FF0FF30F861404600F0A5F80028D4
:104F30000AD577E70120F86025208DF834001CB1F0
:104F40000220F86089F80140386AF968401A7969E6
:104F5000401A3969441A97F82400400711D42020D8
:104F6000012C8DF800000CDBA24601236A4602A941
:104F7000404600F001FA00287FF454AFBAF1010A6C
:104F8000F3D1D7F80CB0BBF1000F0DF1340A0DD0FE
:104F90001AF8011B0398C047002803903FF442AF62
:104FA000B869401CBBF1010BB861F1D1D7F814A06E
:104FB0003020BAF1010F8DF800000BDB01236A46A7
:104FC00002A9404600F0D8F900287FF42BAFBAF1CF
:104FD000010AF3D1D7F810B0D7F804A0BBF1000F45
:104FE0000DD01AF8011B0398C047002803903FF426
:104FF00019AFB869401CBBF1010BB861F1D197F84A
:10500000240040077FF50EAE2020012C8DF8000013
:10501000FFF608AE01236A4602A9404600F0ACF94B
:1050200000287FF4FFAE641EF4D1FBE5622815D0A2
:1050300068280CD06C2818BF742816D07A2814D190
:105040000A680A6052F8040B0A60002170470A6877
:105050000A6052F8040B0A6000B20BE00A680A60AA
:1050600052F8040B0A6040B204E00A680A6052F881
:10507000040B0A60C11770472DE9F44F0D4694B038
:105080002F6A002F804648BF6FF0004700F0AEFD4A
:10509000696A401801900FF22030D0E90023CDE971
:1050A000022395F82800400702D40198412805D230
:1050B00040200DF110090190002606E000F09CFD53
:1050C0005FEA0009F8D1EBE03F1B012FC0F29480AA
:1050D0001498018802AA0DF1010000F0E5FD0028F6
:1050E000044600F19C801498008810B9641E00F1F9
:1050F0009680A742C0F280802869019922189142C7
:1051000068D26E624042A969401A6969461A95F8E8
:105110002800400710D42020012E8DF800000BDB62
:10512000B24601236A462946404600F025F9002888
:1051300075D1BAF1010AF4D1D5F810B0BBF1000F66
:10514000CA460CD01AF8011B6868C047002868607E
:1051500065D0E869401CBBF1010BE861F2D1302059
:105160008DF80000D5F818A0BAF1010F0ADB012371
:105170006A462946404600F0FFF800284FD1BAF1B0
:10518000010AF4D1D5F814B0D5F808A0BBF1000F8E
:105190000CD01AF8011B6868C047002868603ED030
:1051A000E869401CBBF1010BE861F2D195F82800D9
:1051B00040070DD52020012E8DF8000008DB0123CB
:1051C0006A462946404600F0D7F840BB761EF6D125
:1051D00000262E61224628690DF10101484400F0A5
:1051E00071FD2869201828611498801C1490801E75
:1051F000008800287FF468AF686A2969401AA969A5
:10520000401A6969471A95F8280040070FD4012F02
:105210000DDB3C4668682021C047686010B94FF03C
:10522000FF3635E0E869401C641EE861F2D12B6965
:105230004A462946404600F09FF80028EFD1AC6965
:10524000012C0ADB68683021C04700286860E6D07E
:10525000E869401C641EE861F4D16B69AA682946BC
:10526000404600F089F80028D9D195F82800400779
:105270000CD5012F0ADB68682021C0470028686030
:10528000CDD0E869401C7F1EE861F4D12E616E62CA
:1052900004A881451CBF484600F050FD304601E09F
:1052A0004FF0FF3015B0BDE8F08FF0B4C2686F2941
:1052B00008BF082405D041F02003782B14BF0A242E
:1052C000102418230668642918BF6929374602D1BB
:1052D000002E48BF7F425FB9056A4DB9082C27D11F
:1052E00090F82810090723D530211723D1751FE026
:1052F000B7FBF4F604FB16773037FFB25D1E3A2F8A
:10530000A4BFA1F1510C674457552B46370003D079
:105310008568D618B542EBD3082C09D190F828102F
:10532000090705D5D15C302902D05B1E3021D1544C
:105330001A448260C3F11801026A4161914208DA9D
:10534000511A81614FF6EF72018D11400185F0BC59
:105350007047002A0ED590F8282002F01402102A77
:1053600008D1426A0369D21A8369D21A531A012BEF
:10537000A8BF8361F0BC7047F8B504460D461646D9
:105380001F46002077B116F8011B6868A0476860C7
:1053900030B1E869401CE86100207F1EF3D1F2BD06
:1053A0004FF0FF30F2BD00000000000000000000E0
:1053B000686C747A4C0000000000000000000000DF
:1053C00013F0004C03D55B42524263F100039CEAA8
:1053D000210C00F0178010B5644603D349424042C7
:1053E00061F1000100F00EF8640004D3494240422C
:1053F00061F10001244203D55B42524263F1000394
:1054000010BD00001B4213D1094236D12AB1844697
:10541000B0FBF2F002FB10C2704700F0CFBCFCD32F
:105420000022002370470B0002000021002070477B
:10543000904271EB030CF6D370B5B1FA81F4B3FA74
:1054400083F52C1BA340C4F1200532FA05F6334343
:10545000A2405FF00046E64002E05B085FEA3202ED
:10546000841A71EB030524BF204629467641F4D304
:1054700002000B003000002170BD012ACFD970B5A9
:10548000140C20D0B1FA81F4B2FA82F5C4F12004F0
:105490006419B4F12006D6D3B2405FF00044F44062
:1054A000002502E052085FEA3303C61A71EB020ED0
:1054B00024BF3046714664416D41F3D302000B00B6
:1054C0002000290070BD0C46B1FBF2F102FB114532
:1054D0002D0445EA1045B5FBF2F402FB145580B2E9
:1054E00040EA0545B5FBF2F002FB105240EA0440E9
:1054F00070BD00000248016841F48071016070478E
:10550000007000402DE9F047044682B02068DFF8C3
:105510005C5500260005B04625D5606D70B1B0F52C
:10552000800F19D0B0F5000F03D0B0F5400F09D0AF
:1055300017E0E86840F48030E86004E0201D00F0E7
:1055400011FA064676B9D5F88800616D20F440005E
:105550000843C5F8880006E004F1180000F088FA56
:10556000EFE70126B0462068C00426D5A06DB8B18B
:10557000B0F1807F19D0B0F1007F03D0B0F1407F4F
:1055800004D018E0E86840F48030E860A6B9D5F8A7
:105590008800A16D20F040700843C5F888000CE039
:1055A000201D00F0DFF90646F0E704F1180000F0D6
:1055B0005FFA0646EAE70126B046206880035BD51D
:1055C000A86D0027C00009D4A86D40F08050A865E0
:1055D0000127A86D00F0805000900098DFF8149526
:1055E000D9F8000040F48070C9F80000FDF760FDB4
:1055F0004FEA000AD9F80000C00506D4FDF758FDAF
:10560000A0EB0A000328F5D32FE07EBBD5F890006D
:10561000616F00F44070884200F0BB80D5F89000C4
:10562000D5F8901041F48031C5F8901020F4407006
:10563000D5F8901021F48031C5F89010C5F890008D
:1056400000F00200022840F0A480FDF731FD824600
:1056500041F28936D5F89000800700F19A80FDF775
:1056600027FDA0EB0A00B042F4D30326B0461FB1D9
:10567000A86D20F08050A8652078C00707D5D5F820
:105680008800A16A800841EA8000C5F88800207877
:10569000800707D5D5F88800E16A20F00C000843A0
:1056A000C5F888002078400707D5D5F88800216B19
:1056B00020F030000843C5F888002078000707D59F
:1056C000D5F88800616B20F0C0000843C5F8880059
:1056D0002078C00607D5D5F88800A16B20F440706B
:1056E0000843C5F888002078800607D5D5F88800DB
:1056F000E16B20F440600843C5F88800206880050D
:1057000007D5D5F88800E16C20F440200843C5F89F
:1057100088002068400507D5D5F88800216D20F461
:1057200040100843C5F888002078400607D5D5F812
:105730008800216C20F440500843C5F88800207888
:10574000000607D5D5F88800616C20F44040084376
:10575000C5F888002068C00507D5D5F88800A16C79
:1057600020F440300843C5F888002068800421D523
:10577000D5F88800E16D20F040600843C5F8880046
:10578000E06DB0F1006F0DD1E86840F48010E86082
:1057900010E0D5F89000616F20F440700843C5F820
:1057A000900064E7B0F1806F04D1201D00F01BF978
:1057B00000B180462068000318D5D5F88800216E16
:1057C00020F040600843C5F88800206EB0F1006FFB
:1057D00004D1E86840F48010E86007E0B0F1806F21
:1057E00004D1201D00F0FFF800B18046206840037E
:1057F00018D5D5F88800616E20F040600843C5F8E0
:105800008800606EB0F1006F04D1E86840F4801049
:10581000E86007E0B0F1806F04D1201D00F0E3F8EC
:1058200000B180462068400440F18280D5F88800AD
:10583000A16E20F040500843C5F88800A06EB0F17A
:10584000805F39D1286820F080602860FDF730FC47
:1058500007462868000107D5FDF72AFCC01B03286E
:10586000F7D34FF0030863E02869616820F4FE4035
:1058700040EA0120286128692169891E090620F073
:10588000C06001F07E4108432861286840F08060D4
:105890002860FDF70DFC07462868000107D4FDF7D6
:1058A00007FCC01B0328F7D34FF0030840E028692A
:1058B0006169084328613BE0B0F1005F38D1286896
:1058C00020F080502860FDF7F3FB07462868800031
:1058D00007D5FDF7EDFBC01B0328F7D34FF00308F6
:1058E00026E06869A16920F4FE4040EA0120686171
:1058F0006869216A891E090620F0C06001F07E41B6
:1059000008436861286840F080502860FDF7D0FBAC
:1059100007462868800007D4FDF7CAFBC01B032890
:10592000F7D34FF0030803E06869616A08436861D0
:105930002068000407D5D5F88800E16E20F080408B
:105940000843C5F888002068C00307D5D5F888004B
:10595000216F20F000400843C5F88800404602B09F
:10596000BDE8F087F0B5414E81B00446306820F0C4
:10597000806030600025FDF79BFB07463068000122
:1059800008D5FDF795FBC01B0328F7D30325284650
:1059900001B0F0BD3069216820F4FE4040EA0120EA
:1059A00030613069616820F40030090940EA414003
:1059B0003061306840F080603060FDF779FB074669
:1059C0003068000108D4FDF773FBC01B0328F7D330
:1059D0000325284601B0F0BD3069216908433061D4
:1059E00001B02846F0BDF0B5204E81B004463068C5
:1059F00020F0806030600025FDF75AFB07463068D4
:105A0000000108D5FDF754FBC01B0328F7D303257D
:105A1000284601B0F0BD3069216820F4FE4040EA1C
:105A2000012030613069A168891E090520F4C00099
:105A3000490D40EA41503061306840F0806030608C
:105A4000FDF736FB07463068000108D4FDF730FB50
:105A5000C01B0328F7D30325284601B0F0BD3069E9
:105A600021690843306101B02846F0BD00100240B2
:105A7000F0B5214E81B00446306820F0805030608F
:105A80000025FDF715FB07463068800008D5FDF7B7
:105A90000FFBC01B0328F7D30325284601B0F0BD38
:105AA0007069216820F4FE4040EA0120706170694D
:105AB000616820F40030090940EA414070613068B3
:105AC00040F080503060FDF7F3FA07463068800000
:105AD00008D4FDF7EDFAC01B0328F7D303252846A9
